{
  "contractName": "AirdropForSwapsSnapshot",
  "abi": [
    {
      "inputs": [
        {
          "internalType": "contract IERC20",
          "name": "_token",
          "type": "address"
        },
        {
          "internalType": "address",
          "name": "_tokenWallet",
          "type": "address"
        },
        {
          "internalType": "uint256",
          "name": "_airdropMinAmount",
          "type": "uint256"
        },
        {
          "internalType": "uint256",
          "name": "_airdropMaxAmount",
          "type": "uint256"
        }
      ],
      "stateMutability": "nonpayable",
      "type": "constructor"
    },
    {
      "anonymous": false,
      "inputs": [
        {
          "indexed": true,
          "internalType": "address",
          "name": "previousOwner",
          "type": "address"
        },
        {
          "indexed": true,
          "internalType": "address",
          "name": "newOwner",
          "type": "address"
        }
      ],
      "name": "OwnershipTransferred",
      "type": "event"
    },
    {
      "anonymous": false,
      "inputs": [
        {
          "indexed": false,
          "internalType": "address",
          "name": "wallet",
          "type": "address"
        },
        {
          "indexed": false,
          "internalType": "address",
          "name": "account",
          "type": "address"
        },
        {
          "indexed": false,
          "internalType": "uint256",
          "name": "amount",
          "type": "uint256"
        }
      ],
      "name": "transferToken",
      "type": "event"
    },
    {
      "inputs": [
        {
          "internalType": "address",
          "name": "",
          "type": "address"
        }
      ],
      "name": "airdropList",
      "outputs": [
        {
          "internalType": "address",
          "name": "token",
          "type": "address"
        },
        {
          "internalType": "uint256",
          "name": "airdropAmount",
          "type": "uint256"
        },
        {
          "internalType": "uint256",
          "name": "daoBalance",
          "type": "uint256"
        },
        {
          "internalType": "uint256",
          "name": "swappedAmount",
          "type": "uint256"
        },
        {
          "internalType": "bool",
          "name": "isClaim",
          "type": "bool"
        }
      ],
      "stateMutability": "view",
      "type": "function",
      "constant": true
    },
    {
      "inputs": [],
      "name": "airdropMaxAmount",
      "outputs": [
        {
          "internalType": "uint256",
          "name": "",
          "type": "uint256"
        }
      ],
      "stateMutability": "view",
      "type": "function",
      "constant": true
    },
    {
      "inputs": [],
      "name": "airdropMinAmount",
      "outputs": [
        {
          "internalType": "uint256",
          "name": "",
          "type": "uint256"
        }
      ],
      "stateMutability": "view",
      "type": "function",
      "constant": true
    },
    {
      "inputs": [],
      "name": "checkTransferSwitch",
      "outputs": [
        {
          "internalType": "bool",
          "name": "",
          "type": "bool"
        }
      ],
      "stateMutability": "view",
      "type": "function",
      "constant": true
    },
    {
      "inputs": [],
      "name": "owner",
      "outputs": [
        {
          "internalType": "address",
          "name": "",
          "type": "address"
        }
      ],
      "stateMutability": "view",
      "type": "function",
      "constant": true
    },
    {
      "inputs": [],
      "name": "renounceOwnership",
      "outputs": [],
      "stateMutability": "nonpayable",
      "type": "function"
    },
    {
      "inputs": [],
      "name": "token",
      "outputs": [
        {
          "internalType": "contract IERC20",
          "name": "",
          "type": "address"
        }
      ],
      "stateMutability": "view",
      "type": "function",
      "constant": true
    },
    {
      "inputs": [],
      "name": "tokenWallet",
      "outputs": [
        {
          "internalType": "address",
          "name": "",
          "type": "address"
        }
      ],
      "stateMutability": "view",
      "type": "function",
      "constant": true
    },
    {
      "inputs": [
        {
          "internalType": "address",
          "name": "newOwner",
          "type": "address"
        }
      ],
      "name": "transferOwnership",
      "outputs": [],
      "stateMutability": "nonpayable",
      "type": "function"
    },
    {
      "inputs": [
        {
          "internalType": "uint256",
          "name": "amount",
          "type": "uint256"
        }
      ],
      "name": "setAirdropMinAmount",
      "outputs": [],
      "stateMutability": "nonpayable",
      "type": "function"
    },
    {
      "inputs": [
        {
          "internalType": "uint256",
          "name": "amount",
          "type": "uint256"
        }
      ],
      "name": "setAirdropMaxAmount",
      "outputs": [],
      "stateMutability": "nonpayable",
      "type": "function"
    },
    {
      "inputs": [],
      "name": "openCheckTransferSwitch",
      "outputs": [],
      "stateMutability": "nonpayable",
      "type": "function"
    },
    {
      "inputs": [],
      "name": "closeCheckTransferSwitch",
      "outputs": [],
      "stateMutability": "nonpayable",
      "type": "function"
    },
    {
      "inputs": [
        {
          "components": [
            {
              "internalType": "address",
              "name": "token",
              "type": "address"
            },
            {
              "internalType": "uint256",
              "name": "daoBalance",
              "type": "uint256"
            },
            {
              "internalType": "uint256",
              "name": "swappedAmount",
              "type": "uint256"
            }
          ],
          "internalType": "struct AirdropForSwapsSnapshot.AirdropListItem[]",
          "name": "list",
          "type": "tuple[]"
        }
      ],
      "name": "updateAirdropList",
      "outputs": [],
      "stateMutability": "nonpayable",
      "type": "function"
    },
    {
      "inputs": [
        {
          "internalType": "address",
          "name": "account",
          "type": "address"
        }
      ],
      "name": "checkIsClaim",
      "outputs": [
        {
          "internalType": "bool",
          "name": "",
          "type": "bool"
        }
      ],
      "stateMutability": "view",
      "type": "function",
      "constant": true
    },
    {
      "inputs": [],
      "name": "receiveAirdrop",
      "outputs": [],
      "stateMutability": "nonpayable",
      "type": "function"
    },
    {
      "inputs": [
        {
          "internalType": "address payable",
          "name": "recipientToken",
          "type": "address"
        }
      ],
      "name": "killSelf",
      "outputs": [],
      "stateMutability": "nonpayable",
      "type": "function"
    }
  ],
  "bytecode": "0x60806040526001600660006101000a81548160ff0219169083151502179055503480156200002c57600080fd5b50604051620029e9380380620029e9833981810160405281019062000052919062000349565b62000072620000666200023860201b60201c565b6200024060201b60201c565b600073ffffffffffffffffffffffffffffffffffffffff168473ffffffffffffffffffffffffffffffffffffffff161415620000e5576040517f08c379a0000000000000000000000000000000000000000000000000000000008152600401620000dc906200044c565b60405180910390fd5b600073ffffffffffffffffffffffffffffffffffffffff168373ffffffffffffffffffffffffffffffffffffffff16141562000158576040517f08c379a00000000000000000000000000000000000000000000000000000000081526004016200014f906200046e565b60405180910390fd5b808211156200019e576040517f08c379a000000000000000000000000000000000000000000000000000000000815260040162000195906200042a565b60405180910390fd5b83600260006101000a81548173ffffffffffffffffffffffffffffffffffffffff021916908373ffffffffffffffffffffffffffffffffffffffff16021790555082600360006101000a81548173ffffffffffffffffffffffffffffffffffffffff021916908373ffffffffffffffffffffffffffffffffffffffff16021790555081600481905550806005819055505050505062000654565b600033905090565b60008060009054906101000a900473ffffffffffffffffffffffffffffffffffffffff169050816000806101000a81548173ffffffffffffffffffffffffffffffffffffffff021916908373ffffffffffffffffffffffffffffffffffffffff1602179055508173ffffffffffffffffffffffffffffffffffffffff168173ffffffffffffffffffffffffffffffffffffffff167f8be0079c531659141344cd1fd0a4f28419497f9722a3daafe3b4186f6b6457e060405160405180910390a35050565b600081519050620003158162000606565b92915050565b6000815190506200032c8162000620565b92915050565b60008151905062000343816200063a565b92915050565b600080600080608085870312156200036057600080fd5b600062000370878288016200031b565b9450506020620003838782880162000304565b9350506040620003968782880162000332565b9250506060620003a98782880162000332565b91505092959194509250565b6000620003c460508362000490565b9150620003d182620004f3565b606082019050919050565b6000620003eb60268362000490565b9150620003f88262000568565b604082019050919050565b600062000412602d8362000490565b91506200041f82620005b7565b604082019050919050565b600060208201905081810360008301526200044581620003b5565b9050919050565b600060208201905081810360008301526200046781620003dc565b9050919050565b60006020820190508181036000830152620004898162000403565b9050919050565b600082825260208201905092915050565b6000620004ae82620004c9565b9050919050565b6000620004c282620004a1565b9050919050565b600073ffffffffffffffffffffffffffffffffffffffff82169050919050565b6000819050919050565b7f41697264726f703a20546865206d696e696d756d2061697264726f7020616d6f60008201527f756e74206d757374206265206c657373207468616e20746865206d6178696d7560208201527f6d2061697264726f7020616d6f756e7400000000000000000000000000000000604082015250565b7f41697264726f703a2054686520746f6b656e20697320746865207a65726f206160008201527f6464726573730000000000000000000000000000000000000000000000000000602082015250565b7f41697264726f703a2054686520746f6b656e2077616c6c65742069732074686560008201527f207a65726f206164647265737300000000000000000000000000000000000000602082015250565b6200061181620004a1565b81146200061d57600080fd5b50565b6200062b81620004b5565b81146200063757600080fd5b50565b6200064581620004e9565b81146200065157600080fd5b50565b61238580620006646000396000f3fe608060405234801561001057600080fd5b506004361061010b5760003560e01c80637b231ceb116100a2578063bff99c6c11610071578063bff99c6c14610236578063e8916fc314610254578063e9f7df9614610284578063f2fde38b146102a2578063fc0c546a146102be5761010b565b80637b231ceb146101c25780638da5cb5b146101e0578063920b366f146101fe578063ac195c681461021a5761010b565b80633a507d7d116100de5780633a507d7d1461014c57806358cf77fa14610168578063715018a61461019c578063775e884f146101a65761010b565b80630c3b65d31461011057806318f15d651461011a5780632428825d1461013857806335b0152c14610142575b600080fd5b6101186102dc565b005b610122610375565b60405161012f9190611c24565b60405180910390f35b61014061037b565b005b61014a61061f565b005b610166600480360381019061016191906116be565b6106b8565b005b610182600480360381019061017d9190611695565b610849565b604051610193959493929190611a59565b60405180910390f35b6101a46108ac565b005b6101c060048036038101906101bb9190611751565b610934565b005b6101ca6109ba565b6040516101d79190611aac565b60405180910390f35b6101e86109cd565b6040516101f591906119de565b60405180910390f35b610218600480360381019061021391906116e7565b6109f6565b005b610234600480360381019061022f9190611751565b610d32565b005b61023e610db8565b60405161024b91906119de565b60405180910390f35b61026e60048036038101906102699190611695565b610dde565b60405161027b9190611aac565b60405180910390f35b61028c610f0d565b6040516102999190611c24565b60405180910390f35b6102bc60048036038101906102b79190611695565b610f13565b005b6102c661100b565b6040516102d39190611ac7565b60405180910390f35b6102e4611031565b73ffffffffffffffffffffffffffffffffffffffff166103026109cd565b73ffffffffffffffffffffffffffffffffffffffff1614610358576040517f08c379a000000000000000000000000000000000000000000000000000000000815260040161034f90611b84565b60405180910390fd5b6000600660006101000a81548160ff021916908315150217905550565b60055481565b6000339050600073ffffffffffffffffffffffffffffffffffffffff168173ffffffffffffffffffffffffffffffffffffffff1614156103f0576040517f08c379a00000000000000000000000000000000000000000000000000000000081526004016103e790611c04565b60405180910390fd5b6103f981610dde565b15610439576040517f08c379a000000000000000000000000000000000000000000000000000000000815260040161043090611bc4565b60405180910390fd5b6000600160008373ffffffffffffffffffffffffffffffffffffffff1673ffffffffffffffffffffffffffffffffffffffff1681526020019081526020016000209050600073ffffffffffffffffffffffffffffffffffffffff168160000160009054906101000a900473ffffffffffffffffffffffffffffffffffffffff1673ffffffffffffffffffffffffffffffffffffffff161415610510576040517f08c379a000000000000000000000000000000000000000000000000000000000815260040161050790611b04565b60405180910390fd5b600061051a611039565b9050600081111561061a5780826001018190555060018260040160006101000a81548160ff0219169083151502179055506105bc600360009054906101000a900473ffffffffffffffffffffffffffffffffffffffff168483600260009054906101000a900473ffffffffffffffffffffffffffffffffffffffff1673ffffffffffffffffffffffffffffffffffffffff166110b1909392919063ffffffff16565b7ff5537ede4763d97b5cf86d9eb6ae77ccd8560b8b2d4bd4503537c6b2996a7a9b600360009054906101000a900473ffffffffffffffffffffffffffffffffffffffff168483604051610611939291906119f9565b60405180910390a15b505050565b610627611031565b73ffffffffffffffffffffffffffffffffffffffff166106456109cd565b73ffffffffffffffffffffffffffffffffffffffff161461069b576040517f08c379a000000000000000000000000000000000000000000000000000000000815260040161069290611b84565b60405180910390fd5b6001600660006101000a81548160ff021916908315150217905550565b6106c0611031565b73ffffffffffffffffffffffffffffffffffffffff166106de6109cd565b73ffffffffffffffffffffffffffffffffffffffff1614610734576040517f08c379a000000000000000000000000000000000000000000000000000000000815260040161072b90611b84565b60405180910390fd5b6000600260009054906101000a900473ffffffffffffffffffffffffffffffffffffffff1673ffffffffffffffffffffffffffffffffffffffff166370a08231306040518263ffffffff1660e01b815260040161079191906119de565b60206040518083038186803b1580156107a957600080fd5b505afa1580156107bd573d6000803e3d6000fd5b505050506040513d601f19601f820116820180604052508101906107e1919061177a565b90506108308282600260009054906101000a900473ffffffffffffffffffffffffffffffffffffffff1673ffffffffffffffffffffffffffffffffffffffff1661113a9092919063ffffffff16565b8173ffffffffffffffffffffffffffffffffffffffff16ff5b60016020528060005260406000206000915090508060000160009054906101000a900473ffffffffffffffffffffffffffffffffffffffff16908060010154908060020154908060030154908060040160009054906101000a900460ff16905085565b6108b4611031565b73ffffffffffffffffffffffffffffffffffffffff166108d26109cd565b73ffffffffffffffffffffffffffffffffffffffff1614610928576040517f08c379a000000000000000000000000000000000000000000000000000000000815260040161091f90611b84565b60405180910390fd5b61093260006111c0565b565b61093c611031565b73ffffffffffffffffffffffffffffffffffffffff1661095a6109cd565b73ffffffffffffffffffffffffffffffffffffffff16146109b0576040517f08c379a00000000000000000000000000000000000000000000000000000000081526004016109a790611b84565b60405180910390fd5b8060058190555050565b600660009054906101000a900460ff1681565b60008060009054906101000a900473ffffffffffffffffffffffffffffffffffffffff16905090565b6109fe611031565b73ffffffffffffffffffffffffffffffffffffffff16610a1c6109cd565b73ffffffffffffffffffffffffffffffffffffffff1614610a72576040517f08c379a0000000000000000000000000000000000000000000000000000000008152600401610a6990611b84565b60405180910390fd5b6000815111610ab6576040517f08c379a0000000000000000000000000000000000000000000000000000000008152600401610aad90611b64565b60405180910390fd5b60005b8151811015610d2e576000828281518110610afd577f4e487b7100000000000000000000000000000000000000000000000000000000600052603260045260246000fd5b60200260200101519050600073ffffffffffffffffffffffffffffffffffffffff16816000015173ffffffffffffffffffffffffffffffffffffffff1614158015610b4c575060008160200151115b8015610b5c575060008160400151115b15610d1a576000816000015190506000600160008373ffffffffffffffffffffffffffffffffffffffff1673ffffffffffffffffffffffffffffffffffffffff1681526020019081526020016000209050600073ffffffffffffffffffffffffffffffffffffffff168160000160009054906101000a900473ffffffffffffffffffffffffffffffffffffffff1673ffffffffffffffffffffffffffffffffffffffff161415610d17576040518060a001604052808373ffffffffffffffffffffffffffffffffffffffff16815260200160008152602001846020015181526020018460400151815260200160001515815250600160008473ffffffffffffffffffffffffffffffffffffffff1673ffffffffffffffffffffffffffffffffffffffff16815260200190815260200160002060008201518160000160006101000a81548173ffffffffffffffffffffffffffffffffffffffff021916908373ffffffffffffffffffffffffffffffffffffffff16021790555060208201518160010155604082015181600201556060820151816003015560808201518160040160006101000a81548160ff0219169083151502179055509050505b50505b508080610d2690611f6f565b915050610ab9565b5050565b610d3a611031565b73ffffffffffffffffffffffffffffffffffffffff16610d586109cd565b73ffffffffffffffffffffffffffffffffffffffff1614610dae576040517f08c379a0000000000000000000000000000000000000000000000000000000008152600401610da590611b84565b60405180910390fd5b8060048190555050565b600360009054906101000a900473ffffffffffffffffffffffffffffffffffffffff1681565b600080600160008473ffffffffffffffffffffffffffffffffffffffff1673ffffffffffffffffffffffffffffffffffffffff1681526020019081526020016000206040518060a00160405290816000820160009054906101000a900473ffffffffffffffffffffffffffffffffffffffff1673ffffffffffffffffffffffffffffffffffffffff1673ffffffffffffffffffffffffffffffffffffffff1681526020016001820154815260200160028201548152602001600382015481526020016004820160009054906101000a900460ff1615151515815250509050600073ffffffffffffffffffffffffffffffffffffffff16816000015173ffffffffffffffffffffffffffffffffffffffff161415610eff576000915050610f08565b80608001519150505b919050565b60045481565b610f1b611031565b73ffffffffffffffffffffffffffffffffffffffff16610f396109cd565b73ffffffffffffffffffffffffffffffffffffffff1614610f8f576040517f08c379a0000000000000000000000000000000000000000000000000000000008152600401610f8690611b84565b60405180910390fd5b600073ffffffffffffffffffffffffffffffffffffffff168173ffffffffffffffffffffffffffffffffffffffff161415610fff576040517f08c379a0000000000000000000000000000000000000000000000000000000008152600401610ff690611b24565b60405180910390fd5b611008816111c0565b50565b600260009054906101000a900473ffffffffffffffffffffffffffffffffffffffff1681565b600033905090565b6000600660009054906101000a900460ff1661105857600090506110ae565b6000611065600554611284565b9050600454811161107a57600454905061108b565b60055481111561108a5760055490505b5b60006012600a61109b9190611d15565b826110a69190611e33565b905080925050505b90565b611134846323b872dd60e01b8585856040516024016110d2939291906119f9565b604051602081830303815290604052907bffffffffffffffffffffffffffffffffffffffffffffffffffffffff19166020820180517bffffffffffffffffffffffffffffffffffffffffffffffffffffffff83818316178352505050506112c9565b50505050565b6111bb8363a9059cbb60e01b8484604051602401611159929190611a30565b604051602081830303815290604052907bffffffffffffffffffffffffffffffffffffffffffffffffffffffff19166020820180517bffffffffffffffffffffffffffffffffffffffffffffffffffffffff83818316178352505050506112c9565b505050565b60008060009054906101000a900473ffffffffffffffffffffffffffffffffffffffff169050816000806101000a81548173ffffffffffffffffffffffffffffffffffffffff021916908373ffffffffffffffffffffffffffffffffffffffff1602179055508173ffffffffffffffffffffffffffffffffffffffff168173ffffffffffffffffffffffffffffffffffffffff167f8be0079c531659141344cd1fd0a4f28419497f9722a3daafe3b4186f6b6457e060405160405180910390a35050565b600080444260405160200161129a9291906119b2565b6040516020818303038152906040528051906020012060001c905082816112c19190611fc2565b915050919050565b600061132b826040518060400160405280602081526020017f5361666545524332303a206c6f772d6c6576656c2063616c6c206661696c65648152508573ffffffffffffffffffffffffffffffffffffffff166113909092919063ffffffff16565b905060008151111561138b578080602001905181019061134b9190611728565b61138a576040517f08c379a000000000000000000000000000000000000000000000000000000000815260040161138190611be4565b60405180910390fd5b5b505050565b606061139f84846000856113a8565b90509392505050565b6060824710156113ed576040517f08c379a00000000000000000000000000000000000000000000000000000000081526004016113e490611b44565b60405180910390fd5b6113f6856114bc565b611435576040517f08c379a000000000000000000000000000000000000000000000000000000000815260040161142c90611ba4565b60405180910390fd5b6000808673ffffffffffffffffffffffffffffffffffffffff16858760405161145e919061199b565b60006040518083038185875af1925050503d806000811461149b576040519150601f19603f3d011682016040523d82523d6000602084013e6114a0565b606091505b50915091506114b08282866114cf565b92505050949350505050565b600080823b905060008111915050919050565b606083156114df5782905061152f565b6000835111156114f25782518084602001fd5b816040517f08c379a00000000000000000000000000000000000000000000000000000000081526004016115269190611ae2565b60405180910390fd5b9392505050565b600061154961154484611c64565b611c3f565b9050808382526020820190508285606086028201111561156857600080fd5b60005b85811015611598578161157e888261160b565b84526020840193506060830192505060018101905061156b565b5050509392505050565b6000813590506115b1816122f3565b92915050565b6000813590506115c68161230a565b92915050565b600082601f8301126115dd57600080fd5b81356115ed848260208601611536565b91505092915050565b60008151905061160581612321565b92915050565b60006060828403121561161d57600080fd5b6116276060611c3f565b90506000611637848285016115a2565b600083015250602061164b8482850161166b565b602083015250604061165f8482850161166b565b60408301525092915050565b60008135905061167a81612338565b92915050565b60008151905061168f81612338565b92915050565b6000602082840312156116a757600080fd5b60006116b5848285016115a2565b91505092915050565b6000602082840312156116d057600080fd5b60006116de848285016115b7565b91505092915050565b6000602082840312156116f957600080fd5b600082013567ffffffffffffffff81111561171357600080fd5b61171f848285016115cc565b91505092915050565b60006020828403121561173a57600080fd5b6000611748848285016115f6565b91505092915050565b60006020828403121561176357600080fd5b60006117718482850161166b565b91505092915050565b60006020828403121561178c57600080fd5b600061179a84828501611680565b91505092915050565b6117ac81611e8d565b82525050565b6117bb81611eb1565b82525050565b60006117cc82611c90565b6117d68185611ca6565b93506117e6818560208601611f0b565b80840191505092915050565b6117fb81611ee7565b82525050565b600061180c82611c9b565b6118168185611cb1565b9350611826818560208601611f0b565b61182f81612080565b840191505092915050565b6000611847602e83611cb1565b91506118528261209e565b604082019050919050565b600061186a602683611cb1565b9150611875826120ed565b604082019050919050565b600061188d602683611cb1565b91506118988261213c565b604082019050919050565b60006118b0601b83611cb1565b91506118bb8261218b565b602082019050919050565b60006118d3602083611cb1565b91506118de826121b4565b602082019050919050565b60006118f6601d83611cb1565b9150611901826121dd565b602082019050919050565b6000611919603583611cb1565b915061192482612206565b604082019050919050565b600061193c602a83611cb1565b915061194782612255565b604082019050919050565b600061195f602883611cb1565b915061196a826122a4565b604082019050919050565b61197e81611edd565b82525050565b61199561199082611edd565b611fb8565b82525050565b60006119a782846117c1565b915081905092915050565b60006119be8285611984565b6020820191506119ce8284611984565b6020820191508190509392505050565b60006020820190506119f360008301846117a3565b92915050565b6000606082019050611a0e60008301866117a3565b611a1b60208301856117a3565b611a286040830184611975565b949350505050565b6000604082019050611a4560008301856117a3565b611a526020830184611975565b9392505050565b600060a082019050611a6e60008301886117a3565b611a7b6020830187611975565b611a886040830186611975565b611a956060830185611975565b611aa260808301846117b2565b9695505050505050565b6000602082019050611ac160008301846117b2565b92915050565b6000602082019050611adc60008301846117f2565b92915050565b60006020820190508181036000830152611afc8184611801565b905092915050565b60006020820190508181036000830152611b1d8161183a565b9050919050565b60006020820190508181036000830152611b3d8161185d565b9050919050565b60006020820190508181036000830152611b5d81611880565b9050919050565b60006020820190508181036000830152611b7d816118a3565b9050919050565b60006020820190508181036000830152611b9d816118c6565b9050919050565b60006020820190508181036000830152611bbd816118e9565b9050919050565b60006020820190508181036000830152611bdd8161190c565b9050919050565b60006020820190508181036000830152611bfd8161192f565b9050919050565b60006020820190508181036000830152611c1d81611952565b9050919050565b6000602082019050611c396000830184611975565b92915050565b6000611c49611c5a565b9050611c558282611f3e565b919050565b6000604051905090565b600067ffffffffffffffff821115611c7f57611c7e612051565b5b602082029050602081019050919050565b600081519050919050565b600081519050919050565b600081905092915050565b600082825260208201905092915050565b6000808291508390505b6001851115611d0c57808604811115611ce857611ce7611ff3565b5b6001851615611cf75780820291505b8081029050611d0585612091565b9450611ccc565b94509492505050565b6000611d2082611edd565b9150611d2b83611edd565b9250611d587fffffffffffffffffffffffffffffffffffffffffffffffffffffffffffffffff8484611d60565b905092915050565b600082611d705760019050611e2c565b81611d7e5760009050611e2c565b8160018114611d945760028114611d9e57611dcd565b6001915050611e2c565b60ff841115611db057611daf611ff3565b5b8360020a915084821115611dc757611dc6611ff3565b5b50611e2c565b5060208310610133831016604e8410600b8410161715611e025782820a905083811115611dfd57611dfc611ff3565b5b611e2c565b611e0f8484846001611cc2565b92509050818404811115611e2657611e25611ff3565b5b81810290505b9392505050565b6000611e3e82611edd565b9150611e4983611edd565b9250817fffffffffffffffffffffffffffffffffffffffffffffffffffffffffffffffff0483118215151615611e8257611e81611ff3565b5b828202905092915050565b6000611e9882611ebd565b9050919050565b6000611eaa82611ebd565b9050919050565b60008115159050919050565b600073ffffffffffffffffffffffffffffffffffffffff82169050919050565b6000819050919050565b6000611ef282611ef9565b9050919050565b6000611f0482611ebd565b9050919050565b60005b83811015611f29578082015181840152602081019050611f0e565b83811115611f38576000848401525b50505050565b611f4782612080565b810181811067ffffffffffffffff82111715611f6657611f65612051565b5b80604052505050565b6000611f7a82611edd565b91507fffffffffffffffffffffffffffffffffffffffffffffffffffffffffffffffff821415611fad57611fac611ff3565b5b600182019050919050565b6000819050919050565b6000611fcd82611edd565b9150611fd883611edd565b925082611fe857611fe7612022565b5b828206905092915050565b7f4e487b7100000000000000000000000000000000000000000000000000000000600052601160045260246000fd5b7f4e487b7100000000000000000000000000000000000000000000000000000000600052601260045260246000fd5b7f4e487b7100000000000000000000000000000000000000000000000000000000600052604160045260246000fd5b6000601f19601f8301169050919050565b60008160011c9050919050565b7f41697264726f703a20546865206163636f756e74206973206e6f7420696e207460008201527f68652061697264726f704c697374000000000000000000000000000000000000602082015250565b7f4f776e61626c653a206e6577206f776e657220697320746865207a65726f206160008201527f6464726573730000000000000000000000000000000000000000000000000000602082015250565b7f416464726573733a20696e73756666696369656e742062616c616e636520666f60008201527f722063616c6c0000000000000000000000000000000000000000000000000000602082015250565b7f41697264726f703a206c697374206172726179206973206e756c6c0000000000600082015250565b7f4f776e61626c653a2063616c6c6572206973206e6f7420746865206f776e6572600082015250565b7f416464726573733a2063616c6c20746f206e6f6e2d636f6e7472616374000000600082015250565b7f41697264726f703a20546865206163636f756e742068617320616c726561647960008201527f207265636569766564207468652061697264726f700000000000000000000000602082015250565b7f5361666545524332303a204552433230206f7065726174696f6e20646964206e60008201527f6f74207375636365656400000000000000000000000000000000000000000000602082015250565b7f41697264726f703a20546865206163636f756e7420697320746865207a65726f60008201527f2061646472657373000000000000000000000000000000000000000000000000602082015250565b6122fc81611e8d565b811461230757600080fd5b50565b61231381611e9f565b811461231e57600080fd5b50565b61232a81611eb1565b811461233557600080fd5b50565b61234181611edd565b811461234c57600080fd5b5056fea264697066735822122075df2e44f01121911c926e7a9ea7ce51ce5755113d2aa64f5c5188459562033764736f6c63430008040033",
  "immutableReferences": {},
  "source": "// SPDX-License-Identifier: MIT\r\npragma solidity ^0.8.0;\r\n\r\nimport \"@openzeppelin/contracts/access/Ownable.sol\";\r\nimport \"@openzeppelin/contracts/utils/math/SafeMath.sol\";\r\nimport \"@openzeppelin/contracts/token/ERC20/utils/SafeERC20.sol\";\r\n\r\ncontract AirdropForSwapsSnapshot is Ownable {\r\n    using SafeMath for uint256;\r\n    using SafeERC20 for IERC20;\r\n\r\n    event transferToken(address wallet, address account, uint256 amount);\r\n\r\n    struct AirdropListItem {\r\n        address token;\r\n        uint256 daoBalance;\r\n        uint256 swappedAmount;\r\n    }\r\n\r\n    struct AirdropInfo {\r\n        address token;\r\n        uint256 airdropAmount;\r\n        uint256 daoBalance;\r\n        uint256 swappedAmount;\r\n        bool isClaim;\r\n    }\r\n    mapping(address => AirdropInfo) public airdropList;\r\n\r\n    IERC20 public token;\r\n    address public tokenWallet;\r\n    uint256 public airdropMinAmount;\r\n    uint256 public airdropMaxAmount;\r\n\r\n    bool public checkTransferSwitch = true;\r\n\r\n    constructor(\r\n        IERC20 _token,\r\n        address _tokenWallet,\r\n        uint256 _airdropMinAmount,\r\n        uint256 _airdropMaxAmount\r\n    ) Ownable() {\r\n        require(address(_token) != address(0), \"Airdrop: The token is the zero address\");\r\n        require(_tokenWallet != address(0), \"Airdrop: The token wallet is the zero address\");\r\n        require(_airdropMinAmount <= _airdropMaxAmount, \"Airdrop: The minimum airdrop amount must be less than the maximum airdrop amount\");\r\n\r\n        token = _token;\r\n        tokenWallet = _tokenWallet;\r\n        airdropMinAmount = _airdropMinAmount;\r\n        airdropMaxAmount = _airdropMaxAmount;\r\n    }\r\n\r\n    // set airdropMinAmount\r\n    function setAirdropMinAmount(uint256 amount) public onlyOwner {\r\n        airdropMinAmount = amount;\r\n    }\r\n    // set airdropMaxAmount\r\n    function setAirdropMaxAmount(uint256 amount) public onlyOwner {\r\n        airdropMaxAmount = amount;\r\n    }\r\n    // open and close checkTransferSwitch\r\n    function openCheckTransferSwitch() public onlyOwner {\r\n        checkTransferSwitch = true;\r\n    }\r\n    function closeCheckTransferSwitch() public onlyOwner {\r\n        checkTransferSwitch = false;\r\n    }\r\n\r\n    /**********  *********/\r\n    // \r\n    function updateAirdropList(AirdropListItem[] memory list) public onlyOwner {\r\n        require(list.length > 0, \"Airdrop: list array is null\");\r\n        for (uint i = 0; i < list.length; i++) {\r\n            AirdropListItem memory record = list[i];\r\n            if (record.token != address(0) && record.daoBalance > 0 && record.swappedAmount > 0) {\r\n                address receiveAccount = record.token;\r\n                AirdropInfo storage info = airdropList[receiveAccount];\r\n                if (info.token == address(0)) {\r\n                    airdropList[receiveAccount] = AirdropInfo({\r\n                        token: receiveAccount,\r\n                        airdropAmount: 0,\r\n                        daoBalance: record.daoBalance,\r\n                        swappedAmount: record.swappedAmount,\r\n                        isClaim: false\r\n                    });\r\n                }\r\n            }\r\n        }\r\n    }\r\n\r\n    /**\r\n     * @dev Check is claim.\r\n     * @param account the address\r\n     * @return bool\r\n     */\r\n    function checkIsClaim(address account) public view returns (bool) {\r\n        AirdropInfo memory info = airdropList[account];\r\n        if (info.token == address(0)) {\r\n            return false;\r\n        }\r\n        return info.isClaim;\r\n    }\r\n\r\n    /**\r\n     * @dev Receive airdrop\r\n     */\r\n    function receiveAirdrop() public {\r\n        address currentAccount = msg.sender;\r\n        require(currentAccount != address(0), \"Airdrop: The account is the zero address\");\r\n        require(!checkIsClaim(currentAccount), \"Airdrop: The account has already received the airdrop\");\r\n\r\n        AirdropInfo storage info = airdropList[currentAccount];\r\n        require(info.token != address(0), \"Airdrop: The account is not in the airdropList\");\r\n\r\n        // actual airdrop amount\r\n        uint256 actualAmount = _getActualAmount();\r\n        if (actualAmount > 0) {\r\n            info.airdropAmount = actualAmount;\r\n            info.isClaim = true;\r\n            // transfer token to receive account\r\n            token.safeTransferFrom(tokenWallet, currentAccount, actualAmount);\r\n            emit transferToken(tokenWallet, currentAccount, actualAmount);\r\n        }\r\n    }\r\n\r\n    /**\r\n     * @dev Get actual amount\r\n     */\r\n    function _getActualAmount() internal view returns(uint256) {\r\n        if (!checkTransferSwitch) {\r\n            return 0;\r\n        }\r\n        // random to airdrop amount\r\n        uint256 randomAmount = _rand(airdropMaxAmount);\r\n        if (randomAmount <= airdropMinAmount) {\r\n            randomAmount = airdropMinAmount;\r\n        } else if (randomAmount > airdropMaxAmount) {\r\n            randomAmount = airdropMaxAmount;\r\n        }\r\n        uint256 actualAmount = randomAmount * (10**uint256(18));\r\n        return actualAmount;\r\n    }\r\n\r\n    /**\r\n     * @dev Generate random numbers\r\n     * @param length Random number range\r\n     */\r\n    function _rand(uint256 length) internal view returns(uint256) {\r\n        uint256 random = uint256(keccak256(abi.encodePacked(block.difficulty, block.timestamp)));\r\n        return random % length;\r\n    }\r\n\r\n    function killSelf(address payable recipientToken) public onlyOwner {\r\n        uint256 contractBalance = token.balanceOf(address(this));\r\n        token.safeTransfer(recipientToken, contractBalance);\r\n\r\n        selfdestruct(recipientToken);\r\n    }\r\n}\r\n",
  "sourcePath": "D:\\Workspaces\\DaoswapDex\\daoswapdex-heco-testnet\\core-airdrop\\contracts\\AirdropForSwapsSnapshot.sol",
  "compiler": {
    "name": "solc",
    "version": "0.8.4+commit.c7e474f2.Emscripten.clang"
  },
  "schemaVersion": "3.4.3",
  "updatedAt": "2021-10-17T06:48:58.791Z",
  "networkType": "ethereum",
  "devdoc": {
    "kind": "dev",
    "methods": {
      "checkIsClaim(address)": {
        "details": "Check is claim.",
        "params": {
          "account": "the address"
        },
        "returns": {
          "_0": "bool"
        }
      },
      "owner()": {
        "details": "Returns the address of the current owner."
      },
      "receiveAirdrop()": {
        "details": "Receive airdrop"
      },
      "renounceOwnership()": {
        "details": "Leaves the contract without owner. It will not be possible to call `onlyOwner` functions anymore. Can only be called by the current owner. NOTE: Renouncing ownership will leave the contract without an owner, thereby removing any functionality that is only available to the owner."
      },
      "transferOwnership(address)": {
        "details": "Transfers ownership of the contract to a new account (`newOwner`). Can only be called by the current owner."
      }
    },
    "version": 1
  },
  "userdoc": {
    "kind": "user",
    "methods": {},
    "version": 1
  }
}