{
  "contractName": "AirdropForStake",
  "abi": [
    {
      "inputs": [
        {
          "internalType": "contract IERC20",
          "name": "_token",
          "type": "address"
        },
        {
          "internalType": "address",
          "name": "_tokenWallet",
          "type": "address"
        },
        {
          "internalType": "uint256",
          "name": "_minDATStakeAmount",
          "type": "uint256"
        },
        {
          "internalType": "uint256",
          "name": "_stakeRate",
          "type": "uint256"
        },
        {
          "internalType": "uint256",
          "name": "_stakeRateMultiple",
          "type": "uint256"
        },
        {
          "internalType": "address",
          "name": "_crowdsaleForRetailAddress",
          "type": "address"
        },
        {
          "internalType": "contract IERC20",
          "name": "_crowdsaleToken",
          "type": "address"
        }
      ],
      "stateMutability": "nonpayable",
      "type": "constructor"
    },
    {
      "anonymous": false,
      "inputs": [
        {
          "indexed": true,
          "internalType": "address",
          "name": "previousOwner",
          "type": "address"
        },
        {
          "indexed": true,
          "internalType": "address",
          "name": "newOwner",
          "type": "address"
        }
      ],
      "name": "OwnershipTransferred",
      "type": "event"
    },
    {
      "anonymous": false,
      "inputs": [
        {
          "indexed": false,
          "internalType": "address",
          "name": "wallet",
          "type": "address"
        },
        {
          "indexed": false,
          "internalType": "address",
          "name": "account",
          "type": "address"
        },
        {
          "indexed": false,
          "internalType": "uint256",
          "name": "amount",
          "type": "uint256"
        }
      ],
      "name": "transferToken",
      "type": "event"
    },
    {
      "inputs": [
        {
          "internalType": "address",
          "name": "",
          "type": "address"
        }
      ],
      "name": "airdropAmount",
      "outputs": [
        {
          "internalType": "uint256",
          "name": "",
          "type": "uint256"
        }
      ],
      "stateMutability": "view",
      "type": "function",
      "constant": true
    },
    {
      "inputs": [],
      "name": "crowdsaleForRetailAddress",
      "outputs": [
        {
          "internalType": "address",
          "name": "",
          "type": "address"
        }
      ],
      "stateMutability": "view",
      "type": "function",
      "constant": true
    },
    {
      "inputs": [],
      "name": "crowdsaleToken",
      "outputs": [
        {
          "internalType": "contract IERC20",
          "name": "",
          "type": "address"
        }
      ],
      "stateMutability": "view",
      "type": "function",
      "constant": true
    },
    {
      "inputs": [],
      "name": "minDATStakeAmount",
      "outputs": [
        {
          "internalType": "uint256",
          "name": "",
          "type": "uint256"
        }
      ],
      "stateMutability": "view",
      "type": "function",
      "constant": true
    },
    {
      "inputs": [],
      "name": "owner",
      "outputs": [
        {
          "internalType": "address",
          "name": "",
          "type": "address"
        }
      ],
      "stateMutability": "view",
      "type": "function",
      "constant": true
    },
    {
      "inputs": [],
      "name": "rateDenominator",
      "outputs": [
        {
          "internalType": "uint256",
          "name": "",
          "type": "uint256"
        }
      ],
      "stateMutability": "view",
      "type": "function",
      "constant": true
    },
    {
      "inputs": [],
      "name": "renounceOwnership",
      "outputs": [],
      "stateMutability": "nonpayable",
      "type": "function"
    },
    {
      "inputs": [],
      "name": "stakeRate",
      "outputs": [
        {
          "internalType": "uint256",
          "name": "",
          "type": "uint256"
        }
      ],
      "stateMutability": "view",
      "type": "function",
      "constant": true
    },
    {
      "inputs": [],
      "name": "stakeRateMultiple",
      "outputs": [
        {
          "internalType": "uint256",
          "name": "",
          "type": "uint256"
        }
      ],
      "stateMutability": "view",
      "type": "function",
      "constant": true
    },
    {
      "inputs": [],
      "name": "token",
      "outputs": [
        {
          "internalType": "contract IERC20",
          "name": "",
          "type": "address"
        }
      ],
      "stateMutability": "view",
      "type": "function",
      "constant": true
    },
    {
      "inputs": [],
      "name": "tokenWallet",
      "outputs": [
        {
          "internalType": "address",
          "name": "",
          "type": "address"
        }
      ],
      "stateMutability": "view",
      "type": "function",
      "constant": true
    },
    {
      "inputs": [
        {
          "internalType": "address",
          "name": "newOwner",
          "type": "address"
        }
      ],
      "name": "transferOwnership",
      "outputs": [],
      "stateMutability": "nonpayable",
      "type": "function"
    },
    {
      "inputs": [
        {
          "internalType": "uint256",
          "name": "amount",
          "type": "uint256"
        }
      ],
      "name": "setMinDATStakeAmount",
      "outputs": [],
      "stateMutability": "nonpayable",
      "type": "function"
    },
    {
      "inputs": [
        {
          "internalType": "uint256",
          "name": "rate",
          "type": "uint256"
        }
      ],
      "name": "setStakeRate",
      "outputs": [],
      "stateMutability": "nonpayable",
      "type": "function"
    },
    {
      "inputs": [
        {
          "internalType": "uint256",
          "name": "rateMultiple",
          "type": "uint256"
        }
      ],
      "name": "setStakeRateMultiple",
      "outputs": [],
      "stateMutability": "nonpayable",
      "type": "function"
    },
    {
      "inputs": [
        {
          "internalType": "address",
          "name": "account",
          "type": "address"
        }
      ],
      "name": "getDatStake",
      "outputs": [
        {
          "internalType": "uint256",
          "name": "",
          "type": "uint256"
        }
      ],
      "stateMutability": "view",
      "type": "function",
      "constant": true
    },
    {
      "inputs": [],
      "name": "getMaxStakeRate",
      "outputs": [
        {
          "internalType": "uint256",
          "name": "",
          "type": "uint256"
        }
      ],
      "stateMutability": "view",
      "type": "function",
      "constant": true
    },
    {
      "inputs": [
        {
          "internalType": "address",
          "name": "account",
          "type": "address"
        }
      ],
      "name": "getActualAirdropAmount",
      "outputs": [
        {
          "internalType": "uint256",
          "name": "",
          "type": "uint256"
        }
      ],
      "stateMutability": "view",
      "type": "function",
      "constant": true
    },
    {
      "inputs": [
        {
          "internalType": "address",
          "name": "account",
          "type": "address"
        }
      ],
      "name": "checkDatStake",
      "outputs": [
        {
          "internalType": "bool",
          "name": "",
          "type": "bool"
        }
      ],
      "stateMutability": "view",
      "type": "function",
      "constant": true
    },
    {
      "inputs": [],
      "name": "receiveAirdrop",
      "outputs": [],
      "stateMutability": "nonpayable",
      "type": "function"
    },
    {
      "inputs": [
        {
          "internalType": "address payable",
          "name": "recipientToken",
          "type": "address"
        }
      ],
      "name": "killSelf",
      "outputs": [],
      "stateMutability": "nonpayable",
      "type": "function"
    }
  ],
  "bytecode": "0x60806040523480156200001157600080fd5b506040516200269b3803806200269b8339818101604052810190620000379190620003fc565b620000576200004b620002eb60201b60201c565b620002f360201b60201c565b600073ffffffffffffffffffffffffffffffffffffffff168773ffffffffffffffffffffffffffffffffffffffff161415620000ca576040517f08c379a0000000000000000000000000000000000000000000000000000000008152600401620000c19062000540565b60405180910390fd5b600073ffffffffffffffffffffffffffffffffffffffff168673ffffffffffffffffffffffffffffffffffffffff1614156200013d576040517f08c379a0000000000000000000000000000000000000000000000000000000008152600401620001349062000562565b60405180910390fd5b600084101562000184576040517f08c379a00000000000000000000000000000000000000000000000000000000081526004016200017b906200051e565b60405180910390fd5b86600260006101000a81548173ffffffffffffffffffffffffffffffffffffffff021916908373ffffffffffffffffffffffffffffffffffffffff16021790555085600360006101000a81548173ffffffffffffffffffffffffffffffffffffffff021916908373ffffffffffffffffffffffffffffffffffffffff16021790555084600481905550836005819055508260068190555081600760006101000a81548173ffffffffffffffffffffffffffffffffffffffff021916908373ffffffffffffffffffffffffffffffffffffffff16021790555080600860006101000a81548173ffffffffffffffffffffffffffffffffffffffff021916908373ffffffffffffffffffffffffffffffffffffffff16021790555081600960006101000a81548173ffffffffffffffffffffffffffffffffffffffff021916908373ffffffffffffffffffffffffffffffffffffffff1602179055505050505050505062000722565b600033905090565b60008060009054906101000a900473ffffffffffffffffffffffffffffffffffffffff169050816000806101000a81548173ffffffffffffffffffffffffffffffffffffffff021916908373ffffffffffffffffffffffffffffffffffffffff1602179055508173ffffffffffffffffffffffffffffffffffffffff168173ffffffffffffffffffffffffffffffffffffffff167f8be0079c531659141344cd1fd0a4f28419497f9722a3daafe3b4186f6b6457e060405160405180910390a35050565b600081519050620003c881620006d4565b92915050565b600081519050620003df81620006ee565b92915050565b600081519050620003f68162000708565b92915050565b600080600080600080600060e0888a0312156200041857600080fd5b6000620004288a828b01620003ce565b97505060206200043b8a828b01620003b7565b96505060406200044e8a828b01620003e5565b9550506060620004618a828b01620003e5565b9450506080620004748a828b01620003e5565b93505060a0620004878a828b01620003b7565b92505060c06200049a8a828b01620003ce565b91505092959891949750929550565b6000620004b860348362000584565b9150620004c582620005e7565b604082019050919050565b6000620004df60268362000584565b9150620004ec8262000636565b604082019050919050565b600062000506602d8362000584565b9150620005138262000685565b604082019050919050565b600060208201905081810360008301526200053981620004a9565b9050919050565b600060208201905081810360008301526200055b81620004d0565b9050919050565b600060208201905081810360008301526200057d81620004f7565b9050919050565b600082825260208201905092915050565b6000620005a282620005bd565b9050919050565b6000620005b68262000595565b9050919050565b600073ffffffffffffffffffffffffffffffffffffffff82169050919050565b6000819050919050565b7f41697264726f703a20546865207374616b652072617465206d7573742062652060008201527f6d6f7265207468616e206f7220657175616c2030000000000000000000000000602082015250565b7f41697264726f703a2054686520746f6b656e20697320746865207a65726f206160008201527f6464726573730000000000000000000000000000000000000000000000000000602082015250565b7f41697264726f703a2054686520746f6b656e2077616c6c65742069732074686560008201527f207a65726f206164647265737300000000000000000000000000000000000000602082015250565b620006df8162000595565b8114620006eb57600080fd5b50565b620006f981620005a9565b81146200070557600080fd5b50565b6200071381620005dd565b81146200071f57600080fd5b50565b611f6980620007326000396000f3fe608060405234801561001057600080fd5b50600436106101375760003560e01c806381160fe3116100b8578063b530dc8c1161007c578063b530dc8c14610304578063bff99c6c14610334578063c12790ab14610352578063f2fde38b14610370578063fa65dfac1461038c578063fc0c546a146103aa57610137565b806381160fe314610270578063865192f71461028e5780638b4cac8b146102ac5780638da5cb5b146102c85780638f3fd507146102e657610137565b80632ef86e29116100ff5780632ef86e29146101cc5780633a507d7d146101ea5780634a9d912714610206578063715018a614610236578063776637b41461024057610137565b8063046b5ab01461013c5780630932f3ac1461015a5780632428825d1461017657806324a49095146101805780632ec94efd1461019c575b600080fd5b6101446103c8565b6040516101519190611890565b60405180910390f35b610174600480360381019061016f9190611453565b6103ce565b005b61017e61049e565b005b61019a60048036038101906101959190611453565b61075c565b005b6101b660048036038101906101b191906113d8565b6107e2565b6040516101c39190611890565b60405180910390f35b6101d4610870565b6040516101e19190611890565b60405180910390f35b61020460048036038101906101ff9190611401565b610876565b005b610220600480360381019061021b91906113d8565b610a07565b60405161022d9190611890565b60405180910390f35b61023e610a19565b005b61025a600480360381019061025591906113d8565b610aa1565b6040516102679190611718565b60405180910390f35b610278610adb565b6040516102859190611890565b60405180910390f35b610296610ae1565b6040516102a39190611890565b60405180910390f35b6102c660048036038101906102c19190611453565b610ae7565b005b6102d0610b6d565b6040516102dd919061169d565b60405180910390f35b6102ee610b96565b6040516102fb919061169d565b60405180910390f35b61031e600480360381019061031991906113d8565b610bbc565b60405161032b9190611890565b60405180910390f35b61033c610bd4565b604051610349919061169d565b60405180910390f35b61035a610bfa565b6040516103679190611890565b60405180910390f35b61038a600480360381019061038591906113d8565b610c94565b005b610394610d8c565b6040516103a19190611733565b60405180910390f35b6103b2610db2565b6040516103bf9190611733565b60405180910390f35b60065481565b6103d6610dd8565b73ffffffffffffffffffffffffffffffffffffffff166103f4610b6d565b73ffffffffffffffffffffffffffffffffffffffff161461044a576040517f08c379a0000000000000000000000000000000000000000000000000000000008152600401610441906117d0565b60405180910390fd5b610452610bfa565b811115610494576040517f08c379a000000000000000000000000000000000000000000000000000000000815260040161048b906117f0565b60405180910390fd5b8060058190555050565b6000339050600073ffffffffffffffffffffffffffffffffffffffff168173ffffffffffffffffffffffffffffffffffffffff161415610513576040517f08c379a000000000000000000000000000000000000000000000000000000000815260040161050a90611870565b60405180910390fd5b6000600160008373ffffffffffffffffffffffffffffffffffffffff1673ffffffffffffffffffffffffffffffffffffffff168152602001908152602001600020541115610596576040517f08c379a000000000000000000000000000000000000000000000000000000000815260040161058d90611830565b60405180910390fd5b61059f81610aa1565b6105de576040517f08c379a00000000000000000000000000000000000000000000000000000000081526004016105d590611770565b60405180910390fd5b60006105e982610de0565b905060008111156107585761064681600160008573ffffffffffffffffffffffffffffffffffffffff1673ffffffffffffffffffffffffffffffffffffffff16815260200190815260200160002054610e3990919063ffffffff16565b600160008473ffffffffffffffffffffffffffffffffffffffff1673ffffffffffffffffffffffffffffffffffffffff168152602001908152602001600020819055506106fa600360009054906101000a900473ffffffffffffffffffffffffffffffffffffffff168383600260009054906101000a900473ffffffffffffffffffffffffffffffffffffffff1673ffffffffffffffffffffffffffffffffffffffff16610e4f909392919063ffffffff16565b7ff5537ede4763d97b5cf86d9eb6ae77ccd8560b8b2d4bd4503537c6b2996a7a9b600360009054906101000a900473ffffffffffffffffffffffffffffffffffffffff16838360405161074f939291906116b8565b60405180910390a15b5050565b610764610dd8565b73ffffffffffffffffffffffffffffffffffffffff16610782610b6d565b73ffffffffffffffffffffffffffffffffffffffff16146107d8576040517f08c379a00000000000000000000000000000000000000000000000000000000081526004016107cf906117d0565b60405180910390fd5b8060048190555050565b60006107ec610dd8565b73ffffffffffffffffffffffffffffffffffffffff1661080a610b6d565b73ffffffffffffffffffffffffffffffffffffffff1614610860576040517f08c379a0000000000000000000000000000000000000000000000000000000008152600401610857906117d0565b60405180910390fd5b61086982610ed8565b9050919050565b60045481565b61087e610dd8565b73ffffffffffffffffffffffffffffffffffffffff1661089c610b6d565b73ffffffffffffffffffffffffffffffffffffffff16146108f2576040517f08c379a00000000000000000000000000000000000000000000000000000000081526004016108e9906117d0565b60405180910390fd5b6000600260009054906101000a900473ffffffffffffffffffffffffffffffffffffffff1673ffffffffffffffffffffffffffffffffffffffff166370a08231306040518263ffffffff1660e01b815260040161094f919061169d565b60206040518083038186803b15801561096757600080fd5b505afa15801561097b573d6000803e3d6000fd5b505050506040513d601f19601f8201168201806040525081019061099f919061147c565b90506109ee8282600260009054906101000a900473ffffffffffffffffffffffffffffffffffffffff1673ffffffffffffffffffffffffffffffffffffffff16610f8c9092919063ffffffff16565b8173ffffffffffffffffffffffffffffffffffffffff16ff5b6000610a1282610de0565b9050919050565b610a21610dd8565b73ffffffffffffffffffffffffffffffffffffffff16610a3f610b6d565b73ffffffffffffffffffffffffffffffffffffffff1614610a95576040517f08c379a0000000000000000000000000000000000000000000000000000000008152600401610a8c906117d0565b60405180910390fd5b610a9f6000611012565b565b600080610aad83610ed8565b905060006012600a610abf91906119b7565b600454610acc9190611ad5565b90508082101592505050919050565b60055481565b6103e881565b610aef610dd8565b73ffffffffffffffffffffffffffffffffffffffff16610b0d610b6d565b73ffffffffffffffffffffffffffffffffffffffff1614610b63576040517f08c379a0000000000000000000000000000000000000000000000000000000008152600401610b5a906117d0565b60405180910390fd5b8060068190555050565b60008060009054906101000a900473ffffffffffffffffffffffffffffffffffffffff16905090565b600760009054906101000a900473ffffffffffffffffffffffffffffffffffffffff1681565b60016020528060005260406000206000915090505481565b600360009054906101000a900473ffffffffffffffffffffffffffffffffffffffff1681565b6000610c04610dd8565b73ffffffffffffffffffffffffffffffffffffffff16610c22610b6d565b73ffffffffffffffffffffffffffffffffffffffff1614610c78576040517f08c379a0000000000000000000000000000000000000000000000000000000008152600401610c6f906117d0565b60405180910390fd5b610c8f6006546103e86110d690919063ffffffff16565b905090565b610c9c610dd8565b73ffffffffffffffffffffffffffffffffffffffff16610cba610b6d565b73ffffffffffffffffffffffffffffffffffffffff1614610d10576040517f08c379a0000000000000000000000000000000000000000000000000000000008152600401610d07906117d0565b60405180910390fd5b600073ffffffffffffffffffffffffffffffffffffffff168173ffffffffffffffffffffffffffffffffffffffff161415610d80576040517f08c379a0000000000000000000000000000000000000000000000000000000008152600401610d7790611790565b60405180910390fd5b610d8981611012565b50565b600860009054906101000a900473ffffffffffffffffffffffffffffffffffffffff1681565b600260009054906101000a900473ffffffffffffffffffffffffffffffffffffffff1681565b600033905090565b60008060055411610df45760009050610e34565b6000610dff83610ed8565b90506000610e2c6103e8610e1e600554856110d690919063ffffffff16565b6110ec90919063ffffffff16565b905080925050505b919050565b60008183610e4791906118dd565b905092915050565b610ed2846323b872dd60e01b858585604051602401610e70939291906116b8565b604051602081830303815290604052907bffffffffffffffffffffffffffffffffffffffffffffffffffffffff19166020820180517bffffffffffffffffffffffffffffffffffffffffffffffffffffffff8381831617835250505050611102565b50505050565b6000600960009054906101000a900473ffffffffffffffffffffffffffffffffffffffff1673ffffffffffffffffffffffffffffffffffffffff1663f887d019836040518263ffffffff1660e01b8152600401610f35919061169d565b60206040518083038186803b158015610f4d57600080fd5b505afa158015610f61573d6000803e3d6000fd5b505050506040513d601f19601f82011682018060405250810190610f85919061147c565b9050919050565b61100d8363a9059cbb60e01b8484604051602401610fab9291906116ef565b604051602081830303815290604052907bffffffffffffffffffffffffffffffffffffffffffffffffffffffff19166020820180517bffffffffffffffffffffffffffffffffffffffffffffffffffffffff8381831617835250505050611102565b505050565b60008060009054906101000a900473ffffffffffffffffffffffffffffffffffffffff169050816000806101000a81548173ffffffffffffffffffffffffffffffffffffffff021916908373ffffffffffffffffffffffffffffffffffffffff1602179055508173ffffffffffffffffffffffffffffffffffffffff168173ffffffffffffffffffffffffffffffffffffffff167f8be0079c531659141344cd1fd0a4f28419497f9722a3daafe3b4186f6b6457e060405160405180910390a35050565b600081836110e49190611ad5565b905092915050565b600081836110fa9190611933565b905092915050565b6000611164826040518060400160405280602081526020017f5361666545524332303a206c6f772d6c6576656c2063616c6c206661696c65648152508573ffffffffffffffffffffffffffffffffffffffff166111c99092919063ffffffff16565b90506000815111156111c45780806020019051810190611184919061142a565b6111c3576040517f08c379a00000000000000000000000000000000000000000000000000000000081526004016111ba90611850565b60405180910390fd5b5b505050565b60606111d884846000856111e1565b90509392505050565b606082471015611226576040517f08c379a000000000000000000000000000000000000000000000000000000000815260040161121d906117b0565b60405180910390fd5b61122f856112f5565b61126e576040517f08c379a000000000000000000000000000000000000000000000000000000000815260040161126590611810565b60405180910390fd5b6000808673ffffffffffffffffffffffffffffffffffffffff1685876040516112979190611686565b60006040518083038185875af1925050503d80600081146112d4576040519150601f19603f3d011682016040523d82523d6000602084013e6112d9565b606091505b50915091506112e9828286611308565b92505050949350505050565b600080823b905060008111915050919050565b6060831561131857829050611368565b60008351111561132b5782518084602001fd5b816040517f08c379a000000000000000000000000000000000000000000000000000000000815260040161135f919061174e565b60405180910390fd5b9392505050565b60008135905061137e81611ed7565b92915050565b60008135905061139381611eee565b92915050565b6000815190506113a881611f05565b92915050565b6000813590506113bd81611f1c565b92915050565b6000815190506113d281611f1c565b92915050565b6000602082840312156113ea57600080fd5b60006113f88482850161136f565b91505092915050565b60006020828403121561141357600080fd5b600061142184828501611384565b91505092915050565b60006020828403121561143c57600080fd5b600061144a84828501611399565b91505092915050565b60006020828403121561146557600080fd5b6000611473848285016113ae565b91505092915050565b60006020828403121561148e57600080fd5b600061149c848285016113c3565b91505092915050565b6114ae81611b2f565b82525050565b6114bd81611b53565b82525050565b60006114ce826118ab565b6114d881856118c1565b93506114e8818560208601611bad565b80840191505092915050565b6114fd81611b89565b82525050565b600061150e826118b6565b61151881856118cc565b9350611528818560208601611bad565b61153181611c3e565b840191505092915050565b60006115496034836118cc565b915061155482611c5c565b604082019050919050565b600061156c6026836118cc565b915061157782611cab565b604082019050919050565b600061158f6026836118cc565b915061159a82611cfa565b604082019050919050565b60006115b26020836118cc565b91506115bd82611d49565b602082019050919050565b60006115d56032836118cc565b91506115e082611d72565b604082019050919050565b60006115f8601d836118cc565b915061160382611dc1565b602082019050919050565b600061161b6035836118cc565b915061162682611dea565b604082019050919050565b600061163e602a836118cc565b915061164982611e39565b604082019050919050565b60006116616028836118cc565b915061166c82611e88565b604082019050919050565b61168081611b7f565b82525050565b600061169282846114c3565b915081905092915050565b60006020820190506116b260008301846114a5565b92915050565b60006060820190506116cd60008301866114a5565b6116da60208301856114a5565b6116e76040830184611677565b949350505050565b600060408201905061170460008301856114a5565b6117116020830184611677565b9392505050565b600060208201905061172d60008301846114b4565b92915050565b600060208201905061174860008301846114f4565b92915050565b600060208201905081810360008301526117688184611503565b905092915050565b600060208201905081810360008301526117898161153c565b9050919050565b600060208201905081810360008301526117a98161155f565b9050919050565b600060208201905081810360008301526117c981611582565b9050919050565b600060208201905081810360008301526117e9816115a5565b9050919050565b60006020820190508181036000830152611809816115c8565b9050919050565b60006020820190508181036000830152611829816115eb565b9050919050565b600060208201905081810360008301526118498161160e565b9050919050565b6000602082019050818103600083015261186981611631565b9050919050565b6000602082019050818103600083015261188981611654565b9050919050565b60006020820190506118a56000830184611677565b92915050565b600081519050919050565b600081519050919050565b600081905092915050565b600082825260208201905092915050565b60006118e882611b7f565b91506118f383611b7f565b9250827fffffffffffffffffffffffffffffffffffffffffffffffffffffffffffffffff0382111561192857611927611be0565b5b828201905092915050565b600061193e82611b7f565b915061194983611b7f565b92508261195957611958611c0f565b5b828204905092915050565b6000808291508390505b60018511156119ae5780860481111561198a57611989611be0565b5b60018516156119995780820291505b80810290506119a785611c4f565b945061196e565b94509492505050565b60006119c282611b7f565b91506119cd83611b7f565b92506119fa7fffffffffffffffffffffffffffffffffffffffffffffffffffffffffffffffff8484611a02565b905092915050565b600082611a125760019050611ace565b81611a205760009050611ace565b8160018114611a365760028114611a4057611a6f565b6001915050611ace565b60ff841115611a5257611a51611be0565b5b8360020a915084821115611a6957611a68611be0565b5b50611ace565b5060208310610133831016604e8410600b8410161715611aa45782820a905083811115611a9f57611a9e611be0565b5b611ace565b611ab18484846001611964565b92509050818404811115611ac857611ac7611be0565b5b81810290505b9392505050565b6000611ae082611b7f565b9150611aeb83611b7f565b9250817fffffffffffffffffffffffffffffffffffffffffffffffffffffffffffffffff0483118215151615611b2457611b23611be0565b5b828202905092915050565b6000611b3a82611b5f565b9050919050565b6000611b4c82611b5f565b9050919050565b60008115159050919050565b600073ffffffffffffffffffffffffffffffffffffffff82169050919050565b6000819050919050565b6000611b9482611b9b565b9050919050565b6000611ba682611b5f565b9050919050565b60005b83811015611bcb578082015181840152602081019050611bb0565b83811115611bda576000848401525b50505050565b7f4e487b7100000000000000000000000000000000000000000000000000000000600052601160045260246000fd5b7f4e487b7100000000000000000000000000000000000000000000000000000000600052601260045260246000fd5b6000601f19601f8301169050919050565b60008160011c9050919050565b7f41697264726f703a205374616b6520616d6f756e7420646f6573206e6f74206d60008201527f6565742074686520726571756972656d656e7473000000000000000000000000602082015250565b7f4f776e61626c653a206e6577206f776e657220697320746865207a65726f206160008201527f6464726573730000000000000000000000000000000000000000000000000000602082015250565b7f416464726573733a20696e73756666696369656e742062616c616e636520666f60008201527f722063616c6c0000000000000000000000000000000000000000000000000000602082015250565b7f4f776e61626c653a2063616c6c6572206973206e6f7420746865206f776e6572600082015250565b7f41697264726f703a204578636565647320746865206d6178696d756d2072617460008201527f696f20746861742063616e206265207365740000000000000000000000000000602082015250565b7f416464726573733a2063616c6c20746f206e6f6e2d636f6e7472616374000000600082015250565b7f41697264726f703a20546865206163636f756e742068617320616c726561647960008201527f207265636569766564207468652061697264726f700000000000000000000000602082015250565b7f5361666545524332303a204552433230206f7065726174696f6e20646964206e60008201527f6f74207375636365656400000000000000000000000000000000000000000000602082015250565b7f41697264726f703a20546865206163636f756e7420697320746865207a65726f60008201527f2061646472657373000000000000000000000000000000000000000000000000602082015250565b611ee081611b2f565b8114611eeb57600080fd5b50565b611ef781611b41565b8114611f0257600080fd5b50565b611f0e81611b53565b8114611f1957600080fd5b50565b611f2581611b7f565b8114611f3057600080fd5b5056fea264697066735822122034ad271748691574228b2a4992e3046d82666a8b4b3636ea28e9c2bae9f35eaf64736f6c63430008040033",
  "immutableReferences": {},
  "source": "// SPDX-License-Identifier: MIT\r\npragma solidity ^0.8.0;\r\n\r\nimport \"@openzeppelin/contracts/access/Ownable.sol\";\r\nimport \"@openzeppelin/contracts/utils/math/SafeMath.sol\";\r\nimport \"@openzeppelin/contracts/token/ERC20/utils/SafeERC20.sol\";\r\n\r\ninterface CrowdsaleForRetail {\r\n    function joined(address account) external view returns (uint256);\r\n}\r\n\r\ncontract AirdropForStake is Ownable {\r\n    using SafeMath for uint256;\r\n    using SafeERC20 for IERC20;\r\n\r\n    event transferToken(address wallet, address account, uint256 amount);\r\n    uint256 public constant rateDenominator = 1000;\r\n\r\n    // address airdrop amount\r\n    mapping(address => uint256) public airdropAmount;\r\n\r\n    IERC20 public token;\r\n    address public tokenWallet;\r\n    uint256 public minDATStakeAmount;\r\n    uint256 public stakeRate;\r\n    uint256 public stakeRateMultiple;\r\n    address public crowdsaleForRetailAddress;\r\n    IERC20 public crowdsaleToken;\r\n\r\n    CrowdsaleForRetail private _crowdsaleForRetailContract;\r\n\r\n    constructor(\r\n        IERC20 _token,\r\n        address _tokenWallet,\r\n        uint256 _minDATStakeAmount,\r\n        uint256 _stakeRate,\r\n        uint256 _stakeRateMultiple,\r\n        address _crowdsaleForRetailAddress,\r\n        IERC20 _crowdsaleToken\r\n    ) Ownable() {\r\n        require(address(_token) != address(0), \"Airdrop: The token is the zero address\");\r\n        require(_tokenWallet != address(0), \"Airdrop: The token wallet is the zero address\");\r\n        require(_stakeRate >= 0, \"Airdrop: The stake rate must be more than or equal 0\");\r\n\r\n        token = _token;\r\n        tokenWallet = _tokenWallet;\r\n        minDATStakeAmount = _minDATStakeAmount;\r\n        stakeRate = _stakeRate;\r\n        stakeRateMultiple = _stakeRateMultiple;\r\n        crowdsaleForRetailAddress = _crowdsaleForRetailAddress;\r\n        crowdsaleToken = _crowdsaleToken;\r\n\r\n        _crowdsaleForRetailContract = CrowdsaleForRetail(_crowdsaleForRetailAddress);\r\n    }\r\n\r\n    // set minDATStakeAmount\r\n    function setMinDATStakeAmount(uint256 amount) public onlyOwner {\r\n        minDATStakeAmount = amount;\r\n    }\r\n    // set stakeRate\r\n    function setStakeRate(uint256 rate) public onlyOwner {\r\n        require(rate <= getMaxStakeRate(), \"Airdrop: Exceeds the maximum ratio that can be set\");\r\n        stakeRate = rate;\r\n    }\r\n    // set stakeRateMultiple\r\n    function setStakeRateMultiple(uint256 rateMultiple) public onlyOwner {\r\n        stakeRateMultiple = rateMultiple;\r\n    }\r\n\r\n    /**\r\n     @dev get stake amount\r\n     */\r\n    function _getDatStakeAmount(address account) internal view returns(uint256) {\r\n        return _crowdsaleForRetailContract.joined(account);\r\n    }\r\n\r\n    /**\r\n     * @dev get DAT stake amount of account.\r\n     * @param account the address\r\n     * @return uint256\r\n     */\r\n    function getDatStake(address account) public onlyOwner view returns (uint256) {\r\n        return _getDatStakeAmount(account);\r\n    }\r\n\r\n    /**\r\n     @dev get max rate multiple\r\n     */\r\n    function getMaxStakeRate() public onlyOwner view returns (uint256) {\r\n        return rateDenominator.mul(stakeRateMultiple);\r\n    }\r\n\r\n    /**\r\n     * @dev get DAO airdrop amount of account.\r\n     * @param account the address\r\n     * @return uint256\r\n     */\r\n    function getActualAirdropAmount(address account) public view returns (uint256) {\r\n        return _getActualAmount(account);\r\n    }\r\n\r\n    /**\r\n     * @dev Check if an account DAT balance.\r\n     * @param account the address\r\n     * @return bool\r\n     */\r\n    function checkDatStake(address account) public view returns (bool) {\r\n        uint256 accountStakeAmount = _getDatStakeAmount(account);\r\n        uint256 formatMinDATStakeAmount = minDATStakeAmount * (10**uint256(18));\r\n        return accountStakeAmount >= formatMinDATStakeAmount;\r\n    }\r\n\r\n    /**\r\n     * @dev Receive airdrop\r\n     */\r\n    function receiveAirdrop() public {\r\n        address currentAccount = msg.sender;\r\n        require(currentAccount != address(0), \"Airdrop: The account is the zero address\");\r\n        require(airdropAmount[currentAccount] <= 0, \"Airdrop: The account has already received the airdrop\");\r\n        require(checkDatStake(currentAccount), \"Airdrop: Stake amount does not meet the requirements\");\r\n\r\n        // random to airdrop amount\r\n        uint256 actualAmount = _getActualAmount(currentAccount);\r\n        if (actualAmount > 0) {\r\n            airdropAmount[currentAccount] = airdropAmount[currentAccount].add(actualAmount);\r\n            // transfer token to receive account\r\n            token.safeTransferFrom(tokenWallet, currentAccount, actualAmount);\r\n            emit transferToken(tokenWallet, currentAccount, actualAmount);\r\n        }\r\n    }\r\n\r\n    /**\r\n     * @dev Get actual amount\r\n     */\r\n    function _getActualAmount(address account) internal view returns(uint256) {\r\n        if (stakeRate <= 0) {\r\n            return 0;\r\n        }\r\n        // Calculate the actual amount\r\n        uint256 stakeAmount = _getDatStakeAmount(account);\r\n        uint256 actualAmount = stakeAmount.mul(stakeRate).div(rateDenominator);\r\n        return actualAmount;\r\n    }\r\n\r\n    function killSelf(address payable recipientToken) public onlyOwner {\r\n        uint256 contractBalance = token.balanceOf(address(this));\r\n        token.safeTransfer(recipientToken, contractBalance);\r\n\r\n        selfdestruct(recipientToken);\r\n    }\r\n}\r\n",
  "sourcePath": "D:/Workspaces/DaoswapDex/daoswapdex-heco-testnet/core-airdrop/contracts/AirdropForStake.sol",
  "compiler": {
    "name": "solc",
    "version": "0.8.4+commit.c7e474f2.Emscripten.clang"
  },
  "schemaVersion": "3.4.1",
  "updatedAt": "2021-08-23T01:58:03.415Z",
  "networkType": "ethereum",
  "devdoc": {
    "kind": "dev",
    "methods": {
      "checkDatStake(address)": {
        "details": "Check if an account DAT balance.",
        "params": {
          "account": "the address"
        },
        "returns": {
          "_0": "bool"
        }
      },
      "getActualAirdropAmount(address)": {
        "details": "get DAO airdrop amount of account.",
        "params": {
          "account": "the address"
        },
        "returns": {
          "_0": "uint256"
        }
      },
      "getDatStake(address)": {
        "details": "get DAT stake amount of account.",
        "params": {
          "account": "the address"
        },
        "returns": {
          "_0": "uint256"
        }
      },
      "getMaxStakeRate()": {
        "details": "get max rate multiple"
      },
      "owner()": {
        "details": "Returns the address of the current owner."
      },
      "receiveAirdrop()": {
        "details": "Receive airdrop"
      },
      "renounceOwnership()": {
        "details": "Leaves the contract without owner. It will not be possible to call `onlyOwner` functions anymore. Can only be called by the current owner. NOTE: Renouncing ownership will leave the contract without an owner, thereby removing any functionality that is only available to the owner."
      },
      "transferOwnership(address)": {
        "details": "Transfers ownership of the contract to a new account (`newOwner`). Can only be called by the current owner."
      }
    },
    "version": 1
  },
  "userdoc": {
    "kind": "user",
    "methods": {},
    "version": 1
  }
}