{
  "contractName": "Airdrop",
  "abi": [
    {
      "inputs": [
        {
          "internalType": "contract IERC20",
          "name": "_token",
          "type": "address"
        },
        {
          "internalType": "address",
          "name": "_tokenWallet",
          "type": "address"
        },
        {
          "internalType": "uint256",
          "name": "_airdropAmount",
          "type": "uint256"
        }
      ],
      "stateMutability": "nonpayable",
      "type": "constructor"
    },
    {
      "anonymous": false,
      "inputs": [
        {
          "indexed": false,
          "internalType": "address",
          "name": "account",
          "type": "address"
        }
      ],
      "name": "AddToWhitelist",
      "type": "event"
    },
    {
      "anonymous": false,
      "inputs": [
        {
          "indexed": true,
          "internalType": "address",
          "name": "previousOwner",
          "type": "address"
        },
        {
          "indexed": true,
          "internalType": "address",
          "name": "newOwner",
          "type": "address"
        }
      ],
      "name": "OwnershipTransferred",
      "type": "event"
    },
    {
      "inputs": [],
      "name": "airdropAmount",
      "outputs": [
        {
          "internalType": "uint256",
          "name": "",
          "type": "uint256"
        }
      ],
      "stateMutability": "view",
      "type": "function"
    },
    {
      "inputs": [
        {
          "internalType": "address",
          "name": "",
          "type": "address"
        }
      ],
      "name": "airdropList",
      "outputs": [
        {
          "internalType": "address",
          "name": "inviterToken",
          "type": "address"
        },
        {
          "internalType": "uint256",
          "name": "airdropAmount",
          "type": "uint256"
        }
      ],
      "stateMutability": "view",
      "type": "function"
    },
    {
      "inputs": [],
      "name": "owner",
      "outputs": [
        {
          "internalType": "address",
          "name": "",
          "type": "address"
        }
      ],
      "stateMutability": "view",
      "type": "function"
    },
    {
      "inputs": [],
      "name": "renounceOwnership",
      "outputs": [],
      "stateMutability": "nonpayable",
      "type": "function"
    },
    {
      "inputs": [],
      "name": "token",
      "outputs": [
        {
          "internalType": "contract IERC20",
          "name": "",
          "type": "address"
        }
      ],
      "stateMutability": "view",
      "type": "function"
    },
    {
      "inputs": [],
      "name": "tokenWallet",
      "outputs": [
        {
          "internalType": "address",
          "name": "",
          "type": "address"
        }
      ],
      "stateMutability": "view",
      "type": "function"
    },
    {
      "inputs": [
        {
          "internalType": "address",
          "name": "newOwner",
          "type": "address"
        }
      ],
      "name": "transferOwnership",
      "outputs": [],
      "stateMutability": "nonpayable",
      "type": "function"
    },
    {
      "inputs": [
        {
          "internalType": "address",
          "name": "account",
          "type": "address"
        }
      ],
      "name": "getMemberListByOwner",
      "outputs": [
        {
          "internalType": "address[]",
          "name": "",
          "type": "address[]"
        }
      ],
      "stateMutability": "view",
      "type": "function"
    },
    {
      "inputs": [],
      "name": "getMemberList",
      "outputs": [
        {
          "internalType": "address[]",
          "name": "",
          "type": "address[]"
        }
      ],
      "stateMutability": "view",
      "type": "function"
    },
    {
      "inputs": [
        {
          "internalType": "address",
          "name": "account",
          "type": "address"
        }
      ],
      "name": "removeFromWhitelist",
      "outputs": [],
      "stateMutability": "nonpayable",
      "type": "function"
    },
    {
      "inputs": [
        {
          "internalType": "address[]",
          "name": "accountList",
          "type": "address[]"
        }
      ],
      "name": "addMutliToWhitelist",
      "outputs": [],
      "stateMutability": "nonpayable",
      "type": "function"
    },
    {
      "inputs": [
        {
          "internalType": "address",
          "name": "account",
          "type": "address"
        }
      ],
      "name": "addToWhitelist",
      "outputs": [],
      "stateMutability": "nonpayable",
      "type": "function"
    },
    {
      "inputs": [
        {
          "internalType": "address",
          "name": "account",
          "type": "address"
        }
      ],
      "name": "hasWhitelist",
      "outputs": [
        {
          "internalType": "bool",
          "name": "",
          "type": "bool"
        }
      ],
      "stateMutability": "view",
      "type": "function"
    },
    {
      "inputs": [
        {
          "internalType": "address",
          "name": "account",
          "type": "address"
        }
      ],
      "name": "hasAirdropList",
      "outputs": [
        {
          "internalType": "bool",
          "name": "",
          "type": "bool"
        }
      ],
      "stateMutability": "view",
      "type": "function"
    },
    {
      "inputs": [
        {
          "internalType": "address",
          "name": "inviterAccount",
          "type": "address"
        }
      ],
      "name": "receiveAirdrop",
      "outputs": [],
      "stateMutability": "nonpayable",
      "type": "function"
    },
    {
      "inputs": [
        {
          "internalType": "address payable",
          "name": "recipientToken",
          "type": "address"
        }
      ],
      "name": "killSelf",
      "outputs": [],
      "stateMutability": "nonpayable",
      "type": "function"
    }
  ],
  "bytecode": "0x60806040523480156200001157600080fd5b5060405162003013380380620030138339818101604052810190620000379190620002fc565b620000576200004b620001eb60201b60201c565b620001f360201b60201c565b600073ffffffffffffffffffffffffffffffffffffffff168373ffffffffffffffffffffffffffffffffffffffff161415620000ca576040517f08c379a0000000000000000000000000000000000000000000000000000000008152600401620000c190620003a0565b60405180910390fd5b600073ffffffffffffffffffffffffffffffffffffffff168273ffffffffffffffffffffffffffffffffffffffff1614156200013d576040517f08c379a00000000000000000000000000000000000000000000000000000000081526004016200013490620003c2565b60405180910390fd5b82600160006101000a81548173ffffffffffffffffffffffffffffffffffffffff021916908373ffffffffffffffffffffffffffffffffffffffff16021790555081600260006101000a81548173ffffffffffffffffffffffffffffffffffffffff021916908373ffffffffffffffffffffffffffffffffffffffff1602179055506012600a620001cf919062000450565b81620001dc91906200058d565b60038190555050505062000768565b600033905090565b60008060009054906101000a900473ffffffffffffffffffffffffffffffffffffffff169050816000806101000a81548173ffffffffffffffffffffffffffffffffffffffff021916908373ffffffffffffffffffffffffffffffffffffffff1602179055508173ffffffffffffffffffffffffffffffffffffffff168173ffffffffffffffffffffffffffffffffffffffff167f8be0079c531659141344cd1fd0a4f28419497f9722a3daafe3b4186f6b6457e060405160405180910390a35050565b600081519050620002c8816200071a565b92915050565b600081519050620002df8162000734565b92915050565b600081519050620002f6816200074e565b92915050565b6000806000606084860312156200031257600080fd5b60006200032286828701620002ce565b93505060206200033586828701620002b7565b92505060406200034886828701620002e5565b9150509250925092565b600062000361602683620003e4565b91506200036e826200067c565b604082019050919050565b600062000388602d83620003e4565b91506200039582620006cb565b604082019050919050565b60006020820190508181036000830152620003bb8162000352565b9050919050565b60006020820190508181036000830152620003dd8162000379565b9050919050565b600082825260208201905092915050565b6000808291508390505b600185111562000447578086048111156200041f576200041e62000640565b5b60018516156200042f5780820291505b80810290506200043f856200066f565b9450620003ff565b94509492505050565b60006200045d8262000636565b91506200046a8362000636565b9250620004997fffffffffffffffffffffffffffffffffffffffffffffffffffffffffffffffff8484620004a1565b905092915050565b600082620004b3576001905062000586565b81620004c3576000905062000586565b8160018114620004dc5760028114620004e7576200051d565b600191505062000586565b60ff841115620004fc57620004fb62000640565b5b8360020a91508482111562000516576200051562000640565b5b5062000586565b5060208310610133831016604e8410600b8410161715620005575782820a90508381111562000551576200055062000640565b5b62000586565b620005668484846001620003f5565b9250905081840481111562000580576200057f62000640565b5b81810290505b9392505050565b60006200059a8262000636565b9150620005a78362000636565b9250817fffffffffffffffffffffffffffffffffffffffffffffffffffffffffffffffff0483118215151615620005e357620005e262000640565b5b828202905092915050565b6000620005fb8262000616565b9050919050565b60006200060f82620005ee565b9050919050565b600073ffffffffffffffffffffffffffffffffffffffff82169050919050565b6000819050919050565b7f4e487b7100000000000000000000000000000000000000000000000000000000600052601160045260246000fd5b60008160011c9050919050565b7f41697264726f703a2054686520746f6b656e20697320746865207a65726f206160008201527f6464726573730000000000000000000000000000000000000000000000000000602082015250565b7f41697264726f703a2054686520746f6b656e2077616c6c65742069732074686560008201527f207a65726f206164647265737300000000000000000000000000000000000000602082015250565b6200072581620005ee565b81146200073157600080fd5b50565b6200073f8162000602565b81146200074b57600080fd5b50565b620007598162000636565b81146200076557600080fd5b50565b61289b80620007786000396000f3fe608060405234801561001057600080fd5b50600436106101005760003560e01c8063b42fd41911610097578063f2fde38b11610066578063f2fde38b1461029a578063f7734812146102b6578063fc0c546a146102d2578063fc2ea8a5146102f057610100565b8063b42fd41914610214578063bff99c6c14610230578063ca4cf14f1461024e578063e43252d71461027e57610100565b80638ab1d681116100d35780638ab1d6811461017a5780638cdb7e8b146101965780638d59b3a7146101c65780638da5cb5b146101f657610100565b80633a507d7d1461010557806358cf77fa146101215780635f5d5f0014610152578063715018a614610170575b600080fd5b61011f600480360381019061011a9190611a63565b61030e565b005b61013b60048036038101906101369190611a3a565b61049f565b604051610149929190611ec0565b60405180910390f35b61015a6104e3565b6040516101679190611ee9565b60405180910390f35b61017861053b565b005b610194600480360381019061018f9190611a3a565b6105c3565b005b6101b060048036038101906101ab9190611a3a565b6106eb565b6040516101bd9190611f0b565b60405180910390f35b6101e060048036038101906101db9190611a3a565b610817565b6040516101ed9190611f0b565b60405180910390f35b6101fe610928565b60405161020b9190611e6e565b60405180910390f35b61022e60048036038101906102299190611a8c565b610951565b005b610238610a7d565b6040516102459190611e6e565b60405180910390f35b61026860048036038101906102639190611a3a565b610aa3565b6040516102759190611ee9565b60405180910390f35b61029860048036038101906102939190611a3a565b610b31565b005b6102b460048036038101906102af9190611a3a565b610c82565b005b6102d060048036038101906102cb9190611a3a565b610d7a565b005b6102da611112565b6040516102e79190611f26565b60405180910390f35b6102f8611138565b6040516103059190612143565b60405180910390f35b61031661113e565b73ffffffffffffffffffffffffffffffffffffffff16610334610928565b73ffffffffffffffffffffffffffffffffffffffff161461038a576040517f08c379a000000000000000000000000000000000000000000000000000000000815260040161038190612003565b60405180910390fd5b6000600160009054906101000a900473ffffffffffffffffffffffffffffffffffffffff1673ffffffffffffffffffffffffffffffffffffffff166370a08231306040518263ffffffff1660e01b81526004016103e79190611e6e565b60206040518083038186803b1580156103ff57600080fd5b505afa158015610413573d6000803e3d6000fd5b505050506040513d601f19601f820116820180604052508101906104379190611af6565b90506104868282600160009054906101000a900473ffffffffffffffffffffffffffffffffffffffff1673ffffffffffffffffffffffffffffffffffffffff166111469092919063ffffffff16565b8173ffffffffffffffffffffffffffffffffffffffff16ff5b60056020528060005260406000206000915090508060000160009054906101000a900473ffffffffffffffffffffffffffffffffffffffff16908060010154905082565b60606104ee336106eb565b61052d576040517f08c379a0000000000000000000000000000000000000000000000000000000008152600401610524906120e3565b60405180910390fd5b610536336111cc565b905090565b61054361113e565b73ffffffffffffffffffffffffffffffffffffffff16610561610928565b73ffffffffffffffffffffffffffffffffffffffff16146105b7576040517f08c379a00000000000000000000000000000000000000000000000000000000081526004016105ae90612003565b60405180910390fd5b6105c160006112a2565b565b6105cb61113e565b73ffffffffffffffffffffffffffffffffffffffff166105e9610928565b73ffffffffffffffffffffffffffffffffffffffff161461063f576040517f08c379a000000000000000000000000000000000000000000000000000000000815260040161063690612003565b60405180910390fd5b610648816106eb565b610687576040517f08c379a000000000000000000000000000000000000000000000000000000000815260040161067e906120e3565b60405180910390fd5b6000600460008373ffffffffffffffffffffffffffffffffffffffff1673ffffffffffffffffffffffffffffffffffffffff168152602001908152602001600020905060018160000160146101000a81548160ff0219169083151502179055505050565b60008073ffffffffffffffffffffffffffffffffffffffff168273ffffffffffffffffffffffffffffffffffffffff16141561075c576040517f08c379a000000000000000000000000000000000000000000000000000000000815260040161075390612123565b60405180910390fd5b6000600460008473ffffffffffffffffffffffffffffffffffffffff1673ffffffffffffffffffffffffffffffffffffffff1681526020019081526020016000209050600073ffffffffffffffffffffffffffffffffffffffff168160000160009054906101000a900473ffffffffffffffffffffffffffffffffffffffff1673ffffffffffffffffffffffffffffffffffffffff161415801561080f57508060000160149054906101000a900460ff16155b915050919050565b60008073ffffffffffffffffffffffffffffffffffffffff168273ffffffffffffffffffffffffffffffffffffffff161415610888576040517f08c379a000000000000000000000000000000000000000000000000000000000815260040161087f90612123565b60405180910390fd5b6000600560008473ffffffffffffffffffffffffffffffffffffffff1673ffffffffffffffffffffffffffffffffffffffff1681526020019081526020016000209050600073ffffffffffffffffffffffffffffffffffffffff168160000160009054906101000a900473ffffffffffffffffffffffffffffffffffffffff1673ffffffffffffffffffffffffffffffffffffffff161415915050919050565b60008060009054906101000a900473ffffffffffffffffffffffffffffffffffffffff16905090565b61095961113e565b73ffffffffffffffffffffffffffffffffffffffff16610977610928565b73ffffffffffffffffffffffffffffffffffffffff16146109cd576040517f08c379a00000000000000000000000000000000000000000000000000000000081526004016109c490612003565b60405180910390fd5b6000815111610a11576040517f08c379a0000000000000000000000000000000000000000000000000000000008152600401610a0890612103565b60405180910390fd5b60005b8151811015610a7957610a66828281518110610a59577f4e487b7100000000000000000000000000000000000000000000000000000000600052603260045260246000fd5b6020026020010151611366565b8080610a71906122fc565b915050610a14565b5050565b600260009054906101000a900473ffffffffffffffffffffffffffffffffffffffff1681565b6060610aad61113e565b73ffffffffffffffffffffffffffffffffffffffff16610acb610928565b73ffffffffffffffffffffffffffffffffffffffff1614610b21576040517f08c379a0000000000000000000000000000000000000000000000000000000008152600401610b1890612003565b60405180910390fd5b610b2a826111cc565b9050919050565b610b3961113e565b73ffffffffffffffffffffffffffffffffffffffff16610b57610928565b73ffffffffffffffffffffffffffffffffffffffff1614610bad576040517f08c379a0000000000000000000000000000000000000000000000000000000008152600401610ba490612003565b60405180910390fd5b610bb6816106eb565b15610bf6576040517f08c379a0000000000000000000000000000000000000000000000000000000008152600401610bed90611f63565b60405180910390fd5b610bff81610817565b15610c3f576040517f08c379a0000000000000000000000000000000000000000000000000000000008152600401610c3690612063565b60405180910390fd5b610c4881611366565b7f75b2135d1c8c3519f3c09c43fe6527089ef09f40c7981ebf0ed46e79e79032c781604051610c779190611e6e565b60405180910390a150565b610c8a61113e565b73ffffffffffffffffffffffffffffffffffffffff16610ca8610928565b73ffffffffffffffffffffffffffffffffffffffff1614610cfe576040517f08c379a0000000000000000000000000000000000000000000000000000000008152600401610cf590612003565b60405180910390fd5b600073ffffffffffffffffffffffffffffffffffffffff168173ffffffffffffffffffffffffffffffffffffffff161415610d6e576040517f08c379a0000000000000000000000000000000000000000000000000000000008152600401610d6590611f83565b60405180910390fd5b610d77816112a2565b50565b600073ffffffffffffffffffffffffffffffffffffffff168173ffffffffffffffffffffffffffffffffffffffff161415610dea576040517f08c379a0000000000000000000000000000000000000000000000000000000008152600401610de190612043565b60405180910390fd5b3373ffffffffffffffffffffffffffffffffffffffff168173ffffffffffffffffffffffffffffffffffffffff161415610e59576040517f08c379a0000000000000000000000000000000000000000000000000000000008152600401610e5090612023565b60405180910390fd5b610e62816106eb565b610ea1576040517f08c379a0000000000000000000000000000000000000000000000000000000008152600401610e9890611fa3565b60405180910390fd5b610eaa336106eb565b15610eea576040517f08c379a0000000000000000000000000000000000000000000000000000000008152600401610ee190611fc3565b60405180910390fd5b610ef333610817565b15610f33576040517f08c379a0000000000000000000000000000000000000000000000000000000008152600401610f2a906120a3565b60405180910390fd5b60405180604001604052808273ffffffffffffffffffffffffffffffffffffffff168152602001600354815250600560003373ffffffffffffffffffffffffffffffffffffffff1673ffffffffffffffffffffffffffffffffffffffff16815260200190815260200160002060008201518160000160006101000a81548173ffffffffffffffffffffffffffffffffffffffff021916908373ffffffffffffffffffffffffffffffffffffffff160217905550602082015181600101559050506000600460008373ffffffffffffffffffffffffffffffffffffffff1673ffffffffffffffffffffffffffffffffffffffff168152602001908152602001600020905080600101339080600181540180825580915050600190039060005260206000200160009091909190916101000a81548173ffffffffffffffffffffffffffffffffffffffff021916908373ffffffffffffffffffffffffffffffffffffffff16021790555061110e600260009054906101000a900473ffffffffffffffffffffffffffffffffffffffff1633600354600160009054906101000a900473ffffffffffffffffffffffffffffffffffffffff1673ffffffffffffffffffffffffffffffffffffffff166115b3909392919063ffffffff16565b5050565b600160009054906101000a900473ffffffffffffffffffffffffffffffffffffffff1681565b60035481565b600033905090565b6111c78363a9059cbb60e01b8484604051602401611165929190611ec0565b604051602081830303815290604052907bffffffffffffffffffffffffffffffffffffffffffffffffffffffff19166020820180517bffffffffffffffffffffffffffffffffffffffffffffffffffffffff838183161783525050505061163c565b505050565b60606000600460008473ffffffffffffffffffffffffffffffffffffffff1673ffffffffffffffffffffffffffffffffffffffff16815260200190815260200160002090508060010180548060200260200160405190810160405280929190818152602001828054801561129557602002820191906000526020600020905b8160009054906101000a900473ffffffffffffffffffffffffffffffffffffffff1673ffffffffffffffffffffffffffffffffffffffff168152602001906001019080831161124b575b5050505050915050919050565b60008060009054906101000a900473ffffffffffffffffffffffffffffffffffffffff169050816000806101000a81548173ffffffffffffffffffffffffffffffffffffffff021916908373ffffffffffffffffffffffffffffffffffffffff1602179055508173ffffffffffffffffffffffffffffffffffffffff168173ffffffffffffffffffffffffffffffffffffffff167f8be0079c531659141344cd1fd0a4f28419497f9722a3daafe3b4186f6b6457e060405160405180910390a35050565b61136f816106eb565b158015611382575061138081610817565b155b156115b0576000600460008373ffffffffffffffffffffffffffffffffffffffff1673ffffffffffffffffffffffffffffffffffffffff1681526020019081526020016000209050600073ffffffffffffffffffffffffffffffffffffffff168160000160009054906101000a900473ffffffffffffffffffffffffffffffffffffffff1673ffffffffffffffffffffffffffffffffffffffff16146114445760008160000160146101000a81548160ff0219169083151502179055506115ae565b60405180606001604052808373ffffffffffffffffffffffffffffffffffffffff168152602001600015158152602001600067ffffffffffffffff8111156114b5577f4e487b7100000000000000000000000000000000000000000000000000000000600052604160045260246000fd5b6040519080825280602002602001820160405280156114e35781602001602082028036833780820191505090505b50815250600460008473ffffffffffffffffffffffffffffffffffffffff1673ffffffffffffffffffffffffffffffffffffffff16815260200190815260200160002060008201518160000160006101000a81548173ffffffffffffffffffffffffffffffffffffffff021916908373ffffffffffffffffffffffffffffffffffffffff16021790555060208201518160000160146101000a81548160ff02191690831515021790555060408201518160010190805190602001906115a99291906118a9565b509050505b505b50565b611636846323b872dd60e01b8585856040516024016115d493929190611e89565b604051602081830303815290604052907bffffffffffffffffffffffffffffffffffffffffffffffffffffffff19166020820180517bffffffffffffffffffffffffffffffffffffffffffffffffffffffff838183161783525050505061163c565b50505050565b600061169e826040518060400160405280602081526020017f5361666545524332303a206c6f772d6c6576656c2063616c6c206661696c65648152508573ffffffffffffffffffffffffffffffffffffffff166117039092919063ffffffff16565b90506000815111156116fe57808060200190518101906116be9190611acd565b6116fd576040517f08c379a00000000000000000000000000000000000000000000000000000000081526004016116f4906120c3565b60405180910390fd5b5b505050565b6060611712848460008561171b565b90509392505050565b606082471015611760576040517f08c379a000000000000000000000000000000000000000000000000000000000815260040161175790611fe3565b60405180910390fd5b6117698561182f565b6117a8576040517f08c379a000000000000000000000000000000000000000000000000000000000815260040161179f90612083565b60405180910390fd5b6000808673ffffffffffffffffffffffffffffffffffffffff1685876040516117d19190611e57565b60006040518083038185875af1925050503d806000811461180e576040519150601f19603f3d011682016040523d82523d6000602084013e611813565b606091505b5091509150611823828286611842565b92505050949350505050565b600080823b905060008111915050919050565b60608315611852578290506118a2565b6000835111156118655782518084602001fd5b816040517f08c379a00000000000000000000000000000000000000000000000000000000081526004016118999190611f41565b60405180910390fd5b9392505050565b828054828255906000526020600020908101928215611922579160200282015b828111156119215782518260006101000a81548173ffffffffffffffffffffffffffffffffffffffff021916908373ffffffffffffffffffffffffffffffffffffffff160217905550916020019190600101906118c9565b5b50905061192f9190611933565b5090565b5b8082111561194c576000816000905550600101611934565b5090565b600061196361195e84612183565b61215e565b9050808382526020820190508285602086028201111561198257600080fd5b60005b858110156119b2578161199888826119bc565b845260208401935060208301925050600181019050611985565b5050509392505050565b6000813590506119cb81612809565b92915050565b6000813590506119e081612820565b92915050565b600082601f8301126119f757600080fd5b8135611a07848260208601611950565b91505092915050565b600081519050611a1f81612837565b92915050565b600081519050611a348161284e565b92915050565b600060208284031215611a4c57600080fd5b6000611a5a848285016119bc565b91505092915050565b600060208284031215611a7557600080fd5b6000611a83848285016119d1565b91505092915050565b600060208284031215611a9e57600080fd5b600082013567ffffffffffffffff811115611ab857600080fd5b611ac4848285016119e6565b91505092915050565b600060208284031215611adf57600080fd5b6000611aed84828501611a10565b91505092915050565b600060208284031215611b0857600080fd5b6000611b1684828501611a25565b91505092915050565b6000611b2b8383611b37565b60208301905092915050565b611b408161221a565b82525050565b611b4f8161221a565b82525050565b6000611b60826121bf565b611b6a81856121ed565b9350611b75836121af565b8060005b83811015611ba6578151611b8d8882611b1f565b9750611b98836121e0565b925050600181019050611b79565b5085935050505092915050565b611bbc8161223e565b82525050565b6000611bcd826121ca565b611bd781856121fe565b9350611be7818560208601612298565b80840191505092915050565b611bfc81612274565b82525050565b6000611c0d826121d5565b611c178185612209565b9350611c27818560208601612298565b611c30816123a3565b840191505092915050565b6000611c48603083612209565b9150611c53826123b4565b604082019050919050565b6000611c6b602683612209565b9150611c7682612403565b604082019050919050565b6000611c8e603483612209565b9150611c9982612452565b604082019050919050565b6000611cb1603883612209565b9150611cbc826124a1565b604082019050919050565b6000611cd4602683612209565b9150611cdf826124f0565b604082019050919050565b6000611cf7602083612209565b9150611d028261253f565b602082019050919050565b6000611d1a602f83612209565b9150611d2582612568565b604082019050919050565b6000611d3d603083612209565b9150611d48826125b7565b604082019050919050565b6000611d60603283612209565b9150611d6b82612606565b604082019050919050565b6000611d83601d83612209565b9150611d8e82612655565b602082019050919050565b6000611da6603a83612209565b9150611db18261267e565b604082019050919050565b6000611dc9602a83612209565b9150611dd4826126cd565b604082019050919050565b6000611dec602c83612209565b9150611df78261271c565b604082019050919050565b6000611e0f602183612209565b9150611e1a8261276b565b604082019050919050565b6000611e32602883612209565b9150611e3d826127ba565b604082019050919050565b611e518161226a565b82525050565b6000611e638284611bc2565b915081905092915050565b6000602082019050611e836000830184611b46565b92915050565b6000606082019050611e9e6000830186611b46565b611eab6020830185611b46565b611eb86040830184611e48565b949350505050565b6000604082019050611ed56000830185611b46565b611ee26020830184611e48565b9392505050565b60006020820190508181036000830152611f038184611b55565b905092915050565b6000602082019050611f206000830184611bb3565b92915050565b6000602082019050611f3b6000830184611bf3565b92915050565b60006020820190508181036000830152611f5b8184611c02565b905092915050565b60006020820190508181036000830152611f7c81611c3b565b9050919050565b60006020820190508181036000830152611f9c81611c5e565b9050919050565b60006020820190508181036000830152611fbc81611c81565b9050919050565b60006020820190508181036000830152611fdc81611ca4565b9050919050565b60006020820190508181036000830152611ffc81611cc7565b9050919050565b6000602082019050818103600083015261201c81611cea565b9050919050565b6000602082019050818103600083015261203c81611d0d565b9050919050565b6000602082019050818103600083015261205c81611d30565b9050919050565b6000602082019050818103600083015261207c81611d53565b9050919050565b6000602082019050818103600083015261209c81611d76565b9050919050565b600060208201905081810360008301526120bc81611d99565b9050919050565b600060208201905081810360008301526120dc81611dbc565b9050919050565b600060208201905081810360008301526120fc81611ddf565b9050919050565b6000602082019050818103600083015261211c81611e02565b9050919050565b6000602082019050818103600083015261213c81611e25565b9050919050565b60006020820190506121586000830184611e48565b92915050565b6000612168612179565b905061217482826122cb565b919050565b6000604051905090565b600067ffffffffffffffff82111561219e5761219d612374565b5b602082029050602081019050919050565b6000819050602082019050919050565b600081519050919050565b600081519050919050565b600081519050919050565b6000602082019050919050565b600082825260208201905092915050565b600081905092915050565b600082825260208201905092915050565b60006122258261224a565b9050919050565b60006122378261224a565b9050919050565b60008115159050919050565b600073ffffffffffffffffffffffffffffffffffffffff82169050919050565b6000819050919050565b600061227f82612286565b9050919050565b60006122918261224a565b9050919050565b60005b838110156122b657808201518184015260208101905061229b565b838111156122c5576000848401525b50505050565b6122d4826123a3565b810181811067ffffffffffffffff821117156122f3576122f2612374565b5b80604052505050565b60006123078261226a565b91507fffffffffffffffffffffffffffffffffffffffffffffffffffffffffffffffff82141561233a57612339612345565b5b600182019050919050565b7f4e487b7100000000000000000000000000000000000000000000000000000000600052601160045260246000fd5b7f4e487b7100000000000000000000000000000000000000000000000000000000600052604160045260246000fd5b6000601f19601f8301169050919050565b7f41697264726f703a20546865206163636f756e7420697320616c72656164792060008201527f6f6e207468652077686974656c69737400000000000000000000000000000000602082015250565b7f4f776e61626c653a206e6577206f776e657220697320746865207a65726f206160008201527f6464726573730000000000000000000000000000000000000000000000000000602082015250565b7f41697264726f703a2054686520696e7669746572206163636f756e742069732060008201527f6e6f7420696e207468652077686974656c697374000000000000000000000000602082015250565b7f41697264726f703a2054686520696e7669746565206163636f756e742069732060008201527f616c7265616479206f6e207468652077686974656c6973740000000000000000602082015250565b7f416464726573733a20696e73756666696369656e742062616c616e636520666f60008201527f722063616c6c0000000000000000000000000000000000000000000000000000602082015250565b7f4f776e61626c653a2063616c6c6572206973206e6f7420746865206f776e6572600082015250565b7f41697264726f703a2054686520696e7669746572206163636f756e742063616e60008201527f6e6f7420626520796f757273656c660000000000000000000000000000000000602082015250565b7f41697264726f703a2054686520696e7669746572206163636f756e742069732060008201527f746865207a65726f206164647265737300000000000000000000000000000000602082015250565b7f41697264726f703a20546865206163636f756e7420697320616c72656164792060008201527f6f6e207468652061697264726f704c6973740000000000000000000000000000602082015250565b7f416464726573733a2063616c6c20746f206e6f6e2d636f6e7472616374000000600082015250565b7f41697264726f703a2054686520696e7669746565206163636f756e742069732060008201527f616c7265616479206f6e207468652061697264726f704c697374000000000000602082015250565b7f5361666545524332303a204552433230206f7065726174696f6e20646964206e60008201527f6f74207375636365656400000000000000000000000000000000000000000000602082015250565b7f41697264726f703a20546865206163636f756e74206973206e6f7420696e207460008201527f68652077686974656c6973740000000000000000000000000000000000000000602082015250565b7f41697264726f703a20546865206163636f756e74206c697374206973206e756c60008201527f6c00000000000000000000000000000000000000000000000000000000000000602082015250565b7f41697264726f703a20546865206163636f756e7420697320746865207a65726f60008201527f2061646472657373000000000000000000000000000000000000000000000000602082015250565b6128128161221a565b811461281d57600080fd5b50565b6128298161222c565b811461283457600080fd5b50565b6128408161223e565b811461284b57600080fd5b50565b6128578161226a565b811461286257600080fd5b5056fea2646970667358221220a8a079fa550e7bccec7b4d7ef759a602e1b4833662183d377d632a07e078ec3964736f6c63430008040033",
  "immutableReferences": {},
  "source": "// SPDX-License-Identifier: MIT\r\npragma solidity ^0.8.0;\r\n\r\nimport \"@openzeppelin/contracts/access/Ownable.sol\";\r\nimport \"@openzeppelin/contracts/utils/math/SafeMath.sol\";\r\nimport \"@openzeppelin/contracts/token/ERC20/utils/SafeERC20.sol\";\r\n\r\ncontract Airdrop is Ownable {\r\n    using SafeMath for uint256;\r\n    using SafeERC20 for IERC20;\r\n\r\n    event AddToWhitelist(address account);\r\n\r\n    IERC20 public token;\r\n    address public tokenWallet;\r\n    uint256 public airdropAmount;\r\n\r\n    // whitelist\r\n    struct WhitelistInfo {\r\n        address token;\r\n        bool isRemove;\r\n        address[] member;\r\n    }\r\n    mapping (address => WhitelistInfo) private _whitelist;\r\n    // Record the information of all invited personnel\r\n    struct InviteInfo {\r\n        address inviterToken;\r\n        uint256 airdropAmount;\r\n    }\r\n    mapping (address => InviteInfo) public airdropList;\r\n\r\n    constructor(IERC20 _token, address _tokenWallet, uint256 _airdropAmount) Ownable() {\r\n        require(address(_token) != address(0), \"Airdrop: The token is the zero address\");\r\n        require(_tokenWallet != address(0), \"Airdrop: The token wallet is the zero address\");\r\n\r\n        token = _token;\r\n        tokenWallet = _tokenWallet;\r\n        airdropAmount = _airdropAmount * (10**uint256(18));\r\n    }\r\n\r\n    /**\r\n     * @dev get member list from the whitelist by owner\r\n     */\r\n    function getMemberListByOwner(address account) public onlyOwner view returns (address[] memory) {\r\n        return _getMemberList(account);\r\n    }\r\n\r\n    /**\r\n     * @dev get member list from the whitelist by owner\r\n     */\r\n    function getMemberList() public view returns (address[] memory) {\r\n        require(hasWhitelist(msg.sender), \"Airdrop: The account is not in the whitelist\");\r\n        return _getMemberList(msg.sender);\r\n    }\r\n\r\n    /**\r\n     * @dev get member list from the whitelist\r\n     */\r\n    function _getMemberList(address account) internal view returns (address[] memory) {\r\n        WhitelistInfo storage info = _whitelist[account];\r\n        return info.member;\r\n    }\r\n\r\n    /**\r\n     * @dev remove single account from the whitelist by owner\r\n     * @param account the address of whitelist\r\n     */\r\n    function removeFromWhitelist(address account) public onlyOwner {\r\n        require(hasWhitelist(account), \"Airdrop: The account is not in the whitelist\");\r\n        WhitelistInfo storage info = _whitelist[account];\r\n        info.isRemove = true;\r\n    }\r\n\r\n    /**\r\n     * @dev add account list to the whitelist by owner\r\n     * @param accountList the address of whitelist\r\n     */\r\n    function addMutliToWhitelist(address[] memory accountList) public onlyOwner {\r\n        require(accountList.length > 0, \"Airdrop: The account list is null\");\r\n        for (uint i = 0; i < accountList.length; i++) {\r\n            _addToWhitelist(accountList[i]);\r\n        }\r\n    }\r\n\r\n    /**\r\n     * @dev add single account to the whitelist by owner\r\n     * @param account the address of whitelist\r\n     */\r\n    function addToWhitelist(address account) public onlyOwner {\r\n        require(!hasWhitelist(account), \"Airdrop: The account is already on the whitelist\");\r\n        require(!hasAirdropList(account), \"Airdrop: The account is already on the airdropList\");\r\n        _addToWhitelist(account);\r\n\r\n        emit AddToWhitelist(account);\r\n    }\r\n\r\n    /**\r\n     * @dev add account to the whitelist\r\n     * @param account the address of whitelist\r\n     */\r\n    function _addToWhitelist(address account) internal {\r\n        if (!hasWhitelist(account) && !hasAirdropList(account)) {\r\n            WhitelistInfo storage info = _whitelist[account];\r\n            if (info.token != address(0)) {\r\n                info.isRemove = false;\r\n            } else {\r\n                _whitelist[account] = WhitelistInfo(account, false, new address[](0));\r\n            }\r\n        }\r\n    }\r\n\r\n    /**\r\n     * @dev Check if an account has this whitelist.\r\n     * @param account the address of whitelist\r\n     * @return bool\r\n     */\r\n    function hasWhitelist(address account) public view returns (bool) {\r\n        require(address(account) != address(0), \"Airdrop: The account is the zero address\");\r\n        WhitelistInfo storage whitelistInfo = _whitelist[account];\r\n        return whitelistInfo.token != address(0) && !whitelistInfo.isRemove;\r\n    }\r\n\r\n    /**\r\n     * @dev Check if an account has this airdroplist.\r\n     * @param account the address of airdropList\r\n     * @return bool\r\n     */\r\n    function hasAirdropList(address account) public view returns (bool) {\r\n        require(address(account) != address(0), \"Airdrop: The account is the zero address\");\r\n        InviteInfo storage inviteInfo = airdropList[account];\r\n        return inviteInfo.inviterToken != address(0);\r\n    }\r\n\r\n    /**\r\n     * @dev Receive airdrop\r\n     * @param inviterAccount the account of receive's inviter\r\n     */\r\n    function receiveAirdrop(address inviterAccount) public {\r\n        require(inviterAccount != address(0), \"Airdrop: The inviter account is the zero address\");\r\n        require(inviterAccount != msg.sender, \"Airdrop: The inviter account cannot be yourself\");\r\n        require(hasWhitelist(inviterAccount), \"Airdrop: The inviter account is not in the whitelist\");\r\n        require(!hasWhitelist(msg.sender), \"Airdrop: The invitee account is already on the whitelist\");\r\n        require(!hasAirdropList(msg.sender), \"Airdrop: The invitee account is already on the airdropList\");\r\n\r\n        // add to airdropList\r\n        airdropList[msg.sender] = InviteInfo(inviterAccount, airdropAmount);\r\n        // add to whitelist member\r\n        WhitelistInfo storage whitelistInfo = _whitelist[inviterAccount];\r\n        whitelistInfo.member.push(msg.sender);\r\n        // transfer token to receive account\r\n        token.safeTransferFrom(tokenWallet, msg.sender, airdropAmount);\r\n    }\r\n\r\n    function killSelf(address payable recipientToken) public onlyOwner {\r\n        uint256 contractBalance = token.balanceOf(address(this));\r\n        token.safeTransfer(recipientToken, contractBalance);\r\n\r\n        selfdestruct(recipientToken);\r\n    }\r\n}\r\n",
  "sourcePath": "D:/Workspaces/DaoswapDex/daoswapdex-heco-testnet/core-airdrop/contracts/Airdrop.sol",
  "compiler": {
    "name": "solc",
    "version": "0.8.4+commit.c7e474f2.Emscripten.clang"
  },
  "schemaVersion": "3.4.1",
  "updatedAt": "2021-08-03T10:59:45.218Z",
  "devdoc": {
    "kind": "dev",
    "methods": {
      "addMutliToWhitelist(address[])": {
        "details": "add account list to the whitelist by owner",
        "params": {
          "accountList": "the address of whitelist"
        }
      },
      "addToWhitelist(address)": {
        "details": "add single account to the whitelist by owner",
        "params": {
          "account": "the address of whitelist"
        }
      },
      "getMemberList()": {
        "details": "get member list from the whitelist by owner"
      },
      "getMemberListByOwner(address)": {
        "details": "get member list from the whitelist by owner"
      },
      "hasAirdropList(address)": {
        "details": "Check if an account has this airdroplist.",
        "params": {
          "account": "the address of airdropList"
        },
        "returns": {
          "_0": "bool"
        }
      },
      "hasWhitelist(address)": {
        "details": "Check if an account has this whitelist.",
        "params": {
          "account": "the address of whitelist"
        },
        "returns": {
          "_0": "bool"
        }
      },
      "owner()": {
        "details": "Returns the address of the current owner."
      },
      "receiveAirdrop(address)": {
        "details": "Receive airdrop",
        "params": {
          "inviterAccount": "the account of receive's inviter"
        }
      },
      "removeFromWhitelist(address)": {
        "details": "remove single account from the whitelist by owner",
        "params": {
          "account": "the address of whitelist"
        }
      },
      "renounceOwnership()": {
        "details": "Leaves the contract without owner. It will not be possible to call `onlyOwner` functions anymore. Can only be called by the current owner. NOTE: Renouncing ownership will leave the contract without an owner, thereby removing any functionality that is only available to the owner."
      },
      "transferOwnership(address)": {
        "details": "Transfers ownership of the contract to a new account (`newOwner`). Can only be called by the current owner."
      }
    },
    "version": 1
  },
  "userdoc": {
    "kind": "user",
    "methods": {},
    "version": 1
  }
}