{
  "contractName": "AirdropToRelationship",
  "abi": [
    {
      "inputs": [
        {
          "internalType": "contract IERC20",
          "name": "_token",
          "type": "address"
        },
        {
          "internalType": "address",
          "name": "_tokenWallet",
          "type": "address"
        },
        {
          "internalType": "uint256",
          "name": "_minDATBalanceAmount",
          "type": "uint256"
        },
        {
          "internalType": "uint256",
          "name": "_minDATStakeAmount",
          "type": "uint256"
        },
        {
          "internalType": "uint256",
          "name": "_airdropMinAmount",
          "type": "uint256"
        },
        {
          "internalType": "uint256",
          "name": "_airdropMaxAmount",
          "type": "uint256"
        },
        {
          "internalType": "address",
          "name": "_crowdsaleForRetailAddress",
          "type": "address"
        },
        {
          "internalType": "contract IERC20",
          "name": "_crowdsaleToken",
          "type": "address"
        },
        {
          "internalType": "address",
          "name": "_relationshipAddress",
          "type": "address"
        }
      ],
      "stateMutability": "nonpayable",
      "type": "constructor"
    },
    {
      "anonymous": false,
      "inputs": [
        {
          "indexed": true,
          "internalType": "address",
          "name": "previousOwner",
          "type": "address"
        },
        {
          "indexed": true,
          "internalType": "address",
          "name": "newOwner",
          "type": "address"
        }
      ],
      "name": "OwnershipTransferred",
      "type": "event"
    },
    {
      "anonymous": false,
      "inputs": [
        {
          "indexed": false,
          "internalType": "address",
          "name": "wallet",
          "type": "address"
        },
        {
          "indexed": false,
          "internalType": "address",
          "name": "account",
          "type": "address"
        },
        {
          "indexed": false,
          "internalType": "uint256",
          "name": "amount",
          "type": "uint256"
        }
      ],
      "name": "transferToken",
      "type": "event"
    },
    {
      "inputs": [
        {
          "internalType": "address",
          "name": "",
          "type": "address"
        }
      ],
      "name": "airdropAmount",
      "outputs": [
        {
          "internalType": "uint256",
          "name": "",
          "type": "uint256"
        }
      ],
      "stateMutability": "view",
      "type": "function"
    },
    {
      "inputs": [],
      "name": "airdropMaxAmount",
      "outputs": [
        {
          "internalType": "uint256",
          "name": "",
          "type": "uint256"
        }
      ],
      "stateMutability": "view",
      "type": "function"
    },
    {
      "inputs": [],
      "name": "airdropMinAmount",
      "outputs": [
        {
          "internalType": "uint256",
          "name": "",
          "type": "uint256"
        }
      ],
      "stateMutability": "view",
      "type": "function"
    },
    {
      "inputs": [],
      "name": "checkDATBalanceOrDATStakeSwitch",
      "outputs": [
        {
          "internalType": "bool",
          "name": "",
          "type": "bool"
        }
      ],
      "stateMutability": "view",
      "type": "function"
    },
    {
      "inputs": [],
      "name": "checkDATBalanceSwitch",
      "outputs": [
        {
          "internalType": "bool",
          "name": "",
          "type": "bool"
        }
      ],
      "stateMutability": "view",
      "type": "function"
    },
    {
      "inputs": [],
      "name": "checkDATStakeSwitch",
      "outputs": [
        {
          "internalType": "bool",
          "name": "",
          "type": "bool"
        }
      ],
      "stateMutability": "view",
      "type": "function"
    },
    {
      "inputs": [],
      "name": "checkRelationshipListSwitch",
      "outputs": [
        {
          "internalType": "bool",
          "name": "",
          "type": "bool"
        }
      ],
      "stateMutability": "view",
      "type": "function"
    },
    {
      "inputs": [],
      "name": "checkTransferSwitch",
      "outputs": [
        {
          "internalType": "bool",
          "name": "",
          "type": "bool"
        }
      ],
      "stateMutability": "view",
      "type": "function"
    },
    {
      "inputs": [],
      "name": "crowdsaleForRetailAddress",
      "outputs": [
        {
          "internalType": "address",
          "name": "",
          "type": "address"
        }
      ],
      "stateMutability": "view",
      "type": "function"
    },
    {
      "inputs": [],
      "name": "crowdsaleToken",
      "outputs": [
        {
          "internalType": "contract IERC20",
          "name": "",
          "type": "address"
        }
      ],
      "stateMutability": "view",
      "type": "function"
    },
    {
      "inputs": [],
      "name": "minDATBalanceAmount",
      "outputs": [
        {
          "internalType": "uint256",
          "name": "",
          "type": "uint256"
        }
      ],
      "stateMutability": "view",
      "type": "function"
    },
    {
      "inputs": [],
      "name": "minDATStakeAmount",
      "outputs": [
        {
          "internalType": "uint256",
          "name": "",
          "type": "uint256"
        }
      ],
      "stateMutability": "view",
      "type": "function"
    },
    {
      "inputs": [],
      "name": "owner",
      "outputs": [
        {
          "internalType": "address",
          "name": "",
          "type": "address"
        }
      ],
      "stateMutability": "view",
      "type": "function"
    },
    {
      "inputs": [],
      "name": "relationshipAddress",
      "outputs": [
        {
          "internalType": "address",
          "name": "",
          "type": "address"
        }
      ],
      "stateMutability": "view",
      "type": "function"
    },
    {
      "inputs": [],
      "name": "renounceOwnership",
      "outputs": [],
      "stateMutability": "nonpayable",
      "type": "function"
    },
    {
      "inputs": [],
      "name": "token",
      "outputs": [
        {
          "internalType": "contract IERC20",
          "name": "",
          "type": "address"
        }
      ],
      "stateMutability": "view",
      "type": "function"
    },
    {
      "inputs": [],
      "name": "tokenWallet",
      "outputs": [
        {
          "internalType": "address",
          "name": "",
          "type": "address"
        }
      ],
      "stateMutability": "view",
      "type": "function"
    },
    {
      "inputs": [
        {
          "internalType": "address",
          "name": "newOwner",
          "type": "address"
        }
      ],
      "name": "transferOwnership",
      "outputs": [],
      "stateMutability": "nonpayable",
      "type": "function"
    },
    {
      "inputs": [
        {
          "internalType": "uint256",
          "name": "amount",
          "type": "uint256"
        }
      ],
      "name": "setMinDATBalanceAmount",
      "outputs": [],
      "stateMutability": "nonpayable",
      "type": "function"
    },
    {
      "inputs": [
        {
          "internalType": "uint256",
          "name": "amount",
          "type": "uint256"
        }
      ],
      "name": "setMinDATStakeAmount",
      "outputs": [],
      "stateMutability": "nonpayable",
      "type": "function"
    },
    {
      "inputs": [
        {
          "internalType": "uint256",
          "name": "amount",
          "type": "uint256"
        }
      ],
      "name": "setAirdropMinAmount",
      "outputs": [],
      "stateMutability": "nonpayable",
      "type": "function"
    },
    {
      "inputs": [
        {
          "internalType": "uint256",
          "name": "amount",
          "type": "uint256"
        }
      ],
      "name": "setAirdropMaxAmount",
      "outputs": [],
      "stateMutability": "nonpayable",
      "type": "function"
    },
    {
      "inputs": [],
      "name": "openCheckRelationshipListSwitch",
      "outputs": [],
      "stateMutability": "nonpayable",
      "type": "function"
    },
    {
      "inputs": [],
      "name": "closeCheckRelationshipListSwitch",
      "outputs": [],
      "stateMutability": "nonpayable",
      "type": "function"
    },
    {
      "inputs": [],
      "name": "openCheckDATBalanceOrDATStakeSwitch",
      "outputs": [],
      "stateMutability": "nonpayable",
      "type": "function"
    },
    {
      "inputs": [],
      "name": "closeCheckDATBalanceOrDATStakeSwitch",
      "outputs": [],
      "stateMutability": "nonpayable",
      "type": "function"
    },
    {
      "inputs": [],
      "name": "openCheckDATBalanceSwitch",
      "outputs": [],
      "stateMutability": "nonpayable",
      "type": "function"
    },
    {
      "inputs": [],
      "name": "closeCheckDATBalanceSwitch",
      "outputs": [],
      "stateMutability": "nonpayable",
      "type": "function"
    },
    {
      "inputs": [],
      "name": "openCheckDATStakeSwitch",
      "outputs": [],
      "stateMutability": "nonpayable",
      "type": "function"
    },
    {
      "inputs": [],
      "name": "closeCheckDATStakeSwitch",
      "outputs": [],
      "stateMutability": "nonpayable",
      "type": "function"
    },
    {
      "inputs": [],
      "name": "openCheckTransferSwitch",
      "outputs": [],
      "stateMutability": "nonpayable",
      "type": "function"
    },
    {
      "inputs": [],
      "name": "closeCheckTransferSwitch",
      "outputs": [],
      "stateMutability": "nonpayable",
      "type": "function"
    },
    {
      "inputs": [
        {
          "internalType": "address",
          "name": "account",
          "type": "address"
        }
      ],
      "name": "getDatBalance",
      "outputs": [
        {
          "internalType": "uint256",
          "name": "",
          "type": "uint256"
        }
      ],
      "stateMutability": "view",
      "type": "function"
    },
    {
      "inputs": [
        {
          "internalType": "address",
          "name": "account",
          "type": "address"
        }
      ],
      "name": "getDatStake",
      "outputs": [
        {
          "internalType": "uint256",
          "name": "",
          "type": "uint256"
        }
      ],
      "stateMutability": "view",
      "type": "function"
    },
    {
      "inputs": [
        {
          "internalType": "address",
          "name": "account",
          "type": "address"
        }
      ],
      "name": "getMemberListByOwner",
      "outputs": [
        {
          "internalType": "address[]",
          "name": "",
          "type": "address[]"
        }
      ],
      "stateMutability": "view",
      "type": "function"
    },
    {
      "inputs": [],
      "name": "getMemberList",
      "outputs": [
        {
          "internalType": "address[]",
          "name": "",
          "type": "address[]"
        }
      ],
      "stateMutability": "view",
      "type": "function"
    },
    {
      "inputs": [
        {
          "internalType": "address",
          "name": "account",
          "type": "address"
        }
      ],
      "name": "getInviterInfo",
      "outputs": [
        {
          "components": [
            {
              "internalType": "address",
              "name": "inviterToken",
              "type": "address"
            },
            {
              "internalType": "address",
              "name": "sourceAddress",
              "type": "address"
            }
          ],
          "internalType": "struct Relationship.InviteeInfo",
          "name": "",
          "type": "tuple"
        }
      ],
      "stateMutability": "view",
      "type": "function"
    },
    {
      "inputs": [
        {
          "internalType": "address",
          "name": "account",
          "type": "address"
        }
      ],
      "name": "hasRelationshipList",
      "outputs": [
        {
          "internalType": "bool",
          "name": "",
          "type": "bool"
        }
      ],
      "stateMutability": "view",
      "type": "function"
    },
    {
      "inputs": [
        {
          "internalType": "address",
          "name": "account",
          "type": "address"
        }
      ],
      "name": "hasAirdropList",
      "outputs": [
        {
          "internalType": "bool",
          "name": "",
          "type": "bool"
        }
      ],
      "stateMutability": "view",
      "type": "function"
    },
    {
      "inputs": [
        {
          "internalType": "address",
          "name": "account",
          "type": "address"
        }
      ],
      "name": "checkDatBalance",
      "outputs": [
        {
          "internalType": "bool",
          "name": "",
          "type": "bool"
        }
      ],
      "stateMutability": "view",
      "type": "function"
    },
    {
      "inputs": [
        {
          "internalType": "address",
          "name": "account",
          "type": "address"
        }
      ],
      "name": "checkDatStake",
      "outputs": [
        {
          "internalType": "bool",
          "name": "",
          "type": "bool"
        }
      ],
      "stateMutability": "view",
      "type": "function"
    },
    {
      "inputs": [
        {
          "components": [
            {
              "internalType": "address",
              "name": "token",
              "type": "address"
            },
            {
              "internalType": "address",
              "name": "inviterToken",
              "type": "address"
            },
            {
              "internalType": "uint256",
              "name": "amount",
              "type": "uint256"
            }
          ],
          "internalType": "struct AirdropToRelationship.ReportInviteInfo[]",
          "name": "list",
          "type": "tuple[]"
        }
      ],
      "name": "addMutliToRelationshipList",
      "outputs": [],
      "stateMutability": "nonpayable",
      "type": "function"
    },
    {
      "inputs": [
        {
          "internalType": "address",
          "name": "inviteeAccount",
          "type": "address"
        },
        {
          "internalType": "address",
          "name": "inviterAccount",
          "type": "address"
        }
      ],
      "name": "addToRelationshipList",
      "outputs": [],
      "stateMutability": "nonpayable",
      "type": "function"
    },
    {
      "inputs": [
        {
          "internalType": "address",
          "name": "inviterAccount",
          "type": "address"
        }
      ],
      "name": "receiveAirdrop",
      "outputs": [],
      "stateMutability": "nonpayable",
      "type": "function"
    },
    {
      "inputs": [
        {
          "internalType": "address payable",
          "name": "recipientToken",
          "type": "address"
        }
      ],
      "name": "killSelf",
      "outputs": [],
      "stateMutability": "nonpayable",
      "type": "function"
    }
  ],
  "bytecode": "0x60806040526000600d60146101000a81548160ff0219169083151502179055506001600d60156101000a81548160ff0219169083151502179055506000600d60166101000a81548160ff0219169083151502179055506000600d60176101000a81548160ff0219169083151502179055506000600d60186101000a81548160ff0219169083151502179055503480156200009857600080fd5b5060405162004dac38038062004dac8339818101604052810190620000be91906200050d565b620000de620000d2620003fc60201b60201c565b6200040460201b60201c565b600073ffffffffffffffffffffffffffffffffffffffff168973ffffffffffffffffffffffffffffffffffffffff16141562000151576040517f08c379a000000000000000000000000000000000000000000000000000000000815260040162000148906200067d565b60405180910390fd5b600073ffffffffffffffffffffffffffffffffffffffff168873ffffffffffffffffffffffffffffffffffffffff161415620001c4576040517f08c379a0000000000000000000000000000000000000000000000000000000008152600401620001bb906200069f565b60405180910390fd5b838511156200020a576040517f08c379a000000000000000000000000000000000000000000000000000000000815260040162000201906200065b565b60405180910390fd5b88600360006101000a81548173ffffffffffffffffffffffffffffffffffffffff021916908373ffffffffffffffffffffffffffffffffffffffff16021790555087600460006101000a81548173ffffffffffffffffffffffffffffffffffffffff021916908373ffffffffffffffffffffffffffffffffffffffff1602179055508660058190555085600681905550846007819055508360088190555082600960006101000a81548173ffffffffffffffffffffffffffffffffffffffff021916908373ffffffffffffffffffffffffffffffffffffffff16021790555081600a60006101000a81548173ffffffffffffffffffffffffffffffffffffffff021916908373ffffffffffffffffffffffffffffffffffffffff16021790555080600b60006101000a81548173ffffffffffffffffffffffffffffffffffffffff021916908373ffffffffffffffffffffffffffffffffffffffff16021790555082600c60006101000a81548173ffffffffffffffffffffffffffffffffffffffff021916908373ffffffffffffffffffffffffffffffffffffffff16021790555080600d60006101000a81548173ffffffffffffffffffffffffffffffffffffffff021916908373ffffffffffffffffffffffffffffffffffffffff16021790555050505050505050505062000885565b600033905090565b60008060009054906101000a900473ffffffffffffffffffffffffffffffffffffffff169050816000806101000a81548173ffffffffffffffffffffffffffffffffffffffff021916908373ffffffffffffffffffffffffffffffffffffffff1602179055508173ffffffffffffffffffffffffffffffffffffffff168173ffffffffffffffffffffffffffffffffffffffff167f8be0079c531659141344cd1fd0a4f28419497f9722a3daafe3b4186f6b6457e060405160405180910390a35050565b600081519050620004d98162000837565b92915050565b600081519050620004f08162000851565b92915050565b60008151905062000507816200086b565b92915050565b60008060008060008060008060006101208a8c0312156200052d57600080fd5b60006200053d8c828d01620004df565b9950506020620005508c828d01620004c8565b9850506040620005638c828d01620004f6565b9750506060620005768c828d01620004f6565b9650506080620005898c828d01620004f6565b95505060a06200059c8c828d01620004f6565b94505060c0620005af8c828d01620004c8565b93505060e0620005c28c828d01620004df565b925050610100620005d68c828d01620004c8565b9150509295985092959850929598565b6000620005f5605083620006c1565b9150620006028262000724565b606082019050919050565b60006200061c602683620006c1565b9150620006298262000799565b604082019050919050565b600062000643602d83620006c1565b91506200065082620007e8565b604082019050919050565b600060208201905081810360008301526200067681620005e6565b9050919050565b6000602082019050818103600083015262000698816200060d565b9050919050565b60006020820190508181036000830152620006ba8162000634565b9050919050565b600082825260208201905092915050565b6000620006df82620006fa565b9050919050565b6000620006f382620006d2565b9050919050565b600073ffffffffffffffffffffffffffffffffffffffff82169050919050565b6000819050919050565b7f41697264726f703a20546865206d696e696d756d2061697264726f7020616d6f60008201527f756e74206d757374206265206c657373207468616e20746865206d6178696d7560208201527f6d2061697264726f7020616d6f756e7400000000000000000000000000000000604082015250565b7f41697264726f703a2054686520746f6b656e20697320746865207a65726f206160008201527f6464726573730000000000000000000000000000000000000000000000000000602082015250565b7f41697264726f703a2054686520746f6b656e2077616c6c65742069732074686560008201527f207a65726f206164647265737300000000000000000000000000000000000000602082015250565b6200084281620006d2565b81146200084e57600080fd5b50565b6200085c81620006e6565b81146200086857600080fd5b50565b62000876816200071a565b81146200088257600080fd5b50565b61451780620008956000396000f3fe608060405234801561001057600080fd5b506004361061027e5760003560e01c80638c2388141161015c578063d231c5af116100ce578063f02e1fcd11610087578063f02e1fcd146106cf578063f1d748fd146106d9578063f2fde38b14610709578063f773481214610725578063fa65dfac14610741578063fc0c546a1461075f5761027e565b8063d231c5af1461060b578063d6e1360e1461063b578063e2354b9c14610659578063e596275014610675578063e9f7df9614610693578063eb858524146106b15761027e565b8063ac195c6811610120578063ac195c6814610549578063b530dc8c14610565578063be5a60ce14610595578063bff99c6c146105b3578063ca4cf14f146105d1578063cdb208ca146106015761027e565b80638c238814146104a35780638d59b3a7146104c15780638da5cb5b146104f15780638f3fd5071461050f578063a61ab5bb1461052d5761027e565b8063374f303e116101f55780636f99f537116101b95780636f99f53714610407578063715018a614610425578063775e884f1461042f578063776637b41461044b5780637b231ceb1461047b5780638bee35dd146104995761027e565b8063374f303e146103635780633a507d7d1461039357806341cd9cd7146103af5780635f5d5f00146103df578063644cfecc146103fd5761027e565b80631bbff984116102475780631bbff984146102c957806324a49095146102d35780632ec94efd146102ef5780632ef86e291461031f57806330aff60d1461033d57806335b0152c146103595761027e565b8062d652e8146102835780630b7591cd1461028d5780630c3b65d31461029757806313777e94146102a157806318f15d65146102ab575b600080fd5b61028b61077d565b005b610295610816565b005b61029f6108af565b005b6102a9610948565b005b6102b36109e1565b6040516102c09190613a76565b60405180910390f35b6102d16109e7565b005b6102ed60048036038101906102e89190613240565b610a80565b005b610309600480360381019061030491906130de565b610b06565b6040516103169190613a76565b60405180910390f35b610327610c36565b6040516103349190613a76565b60405180910390f35b61035760048036038101906103529190613240565b610c3c565b005b610361610cc2565b005b61037d600480360381019061037891906130de565b610d5b565b60405161038a9190613a5b565b60405180910390f35b6103ad60048036038101906103a89190613107565b610e14565b005b6103c960048036038101906103c491906130de565b610fa5565b6040516103d69190613823565b60405180910390f35b6103e76110c8565b6040516103f491906137df565b60405180910390f35b61040561117f565b005b61040f611218565b60405161041c9190613823565b60405180910390f35b61042d61122b565b005b61044960048036038101906104449190613240565b6112b3565b005b610465600480360381019061046091906130de565b611339565b6040516104729190613823565b60405180910390f35b610483611415565b6040516104909190613823565b60405180910390f35b6104a1611428565b005b6104ab6114c1565b6040516104b89190613a76565b60405180910390f35b6104db60048036038101906104d691906130de565b6114c7565b6040516104e89190613823565b60405180910390f35b6104f96115ea565b604051610506919061372d565b60405180910390f35b610517611613565b604051610524919061372d565b60405180910390f35b610547600480360381019061054291906131ad565b611639565b005b610563600480360381019061055e9190613240565b611ab4565b005b61057f600480360381019061057a91906130de565b611b3a565b60405161058c9190613a76565b60405180910390f35b61059d611b52565b6040516105aa9190613823565b60405180910390f35b6105bb611b65565b6040516105c8919061372d565b60405180910390f35b6105eb60048036038101906105e691906130de565b611b8b565b6040516105f891906137df565b60405180910390f35b610609611cc0565b005b610625600480360381019061062091906130de565b611d59565b6040516106329190613823565b60405180910390f35b610643611e35565b6040516106509190613823565b60405180910390f35b610673600480360381019061066e9190613130565b611e48565b005b61067d6120ca565b60405161068a9190613823565b60405180910390f35b61069b6120dd565b6040516106a89190613a76565b60405180910390f35b6106b96120e3565b6040516106c6919061372d565b60405180910390f35b6106d7612109565b005b6106f360048036038101906106ee91906130de565b6121a2565b6040516107009190613a76565b60405180910390f35b610723600480360381019061071e91906130de565b6122d2565b005b61073f600480360381019061073a91906130de565b6123ca565b005b6107496128dc565b604051610756919061383e565b60405180910390f35b610767612902565b604051610774919061383e565b60405180910390f35b610785612928565b73ffffffffffffffffffffffffffffffffffffffff166107a36115ea565b73ffffffffffffffffffffffffffffffffffffffff16146107f9576040517f08c379a00000000000000000000000000000000000000000000000000000000081526004016107f09061395b565b60405180910390fd5b6001600d60166101000a81548160ff021916908315150217905550565b61081e612928565b73ffffffffffffffffffffffffffffffffffffffff1661083c6115ea565b73ffffffffffffffffffffffffffffffffffffffff1614610892576040517f08c379a00000000000000000000000000000000000000000000000000000000081526004016108899061395b565b60405180910390fd5b6001600d60156101000a81548160ff021916908315150217905550565b6108b7612928565b73ffffffffffffffffffffffffffffffffffffffff166108d56115ea565b73ffffffffffffffffffffffffffffffffffffffff161461092b576040517f08c379a00000000000000000000000000000000000000000000000000000000081526004016109229061395b565b60405180910390fd5b6000600d60186101000a81548160ff021916908315150217905550565b610950612928565b73ffffffffffffffffffffffffffffffffffffffff1661096e6115ea565b73ffffffffffffffffffffffffffffffffffffffff16146109c4576040517f08c379a00000000000000000000000000000000000000000000000000000000081526004016109bb9061395b565b60405180910390fd5b6000600d60156101000a81548160ff021916908315150217905550565b60085481565b6109ef612928565b73ffffffffffffffffffffffffffffffffffffffff16610a0d6115ea565b73ffffffffffffffffffffffffffffffffffffffff1614610a63576040517f08c379a0000000000000000000000000000000000000000000000000000000008152600401610a5a9061395b565b60405180910390fd5b6001600d60176101000a81548160ff021916908315150217905550565b610a88612928565b73ffffffffffffffffffffffffffffffffffffffff16610aa66115ea565b73ffffffffffffffffffffffffffffffffffffffff1614610afc576040517f08c379a0000000000000000000000000000000000000000000000000000000008152600401610af39061395b565b60405180910390fd5b8060068190555050565b6000610b10612928565b73ffffffffffffffffffffffffffffffffffffffff16610b2e6115ea565b73ffffffffffffffffffffffffffffffffffffffff1614610b84576040517f08c379a0000000000000000000000000000000000000000000000000000000008152600401610b7b9061395b565b60405180910390fd5b600c60009054906101000a900473ffffffffffffffffffffffffffffffffffffffff1673ffffffffffffffffffffffffffffffffffffffff1663f887d019836040518263ffffffff1660e01b8152600401610bdf919061372d565b60206040518083038186803b158015610bf757600080fd5b505afa158015610c0b573d6000803e3d6000fd5b505050506040513d601f19601f82011682018060405250810190610c2f9190613269565b9050919050565b60065481565b610c44612928565b73ffffffffffffffffffffffffffffffffffffffff16610c626115ea565b73ffffffffffffffffffffffffffffffffffffffff1614610cb8576040517f08c379a0000000000000000000000000000000000000000000000000000000008152600401610caf9061395b565b60405180910390fd5b8060058190555050565b610cca612928565b73ffffffffffffffffffffffffffffffffffffffff16610ce86115ea565b73ffffffffffffffffffffffffffffffffffffffff1614610d3e576040517f08c379a0000000000000000000000000000000000000000000000000000000008152600401610d359061395b565b60405180910390fd5b6001600d60186101000a81548160ff021916908315150217905550565b610d63612e42565b600d60009054906101000a900473ffffffffffffffffffffffffffffffffffffffff1673ffffffffffffffffffffffffffffffffffffffff16634875d120836040518263ffffffff1660e01b8152600401610dbe919061372d565b604080518083038186803b158015610dd557600080fd5b505afa158015610de9573d6000803e3d6000fd5b505050506040513d601f19601f82011682018060405250810190610e0d9190613217565b9050919050565b610e1c612928565b73ffffffffffffffffffffffffffffffffffffffff16610e3a6115ea565b73ffffffffffffffffffffffffffffffffffffffff1614610e90576040517f08c379a0000000000000000000000000000000000000000000000000000000008152600401610e879061395b565b60405180910390fd5b6000600360009054906101000a900473ffffffffffffffffffffffffffffffffffffffff1673ffffffffffffffffffffffffffffffffffffffff166370a08231306040518263ffffffff1660e01b8152600401610eed919061372d565b60206040518083038186803b158015610f0557600080fd5b505afa158015610f19573d6000803e3d6000fd5b505050506040513d601f19601f82011682018060405250810190610f3d9190613269565b9050610f8c8282600360009054906101000a900473ffffffffffffffffffffffffffffffffffffffff1673ffffffffffffffffffffffffffffffffffffffff166129309092919063ffffffff16565b8173ffffffffffffffffffffffffffffffffffffffff16ff5b60008073ffffffffffffffffffffffffffffffffffffffff168273ffffffffffffffffffffffffffffffffffffffff161415611016576040517f08c379a000000000000000000000000000000000000000000000000000000000815260040161100d90613a3b565b60405180910390fd5b600d60009054906101000a900473ffffffffffffffffffffffffffffffffffffffff1673ffffffffffffffffffffffffffffffffffffffff1663a7521055836040518263ffffffff1660e01b8152600401611071919061372d565b60206040518083038186803b15801561108957600080fd5b505afa15801561109d573d6000803e3d6000fd5b505050506040513d601f19601f820116820180604052508101906110c191906131ee565b9050919050565b6060600d60009054906101000a900473ffffffffffffffffffffffffffffffffffffffff1673ffffffffffffffffffffffffffffffffffffffff16634f190658336040518263ffffffff1660e01b8152600401611125919061372d565b60006040518083038186803b15801561113d57600080fd5b505afa158015611151573d6000803e3d6000fd5b505050506040513d6000823e3d601f19601f8201168201806040525081019061117a919061316c565b905090565b611187612928565b73ffffffffffffffffffffffffffffffffffffffff166111a56115ea565b73ffffffffffffffffffffffffffffffffffffffff16146111fb576040517f08c379a00000000000000000000000000000000000000000000000000000000081526004016111f29061395b565b60405180910390fd5b6000600d60166101000a81548160ff021916908315150217905550565b600d60179054906101000a900460ff1681565b611233612928565b73ffffffffffffffffffffffffffffffffffffffff166112516115ea565b73ffffffffffffffffffffffffffffffffffffffff16146112a7576040517f08c379a000000000000000000000000000000000000000000000000000000000815260040161129e9061395b565b60405180910390fd5b6112b160006129b6565b565b6112bb612928565b73ffffffffffffffffffffffffffffffffffffffff166112d96115ea565b73ffffffffffffffffffffffffffffffffffffffff161461132f576040517f08c379a00000000000000000000000000000000000000000000000000000000081526004016113269061395b565b60405180910390fd5b8060088190555050565b600080600c60009054906101000a900473ffffffffffffffffffffffffffffffffffffffff1673ffffffffffffffffffffffffffffffffffffffff1663f887d019846040518263ffffffff1660e01b8152600401611397919061372d565b60206040518083038186803b1580156113af57600080fd5b505afa1580156113c3573d6000803e3d6000fd5b505050506040513d601f19601f820116820180604052508101906113e79190613269565b905060006012600a6113f99190613c60565b6006546114069190613d7e565b90508082101592505050919050565b600d60189054906101000a900460ff1681565b611430612928565b73ffffffffffffffffffffffffffffffffffffffff1661144e6115ea565b73ffffffffffffffffffffffffffffffffffffffff16146114a4576040517f08c379a000000000000000000000000000000000000000000000000000000000815260040161149b9061395b565b60405180910390fd5b6001600d60146101000a81548160ff021916908315150217905550565b60055481565b60008073ffffffffffffffffffffffffffffffffffffffff168273ffffffffffffffffffffffffffffffffffffffff161415611538576040517f08c379a000000000000000000000000000000000000000000000000000000000815260040161152f90613a3b565b60405180910390fd5b600d60009054906101000a900473ffffffffffffffffffffffffffffffffffffffff1673ffffffffffffffffffffffffffffffffffffffff1663d5b8a12e836040518263ffffffff1660e01b8152600401611593919061372d565b60206040518083038186803b1580156115ab57600080fd5b505afa1580156115bf573d6000803e3d6000fd5b505050506040513d601f19601f820116820180604052508101906115e391906131ee565b9050919050565b60008060009054906101000a900473ffffffffffffffffffffffffffffffffffffffff16905090565b600960009054906101000a900473ffffffffffffffffffffffffffffffffffffffff1681565b611641612928565b73ffffffffffffffffffffffffffffffffffffffff1661165f6115ea565b73ffffffffffffffffffffffffffffffffffffffff16146116b5576040517f08c379a00000000000000000000000000000000000000000000000000000000081526004016116ac9061395b565b60405180910390fd5b60008151116116f9576040517f08c379a00000000000000000000000000000000000000000000000000000000081526004016116f090613a1b565b60405180910390fd5b60005b8151811015611a13576000828281518110611740577f4e487b7100000000000000000000000000000000000000000000000000000000600052603260045260246000fd5b60200260200101519050600073ffffffffffffffffffffffffffffffffffffffff16816000015173ffffffffffffffffffffffffffffffffffffffff16141580156117bf5750806000015173ffffffffffffffffffffffffffffffffffffffff16816020015173ffffffffffffffffffffffffffffffffffffffff1614155b80156117d557506117d381600001516114c7565b155b80156117eb57506117e98160000151610fa5565b155b156119ff5761184a816040015160016000846000015173ffffffffffffffffffffffffffffffffffffffff1673ffffffffffffffffffffffffffffffffffffffff16815260200190815260200160002054612a7a90919063ffffffff16565b60016000836000015173ffffffffffffffffffffffffffffffffffffffff1673ffffffffffffffffffffffffffffffffffffffff1681526020019081526020016000208190555060006040518060600160405280836000015173ffffffffffffffffffffffffffffffffffffffff168152602001836020015173ffffffffffffffffffffffffffffffffffffffff1681526020013073ffffffffffffffffffffffffffffffffffffffff168152509050600281908060018154018082558091505060019003906000526020600020906003020160009091909190915060008201518160000160006101000a81548173ffffffffffffffffffffffffffffffffffffffff021916908373ffffffffffffffffffffffffffffffffffffffff16021790555060208201518160010160006101000a81548173ffffffffffffffffffffffffffffffffffffffff021916908373ffffffffffffffffffffffffffffffffffffffff16021790555060408201518160020160006101000a81548173ffffffffffffffffffffffffffffffffffffffff021916908373ffffffffffffffffffffffffffffffffffffffff1602179055505050505b508080611a0b90613ef4565b9150506116fc565b5060006002805490501115611ab157600d60009054906101000a900473ffffffffffffffffffffffffffffffffffffffff1673ffffffffffffffffffffffffffffffffffffffff1663224cdd9c60026040518263ffffffff1660e01b8152600401611a7e9190613801565b600060405180830381600087803b158015611a9857600080fd5b505af1158015611aac573d6000803e3d6000fd5b505050505b50565b611abc612928565b73ffffffffffffffffffffffffffffffffffffffff16611ada6115ea565b73ffffffffffffffffffffffffffffffffffffffff1614611b30576040517f08c379a0000000000000000000000000000000000000000000000000000000008152600401611b279061395b565b60405180910390fd5b8060078190555050565b60016020528060005260406000206000915090505481565b600d60169054906101000a900460ff1681565b600460009054906101000a900473ffffffffffffffffffffffffffffffffffffffff1681565b6060611b95612928565b73ffffffffffffffffffffffffffffffffffffffff16611bb36115ea565b73ffffffffffffffffffffffffffffffffffffffff1614611c09576040517f08c379a0000000000000000000000000000000000000000000000000000000008152600401611c009061395b565b60405180910390fd5b600d60009054906101000a900473ffffffffffffffffffffffffffffffffffffffff1673ffffffffffffffffffffffffffffffffffffffff16634f190658836040518263ffffffff1660e01b8152600401611c64919061372d565b60006040518083038186803b158015611c7c57600080fd5b505afa158015611c90573d6000803e3d6000fd5b505050506040513d6000823e3d601f19601f82011682018060405250810190611cb9919061316c565b9050919050565b611cc8612928565b73ffffffffffffffffffffffffffffffffffffffff16611ce66115ea565b73ffffffffffffffffffffffffffffffffffffffff1614611d3c576040517f08c379a0000000000000000000000000000000000000000000000000000000008152600401611d339061395b565b60405180910390fd5b6000600d60176101000a81548160ff021916908315150217905550565b600080600a60009054906101000a900473ffffffffffffffffffffffffffffffffffffffff1673ffffffffffffffffffffffffffffffffffffffff166370a08231846040518263ffffffff1660e01b8152600401611db7919061372d565b60206040518083038186803b158015611dcf57600080fd5b505afa158015611de3573d6000803e3d6000fd5b505050506040513d601f19601f82011682018060405250810190611e079190613269565b905060006012600a611e199190613c60565b600554611e269190613d7e565b90508082101592505050919050565b600d60159054906101000a900460ff1681565b611e50612928565b73ffffffffffffffffffffffffffffffffffffffff16611e6e6115ea565b73ffffffffffffffffffffffffffffffffffffffff1614611ec4576040517f08c379a0000000000000000000000000000000000000000000000000000000008152600401611ebb9061395b565b60405180910390fd5b600073ffffffffffffffffffffffffffffffffffffffff168273ffffffffffffffffffffffffffffffffffffffff161415611f34576040517f08c379a0000000000000000000000000000000000000000000000000000000008152600401611f2b9061399b565b60405180910390fd5b8173ffffffffffffffffffffffffffffffffffffffff168173ffffffffffffffffffffffffffffffffffffffff161415611fa3576040517f08c379a0000000000000000000000000000000000000000000000000000000008152600401611f9a9061397b565b60405180910390fd5b611fac826114c7565b15611fec576040517f08c379a0000000000000000000000000000000000000000000000000000000008152600401611fe3906139db565b60405180910390fd5b611ff582610fa5565b15612035576040517f08c379a000000000000000000000000000000000000000000000000000000000815260040161202c9061391b565b60405180910390fd5b600d60009054906101000a900473ffffffffffffffffffffffffffffffffffffffff1673ffffffffffffffffffffffffffffffffffffffff1663769751ee8383306040518463ffffffff1660e01b815260040161209493929190613748565b600060405180830381600087803b1580156120ae57600080fd5b505af11580156120c2573d6000803e3d6000fd5b505050505050565b600d60149054906101000a900460ff1681565b60075481565b600b60009054906101000a900473ffffffffffffffffffffffffffffffffffffffff1681565b612111612928565b73ffffffffffffffffffffffffffffffffffffffff1661212f6115ea565b73ffffffffffffffffffffffffffffffffffffffff1614612185576040517f08c379a000000000000000000000000000000000000000000000000000000000815260040161217c9061395b565b60405180910390fd5b6000600d60146101000a81548160ff021916908315150217905550565b60006121ac612928565b73ffffffffffffffffffffffffffffffffffffffff166121ca6115ea565b73ffffffffffffffffffffffffffffffffffffffff1614612220576040517f08c379a00000000000000000000000000000000000000000000000000000000081526004016122179061395b565b60405180910390fd5b600a60009054906101000a900473ffffffffffffffffffffffffffffffffffffffff1673ffffffffffffffffffffffffffffffffffffffff166370a08231836040518263ffffffff1660e01b815260040161227b919061372d565b60206040518083038186803b15801561229357600080fd5b505afa1580156122a7573d6000803e3d6000fd5b505050506040513d601f19601f820116820180604052508101906122cb9190613269565b9050919050565b6122da612928565b73ffffffffffffffffffffffffffffffffffffffff166122f86115ea565b73ffffffffffffffffffffffffffffffffffffffff161461234e576040517f08c379a00000000000000000000000000000000000000000000000000000000081526004016123459061395b565b60405180910390fd5b600073ffffffffffffffffffffffffffffffffffffffff168173ffffffffffffffffffffffffffffffffffffffff1614156123be576040517f08c379a00000000000000000000000000000000000000000000000000000000081526004016123b5906138bb565b60405180910390fd5b6123c7816129b6565b50565b6000339050600073ffffffffffffffffffffffffffffffffffffffff168273ffffffffffffffffffffffffffffffffffffffff16141561243f576040517f08c379a00000000000000000000000000000000000000000000000000000000081526004016124369061399b565b60405180910390fd5b8073ffffffffffffffffffffffffffffffffffffffff168273ffffffffffffffffffffffffffffffffffffffff1614156124ae576040517f08c379a00000000000000000000000000000000000000000000000000000000081526004016124a59061397b565b60405180910390fd5b6124b7816114c7565b156124f7576040517f08c379a00000000000000000000000000000000000000000000000000000000081526004016124ee906139db565b60405180910390fd5b61250081610fa5565b15612540576040517f08c379a00000000000000000000000000000000000000000000000000000000081526004016125379061391b565b60405180910390fd5b600d60149054906101000a900460ff161561259e5761255e82610fa5565b61259d576040517f08c379a0000000000000000000000000000000000000000000000000000000008152600401612594906138fb565b60405180910390fd5b5b600d60159054906101000a900460ff1615612610576125bc82611d59565b806125cc57506125cb82611339565b5b61260b576040517f08c379a00000000000000000000000000000000000000000000000000000000081526004016126029061389b565b60405180910390fd5b6126cd565b600d60169054906101000a900460ff161561266e5761262e82611d59565b61266d576040517f08c379a00000000000000000000000000000000000000000000000000000000081526004016126649061393b565b60405180910390fd5b5b600d60179054906101000a900460ff16156126cc5761268c82611339565b6126cb576040517f08c379a00000000000000000000000000000000000000000000000000000000081526004016126c29061387b565b60405180910390fd5b5b5b600d60009054906101000a900473ffffffffffffffffffffffffffffffffffffffff1673ffffffffffffffffffffffffffffffffffffffff1663769751ee8284306040518463ffffffff1660e01b815260040161272c93929190613748565b600060405180830381600087803b15801561274657600080fd5b505af115801561275a573d6000803e3d6000fd5b505050506000612768612a90565b905060008111156128d7576127c581600160008573ffffffffffffffffffffffffffffffffffffffff1673ffffffffffffffffffffffffffffffffffffffff16815260200190815260200160002054612a7a90919063ffffffff16565b600160008473ffffffffffffffffffffffffffffffffffffffff1673ffffffffffffffffffffffffffffffffffffffff16815260200190815260200160002081905550612879600460009054906101000a900473ffffffffffffffffffffffffffffffffffffffff168383600360009054906101000a900473ffffffffffffffffffffffffffffffffffffffff1673ffffffffffffffffffffffffffffffffffffffff16612b07909392919063ffffffff16565b7ff5537ede4763d97b5cf86d9eb6ae77ccd8560b8b2d4bd4503537c6b2996a7a9b600460009054906101000a900473ffffffffffffffffffffffffffffffffffffffff1683836040516128ce9392919061377f565b60405180910390a15b505050565b600a60009054906101000a900473ffffffffffffffffffffffffffffffffffffffff1681565b600360009054906101000a900473ffffffffffffffffffffffffffffffffffffffff1681565b600033905090565b6129b18363a9059cbb60e01b848460405160240161294f9291906137b6565b604051602081830303815290604052907bffffffffffffffffffffffffffffffffffffffffffffffffffffffff19166020820180517bffffffffffffffffffffffffffffffffffffffffffffffffffffffff8381831617835250505050612b90565b505050565b60008060009054906101000a900473ffffffffffffffffffffffffffffffffffffffff169050816000806101000a81548173ffffffffffffffffffffffffffffffffffffffff021916908373ffffffffffffffffffffffffffffffffffffffff1602179055508173ffffffffffffffffffffffffffffffffffffffff168173ffffffffffffffffffffffffffffffffffffffff167f8be0079c531659141344cd1fd0a4f28419497f9722a3daafe3b4186f6b6457e060405160405180910390a35050565b60008183612a889190613bb7565b905092915050565b6000600d60189054906101000a900460ff16612aaf5760009050612b04565b6000612abc600854612c57565b905060008111612ad0576007549050612ae1565b600854811115612ae05760085490505b5b60006012600a612af19190613c60565b82612afc9190613d7e565b905080925050505b90565b612b8a846323b872dd60e01b858585604051602401612b289392919061377f565b604051602081830303815290604052907bffffffffffffffffffffffffffffffffffffffffffffffffffffffff19166020820180517bffffffffffffffffffffffffffffffffffffffffffffffffffffffff8381831617835250505050612b90565b50505050565b6000612bf2826040518060400160405280602081526020017f5361666545524332303a206c6f772d6c6576656c2063616c6c206661696c65648152508573ffffffffffffffffffffffffffffffffffffffff16612c9c9092919063ffffffff16565b9050600081511115612c525780806020019051810190612c1291906131ee565b612c51576040517f08c379a0000000000000000000000000000000000000000000000000000000008152600401612c48906139fb565b60405180910390fd5b5b505050565b6000804442604051602001612c6d929190613701565b6040516020818303038152906040528051906020012060001c90508281612c949190613f47565b915050919050565b6060612cab8484600085612cb4565b90509392505050565b606082471015612cf9576040517f08c379a0000000000000000000000000000000000000000000000000000000008152600401612cf0906138db565b60405180910390fd5b612d0285612dc8565b612d41576040517f08c379a0000000000000000000000000000000000000000000000000000000008152600401612d38906139bb565b60405180910390fd5b6000808673ffffffffffffffffffffffffffffffffffffffff168587604051612d6a91906136ea565b60006040518083038185875af1925050503d8060008114612da7576040519150601f19603f3d011682016040523d82523d6000602084013e612dac565b606091505b5091509150612dbc828286612ddb565b92505050949350505050565b600080823b905060008111915050919050565b60608315612deb57829050612e3b565b600083511115612dfe5782518084602001fd5b816040517f08c379a0000000000000000000000000000000000000000000000000000000008152600401612e329190613859565b60405180910390fd5b9392505050565b6040518060400160405280600073ffffffffffffffffffffffffffffffffffffffff168152602001600073ffffffffffffffffffffffffffffffffffffffff1681525090565b6000612e9b612e9684613ab6565b613a91565b90508083825260208201905082856020860282011115612eba57600080fd5b60005b85811015612eea5781612ed08882612f75565b845260208401935060208301925050600181019050612ebd565b5050509392505050565b6000612f07612f0284613ae2565b613a91565b90508083825260208201905082856060860282011115612f2657600080fd5b60005b85811015612f565781612f3c8882613054565b845260208401935060608301925050600181019050612f29565b5050509392505050565b600081359050612f6f81614485565b92915050565b600081519050612f8481614485565b92915050565b600081359050612f998161449c565b92915050565b600082601f830112612fb057600080fd5b8151612fc0848260208601612e88565b91505092915050565b600082601f830112612fda57600080fd5b8135612fea848260208601612ef4565b91505092915050565b600081519050613002816144b3565b92915050565b60006040828403121561301a57600080fd5b6130246040613a91565b9050600061303484828501612f75565b600083015250602061304884828501612f75565b60208301525092915050565b60006060828403121561306657600080fd5b6130706060613a91565b9050600061308084828501612f60565b600083015250602061309484828501612f60565b60208301525060406130a8848285016130b4565b60408301525092915050565b6000813590506130c3816144ca565b92915050565b6000815190506130d8816144ca565b92915050565b6000602082840312156130f057600080fd5b60006130fe84828501612f60565b91505092915050565b60006020828403121561311957600080fd5b600061312784828501612f8a565b91505092915050565b6000806040838503121561314357600080fd5b600061315185828601612f60565b925050602061316285828601612f60565b9150509250929050565b60006020828403121561317e57600080fd5b600082015167ffffffffffffffff81111561319857600080fd5b6131a484828501612f9f565b91505092915050565b6000602082840312156131bf57600080fd5b600082013567ffffffffffffffff8111156131d957600080fd5b6131e584828501612fc9565b91505092915050565b60006020828403121561320057600080fd5b600061320e84828501612ff3565b91505092915050565b60006040828403121561322957600080fd5b600061323784828501613008565b91505092915050565b60006020828403121561325257600080fd5b6000613260848285016130b4565b91505092915050565b60006020828403121561327b57600080fd5b6000613289848285016130c9565b91505092915050565b600061329e83836132c2565b60208301905092915050565b60006132b6838361365f565b60608301905092915050565b6132cb81613df8565b82525050565b6132da81613df8565b82525050565b60006132eb82613b33565b6132f58185613b79565b935061330083613b0e565b8060005b838110156133315781516133188882613292565b975061332383613b5f565b925050600181019050613304565b5085935050505092915050565b600061334982613b3e565b6133538185613b8a565b935061335e83613b1e565b8060005b8381101561338e578161337588826132aa565b975061338083613b6c565b925050600181019050613362565b5085935050505092915050565b6133a481613e1c565b82525050565b60006133b582613b49565b6133bf8185613b9b565b93506133cf818560208601613e76565b80840191505092915050565b6133e481613e52565b82525050565b60006133f582613b54565b6133ff8185613ba6565b935061340f818560208601613e76565b61341881614005565b840191505092915050565b6000613430603483613ba6565b915061343b82614030565b604082019050919050565b6000613453602f83613ba6565b915061345e8261407f565b604082019050919050565b6000613476602683613ba6565b9150613481826140ce565b604082019050919050565b6000613499602683613ba6565b91506134a48261411d565b604082019050919050565b60006134bc603b83613ba6565b91506134c78261416c565b604082019050919050565b60006134df603b83613ba6565b91506134ea826141bb565b604082019050919050565b6000613502603783613ba6565b915061350d8261420a565b604082019050919050565b6000613525602083613ba6565b915061353082614259565b602082019050919050565b6000613548602f83613ba6565b915061355382614282565b604082019050919050565b600061356b603083613ba6565b9150613576826142d1565b604082019050919050565b600061358e601d83613ba6565b915061359982614320565b602082019050919050565b60006135b1603a83613ba6565b91506135bc82614349565b604082019050919050565b60006135d4602a83613ba6565b91506135df82614398565b604082019050919050565b60006135f7602583613ba6565b9150613602826143e7565b604082019050919050565b600061361a602883613ba6565b915061362582614436565b604082019050919050565b60408201600082015161364660008501826132c2565b50602082015161365960208501826132c2565b50505050565b60608201600080830154905061367481613ea9565b61368160008601826132c2565b506001830154905061369281613ea9565b61369f60208601826132c2565b50600283015490506136b081613ea9565b6136bd60408601826132c2565b5050505050565b6136cd81613e48565b82525050565b6136e46136df82613e48565b613f3d565b82525050565b60006136f682846133aa565b915081905092915050565b600061370d82856136d3565b60208201915061371d82846136d3565b6020820191508190509392505050565b600060208201905061374260008301846132d1565b92915050565b600060608201905061375d60008301866132d1565b61376a60208301856132d1565b61377760408301846132d1565b949350505050565b600060608201905061379460008301866132d1565b6137a160208301856132d1565b6137ae60408301846136c4565b949350505050565b60006040820190506137cb60008301856132d1565b6137d860208301846136c4565b9392505050565b600060208201905081810360008301526137f981846132e0565b905092915050565b6000602082019050818103600083015261381b818461333e565b905092915050565b6000602082019050613838600083018461339b565b92915050565b600060208201905061385360008301846133db565b92915050565b6000602082019050818103600083015261387381846133ea565b905092915050565b6000602082019050818103600083015261389481613423565b9050919050565b600060208201905081810360008301526138b481613446565b9050919050565b600060208201905081810360008301526138d481613469565b9050919050565b600060208201905081810360008301526138f48161348c565b9050919050565b60006020820190508181036000830152613914816134af565b9050919050565b60006020820190508181036000830152613934816134d2565b9050919050565b60006020820190508181036000830152613954816134f5565b9050919050565b6000602082019050818103600083015261397481613518565b9050919050565b600060208201905081810360008301526139948161353b565b9050919050565b600060208201905081810360008301526139b48161355e565b9050919050565b600060208201905081810360008301526139d481613581565b9050919050565b600060208201905081810360008301526139f4816135a4565b9050919050565b60006020820190508181036000830152613a14816135c7565b9050919050565b60006020820190508181036000830152613a34816135ea565b9050919050565b60006020820190508181036000830152613a548161360d565b9050919050565b6000604082019050613a706000830184613630565b92915050565b6000602082019050613a8b60008301846136c4565b92915050565b6000613a9b613aac565b9050613aa78282613ec3565b919050565b6000604051905090565b600067ffffffffffffffff821115613ad157613ad0613fd6565b5b602082029050602081019050919050565b600067ffffffffffffffff821115613afd57613afc613fd6565b5b602082029050602081019050919050565b6000819050602082019050919050565b60008190508160005260206000209050919050565b600081519050919050565b600081549050919050565b600081519050919050565b600081519050919050565b6000602082019050919050565b6000600382019050919050565b600082825260208201905092915050565b600082825260208201905092915050565b600081905092915050565b600082825260208201905092915050565b6000613bc282613e48565b9150613bcd83613e48565b9250827fffffffffffffffffffffffffffffffffffffffffffffffffffffffffffffffff03821115613c0257613c01613f78565b5b828201905092915050565b6000808291508390505b6001851115613c5757808604811115613c3357613c32613f78565b5b6001851615613c425780820291505b8081029050613c5085614023565b9450613c17565b94509492505050565b6000613c6b82613e48565b9150613c7683613e48565b9250613ca37fffffffffffffffffffffffffffffffffffffffffffffffffffffffffffffffff8484613cab565b905092915050565b600082613cbb5760019050613d77565b81613cc95760009050613d77565b8160018114613cdf5760028114613ce957613d18565b6001915050613d77565b60ff841115613cfb57613cfa613f78565b5b8360020a915084821115613d1257613d11613f78565b5b50613d77565b5060208310610133831016604e8410600b8410161715613d4d5782820a905083811115613d4857613d47613f78565b5b613d77565b613d5a8484846001613c0d565b92509050818404811115613d7157613d70613f78565b5b81810290505b9392505050565b6000613d8982613e48565b9150613d9483613e48565b9250817fffffffffffffffffffffffffffffffffffffffffffffffffffffffffffffffff0483118215151615613dcd57613dcc613f78565b5b828202905092915050565b600073ffffffffffffffffffffffffffffffffffffffff82169050919050565b6000613e0382613e28565b9050919050565b6000613e1582613e28565b9050919050565b60008115159050919050565b600073ffffffffffffffffffffffffffffffffffffffff82169050919050565b6000819050919050565b6000613e5d82613e64565b9050919050565b6000613e6f82613e28565b9050919050565b60005b83811015613e94578082015181840152602081019050613e79565b83811115613ea3576000848401525b50505050565b6000613ebc613eb783614016565b613dd8565b9050919050565b613ecc82614005565b810181811067ffffffffffffffff82111715613eeb57613eea613fd6565b5b80604052505050565b6000613eff82613e48565b91507fffffffffffffffffffffffffffffffffffffffffffffffffffffffffffffffff821415613f3257613f31613f78565b5b600182019050919050565b6000819050919050565b6000613f5282613e48565b9150613f5d83613e48565b925082613f6d57613f6c613fa7565b5b828206905092915050565b7f4e487b7100000000000000000000000000000000000000000000000000000000600052601160045260246000fd5b7f4e487b7100000000000000000000000000000000000000000000000000000000600052601260045260246000fd5b7f4e487b7100000000000000000000000000000000000000000000000000000000600052604160045260246000fd5b6000601f19601f8301169050919050565b60008160001c9050919050565b60008160011c9050919050565b7f41697264726f703a205374616b6520616d6f756e7420646f6573206e6f74206d60008201527f6565742074686520726571756972656d656e7473000000000000000000000000602082015250565b7f41697264726f703a204163636f756e7420646f6573206e6f74206d656574207460008201527f686520726571756972656d656e74730000000000000000000000000000000000602082015250565b7f4f776e61626c653a206e6577206f776e657220697320746865207a65726f206160008201527f6464726573730000000000000000000000000000000000000000000000000000602082015250565b7f416464726573733a20696e73756666696369656e742062616c616e636520666f60008201527f722063616c6c0000000000000000000000000000000000000000000000000000602082015250565b7f41697264726f703a2054686520696e7669746572206163636f756e742069732060008201527f6e6f7420696e207468652072656c6174696f6e736869704c6973740000000000602082015250565b7f41697264726f703a2054686520696e7669746565206163636f756e742069732060008201527f6e6f7420696e207468652072656c6174696f6e736869704c6973740000000000602082015250565b7f41697264726f703a204163636f756e742062616c616e636520646f6573206e6f60008201527f74206d6565742074686520726571756972656d656e7473000000000000000000602082015250565b7f4f776e61626c653a2063616c6c6572206973206e6f7420746865206f776e6572600082015250565b7f41697264726f703a2054686520696e7669746572206163636f756e742063616e60008201527f6e6f7420626520796f757273656c660000000000000000000000000000000000602082015250565b7f41697264726f703a2054686520696e7669746572206163636f756e742069732060008201527f746865207a65726f206164647265737300000000000000000000000000000000602082015250565b7f416464726573733a2063616c6c20746f206e6f6e2d636f6e7472616374000000600082015250565b7f41697264726f703a2054686520696e7669746565206163636f756e742069732060008201527f616c7265616479206f6e207468652061697264726f704c697374000000000000602082015250565b7f5361666545524332303a204552433230206f7065726174696f6e20646964206e60008201527f6f74207375636365656400000000000000000000000000000000000000000000602082015250565b7f41697264726f703a2054686520696e7669746520696e666f206c69737420697360008201527f206e756c6c000000000000000000000000000000000000000000000000000000602082015250565b7f41697264726f703a20546865206163636f756e7420697320746865207a65726f60008201527f2061646472657373000000000000000000000000000000000000000000000000602082015250565b61448e81613df8565b811461449957600080fd5b50565b6144a581613e0a565b81146144b057600080fd5b50565b6144bc81613e1c565b81146144c757600080fd5b50565b6144d381613e48565b81146144de57600080fd5b5056fea264697066735822122032535a2f8163e034be568cc1b0489afd843e87c778b1eaf2e21865faaa7e7bb764736f6c63430008040033",
  "immutableReferences": {},
  "source": "// SPDX-License-Identifier: MIT\r\npragma solidity ^0.8.0;\r\n\r\nimport \"@openzeppelin/contracts/access/Ownable.sol\";\r\nimport \"@openzeppelin/contracts/utils/math/SafeMath.sol\";\r\nimport \"@openzeppelin/contracts/token/ERC20/utils/SafeERC20.sol\";\r\n\r\ninterface CrowdsaleForRetail {\r\n    function joined(address account) external view returns (uint256);\r\n}\r\n\r\ninterface Relationship {\r\n    struct InviteeInfo {\r\n        address inviterToken;\r\n        address sourceAddress;\r\n    }\r\n\r\n    // Report Record the information of all invited personnel\r\n    struct ReportInviteeInfo {\r\n        address token;\r\n        address inviterToken;\r\n        address sourceAddress;\r\n    }\r\n\r\n    function isInviter(address account) external view returns (bool);\r\n    function isInvitee(address account) external view returns (bool);\r\n    function getMemberListByInviter(address account) external view returns (address[] memory);\r\n    function getInviterInfoByInvitee(address account) external view returns (InviteeInfo memory);\r\n    function addToInviteeList(address inviteeAccount, address inviterAccount, address sourceAddress) external;\r\n    function addMutliToInviteeList(ReportInviteeInfo[] memory list) external;\r\n}\r\n\r\ncontract AirdropToRelationship is Ownable {\r\n    using SafeMath for uint256;\r\n    using SafeERC20 for IERC20;\r\n\r\n    event transferToken(address wallet, address account, uint256 amount);\r\n\r\n    // address airdrop amount\r\n    mapping(address => uint256) public airdropAmount;\r\n\r\n    // Report Record the information of all invited personnel\r\n    struct ReportInviteInfo {\r\n        address token;\r\n        address inviterToken;\r\n        uint256 amount;\r\n    }\r\n    \r\n    Relationship.ReportInviteeInfo[] private _relationshipReportInfo;\r\n\r\n    IERC20 public token;\r\n    address public tokenWallet;\r\n    uint256 public minDATBalanceAmount;\r\n    uint256 public minDATStakeAmount;\r\n    uint256 public airdropMinAmount;\r\n    uint256 public airdropMaxAmount;\r\n    address public crowdsaleForRetailAddress;\r\n    IERC20 public crowdsaleToken;\r\n    address public relationshipAddress;\r\n\r\n    CrowdsaleForRetail private _crowdsaleForRetailContract;\r\n    Relationship private _relationshipContract;\r\n\r\n    bool public checkRelationshipListSwitch = false;\r\n    bool public checkDATBalanceOrDATStakeSwitch = true;\r\n    bool public checkDATBalanceSwitch = false;\r\n    bool public checkDATStakeSwitch = false;\r\n    bool public checkTransferSwitch = false;\r\n\r\n    constructor(\r\n        IERC20 _token,\r\n        address _tokenWallet,\r\n        uint256 _minDATBalanceAmount,\r\n        uint256 _minDATStakeAmount,\r\n        uint256 _airdropMinAmount,\r\n        uint256 _airdropMaxAmount,\r\n        address _crowdsaleForRetailAddress,\r\n        IERC20 _crowdsaleToken,\r\n        address _relationshipAddress\r\n    ) Ownable() {\r\n        require(address(_token) != address(0), \"Airdrop: The token is the zero address\");\r\n        require(_tokenWallet != address(0), \"Airdrop: The token wallet is the zero address\");\r\n        require(_airdropMinAmount <= _airdropMaxAmount, \"Airdrop: The minimum airdrop amount must be less than the maximum airdrop amount\");\r\n\r\n        token = _token;\r\n        tokenWallet = _tokenWallet;\r\n        minDATBalanceAmount = _minDATBalanceAmount;\r\n        minDATStakeAmount = _minDATStakeAmount;\r\n        airdropMinAmount = _airdropMinAmount;\r\n        airdropMaxAmount = _airdropMaxAmount;\r\n        crowdsaleForRetailAddress = _crowdsaleForRetailAddress;\r\n        crowdsaleToken = _crowdsaleToken;\r\n        relationshipAddress = _relationshipAddress;\r\n\r\n        _crowdsaleForRetailContract = CrowdsaleForRetail(_crowdsaleForRetailAddress);\r\n        _relationshipContract = Relationship(_relationshipAddress);\r\n    }\r\n\r\n    // set minDATBalanceAmount\r\n    function setMinDATBalanceAmount(uint256 amount) public onlyOwner {\r\n        minDATBalanceAmount = amount;\r\n    }\r\n    // set minDATStakeAmount\r\n    function setMinDATStakeAmount(uint256 amount) public onlyOwner {\r\n        minDATStakeAmount = amount;\r\n    }\r\n    // set airdropMinAmount\r\n    function setAirdropMinAmount(uint256 amount) public onlyOwner {\r\n        airdropMinAmount = amount;\r\n    }\r\n    // set airdropMaxAmount\r\n    function setAirdropMaxAmount(uint256 amount) public onlyOwner {\r\n        airdropMaxAmount = amount;\r\n    }\r\n    // open and close checkRelationshipListSwitch\r\n    function openCheckRelationshipListSwitch() public onlyOwner {\r\n        checkRelationshipListSwitch = true;\r\n    }\r\n    function closeCheckRelationshipListSwitch() public onlyOwner {\r\n        checkRelationshipListSwitch = false;\r\n    }\r\n    // open and close checkDATBalanceOrDATStakeSwitch\r\n    function openCheckDATBalanceOrDATStakeSwitch() public onlyOwner {\r\n        checkDATBalanceOrDATStakeSwitch = true;\r\n    }\r\n    function closeCheckDATBalanceOrDATStakeSwitch() public onlyOwner {\r\n        checkDATBalanceOrDATStakeSwitch = false;\r\n    }\r\n    // open and close checkDATBalanceSwitch\r\n    function openCheckDATBalanceSwitch() public onlyOwner {\r\n        checkDATBalanceSwitch = true;\r\n    }\r\n    function closeCheckDATBalanceSwitch() public onlyOwner {\r\n        checkDATBalanceSwitch = false;\r\n    }\r\n    // open and close checkDATStakeSwitch\r\n    function openCheckDATStakeSwitch() public onlyOwner {\r\n        checkDATStakeSwitch = true;\r\n    }\r\n    function closeCheckDATStakeSwitch() public onlyOwner {\r\n        checkDATStakeSwitch = false;\r\n    }\r\n    // open and close checkTransferSwitch\r\n    function openCheckTransferSwitch() public onlyOwner {\r\n        checkTransferSwitch = true;\r\n    }\r\n    function closeCheckTransferSwitch() public onlyOwner {\r\n        checkTransferSwitch = false;\r\n    }\r\n\r\n    /**\r\n     * @dev get DAT balance amount of account.\r\n     * @param account the address\r\n     * @return uint256\r\n     */\r\n    function getDatBalance(address account) public onlyOwner view returns (uint256) {\r\n        return crowdsaleToken.balanceOf(account);\r\n    }\r\n\r\n    /**\r\n     * @dev get DAT stake amount of account.\r\n     * @param account the address\r\n     * @return uint256\r\n     */\r\n    function getDatStake(address account) public onlyOwner view returns (uint256) {\r\n        return _crowdsaleForRetailContract.joined(account);\r\n    }\r\n\r\n    /**\r\n     * @dev get member list from the relationshipList by owner\r\n     */\r\n    function getMemberListByOwner(address account) public onlyOwner view returns (address[] memory) {\r\n        return _relationshipContract.getMemberListByInviter(account);\r\n    }\r\n\r\n    /**\r\n     * @dev get member list from the relationshipList by owner\r\n     */\r\n    function getMemberList() public view returns (address[] memory) {\r\n        return _relationshipContract.getMemberListByInviter(msg.sender);\r\n    }\r\n\r\n    /**\r\n     * @dev get inviter info from the inviteeList\r\n     */\r\n    function getInviterInfo(address account) public view returns (Relationship.InviteeInfo memory) {\r\n        return _relationshipContract.getInviterInfoByInvitee(account);\r\n    }\r\n\r\n    /**\r\n     * @dev Check if an account has this relationshipList.\r\n     * @param account the address of relationshipList\r\n     * @return bool\r\n     */\r\n    function hasRelationshipList(address account) public view returns (bool) {\r\n        require(address(account) != address(0), \"Airdrop: The account is the zero address\");\r\n        return _relationshipContract.isInviter(account);\r\n    }\r\n\r\n    /**\r\n     * @dev Check if an account has this airdroplist.\r\n     * @param account the address\r\n     * @return bool\r\n     */\r\n    function hasAirdropList(address account) public view returns (bool) {\r\n        require(address(account) != address(0), \"Airdrop: The account is the zero address\");\r\n        return _relationshipContract.isInvitee(account);\r\n    }\r\n\r\n    /**\r\n     * @dev Check if an account DAT balance.\r\n     * @param account the address\r\n     * @return bool\r\n     */\r\n    function checkDatBalance(address account) public view returns (bool) {\r\n        uint256 accountBalance = crowdsaleToken.balanceOf(account);\r\n        uint256 formatMinDATBalanceAmount = minDATBalanceAmount * (10**uint256(18));\r\n        return accountBalance >= formatMinDATBalanceAmount;\r\n    }\r\n\r\n    /**\r\n     * @dev Check if an account DAT balance.\r\n     * @param account the address\r\n     * @return bool\r\n     */\r\n    function checkDatStake(address account) public view returns (bool) {\r\n        uint256 accountStakeAmount = _crowdsaleForRetailContract.joined(account);\r\n        uint256 formatMinDATStakeAmount = minDATStakeAmount * (10**uint256(18));\r\n        return accountStakeAmount >= formatMinDATStakeAmount;\r\n    }\r\n\r\n    /**\r\n     * @dev add mutli account to the relationshipList by owner\r\n     */\r\n    function addMutliToRelationshipList(ReportInviteInfo[] memory list) public onlyOwner {\r\n        require(list.length > 0, \"Airdrop: The invite info list is null\");\r\n        for (uint i = 0; i < list.length; i++) {\r\n            ReportInviteInfo memory reportInfo = list[i];\r\n            if (\r\n                reportInfo.token != address(0) &&\r\n                reportInfo.inviterToken != reportInfo.token &&\r\n                !hasAirdropList(reportInfo.token) &&\r\n                !hasRelationshipList(reportInfo.token)\r\n            ) {\r\n                airdropAmount[reportInfo.token] = airdropAmount[reportInfo.token].add(reportInfo.amount);\r\n                Relationship.ReportInviteeInfo memory relationshipReportItem = Relationship.ReportInviteeInfo(reportInfo.token, reportInfo.inviterToken, address(this));\r\n                _relationshipReportInfo.push(relationshipReportItem);\r\n            }\r\n        }\r\n        // add data to Relationship Contract\r\n        if (_relationshipReportInfo.length > 0) {\r\n            _relationshipContract.addMutliToInviteeList(_relationshipReportInfo);\r\n        }\r\n    }\r\n\r\n    /**\r\n     * @dev add single account to the relationshipList by owner\r\n     */\r\n    function addToRelationshipList(address inviteeAccount, address inviterAccount) public onlyOwner {\r\n        require(inviteeAccount != address(0), \"Airdrop: The inviter account is the zero address\");\r\n        require(inviterAccount != inviteeAccount, \"Airdrop: The inviter account cannot be yourself\");\r\n        require(!hasAirdropList(inviteeAccount), \"Airdrop: The invitee account is already on the airdropList\");\r\n        require(!hasRelationshipList(inviteeAccount), \"Airdrop: The invitee account is not in the relationshipList\");\r\n        _relationshipContract.addToInviteeList(inviteeAccount, inviterAccount, address(this));\r\n    }\r\n\r\n    /**\r\n     * @dev Receive airdrop\r\n     * @param inviterAccount the account of receive's inviter\r\n     */\r\n    function receiveAirdrop(address inviterAccount) public {\r\n        address currentAccount = msg.sender;\r\n        require(inviterAccount != address(0), \"Airdrop: The inviter account is the zero address\");\r\n        require(inviterAccount != currentAccount, \"Airdrop: The inviter account cannot be yourself\");\r\n        require(!hasAirdropList(currentAccount), \"Airdrop: The invitee account is already on the airdropList\");\r\n        require(!hasRelationshipList(currentAccount), \"Airdrop: The invitee account is not in the relationshipList\");\r\n\r\n        if (checkRelationshipListSwitch) {\r\n            require(hasRelationshipList(inviterAccount), \"Airdrop: The inviter account is not in the relationshipList\");\r\n        }\r\n        if (checkDATBalanceOrDATStakeSwitch) {\r\n            require(checkDatBalance(inviterAccount) || checkDatStake(inviterAccount), \"Airdrop: Account does not meet the requirements\");\r\n        } else {\r\n            if (checkDATBalanceSwitch) {\r\n                require(checkDatBalance(inviterAccount), \"Airdrop: Account balance does not meet the requirements\");\r\n            }\r\n            if (checkDATStakeSwitch) {\r\n                require(checkDatStake(inviterAccount), \"Airdrop: Stake amount does not meet the requirements\");\r\n            }\r\n        }\r\n\r\n        // exec receiveAirdrop\r\n        _relationshipContract.addToInviteeList(currentAccount, inviterAccount, address(this));\r\n\r\n        // random to airdrop amount\r\n        uint256 actualAmount = _getActualAmount();\r\n        if (actualAmount > 0) {\r\n            airdropAmount[currentAccount] = airdropAmount[currentAccount].add(actualAmount);\r\n            // transfer token to receive account\r\n            token.safeTransferFrom(tokenWallet, currentAccount, actualAmount);\r\n            emit transferToken(tokenWallet, currentAccount, actualAmount);\r\n        }\r\n    }\r\n\r\n    /**\r\n     * @dev Get actual amount\r\n     */\r\n    function _getActualAmount() internal view returns(uint256) {\r\n        if (!checkTransferSwitch) {\r\n            return 0;\r\n        }\r\n        // random to airdrop amount\r\n        uint256 randomAmount = _rand(airdropMaxAmount);\r\n        if (randomAmount <= 0) {\r\n            randomAmount = airdropMinAmount;\r\n        } else if (randomAmount > airdropMaxAmount) {\r\n            randomAmount = airdropMaxAmount;\r\n        }\r\n        uint256 actualAmount = randomAmount * (10**uint256(18));\r\n        return actualAmount;\r\n    }\r\n\r\n    /**\r\n     * @dev Generate random numbers\r\n     * @param length Random number range\r\n     */\r\n    function _rand(uint256 length) internal view returns(uint256) {\r\n        uint256 random = uint256(keccak256(abi.encodePacked(block.difficulty, block.timestamp)));\r\n        return random % length;\r\n    }\r\n\r\n    function killSelf(address payable recipientToken) public onlyOwner {\r\n        uint256 contractBalance = token.balanceOf(address(this));\r\n        token.safeTransfer(recipientToken, contractBalance);\r\n\r\n        selfdestruct(recipientToken);\r\n    }\r\n}\r\n",
  "sourcePath": "D:/Workspaces/DaoswapDex/daoswapdex-heco-testnet/core-airdrop/contracts/AirdropToRelationship.sol",
  "compiler": {
    "name": "solc",
    "version": "0.8.4+commit.c7e474f2.Emscripten.clang"
  },
  "schemaVersion": "3.4.1",
  "updatedAt": "2021-08-21T17:05:25.836Z",
  "devdoc": {
    "kind": "dev",
    "methods": {
      "addMutliToRelationshipList((address,address,uint256)[])": {
        "details": "add mutli account to the relationshipList by owner"
      },
      "addToRelationshipList(address,address)": {
        "details": "add single account to the relationshipList by owner"
      },
      "checkDatBalance(address)": {
        "details": "Check if an account DAT balance.",
        "params": {
          "account": "the address"
        },
        "returns": {
          "_0": "bool"
        }
      },
      "checkDatStake(address)": {
        "details": "Check if an account DAT balance.",
        "params": {
          "account": "the address"
        },
        "returns": {
          "_0": "bool"
        }
      },
      "getDatBalance(address)": {
        "details": "get DAT balance amount of account.",
        "params": {
          "account": "the address"
        },
        "returns": {
          "_0": "uint256"
        }
      },
      "getDatStake(address)": {
        "details": "get DAT stake amount of account.",
        "params": {
          "account": "the address"
        },
        "returns": {
          "_0": "uint256"
        }
      },
      "getInviterInfo(address)": {
        "details": "get inviter info from the inviteeList"
      },
      "getMemberList()": {
        "details": "get member list from the relationshipList by owner"
      },
      "getMemberListByOwner(address)": {
        "details": "get member list from the relationshipList by owner"
      },
      "hasAirdropList(address)": {
        "details": "Check if an account has this airdroplist.",
        "params": {
          "account": "the address"
        },
        "returns": {
          "_0": "bool"
        }
      },
      "hasRelationshipList(address)": {
        "details": "Check if an account has this relationshipList.",
        "params": {
          "account": "the address of relationshipList"
        },
        "returns": {
          "_0": "bool"
        }
      },
      "owner()": {
        "details": "Returns the address of the current owner."
      },
      "receiveAirdrop(address)": {
        "details": "Receive airdrop",
        "params": {
          "inviterAccount": "the account of receive's inviter"
        }
      },
      "renounceOwnership()": {
        "details": "Leaves the contract without owner. It will not be possible to call `onlyOwner` functions anymore. Can only be called by the current owner. NOTE: Renouncing ownership will leave the contract without an owner, thereby removing any functionality that is only available to the owner."
      },
      "transferOwnership(address)": {
        "details": "Transfers ownership of the contract to a new account (`newOwner`). Can only be called by the current owner."
      }
    },
    "version": 1
  },
  "userdoc": {
    "kind": "user",
    "methods": {},
    "version": 1
  }
}