{
  "contractName": "AirdropUnlimited",
  "abi": [
    {
      "inputs": [
        {
          "internalType": "contract IERC20",
          "name": "_token",
          "type": "address"
        },
        {
          "internalType": "address",
          "name": "_tokenWallet",
          "type": "address"
        },
        {
          "internalType": "uint256",
          "name": "_minDAOBalanceAmount",
          "type": "uint256"
        },
        {
          "internalType": "uint256",
          "name": "_minDATStakeAmount",
          "type": "uint256"
        },
        {
          "internalType": "uint256",
          "name": "_airdropMaxAmount",
          "type": "uint256"
        },
        {
          "internalType": "address",
          "name": "_crowdsaleForRetailAddress",
          "type": "address"
        }
      ],
      "stateMutability": "nonpayable",
      "type": "constructor"
    },
    {
      "anonymous": false,
      "inputs": [
        {
          "indexed": true,
          "internalType": "address",
          "name": "previousOwner",
          "type": "address"
        },
        {
          "indexed": true,
          "internalType": "address",
          "name": "newOwner",
          "type": "address"
        }
      ],
      "name": "OwnershipTransferred",
      "type": "event"
    },
    {
      "anonymous": false,
      "inputs": [
        {
          "indexed": false,
          "internalType": "address",
          "name": "wallet",
          "type": "address"
        },
        {
          "indexed": false,
          "internalType": "address",
          "name": "account",
          "type": "address"
        },
        {
          "indexed": false,
          "internalType": "uint256",
          "name": "amount",
          "type": "uint256"
        }
      ],
      "name": "transferToken",
      "type": "event"
    },
    {
      "inputs": [
        {
          "internalType": "address",
          "name": "",
          "type": "address"
        }
      ],
      "name": "airdropList",
      "outputs": [
        {
          "internalType": "address",
          "name": "inviterToken",
          "type": "address"
        },
        {
          "internalType": "uint256",
          "name": "airdropAmount",
          "type": "uint256"
        }
      ],
      "stateMutability": "view",
      "type": "function",
      "constant": true
    },
    {
      "inputs": [],
      "name": "airdropMaxAmount",
      "outputs": [
        {
          "internalType": "uint256",
          "name": "",
          "type": "uint256"
        }
      ],
      "stateMutability": "view",
      "type": "function",
      "constant": true
    },
    {
      "inputs": [],
      "name": "checkDAOBalanceOrDATStakeSwitch",
      "outputs": [
        {
          "internalType": "bool",
          "name": "",
          "type": "bool"
        }
      ],
      "stateMutability": "view",
      "type": "function",
      "constant": true
    },
    {
      "inputs": [],
      "name": "checkDAOBalanceSwitch",
      "outputs": [
        {
          "internalType": "bool",
          "name": "",
          "type": "bool"
        }
      ],
      "stateMutability": "view",
      "type": "function",
      "constant": true
    },
    {
      "inputs": [],
      "name": "checkDATStakeSwitch",
      "outputs": [
        {
          "internalType": "bool",
          "name": "",
          "type": "bool"
        }
      ],
      "stateMutability": "view",
      "type": "function",
      "constant": true
    },
    {
      "inputs": [],
      "name": "checkRelationshipListSwitch",
      "outputs": [
        {
          "internalType": "bool",
          "name": "",
          "type": "bool"
        }
      ],
      "stateMutability": "view",
      "type": "function",
      "constant": true
    },
    {
      "inputs": [],
      "name": "crowdsaleForRetailAddress",
      "outputs": [
        {
          "internalType": "address",
          "name": "",
          "type": "address"
        }
      ],
      "stateMutability": "view",
      "type": "function",
      "constant": true
    },
    {
      "inputs": [],
      "name": "minDAOBalanceAmount",
      "outputs": [
        {
          "internalType": "uint256",
          "name": "",
          "type": "uint256"
        }
      ],
      "stateMutability": "view",
      "type": "function",
      "constant": true
    },
    {
      "inputs": [],
      "name": "minDATStakeAmount",
      "outputs": [
        {
          "internalType": "uint256",
          "name": "",
          "type": "uint256"
        }
      ],
      "stateMutability": "view",
      "type": "function",
      "constant": true
    },
    {
      "inputs": [],
      "name": "owner",
      "outputs": [
        {
          "internalType": "address",
          "name": "",
          "type": "address"
        }
      ],
      "stateMutability": "view",
      "type": "function",
      "constant": true
    },
    {
      "inputs": [],
      "name": "renounceOwnership",
      "outputs": [],
      "stateMutability": "nonpayable",
      "type": "function"
    },
    {
      "inputs": [],
      "name": "token",
      "outputs": [
        {
          "internalType": "contract IERC20",
          "name": "",
          "type": "address"
        }
      ],
      "stateMutability": "view",
      "type": "function",
      "constant": true
    },
    {
      "inputs": [],
      "name": "tokenWallet",
      "outputs": [
        {
          "internalType": "address",
          "name": "",
          "type": "address"
        }
      ],
      "stateMutability": "view",
      "type": "function",
      "constant": true
    },
    {
      "inputs": [
        {
          "internalType": "address",
          "name": "newOwner",
          "type": "address"
        }
      ],
      "name": "transferOwnership",
      "outputs": [],
      "stateMutability": "nonpayable",
      "type": "function"
    },
    {
      "inputs": [
        {
          "internalType": "uint256",
          "name": "amount",
          "type": "uint256"
        }
      ],
      "name": "setMinDAOBalanceAmount",
      "outputs": [],
      "stateMutability": "nonpayable",
      "type": "function"
    },
    {
      "inputs": [
        {
          "internalType": "uint256",
          "name": "amount",
          "type": "uint256"
        }
      ],
      "name": "setMinDATStakeAmount",
      "outputs": [],
      "stateMutability": "nonpayable",
      "type": "function"
    },
    {
      "inputs": [
        {
          "internalType": "uint256",
          "name": "amount",
          "type": "uint256"
        }
      ],
      "name": "setAirdropMaxAmount",
      "outputs": [],
      "stateMutability": "nonpayable",
      "type": "function"
    },
    {
      "inputs": [],
      "name": "openCheckRelationshipListSwitch",
      "outputs": [],
      "stateMutability": "nonpayable",
      "type": "function"
    },
    {
      "inputs": [],
      "name": "closeCheckRelationshipListSwitch",
      "outputs": [],
      "stateMutability": "nonpayable",
      "type": "function"
    },
    {
      "inputs": [],
      "name": "openCheckDAOBalanceOrDATStakeSwitch",
      "outputs": [],
      "stateMutability": "nonpayable",
      "type": "function"
    },
    {
      "inputs": [],
      "name": "closeCheckDAOBalanceOrDATStakeSwitch",
      "outputs": [],
      "stateMutability": "nonpayable",
      "type": "function"
    },
    {
      "inputs": [],
      "name": "openCheckDAOBalanceSwitch",
      "outputs": [],
      "stateMutability": "nonpayable",
      "type": "function"
    },
    {
      "inputs": [],
      "name": "closeCheckDAOBalanceSwitch",
      "outputs": [],
      "stateMutability": "nonpayable",
      "type": "function"
    },
    {
      "inputs": [],
      "name": "openCheckDATStakeSwitch",
      "outputs": [],
      "stateMutability": "nonpayable",
      "type": "function"
    },
    {
      "inputs": [],
      "name": "closeCheckDATStakeSwitch",
      "outputs": [],
      "stateMutability": "nonpayable",
      "type": "function"
    },
    {
      "inputs": [
        {
          "internalType": "address",
          "name": "account",
          "type": "address"
        }
      ],
      "name": "getDaoBalance",
      "outputs": [
        {
          "internalType": "uint256",
          "name": "",
          "type": "uint256"
        }
      ],
      "stateMutability": "view",
      "type": "function",
      "constant": true
    },
    {
      "inputs": [
        {
          "internalType": "address",
          "name": "account",
          "type": "address"
        }
      ],
      "name": "getDatStake",
      "outputs": [
        {
          "internalType": "uint256",
          "name": "",
          "type": "uint256"
        }
      ],
      "stateMutability": "view",
      "type": "function",
      "constant": true
    },
    {
      "inputs": [
        {
          "internalType": "address",
          "name": "account",
          "type": "address"
        }
      ],
      "name": "getMemberListByOwner",
      "outputs": [
        {
          "internalType": "address[]",
          "name": "",
          "type": "address[]"
        }
      ],
      "stateMutability": "view",
      "type": "function",
      "constant": true
    },
    {
      "inputs": [],
      "name": "getMemberList",
      "outputs": [
        {
          "internalType": "address[]",
          "name": "",
          "type": "address[]"
        }
      ],
      "stateMutability": "view",
      "type": "function",
      "constant": true
    },
    {
      "inputs": [
        {
          "internalType": "address",
          "name": "account",
          "type": "address"
        }
      ],
      "name": "removeFromRelationshipList",
      "outputs": [],
      "stateMutability": "nonpayable",
      "type": "function"
    },
    {
      "inputs": [
        {
          "internalType": "address[]",
          "name": "accountList",
          "type": "address[]"
        }
      ],
      "name": "addMutliToRelationshipList",
      "outputs": [],
      "stateMutability": "nonpayable",
      "type": "function"
    },
    {
      "inputs": [
        {
          "internalType": "address",
          "name": "account",
          "type": "address"
        }
      ],
      "name": "addToRelationshipList",
      "outputs": [],
      "stateMutability": "nonpayable",
      "type": "function"
    },
    {
      "inputs": [
        {
          "components": [
            {
              "internalType": "address",
              "name": "token",
              "type": "address"
            },
            {
              "internalType": "address",
              "name": "inviterToken",
              "type": "address"
            },
            {
              "internalType": "uint256",
              "name": "amount",
              "type": "uint256"
            }
          ],
          "internalType": "struct AirdropUnlimited.ReportInviteInfo[]",
          "name": "list",
          "type": "tuple[]"
        }
      ],
      "name": "addMutliToAirdropList",
      "outputs": [],
      "stateMutability": "nonpayable",
      "type": "function"
    },
    {
      "inputs": [
        {
          "internalType": "address",
          "name": "account",
          "type": "address"
        }
      ],
      "name": "hasRelationshipList",
      "outputs": [
        {
          "internalType": "bool",
          "name": "",
          "type": "bool"
        }
      ],
      "stateMutability": "view",
      "type": "function",
      "constant": true
    },
    {
      "inputs": [
        {
          "internalType": "address",
          "name": "account",
          "type": "address"
        }
      ],
      "name": "hasAirdropList",
      "outputs": [
        {
          "internalType": "bool",
          "name": "",
          "type": "bool"
        }
      ],
      "stateMutability": "view",
      "type": "function",
      "constant": true
    },
    {
      "inputs": [
        {
          "internalType": "address",
          "name": "account",
          "type": "address"
        }
      ],
      "name": "checkDaoBalance",
      "outputs": [
        {
          "internalType": "bool",
          "name": "",
          "type": "bool"
        }
      ],
      "stateMutability": "view",
      "type": "function",
      "constant": true
    },
    {
      "inputs": [
        {
          "internalType": "address",
          "name": "account",
          "type": "address"
        }
      ],
      "name": "checkDatStake",
      "outputs": [
        {
          "internalType": "bool",
          "name": "",
          "type": "bool"
        }
      ],
      "stateMutability": "view",
      "type": "function",
      "constant": true
    },
    {
      "inputs": [
        {
          "internalType": "address",
          "name": "inviterAccount",
          "type": "address"
        }
      ],
      "name": "receiveAirdrop",
      "outputs": [],
      "stateMutability": "nonpayable",
      "type": "function"
    },
    {
      "inputs": [
        {
          "internalType": "address payable",
          "name": "recipientToken",
          "type": "address"
        }
      ],
      "name": "killSelf",
      "outputs": [],
      "stateMutability": "nonpayable",
      "type": "function"
    }
  ],
  "bytecode": "0x60806040526000600760146101000a81548160ff0219169083151502179055506001600760156101000a81548160ff0219169083151502179055506000600760166101000a81548160ff0219169083151502179055506000600760176101000a81548160ff0219169083151502179055503480156200007d57600080fd5b50604051620049de380380620049de8339818101604052810190620000a39190620003df565b620000c3620000b7620002ce60201b60201c565b620002d660201b60201c565b600073ffffffffffffffffffffffffffffffffffffffff168673ffffffffffffffffffffffffffffffffffffffff16141562000136576040517f08c379a00000000000000000000000000000000000000000000000000000000081526004016200012d90620004c3565b60405180910390fd5b600073ffffffffffffffffffffffffffffffffffffffff168573ffffffffffffffffffffffffffffffffffffffff161415620001a9576040517f08c379a0000000000000000000000000000000000000000000000000000000008152600401620001a090620004e5565b60405180910390fd5b85600160006101000a81548173ffffffffffffffffffffffffffffffffffffffff021916908373ffffffffffffffffffffffffffffffffffffffff16021790555084600260006101000a81548173ffffffffffffffffffffffffffffffffffffffff021916908373ffffffffffffffffffffffffffffffffffffffff16021790555083600381905550826004819055508160058190555080600660006101000a81548173ffffffffffffffffffffffffffffffffffffffff021916908373ffffffffffffffffffffffffffffffffffffffff16021790555080600760006101000a81548173ffffffffffffffffffffffffffffffffffffffff021916908373ffffffffffffffffffffffffffffffffffffffff16021790555050505050505062000656565b600033905090565b60008060009054906101000a900473ffffffffffffffffffffffffffffffffffffffff169050816000806101000a81548173ffffffffffffffffffffffffffffffffffffffff021916908373ffffffffffffffffffffffffffffffffffffffff1602179055508173ffffffffffffffffffffffffffffffffffffffff168173ffffffffffffffffffffffffffffffffffffffff167f8be0079c531659141344cd1fd0a4f28419497f9722a3daafe3b4186f6b6457e060405160405180910390a35050565b600081519050620003ab8162000608565b92915050565b600081519050620003c28162000622565b92915050565b600081519050620003d9816200063c565b92915050565b60008060008060008060c08789031215620003f957600080fd5b60006200040989828a01620003b1565b96505060206200041c89828a016200039a565b95505060406200042f89828a01620003c8565b94505060606200044289828a01620003c8565b93505060806200045589828a01620003c8565b92505060a06200046889828a016200039a565b9150509295509295509295565b60006200048460268362000507565b915062000491826200056a565b604082019050919050565b6000620004ab602d8362000507565b9150620004b882620005b9565b604082019050919050565b60006020820190508181036000830152620004de8162000475565b9050919050565b6000602082019050818103600083015262000500816200049c565b9050919050565b600082825260208201905092915050565b6000620005258262000540565b9050919050565b6000620005398262000518565b9050919050565b600073ffffffffffffffffffffffffffffffffffffffff82169050919050565b6000819050919050565b7f41697264726f703a2054686520746f6b656e20697320746865207a65726f206160008201527f6464726573730000000000000000000000000000000000000000000000000000602082015250565b7f41697264726f703a2054686520746f6b656e2077616c6c65742069732074686560008201527f207a65726f206164647265737300000000000000000000000000000000000000602082015250565b620006138162000518565b81146200061f57600080fd5b50565b6200062d816200052c565b81146200063957600080fd5b50565b620006478162000560565b81146200065357600080fd5b50565b61437880620006666000396000f3fe608060405234801561001057600080fd5b506004361061023d5760003560e01c8063775e884f1161013b578063b4f26b8a116100b8578063e59627501161007c578063e59627501461061f578063f02e1fcd1461063d578063f2fde38b14610647578063f773481214610663578063fc0c546a1461067f5761023d565b8063b4f26b8a1461057b578063b549781b14610597578063bff99c6c146105c7578063ca4cf14f146105e5578063cdb208ca146106155761023d565b80638d220353116100ff5780638d220353146104d75780638d59b3a7146104f35780638da5cb5b146105235780638f3fd50714610541578063b0b99e431461055f5761023d565b8063775e884f14610447578063776637b4146104635780637cf83819146104935780638bee35dd146104af5780638bf2dc11146104b95761023d565b80633a507d7d116101c957806358cf77fa1161018d57806358cf77fa146103b45780635a689270146103e55780635f5d5f00146104015780636f99f5371461041f578063715018a61461043d5761023d565b80633a507d7d146103105780633ee2e2a61461032c57806341cd9cd714610336578063441e3629146103665780635591b7be146103965761023d565b806326540e971161021057806326540e97146102a45780632817ee42146102ae5780632ec94efd146102b85780632ef86e29146102e85780632f4b81a3146103065761023d565b80630112c82b1461024257806318f15d65146102605780631bbff9841461027e57806324a4909514610288575b600080fd5b61024a61069d565b604051610257919061369c565b60405180910390f35b6102686106b0565b6040516102759190613914565b60405180910390f35b6102866106b6565b005b6102a2600480360381019061029d91906131d5565b61074f565b005b6102ac6107d5565b005b6102b661086e565b005b6102d260048036038101906102cd91906130d8565b610907565b6040516102df9190613914565b60405180910390f35b6102f0610a37565b6040516102fd9190613914565b60405180910390f35b61030e610a3d565b005b61032a60048036038101906103259190613101565b610ad6565b005b610334610c67565b005b610350600480360381019061034b91906130d8565b610d00565b60405161035d919061369c565b60405180910390f35b610380600480360381019061037b91906130d8565b610f09565b60405161038d9190613914565b60405180910390f35b61039e611039565b6040516103ab9190613914565b60405180910390f35b6103ce60048036038101906103c991906130d8565b61103f565b6040516103dc929190613651565b60405180910390f35b6103ff60048036038101906103fa91906130d8565b611083565b005b6104096111ab565b604051610416919061367a565b60405180910390f35b610427611203565b604051610434919061369c565b60405180910390f35b610445611216565b005b610461600480360381019061045c91906131d5565b61129e565b005b61047d600480360381019061047891906130d8565b611324565b60405161048a919061369c565b60405180910390f35b6104ad60048036038101906104a891906131d5565b611400565b005b6104b7611486565b005b6104c161151f565b6040516104ce919061369c565b60405180910390f35b6104f160048036038101906104ec91906130d8565b611532565b005b61050d600480360381019061050891906130d8565b611603565b60405161051a919061369c565b60405180910390f35b61052b61175f565b60405161053891906135ff565b60405180910390f35b610549611788565b60405161055691906135ff565b60405180910390f35b6105796004803603810190610574919061316b565b6117ae565b005b6105956004803603810190610590919061312a565b611933565b005b6105b160048036038101906105ac91906130d8565b611a5f565b6040516105be919061369c565b60405180910390f35b6105cf611b3b565b6040516105dc91906135ff565b60405180910390f35b6105ff60048036038101906105fa91906130d8565b611b61565b60405161060c919061367a565b60405180910390f35b61061d611bef565b005b610627611c88565b604051610634919061369c565b60405180910390f35b610645611c9b565b005b610661600480360381019061065c91906130d8565b611d34565b005b61067d600480360381019061067891906130d8565b611e2c565b005b6106876120fe565b60405161069491906136b7565b60405180910390f35b600760159054906101000a900460ff1681565b60055481565b6106be612124565b73ffffffffffffffffffffffffffffffffffffffff166106dc61175f565b73ffffffffffffffffffffffffffffffffffffffff1614610732576040517f08c379a0000000000000000000000000000000000000000000000000000000008152600401610729906137f4565b60405180910390fd5b6001600760176101000a81548160ff021916908315150217905550565b610757612124565b73ffffffffffffffffffffffffffffffffffffffff1661077561175f565b73ffffffffffffffffffffffffffffffffffffffff16146107cb576040517f08c379a00000000000000000000000000000000000000000000000000000000081526004016107c2906137f4565b60405180910390fd5b8060048190555050565b6107dd612124565b73ffffffffffffffffffffffffffffffffffffffff166107fb61175f565b73ffffffffffffffffffffffffffffffffffffffff1614610851576040517f08c379a0000000000000000000000000000000000000000000000000000000008152600401610848906137f4565b60405180910390fd5b6001600760166101000a81548160ff021916908315150217905550565b610876612124565b73ffffffffffffffffffffffffffffffffffffffff1661089461175f565b73ffffffffffffffffffffffffffffffffffffffff16146108ea576040517f08c379a00000000000000000000000000000000000000000000000000000000081526004016108e1906137f4565b60405180910390fd5b6001600760156101000a81548160ff021916908315150217905550565b6000610911612124565b73ffffffffffffffffffffffffffffffffffffffff1661092f61175f565b73ffffffffffffffffffffffffffffffffffffffff1614610985576040517f08c379a000000000000000000000000000000000000000000000000000000000815260040161097c906137f4565b60405180910390fd5b600760009054906101000a900473ffffffffffffffffffffffffffffffffffffffff1673ffffffffffffffffffffffffffffffffffffffff1663f887d019836040518263ffffffff1660e01b81526004016109e091906135ff565b60206040518083038186803b1580156109f857600080fd5b505afa158015610a0c573d6000803e3d6000fd5b505050506040513d601f19601f82011682018060405250810190610a3091906131fe565b9050919050565b60045481565b610a45612124565b73ffffffffffffffffffffffffffffffffffffffff16610a6361175f565b73ffffffffffffffffffffffffffffffffffffffff1614610ab9576040517f08c379a0000000000000000000000000000000000000000000000000000000008152600401610ab0906137f4565b60405180910390fd5b6000600760156101000a81548160ff021916908315150217905550565b610ade612124565b73ffffffffffffffffffffffffffffffffffffffff16610afc61175f565b73ffffffffffffffffffffffffffffffffffffffff1614610b52576040517f08c379a0000000000000000000000000000000000000000000000000000000008152600401610b49906137f4565b60405180910390fd5b6000600160009054906101000a900473ffffffffffffffffffffffffffffffffffffffff1673ffffffffffffffffffffffffffffffffffffffff166370a08231306040518263ffffffff1660e01b8152600401610baf91906135ff565b60206040518083038186803b158015610bc757600080fd5b505afa158015610bdb573d6000803e3d6000fd5b505050506040513d601f19601f82011682018060405250810190610bff91906131fe565b9050610c4e8282600160009054906101000a900473ffffffffffffffffffffffffffffffffffffffff1673ffffffffffffffffffffffffffffffffffffffff1661212c9092919063ffffffff16565b8173ffffffffffffffffffffffffffffffffffffffff16ff5b610c6f612124565b73ffffffffffffffffffffffffffffffffffffffff16610c8d61175f565b73ffffffffffffffffffffffffffffffffffffffff1614610ce3576040517f08c379a0000000000000000000000000000000000000000000000000000000008152600401610cda906137f4565b60405180910390fd5b6000600760166101000a81548160ff021916908315150217905550565b60008073ffffffffffffffffffffffffffffffffffffffff168273ffffffffffffffffffffffffffffffffffffffff161415610d71576040517f08c379a0000000000000000000000000000000000000000000000000000000008152600401610d68906138f4565b60405180910390fd5b6000600860008473ffffffffffffffffffffffffffffffffffffffff1673ffffffffffffffffffffffffffffffffffffffff1681526020019081526020016000206040518060600160405290816000820160009054906101000a900473ffffffffffffffffffffffffffffffffffffffff1673ffffffffffffffffffffffffffffffffffffffff1673ffffffffffffffffffffffffffffffffffffffff1681526020016000820160149054906101000a900460ff1615151515815260200160018201805480602002602001604051908101604052809291908181526020018280548015610eb357602002820191906000526020600020905b8160009054906101000a900473ffffffffffffffffffffffffffffffffffffffff1673ffffffffffffffffffffffffffffffffffffffff1681526020019060010190808311610e69575b5050505050815250509050600073ffffffffffffffffffffffffffffffffffffffff16816000015173ffffffffffffffffffffffffffffffffffffffff1614158015610f0157508060200151155b915050919050565b6000610f13612124565b73ffffffffffffffffffffffffffffffffffffffff16610f3161175f565b73ffffffffffffffffffffffffffffffffffffffff1614610f87576040517f08c379a0000000000000000000000000000000000000000000000000000000008152600401610f7e906137f4565b60405180910390fd5b600160009054906101000a900473ffffffffffffffffffffffffffffffffffffffff1673ffffffffffffffffffffffffffffffffffffffff166370a08231836040518263ffffffff1660e01b8152600401610fe291906135ff565b60206040518083038186803b158015610ffa57600080fd5b505afa15801561100e573d6000803e3d6000fd5b505050506040513d601f19601f8201168201806040525081019061103291906131fe565b9050919050565b60035481565b60096020528060005260406000206000915090508060000160009054906101000a900473ffffffffffffffffffffffffffffffffffffffff16908060010154905082565b61108b612124565b73ffffffffffffffffffffffffffffffffffffffff166110a961175f565b73ffffffffffffffffffffffffffffffffffffffff16146110ff576040517f08c379a00000000000000000000000000000000000000000000000000000000081526004016110f6906137f4565b60405180910390fd5b61110881610d00565b611147576040517f08c379a000000000000000000000000000000000000000000000000000000000815260040161113e90613734565b60405180910390fd5b6000600860008373ffffffffffffffffffffffffffffffffffffffff1673ffffffffffffffffffffffffffffffffffffffff168152602001908152602001600020905060018160000160146101000a81548160ff0219169083151502179055505050565b60606111b633610d00565b6111f5576040517f08c379a00000000000000000000000000000000000000000000000000000000081526004016111ec90613734565b60405180910390fd5b6111fe336121b2565b905090565b600760179054906101000a900460ff1681565b61121e612124565b73ffffffffffffffffffffffffffffffffffffffff1661123c61175f565b73ffffffffffffffffffffffffffffffffffffffff1614611292576040517f08c379a0000000000000000000000000000000000000000000000000000000008152600401611289906137f4565b60405180910390fd5b61129c600061230e565b565b6112a6612124565b73ffffffffffffffffffffffffffffffffffffffff166112c461175f565b73ffffffffffffffffffffffffffffffffffffffff161461131a576040517f08c379a0000000000000000000000000000000000000000000000000000000008152600401611311906137f4565b60405180910390fd5b8060058190555050565b600080600760009054906101000a900473ffffffffffffffffffffffffffffffffffffffff1673ffffffffffffffffffffffffffffffffffffffff1663f887d019846040518263ffffffff1660e01b815260040161138291906135ff565b60206040518083038186803b15801561139a57600080fd5b505afa1580156113ae573d6000803e3d6000fd5b505050506040513d601f19601f820116820180604052508101906113d291906131fe565b905060006012600a6113e49190613a6a565b6004546113f19190613b88565b90508082101592505050919050565b611408612124565b73ffffffffffffffffffffffffffffffffffffffff1661142661175f565b73ffffffffffffffffffffffffffffffffffffffff161461147c576040517f08c379a0000000000000000000000000000000000000000000000000000000008152600401611473906137f4565b60405180910390fd5b8060038190555050565b61148e612124565b73ffffffffffffffffffffffffffffffffffffffff166114ac61175f565b73ffffffffffffffffffffffffffffffffffffffff1614611502576040517f08c379a00000000000000000000000000000000000000000000000000000000081526004016114f9906137f4565b60405180910390fd5b6001600760146101000a81548160ff021916908315150217905550565b600760169054906101000a900460ff1681565b61153a612124565b73ffffffffffffffffffffffffffffffffffffffff1661155861175f565b73ffffffffffffffffffffffffffffffffffffffff16146115ae576040517f08c379a00000000000000000000000000000000000000000000000000000000081526004016115a5906137f4565b60405180910390fd5b6115b781610d00565b156115f7576040517f08c379a00000000000000000000000000000000000000000000000000000000081526004016115ee90613754565b60405180910390fd5b611600816123d2565b50565b60008073ffffffffffffffffffffffffffffffffffffffff168273ffffffffffffffffffffffffffffffffffffffff161415611674576040517f08c379a000000000000000000000000000000000000000000000000000000000815260040161166b906138f4565b60405180910390fd5b6000600960008473ffffffffffffffffffffffffffffffffffffffff1673ffffffffffffffffffffffffffffffffffffffff1681526020019081526020016000206040518060400160405290816000820160009054906101000a900473ffffffffffffffffffffffffffffffffffffffff1673ffffffffffffffffffffffffffffffffffffffff1673ffffffffffffffffffffffffffffffffffffffff1681526020016001820154815250509050600073ffffffffffffffffffffffffffffffffffffffff16816000015173ffffffffffffffffffffffffffffffffffffffff161415915050919050565b60008060009054906101000a900473ffffffffffffffffffffffffffffffffffffffff16905090565b600660009054906101000a900473ffffffffffffffffffffffffffffffffffffffff1681565b6117b6612124565b73ffffffffffffffffffffffffffffffffffffffff166117d461175f565b73ffffffffffffffffffffffffffffffffffffffff161461182a576040517f08c379a0000000000000000000000000000000000000000000000000000000008152600401611821906137f4565b60405180910390fd5b600081511161186e576040517f08c379a0000000000000000000000000000000000000000000000000000000008152600401611865906138b4565b60405180910390fd5b60005b815181101561192f5760008282815181106118b5577f4e487b7100000000000000000000000000000000000000000000000000000000600052603260045260246000fd5b6020026020010151905060008160400151101580156118de57506118dc8160000151611603565b155b1561191b5760006012600a6118f39190613a6a565b82604001516119029190613b88565b9050611919826000015183602001518360006125fd565b505b50808061192790613cc4565b915050611871565b5050565b61193b612124565b73ffffffffffffffffffffffffffffffffffffffff1661195961175f565b73ffffffffffffffffffffffffffffffffffffffff16146119af576040517f08c379a00000000000000000000000000000000000000000000000000000000081526004016119a6906137f4565b60405180910390fd5b60008151116119f3576040517f08c379a00000000000000000000000000000000000000000000000000000000081526004016119ea906138d4565b60405180910390fd5b60005b8151811015611a5b57611a48828281518110611a3b577f4e487b7100000000000000000000000000000000000000000000000000000000600052603260045260246000fd5b60200260200101516123d2565b8080611a5390613cc4565b9150506119f6565b5050565b600080600160009054906101000a900473ffffffffffffffffffffffffffffffffffffffff1673ffffffffffffffffffffffffffffffffffffffff166370a08231846040518263ffffffff1660e01b8152600401611abd91906135ff565b60206040518083038186803b158015611ad557600080fd5b505afa158015611ae9573d6000803e3d6000fd5b505050506040513d601f19601f82011682018060405250810190611b0d91906131fe565b905060006012600a611b1f9190613a6a565b600354611b2c9190613b88565b90508082101592505050919050565b600260009054906101000a900473ffffffffffffffffffffffffffffffffffffffff1681565b6060611b6b612124565b73ffffffffffffffffffffffffffffffffffffffff16611b8961175f565b73ffffffffffffffffffffffffffffffffffffffff1614611bdf576040517f08c379a0000000000000000000000000000000000000000000000000000000008152600401611bd6906137f4565b60405180910390fd5b611be8826121b2565b9050919050565b611bf7612124565b73ffffffffffffffffffffffffffffffffffffffff16611c1561175f565b73ffffffffffffffffffffffffffffffffffffffff1614611c6b576040517f08c379a0000000000000000000000000000000000000000000000000000000008152600401611c62906137f4565b60405180910390fd5b6000600760176101000a81548160ff021916908315150217905550565b600760149054906101000a900460ff1681565b611ca3612124565b73ffffffffffffffffffffffffffffffffffffffff16611cc161175f565b73ffffffffffffffffffffffffffffffffffffffff1614611d17576040517f08c379a0000000000000000000000000000000000000000000000000000000008152600401611d0e906137f4565b60405180910390fd5b6000600760146101000a81548160ff021916908315150217905550565b611d3c612124565b73ffffffffffffffffffffffffffffffffffffffff16611d5a61175f565b73ffffffffffffffffffffffffffffffffffffffff1614611db0576040517f08c379a0000000000000000000000000000000000000000000000000000000008152600401611da7906137f4565b60405180910390fd5b600073ffffffffffffffffffffffffffffffffffffffff168173ffffffffffffffffffffffffffffffffffffffff161415611e20576040517f08c379a0000000000000000000000000000000000000000000000000000000008152600401611e1790613774565b60405180910390fd5b611e298161230e565b50565b600073ffffffffffffffffffffffffffffffffffffffff168173ffffffffffffffffffffffffffffffffffffffff161415611e9c576040517f08c379a0000000000000000000000000000000000000000000000000000000008152600401611e9390613834565b60405180910390fd5b3373ffffffffffffffffffffffffffffffffffffffff168173ffffffffffffffffffffffffffffffffffffffff161415611f0b576040517f08c379a0000000000000000000000000000000000000000000000000000000008152600401611f0290613814565b60405180910390fd5b611f1433611603565b15611f54576040517f08c379a0000000000000000000000000000000000000000000000000000000008152600401611f4b90613874565b60405180910390fd5b600760149054906101000a900460ff1615611fb257611f7281610d00565b611fb1576040517f08c379a0000000000000000000000000000000000000000000000000000000008152600401611fa8906137b4565b60405180910390fd5b5b600760159054906101000a900460ff161561202457611fd081611a5f565b80611fe05750611fdf81611324565b5b61201f576040517f08c379a000000000000000000000000000000000000000000000000000000000815260040161201690613714565b60405180910390fd5b6120e1565b600760169054906101000a900460ff16156120825761204281611a5f565b612081576040517f08c379a0000000000000000000000000000000000000000000000000000000008152600401612078906137d4565b60405180910390fd5b5b600760179054906101000a900460ff16156120e0576120a081611324565b6120df576040517f08c379a00000000000000000000000000000000000000000000000000000000081526004016120d6906136f4565b60405180910390fd5b5b5b60006120eb612aa9565b90506120fa33838360016125fd565b5050565b600160009054906101000a900473ffffffffffffffffffffffffffffffffffffffff1681565b600033905090565b6121ad8363a9059cbb60e01b848460405160240161214b929190613651565b604051602081830303815290604052907bffffffffffffffffffffffffffffffffffffffffffffffffffffffff19166020820180517bffffffffffffffffffffffffffffffffffffffffffffffffffffffff8381831617835250505050612b01565b505050565b60606000600860008473ffffffffffffffffffffffffffffffffffffffff1673ffffffffffffffffffffffffffffffffffffffff1681526020019081526020016000206040518060600160405290816000820160009054906101000a900473ffffffffffffffffffffffffffffffffffffffff1673ffffffffffffffffffffffffffffffffffffffff1673ffffffffffffffffffffffffffffffffffffffff1681526020016000820160149054906101000a900460ff16151515158152602001600182018054806020026020016040519081016040528092919081815260200182805480156122f657602002820191906000526020600020905b8160009054906101000a900473ffffffffffffffffffffffffffffffffffffffff1673ffffffffffffffffffffffffffffffffffffffff16815260200190600101908083116122ac575b50505050508152505090508060400151915050919050565b60008060009054906101000a900473ffffffffffffffffffffffffffffffffffffffff169050816000806101000a81548173ffffffffffffffffffffffffffffffffffffffff021916908373ffffffffffffffffffffffffffffffffffffffff1602179055508173ffffffffffffffffffffffffffffffffffffffff168173ffffffffffffffffffffffffffffffffffffffff167f8be0079c531659141344cd1fd0a4f28419497f9722a3daafe3b4186f6b6457e060405160405180910390a35050565b6000600860008373ffffffffffffffffffffffffffffffffffffffff1673ffffffffffffffffffffffffffffffffffffffff1681526020019081526020016000209050600073ffffffffffffffffffffffffffffffffffffffff168160000160009054906101000a900473ffffffffffffffffffffffffffffffffffffffff1673ffffffffffffffffffffffffffffffffffffffff161461248f5760008160000160146101000a81548160ff0219169083151502179055506125f9565b60405180606001604052808373ffffffffffffffffffffffffffffffffffffffff168152602001600015158152602001600067ffffffffffffffff811115612500577f4e487b7100000000000000000000000000000000000000000000000000000000600052604160045260246000fd5b60405190808252806020026020018201604052801561252e5781602001602082028036833780820191505090505b50815250600860008473ffffffffffffffffffffffffffffffffffffffff1673ffffffffffffffffffffffffffffffffffffffff16815260200190815260200160002060008201518160000160006101000a81548173ffffffffffffffffffffffffffffffffffffffff021916908373ffffffffffffffffffffffffffffffffffffffff16021790555060208201518160000160146101000a81548160ff02191690831515021790555060408201518160010190805190602001906125f4929190612e3c565b509050505b5050565b60405180604001604052808473ffffffffffffffffffffffffffffffffffffffff16815260200183815250600960008673ffffffffffffffffffffffffffffffffffffffff1673ffffffffffffffffffffffffffffffffffffffff16815260200190815260200160002060008201518160000160006101000a81548173ffffffffffffffffffffffffffffffffffffffff021916908373ffffffffffffffffffffffffffffffffffffffff160217905550602082015181600101559050506000600860008573ffffffffffffffffffffffffffffffffffffffff1673ffffffffffffffffffffffffffffffffffffffff1681526020019081526020016000209050600073ffffffffffffffffffffffffffffffffffffffff168160000160009054906101000a900473ffffffffffffffffffffffffffffffffffffffff1673ffffffffffffffffffffffffffffffffffffffff16146127c05780600101859080600181540180825580915050600190039060005260206000200160009091909190916101000a81548173ffffffffffffffffffffffffffffffffffffffff021916908373ffffffffffffffffffffffffffffffffffffffff1602179055506129cd565b60405180606001604052808573ffffffffffffffffffffffffffffffffffffffff168152602001600015158152602001600067ffffffffffffffff811115612831577f4e487b7100000000000000000000000000000000000000000000000000000000600052604160045260246000fd5b60405190808252806020026020018201604052801561285f5781602001602082028036833780820191505090505b50815250600860008673ffffffffffffffffffffffffffffffffffffffff1673ffffffffffffffffffffffffffffffffffffffff16815260200190815260200160002060008201518160000160006101000a81548173ffffffffffffffffffffffffffffffffffffffff021916908373ffffffffffffffffffffffffffffffffffffffff16021790555060208201518160000160146101000a81548160ff0219169083151502179055506040820151816001019080519060200190612925929190612e3c565b50905050600860008573ffffffffffffffffffffffffffffffffffffffff1673ffffffffffffffffffffffffffffffffffffffff168152602001908152602001600020600101859080600181540180825580915050600190039060005260206000200160009091909190916101000a81548173ffffffffffffffffffffffffffffffffffffffff021916908373ffffffffffffffffffffffffffffffffffffffff1602179055505b8115612aa257612a44600260009054906101000a900473ffffffffffffffffffffffffffffffffffffffff168685600160009054906101000a900473ffffffffffffffffffffffffffffffffffffffff1673ffffffffffffffffffffffffffffffffffffffff16612bc8909392919063ffffffff16565b7ff5537ede4763d97b5cf86d9eb6ae77ccd8560b8b2d4bd4503537c6b2996a7a9b600260009054906101000a900473ffffffffffffffffffffffffffffffffffffffff168685604051612a999392919061361a565b60405180910390a15b5050505050565b600080612ab7600554612c51565b90506001811015612acb5760019050612adc565b600554811115612adb5760055490505b5b60006012600a612aec9190613a6a565b82612af79190613b88565b9050809250505090565b6000612b63826040518060400160405280602081526020017f5361666545524332303a206c6f772d6c6576656c2063616c6c206661696c65648152508573ffffffffffffffffffffffffffffffffffffffff16612c969092919063ffffffff16565b9050600081511115612bc35780806020019051810190612b8391906131ac565b612bc2576040517f08c379a0000000000000000000000000000000000000000000000000000000008152600401612bb990613894565b60405180910390fd5b5b505050565b612c4b846323b872dd60e01b858585604051602401612be99392919061361a565b604051602081830303815290604052907bffffffffffffffffffffffffffffffffffffffffffffffffffffffff19166020820180517bffffffffffffffffffffffffffffffffffffffffffffffffffffffff8381831617835250505050612b01565b50505050565b6000804442604051602001612c679291906135d3565b6040516020818303038152906040528051906020012060001c90508281612c8e9190613d17565b915050919050565b6060612ca58484600085612cae565b90509392505050565b606082471015612cf3576040517f08c379a0000000000000000000000000000000000000000000000000000000008152600401612cea90613794565b60405180910390fd5b612cfc85612dc2565b612d3b576040517f08c379a0000000000000000000000000000000000000000000000000000000008152600401612d3290613854565b60405180910390fd5b6000808673ffffffffffffffffffffffffffffffffffffffff168587604051612d6491906135bc565b60006040518083038185875af1925050503d8060008114612da1576040519150601f19603f3d011682016040523d82523d6000602084013e612da6565b606091505b5091509150612db6828286612dd5565b92505050949350505050565b600080823b905060008111915050919050565b60608315612de557829050612e35565b600083511115612df85782518084602001fd5b816040517f08c379a0000000000000000000000000000000000000000000000000000000008152600401612e2c91906136d2565b60405180910390fd5b9392505050565b828054828255906000526020600020908101928215612eb5579160200282015b82811115612eb45782518260006101000a81548173ffffffffffffffffffffffffffffffffffffffff021916908373ffffffffffffffffffffffffffffffffffffffff16021790555091602001919060010190612e5c565b5b509050612ec29190612ec6565b5090565b5b80821115612edf576000816000905550600101612ec7565b5090565b6000612ef6612ef184613954565b61392f565b90508083825260208201905082856020860282011115612f1557600080fd5b60005b85811015612f455781612f2b8882612fbb565b845260208401935060208301925050600181019050612f18565b5050509392505050565b6000612f62612f5d84613980565b61392f565b90508083825260208201905082856060860282011115612f8157600080fd5b60005b85811015612fb15781612f97888261304e565b845260208401935060608301925050600181019050612f84565b5050509392505050565b600081359050612fca816142e6565b92915050565b600081359050612fdf816142fd565b92915050565b600082601f830112612ff657600080fd5b8135613006848260208601612ee3565b91505092915050565b600082601f83011261302057600080fd5b8135613030848260208601612f4f565b91505092915050565b60008151905061304881614314565b92915050565b60006060828403121561306057600080fd5b61306a606061392f565b9050600061307a84828501612fbb565b600083015250602061308e84828501612fbb565b60208301525060406130a2848285016130ae565b60408301525092915050565b6000813590506130bd8161432b565b92915050565b6000815190506130d28161432b565b92915050565b6000602082840312156130ea57600080fd5b60006130f884828501612fbb565b91505092915050565b60006020828403121561311357600080fd5b600061312184828501612fd0565b91505092915050565b60006020828403121561313c57600080fd5b600082013567ffffffffffffffff81111561315657600080fd5b61316284828501612fe5565b91505092915050565b60006020828403121561317d57600080fd5b600082013567ffffffffffffffff81111561319757600080fd5b6131a38482850161300f565b91505092915050565b6000602082840312156131be57600080fd5b60006131cc84828501613039565b91505092915050565b6000602082840312156131e757600080fd5b60006131f5848285016130ae565b91505092915050565b60006020828403121561321057600080fd5b600061321e848285016130c3565b91505092915050565b6000613233838361323f565b60208301905092915050565b61324881613be2565b82525050565b61325781613be2565b82525050565b6000613268826139bc565b61327281856139ea565b935061327d836139ac565b8060005b838110156132ae5781516132958882613227565b97506132a0836139dd565b925050600181019050613281565b5085935050505092915050565b6132c481613c06565b82525050565b60006132d5826139c7565b6132df81856139fb565b93506132ef818560208601613c60565b80840191505092915050565b61330481613c3c565b82525050565b6000613315826139d2565b61331f8185613a06565b935061332f818560208601613c60565b61333881613dd5565b840191505092915050565b6000613350603483613a06565b915061335b82613df3565b604082019050919050565b6000613373602f83613a06565b915061337e82613e42565b604082019050919050565b6000613396603383613a06565b91506133a182613e91565b604082019050919050565b60006133b9603783613a06565b91506133c482613ee0565b604082019050919050565b60006133dc602683613a06565b91506133e782613f2f565b604082019050919050565b60006133ff602683613a06565b915061340a82613f7e565b604082019050919050565b6000613422603b83613a06565b915061342d82613fcd565b604082019050919050565b6000613445603783613a06565b91506134508261401c565b604082019050919050565b6000613468602083613a06565b91506134738261406b565b602082019050919050565b600061348b602f83613a06565b915061349682614094565b604082019050919050565b60006134ae603083613a06565b91506134b9826140e3565b604082019050919050565b60006134d1601d83613a06565b91506134dc82614132565b602082019050919050565b60006134f4603a83613a06565b91506134ff8261415b565b604082019050919050565b6000613517602a83613a06565b9150613522826141aa565b604082019050919050565b600061353a602583613a06565b9150613545826141f9565b604082019050919050565b600061355d602183613a06565b915061356882614248565b604082019050919050565b6000613580602883613a06565b915061358b82614297565b604082019050919050565b61359f81613c32565b82525050565b6135b66135b182613c32565b613d0d565b82525050565b60006135c882846132ca565b915081905092915050565b60006135df82856135a5565b6020820191506135ef82846135a5565b6020820191508190509392505050565b6000602082019050613614600083018461324e565b92915050565b600060608201905061362f600083018661324e565b61363c602083018561324e565b6136496040830184613596565b949350505050565b6000604082019050613666600083018561324e565b6136736020830184613596565b9392505050565b60006020820190508181036000830152613694818461325d565b905092915050565b60006020820190506136b160008301846132bb565b92915050565b60006020820190506136cc60008301846132fb565b92915050565b600060208201905081810360008301526136ec818461330a565b905092915050565b6000602082019050818103600083015261370d81613343565b9050919050565b6000602082019050818103600083015261372d81613366565b9050919050565b6000602082019050818103600083015261374d81613389565b9050919050565b6000602082019050818103600083015261376d816133ac565b9050919050565b6000602082019050818103600083015261378d816133cf565b9050919050565b600060208201905081810360008301526137ad816133f2565b9050919050565b600060208201905081810360008301526137cd81613415565b9050919050565b600060208201905081810360008301526137ed81613438565b9050919050565b6000602082019050818103600083015261380d8161345b565b9050919050565b6000602082019050818103600083015261382d8161347e565b9050919050565b6000602082019050818103600083015261384d816134a1565b9050919050565b6000602082019050818103600083015261386d816134c4565b9050919050565b6000602082019050818103600083015261388d816134e7565b9050919050565b600060208201905081810360008301526138ad8161350a565b9050919050565b600060208201905081810360008301526138cd8161352d565b9050919050565b600060208201905081810360008301526138ed81613550565b9050919050565b6000602082019050818103600083015261390d81613573565b9050919050565b60006020820190506139296000830184613596565b92915050565b600061393961394a565b90506139458282613c93565b919050565b6000604051905090565b600067ffffffffffffffff82111561396f5761396e613da6565b5b602082029050602081019050919050565b600067ffffffffffffffff82111561399b5761399a613da6565b5b602082029050602081019050919050565b6000819050602082019050919050565b600081519050919050565b600081519050919050565b600081519050919050565b6000602082019050919050565b600082825260208201905092915050565b600081905092915050565b600082825260208201905092915050565b6000808291508390505b6001851115613a6157808604811115613a3d57613a3c613d48565b5b6001851615613a4c5780820291505b8081029050613a5a85613de6565b9450613a21565b94509492505050565b6000613a7582613c32565b9150613a8083613c32565b9250613aad7fffffffffffffffffffffffffffffffffffffffffffffffffffffffffffffffff8484613ab5565b905092915050565b600082613ac55760019050613b81565b81613ad35760009050613b81565b8160018114613ae95760028114613af357613b22565b6001915050613b81565b60ff841115613b0557613b04613d48565b5b8360020a915084821115613b1c57613b1b613d48565b5b50613b81565b5060208310610133831016604e8410600b8410161715613b575782820a905083811115613b5257613b51613d48565b5b613b81565b613b648484846001613a17565b92509050818404811115613b7b57613b7a613d48565b5b81810290505b9392505050565b6000613b9382613c32565b9150613b9e83613c32565b9250817fffffffffffffffffffffffffffffffffffffffffffffffffffffffffffffffff0483118215151615613bd757613bd6613d48565b5b828202905092915050565b6000613bed82613c12565b9050919050565b6000613bff82613c12565b9050919050565b60008115159050919050565b600073ffffffffffffffffffffffffffffffffffffffff82169050919050565b6000819050919050565b6000613c4782613c4e565b9050919050565b6000613c5982613c12565b9050919050565b60005b83811015613c7e578082015181840152602081019050613c63565b83811115613c8d576000848401525b50505050565b613c9c82613dd5565b810181811067ffffffffffffffff82111715613cbb57613cba613da6565b5b80604052505050565b6000613ccf82613c32565b91507fffffffffffffffffffffffffffffffffffffffffffffffffffffffffffffffff821415613d0257613d01613d48565b5b600182019050919050565b6000819050919050565b6000613d2282613c32565b9150613d2d83613c32565b925082613d3d57613d3c613d77565b5b828206905092915050565b7f4e487b7100000000000000000000000000000000000000000000000000000000600052601160045260246000fd5b7f4e487b7100000000000000000000000000000000000000000000000000000000600052601260045260246000fd5b7f4e487b7100000000000000000000000000000000000000000000000000000000600052604160045260246000fd5b6000601f19601f8301169050919050565b60008160011c9050919050565b7f41697264726f703a205374616b6520616d6f756e7420646f6573206e6f74206d60008201527f6565742074686520726571756972656d656e7473000000000000000000000000602082015250565b7f41697264726f703a204163636f756e7420646f6573206e6f74206d656574207460008201527f686520726571756972656d656e74730000000000000000000000000000000000602082015250565b7f41697264726f703a20546865206163636f756e74206973206e6f7420696e207460008201527f68652072656c6174696f6e736869704c69737400000000000000000000000000602082015250565b7f41697264726f703a20546865206163636f756e7420697320616c72656164792060008201527f6f6e207468652072656c6174696f6e736869704c697374000000000000000000602082015250565b7f4f776e61626c653a206e6577206f776e657220697320746865207a65726f206160008201527f6464726573730000000000000000000000000000000000000000000000000000602082015250565b7f416464726573733a20696e73756666696369656e742062616c616e636520666f60008201527f722063616c6c0000000000000000000000000000000000000000000000000000602082015250565b7f41697264726f703a2054686520696e7669746572206163636f756e742069732060008201527f6e6f7420696e207468652072656c6174696f6e736869704c6973740000000000602082015250565b7f41697264726f703a204163636f756e742062616c616e636520646f6573206e6f60008201527f74206d6565742074686520726571756972656d656e7473000000000000000000602082015250565b7f4f776e61626c653a2063616c6c6572206973206e6f7420746865206f776e6572600082015250565b7f41697264726f703a2054686520696e7669746572206163636f756e742063616e60008201527f6e6f7420626520796f757273656c660000000000000000000000000000000000602082015250565b7f41697264726f703a2054686520696e7669746572206163636f756e742069732060008201527f746865207a65726f206164647265737300000000000000000000000000000000602082015250565b7f416464726573733a2063616c6c20746f206e6f6e2d636f6e7472616374000000600082015250565b7f41697264726f703a2054686520696e7669746565206163636f756e742069732060008201527f616c7265616479206f6e207468652061697264726f704c697374000000000000602082015250565b7f5361666545524332303a204552433230206f7065726174696f6e20646964206e60008201527f6f74207375636365656400000000000000000000000000000000000000000000602082015250565b7f41697264726f703a2054686520696e7669746520696e666f206c69737420697360008201527f206e756c6c000000000000000000000000000000000000000000000000000000602082015250565b7f41697264726f703a20546865206163636f756e74206c697374206973206e756c60008201527f6c00000000000000000000000000000000000000000000000000000000000000602082015250565b7f41697264726f703a20546865206163636f756e7420697320746865207a65726f60008201527f2061646472657373000000000000000000000000000000000000000000000000602082015250565b6142ef81613be2565b81146142fa57600080fd5b50565b61430681613bf4565b811461431157600080fd5b50565b61431d81613c06565b811461432857600080fd5b50565b61433481613c32565b811461433f57600080fd5b5056fea2646970667358221220ba07e699abc3f9d6fb7f58438d325216909b50f78efbe6275028cec1289d3bdf64736f6c63430008040033",
  "immutableReferences": {},
  "source": "// SPDX-License-Identifier: MIT\r\npragma solidity ^0.8.0;\r\n\r\nimport \"@openzeppelin/contracts/access/Ownable.sol\";\r\nimport \"@openzeppelin/contracts/utils/math/SafeMath.sol\";\r\nimport \"@openzeppelin/contracts/token/ERC20/utils/SafeERC20.sol\";\r\n\r\ninterface CrowdsaleForRetail {\r\n    function joined(address account) external view returns (uint256);\r\n}\r\n\r\ncontract AirdropUnlimited is Ownable {\r\n    using SafeMath for uint256;\r\n    using SafeERC20 for IERC20;\r\n\r\n    event transferToken(address wallet, address account, uint256 amount);\r\n\r\n    IERC20 public token;\r\n    address public tokenWallet;\r\n    uint256 public minDAOBalanceAmount;\r\n    uint256 public minDATStakeAmount;\r\n    uint256 public airdropMaxAmount;\r\n    address public crowdsaleForRetailAddress;\r\n\r\n    CrowdsaleForRetail private crowdsaleForRetail;\r\n\r\n    bool public checkRelationshipListSwitch = false;\r\n    bool public checkDAOBalanceOrDATStakeSwitch = true;\r\n    bool public checkDAOBalanceSwitch = false;\r\n    bool public checkDATStakeSwitch = false;\r\n\r\n    // relationshipList\r\n    struct Relationship {\r\n        address token;\r\n        bool isRemove;\r\n        address[] member;\r\n    }\r\n    mapping (address => Relationship) private _relationshipList;\r\n\r\n    // Record the information of all invited personnel\r\n    struct InviteInfo {\r\n        address inviterToken;\r\n        uint256 airdropAmount;\r\n    }\r\n    mapping (address => InviteInfo) public airdropList;\r\n\r\n    // Report Record the information of all invited personnel\r\n    struct ReportInviteInfo {\r\n        address token;\r\n        address inviterToken;\r\n        uint256 amount;\r\n    }\r\n\r\n    constructor(\r\n        IERC20 _token,\r\n        address _tokenWallet,\r\n        uint256 _minDAOBalanceAmount,\r\n        uint256 _minDATStakeAmount,\r\n        uint256 _airdropMaxAmount,\r\n        address _crowdsaleForRetailAddress\r\n    ) Ownable() {\r\n        require(address(_token) != address(0), \"Airdrop: The token is the zero address\");\r\n        require(_tokenWallet != address(0), \"Airdrop: The token wallet is the zero address\");\r\n\r\n        token = _token;\r\n        tokenWallet = _tokenWallet;\r\n        minDAOBalanceAmount = _minDAOBalanceAmount;\r\n        minDATStakeAmount = _minDATStakeAmount;\r\n        airdropMaxAmount = _airdropMaxAmount;\r\n        crowdsaleForRetailAddress = _crowdsaleForRetailAddress;\r\n\r\n        crowdsaleForRetail = CrowdsaleForRetail(_crowdsaleForRetailAddress);\r\n    }\r\n\r\n    // set minDAOBalanceAmount\r\n    function setMinDAOBalanceAmount(uint256 amount) public onlyOwner {\r\n        minDAOBalanceAmount = amount;\r\n    }\r\n    // set minDATStakeAmount\r\n    function setMinDATStakeAmount(uint256 amount) public onlyOwner {\r\n        minDATStakeAmount = amount;\r\n    }\r\n    // set airdropMaxAmount\r\n    function setAirdropMaxAmount(uint256 amount) public onlyOwner {\r\n        airdropMaxAmount = amount;\r\n    }\r\n    // open and close checkRelationshipListSwitch\r\n    function openCheckRelationshipListSwitch() public onlyOwner {\r\n        checkRelationshipListSwitch = true;\r\n    }\r\n    function closeCheckRelationshipListSwitch() public onlyOwner {\r\n        checkRelationshipListSwitch = false;\r\n    }\r\n    // open and close checkDAOBalanceOrDATStakeSwitch\r\n    function openCheckDAOBalanceOrDATStakeSwitch() public onlyOwner {\r\n        checkDAOBalanceOrDATStakeSwitch = true;\r\n    }\r\n    function closeCheckDAOBalanceOrDATStakeSwitch() public onlyOwner {\r\n        checkDAOBalanceOrDATStakeSwitch = false;\r\n    }\r\n    // open and close checkDAOBalanceSwitch\r\n    function openCheckDAOBalanceSwitch() public onlyOwner {\r\n        checkDAOBalanceSwitch = true;\r\n    }\r\n    function closeCheckDAOBalanceSwitch() public onlyOwner {\r\n        checkDAOBalanceSwitch = false;\r\n    }\r\n    // open and close checkDATStakeSwitch\r\n    function openCheckDATStakeSwitch() public onlyOwner {\r\n        checkDATStakeSwitch = true;\r\n    }\r\n    function closeCheckDATStakeSwitch() public onlyOwner {\r\n        checkDATStakeSwitch = false;\r\n    }\r\n\r\n    /**\r\n     * @dev get DAO balance amount of account.\r\n     * @param account the address\r\n     * @return uint256\r\n     */\r\n    function getDaoBalance(address account) public onlyOwner view returns (uint256) {\r\n        return token.balanceOf(account);\r\n    }\r\n\r\n    /**\r\n     * @dev get DAT stake amount of account.\r\n     * @param account the address\r\n     * @return uint256\r\n     */\r\n    function getDatStake(address account) public onlyOwner view returns (uint256) {\r\n        return crowdsaleForRetail.joined(account);\r\n    }\r\n\r\n    /**\r\n     * @dev get member list from the relationshipList by owner\r\n     */\r\n    function getMemberListByOwner(address account) public onlyOwner view returns (address[] memory) {\r\n        return _getMemberList(account);\r\n    }\r\n\r\n    /**\r\n     * @dev get member list from the relationshipList by owner\r\n     */\r\n    function getMemberList() public view returns (address[] memory) {\r\n        require(hasRelationshipList(msg.sender), \"Airdrop: The account is not in the relationshipList\");\r\n        return _getMemberList(msg.sender);\r\n    }\r\n\r\n    /**\r\n     * @dev get member list from the relationshipList\r\n     */\r\n    function _getMemberList(address account) internal view returns (address[] memory) {\r\n        Relationship memory info = _relationshipList[account];\r\n        return info.member;\r\n    }\r\n\r\n    /**\r\n     * @dev remove single account from the relationshipList by owner\r\n     * @param account the address of relationshipList\r\n     */\r\n    function removeFromRelationshipList(address account) public onlyOwner {\r\n        require(hasRelationshipList(account), \"Airdrop: The account is not in the relationshipList\");\r\n        Relationship storage info = _relationshipList[account];\r\n        info.isRemove = true;\r\n    }\r\n\r\n    /**\r\n     * @dev add account list to the relationshipList by owner\r\n     * @param accountList the address of relationshipList\r\n     */\r\n    function addMutliToRelationshipList(address[] memory accountList) public onlyOwner {\r\n        require(accountList.length > 0, \"Airdrop: The account list is null\");\r\n        for (uint i = 0; i < accountList.length; i++) {\r\n            _addToRelationshipList(accountList[i]);\r\n        }\r\n    }\r\n\r\n    /**\r\n     * @dev add single account to the relationshipList by owner\r\n     * @param account the address of relationshipList\r\n     */\r\n    function addToRelationshipList(address account) public onlyOwner {\r\n        require(!hasRelationshipList(account), \"Airdrop: The account is already on the relationshipList\");\r\n        _addToRelationshipList(account);\r\n    }\r\n\r\n    /**\r\n     * @dev add account to the relationshipList\r\n     * @param account the address of relationshipList\r\n     */\r\n    function _addToRelationshipList(address account) internal {\r\n        Relationship storage info = _relationshipList[account];\r\n        if (info.token != address(0)) {\r\n            info.isRemove = false;\r\n        } else {\r\n            _relationshipList[account] = Relationship(account, false, new address[](0));\r\n        }\r\n    }\r\n\r\n    /**\r\n     * @dev add account list to the airdropList by owner\r\n     * @param list the address of airdropList\r\n     */\r\n    function addMutliToAirdropList(ReportInviteInfo[] memory list) public onlyOwner {\r\n        require(list.length > 0, \"Airdrop: The invite info list is null\");\r\n        for (uint i = 0; i < list.length; i++) {\r\n            ReportInviteInfo memory reportInfo = list[i];\r\n            if (reportInfo.amount >= 0 && !hasAirdropList(reportInfo.token)) {\r\n                uint256 formatAmount = reportInfo.amount * (10**uint256(18));\r\n                _receiveAirdrop(reportInfo.token, reportInfo.inviterToken, formatAmount, false);\r\n            }\r\n        }\r\n    }\r\n\r\n    /**\r\n     * @dev Check if an account has this relationshipList.\r\n     * @param account the address of relationshipList\r\n     * @return bool\r\n     */\r\n    function hasRelationshipList(address account) public view returns (bool) {\r\n        require(address(account) != address(0), \"Airdrop: The account is the zero address\");\r\n        Relationship memory relationshipListInfo = _relationshipList[account];\r\n        return relationshipListInfo.token != address(0) && !relationshipListInfo.isRemove;\r\n    }\r\n\r\n    /**\r\n     * @dev Check if an account has this airdroplist.\r\n     * @param account the address\r\n     * @return bool\r\n     */\r\n    function hasAirdropList(address account) public view returns (bool) {\r\n        require(address(account) != address(0), \"Airdrop: The account is the zero address\");\r\n        InviteInfo memory inviteInfo = airdropList[account];\r\n        return inviteInfo.inviterToken != address(0);\r\n    }\r\n\r\n    /**\r\n     * @dev Check if an account DAO balance.\r\n     * @param account the address\r\n     * @return bool\r\n     */\r\n    function checkDaoBalance(address account) public view returns (bool) {\r\n        uint256 accountBalance = token.balanceOf(account);\r\n        uint256 formatMinDAOBalanceAmount = minDAOBalanceAmount * (10**uint256(18));\r\n        return accountBalance >= formatMinDAOBalanceAmount;\r\n    }\r\n\r\n    /**\r\n     * @dev Check if an account DAO balance.\r\n     * @param account the address\r\n     * @return bool\r\n     */\r\n    function checkDatStake(address account) public view returns (bool) {\r\n        uint256 accountStakeAmount = crowdsaleForRetail.joined(account);\r\n        uint256 formatMinDATStakeAmount = minDATStakeAmount * (10**uint256(18));\r\n        return accountStakeAmount >= formatMinDATStakeAmount;\r\n    }\r\n\r\n    /**\r\n     * @dev Receive airdrop\r\n     * @param inviterAccount the account of receive's inviter\r\n     */\r\n    function receiveAirdrop(address inviterAccount) public {\r\n        require(inviterAccount != address(0), \"Airdrop: The inviter account is the zero address\");\r\n        require(inviterAccount != msg.sender, \"Airdrop: The inviter account cannot be yourself\");\r\n        require(!hasAirdropList(msg.sender), \"Airdrop: The invitee account is already on the airdropList\");\r\n\r\n        if (checkRelationshipListSwitch) {\r\n            require(hasRelationshipList(inviterAccount), \"Airdrop: The inviter account is not in the relationshipList\");\r\n        }\r\n        if (checkDAOBalanceOrDATStakeSwitch) {\r\n            require(checkDaoBalance(inviterAccount) || checkDatStake(inviterAccount), \"Airdrop: Account does not meet the requirements\");\r\n        } else {\r\n            if (checkDAOBalanceSwitch) {\r\n                require(checkDaoBalance(inviterAccount), \"Airdrop: Account balance does not meet the requirements\");\r\n            }\r\n            if (checkDATStakeSwitch) {\r\n                require(checkDatStake(inviterAccount), \"Airdrop: Stake amount does not meet the requirements\");\r\n            }\r\n        }\r\n\r\n        // random to airdrop amount\r\n        uint256 actualAmount = _getActualAmount();\r\n\r\n        // exec receiveAirdrop\r\n        _receiveAirdrop(msg.sender, inviterAccount, actualAmount, true);\r\n    }\r\n\r\n    /**\r\n     * @dev Receive airdrop\r\n     * @param currentAccount the account of operationer\r\n     * @param inviterAccount the account of receive's inviter\r\n     * @param amount Get actual amount\r\n     * @param isTransfer Whether to transfer\r\n     */\r\n    function _receiveAirdrop(address currentAccount, address inviterAccount, uint256 amount, bool isTransfer) private {\r\n        // add to airdropList\r\n        airdropList[currentAccount] = InviteInfo(inviterAccount, amount);\r\n        \r\n        // add to relationshipList member\r\n        Relationship storage relationshipListInfo = _relationshipList[inviterAccount];\r\n        if (relationshipListInfo.token != address(0)) {\r\n            relationshipListInfo.member.push(currentAccount);\r\n        } else {\r\n            _relationshipList[inviterAccount] = Relationship(inviterAccount, false, new address[](0));\r\n            _relationshipList[inviterAccount].member.push(currentAccount);\r\n        }\r\n        \r\n        if (isTransfer) {\r\n            // transfer token to receive account\r\n            token.safeTransferFrom(tokenWallet, currentAccount, amount);\r\n            \r\n            emit transferToken(tokenWallet, currentAccount, amount);\r\n        }\r\n    }\r\n\r\n    /**\r\n     * @dev Get actual amount\r\n     */\r\n    function _getActualAmount() internal view returns(uint256) {\r\n        // random to airdrop amount\r\n        uint256 randomAmount = _rand(airdropMaxAmount);\r\n        if (randomAmount < 1) {\r\n            randomAmount = 1;\r\n        } else if (randomAmount > airdropMaxAmount) {\r\n            randomAmount = airdropMaxAmount;\r\n        }\r\n        uint256 actualAmount = randomAmount * (10**uint256(18));\r\n        return actualAmount;\r\n    }\r\n\r\n    /**\r\n     * @dev Generate random numbers\r\n     * @param length Random number range\r\n     */\r\n    function _rand(uint256 length) internal view returns(uint256) {\r\n        uint256 random = uint256(keccak256(abi.encodePacked(block.difficulty, block.timestamp)));\r\n        return random % length;\r\n    }\r\n\r\n    function killSelf(address payable recipientToken) public onlyOwner {\r\n        uint256 contractBalance = token.balanceOf(address(this));\r\n        token.safeTransfer(recipientToken, contractBalance);\r\n\r\n        selfdestruct(recipientToken);\r\n    }\r\n}\r\n",
  "sourcePath": "D:/Workspaces/DaoswapDex/daoswapdex-heco-testnet/core-airdrop/contracts/AirdropUnlimited.sol",
  "compiler": {
    "name": "solc",
    "version": "0.8.4+commit.c7e474f2.Emscripten.clang"
  },
  "schemaVersion": "3.4.1",
  "updatedAt": "2021-08-13T01:34:55.835Z",
  "networkType": "ethereum",
  "devdoc": {
    "kind": "dev",
    "methods": {
      "addMutliToAirdropList((address,address,uint256)[])": {
        "details": "add account list to the airdropList by owner",
        "params": {
          "list": "the address of airdropList"
        }
      },
      "addMutliToRelationshipList(address[])": {
        "details": "add account list to the relationshipList by owner",
        "params": {
          "accountList": "the address of relationshipList"
        }
      },
      "addToRelationshipList(address)": {
        "details": "add single account to the relationshipList by owner",
        "params": {
          "account": "the address of relationshipList"
        }
      },
      "checkDaoBalance(address)": {
        "details": "Check if an account DAO balance.",
        "params": {
          "account": "the address"
        },
        "returns": {
          "_0": "bool"
        }
      },
      "checkDatStake(address)": {
        "details": "Check if an account DAO balance.",
        "params": {
          "account": "the address"
        },
        "returns": {
          "_0": "bool"
        }
      },
      "getDaoBalance(address)": {
        "details": "get DAO balance amount of account.",
        "params": {
          "account": "the address"
        },
        "returns": {
          "_0": "uint256"
        }
      },
      "getDatStake(address)": {
        "details": "get DAT stake amount of account.",
        "params": {
          "account": "the address"
        },
        "returns": {
          "_0": "uint256"
        }
      },
      "getMemberList()": {
        "details": "get member list from the relationshipList by owner"
      },
      "getMemberListByOwner(address)": {
        "details": "get member list from the relationshipList by owner"
      },
      "hasAirdropList(address)": {
        "details": "Check if an account has this airdroplist.",
        "params": {
          "account": "the address"
        },
        "returns": {
          "_0": "bool"
        }
      },
      "hasRelationshipList(address)": {
        "details": "Check if an account has this relationshipList.",
        "params": {
          "account": "the address of relationshipList"
        },
        "returns": {
          "_0": "bool"
        }
      },
      "owner()": {
        "details": "Returns the address of the current owner."
      },
      "receiveAirdrop(address)": {
        "details": "Receive airdrop",
        "params": {
          "inviterAccount": "the account of receive's inviter"
        }
      },
      "removeFromRelationshipList(address)": {
        "details": "remove single account from the relationshipList by owner",
        "params": {
          "account": "the address of relationshipList"
        }
      },
      "renounceOwnership()": {
        "details": "Leaves the contract without owner. It will not be possible to call `onlyOwner` functions anymore. Can only be called by the current owner. NOTE: Renouncing ownership will leave the contract without an owner, thereby removing any functionality that is only available to the owner."
      },
      "transferOwnership(address)": {
        "details": "Transfers ownership of the contract to a new account (`newOwner`). Can only be called by the current owner."
      }
    },
    "version": 1
  },
  "userdoc": {
    "kind": "user",
    "methods": {},
    "version": 1
  }
}