{
  "contractName": "AirdropUnlimited",
  "abi": [
    {
      "inputs": [
        {
          "internalType": "contract IERC20",
          "name": "_token",
          "type": "address"
        },
        {
          "internalType": "address",
          "name": "_tokenWallet",
          "type": "address"
        },
        {
          "internalType": "uint256",
          "name": "_minDATBalanceAmount",
          "type": "uint256"
        },
        {
          "internalType": "uint256",
          "name": "_minDATStakeAmount",
          "type": "uint256"
        },
        {
          "internalType": "uint256",
          "name": "_airdropMaxAmount",
          "type": "uint256"
        },
        {
          "internalType": "address",
          "name": "_crowdsaleForRetailAddress",
          "type": "address"
        },
        {
          "internalType": "contract IERC20",
          "name": "_crowdsaleToken",
          "type": "address"
        }
      ],
      "stateMutability": "nonpayable",
      "type": "constructor"
    },
    {
      "anonymous": false,
      "inputs": [
        {
          "indexed": true,
          "internalType": "address",
          "name": "previousOwner",
          "type": "address"
        },
        {
          "indexed": true,
          "internalType": "address",
          "name": "newOwner",
          "type": "address"
        }
      ],
      "name": "OwnershipTransferred",
      "type": "event"
    },
    {
      "anonymous": false,
      "inputs": [
        {
          "indexed": false,
          "internalType": "address",
          "name": "wallet",
          "type": "address"
        },
        {
          "indexed": false,
          "internalType": "address",
          "name": "account",
          "type": "address"
        },
        {
          "indexed": false,
          "internalType": "uint256",
          "name": "amount",
          "type": "uint256"
        }
      ],
      "name": "transferToken",
      "type": "event"
    },
    {
      "inputs": [
        {
          "internalType": "address",
          "name": "",
          "type": "address"
        }
      ],
      "name": "airdropList",
      "outputs": [
        {
          "internalType": "address",
          "name": "inviterToken",
          "type": "address"
        },
        {
          "internalType": "uint256",
          "name": "airdropAmount",
          "type": "uint256"
        }
      ],
      "stateMutability": "view",
      "type": "function",
      "constant": true
    },
    {
      "inputs": [],
      "name": "airdropMaxAmount",
      "outputs": [
        {
          "internalType": "uint256",
          "name": "",
          "type": "uint256"
        }
      ],
      "stateMutability": "view",
      "type": "function",
      "constant": true
    },
    {
      "inputs": [],
      "name": "checkDATBalanceOrDATStakeSwitch",
      "outputs": [
        {
          "internalType": "bool",
          "name": "",
          "type": "bool"
        }
      ],
      "stateMutability": "view",
      "type": "function",
      "constant": true
    },
    {
      "inputs": [],
      "name": "checkDATBalanceSwitch",
      "outputs": [
        {
          "internalType": "bool",
          "name": "",
          "type": "bool"
        }
      ],
      "stateMutability": "view",
      "type": "function",
      "constant": true
    },
    {
      "inputs": [],
      "name": "checkDATStakeSwitch",
      "outputs": [
        {
          "internalType": "bool",
          "name": "",
          "type": "bool"
        }
      ],
      "stateMutability": "view",
      "type": "function",
      "constant": true
    },
    {
      "inputs": [],
      "name": "checkRelationshipListSwitch",
      "outputs": [
        {
          "internalType": "bool",
          "name": "",
          "type": "bool"
        }
      ],
      "stateMutability": "view",
      "type": "function",
      "constant": true
    },
    {
      "inputs": [],
      "name": "crowdsaleForRetailAddress",
      "outputs": [
        {
          "internalType": "address",
          "name": "",
          "type": "address"
        }
      ],
      "stateMutability": "view",
      "type": "function",
      "constant": true
    },
    {
      "inputs": [],
      "name": "crowdsaleToken",
      "outputs": [
        {
          "internalType": "contract IERC20",
          "name": "",
          "type": "address"
        }
      ],
      "stateMutability": "view",
      "type": "function",
      "constant": true
    },
    {
      "inputs": [],
      "name": "minDATBalanceAmount",
      "outputs": [
        {
          "internalType": "uint256",
          "name": "",
          "type": "uint256"
        }
      ],
      "stateMutability": "view",
      "type": "function",
      "constant": true
    },
    {
      "inputs": [],
      "name": "minDATStakeAmount",
      "outputs": [
        {
          "internalType": "uint256",
          "name": "",
          "type": "uint256"
        }
      ],
      "stateMutability": "view",
      "type": "function",
      "constant": true
    },
    {
      "inputs": [],
      "name": "owner",
      "outputs": [
        {
          "internalType": "address",
          "name": "",
          "type": "address"
        }
      ],
      "stateMutability": "view",
      "type": "function",
      "constant": true
    },
    {
      "inputs": [],
      "name": "renounceOwnership",
      "outputs": [],
      "stateMutability": "nonpayable",
      "type": "function"
    },
    {
      "inputs": [],
      "name": "token",
      "outputs": [
        {
          "internalType": "contract IERC20",
          "name": "",
          "type": "address"
        }
      ],
      "stateMutability": "view",
      "type": "function",
      "constant": true
    },
    {
      "inputs": [],
      "name": "tokenWallet",
      "outputs": [
        {
          "internalType": "address",
          "name": "",
          "type": "address"
        }
      ],
      "stateMutability": "view",
      "type": "function",
      "constant": true
    },
    {
      "inputs": [
        {
          "internalType": "address",
          "name": "newOwner",
          "type": "address"
        }
      ],
      "name": "transferOwnership",
      "outputs": [],
      "stateMutability": "nonpayable",
      "type": "function"
    },
    {
      "inputs": [
        {
          "internalType": "uint256",
          "name": "amount",
          "type": "uint256"
        }
      ],
      "name": "setMinDATBalanceAmount",
      "outputs": [],
      "stateMutability": "nonpayable",
      "type": "function"
    },
    {
      "inputs": [
        {
          "internalType": "uint256",
          "name": "amount",
          "type": "uint256"
        }
      ],
      "name": "setMinDATStakeAmount",
      "outputs": [],
      "stateMutability": "nonpayable",
      "type": "function"
    },
    {
      "inputs": [
        {
          "internalType": "uint256",
          "name": "amount",
          "type": "uint256"
        }
      ],
      "name": "setAirdropMaxAmount",
      "outputs": [],
      "stateMutability": "nonpayable",
      "type": "function"
    },
    {
      "inputs": [],
      "name": "openCheckRelationshipListSwitch",
      "outputs": [],
      "stateMutability": "nonpayable",
      "type": "function"
    },
    {
      "inputs": [],
      "name": "closeCheckRelationshipListSwitch",
      "outputs": [],
      "stateMutability": "nonpayable",
      "type": "function"
    },
    {
      "inputs": [],
      "name": "openCheckDATBalanceOrDATStakeSwitch",
      "outputs": [],
      "stateMutability": "nonpayable",
      "type": "function"
    },
    {
      "inputs": [],
      "name": "closeCheckDATBalanceOrDATStakeSwitch",
      "outputs": [],
      "stateMutability": "nonpayable",
      "type": "function"
    },
    {
      "inputs": [],
      "name": "openCheckDATBalanceSwitch",
      "outputs": [],
      "stateMutability": "nonpayable",
      "type": "function"
    },
    {
      "inputs": [],
      "name": "closeCheckDATBalanceSwitch",
      "outputs": [],
      "stateMutability": "nonpayable",
      "type": "function"
    },
    {
      "inputs": [],
      "name": "openCheckDATStakeSwitch",
      "outputs": [],
      "stateMutability": "nonpayable",
      "type": "function"
    },
    {
      "inputs": [],
      "name": "closeCheckDATStakeSwitch",
      "outputs": [],
      "stateMutability": "nonpayable",
      "type": "function"
    },
    {
      "inputs": [
        {
          "internalType": "address",
          "name": "account",
          "type": "address"
        }
      ],
      "name": "getDatBalance",
      "outputs": [
        {
          "internalType": "uint256",
          "name": "",
          "type": "uint256"
        }
      ],
      "stateMutability": "view",
      "type": "function",
      "constant": true
    },
    {
      "inputs": [
        {
          "internalType": "address",
          "name": "account",
          "type": "address"
        }
      ],
      "name": "getDatStake",
      "outputs": [
        {
          "internalType": "uint256",
          "name": "",
          "type": "uint256"
        }
      ],
      "stateMutability": "view",
      "type": "function",
      "constant": true
    },
    {
      "inputs": [
        {
          "internalType": "address",
          "name": "account",
          "type": "address"
        }
      ],
      "name": "getMemberListByOwner",
      "outputs": [
        {
          "internalType": "address[]",
          "name": "",
          "type": "address[]"
        }
      ],
      "stateMutability": "view",
      "type": "function",
      "constant": true
    },
    {
      "inputs": [],
      "name": "getMemberList",
      "outputs": [
        {
          "internalType": "address[]",
          "name": "",
          "type": "address[]"
        }
      ],
      "stateMutability": "view",
      "type": "function",
      "constant": true
    },
    {
      "inputs": [
        {
          "internalType": "address",
          "name": "account",
          "type": "address"
        }
      ],
      "name": "removeFromRelationshipList",
      "outputs": [],
      "stateMutability": "nonpayable",
      "type": "function"
    },
    {
      "inputs": [
        {
          "internalType": "address[]",
          "name": "accountList",
          "type": "address[]"
        }
      ],
      "name": "addMutliToRelationshipList",
      "outputs": [],
      "stateMutability": "nonpayable",
      "type": "function"
    },
    {
      "inputs": [
        {
          "internalType": "address",
          "name": "account",
          "type": "address"
        }
      ],
      "name": "addToRelationshipList",
      "outputs": [],
      "stateMutability": "nonpayable",
      "type": "function"
    },
    {
      "inputs": [
        {
          "components": [
            {
              "internalType": "address",
              "name": "token",
              "type": "address"
            },
            {
              "internalType": "address",
              "name": "inviterToken",
              "type": "address"
            },
            {
              "internalType": "uint256",
              "name": "amount",
              "type": "uint256"
            }
          ],
          "internalType": "struct AirdropUnlimited.ReportInviteInfo[]",
          "name": "list",
          "type": "tuple[]"
        }
      ],
      "name": "addMutliToAirdropList",
      "outputs": [],
      "stateMutability": "nonpayable",
      "type": "function"
    },
    {
      "inputs": [
        {
          "internalType": "address",
          "name": "account",
          "type": "address"
        }
      ],
      "name": "hasRelationshipList",
      "outputs": [
        {
          "internalType": "bool",
          "name": "",
          "type": "bool"
        }
      ],
      "stateMutability": "view",
      "type": "function",
      "constant": true
    },
    {
      "inputs": [
        {
          "internalType": "address",
          "name": "account",
          "type": "address"
        }
      ],
      "name": "hasAirdropList",
      "outputs": [
        {
          "internalType": "bool",
          "name": "",
          "type": "bool"
        }
      ],
      "stateMutability": "view",
      "type": "function",
      "constant": true
    },
    {
      "inputs": [
        {
          "internalType": "address",
          "name": "account",
          "type": "address"
        }
      ],
      "name": "checkDatBalance",
      "outputs": [
        {
          "internalType": "bool",
          "name": "",
          "type": "bool"
        }
      ],
      "stateMutability": "view",
      "type": "function",
      "constant": true
    },
    {
      "inputs": [
        {
          "internalType": "address",
          "name": "account",
          "type": "address"
        }
      ],
      "name": "checkDatStake",
      "outputs": [
        {
          "internalType": "bool",
          "name": "",
          "type": "bool"
        }
      ],
      "stateMutability": "view",
      "type": "function",
      "constant": true
    },
    {
      "inputs": [
        {
          "internalType": "address",
          "name": "inviterAccount",
          "type": "address"
        }
      ],
      "name": "receiveAirdrop",
      "outputs": [],
      "stateMutability": "nonpayable",
      "type": "function"
    },
    {
      "inputs": [
        {
          "internalType": "address payable",
          "name": "recipientToken",
          "type": "address"
        }
      ],
      "name": "killSelf",
      "outputs": [],
      "stateMutability": "nonpayable",
      "type": "function"
    }
  ],
  "bytecode": "0x60806040526000600860146101000a81548160ff0219169083151502179055506001600860156101000a81548160ff0219169083151502179055506000600860166101000a81548160ff0219169083151502179055506000600860176101000a81548160ff0219169083151502179055503480156200007d57600080fd5b5060405162004a8538038062004a858339818101604052810190620000a3919062000421565b620000c3620000b76200031060201b60201c565b6200031860201b60201c565b600073ffffffffffffffffffffffffffffffffffffffff168773ffffffffffffffffffffffffffffffffffffffff16141562000136576040517f08c379a00000000000000000000000000000000000000000000000000000000081526004016200012d906200051c565b60405180910390fd5b600073ffffffffffffffffffffffffffffffffffffffff168673ffffffffffffffffffffffffffffffffffffffff161415620001a9576040517f08c379a0000000000000000000000000000000000000000000000000000000008152600401620001a0906200053e565b60405180910390fd5b86600160006101000a81548173ffffffffffffffffffffffffffffffffffffffff021916908373ffffffffffffffffffffffffffffffffffffffff16021790555085600260006101000a81548173ffffffffffffffffffffffffffffffffffffffff021916908373ffffffffffffffffffffffffffffffffffffffff16021790555084600381905550836004819055508260058190555081600660006101000a81548173ffffffffffffffffffffffffffffffffffffffff021916908373ffffffffffffffffffffffffffffffffffffffff16021790555080600760006101000a81548173ffffffffffffffffffffffffffffffffffffffff021916908373ffffffffffffffffffffffffffffffffffffffff16021790555081600860006101000a81548173ffffffffffffffffffffffffffffffffffffffff021916908373ffffffffffffffffffffffffffffffffffffffff16021790555050505050505050620006af565b600033905090565b60008060009054906101000a900473ffffffffffffffffffffffffffffffffffffffff169050816000806101000a81548173ffffffffffffffffffffffffffffffffffffffff021916908373ffffffffffffffffffffffffffffffffffffffff1602179055508173ffffffffffffffffffffffffffffffffffffffff168173ffffffffffffffffffffffffffffffffffffffff167f8be0079c531659141344cd1fd0a4f28419497f9722a3daafe3b4186f6b6457e060405160405180910390a35050565b600081519050620003ed8162000661565b92915050565b60008151905062000404816200067b565b92915050565b6000815190506200041b8162000695565b92915050565b600080600080600080600060e0888a0312156200043d57600080fd5b60006200044d8a828b01620003f3565b9750506020620004608a828b01620003dc565b9650506040620004738a828b016200040a565b9550506060620004868a828b016200040a565b9450506080620004998a828b016200040a565b93505060a0620004ac8a828b01620003dc565b92505060c0620004bf8a828b01620003f3565b91505092959891949750929550565b6000620004dd60268362000560565b9150620004ea82620005c3565b604082019050919050565b600062000504602d8362000560565b9150620005118262000612565b604082019050919050565b600060208201905081810360008301526200053781620004ce565b9050919050565b600060208201905081810360008301526200055981620004f5565b9050919050565b600082825260208201905092915050565b60006200057e8262000599565b9050919050565b6000620005928262000571565b9050919050565b600073ffffffffffffffffffffffffffffffffffffffff82169050919050565b6000819050919050565b7f41697264726f703a2054686520746f6b656e20697320746865207a65726f206160008201527f6464726573730000000000000000000000000000000000000000000000000000602082015250565b7f41697264726f703a2054686520746f6b656e2077616c6c65742069732074686560008201527f207a65726f206164647265737300000000000000000000000000000000000000602082015250565b6200066c8162000571565b81146200067857600080fd5b50565b620006868162000585565b81146200069257600080fd5b50565b620006a081620005b9565b8114620006ac57600080fd5b50565b6143c680620006bf6000396000f3fe608060405234801561001057600080fd5b50600436106102475760003560e01c80638c2388141161013b578063cdb208ca116100b8578063f1d748fd1161007c578063f1d748fd14610621578063f2fde38b14610651578063f77348121461066d578063fa65dfac14610689578063fc0c546a146106a757610247565b8063cdb208ca146105a1578063d231c5af146105ab578063d6e1360e146105db578063e5962750146105f9578063f02e1fcd1461061757610247565b8063b0b99e43116100ff578063b0b99e43146104fd578063b4f26b8a14610519578063be5a60ce14610535578063bff99c6c14610553578063ca4cf14f1461057157610247565b80638c238814146104575780638d220353146104755780638d59b3a7146104915780638da5cb5b146104c15780638f3fd507146104df57610247565b806341cd9cd7116101c95780636f99f5371161018d5780636f99f537146103d9578063715018a6146103f7578063775e884f14610401578063776637b41461041d5780638bee35dd1461044d57610247565b806341cd9cd71461033457806358cf77fa146103645780635a689270146103955780635f5d5f00146103b1578063644cfecc146103cf57610247565b806324a490951161021057806324a49095146102925780632ec94efd146102ae5780632ef86e29146102de57806330aff60d146102fc5780633a507d7d1461031857610247565b8062d652e81461024c5780630b7591cd1461025657806313777e941461026057806318f15d651461026a5780631bbff98414610288575b600080fd5b6102546106c5565b005b61025e61075e565b005b6102686107f7565b005b610272610890565b60405161027f9190613962565b60405180910390f35b610290610896565b005b6102ac60048036038101906102a79190613223565b61092f565b005b6102c860048036038101906102c39190613126565b6109b5565b6040516102d59190613962565b60405180910390f35b6102e6610ae5565b6040516102f39190613962565b60405180910390f35b61031660048036038101906103119190613223565b610aeb565b005b610332600480360381019061032d919061314f565b610b71565b005b61034e60048036038101906103499190613126565b610d02565b60405161035b91906136ea565b60405180910390f35b61037e60048036038101906103799190613126565b610f0b565b60405161038c92919061369f565b60405180910390f35b6103af60048036038101906103aa9190613126565b610f4f565b005b6103b9611077565b6040516103c691906136c8565b60405180910390f35b6103d76110cf565b005b6103e1611168565b6040516103ee91906136ea565b60405180910390f35b6103ff61117b565b005b61041b60048036038101906104169190613223565b611203565b005b61043760048036038101906104329190613126565b611289565b60405161044491906136ea565b60405180910390f35b610455611365565b005b61045f6113fe565b60405161046c9190613962565b60405180910390f35b61048f600480360381019061048a9190613126565b611404565b005b6104ab60048036038101906104a69190613126565b6114d5565b6040516104b891906136ea565b60405180910390f35b6104c9611631565b6040516104d6919061364d565b60405180910390f35b6104e761165a565b6040516104f4919061364d565b60405180910390f35b610517600480360381019061051291906131b9565b611680565b005b610533600480360381019061052e9190613178565b611805565b005b61053d611931565b60405161054a91906136ea565b60405180910390f35b61055b611944565b604051610568919061364d565b60405180910390f35b61058b60048036038101906105869190613126565b61196a565b60405161059891906136c8565b60405180910390f35b6105a96119f8565b005b6105c560048036038101906105c09190613126565b611a91565b6040516105d291906136ea565b60405180910390f35b6105e3611b6d565b6040516105f091906136ea565b60405180910390f35b610601611b80565b60405161060e91906136ea565b60405180910390f35b61061f611b93565b005b61063b60048036038101906106369190613126565b611c2c565b6040516106489190613962565b60405180910390f35b61066b60048036038101906106669190613126565b611d5c565b005b61068760048036038101906106829190613126565b611e54565b005b610691612126565b60405161069e9190613705565b60405180910390f35b6106af61214c565b6040516106bc9190613705565b60405180910390f35b6106cd612172565b73ffffffffffffffffffffffffffffffffffffffff166106eb611631565b73ffffffffffffffffffffffffffffffffffffffff1614610741576040517f08c379a000000000000000000000000000000000000000000000000000000000815260040161073890613842565b60405180910390fd5b6001600860166101000a81548160ff021916908315150217905550565b610766612172565b73ffffffffffffffffffffffffffffffffffffffff16610784611631565b73ffffffffffffffffffffffffffffffffffffffff16146107da576040517f08c379a00000000000000000000000000000000000000000000000000000000081526004016107d190613842565b60405180910390fd5b6001600860156101000a81548160ff021916908315150217905550565b6107ff612172565b73ffffffffffffffffffffffffffffffffffffffff1661081d611631565b73ffffffffffffffffffffffffffffffffffffffff1614610873576040517f08c379a000000000000000000000000000000000000000000000000000000000815260040161086a90613842565b60405180910390fd5b6000600860156101000a81548160ff021916908315150217905550565b60055481565b61089e612172565b73ffffffffffffffffffffffffffffffffffffffff166108bc611631565b73ffffffffffffffffffffffffffffffffffffffff1614610912576040517f08c379a000000000000000000000000000000000000000000000000000000000815260040161090990613842565b60405180910390fd5b6001600860176101000a81548160ff021916908315150217905550565b610937612172565b73ffffffffffffffffffffffffffffffffffffffff16610955611631565b73ffffffffffffffffffffffffffffffffffffffff16146109ab576040517f08c379a00000000000000000000000000000000000000000000000000000000081526004016109a290613842565b60405180910390fd5b8060048190555050565b60006109bf612172565b73ffffffffffffffffffffffffffffffffffffffff166109dd611631565b73ffffffffffffffffffffffffffffffffffffffff1614610a33576040517f08c379a0000000000000000000000000000000000000000000000000000000008152600401610a2a90613842565b60405180910390fd5b600860009054906101000a900473ffffffffffffffffffffffffffffffffffffffff1673ffffffffffffffffffffffffffffffffffffffff1663f887d019836040518263ffffffff1660e01b8152600401610a8e919061364d565b60206040518083038186803b158015610aa657600080fd5b505afa158015610aba573d6000803e3d6000fd5b505050506040513d601f19601f82011682018060405250810190610ade919061324c565b9050919050565b60045481565b610af3612172565b73ffffffffffffffffffffffffffffffffffffffff16610b11611631565b73ffffffffffffffffffffffffffffffffffffffff1614610b67576040517f08c379a0000000000000000000000000000000000000000000000000000000008152600401610b5e90613842565b60405180910390fd5b8060038190555050565b610b79612172565b73ffffffffffffffffffffffffffffffffffffffff16610b97611631565b73ffffffffffffffffffffffffffffffffffffffff1614610bed576040517f08c379a0000000000000000000000000000000000000000000000000000000008152600401610be490613842565b60405180910390fd5b6000600160009054906101000a900473ffffffffffffffffffffffffffffffffffffffff1673ffffffffffffffffffffffffffffffffffffffff166370a08231306040518263ffffffff1660e01b8152600401610c4a919061364d565b60206040518083038186803b158015610c6257600080fd5b505afa158015610c76573d6000803e3d6000fd5b505050506040513d601f19601f82011682018060405250810190610c9a919061324c565b9050610ce98282600160009054906101000a900473ffffffffffffffffffffffffffffffffffffffff1673ffffffffffffffffffffffffffffffffffffffff1661217a9092919063ffffffff16565b8173ffffffffffffffffffffffffffffffffffffffff16ff5b60008073ffffffffffffffffffffffffffffffffffffffff168273ffffffffffffffffffffffffffffffffffffffff161415610d73576040517f08c379a0000000000000000000000000000000000000000000000000000000008152600401610d6a90613942565b60405180910390fd5b6000600960008473ffffffffffffffffffffffffffffffffffffffff1673ffffffffffffffffffffffffffffffffffffffff1681526020019081526020016000206040518060600160405290816000820160009054906101000a900473ffffffffffffffffffffffffffffffffffffffff1673ffffffffffffffffffffffffffffffffffffffff1673ffffffffffffffffffffffffffffffffffffffff1681526020016000820160149054906101000a900460ff1615151515815260200160018201805480602002602001604051908101604052809291908181526020018280548015610eb557602002820191906000526020600020905b8160009054906101000a900473ffffffffffffffffffffffffffffffffffffffff1673ffffffffffffffffffffffffffffffffffffffff1681526020019060010190808311610e6b575b5050505050815250509050600073ffffffffffffffffffffffffffffffffffffffff16816000015173ffffffffffffffffffffffffffffffffffffffff1614158015610f0357508060200151155b915050919050565b600a6020528060005260406000206000915090508060000160009054906101000a900473ffffffffffffffffffffffffffffffffffffffff16908060010154905082565b610f57612172565b73ffffffffffffffffffffffffffffffffffffffff16610f75611631565b73ffffffffffffffffffffffffffffffffffffffff1614610fcb576040517f08c379a0000000000000000000000000000000000000000000000000000000008152600401610fc290613842565b60405180910390fd5b610fd481610d02565b611013576040517f08c379a000000000000000000000000000000000000000000000000000000000815260040161100a90613782565b60405180910390fd5b6000600960008373ffffffffffffffffffffffffffffffffffffffff1673ffffffffffffffffffffffffffffffffffffffff168152602001908152602001600020905060018160000160146101000a81548160ff0219169083151502179055505050565b606061108233610d02565b6110c1576040517f08c379a00000000000000000000000000000000000000000000000000000000081526004016110b890613782565b60405180910390fd5b6110ca33612200565b905090565b6110d7612172565b73ffffffffffffffffffffffffffffffffffffffff166110f5611631565b73ffffffffffffffffffffffffffffffffffffffff161461114b576040517f08c379a000000000000000000000000000000000000000000000000000000000815260040161114290613842565b60405180910390fd5b6000600860166101000a81548160ff021916908315150217905550565b600860179054906101000a900460ff1681565b611183612172565b73ffffffffffffffffffffffffffffffffffffffff166111a1611631565b73ffffffffffffffffffffffffffffffffffffffff16146111f7576040517f08c379a00000000000000000000000000000000000000000000000000000000081526004016111ee90613842565b60405180910390fd5b611201600061235c565b565b61120b612172565b73ffffffffffffffffffffffffffffffffffffffff16611229611631565b73ffffffffffffffffffffffffffffffffffffffff161461127f576040517f08c379a000000000000000000000000000000000000000000000000000000000815260040161127690613842565b60405180910390fd5b8060058190555050565b600080600860009054906101000a900473ffffffffffffffffffffffffffffffffffffffff1673ffffffffffffffffffffffffffffffffffffffff1663f887d019846040518263ffffffff1660e01b81526004016112e7919061364d565b60206040518083038186803b1580156112ff57600080fd5b505afa158015611313573d6000803e3d6000fd5b505050506040513d601f19601f82011682018060405250810190611337919061324c565b905060006012600a6113499190613ab8565b6004546113569190613bd6565b90508082101592505050919050565b61136d612172565b73ffffffffffffffffffffffffffffffffffffffff1661138b611631565b73ffffffffffffffffffffffffffffffffffffffff16146113e1576040517f08c379a00000000000000000000000000000000000000000000000000000000081526004016113d890613842565b60405180910390fd5b6001600860146101000a81548160ff021916908315150217905550565b60035481565b61140c612172565b73ffffffffffffffffffffffffffffffffffffffff1661142a611631565b73ffffffffffffffffffffffffffffffffffffffff1614611480576040517f08c379a000000000000000000000000000000000000000000000000000000000815260040161147790613842565b60405180910390fd5b61148981610d02565b156114c9576040517f08c379a00000000000000000000000000000000000000000000000000000000081526004016114c0906137a2565b60405180910390fd5b6114d281612420565b50565b60008073ffffffffffffffffffffffffffffffffffffffff168273ffffffffffffffffffffffffffffffffffffffff161415611546576040517f08c379a000000000000000000000000000000000000000000000000000000000815260040161153d90613942565b60405180910390fd5b6000600a60008473ffffffffffffffffffffffffffffffffffffffff1673ffffffffffffffffffffffffffffffffffffffff1681526020019081526020016000206040518060400160405290816000820160009054906101000a900473ffffffffffffffffffffffffffffffffffffffff1673ffffffffffffffffffffffffffffffffffffffff1673ffffffffffffffffffffffffffffffffffffffff1681526020016001820154815250509050600073ffffffffffffffffffffffffffffffffffffffff16816000015173ffffffffffffffffffffffffffffffffffffffff161415915050919050565b60008060009054906101000a900473ffffffffffffffffffffffffffffffffffffffff16905090565b600660009054906101000a900473ffffffffffffffffffffffffffffffffffffffff1681565b611688612172565b73ffffffffffffffffffffffffffffffffffffffff166116a6611631565b73ffffffffffffffffffffffffffffffffffffffff16146116fc576040517f08c379a00000000000000000000000000000000000000000000000000000000081526004016116f390613842565b60405180910390fd5b6000815111611740576040517f08c379a000000000000000000000000000000000000000000000000000000000815260040161173790613902565b60405180910390fd5b60005b8151811015611801576000828281518110611787577f4e487b7100000000000000000000000000000000000000000000000000000000600052603260045260246000fd5b6020026020010151905060008160400151101580156117b057506117ae81600001516114d5565b155b156117ed5760006012600a6117c59190613ab8565b82604001516117d49190613bd6565b90506117eb8260000151836020015183600061264b565b505b5080806117f990613d12565b915050611743565b5050565b61180d612172565b73ffffffffffffffffffffffffffffffffffffffff1661182b611631565b73ffffffffffffffffffffffffffffffffffffffff1614611881576040517f08c379a000000000000000000000000000000000000000000000000000000000815260040161187890613842565b60405180910390fd5b60008151116118c5576040517f08c379a00000000000000000000000000000000000000000000000000000000081526004016118bc90613922565b60405180910390fd5b60005b815181101561192d5761191a82828151811061190d577f4e487b7100000000000000000000000000000000000000000000000000000000600052603260045260246000fd5b6020026020010151612420565b808061192590613d12565b9150506118c8565b5050565b600860169054906101000a900460ff1681565b600260009054906101000a900473ffffffffffffffffffffffffffffffffffffffff1681565b6060611974612172565b73ffffffffffffffffffffffffffffffffffffffff16611992611631565b73ffffffffffffffffffffffffffffffffffffffff16146119e8576040517f08c379a00000000000000000000000000000000000000000000000000000000081526004016119df90613842565b60405180910390fd5b6119f182612200565b9050919050565b611a00612172565b73ffffffffffffffffffffffffffffffffffffffff16611a1e611631565b73ffffffffffffffffffffffffffffffffffffffff1614611a74576040517f08c379a0000000000000000000000000000000000000000000000000000000008152600401611a6b90613842565b60405180910390fd5b6000600860176101000a81548160ff021916908315150217905550565b600080600760009054906101000a900473ffffffffffffffffffffffffffffffffffffffff1673ffffffffffffffffffffffffffffffffffffffff166370a08231846040518263ffffffff1660e01b8152600401611aef919061364d565b60206040518083038186803b158015611b0757600080fd5b505afa158015611b1b573d6000803e3d6000fd5b505050506040513d601f19601f82011682018060405250810190611b3f919061324c565b905060006012600a611b519190613ab8565b600354611b5e9190613bd6565b90508082101592505050919050565b600860159054906101000a900460ff1681565b600860149054906101000a900460ff1681565b611b9b612172565b73ffffffffffffffffffffffffffffffffffffffff16611bb9611631565b73ffffffffffffffffffffffffffffffffffffffff1614611c0f576040517f08c379a0000000000000000000000000000000000000000000000000000000008152600401611c0690613842565b60405180910390fd5b6000600860146101000a81548160ff021916908315150217905550565b6000611c36612172565b73ffffffffffffffffffffffffffffffffffffffff16611c54611631565b73ffffffffffffffffffffffffffffffffffffffff1614611caa576040517f08c379a0000000000000000000000000000000000000000000000000000000008152600401611ca190613842565b60405180910390fd5b600760009054906101000a900473ffffffffffffffffffffffffffffffffffffffff1673ffffffffffffffffffffffffffffffffffffffff166370a08231836040518263ffffffff1660e01b8152600401611d05919061364d565b60206040518083038186803b158015611d1d57600080fd5b505afa158015611d31573d6000803e3d6000fd5b505050506040513d601f19601f82011682018060405250810190611d55919061324c565b9050919050565b611d64612172565b73ffffffffffffffffffffffffffffffffffffffff16611d82611631565b73ffffffffffffffffffffffffffffffffffffffff1614611dd8576040517f08c379a0000000000000000000000000000000000000000000000000000000008152600401611dcf90613842565b60405180910390fd5b600073ffffffffffffffffffffffffffffffffffffffff168173ffffffffffffffffffffffffffffffffffffffff161415611e48576040517f08c379a0000000000000000000000000000000000000000000000000000000008152600401611e3f906137c2565b60405180910390fd5b611e518161235c565b50565b600073ffffffffffffffffffffffffffffffffffffffff168173ffffffffffffffffffffffffffffffffffffffff161415611ec4576040517f08c379a0000000000000000000000000000000000000000000000000000000008152600401611ebb90613882565b60405180910390fd5b3373ffffffffffffffffffffffffffffffffffffffff168173ffffffffffffffffffffffffffffffffffffffff161415611f33576040517f08c379a0000000000000000000000000000000000000000000000000000000008152600401611f2a90613862565b60405180910390fd5b611f3c336114d5565b15611f7c576040517f08c379a0000000000000000000000000000000000000000000000000000000008152600401611f73906138c2565b60405180910390fd5b600860149054906101000a900460ff1615611fda57611f9a81610d02565b611fd9576040517f08c379a0000000000000000000000000000000000000000000000000000000008152600401611fd090613802565b60405180910390fd5b5b600860159054906101000a900460ff161561204c57611ff881611a91565b80612008575061200781611289565b5b612047576040517f08c379a000000000000000000000000000000000000000000000000000000000815260040161203e90613762565b60405180910390fd5b612109565b600860169054906101000a900460ff16156120aa5761206a81611a91565b6120a9576040517f08c379a00000000000000000000000000000000000000000000000000000000081526004016120a090613822565b60405180910390fd5b5b600860179054906101000a900460ff1615612108576120c881611289565b612107576040517f08c379a00000000000000000000000000000000000000000000000000000000081526004016120fe90613742565b60405180910390fd5b5b5b6000612113612af7565b9050612122338383600161264b565b5050565b600760009054906101000a900473ffffffffffffffffffffffffffffffffffffffff1681565b600160009054906101000a900473ffffffffffffffffffffffffffffffffffffffff1681565b600033905090565b6121fb8363a9059cbb60e01b848460405160240161219992919061369f565b604051602081830303815290604052907bffffffffffffffffffffffffffffffffffffffffffffffffffffffff19166020820180517bffffffffffffffffffffffffffffffffffffffffffffffffffffffff8381831617835250505050612b4f565b505050565b60606000600960008473ffffffffffffffffffffffffffffffffffffffff1673ffffffffffffffffffffffffffffffffffffffff1681526020019081526020016000206040518060600160405290816000820160009054906101000a900473ffffffffffffffffffffffffffffffffffffffff1673ffffffffffffffffffffffffffffffffffffffff1673ffffffffffffffffffffffffffffffffffffffff1681526020016000820160149054906101000a900460ff161515151581526020016001820180548060200260200160405190810160405280929190818152602001828054801561234457602002820191906000526020600020905b8160009054906101000a900473ffffffffffffffffffffffffffffffffffffffff1673ffffffffffffffffffffffffffffffffffffffff16815260200190600101908083116122fa575b50505050508152505090508060400151915050919050565b60008060009054906101000a900473ffffffffffffffffffffffffffffffffffffffff169050816000806101000a81548173ffffffffffffffffffffffffffffffffffffffff021916908373ffffffffffffffffffffffffffffffffffffffff1602179055508173ffffffffffffffffffffffffffffffffffffffff168173ffffffffffffffffffffffffffffffffffffffff167f8be0079c531659141344cd1fd0a4f28419497f9722a3daafe3b4186f6b6457e060405160405180910390a35050565b6000600960008373ffffffffffffffffffffffffffffffffffffffff1673ffffffffffffffffffffffffffffffffffffffff1681526020019081526020016000209050600073ffffffffffffffffffffffffffffffffffffffff168160000160009054906101000a900473ffffffffffffffffffffffffffffffffffffffff1673ffffffffffffffffffffffffffffffffffffffff16146124dd5760008160000160146101000a81548160ff021916908315150217905550612647565b60405180606001604052808373ffffffffffffffffffffffffffffffffffffffff168152602001600015158152602001600067ffffffffffffffff81111561254e577f4e487b7100000000000000000000000000000000000000000000000000000000600052604160045260246000fd5b60405190808252806020026020018201604052801561257c5781602001602082028036833780820191505090505b50815250600960008473ffffffffffffffffffffffffffffffffffffffff1673ffffffffffffffffffffffffffffffffffffffff16815260200190815260200160002060008201518160000160006101000a81548173ffffffffffffffffffffffffffffffffffffffff021916908373ffffffffffffffffffffffffffffffffffffffff16021790555060208201518160000160146101000a81548160ff0219169083151502179055506040820151816001019080519060200190612642929190612e8a565b509050505b5050565b60405180604001604052808473ffffffffffffffffffffffffffffffffffffffff16815260200183815250600a60008673ffffffffffffffffffffffffffffffffffffffff1673ffffffffffffffffffffffffffffffffffffffff16815260200190815260200160002060008201518160000160006101000a81548173ffffffffffffffffffffffffffffffffffffffff021916908373ffffffffffffffffffffffffffffffffffffffff160217905550602082015181600101559050506000600960008573ffffffffffffffffffffffffffffffffffffffff1673ffffffffffffffffffffffffffffffffffffffff1681526020019081526020016000209050600073ffffffffffffffffffffffffffffffffffffffff168160000160009054906101000a900473ffffffffffffffffffffffffffffffffffffffff1673ffffffffffffffffffffffffffffffffffffffff161461280e5780600101859080600181540180825580915050600190039060005260206000200160009091909190916101000a81548173ffffffffffffffffffffffffffffffffffffffff021916908373ffffffffffffffffffffffffffffffffffffffff160217905550612a1b565b60405180606001604052808573ffffffffffffffffffffffffffffffffffffffff168152602001600015158152602001600067ffffffffffffffff81111561287f577f4e487b7100000000000000000000000000000000000000000000000000000000600052604160045260246000fd5b6040519080825280602002602001820160405280156128ad5781602001602082028036833780820191505090505b50815250600960008673ffffffffffffffffffffffffffffffffffffffff1673ffffffffffffffffffffffffffffffffffffffff16815260200190815260200160002060008201518160000160006101000a81548173ffffffffffffffffffffffffffffffffffffffff021916908373ffffffffffffffffffffffffffffffffffffffff16021790555060208201518160000160146101000a81548160ff0219169083151502179055506040820151816001019080519060200190612973929190612e8a565b50905050600960008573ffffffffffffffffffffffffffffffffffffffff1673ffffffffffffffffffffffffffffffffffffffff168152602001908152602001600020600101859080600181540180825580915050600190039060005260206000200160009091909190916101000a81548173ffffffffffffffffffffffffffffffffffffffff021916908373ffffffffffffffffffffffffffffffffffffffff1602179055505b8115612af057612a92600260009054906101000a900473ffffffffffffffffffffffffffffffffffffffff168685600160009054906101000a900473ffffffffffffffffffffffffffffffffffffffff1673ffffffffffffffffffffffffffffffffffffffff16612c16909392919063ffffffff16565b7ff5537ede4763d97b5cf86d9eb6ae77ccd8560b8b2d4bd4503537c6b2996a7a9b600260009054906101000a900473ffffffffffffffffffffffffffffffffffffffff168685604051612ae793929190613668565b60405180910390a15b5050505050565b600080612b05600554612c9f565b90506001811015612b195760019050612b2a565b600554811115612b295760055490505b5b60006012600a612b3a9190613ab8565b82612b459190613bd6565b9050809250505090565b6000612bb1826040518060400160405280602081526020017f5361666545524332303a206c6f772d6c6576656c2063616c6c206661696c65648152508573ffffffffffffffffffffffffffffffffffffffff16612ce49092919063ffffffff16565b9050600081511115612c115780806020019051810190612bd191906131fa565b612c10576040517f08c379a0000000000000000000000000000000000000000000000000000000008152600401612c07906138e2565b60405180910390fd5b5b505050565b612c99846323b872dd60e01b858585604051602401612c3793929190613668565b604051602081830303815290604052907bffffffffffffffffffffffffffffffffffffffffffffffffffffffff19166020820180517bffffffffffffffffffffffffffffffffffffffffffffffffffffffff8381831617835250505050612b4f565b50505050565b6000804442604051602001612cb5929190613621565b6040516020818303038152906040528051906020012060001c90508281612cdc9190613d65565b915050919050565b6060612cf38484600085612cfc565b90509392505050565b606082471015612d41576040517f08c379a0000000000000000000000000000000000000000000000000000000008152600401612d38906137e2565b60405180910390fd5b612d4a85612e10565b612d89576040517f08c379a0000000000000000000000000000000000000000000000000000000008152600401612d80906138a2565b60405180910390fd5b6000808673ffffffffffffffffffffffffffffffffffffffff168587604051612db2919061360a565b60006040518083038185875af1925050503d8060008114612def576040519150601f19603f3d011682016040523d82523d6000602084013e612df4565b606091505b5091509150612e04828286612e23565b92505050949350505050565b600080823b905060008111915050919050565b60608315612e3357829050612e83565b600083511115612e465782518084602001fd5b816040517f08c379a0000000000000000000000000000000000000000000000000000000008152600401612e7a9190613720565b60405180910390fd5b9392505050565b828054828255906000526020600020908101928215612f03579160200282015b82811115612f025782518260006101000a81548173ffffffffffffffffffffffffffffffffffffffff021916908373ffffffffffffffffffffffffffffffffffffffff16021790555091602001919060010190612eaa565b5b509050612f109190612f14565b5090565b5b80821115612f2d576000816000905550600101612f15565b5090565b6000612f44612f3f846139a2565b61397d565b90508083825260208201905082856020860282011115612f6357600080fd5b60005b85811015612f935781612f798882613009565b845260208401935060208301925050600181019050612f66565b5050509392505050565b6000612fb0612fab846139ce565b61397d565b90508083825260208201905082856060860282011115612fcf57600080fd5b60005b85811015612fff5781612fe5888261309c565b845260208401935060608301925050600181019050612fd2565b5050509392505050565b60008135905061301881614334565b92915050565b60008135905061302d8161434b565b92915050565b600082601f83011261304457600080fd5b8135613054848260208601612f31565b91505092915050565b600082601f83011261306e57600080fd5b813561307e848260208601612f9d565b91505092915050565b60008151905061309681614362565b92915050565b6000606082840312156130ae57600080fd5b6130b8606061397d565b905060006130c884828501613009565b60008301525060206130dc84828501613009565b60208301525060406130f0848285016130fc565b60408301525092915050565b60008135905061310b81614379565b92915050565b60008151905061312081614379565b92915050565b60006020828403121561313857600080fd5b600061314684828501613009565b91505092915050565b60006020828403121561316157600080fd5b600061316f8482850161301e565b91505092915050565b60006020828403121561318a57600080fd5b600082013567ffffffffffffffff8111156131a457600080fd5b6131b084828501613033565b91505092915050565b6000602082840312156131cb57600080fd5b600082013567ffffffffffffffff8111156131e557600080fd5b6131f18482850161305d565b91505092915050565b60006020828403121561320c57600080fd5b600061321a84828501613087565b91505092915050565b60006020828403121561323557600080fd5b6000613243848285016130fc565b91505092915050565b60006020828403121561325e57600080fd5b600061326c84828501613111565b91505092915050565b6000613281838361328d565b60208301905092915050565b61329681613c30565b82525050565b6132a581613c30565b82525050565b60006132b682613a0a565b6132c08185613a38565b93506132cb836139fa565b8060005b838110156132fc5781516132e38882613275565b97506132ee83613a2b565b9250506001810190506132cf565b5085935050505092915050565b61331281613c54565b82525050565b600061332382613a15565b61332d8185613a49565b935061333d818560208601613cae565b80840191505092915050565b61335281613c8a565b82525050565b600061336382613a20565b61336d8185613a54565b935061337d818560208601613cae565b61338681613e23565b840191505092915050565b600061339e603483613a54565b91506133a982613e41565b604082019050919050565b60006133c1602f83613a54565b91506133cc82613e90565b604082019050919050565b60006133e4603383613a54565b91506133ef82613edf565b604082019050919050565b6000613407603783613a54565b915061341282613f2e565b604082019050919050565b600061342a602683613a54565b915061343582613f7d565b604082019050919050565b600061344d602683613a54565b915061345882613fcc565b604082019050919050565b6000613470603b83613a54565b915061347b8261401b565b604082019050919050565b6000613493603783613a54565b915061349e8261406a565b604082019050919050565b60006134b6602083613a54565b91506134c1826140b9565b602082019050919050565b60006134d9602f83613a54565b91506134e4826140e2565b604082019050919050565b60006134fc603083613a54565b915061350782614131565b604082019050919050565b600061351f601d83613a54565b915061352a82614180565b602082019050919050565b6000613542603a83613a54565b915061354d826141a9565b604082019050919050565b6000613565602a83613a54565b9150613570826141f8565b604082019050919050565b6000613588602583613a54565b915061359382614247565b604082019050919050565b60006135ab602183613a54565b91506135b682614296565b604082019050919050565b60006135ce602883613a54565b91506135d9826142e5565b604082019050919050565b6135ed81613c80565b82525050565b6136046135ff82613c80565b613d5b565b82525050565b60006136168284613318565b915081905092915050565b600061362d82856135f3565b60208201915061363d82846135f3565b6020820191508190509392505050565b6000602082019050613662600083018461329c565b92915050565b600060608201905061367d600083018661329c565b61368a602083018561329c565b61369760408301846135e4565b949350505050565b60006040820190506136b4600083018561329c565b6136c160208301846135e4565b9392505050565b600060208201905081810360008301526136e281846132ab565b905092915050565b60006020820190506136ff6000830184613309565b92915050565b600060208201905061371a6000830184613349565b92915050565b6000602082019050818103600083015261373a8184613358565b905092915050565b6000602082019050818103600083015261375b81613391565b9050919050565b6000602082019050818103600083015261377b816133b4565b9050919050565b6000602082019050818103600083015261379b816133d7565b9050919050565b600060208201905081810360008301526137bb816133fa565b9050919050565b600060208201905081810360008301526137db8161341d565b9050919050565b600060208201905081810360008301526137fb81613440565b9050919050565b6000602082019050818103600083015261381b81613463565b9050919050565b6000602082019050818103600083015261383b81613486565b9050919050565b6000602082019050818103600083015261385b816134a9565b9050919050565b6000602082019050818103600083015261387b816134cc565b9050919050565b6000602082019050818103600083015261389b816134ef565b9050919050565b600060208201905081810360008301526138bb81613512565b9050919050565b600060208201905081810360008301526138db81613535565b9050919050565b600060208201905081810360008301526138fb81613558565b9050919050565b6000602082019050818103600083015261391b8161357b565b9050919050565b6000602082019050818103600083015261393b8161359e565b9050919050565b6000602082019050818103600083015261395b816135c1565b9050919050565b600060208201905061397760008301846135e4565b92915050565b6000613987613998565b90506139938282613ce1565b919050565b6000604051905090565b600067ffffffffffffffff8211156139bd576139bc613df4565b5b602082029050602081019050919050565b600067ffffffffffffffff8211156139e9576139e8613df4565b5b602082029050602081019050919050565b6000819050602082019050919050565b600081519050919050565b600081519050919050565b600081519050919050565b6000602082019050919050565b600082825260208201905092915050565b600081905092915050565b600082825260208201905092915050565b6000808291508390505b6001851115613aaf57808604811115613a8b57613a8a613d96565b5b6001851615613a9a5780820291505b8081029050613aa885613e34565b9450613a6f565b94509492505050565b6000613ac382613c80565b9150613ace83613c80565b9250613afb7fffffffffffffffffffffffffffffffffffffffffffffffffffffffffffffffff8484613b03565b905092915050565b600082613b135760019050613bcf565b81613b215760009050613bcf565b8160018114613b375760028114613b4157613b70565b6001915050613bcf565b60ff841115613b5357613b52613d96565b5b8360020a915084821115613b6a57613b69613d96565b5b50613bcf565b5060208310610133831016604e8410600b8410161715613ba55782820a905083811115613ba057613b9f613d96565b5b613bcf565b613bb28484846001613a65565b92509050818404811115613bc957613bc8613d96565b5b81810290505b9392505050565b6000613be182613c80565b9150613bec83613c80565b9250817fffffffffffffffffffffffffffffffffffffffffffffffffffffffffffffffff0483118215151615613c2557613c24613d96565b5b828202905092915050565b6000613c3b82613c60565b9050919050565b6000613c4d82613c60565b9050919050565b60008115159050919050565b600073ffffffffffffffffffffffffffffffffffffffff82169050919050565b6000819050919050565b6000613c9582613c9c565b9050919050565b6000613ca782613c60565b9050919050565b60005b83811015613ccc578082015181840152602081019050613cb1565b83811115613cdb576000848401525b50505050565b613cea82613e23565b810181811067ffffffffffffffff82111715613d0957613d08613df4565b5b80604052505050565b6000613d1d82613c80565b91507fffffffffffffffffffffffffffffffffffffffffffffffffffffffffffffffff821415613d5057613d4f613d96565b5b600182019050919050565b6000819050919050565b6000613d7082613c80565b9150613d7b83613c80565b925082613d8b57613d8a613dc5565b5b828206905092915050565b7f4e487b7100000000000000000000000000000000000000000000000000000000600052601160045260246000fd5b7f4e487b7100000000000000000000000000000000000000000000000000000000600052601260045260246000fd5b7f4e487b7100000000000000000000000000000000000000000000000000000000600052604160045260246000fd5b6000601f19601f8301169050919050565b60008160011c9050919050565b7f41697264726f703a205374616b6520616d6f756e7420646f6573206e6f74206d60008201527f6565742074686520726571756972656d656e7473000000000000000000000000602082015250565b7f41697264726f703a204163636f756e7420646f6573206e6f74206d656574207460008201527f686520726571756972656d656e74730000000000000000000000000000000000602082015250565b7f41697264726f703a20546865206163636f756e74206973206e6f7420696e207460008201527f68652072656c6174696f6e736869704c69737400000000000000000000000000602082015250565b7f41697264726f703a20546865206163636f756e7420697320616c72656164792060008201527f6f6e207468652072656c6174696f6e736869704c697374000000000000000000602082015250565b7f4f776e61626c653a206e6577206f776e657220697320746865207a65726f206160008201527f6464726573730000000000000000000000000000000000000000000000000000602082015250565b7f416464726573733a20696e73756666696369656e742062616c616e636520666f60008201527f722063616c6c0000000000000000000000000000000000000000000000000000602082015250565b7f41697264726f703a2054686520696e7669746572206163636f756e742069732060008201527f6e6f7420696e207468652072656c6174696f6e736869704c6973740000000000602082015250565b7f41697264726f703a204163636f756e742062616c616e636520646f6573206e6f60008201527f74206d6565742074686520726571756972656d656e7473000000000000000000602082015250565b7f4f776e61626c653a2063616c6c6572206973206e6f7420746865206f776e6572600082015250565b7f41697264726f703a2054686520696e7669746572206163636f756e742063616e60008201527f6e6f7420626520796f757273656c660000000000000000000000000000000000602082015250565b7f41697264726f703a2054686520696e7669746572206163636f756e742069732060008201527f746865207a65726f206164647265737300000000000000000000000000000000602082015250565b7f416464726573733a2063616c6c20746f206e6f6e2d636f6e7472616374000000600082015250565b7f41697264726f703a2054686520696e7669746565206163636f756e742069732060008201527f616c7265616479206f6e207468652061697264726f704c697374000000000000602082015250565b7f5361666545524332303a204552433230206f7065726174696f6e20646964206e60008201527f6f74207375636365656400000000000000000000000000000000000000000000602082015250565b7f41697264726f703a2054686520696e7669746520696e666f206c69737420697360008201527f206e756c6c000000000000000000000000000000000000000000000000000000602082015250565b7f41697264726f703a20546865206163636f756e74206c697374206973206e756c60008201527f6c00000000000000000000000000000000000000000000000000000000000000602082015250565b7f41697264726f703a20546865206163636f756e7420697320746865207a65726f60008201527f2061646472657373000000000000000000000000000000000000000000000000602082015250565b61433d81613c30565b811461434857600080fd5b50565b61435481613c42565b811461435f57600080fd5b50565b61436b81613c54565b811461437657600080fd5b50565b61438281613c80565b811461438d57600080fd5b5056fea2646970667358221220d7468f7a6b8ddcee77493bfd5b4ac4c23e046509a9b09804a4b4cb594ca1af3164736f6c63430008040033",
  "immutableReferences": {},
  "source": "// SPDX-License-Identifier: MIT\r\npragma solidity ^0.8.0;\r\n\r\nimport \"@openzeppelin/contracts/access/Ownable.sol\";\r\nimport \"@openzeppelin/contracts/utils/math/SafeMath.sol\";\r\nimport \"@openzeppelin/contracts/token/ERC20/utils/SafeERC20.sol\";\r\n\r\ninterface CrowdsaleForRetail {\r\n    function joined(address account) external view returns (uint256);\r\n}\r\n\r\ncontract AirdropUnlimited is Ownable {\r\n    using SafeMath for uint256;\r\n    using SafeERC20 for IERC20;\r\n\r\n    event transferToken(address wallet, address account, uint256 amount);\r\n\r\n    IERC20 public token;\r\n    address public tokenWallet;\r\n    uint256 public minDATBalanceAmount;\r\n    uint256 public minDATStakeAmount;\r\n    uint256 public airdropMaxAmount;\r\n    address public crowdsaleForRetailAddress;\r\n    IERC20 public crowdsaleToken;\r\n\r\n    CrowdsaleForRetail private crowdsaleForRetail;\r\n\r\n    bool public checkRelationshipListSwitch = false;\r\n    bool public checkDATBalanceOrDATStakeSwitch = true;\r\n    bool public checkDATBalanceSwitch = false;\r\n    bool public checkDATStakeSwitch = false;\r\n\r\n    // relationshipList\r\n    struct Relationship {\r\n        address token;\r\n        bool isRemove;\r\n        address[] member;\r\n    }\r\n    mapping (address => Relationship) private _relationshipList;\r\n\r\n    // Record the information of all invited personnel\r\n    struct InviteInfo {\r\n        address inviterToken;\r\n        uint256 airdropAmount;\r\n    }\r\n    mapping (address => InviteInfo) public airdropList;\r\n\r\n    // Report Record the information of all invited personnel\r\n    struct ReportInviteInfo {\r\n        address token;\r\n        address inviterToken;\r\n        uint256 amount;\r\n    }\r\n\r\n    constructor(\r\n        IERC20 _token,\r\n        address _tokenWallet,\r\n        uint256 _minDATBalanceAmount,\r\n        uint256 _minDATStakeAmount,\r\n        uint256 _airdropMaxAmount,\r\n        address _crowdsaleForRetailAddress,\r\n        IERC20 _crowdsaleToken\r\n    ) Ownable() {\r\n        require(address(_token) != address(0), \"Airdrop: The token is the zero address\");\r\n        require(_tokenWallet != address(0), \"Airdrop: The token wallet is the zero address\");\r\n\r\n        token = _token;\r\n        tokenWallet = _tokenWallet;\r\n        minDATBalanceAmount = _minDATBalanceAmount;\r\n        minDATStakeAmount = _minDATStakeAmount;\r\n        airdropMaxAmount = _airdropMaxAmount;\r\n        crowdsaleForRetailAddress = _crowdsaleForRetailAddress;\r\n        crowdsaleToken = _crowdsaleToken;\r\n\r\n        crowdsaleForRetail = CrowdsaleForRetail(_crowdsaleForRetailAddress);\r\n    }\r\n\r\n    // set minDATBalanceAmount\r\n    function setMinDATBalanceAmount(uint256 amount) public onlyOwner {\r\n        minDATBalanceAmount = amount;\r\n    }\r\n    // set minDATStakeAmount\r\n    function setMinDATStakeAmount(uint256 amount) public onlyOwner {\r\n        minDATStakeAmount = amount;\r\n    }\r\n    // set airdropMaxAmount\r\n    function setAirdropMaxAmount(uint256 amount) public onlyOwner {\r\n        airdropMaxAmount = amount;\r\n    }\r\n    // open and close checkRelationshipListSwitch\r\n    function openCheckRelationshipListSwitch() public onlyOwner {\r\n        checkRelationshipListSwitch = true;\r\n    }\r\n    function closeCheckRelationshipListSwitch() public onlyOwner {\r\n        checkRelationshipListSwitch = false;\r\n    }\r\n    // open and close checkDATBalanceOrDATStakeSwitch\r\n    function openCheckDATBalanceOrDATStakeSwitch() public onlyOwner {\r\n        checkDATBalanceOrDATStakeSwitch = true;\r\n    }\r\n    function closeCheckDATBalanceOrDATStakeSwitch() public onlyOwner {\r\n        checkDATBalanceOrDATStakeSwitch = false;\r\n    }\r\n    // open and close checkDATBalanceSwitch\r\n    function openCheckDATBalanceSwitch() public onlyOwner {\r\n        checkDATBalanceSwitch = true;\r\n    }\r\n    function closeCheckDATBalanceSwitch() public onlyOwner {\r\n        checkDATBalanceSwitch = false;\r\n    }\r\n    // open and close checkDATStakeSwitch\r\n    function openCheckDATStakeSwitch() public onlyOwner {\r\n        checkDATStakeSwitch = true;\r\n    }\r\n    function closeCheckDATStakeSwitch() public onlyOwner {\r\n        checkDATStakeSwitch = false;\r\n    }\r\n\r\n    /**\r\n     * @dev get DAT balance amount of account.\r\n     * @param account the address\r\n     * @return uint256\r\n     */\r\n    function getDatBalance(address account) public onlyOwner view returns (uint256) {\r\n        return crowdsaleToken.balanceOf(account);\r\n    }\r\n\r\n    /**\r\n     * @dev get DAT stake amount of account.\r\n     * @param account the address\r\n     * @return uint256\r\n     */\r\n    function getDatStake(address account) public onlyOwner view returns (uint256) {\r\n        return crowdsaleForRetail.joined(account);\r\n    }\r\n\r\n    /**\r\n     * @dev get member list from the relationshipList by owner\r\n     */\r\n    function getMemberListByOwner(address account) public onlyOwner view returns (address[] memory) {\r\n        return _getMemberList(account);\r\n    }\r\n\r\n    /**\r\n     * @dev get member list from the relationshipList by owner\r\n     */\r\n    function getMemberList() public view returns (address[] memory) {\r\n        require(hasRelationshipList(msg.sender), \"Airdrop: The account is not in the relationshipList\");\r\n        return _getMemberList(msg.sender);\r\n    }\r\n\r\n    /**\r\n     * @dev get member list from the relationshipList\r\n     */\r\n    function _getMemberList(address account) internal view returns (address[] memory) {\r\n        Relationship memory info = _relationshipList[account];\r\n        return info.member;\r\n    }\r\n\r\n    /**\r\n     * @dev remove single account from the relationshipList by owner\r\n     * @param account the address of relationshipList\r\n     */\r\n    function removeFromRelationshipList(address account) public onlyOwner {\r\n        require(hasRelationshipList(account), \"Airdrop: The account is not in the relationshipList\");\r\n        Relationship storage info = _relationshipList[account];\r\n        info.isRemove = true;\r\n    }\r\n\r\n    /**\r\n     * @dev add account list to the relationshipList by owner\r\n     * @param accountList the address of relationshipList\r\n     */\r\n    function addMutliToRelationshipList(address[] memory accountList) public onlyOwner {\r\n        require(accountList.length > 0, \"Airdrop: The account list is null\");\r\n        for (uint i = 0; i < accountList.length; i++) {\r\n            _addToRelationshipList(accountList[i]);\r\n        }\r\n    }\r\n\r\n    /**\r\n     * @dev add single account to the relationshipList by owner\r\n     * @param account the address of relationshipList\r\n     */\r\n    function addToRelationshipList(address account) public onlyOwner {\r\n        require(!hasRelationshipList(account), \"Airdrop: The account is already on the relationshipList\");\r\n        _addToRelationshipList(account);\r\n    }\r\n\r\n    /**\r\n     * @dev add account to the relationshipList\r\n     * @param account the address of relationshipList\r\n     */\r\n    function _addToRelationshipList(address account) internal {\r\n        Relationship storage info = _relationshipList[account];\r\n        if (info.token != address(0)) {\r\n            info.isRemove = false;\r\n        } else {\r\n            _relationshipList[account] = Relationship(account, false, new address[](0));\r\n        }\r\n    }\r\n\r\n    /**\r\n     * @dev add account list to the airdropList by owner\r\n     * @param list the address of airdropList\r\n     */\r\n    function addMutliToAirdropList(ReportInviteInfo[] memory list) public onlyOwner {\r\n        require(list.length > 0, \"Airdrop: The invite info list is null\");\r\n        for (uint i = 0; i < list.length; i++) {\r\n            ReportInviteInfo memory reportInfo = list[i];\r\n            if (reportInfo.amount >= 0 && !hasAirdropList(reportInfo.token)) {\r\n                uint256 formatAmount = reportInfo.amount * (10**uint256(18));\r\n                _receiveAirdrop(reportInfo.token, reportInfo.inviterToken, formatAmount, false);\r\n            }\r\n        }\r\n    }\r\n\r\n    /**\r\n     * @dev Check if an account has this relationshipList.\r\n     * @param account the address of relationshipList\r\n     * @return bool\r\n     */\r\n    function hasRelationshipList(address account) public view returns (bool) {\r\n        require(address(account) != address(0), \"Airdrop: The account is the zero address\");\r\n        Relationship memory relationshipListInfo = _relationshipList[account];\r\n        return relationshipListInfo.token != address(0) && !relationshipListInfo.isRemove;\r\n    }\r\n\r\n    /**\r\n     * @dev Check if an account has this airdroplist.\r\n     * @param account the address\r\n     * @return bool\r\n     */\r\n    function hasAirdropList(address account) public view returns (bool) {\r\n        require(address(account) != address(0), \"Airdrop: The account is the zero address\");\r\n        InviteInfo memory inviteInfo = airdropList[account];\r\n        return inviteInfo.inviterToken != address(0);\r\n    }\r\n\r\n    /**\r\n     * @dev Check if an account DAT balance.\r\n     * @param account the address\r\n     * @return bool\r\n     */\r\n    function checkDatBalance(address account) public view returns (bool) {\r\n        uint256 accountBalance = crowdsaleToken.balanceOf(account);\r\n        uint256 formatMinDATBalanceAmount = minDATBalanceAmount * (10**uint256(18));\r\n        return accountBalance >= formatMinDATBalanceAmount;\r\n    }\r\n\r\n    /**\r\n     * @dev Check if an account DAT balance.\r\n     * @param account the address\r\n     * @return bool\r\n     */\r\n    function checkDatStake(address account) public view returns (bool) {\r\n        uint256 accountStakeAmount = crowdsaleForRetail.joined(account);\r\n        uint256 formatMinDATStakeAmount = minDATStakeAmount * (10**uint256(18));\r\n        return accountStakeAmount >= formatMinDATStakeAmount;\r\n    }\r\n\r\n    /**\r\n     * @dev Receive airdrop\r\n     * @param inviterAccount the account of receive's inviter\r\n     */\r\n    function receiveAirdrop(address inviterAccount) public {\r\n        require(inviterAccount != address(0), \"Airdrop: The inviter account is the zero address\");\r\n        require(inviterAccount != msg.sender, \"Airdrop: The inviter account cannot be yourself\");\r\n        require(!hasAirdropList(msg.sender), \"Airdrop: The invitee account is already on the airdropList\");\r\n\r\n        if (checkRelationshipListSwitch) {\r\n            require(hasRelationshipList(inviterAccount), \"Airdrop: The inviter account is not in the relationshipList\");\r\n        }\r\n        if (checkDATBalanceOrDATStakeSwitch) {\r\n            require(checkDatBalance(inviterAccount) || checkDatStake(inviterAccount), \"Airdrop: Account does not meet the requirements\");\r\n        } else {\r\n            if (checkDATBalanceSwitch) {\r\n                require(checkDatBalance(inviterAccount), \"Airdrop: Account balance does not meet the requirements\");\r\n            }\r\n            if (checkDATStakeSwitch) {\r\n                require(checkDatStake(inviterAccount), \"Airdrop: Stake amount does not meet the requirements\");\r\n            }\r\n        }\r\n\r\n        // random to airdrop amount\r\n        uint256 actualAmount = _getActualAmount();\r\n\r\n        // exec receiveAirdrop\r\n        _receiveAirdrop(msg.sender, inviterAccount, actualAmount, true);\r\n    }\r\n\r\n    /**\r\n     * @dev Receive airdrop\r\n     * @param currentAccount the account of operationer\r\n     * @param inviterAccount the account of receive's inviter\r\n     * @param amount Get actual amount\r\n     * @param isTransfer Whether to transfer\r\n     */\r\n    function _receiveAirdrop(address currentAccount, address inviterAccount, uint256 amount, bool isTransfer) private {\r\n        // add to airdropList\r\n        airdropList[currentAccount] = InviteInfo(inviterAccount, amount);\r\n        \r\n        // add to relationshipList member\r\n        Relationship storage relationshipListInfo = _relationshipList[inviterAccount];\r\n        if (relationshipListInfo.token != address(0)) {\r\n            relationshipListInfo.member.push(currentAccount);\r\n        } else {\r\n            _relationshipList[inviterAccount] = Relationship(inviterAccount, false, new address[](0));\r\n            _relationshipList[inviterAccount].member.push(currentAccount);\r\n        }\r\n        \r\n        if (isTransfer) {\r\n            // transfer token to receive account\r\n            token.safeTransferFrom(tokenWallet, currentAccount, amount);\r\n            \r\n            emit transferToken(tokenWallet, currentAccount, amount);\r\n        }\r\n    }\r\n\r\n    /**\r\n     * @dev Get actual amount\r\n     */\r\n    function _getActualAmount() internal view returns(uint256) {\r\n        // random to airdrop amount\r\n        uint256 randomAmount = _rand(airdropMaxAmount);\r\n        if (randomAmount < 1) {\r\n            randomAmount = 1;\r\n        } else if (randomAmount > airdropMaxAmount) {\r\n            randomAmount = airdropMaxAmount;\r\n        }\r\n        uint256 actualAmount = randomAmount * (10**uint256(18));\r\n        return actualAmount;\r\n    }\r\n\r\n    /**\r\n     * @dev Generate random numbers\r\n     * @param length Random number range\r\n     */\r\n    function _rand(uint256 length) internal view returns(uint256) {\r\n        uint256 random = uint256(keccak256(abi.encodePacked(block.difficulty, block.timestamp)));\r\n        return random % length;\r\n    }\r\n\r\n    function killSelf(address payable recipientToken) public onlyOwner {\r\n        uint256 contractBalance = token.balanceOf(address(this));\r\n        token.safeTransfer(recipientToken, contractBalance);\r\n\r\n        selfdestruct(recipientToken);\r\n    }\r\n}\r\n",
  "sourcePath": "D:/Workspaces/DaoswapDex/daoswapdex-heco-testnet/core-airdrop/contracts/AirdropUnlimited.sol",
  "compiler": {
    "name": "solc",
    "version": "0.8.4+commit.c7e474f2.Emscripten.clang"
  },
  "schemaVersion": "3.4.1",
  "updatedAt": "2021-08-13T04:17:19.033Z",
  "networkType": "ethereum",
  "devdoc": {
    "kind": "dev",
    "methods": {
      "addMutliToAirdropList((address,address,uint256)[])": {
        "details": "add account list to the airdropList by owner",
        "params": {
          "list": "the address of airdropList"
        }
      },
      "addMutliToRelationshipList(address[])": {
        "details": "add account list to the relationshipList by owner",
        "params": {
          "accountList": "the address of relationshipList"
        }
      },
      "addToRelationshipList(address)": {
        "details": "add single account to the relationshipList by owner",
        "params": {
          "account": "the address of relationshipList"
        }
      },
      "checkDatBalance(address)": {
        "details": "Check if an account DAT balance.",
        "params": {
          "account": "the address"
        },
        "returns": {
          "_0": "bool"
        }
      },
      "checkDatStake(address)": {
        "details": "Check if an account DAT balance.",
        "params": {
          "account": "the address"
        },
        "returns": {
          "_0": "bool"
        }
      },
      "getDatBalance(address)": {
        "details": "get DAT balance amount of account.",
        "params": {
          "account": "the address"
        },
        "returns": {
          "_0": "uint256"
        }
      },
      "getDatStake(address)": {
        "details": "get DAT stake amount of account.",
        "params": {
          "account": "the address"
        },
        "returns": {
          "_0": "uint256"
        }
      },
      "getMemberList()": {
        "details": "get member list from the relationshipList by owner"
      },
      "getMemberListByOwner(address)": {
        "details": "get member list from the relationshipList by owner"
      },
      "hasAirdropList(address)": {
        "details": "Check if an account has this airdroplist.",
        "params": {
          "account": "the address"
        },
        "returns": {
          "_0": "bool"
        }
      },
      "hasRelationshipList(address)": {
        "details": "Check if an account has this relationshipList.",
        "params": {
          "account": "the address of relationshipList"
        },
        "returns": {
          "_0": "bool"
        }
      },
      "owner()": {
        "details": "Returns the address of the current owner."
      },
      "receiveAirdrop(address)": {
        "details": "Receive airdrop",
        "params": {
          "inviterAccount": "the account of receive's inviter"
        }
      },
      "removeFromRelationshipList(address)": {
        "details": "remove single account from the relationshipList by owner",
        "params": {
          "account": "the address of relationshipList"
        }
      },
      "renounceOwnership()": {
        "details": "Leaves the contract without owner. It will not be possible to call `onlyOwner` functions anymore. Can only be called by the current owner. NOTE: Renouncing ownership will leave the contract without an owner, thereby removing any functionality that is only available to the owner."
      },
      "transferOwnership(address)": {
        "details": "Transfers ownership of the contract to a new account (`newOwner`). Can only be called by the current owner."
      }
    },
    "version": 1
  },
  "userdoc": {
    "kind": "user",
    "methods": {},
    "version": 1
  }
}