{
  "contractName": "Airdrop",
  "abi": [
    {
      "inputs": [
        {
          "internalType": "contract IERC20",
          "name": "_token",
          "type": "address"
        },
        {
          "internalType": "address",
          "name": "_tokenWallet",
          "type": "address"
        },
        {
          "internalType": "uint256",
          "name": "_airdropAmount",
          "type": "uint256"
        }
      ],
      "stateMutability": "nonpayable",
      "type": "constructor"
    },
    {
      "anonymous": false,
      "inputs": [
        {
          "indexed": false,
          "internalType": "address",
          "name": "account",
          "type": "address"
        }
      ],
      "name": "AddToWhitelist",
      "type": "event"
    },
    {
      "anonymous": false,
      "inputs": [
        {
          "indexed": true,
          "internalType": "address",
          "name": "previousOwner",
          "type": "address"
        },
        {
          "indexed": true,
          "internalType": "address",
          "name": "newOwner",
          "type": "address"
        }
      ],
      "name": "OwnershipTransferred",
      "type": "event"
    },
    {
      "inputs": [],
      "name": "airdropAmount",
      "outputs": [
        {
          "internalType": "uint256",
          "name": "",
          "type": "uint256"
        }
      ],
      "stateMutability": "view",
      "type": "function",
      "constant": true
    },
    {
      "inputs": [
        {
          "internalType": "address",
          "name": "",
          "type": "address"
        }
      ],
      "name": "airdropList",
      "outputs": [
        {
          "internalType": "address",
          "name": "inviterToken",
          "type": "address"
        },
        {
          "internalType": "uint256",
          "name": "airdropAmount",
          "type": "uint256"
        }
      ],
      "stateMutability": "view",
      "type": "function",
      "constant": true
    },
    {
      "inputs": [],
      "name": "owner",
      "outputs": [
        {
          "internalType": "address",
          "name": "",
          "type": "address"
        }
      ],
      "stateMutability": "view",
      "type": "function",
      "constant": true
    },
    {
      "inputs": [],
      "name": "renounceOwnership",
      "outputs": [],
      "stateMutability": "nonpayable",
      "type": "function"
    },
    {
      "inputs": [],
      "name": "token",
      "outputs": [
        {
          "internalType": "contract IERC20",
          "name": "",
          "type": "address"
        }
      ],
      "stateMutability": "view",
      "type": "function",
      "constant": true
    },
    {
      "inputs": [],
      "name": "tokenWallet",
      "outputs": [
        {
          "internalType": "address",
          "name": "",
          "type": "address"
        }
      ],
      "stateMutability": "view",
      "type": "function",
      "constant": true
    },
    {
      "inputs": [
        {
          "internalType": "address",
          "name": "newOwner",
          "type": "address"
        }
      ],
      "name": "transferOwnership",
      "outputs": [],
      "stateMutability": "nonpayable",
      "type": "function"
    },
    {
      "inputs": [
        {
          "internalType": "address",
          "name": "account",
          "type": "address"
        }
      ],
      "name": "getMemberListByOwner",
      "outputs": [
        {
          "internalType": "address[]",
          "name": "",
          "type": "address[]"
        }
      ],
      "stateMutability": "view",
      "type": "function",
      "constant": true
    },
    {
      "inputs": [],
      "name": "getMemberList",
      "outputs": [
        {
          "internalType": "address[]",
          "name": "",
          "type": "address[]"
        }
      ],
      "stateMutability": "view",
      "type": "function",
      "constant": true
    },
    {
      "inputs": [
        {
          "internalType": "address",
          "name": "account",
          "type": "address"
        }
      ],
      "name": "removeFromWhitelist",
      "outputs": [],
      "stateMutability": "nonpayable",
      "type": "function"
    },
    {
      "inputs": [
        {
          "internalType": "address[]",
          "name": "accountList",
          "type": "address[]"
        }
      ],
      "name": "addMutliToWhitelist",
      "outputs": [],
      "stateMutability": "nonpayable",
      "type": "function"
    },
    {
      "inputs": [
        {
          "internalType": "address",
          "name": "account",
          "type": "address"
        }
      ],
      "name": "addToWhitelist",
      "outputs": [],
      "stateMutability": "nonpayable",
      "type": "function"
    },
    {
      "inputs": [
        {
          "internalType": "address",
          "name": "account",
          "type": "address"
        }
      ],
      "name": "hasWhitelist",
      "outputs": [
        {
          "internalType": "bool",
          "name": "",
          "type": "bool"
        }
      ],
      "stateMutability": "view",
      "type": "function",
      "constant": true
    },
    {
      "inputs": [
        {
          "internalType": "address",
          "name": "account",
          "type": "address"
        }
      ],
      "name": "hasAirdropList",
      "outputs": [
        {
          "internalType": "bool",
          "name": "",
          "type": "bool"
        }
      ],
      "stateMutability": "view",
      "type": "function",
      "constant": true
    },
    {
      "inputs": [
        {
          "internalType": "address",
          "name": "inviterAccount",
          "type": "address"
        }
      ],
      "name": "receiveAirdrop",
      "outputs": [],
      "stateMutability": "nonpayable",
      "type": "function"
    },
    {
      "inputs": [
        {
          "internalType": "address payable",
          "name": "recipientToken",
          "type": "address"
        }
      ],
      "name": "killSelf",
      "outputs": [],
      "stateMutability": "nonpayable",
      "type": "function"
    }
  ],
  "bytecode": "0x60806040523480156200001157600080fd5b50604051620030ed380380620030ed8339818101604052810190620000379190620002e0565b620000576200004b620001cf60201b60201c565b620001d760201b60201c565b600073ffffffffffffffffffffffffffffffffffffffff168373ffffffffffffffffffffffffffffffffffffffff161415620000ca576040517f08c379a0000000000000000000000000000000000000000000000000000000008152600401620000c19062000384565b60405180910390fd5b600073ffffffffffffffffffffffffffffffffffffffff168273ffffffffffffffffffffffffffffffffffffffff1614156200013d576040517f08c379a00000000000000000000000000000000000000000000000000000000081526004016200013490620003a6565b60405180910390fd5b82600160006101000a81548173ffffffffffffffffffffffffffffffffffffffff021916908373ffffffffffffffffffffffffffffffffffffffff16021790555081600260006101000a81548173ffffffffffffffffffffffffffffffffffffffff021916908373ffffffffffffffffffffffffffffffffffffffff1602179055508060038190555050505062000517565b600033905090565b60008060009054906101000a900473ffffffffffffffffffffffffffffffffffffffff169050816000806101000a81548173ffffffffffffffffffffffffffffffffffffffff021916908373ffffffffffffffffffffffffffffffffffffffff1602179055508173ffffffffffffffffffffffffffffffffffffffff168173ffffffffffffffffffffffffffffffffffffffff167f8be0079c531659141344cd1fd0a4f28419497f9722a3daafe3b4186f6b6457e060405160405180910390a35050565b600081519050620002ac81620004c9565b92915050565b600081519050620002c381620004e3565b92915050565b600081519050620002da81620004fd565b92915050565b600080600060608486031215620002f657600080fd5b60006200030686828701620002b2565b935050602062000319868287016200029b565b92505060406200032c86828701620002c9565b9150509250925092565b600062000345602683620003c8565b915062000352826200042b565b604082019050919050565b60006200036c602d83620003c8565b915062000379826200047a565b604082019050919050565b600060208201905081810360008301526200039f8162000336565b9050919050565b60006020820190508181036000830152620003c1816200035d565b9050919050565b600082825260208201905092915050565b6000620003e68262000401565b9050919050565b6000620003fa82620003d9565b9050919050565b600073ffffffffffffffffffffffffffffffffffffffff82169050919050565b6000819050919050565b7f41697264726f703a2054686520746f6b656e20697320746865207a65726f206160008201527f6464726573730000000000000000000000000000000000000000000000000000602082015250565b7f41697264726f703a2054686520746f6b656e2077616c6c65742069732074686560008201527f207a65726f206164647265737300000000000000000000000000000000000000602082015250565b620004d481620003d9565b8114620004e057600080fd5b50565b620004ee81620003ed565b8114620004fa57600080fd5b50565b620005088162000421565b81146200051457600080fd5b50565b612bc680620005276000396000f3fe608060405234801561001057600080fd5b50600436106101005760003560e01c8063b42fd41911610097578063f2fde38b11610066578063f2fde38b1461029a578063f7734812146102b6578063fc0c546a146102d2578063fc2ea8a5146102f057610100565b8063b42fd41914610214578063bff99c6c14610230578063ca4cf14f1461024e578063e43252d71461027e57610100565b80638ab1d681116100d35780638ab1d6811461017a5780638cdb7e8b146101965780638d59b3a7146101c65780638da5cb5b146101f657610100565b80633a507d7d1461010557806358cf77fa146101215780635f5d5f0014610152578063715018a614610170575b600080fd5b61011f600480360381019061011a9190611b09565b61030e565b005b61013b60048036038101906101369190611ae0565b61049f565b604051610149929190611fa9565b60405180910390f35b61015a6104e3565b6040516101679190611fd2565b60405180910390f35b61017861053b565b005b610194600480360381019061018f9190611ae0565b6105c3565b005b6101b060048036038101906101ab9190611ae0565b6106eb565b6040516101bd9190611ff4565b60405180910390f35b6101e060048036038101906101db9190611ae0565b610817565b6040516101ed9190611ff4565b60405180910390f35b6101fe610928565b60405161020b9190611f57565b60405180910390f35b61022e60048036038101906102299190611b32565b610951565b005b610238610a7d565b6040516102459190611f57565b60405180910390f35b61026860048036038101906102639190611ae0565b610aa3565b6040516102759190611fd2565b60405180910390f35b61029860048036038101906102939190611ae0565b610b31565b005b6102b460048036038101906102af9190611ae0565b610c82565b005b6102d060048036038101906102cb9190611ae0565b610d7a565b005b6102da61111b565b6040516102e7919061200f565b60405180910390f35b6102f8611141565b604051610305919061222c565b60405180910390f35b610316611147565b73ffffffffffffffffffffffffffffffffffffffff16610334610928565b73ffffffffffffffffffffffffffffffffffffffff161461038a576040517f08c379a0000000000000000000000000000000000000000000000000000000008152600401610381906120ec565b60405180910390fd5b6000600160009054906101000a900473ffffffffffffffffffffffffffffffffffffffff1673ffffffffffffffffffffffffffffffffffffffff166370a08231306040518263ffffffff1660e01b81526004016103e79190611f57565b60206040518083038186803b1580156103ff57600080fd5b505afa158015610413573d6000803e3d6000fd5b505050506040513d601f19601f820116820180604052508101906104379190611b9c565b90506104868282600160009054906101000a900473ffffffffffffffffffffffffffffffffffffffff1673ffffffffffffffffffffffffffffffffffffffff1661114f9092919063ffffffff16565b8173ffffffffffffffffffffffffffffffffffffffff16ff5b60056020528060005260406000206000915090508060000160009054906101000a900473ffffffffffffffffffffffffffffffffffffffff16908060010154905082565b60606104ee336106eb565b61052d576040517f08c379a0000000000000000000000000000000000000000000000000000000008152600401610524906121cc565b60405180910390fd5b610536336111d5565b905090565b610543611147565b73ffffffffffffffffffffffffffffffffffffffff16610561610928565b73ffffffffffffffffffffffffffffffffffffffff16146105b7576040517f08c379a00000000000000000000000000000000000000000000000000000000081526004016105ae906120ec565b60405180910390fd5b6105c160006112ab565b565b6105cb611147565b73ffffffffffffffffffffffffffffffffffffffff166105e9610928565b73ffffffffffffffffffffffffffffffffffffffff161461063f576040517f08c379a0000000000000000000000000000000000000000000000000000000008152600401610636906120ec565b60405180910390fd5b610648816106eb565b610687576040517f08c379a000000000000000000000000000000000000000000000000000000000815260040161067e906121cc565b60405180910390fd5b6000600460008373ffffffffffffffffffffffffffffffffffffffff1673ffffffffffffffffffffffffffffffffffffffff168152602001908152602001600020905060018160000160146101000a81548160ff0219169083151502179055505050565b60008073ffffffffffffffffffffffffffffffffffffffff168273ffffffffffffffffffffffffffffffffffffffff16141561075c576040517f08c379a00000000000000000000000000000000000000000000000000000000081526004016107539061220c565b60405180910390fd5b6000600460008473ffffffffffffffffffffffffffffffffffffffff1673ffffffffffffffffffffffffffffffffffffffff1681526020019081526020016000209050600073ffffffffffffffffffffffffffffffffffffffff168160000160009054906101000a900473ffffffffffffffffffffffffffffffffffffffff1673ffffffffffffffffffffffffffffffffffffffff161415801561080f57508060000160149054906101000a900460ff16155b915050919050565b60008073ffffffffffffffffffffffffffffffffffffffff168273ffffffffffffffffffffffffffffffffffffffff161415610888576040517f08c379a000000000000000000000000000000000000000000000000000000000815260040161087f9061220c565b60405180910390fd5b6000600560008473ffffffffffffffffffffffffffffffffffffffff1673ffffffffffffffffffffffffffffffffffffffff1681526020019081526020016000209050600073ffffffffffffffffffffffffffffffffffffffff168160000160009054906101000a900473ffffffffffffffffffffffffffffffffffffffff1673ffffffffffffffffffffffffffffffffffffffff161415915050919050565b60008060009054906101000a900473ffffffffffffffffffffffffffffffffffffffff16905090565b610959611147565b73ffffffffffffffffffffffffffffffffffffffff16610977610928565b73ffffffffffffffffffffffffffffffffffffffff16146109cd576040517f08c379a00000000000000000000000000000000000000000000000000000000081526004016109c4906120ec565b60405180910390fd5b6000815111610a11576040517f08c379a0000000000000000000000000000000000000000000000000000000008152600401610a08906121ec565b60405180910390fd5b60005b8151811015610a7957610a66828281518110610a59577f4e487b7100000000000000000000000000000000000000000000000000000000600052603260045260246000fd5b602002602001015161136f565b8080610a71906125b0565b915050610a14565b5050565b600260009054906101000a900473ffffffffffffffffffffffffffffffffffffffff1681565b6060610aad611147565b73ffffffffffffffffffffffffffffffffffffffff16610acb610928565b73ffffffffffffffffffffffffffffffffffffffff1614610b21576040517f08c379a0000000000000000000000000000000000000000000000000000000008152600401610b18906120ec565b60405180910390fd5b610b2a826111d5565b9050919050565b610b39611147565b73ffffffffffffffffffffffffffffffffffffffff16610b57610928565b73ffffffffffffffffffffffffffffffffffffffff1614610bad576040517f08c379a0000000000000000000000000000000000000000000000000000000008152600401610ba4906120ec565b60405180910390fd5b610bb6816106eb565b15610bf6576040517f08c379a0000000000000000000000000000000000000000000000000000000008152600401610bed9061204c565b60405180910390fd5b610bff81610817565b15610c3f576040517f08c379a0000000000000000000000000000000000000000000000000000000008152600401610c369061214c565b60405180910390fd5b610c488161136f565b7f75b2135d1c8c3519f3c09c43fe6527089ef09f40c7981ebf0ed46e79e79032c781604051610c779190611f57565b60405180910390a150565b610c8a611147565b73ffffffffffffffffffffffffffffffffffffffff16610ca8610928565b73ffffffffffffffffffffffffffffffffffffffff1614610cfe576040517f08c379a0000000000000000000000000000000000000000000000000000000008152600401610cf5906120ec565b60405180910390fd5b600073ffffffffffffffffffffffffffffffffffffffff168173ffffffffffffffffffffffffffffffffffffffff161415610d6e576040517f08c379a0000000000000000000000000000000000000000000000000000000008152600401610d659061206c565b60405180910390fd5b610d77816112ab565b50565b600073ffffffffffffffffffffffffffffffffffffffff168173ffffffffffffffffffffffffffffffffffffffff161415610dea576040517f08c379a0000000000000000000000000000000000000000000000000000000008152600401610de19061212c565b60405180910390fd5b3373ffffffffffffffffffffffffffffffffffffffff168173ffffffffffffffffffffffffffffffffffffffff161415610e59576040517f08c379a0000000000000000000000000000000000000000000000000000000008152600401610e509061210c565b60405180910390fd5b610e62816106eb565b610ea1576040517f08c379a0000000000000000000000000000000000000000000000000000000008152600401610e989061208c565b60405180910390fd5b610eaa336106eb565b15610eea576040517f08c379a0000000000000000000000000000000000000000000000000000000008152600401610ee1906120ac565b60405180910390fd5b610ef333610817565b15610f33576040517f08c379a0000000000000000000000000000000000000000000000000000000008152600401610f2a9061218c565b60405180910390fd5b6000610f3d6115bc565b905060405180604001604052808373ffffffffffffffffffffffffffffffffffffffff16815260200182815250600560003373ffffffffffffffffffffffffffffffffffffffff1673ffffffffffffffffffffffffffffffffffffffff16815260200190815260200160002060008201518160000160006101000a81548173ffffffffffffffffffffffffffffffffffffffff021916908373ffffffffffffffffffffffffffffffffffffffff160217905550602082015181600101559050506000600460008473ffffffffffffffffffffffffffffffffffffffff1673ffffffffffffffffffffffffffffffffffffffff168152602001908152602001600020905080600101339080600181540180825580915050600190039060005260206000200160009091909190916101000a81548173ffffffffffffffffffffffffffffffffffffffff021916908373ffffffffffffffffffffffffffffffffffffffff160217905550611116600260009054906101000a900473ffffffffffffffffffffffffffffffffffffffff163384600160009054906101000a900473ffffffffffffffffffffffffffffffffffffffff1673ffffffffffffffffffffffffffffffffffffffff16611614909392919063ffffffff16565b505050565b600160009054906101000a900473ffffffffffffffffffffffffffffffffffffffff1681565b60035481565b600033905090565b6111d08363a9059cbb60e01b848460405160240161116e929190611fa9565b604051602081830303815290604052907bffffffffffffffffffffffffffffffffffffffffffffffffffffffff19166020820180517bffffffffffffffffffffffffffffffffffffffffffffffffffffffff838183161783525050505061169d565b505050565b60606000600460008473ffffffffffffffffffffffffffffffffffffffff1673ffffffffffffffffffffffffffffffffffffffff16815260200190815260200160002090508060010180548060200260200160405190810160405280929190818152602001828054801561129e57602002820191906000526020600020905b8160009054906101000a900473ffffffffffffffffffffffffffffffffffffffff1673ffffffffffffffffffffffffffffffffffffffff1681526020019060010190808311611254575b5050505050915050919050565b60008060009054906101000a900473ffffffffffffffffffffffffffffffffffffffff169050816000806101000a81548173ffffffffffffffffffffffffffffffffffffffff021916908373ffffffffffffffffffffffffffffffffffffffff1602179055508173ffffffffffffffffffffffffffffffffffffffff168173ffffffffffffffffffffffffffffffffffffffff167f8be0079c531659141344cd1fd0a4f28419497f9722a3daafe3b4186f6b6457e060405160405180910390a35050565b611378816106eb565b15801561138b575061138981610817565b155b156115b9576000600460008373ffffffffffffffffffffffffffffffffffffffff1673ffffffffffffffffffffffffffffffffffffffff1681526020019081526020016000209050600073ffffffffffffffffffffffffffffffffffffffff168160000160009054906101000a900473ffffffffffffffffffffffffffffffffffffffff1673ffffffffffffffffffffffffffffffffffffffff161461144d5760008160000160146101000a81548160ff0219169083151502179055506115b7565b60405180606001604052808373ffffffffffffffffffffffffffffffffffffffff168152602001600015158152602001600067ffffffffffffffff8111156114be577f4e487b7100000000000000000000000000000000000000000000000000000000600052604160045260246000fd5b6040519080825280602002602001820160405280156114ec5781602001602082028036833780820191505090505b50815250600460008473ffffffffffffffffffffffffffffffffffffffff1673ffffffffffffffffffffffffffffffffffffffff16815260200190815260200160002060008201518160000160006101000a81548173ffffffffffffffffffffffffffffffffffffffff021916908373ffffffffffffffffffffffffffffffffffffffff16021790555060208201518160000160146101000a81548160ff02191690831515021790555060408201518160010190805190602001906115b292919061194f565b509050505b505b50565b6000806115ca600354611764565b905060018110156115de57600190506115ef565b6003548111156115ee5760035490505b5b60006012600a6115ff9190612356565b8261160a9190612474565b9050809250505090565b611697846323b872dd60e01b85858560405160240161163593929190611f72565b604051602081830303815290604052907bffffffffffffffffffffffffffffffffffffffffffffffffffffffff19166020820180517bffffffffffffffffffffffffffffffffffffffffffffffffffffffff838183161783525050505061169d565b50505050565b60006116ff826040518060400160405280602081526020017f5361666545524332303a206c6f772d6c6576656c2063616c6c206661696c65648152508573ffffffffffffffffffffffffffffffffffffffff166117a99092919063ffffffff16565b905060008151111561175f578080602001905181019061171f9190611b73565b61175e576040517f08c379a0000000000000000000000000000000000000000000000000000000008152600401611755906121ac565b60405180910390fd5b5b505050565b600080444260405160200161177a929190611f2b565b6040516020818303038152906040528051906020012060001c905082816117a19190612603565b915050919050565b60606117b884846000856117c1565b90509392505050565b606082471015611806576040517f08c379a00000000000000000000000000000000000000000000000000000000081526004016117fd906120cc565b60405180910390fd5b61180f856118d5565b61184e576040517f08c379a00000000000000000000000000000000000000000000000000000000081526004016118459061216c565b60405180910390fd5b6000808673ffffffffffffffffffffffffffffffffffffffff1685876040516118779190611f14565b60006040518083038185875af1925050503d80600081146118b4576040519150601f19603f3d011682016040523d82523d6000602084013e6118b9565b606091505b50915091506118c98282866118e8565b92505050949350505050565b600080823b905060008111915050919050565b606083156118f857829050611948565b60008351111561190b5782518084602001fd5b816040517f08c379a000000000000000000000000000000000000000000000000000000000815260040161193f919061202a565b60405180910390fd5b9392505050565b8280548282559060005260206000209081019282156119c8579160200282015b828111156119c75782518260006101000a81548173ffffffffffffffffffffffffffffffffffffffff021916908373ffffffffffffffffffffffffffffffffffffffff1602179055509160200191906001019061196f565b5b5090506119d591906119d9565b5090565b5b808211156119f25760008160009055506001016119da565b5090565b6000611a09611a048461226c565b612247565b90508083825260208201905082856020860282011115611a2857600080fd5b60005b85811015611a585781611a3e8882611a62565b845260208401935060208301925050600181019050611a2b565b5050509392505050565b600081359050611a7181612b34565b92915050565b600081359050611a8681612b4b565b92915050565b600082601f830112611a9d57600080fd5b8135611aad8482602086016119f6565b91505092915050565b600081519050611ac581612b62565b92915050565b600081519050611ada81612b79565b92915050565b600060208284031215611af257600080fd5b6000611b0084828501611a62565b91505092915050565b600060208284031215611b1b57600080fd5b6000611b2984828501611a77565b91505092915050565b600060208284031215611b4457600080fd5b600082013567ffffffffffffffff811115611b5e57600080fd5b611b6a84828501611a8c565b91505092915050565b600060208284031215611b8557600080fd5b6000611b9384828501611ab6565b91505092915050565b600060208284031215611bae57600080fd5b6000611bbc84828501611acb565b91505092915050565b6000611bd18383611bdd565b60208301905092915050565b611be6816124ce565b82525050565b611bf5816124ce565b82525050565b6000611c06826122a8565b611c1081856122d6565b9350611c1b83612298565b8060005b83811015611c4c578151611c338882611bc5565b9750611c3e836122c9565b925050600181019050611c1f565b5085935050505092915050565b611c62816124f2565b82525050565b6000611c73826122b3565b611c7d81856122e7565b9350611c8d81856020860161254c565b80840191505092915050565b611ca281612528565b82525050565b6000611cb3826122be565b611cbd81856122f2565b9350611ccd81856020860161254c565b611cd6816126c1565b840191505092915050565b6000611cee6030836122f2565b9150611cf9826126df565b604082019050919050565b6000611d116026836122f2565b9150611d1c8261272e565b604082019050919050565b6000611d346034836122f2565b9150611d3f8261277d565b604082019050919050565b6000611d576038836122f2565b9150611d62826127cc565b604082019050919050565b6000611d7a6026836122f2565b9150611d858261281b565b604082019050919050565b6000611d9d6020836122f2565b9150611da88261286a565b602082019050919050565b6000611dc0602f836122f2565b9150611dcb82612893565b604082019050919050565b6000611de36030836122f2565b9150611dee826128e2565b604082019050919050565b6000611e066032836122f2565b9150611e1182612931565b604082019050919050565b6000611e29601d836122f2565b9150611e3482612980565b602082019050919050565b6000611e4c603a836122f2565b9150611e57826129a9565b604082019050919050565b6000611e6f602a836122f2565b9150611e7a826129f8565b604082019050919050565b6000611e92602c836122f2565b9150611e9d82612a47565b604082019050919050565b6000611eb56021836122f2565b9150611ec082612a96565b604082019050919050565b6000611ed86028836122f2565b9150611ee382612ae5565b604082019050919050565b611ef78161251e565b82525050565b611f0e611f098261251e565b6125f9565b82525050565b6000611f208284611c68565b915081905092915050565b6000611f378285611efd565b602082019150611f478284611efd565b6020820191508190509392505050565b6000602082019050611f6c6000830184611bec565b92915050565b6000606082019050611f876000830186611bec565b611f946020830185611bec565b611fa16040830184611eee565b949350505050565b6000604082019050611fbe6000830185611bec565b611fcb6020830184611eee565b9392505050565b60006020820190508181036000830152611fec8184611bfb565b905092915050565b60006020820190506120096000830184611c59565b92915050565b60006020820190506120246000830184611c99565b92915050565b600060208201905081810360008301526120448184611ca8565b905092915050565b6000602082019050818103600083015261206581611ce1565b9050919050565b6000602082019050818103600083015261208581611d04565b9050919050565b600060208201905081810360008301526120a581611d27565b9050919050565b600060208201905081810360008301526120c581611d4a565b9050919050565b600060208201905081810360008301526120e581611d6d565b9050919050565b6000602082019050818103600083015261210581611d90565b9050919050565b6000602082019050818103600083015261212581611db3565b9050919050565b6000602082019050818103600083015261214581611dd6565b9050919050565b6000602082019050818103600083015261216581611df9565b9050919050565b6000602082019050818103600083015261218581611e1c565b9050919050565b600060208201905081810360008301526121a581611e3f565b9050919050565b600060208201905081810360008301526121c581611e62565b9050919050565b600060208201905081810360008301526121e581611e85565b9050919050565b6000602082019050818103600083015261220581611ea8565b9050919050565b6000602082019050818103600083015261222581611ecb565b9050919050565b60006020820190506122416000830184611eee565b92915050565b6000612251612262565b905061225d828261257f565b919050565b6000604051905090565b600067ffffffffffffffff82111561228757612286612692565b5b602082029050602081019050919050565b6000819050602082019050919050565b600081519050919050565b600081519050919050565b600081519050919050565b6000602082019050919050565b600082825260208201905092915050565b600081905092915050565b600082825260208201905092915050565b6000808291508390505b600185111561234d5780860481111561232957612328612634565b5b60018516156123385780820291505b8081029050612346856126d2565b945061230d565b94509492505050565b60006123618261251e565b915061236c8361251e565b92506123997fffffffffffffffffffffffffffffffffffffffffffffffffffffffffffffffff84846123a1565b905092915050565b6000826123b1576001905061246d565b816123bf576000905061246d565b81600181146123d557600281146123df5761240e565b600191505061246d565b60ff8411156123f1576123f0612634565b5b8360020a91508482111561240857612407612634565b5b5061246d565b5060208310610133831016604e8410600b84101617156124435782820a90508381111561243e5761243d612634565b5b61246d565b6124508484846001612303565b9250905081840481111561246757612466612634565b5b81810290505b9392505050565b600061247f8261251e565b915061248a8361251e565b9250817fffffffffffffffffffffffffffffffffffffffffffffffffffffffffffffffff04831182151516156124c3576124c2612634565b5b828202905092915050565b60006124d9826124fe565b9050919050565b60006124eb826124fe565b9050919050565b60008115159050919050565b600073ffffffffffffffffffffffffffffffffffffffff82169050919050565b6000819050919050565b60006125338261253a565b9050919050565b6000612545826124fe565b9050919050565b60005b8381101561256a57808201518184015260208101905061254f565b83811115612579576000848401525b50505050565b612588826126c1565b810181811067ffffffffffffffff821117156125a7576125a6612692565b5b80604052505050565b60006125bb8261251e565b91507fffffffffffffffffffffffffffffffffffffffffffffffffffffffffffffffff8214156125ee576125ed612634565b5b600182019050919050565b6000819050919050565b600061260e8261251e565b91506126198361251e565b92508261262957612628612663565b5b828206905092915050565b7f4e487b7100000000000000000000000000000000000000000000000000000000600052601160045260246000fd5b7f4e487b7100000000000000000000000000000000000000000000000000000000600052601260045260246000fd5b7f4e487b7100000000000000000000000000000000000000000000000000000000600052604160045260246000fd5b6000601f19601f8301169050919050565b60008160011c9050919050565b7f41697264726f703a20546865206163636f756e7420697320616c72656164792060008201527f6f6e207468652077686974656c69737400000000000000000000000000000000602082015250565b7f4f776e61626c653a206e6577206f776e657220697320746865207a65726f206160008201527f6464726573730000000000000000000000000000000000000000000000000000602082015250565b7f41697264726f703a2054686520696e7669746572206163636f756e742069732060008201527f6e6f7420696e207468652077686974656c697374000000000000000000000000602082015250565b7f41697264726f703a2054686520696e7669746565206163636f756e742069732060008201527f616c7265616479206f6e207468652077686974656c6973740000000000000000602082015250565b7f416464726573733a20696e73756666696369656e742062616c616e636520666f60008201527f722063616c6c0000000000000000000000000000000000000000000000000000602082015250565b7f4f776e61626c653a2063616c6c6572206973206e6f7420746865206f776e6572600082015250565b7f41697264726f703a2054686520696e7669746572206163636f756e742063616e60008201527f6e6f7420626520796f757273656c660000000000000000000000000000000000602082015250565b7f41697264726f703a2054686520696e7669746572206163636f756e742069732060008201527f746865207a65726f206164647265737300000000000000000000000000000000602082015250565b7f41697264726f703a20546865206163636f756e7420697320616c72656164792060008201527f6f6e207468652061697264726f704c6973740000000000000000000000000000602082015250565b7f416464726573733a2063616c6c20746f206e6f6e2d636f6e7472616374000000600082015250565b7f41697264726f703a2054686520696e7669746565206163636f756e742069732060008201527f616c7265616479206f6e207468652061697264726f704c697374000000000000602082015250565b7f5361666545524332303a204552433230206f7065726174696f6e20646964206e60008201527f6f74207375636365656400000000000000000000000000000000000000000000602082015250565b7f41697264726f703a20546865206163636f756e74206973206e6f7420696e207460008201527f68652077686974656c6973740000000000000000000000000000000000000000602082015250565b7f41697264726f703a20546865206163636f756e74206c697374206973206e756c60008201527f6c00000000000000000000000000000000000000000000000000000000000000602082015250565b7f41697264726f703a20546865206163636f756e7420697320746865207a65726f60008201527f2061646472657373000000000000000000000000000000000000000000000000602082015250565b612b3d816124ce565b8114612b4857600080fd5b50565b612b54816124e0565b8114612b5f57600080fd5b50565b612b6b816124f2565b8114612b7657600080fd5b50565b612b828161251e565b8114612b8d57600080fd5b5056fea2646970667358221220af467204f85a3cdc3da8457c66fc3c542b470f36a2ce5671abd123e16dabef4364736f6c63430008040033",
  "immutableReferences": {},
  "source": "// SPDX-License-Identifier: MIT\r\npragma solidity ^0.8.0;\r\n\r\nimport \"@openzeppelin/contracts/access/Ownable.sol\";\r\nimport \"@openzeppelin/contracts/utils/math/SafeMath.sol\";\r\nimport \"@openzeppelin/contracts/token/ERC20/utils/SafeERC20.sol\";\r\n\r\ncontract Airdrop is Ownable {\r\n    using SafeMath for uint256;\r\n    using SafeERC20 for IERC20;\r\n\r\n    event AddToWhitelist(address account);\r\n\r\n    IERC20 public token;\r\n    address public tokenWallet;\r\n    uint256 public airdropAmount;\r\n\r\n    // whitelist\r\n    struct WhitelistInfo {\r\n        address token;\r\n        bool isRemove;\r\n        address[] member;\r\n    }\r\n    mapping (address => WhitelistInfo) private _whitelist;\r\n    // Record the information of all invited personnel\r\n    struct InviteInfo {\r\n        address inviterToken;\r\n        uint256 airdropAmount;\r\n    }\r\n    mapping (address => InviteInfo) public airdropList;\r\n\r\n    constructor(IERC20 _token, address _tokenWallet, uint256 _airdropAmount) Ownable() {\r\n        require(address(_token) != address(0), \"Airdrop: The token is the zero address\");\r\n        require(_tokenWallet != address(0), \"Airdrop: The token wallet is the zero address\");\r\n\r\n        token = _token;\r\n        tokenWallet = _tokenWallet;\r\n        airdropAmount = _airdropAmount;\r\n    }\r\n\r\n    /**\r\n     * @dev get member list from the whitelist by owner\r\n     */\r\n    function getMemberListByOwner(address account) public onlyOwner view returns (address[] memory) {\r\n        return _getMemberList(account);\r\n    }\r\n\r\n    /**\r\n     * @dev get member list from the whitelist by owner\r\n     */\r\n    function getMemberList() public view returns (address[] memory) {\r\n        require(hasWhitelist(msg.sender), \"Airdrop: The account is not in the whitelist\");\r\n        return _getMemberList(msg.sender);\r\n    }\r\n\r\n    /**\r\n     * @dev get member list from the whitelist\r\n     */\r\n    function _getMemberList(address account) internal view returns (address[] memory) {\r\n        WhitelistInfo storage info = _whitelist[account];\r\n        return info.member;\r\n    }\r\n\r\n    /**\r\n     * @dev remove single account from the whitelist by owner\r\n     * @param account the address of whitelist\r\n     */\r\n    function removeFromWhitelist(address account) public onlyOwner {\r\n        require(hasWhitelist(account), \"Airdrop: The account is not in the whitelist\");\r\n        WhitelistInfo storage info = _whitelist[account];\r\n        info.isRemove = true;\r\n    }\r\n\r\n    /**\r\n     * @dev add account list to the whitelist by owner\r\n     * @param accountList the address of whitelist\r\n     */\r\n    function addMutliToWhitelist(address[] memory accountList) public onlyOwner {\r\n        require(accountList.length > 0, \"Airdrop: The account list is null\");\r\n        for (uint i = 0; i < accountList.length; i++) {\r\n            _addToWhitelist(accountList[i]);\r\n        }\r\n    }\r\n\r\n    /**\r\n     * @dev add single account to the whitelist by owner\r\n     * @param account the address of whitelist\r\n     */\r\n    function addToWhitelist(address account) public onlyOwner {\r\n        require(!hasWhitelist(account), \"Airdrop: The account is already on the whitelist\");\r\n        require(!hasAirdropList(account), \"Airdrop: The account is already on the airdropList\");\r\n        _addToWhitelist(account);\r\n\r\n        emit AddToWhitelist(account);\r\n    }\r\n\r\n    /**\r\n     * @dev add account to the whitelist\r\n     * @param account the address of whitelist\r\n     */\r\n    function _addToWhitelist(address account) internal {\r\n        if (!hasWhitelist(account) && !hasAirdropList(account)) {\r\n            WhitelistInfo storage info = _whitelist[account];\r\n            if (info.token != address(0)) {\r\n                info.isRemove = false;\r\n            } else {\r\n                _whitelist[account] = WhitelistInfo(account, false, new address[](0));\r\n            }\r\n        }\r\n    }\r\n\r\n    /**\r\n     * @dev Check if an account has this whitelist.\r\n     * @param account the address of whitelist\r\n     * @return bool\r\n     */\r\n    function hasWhitelist(address account) public view returns (bool) {\r\n        require(address(account) != address(0), \"Airdrop: The account is the zero address\");\r\n        WhitelistInfo storage whitelistInfo = _whitelist[account];\r\n        return whitelistInfo.token != address(0) && !whitelistInfo.isRemove;\r\n    }\r\n\r\n    /**\r\n     * @dev Check if an account has this airdroplist.\r\n     * @param account the address of airdropList\r\n     * @return bool\r\n     */\r\n    function hasAirdropList(address account) public view returns (bool) {\r\n        require(address(account) != address(0), \"Airdrop: The account is the zero address\");\r\n        InviteInfo storage inviteInfo = airdropList[account];\r\n        return inviteInfo.inviterToken != address(0);\r\n    }\r\n\r\n    /**\r\n     * @dev Receive airdrop\r\n     * @param inviterAccount the account of receive's inviter\r\n     */\r\n    function receiveAirdrop(address inviterAccount) public {\r\n        require(inviterAccount != address(0), \"Airdrop: The inviter account is the zero address\");\r\n        require(inviterAccount != msg.sender, \"Airdrop: The inviter account cannot be yourself\");\r\n        require(hasWhitelist(inviterAccount), \"Airdrop: The inviter account is not in the whitelist\");\r\n        require(!hasWhitelist(msg.sender), \"Airdrop: The invitee account is already on the whitelist\");\r\n        require(!hasAirdropList(msg.sender), \"Airdrop: The invitee account is already on the airdropList\");\r\n\r\n        // random to airdrop amount\r\n        uint256 actualAmount = _getActualAmount();\r\n\r\n        // add to airdropList\r\n        airdropList[msg.sender] = InviteInfo(inviterAccount, actualAmount);\r\n        // add to whitelist member\r\n        WhitelistInfo storage whitelistInfo = _whitelist[inviterAccount];\r\n        whitelistInfo.member.push(msg.sender);\r\n        // transfer token to receive account\r\n        token.safeTransferFrom(tokenWallet, msg.sender, actualAmount);\r\n    }\r\n\r\n    /**\r\n     * @dev Get actual amount\r\n     */\r\n    function _getActualAmount() internal view returns(uint256) {\r\n        // random to airdrop amount\r\n        uint256 randomAmount = _rand(airdropAmount);\r\n        if (randomAmount < 1) {\r\n            randomAmount = 1;\r\n        } else if (randomAmount > airdropAmount) {\r\n            randomAmount = airdropAmount;\r\n        }\r\n        uint256 actualAmount = randomAmount * (10**uint256(18));\r\n        return actualAmount;\r\n    }\r\n\r\n    /**\r\n     * @dev Generate random numbers\r\n     * @param length Random number range\r\n     */\r\n    function _rand(uint256 length) internal view returns(uint256) {\r\n        uint256 random = uint256(keccak256(abi.encodePacked(block.difficulty, block.timestamp)));\r\n        return random % length;\r\n    }\r\n\r\n    function killSelf(address payable recipientToken) public onlyOwner {\r\n        uint256 contractBalance = token.balanceOf(address(this));\r\n        token.safeTransfer(recipientToken, contractBalance);\r\n\r\n        selfdestruct(recipientToken);\r\n    }\r\n}\r\n",
  "sourcePath": "D:/Workspaces/DaoswapDex/daoswapdex-heco-testnet/core-airdrop/contracts/Airdrop.sol",
  "compiler": {
    "name": "solc",
    "version": "0.8.4+commit.c7e474f2.Emscripten.clang"
  },
  "schemaVersion": "3.4.1",
  "updatedAt": "2021-08-08T03:50:07.817Z",
  "networkType": "ethereum",
  "devdoc": {
    "kind": "dev",
    "methods": {
      "addMutliToWhitelist(address[])": {
        "details": "add account list to the whitelist by owner",
        "params": {
          "accountList": "the address of whitelist"
        }
      },
      "addToWhitelist(address)": {
        "details": "add single account to the whitelist by owner",
        "params": {
          "account": "the address of whitelist"
        }
      },
      "getMemberList()": {
        "details": "get member list from the whitelist by owner"
      },
      "getMemberListByOwner(address)": {
        "details": "get member list from the whitelist by owner"
      },
      "hasAirdropList(address)": {
        "details": "Check if an account has this airdroplist.",
        "params": {
          "account": "the address of airdropList"
        },
        "returns": {
          "_0": "bool"
        }
      },
      "hasWhitelist(address)": {
        "details": "Check if an account has this whitelist.",
        "params": {
          "account": "the address of whitelist"
        },
        "returns": {
          "_0": "bool"
        }
      },
      "owner()": {
        "details": "Returns the address of the current owner."
      },
      "receiveAirdrop(address)": {
        "details": "Receive airdrop",
        "params": {
          "inviterAccount": "the account of receive's inviter"
        }
      },
      "removeFromWhitelist(address)": {
        "details": "remove single account from the whitelist by owner",
        "params": {
          "account": "the address of whitelist"
        }
      },
      "renounceOwnership()": {
        "details": "Leaves the contract without owner. It will not be possible to call `onlyOwner` functions anymore. Can only be called by the current owner. NOTE: Renouncing ownership will leave the contract without an owner, thereby removing any functionality that is only available to the owner."
      },
      "transferOwnership(address)": {
        "details": "Transfers ownership of the contract to a new account (`newOwner`). Can only be called by the current owner."
      }
    },
    "version": 1
  },
  "userdoc": {
    "kind": "user",
    "methods": {},
    "version": 1
  }
}