{
  "contractName": "AirdropUnlimited",
  "abi": [
    {
      "inputs": [
        {
          "internalType": "contract IERC20",
          "name": "_token",
          "type": "address"
        },
        {
          "internalType": "address",
          "name": "_tokenWallet",
          "type": "address"
        },
        {
          "internalType": "uint256",
          "name": "_minDATBalanceAmount",
          "type": "uint256"
        },
        {
          "internalType": "uint256",
          "name": "_minDATStakeAmount",
          "type": "uint256"
        },
        {
          "internalType": "uint256",
          "name": "_airdropMaxAmount",
          "type": "uint256"
        },
        {
          "internalType": "address",
          "name": "_crowdsaleForRetailAddress",
          "type": "address"
        },
        {
          "internalType": "contract IERC20",
          "name": "_crowdsaleToken",
          "type": "address"
        }
      ],
      "stateMutability": "nonpayable",
      "type": "constructor"
    },
    {
      "anonymous": false,
      "inputs": [
        {
          "indexed": true,
          "internalType": "address",
          "name": "previousOwner",
          "type": "address"
        },
        {
          "indexed": true,
          "internalType": "address",
          "name": "newOwner",
          "type": "address"
        }
      ],
      "name": "OwnershipTransferred",
      "type": "event"
    },
    {
      "anonymous": false,
      "inputs": [
        {
          "indexed": false,
          "internalType": "address",
          "name": "wallet",
          "type": "address"
        },
        {
          "indexed": false,
          "internalType": "address",
          "name": "account",
          "type": "address"
        },
        {
          "indexed": false,
          "internalType": "uint256",
          "name": "amount",
          "type": "uint256"
        }
      ],
      "name": "transferToken",
      "type": "event"
    },
    {
      "inputs": [
        {
          "internalType": "address",
          "name": "",
          "type": "address"
        }
      ],
      "name": "airdropList",
      "outputs": [
        {
          "internalType": "address",
          "name": "inviterToken",
          "type": "address"
        },
        {
          "internalType": "uint256",
          "name": "airdropAmount",
          "type": "uint256"
        }
      ],
      "stateMutability": "view",
      "type": "function",
      "constant": true
    },
    {
      "inputs": [],
      "name": "airdropMaxAmount",
      "outputs": [
        {
          "internalType": "uint256",
          "name": "",
          "type": "uint256"
        }
      ],
      "stateMutability": "view",
      "type": "function",
      "constant": true
    },
    {
      "inputs": [],
      "name": "checkDATBalanceOrDATStakeSwitch",
      "outputs": [
        {
          "internalType": "bool",
          "name": "",
          "type": "bool"
        }
      ],
      "stateMutability": "view",
      "type": "function",
      "constant": true
    },
    {
      "inputs": [],
      "name": "checkDATBalanceSwitch",
      "outputs": [
        {
          "internalType": "bool",
          "name": "",
          "type": "bool"
        }
      ],
      "stateMutability": "view",
      "type": "function",
      "constant": true
    },
    {
      "inputs": [],
      "name": "checkDATStakeSwitch",
      "outputs": [
        {
          "internalType": "bool",
          "name": "",
          "type": "bool"
        }
      ],
      "stateMutability": "view",
      "type": "function",
      "constant": true
    },
    {
      "inputs": [],
      "name": "checkRelationshipListSwitch",
      "outputs": [
        {
          "internalType": "bool",
          "name": "",
          "type": "bool"
        }
      ],
      "stateMutability": "view",
      "type": "function",
      "constant": true
    },
    {
      "inputs": [],
      "name": "crowdsaleForRetailAddress",
      "outputs": [
        {
          "internalType": "address",
          "name": "",
          "type": "address"
        }
      ],
      "stateMutability": "view",
      "type": "function",
      "constant": true
    },
    {
      "inputs": [],
      "name": "crowdsaleToken",
      "outputs": [
        {
          "internalType": "contract IERC20",
          "name": "",
          "type": "address"
        }
      ],
      "stateMutability": "view",
      "type": "function",
      "constant": true
    },
    {
      "inputs": [],
      "name": "minDATBalanceAmount",
      "outputs": [
        {
          "internalType": "uint256",
          "name": "",
          "type": "uint256"
        }
      ],
      "stateMutability": "view",
      "type": "function",
      "constant": true
    },
    {
      "inputs": [],
      "name": "minDATStakeAmount",
      "outputs": [
        {
          "internalType": "uint256",
          "name": "",
          "type": "uint256"
        }
      ],
      "stateMutability": "view",
      "type": "function",
      "constant": true
    },
    {
      "inputs": [],
      "name": "owner",
      "outputs": [
        {
          "internalType": "address",
          "name": "",
          "type": "address"
        }
      ],
      "stateMutability": "view",
      "type": "function",
      "constant": true
    },
    {
      "inputs": [],
      "name": "renounceOwnership",
      "outputs": [],
      "stateMutability": "nonpayable",
      "type": "function"
    },
    {
      "inputs": [],
      "name": "token",
      "outputs": [
        {
          "internalType": "contract IERC20",
          "name": "",
          "type": "address"
        }
      ],
      "stateMutability": "view",
      "type": "function",
      "constant": true
    },
    {
      "inputs": [],
      "name": "tokenWallet",
      "outputs": [
        {
          "internalType": "address",
          "name": "",
          "type": "address"
        }
      ],
      "stateMutability": "view",
      "type": "function",
      "constant": true
    },
    {
      "inputs": [
        {
          "internalType": "address",
          "name": "newOwner",
          "type": "address"
        }
      ],
      "name": "transferOwnership",
      "outputs": [],
      "stateMutability": "nonpayable",
      "type": "function"
    },
    {
      "inputs": [
        {
          "internalType": "uint256",
          "name": "amount",
          "type": "uint256"
        }
      ],
      "name": "setMinDATBalanceAmount",
      "outputs": [],
      "stateMutability": "nonpayable",
      "type": "function"
    },
    {
      "inputs": [
        {
          "internalType": "uint256",
          "name": "amount",
          "type": "uint256"
        }
      ],
      "name": "setMinDATStakeAmount",
      "outputs": [],
      "stateMutability": "nonpayable",
      "type": "function"
    },
    {
      "inputs": [
        {
          "internalType": "uint256",
          "name": "amount",
          "type": "uint256"
        }
      ],
      "name": "setAirdropMaxAmount",
      "outputs": [],
      "stateMutability": "nonpayable",
      "type": "function"
    },
    {
      "inputs": [],
      "name": "openCheckRelationshipListSwitch",
      "outputs": [],
      "stateMutability": "nonpayable",
      "type": "function"
    },
    {
      "inputs": [],
      "name": "closeCheckRelationshipListSwitch",
      "outputs": [],
      "stateMutability": "nonpayable",
      "type": "function"
    },
    {
      "inputs": [],
      "name": "openCheckDATBalanceOrDATStakeSwitch",
      "outputs": [],
      "stateMutability": "nonpayable",
      "type": "function"
    },
    {
      "inputs": [],
      "name": "closeCheckDATBalanceOrDATStakeSwitch",
      "outputs": [],
      "stateMutability": "nonpayable",
      "type": "function"
    },
    {
      "inputs": [],
      "name": "openCheckDATBalanceSwitch",
      "outputs": [],
      "stateMutability": "nonpayable",
      "type": "function"
    },
    {
      "inputs": [],
      "name": "closeCheckDATBalanceSwitch",
      "outputs": [],
      "stateMutability": "nonpayable",
      "type": "function"
    },
    {
      "inputs": [],
      "name": "openCheckDATStakeSwitch",
      "outputs": [],
      "stateMutability": "nonpayable",
      "type": "function"
    },
    {
      "inputs": [],
      "name": "closeCheckDATStakeSwitch",
      "outputs": [],
      "stateMutability": "nonpayable",
      "type": "function"
    },
    {
      "inputs": [
        {
          "internalType": "address",
          "name": "account",
          "type": "address"
        }
      ],
      "name": "getDatBalance",
      "outputs": [
        {
          "internalType": "uint256",
          "name": "",
          "type": "uint256"
        }
      ],
      "stateMutability": "view",
      "type": "function",
      "constant": true
    },
    {
      "inputs": [
        {
          "internalType": "address",
          "name": "account",
          "type": "address"
        }
      ],
      "name": "getDatStake",
      "outputs": [
        {
          "internalType": "uint256",
          "name": "",
          "type": "uint256"
        }
      ],
      "stateMutability": "view",
      "type": "function",
      "constant": true
    },
    {
      "inputs": [
        {
          "internalType": "address",
          "name": "account",
          "type": "address"
        }
      ],
      "name": "getMemberListByOwner",
      "outputs": [
        {
          "internalType": "address[]",
          "name": "",
          "type": "address[]"
        }
      ],
      "stateMutability": "view",
      "type": "function",
      "constant": true
    },
    {
      "inputs": [],
      "name": "getMemberList",
      "outputs": [
        {
          "internalType": "address[]",
          "name": "",
          "type": "address[]"
        }
      ],
      "stateMutability": "view",
      "type": "function",
      "constant": true
    },
    {
      "inputs": [
        {
          "internalType": "address[]",
          "name": "accountList",
          "type": "address[]"
        }
      ],
      "name": "addMutliToRelationshipList",
      "outputs": [],
      "stateMutability": "nonpayable",
      "type": "function"
    },
    {
      "inputs": [
        {
          "internalType": "address",
          "name": "account",
          "type": "address"
        }
      ],
      "name": "addToRelationshipList",
      "outputs": [],
      "stateMutability": "nonpayable",
      "type": "function"
    },
    {
      "inputs": [
        {
          "components": [
            {
              "internalType": "address",
              "name": "token",
              "type": "address"
            },
            {
              "internalType": "address",
              "name": "inviterToken",
              "type": "address"
            },
            {
              "internalType": "uint256",
              "name": "amount",
              "type": "uint256"
            }
          ],
          "internalType": "struct AirdropUnlimited.ReportInviteInfo[]",
          "name": "list",
          "type": "tuple[]"
        }
      ],
      "name": "addMutliToAirdropList",
      "outputs": [],
      "stateMutability": "nonpayable",
      "type": "function"
    },
    {
      "inputs": [
        {
          "internalType": "address",
          "name": "account",
          "type": "address"
        }
      ],
      "name": "hasRelationshipList",
      "outputs": [
        {
          "internalType": "bool",
          "name": "",
          "type": "bool"
        }
      ],
      "stateMutability": "view",
      "type": "function",
      "constant": true
    },
    {
      "inputs": [
        {
          "internalType": "address",
          "name": "account",
          "type": "address"
        }
      ],
      "name": "hasAirdropList",
      "outputs": [
        {
          "internalType": "bool",
          "name": "",
          "type": "bool"
        }
      ],
      "stateMutability": "view",
      "type": "function",
      "constant": true
    },
    {
      "inputs": [
        {
          "internalType": "address",
          "name": "account",
          "type": "address"
        }
      ],
      "name": "checkDatBalance",
      "outputs": [
        {
          "internalType": "bool",
          "name": "",
          "type": "bool"
        }
      ],
      "stateMutability": "view",
      "type": "function",
      "constant": true
    },
    {
      "inputs": [
        {
          "internalType": "address",
          "name": "account",
          "type": "address"
        }
      ],
      "name": "checkDatStake",
      "outputs": [
        {
          "internalType": "bool",
          "name": "",
          "type": "bool"
        }
      ],
      "stateMutability": "view",
      "type": "function",
      "constant": true
    },
    {
      "inputs": [
        {
          "internalType": "address",
          "name": "inviterAccount",
          "type": "address"
        }
      ],
      "name": "receiveAirdrop",
      "outputs": [],
      "stateMutability": "nonpayable",
      "type": "function"
    },
    {
      "inputs": [
        {
          "internalType": "address payable",
          "name": "recipientToken",
          "type": "address"
        }
      ],
      "name": "killSelf",
      "outputs": [],
      "stateMutability": "nonpayable",
      "type": "function"
    }
  ],
  "bytecode": "0x60806040526000600860146101000a81548160ff0219169083151502179055506001600860156101000a81548160ff0219169083151502179055506000600860166101000a81548160ff0219169083151502179055506000600860176101000a81548160ff0219169083151502179055503480156200007d57600080fd5b5060405162004a1938038062004a198339818101604052810190620000a3919062000421565b620000c3620000b76200031060201b60201c565b6200031860201b60201c565b600073ffffffffffffffffffffffffffffffffffffffff168773ffffffffffffffffffffffffffffffffffffffff16141562000136576040517f08c379a00000000000000000000000000000000000000000000000000000000081526004016200012d906200051c565b60405180910390fd5b600073ffffffffffffffffffffffffffffffffffffffff168673ffffffffffffffffffffffffffffffffffffffff161415620001a9576040517f08c379a0000000000000000000000000000000000000000000000000000000008152600401620001a0906200053e565b60405180910390fd5b86600160006101000a81548173ffffffffffffffffffffffffffffffffffffffff021916908373ffffffffffffffffffffffffffffffffffffffff16021790555085600260006101000a81548173ffffffffffffffffffffffffffffffffffffffff021916908373ffffffffffffffffffffffffffffffffffffffff16021790555084600381905550836004819055508260058190555081600660006101000a81548173ffffffffffffffffffffffffffffffffffffffff021916908373ffffffffffffffffffffffffffffffffffffffff16021790555080600760006101000a81548173ffffffffffffffffffffffffffffffffffffffff021916908373ffffffffffffffffffffffffffffffffffffffff16021790555081600860006101000a81548173ffffffffffffffffffffffffffffffffffffffff021916908373ffffffffffffffffffffffffffffffffffffffff16021790555050505050505050620006af565b600033905090565b60008060009054906101000a900473ffffffffffffffffffffffffffffffffffffffff169050816000806101000a81548173ffffffffffffffffffffffffffffffffffffffff021916908373ffffffffffffffffffffffffffffffffffffffff1602179055508173ffffffffffffffffffffffffffffffffffffffff168173ffffffffffffffffffffffffffffffffffffffff167f8be0079c531659141344cd1fd0a4f28419497f9722a3daafe3b4186f6b6457e060405160405180910390a35050565b600081519050620003ed8162000661565b92915050565b60008151905062000404816200067b565b92915050565b6000815190506200041b8162000695565b92915050565b600080600080600080600060e0888a0312156200043d57600080fd5b60006200044d8a828b01620003f3565b9750506020620004608a828b01620003dc565b9650506040620004738a828b016200040a565b9550506060620004868a828b016200040a565b9450506080620004998a828b016200040a565b93505060a0620004ac8a828b01620003dc565b92505060c0620004bf8a828b01620003f3565b91505092959891949750929550565b6000620004dd60268362000560565b9150620004ea82620005c3565b604082019050919050565b600062000504602d8362000560565b9150620005118262000612565b604082019050919050565b600060208201905081810360008301526200053781620004ce565b9050919050565b600060208201905081810360008301526200055981620004f5565b9050919050565b600082825260208201905092915050565b60006200057e8262000599565b9050919050565b6000620005928262000571565b9050919050565b600073ffffffffffffffffffffffffffffffffffffffff82169050919050565b6000819050919050565b7f41697264726f703a2054686520746f6b656e20697320746865207a65726f206160008201527f6464726573730000000000000000000000000000000000000000000000000000602082015250565b7f41697264726f703a2054686520746f6b656e2077616c6c65742069732074686560008201527f207a65726f206164647265737300000000000000000000000000000000000000602082015250565b6200066c8162000571565b81146200067857600080fd5b50565b620006868162000585565b81146200069257600080fd5b50565b620006a081620005b9565b8114620006ac57600080fd5b50565b61435a80620006bf6000396000f3fe608060405234801561001057600080fd5b506004361061023c5760003560e01c80638c2388141161013b578063cdb208ca116100b8578063f1d748fd1161007c578063f1d748fd146105fa578063f2fde38b1461062a578063f773481214610646578063fa65dfac14610662578063fc0c546a146106805761023c565b8063cdb208ca1461057a578063d231c5af14610584578063d6e1360e146105b4578063e5962750146105d2578063f02e1fcd146105f05761023c565b8063b0b99e43116100ff578063b0b99e43146104d6578063b4f26b8a146104f2578063be5a60ce1461050e578063bff99c6c1461052c578063ca4cf14f1461054a5761023c565b80638c238814146104305780638d2203531461044e5780638d59b3a71461046a5780638da5cb5b1461049a5780638f3fd507146104b85761023c565b80633a507d7d116101c95780636f99f5371161018d5780636f99f537146103b2578063715018a6146103d0578063775e884f146103da578063776637b4146103f65780638bee35dd146104265761023c565b80633a507d7d1461030d57806341cd9cd71461032957806358cf77fa146103595780635f5d5f001461038a578063644cfecc146103a85761023c565b80631bbff984116102105780631bbff9841461027d57806324a49095146102875780632ec94efd146102a35780632ef86e29146102d357806330aff60d146102f15761023c565b8062d652e8146102415780630b7591cd1461024b57806313777e941461025557806318f15d651461025f575b600080fd5b61024961069e565b005b610253610737565b005b61025d6107d0565b005b610267610869565b60405161027491906138a7565b60405180910390f35b61028561086f565b005b6102a1600480360381019061029c9190613125565b610908565b005b6102bd60048036038101906102b89190613028565b61098e565b6040516102ca91906138a7565b60405180910390f35b6102db610abe565b6040516102e891906138a7565b60405180910390f35b61030b60048036038101906103069190613125565b610ac4565b005b61032760048036038101906103229190613051565b610b4a565b005b610343600480360381019061033e9190613028565b610cdb565b604051610350919061360f565b60405180910390f35b610373600480360381019061036e9190613028565b610ed6565b6040516103819291906135c4565b60405180910390f35b610392610f1a565b60405161039f91906135ed565b60405180910390f35b6103b0610f72565b005b6103ba61100b565b6040516103c7919061360f565b60405180910390f35b6103d861101e565b005b6103f460048036038101906103ef9190613125565b6110a6565b005b610410600480360381019061040b9190613028565b61112c565b60405161041d919061360f565b60405180910390f35b61042e611208565b005b6104386112a1565b60405161044591906138a7565b60405180910390f35b61046860048036038101906104639190613028565b6112a7565b005b610484600480360381019061047f9190613028565b611378565b604051610491919061360f565b60405180910390f35b6104a26114d4565b6040516104af9190613572565b60405180910390f35b6104c06114fd565b6040516104cd9190613572565b60405180910390f35b6104f060048036038101906104eb91906130bb565b611523565b005b61050c6004803603810190610507919061307a565b6116be565b005b6105166117ea565b604051610523919061360f565b60405180910390f35b6105346117fd565b6040516105419190613572565b60405180910390f35b610564600480360381019061055f9190613028565b611823565b60405161057191906135ed565b60405180910390f35b6105826118b1565b005b61059e60048036038101906105999190613028565b61194a565b6040516105ab919061360f565b60405180910390f35b6105bc611a26565b6040516105c9919061360f565b60405180910390f35b6105da611a39565b6040516105e7919061360f565b60405180910390f35b6105f8611a4c565b005b610614600480360381019061060f9190613028565b611ae5565b60405161062191906138a7565b60405180910390f35b610644600480360381019061063f9190613028565b611c15565b005b610660600480360381019061065b9190613028565b611d0d565b005b61066a612028565b604051610677919061362a565b60405180910390f35b61068861204e565b604051610695919061362a565b60405180910390f35b6106a6612074565b73ffffffffffffffffffffffffffffffffffffffff166106c46114d4565b73ffffffffffffffffffffffffffffffffffffffff161461071a576040517f08c379a000000000000000000000000000000000000000000000000000000000815260040161071190613787565b60405180910390fd5b6001600860166101000a81548160ff021916908315150217905550565b61073f612074565b73ffffffffffffffffffffffffffffffffffffffff1661075d6114d4565b73ffffffffffffffffffffffffffffffffffffffff16146107b3576040517f08c379a00000000000000000000000000000000000000000000000000000000081526004016107aa90613787565b60405180910390fd5b6001600860156101000a81548160ff021916908315150217905550565b6107d8612074565b73ffffffffffffffffffffffffffffffffffffffff166107f66114d4565b73ffffffffffffffffffffffffffffffffffffffff161461084c576040517f08c379a000000000000000000000000000000000000000000000000000000000815260040161084390613787565b60405180910390fd5b6000600860156101000a81548160ff021916908315150217905550565b60055481565b610877612074565b73ffffffffffffffffffffffffffffffffffffffff166108956114d4565b73ffffffffffffffffffffffffffffffffffffffff16146108eb576040517f08c379a00000000000000000000000000000000000000000000000000000000081526004016108e290613787565b60405180910390fd5b6001600860176101000a81548160ff021916908315150217905550565b610910612074565b73ffffffffffffffffffffffffffffffffffffffff1661092e6114d4565b73ffffffffffffffffffffffffffffffffffffffff1614610984576040517f08c379a000000000000000000000000000000000000000000000000000000000815260040161097b90613787565b60405180910390fd5b8060048190555050565b6000610998612074565b73ffffffffffffffffffffffffffffffffffffffff166109b66114d4565b73ffffffffffffffffffffffffffffffffffffffff1614610a0c576040517f08c379a0000000000000000000000000000000000000000000000000000000008152600401610a0390613787565b60405180910390fd5b600860009054906101000a900473ffffffffffffffffffffffffffffffffffffffff1673ffffffffffffffffffffffffffffffffffffffff1663f887d019836040518263ffffffff1660e01b8152600401610a679190613572565b60206040518083038186803b158015610a7f57600080fd5b505afa158015610a93573d6000803e3d6000fd5b505050506040513d601f19601f82011682018060405250810190610ab7919061314e565b9050919050565b60045481565b610acc612074565b73ffffffffffffffffffffffffffffffffffffffff16610aea6114d4565b73ffffffffffffffffffffffffffffffffffffffff1614610b40576040517f08c379a0000000000000000000000000000000000000000000000000000000008152600401610b3790613787565b60405180910390fd5b8060038190555050565b610b52612074565b73ffffffffffffffffffffffffffffffffffffffff16610b706114d4565b73ffffffffffffffffffffffffffffffffffffffff1614610bc6576040517f08c379a0000000000000000000000000000000000000000000000000000000008152600401610bbd90613787565b60405180910390fd5b6000600160009054906101000a900473ffffffffffffffffffffffffffffffffffffffff1673ffffffffffffffffffffffffffffffffffffffff166370a08231306040518263ffffffff1660e01b8152600401610c239190613572565b60206040518083038186803b158015610c3b57600080fd5b505afa158015610c4f573d6000803e3d6000fd5b505050506040513d601f19601f82011682018060405250810190610c73919061314e565b9050610cc28282600160009054906101000a900473ffffffffffffffffffffffffffffffffffffffff1673ffffffffffffffffffffffffffffffffffffffff1661207c9092919063ffffffff16565b8173ffffffffffffffffffffffffffffffffffffffff16ff5b60008073ffffffffffffffffffffffffffffffffffffffff168273ffffffffffffffffffffffffffffffffffffffff161415610d4c576040517f08c379a0000000000000000000000000000000000000000000000000000000008152600401610d4390613887565b60405180910390fd5b6000600960008473ffffffffffffffffffffffffffffffffffffffff1673ffffffffffffffffffffffffffffffffffffffff1681526020019081526020016000206040518060600160405290816000820160009054906101000a900473ffffffffffffffffffffffffffffffffffffffff1673ffffffffffffffffffffffffffffffffffffffff1673ffffffffffffffffffffffffffffffffffffffff1681526020016000820160149054906101000a900460ff1615151515815260200160018201805480602002602001604051908101604052809291908181526020018280548015610e8e57602002820191906000526020600020905b8160009054906101000a900473ffffffffffffffffffffffffffffffffffffffff1673ffffffffffffffffffffffffffffffffffffffff1681526020019060010190808311610e44575b5050505050815250509050600073ffffffffffffffffffffffffffffffffffffffff16816000015173ffffffffffffffffffffffffffffffffffffffff161415915050919050565b600a6020528060005260406000206000915090508060000160009054906101000a900473ffffffffffffffffffffffffffffffffffffffff16908060010154905082565b6060610f2533610cdb565b610f64576040517f08c379a0000000000000000000000000000000000000000000000000000000008152600401610f5b906136a7565b60405180910390fd5b610f6d33612102565b905090565b610f7a612074565b73ffffffffffffffffffffffffffffffffffffffff16610f986114d4565b73ffffffffffffffffffffffffffffffffffffffff1614610fee576040517f08c379a0000000000000000000000000000000000000000000000000000000008152600401610fe590613787565b60405180910390fd5b6000600860166101000a81548160ff021916908315150217905550565b600860179054906101000a900460ff1681565b611026612074565b73ffffffffffffffffffffffffffffffffffffffff166110446114d4565b73ffffffffffffffffffffffffffffffffffffffff161461109a576040517f08c379a000000000000000000000000000000000000000000000000000000000815260040161109190613787565b60405180910390fd5b6110a4600061225e565b565b6110ae612074565b73ffffffffffffffffffffffffffffffffffffffff166110cc6114d4565b73ffffffffffffffffffffffffffffffffffffffff1614611122576040517f08c379a000000000000000000000000000000000000000000000000000000000815260040161111990613787565b60405180910390fd5b8060058190555050565b600080600860009054906101000a900473ffffffffffffffffffffffffffffffffffffffff1673ffffffffffffffffffffffffffffffffffffffff1663f887d019846040518263ffffffff1660e01b815260040161118a9190613572565b60206040518083038186803b1580156111a257600080fd5b505afa1580156111b6573d6000803e3d6000fd5b505050506040513d601f19601f820116820180604052508101906111da919061314e565b905060006012600a6111ec91906139fd565b6004546111f99190613b1b565b90508082101592505050919050565b611210612074565b73ffffffffffffffffffffffffffffffffffffffff1661122e6114d4565b73ffffffffffffffffffffffffffffffffffffffff1614611284576040517f08c379a000000000000000000000000000000000000000000000000000000000815260040161127b90613787565b60405180910390fd5b6001600860146101000a81548160ff021916908315150217905550565b60035481565b6112af612074565b73ffffffffffffffffffffffffffffffffffffffff166112cd6114d4565b73ffffffffffffffffffffffffffffffffffffffff1614611323576040517f08c379a000000000000000000000000000000000000000000000000000000000815260040161131a90613787565b60405180910390fd5b61132c81610cdb565b1561136c576040517f08c379a0000000000000000000000000000000000000000000000000000000008152600401611363906136c7565b60405180910390fd5b61137581612322565b50565b60008073ffffffffffffffffffffffffffffffffffffffff168273ffffffffffffffffffffffffffffffffffffffff1614156113e9576040517f08c379a00000000000000000000000000000000000000000000000000000000081526004016113e090613887565b60405180910390fd5b6000600a60008473ffffffffffffffffffffffffffffffffffffffff1673ffffffffffffffffffffffffffffffffffffffff1681526020019081526020016000206040518060400160405290816000820160009054906101000a900473ffffffffffffffffffffffffffffffffffffffff1673ffffffffffffffffffffffffffffffffffffffff1673ffffffffffffffffffffffffffffffffffffffff1681526020016001820154815250509050600073ffffffffffffffffffffffffffffffffffffffff16816000015173ffffffffffffffffffffffffffffffffffffffff161415915050919050565b60008060009054906101000a900473ffffffffffffffffffffffffffffffffffffffff16905090565b600660009054906101000a900473ffffffffffffffffffffffffffffffffffffffff1681565b61152b612074565b73ffffffffffffffffffffffffffffffffffffffff166115496114d4565b73ffffffffffffffffffffffffffffffffffffffff161461159f576040517f08c379a000000000000000000000000000000000000000000000000000000000815260040161159690613787565b60405180910390fd5b60008151116115e3576040517f08c379a00000000000000000000000000000000000000000000000000000000081526004016115da90613847565b60405180910390fd5b60005b81518110156116ba57600082828151811061162a577f4e487b7100000000000000000000000000000000000000000000000000000000600052603260045260246000fd5b60200260200101519050600081604001511015801561165357506116518160000151610cdb565b155b801561166957506116678160000151611378565b155b156116a65760006012600a61167e91906139fd565b826040015161168d9190613b1b565b90506116a48260000151836020015183600061254d565b505b5080806116b290613c57565b9150506115e6565b5050565b6116c6612074565b73ffffffffffffffffffffffffffffffffffffffff166116e46114d4565b73ffffffffffffffffffffffffffffffffffffffff161461173a576040517f08c379a000000000000000000000000000000000000000000000000000000000815260040161173190613787565b60405180910390fd5b600081511161177e576040517f08c379a000000000000000000000000000000000000000000000000000000000815260040161177590613867565b60405180910390fd5b60005b81518110156117e6576117d38282815181106117c6577f4e487b7100000000000000000000000000000000000000000000000000000000600052603260045260246000fd5b6020026020010151612322565b80806117de90613c57565b915050611781565b5050565b600860169054906101000a900460ff1681565b600260009054906101000a900473ffffffffffffffffffffffffffffffffffffffff1681565b606061182d612074565b73ffffffffffffffffffffffffffffffffffffffff1661184b6114d4565b73ffffffffffffffffffffffffffffffffffffffff16146118a1576040517f08c379a000000000000000000000000000000000000000000000000000000000815260040161189890613787565b60405180910390fd5b6118aa82612102565b9050919050565b6118b9612074565b73ffffffffffffffffffffffffffffffffffffffff166118d76114d4565b73ffffffffffffffffffffffffffffffffffffffff161461192d576040517f08c379a000000000000000000000000000000000000000000000000000000000815260040161192490613787565b60405180910390fd5b6000600860176101000a81548160ff021916908315150217905550565b600080600760009054906101000a900473ffffffffffffffffffffffffffffffffffffffff1673ffffffffffffffffffffffffffffffffffffffff166370a08231846040518263ffffffff1660e01b81526004016119a89190613572565b60206040518083038186803b1580156119c057600080fd5b505afa1580156119d4573d6000803e3d6000fd5b505050506040513d601f19601f820116820180604052508101906119f8919061314e565b905060006012600a611a0a91906139fd565b600354611a179190613b1b565b90508082101592505050919050565b600860159054906101000a900460ff1681565b600860149054906101000a900460ff1681565b611a54612074565b73ffffffffffffffffffffffffffffffffffffffff16611a726114d4565b73ffffffffffffffffffffffffffffffffffffffff1614611ac8576040517f08c379a0000000000000000000000000000000000000000000000000000000008152600401611abf90613787565b60405180910390fd5b6000600860146101000a81548160ff021916908315150217905550565b6000611aef612074565b73ffffffffffffffffffffffffffffffffffffffff16611b0d6114d4565b73ffffffffffffffffffffffffffffffffffffffff1614611b63576040517f08c379a0000000000000000000000000000000000000000000000000000000008152600401611b5a90613787565b60405180910390fd5b600760009054906101000a900473ffffffffffffffffffffffffffffffffffffffff1673ffffffffffffffffffffffffffffffffffffffff166370a08231836040518263ffffffff1660e01b8152600401611bbe9190613572565b60206040518083038186803b158015611bd657600080fd5b505afa158015611bea573d6000803e3d6000fd5b505050506040513d601f19601f82011682018060405250810190611c0e919061314e565b9050919050565b611c1d612074565b73ffffffffffffffffffffffffffffffffffffffff16611c3b6114d4565b73ffffffffffffffffffffffffffffffffffffffff1614611c91576040517f08c379a0000000000000000000000000000000000000000000000000000000008152600401611c8890613787565b60405180910390fd5b600073ffffffffffffffffffffffffffffffffffffffff168173ffffffffffffffffffffffffffffffffffffffff161415611d01576040517f08c379a0000000000000000000000000000000000000000000000000000000008152600401611cf8906136e7565b60405180910390fd5b611d0a8161225e565b50565b600073ffffffffffffffffffffffffffffffffffffffff168173ffffffffffffffffffffffffffffffffffffffff161415611d7d576040517f08c379a0000000000000000000000000000000000000000000000000000000008152600401611d74906137c7565b60405180910390fd5b3373ffffffffffffffffffffffffffffffffffffffff168173ffffffffffffffffffffffffffffffffffffffff161415611dec576040517f08c379a0000000000000000000000000000000000000000000000000000000008152600401611de3906137a7565b60405180910390fd5b611df533611378565b15611e35576040517f08c379a0000000000000000000000000000000000000000000000000000000008152600401611e2c90613807565b60405180910390fd5b611e3e33610cdb565b15611e7e576040517f08c379a0000000000000000000000000000000000000000000000000000000008152600401611e7590613747565b60405180910390fd5b600860149054906101000a900460ff1615611edc57611e9c81610cdb565b611edb576040517f08c379a0000000000000000000000000000000000000000000000000000000008152600401611ed290613727565b60405180910390fd5b5b600860159054906101000a900460ff1615611f4e57611efa8161194a565b80611f0a5750611f098161112c565b5b611f49576040517f08c379a0000000000000000000000000000000000000000000000000000000008152600401611f4090613687565b60405180910390fd5b61200b565b600860169054906101000a900460ff1615611fac57611f6c8161194a565b611fab576040517f08c379a0000000000000000000000000000000000000000000000000000000008152600401611fa290613767565b60405180910390fd5b5b600860179054906101000a900460ff161561200a57611fca8161112c565b612009576040517f08c379a000000000000000000000000000000000000000000000000000000000815260040161200090613667565b60405180910390fd5b5b5b60006120156129f9565b9050612024338383600161254d565b5050565b600760009054906101000a900473ffffffffffffffffffffffffffffffffffffffff1681565b600160009054906101000a900473ffffffffffffffffffffffffffffffffffffffff1681565b600033905090565b6120fd8363a9059cbb60e01b848460405160240161209b9291906135c4565b604051602081830303815290604052907bffffffffffffffffffffffffffffffffffffffffffffffffffffffff19166020820180517bffffffffffffffffffffffffffffffffffffffffffffffffffffffff8381831617835250505050612a51565b505050565b60606000600960008473ffffffffffffffffffffffffffffffffffffffff1673ffffffffffffffffffffffffffffffffffffffff1681526020019081526020016000206040518060600160405290816000820160009054906101000a900473ffffffffffffffffffffffffffffffffffffffff1673ffffffffffffffffffffffffffffffffffffffff1673ffffffffffffffffffffffffffffffffffffffff1681526020016000820160149054906101000a900460ff161515151581526020016001820180548060200260200160405190810160405280929190818152602001828054801561224657602002820191906000526020600020905b8160009054906101000a900473ffffffffffffffffffffffffffffffffffffffff1673ffffffffffffffffffffffffffffffffffffffff16815260200190600101908083116121fc575b50505050508152505090508060400151915050919050565b60008060009054906101000a900473ffffffffffffffffffffffffffffffffffffffff169050816000806101000a81548173ffffffffffffffffffffffffffffffffffffffff021916908373ffffffffffffffffffffffffffffffffffffffff1602179055508173ffffffffffffffffffffffffffffffffffffffff168173ffffffffffffffffffffffffffffffffffffffff167f8be0079c531659141344cd1fd0a4f28419497f9722a3daafe3b4186f6b6457e060405160405180910390a35050565b6000600960008373ffffffffffffffffffffffffffffffffffffffff1673ffffffffffffffffffffffffffffffffffffffff1681526020019081526020016000209050600073ffffffffffffffffffffffffffffffffffffffff168160000160009054906101000a900473ffffffffffffffffffffffffffffffffffffffff1673ffffffffffffffffffffffffffffffffffffffff16146123df5760008160000160146101000a81548160ff021916908315150217905550612549565b60405180606001604052808373ffffffffffffffffffffffffffffffffffffffff168152602001600015158152602001600067ffffffffffffffff811115612450577f4e487b7100000000000000000000000000000000000000000000000000000000600052604160045260246000fd5b60405190808252806020026020018201604052801561247e5781602001602082028036833780820191505090505b50815250600960008473ffffffffffffffffffffffffffffffffffffffff1673ffffffffffffffffffffffffffffffffffffffff16815260200190815260200160002060008201518160000160006101000a81548173ffffffffffffffffffffffffffffffffffffffff021916908373ffffffffffffffffffffffffffffffffffffffff16021790555060208201518160000160146101000a81548160ff0219169083151502179055506040820151816001019080519060200190612544929190612d8c565b509050505b5050565b60405180604001604052808473ffffffffffffffffffffffffffffffffffffffff16815260200183815250600a60008673ffffffffffffffffffffffffffffffffffffffff1673ffffffffffffffffffffffffffffffffffffffff16815260200190815260200160002060008201518160000160006101000a81548173ffffffffffffffffffffffffffffffffffffffff021916908373ffffffffffffffffffffffffffffffffffffffff160217905550602082015181600101559050506000600960008573ffffffffffffffffffffffffffffffffffffffff1673ffffffffffffffffffffffffffffffffffffffff1681526020019081526020016000209050600073ffffffffffffffffffffffffffffffffffffffff168160000160009054906101000a900473ffffffffffffffffffffffffffffffffffffffff1673ffffffffffffffffffffffffffffffffffffffff16146127105780600101859080600181540180825580915050600190039060005260206000200160009091909190916101000a81548173ffffffffffffffffffffffffffffffffffffffff021916908373ffffffffffffffffffffffffffffffffffffffff16021790555061291d565b60405180606001604052808573ffffffffffffffffffffffffffffffffffffffff168152602001600015158152602001600067ffffffffffffffff811115612781577f4e487b7100000000000000000000000000000000000000000000000000000000600052604160045260246000fd5b6040519080825280602002602001820160405280156127af5781602001602082028036833780820191505090505b50815250600960008673ffffffffffffffffffffffffffffffffffffffff1673ffffffffffffffffffffffffffffffffffffffff16815260200190815260200160002060008201518160000160006101000a81548173ffffffffffffffffffffffffffffffffffffffff021916908373ffffffffffffffffffffffffffffffffffffffff16021790555060208201518160000160146101000a81548160ff0219169083151502179055506040820151816001019080519060200190612875929190612d8c565b50905050600960008573ffffffffffffffffffffffffffffffffffffffff1673ffffffffffffffffffffffffffffffffffffffff168152602001908152602001600020600101859080600181540180825580915050600190039060005260206000200160009091909190916101000a81548173ffffffffffffffffffffffffffffffffffffffff021916908373ffffffffffffffffffffffffffffffffffffffff1602179055505b81156129f257612994600260009054906101000a900473ffffffffffffffffffffffffffffffffffffffff168685600160009054906101000a900473ffffffffffffffffffffffffffffffffffffffff1673ffffffffffffffffffffffffffffffffffffffff16612b18909392919063ffffffff16565b7ff5537ede4763d97b5cf86d9eb6ae77ccd8560b8b2d4bd4503537c6b2996a7a9b600260009054906101000a900473ffffffffffffffffffffffffffffffffffffffff1686856040516129e99392919061358d565b60405180910390a15b5050505050565b600080612a07600554612ba1565b90506001811015612a1b5760019050612a2c565b600554811115612a2b5760055490505b5b60006012600a612a3c91906139fd565b82612a479190613b1b565b9050809250505090565b6000612ab3826040518060400160405280602081526020017f5361666545524332303a206c6f772d6c6576656c2063616c6c206661696c65648152508573ffffffffffffffffffffffffffffffffffffffff16612be69092919063ffffffff16565b9050600081511115612b135780806020019051810190612ad391906130fc565b612b12576040517f08c379a0000000000000000000000000000000000000000000000000000000008152600401612b0990613827565b60405180910390fd5b5b505050565b612b9b846323b872dd60e01b858585604051602401612b399392919061358d565b604051602081830303815290604052907bffffffffffffffffffffffffffffffffffffffffffffffffffffffff19166020820180517bffffffffffffffffffffffffffffffffffffffffffffffffffffffff8381831617835250505050612a51565b50505050565b6000804442604051602001612bb7929190613546565b6040516020818303038152906040528051906020012060001c90508281612bde9190613caa565b915050919050565b6060612bf58484600085612bfe565b90509392505050565b606082471015612c43576040517f08c379a0000000000000000000000000000000000000000000000000000000008152600401612c3a90613707565b60405180910390fd5b612c4c85612d12565b612c8b576040517f08c379a0000000000000000000000000000000000000000000000000000000008152600401612c82906137e7565b60405180910390fd5b6000808673ffffffffffffffffffffffffffffffffffffffff168587604051612cb4919061352f565b60006040518083038185875af1925050503d8060008114612cf1576040519150601f19603f3d011682016040523d82523d6000602084013e612cf6565b606091505b5091509150612d06828286612d25565b92505050949350505050565b600080823b905060008111915050919050565b60608315612d3557829050612d85565b600083511115612d485782518084602001fd5b816040517f08c379a0000000000000000000000000000000000000000000000000000000008152600401612d7c9190613645565b60405180910390fd5b9392505050565b828054828255906000526020600020908101928215612e05579160200282015b82811115612e045782518260006101000a81548173ffffffffffffffffffffffffffffffffffffffff021916908373ffffffffffffffffffffffffffffffffffffffff16021790555091602001919060010190612dac565b5b509050612e129190612e16565b5090565b5b80821115612e2f576000816000905550600101612e17565b5090565b6000612e46612e41846138e7565b6138c2565b90508083825260208201905082856020860282011115612e6557600080fd5b60005b85811015612e955781612e7b8882612f0b565b845260208401935060208301925050600181019050612e68565b5050509392505050565b6000612eb2612ead84613913565b6138c2565b90508083825260208201905082856060860282011115612ed157600080fd5b60005b85811015612f015781612ee78882612f9e565b845260208401935060608301925050600181019050612ed4565b5050509392505050565b600081359050612f1a816142c8565b92915050565b600081359050612f2f816142df565b92915050565b600082601f830112612f4657600080fd5b8135612f56848260208601612e33565b91505092915050565b600082601f830112612f7057600080fd5b8135612f80848260208601612e9f565b91505092915050565b600081519050612f98816142f6565b92915050565b600060608284031215612fb057600080fd5b612fba60606138c2565b90506000612fca84828501612f0b565b6000830152506020612fde84828501612f0b565b6020830152506040612ff284828501612ffe565b60408301525092915050565b60008135905061300d8161430d565b92915050565b6000815190506130228161430d565b92915050565b60006020828403121561303a57600080fd5b600061304884828501612f0b565b91505092915050565b60006020828403121561306357600080fd5b600061307184828501612f20565b91505092915050565b60006020828403121561308c57600080fd5b600082013567ffffffffffffffff8111156130a657600080fd5b6130b284828501612f35565b91505092915050565b6000602082840312156130cd57600080fd5b600082013567ffffffffffffffff8111156130e757600080fd5b6130f384828501612f5f565b91505092915050565b60006020828403121561310e57600080fd5b600061311c84828501612f89565b91505092915050565b60006020828403121561313757600080fd5b600061314584828501612ffe565b91505092915050565b60006020828403121561316057600080fd5b600061316e84828501613013565b91505092915050565b6000613183838361318f565b60208301905092915050565b61319881613b75565b82525050565b6131a781613b75565b82525050565b60006131b88261394f565b6131c2818561397d565b93506131cd8361393f565b8060005b838110156131fe5781516131e58882613177565b97506131f083613970565b9250506001810190506131d1565b5085935050505092915050565b61321481613b99565b82525050565b60006132258261395a565b61322f818561398e565b935061323f818560208601613bf3565b80840191505092915050565b61325481613bcf565b82525050565b600061326582613965565b61326f8185613999565b935061327f818560208601613bf3565b61328881613d68565b840191505092915050565b60006132a0603483613999565b91506132ab82613d86565b604082019050919050565b60006132c3602f83613999565b91506132ce82613dd5565b604082019050919050565b60006132e6603383613999565b91506132f182613e24565b604082019050919050565b6000613309603783613999565b915061331482613e73565b604082019050919050565b600061332c602683613999565b915061333782613ec2565b604082019050919050565b600061334f602683613999565b915061335a82613f11565b604082019050919050565b6000613372603b83613999565b915061337d82613f60565b604082019050919050565b6000613395603b83613999565b91506133a082613faf565b604082019050919050565b60006133b8603783613999565b91506133c382613ffe565b604082019050919050565b60006133db602083613999565b91506133e68261404d565b602082019050919050565b60006133fe602f83613999565b915061340982614076565b604082019050919050565b6000613421603083613999565b915061342c826140c5565b604082019050919050565b6000613444601d83613999565b915061344f82614114565b602082019050919050565b6000613467603a83613999565b91506134728261413d565b604082019050919050565b600061348a602a83613999565b91506134958261418c565b604082019050919050565b60006134ad602583613999565b91506134b8826141db565b604082019050919050565b60006134d0602183613999565b91506134db8261422a565b604082019050919050565b60006134f3602883613999565b91506134fe82614279565b604082019050919050565b61351281613bc5565b82525050565b61352961352482613bc5565b613ca0565b82525050565b600061353b828461321a565b915081905092915050565b60006135528285613518565b6020820191506135628284613518565b6020820191508190509392505050565b6000602082019050613587600083018461319e565b92915050565b60006060820190506135a2600083018661319e565b6135af602083018561319e565b6135bc6040830184613509565b949350505050565b60006040820190506135d9600083018561319e565b6135e66020830184613509565b9392505050565b6000602082019050818103600083015261360781846131ad565b905092915050565b6000602082019050613624600083018461320b565b92915050565b600060208201905061363f600083018461324b565b92915050565b6000602082019050818103600083015261365f818461325a565b905092915050565b6000602082019050818103600083015261368081613293565b9050919050565b600060208201905081810360008301526136a0816132b6565b9050919050565b600060208201905081810360008301526136c0816132d9565b9050919050565b600060208201905081810360008301526136e0816132fc565b9050919050565b600060208201905081810360008301526137008161331f565b9050919050565b6000602082019050818103600083015261372081613342565b9050919050565b6000602082019050818103600083015261374081613365565b9050919050565b6000602082019050818103600083015261376081613388565b9050919050565b60006020820190508181036000830152613780816133ab565b9050919050565b600060208201905081810360008301526137a0816133ce565b9050919050565b600060208201905081810360008301526137c0816133f1565b9050919050565b600060208201905081810360008301526137e081613414565b9050919050565b6000602082019050818103600083015261380081613437565b9050919050565b600060208201905081810360008301526138208161345a565b9050919050565b600060208201905081810360008301526138408161347d565b9050919050565b60006020820190508181036000830152613860816134a0565b9050919050565b60006020820190508181036000830152613880816134c3565b9050919050565b600060208201905081810360008301526138a0816134e6565b9050919050565b60006020820190506138bc6000830184613509565b92915050565b60006138cc6138dd565b90506138d88282613c26565b919050565b6000604051905090565b600067ffffffffffffffff82111561390257613901613d39565b5b602082029050602081019050919050565b600067ffffffffffffffff82111561392e5761392d613d39565b5b602082029050602081019050919050565b6000819050602082019050919050565b600081519050919050565b600081519050919050565b600081519050919050565b6000602082019050919050565b600082825260208201905092915050565b600081905092915050565b600082825260208201905092915050565b6000808291508390505b60018511156139f4578086048111156139d0576139cf613cdb565b5b60018516156139df5780820291505b80810290506139ed85613d79565b94506139b4565b94509492505050565b6000613a0882613bc5565b9150613a1383613bc5565b9250613a407fffffffffffffffffffffffffffffffffffffffffffffffffffffffffffffffff8484613a48565b905092915050565b600082613a585760019050613b14565b81613a665760009050613b14565b8160018114613a7c5760028114613a8657613ab5565b6001915050613b14565b60ff841115613a9857613a97613cdb565b5b8360020a915084821115613aaf57613aae613cdb565b5b50613b14565b5060208310610133831016604e8410600b8410161715613aea5782820a905083811115613ae557613ae4613cdb565b5b613b14565b613af784848460016139aa565b92509050818404811115613b0e57613b0d613cdb565b5b81810290505b9392505050565b6000613b2682613bc5565b9150613b3183613bc5565b9250817fffffffffffffffffffffffffffffffffffffffffffffffffffffffffffffffff0483118215151615613b6a57613b69613cdb565b5b828202905092915050565b6000613b8082613ba5565b9050919050565b6000613b9282613ba5565b9050919050565b60008115159050919050565b600073ffffffffffffffffffffffffffffffffffffffff82169050919050565b6000819050919050565b6000613bda82613be1565b9050919050565b6000613bec82613ba5565b9050919050565b60005b83811015613c11578082015181840152602081019050613bf6565b83811115613c20576000848401525b50505050565b613c2f82613d68565b810181811067ffffffffffffffff82111715613c4e57613c4d613d39565b5b80604052505050565b6000613c6282613bc5565b91507fffffffffffffffffffffffffffffffffffffffffffffffffffffffffffffffff821415613c9557613c94613cdb565b5b600182019050919050565b6000819050919050565b6000613cb582613bc5565b9150613cc083613bc5565b925082613cd057613ccf613d0a565b5b828206905092915050565b7f4e487b7100000000000000000000000000000000000000000000000000000000600052601160045260246000fd5b7f4e487b7100000000000000000000000000000000000000000000000000000000600052601260045260246000fd5b7f4e487b7100000000000000000000000000000000000000000000000000000000600052604160045260246000fd5b6000601f19601f8301169050919050565b60008160011c9050919050565b7f41697264726f703a205374616b6520616d6f756e7420646f6573206e6f74206d60008201527f6565742074686520726571756972656d656e7473000000000000000000000000602082015250565b7f41697264726f703a204163636f756e7420646f6573206e6f74206d656574207460008201527f686520726571756972656d656e74730000000000000000000000000000000000602082015250565b7f41697264726f703a20546865206163636f756e74206973206e6f7420696e207460008201527f68652072656c6174696f6e736869704c69737400000000000000000000000000602082015250565b7f41697264726f703a20546865206163636f756e7420697320616c72656164792060008201527f6f6e207468652072656c6174696f6e736869704c697374000000000000000000602082015250565b7f4f776e61626c653a206e6577206f776e657220697320746865207a65726f206160008201527f6464726573730000000000000000000000000000000000000000000000000000602082015250565b7f416464726573733a20696e73756666696369656e742062616c616e636520666f60008201527f722063616c6c0000000000000000000000000000000000000000000000000000602082015250565b7f41697264726f703a2054686520696e7669746572206163636f756e742069732060008201527f6e6f7420696e207468652072656c6174696f6e736869704c6973740000000000602082015250565b7f41697264726f703a2054686520696e7669746565206163636f756e742069732060008201527f6e6f7420696e207468652072656c6174696f6e736869704c6973740000000000602082015250565b7f41697264726f703a204163636f756e742062616c616e636520646f6573206e6f60008201527f74206d6565742074686520726571756972656d656e7473000000000000000000602082015250565b7f4f776e61626c653a2063616c6c6572206973206e6f7420746865206f776e6572600082015250565b7f41697264726f703a2054686520696e7669746572206163636f756e742063616e60008201527f6e6f7420626520796f757273656c660000000000000000000000000000000000602082015250565b7f41697264726f703a2054686520696e7669746572206163636f756e742069732060008201527f746865207a65726f206164647265737300000000000000000000000000000000602082015250565b7f416464726573733a2063616c6c20746f206e6f6e2d636f6e7472616374000000600082015250565b7f41697264726f703a2054686520696e7669746565206163636f756e742069732060008201527f616c7265616479206f6e207468652061697264726f704c697374000000000000602082015250565b7f5361666545524332303a204552433230206f7065726174696f6e20646964206e60008201527f6f74207375636365656400000000000000000000000000000000000000000000602082015250565b7f41697264726f703a2054686520696e7669746520696e666f206c69737420697360008201527f206e756c6c000000000000000000000000000000000000000000000000000000602082015250565b7f41697264726f703a20546865206163636f756e74206c697374206973206e756c60008201527f6c00000000000000000000000000000000000000000000000000000000000000602082015250565b7f41697264726f703a20546865206163636f756e7420697320746865207a65726f60008201527f2061646472657373000000000000000000000000000000000000000000000000602082015250565b6142d181613b75565b81146142dc57600080fd5b50565b6142e881613b87565b81146142f357600080fd5b50565b6142ff81613b99565b811461430a57600080fd5b50565b61431681613bc5565b811461432157600080fd5b5056fea2646970667358221220f33a077539f52972da7e95cd6fef3083d3fc73d05687382e2dbdde74152022c664736f6c63430008040033",
  "immutableReferences": {},
  "source": "// SPDX-License-Identifier: MIT\r\npragma solidity ^0.8.0;\r\n\r\nimport \"@openzeppelin/contracts/access/Ownable.sol\";\r\nimport \"@openzeppelin/contracts/utils/math/SafeMath.sol\";\r\nimport \"@openzeppelin/contracts/token/ERC20/utils/SafeERC20.sol\";\r\n\r\ninterface CrowdsaleForRetail {\r\n    function joined(address account) external view returns (uint256);\r\n}\r\n\r\ncontract AirdropUnlimited is Ownable {\r\n    using SafeMath for uint256;\r\n    using SafeERC20 for IERC20;\r\n\r\n    event transferToken(address wallet, address account, uint256 amount);\r\n\r\n    IERC20 public token;\r\n    address public tokenWallet;\r\n    uint256 public minDATBalanceAmount;\r\n    uint256 public minDATStakeAmount;\r\n    uint256 public airdropMaxAmount;\r\n    address public crowdsaleForRetailAddress;\r\n    IERC20 public crowdsaleToken;\r\n\r\n    CrowdsaleForRetail private crowdsaleForRetail;\r\n\r\n    bool public checkRelationshipListSwitch = false;\r\n    bool public checkDATBalanceOrDATStakeSwitch = true;\r\n    bool public checkDATBalanceSwitch = false;\r\n    bool public checkDATStakeSwitch = false;\r\n\r\n    // relationshipList\r\n    struct Relationship {\r\n        address token;\r\n        bool isRemove;\r\n        address[] member;\r\n    }\r\n    mapping (address => Relationship) private _relationshipList;\r\n\r\n    // Record the information of all invited personnel\r\n    struct InviteInfo {\r\n        address inviterToken;\r\n        uint256 airdropAmount;\r\n    }\r\n    mapping (address => InviteInfo) public airdropList;\r\n\r\n    // Report Record the information of all invited personnel\r\n    struct ReportInviteInfo {\r\n        address token;\r\n        address inviterToken;\r\n        uint256 amount;\r\n    }\r\n\r\n    constructor(\r\n        IERC20 _token,\r\n        address _tokenWallet,\r\n        uint256 _minDATBalanceAmount,\r\n        uint256 _minDATStakeAmount,\r\n        uint256 _airdropMaxAmount,\r\n        address _crowdsaleForRetailAddress,\r\n        IERC20 _crowdsaleToken\r\n    ) Ownable() {\r\n        require(address(_token) != address(0), \"Airdrop: The token is the zero address\");\r\n        require(_tokenWallet != address(0), \"Airdrop: The token wallet is the zero address\");\r\n\r\n        token = _token;\r\n        tokenWallet = _tokenWallet;\r\n        minDATBalanceAmount = _minDATBalanceAmount;\r\n        minDATStakeAmount = _minDATStakeAmount;\r\n        airdropMaxAmount = _airdropMaxAmount;\r\n        crowdsaleForRetailAddress = _crowdsaleForRetailAddress;\r\n        crowdsaleToken = _crowdsaleToken;\r\n\r\n        crowdsaleForRetail = CrowdsaleForRetail(_crowdsaleForRetailAddress);\r\n    }\r\n\r\n    // set minDATBalanceAmount\r\n    function setMinDATBalanceAmount(uint256 amount) public onlyOwner {\r\n        minDATBalanceAmount = amount;\r\n    }\r\n    // set minDATStakeAmount\r\n    function setMinDATStakeAmount(uint256 amount) public onlyOwner {\r\n        minDATStakeAmount = amount;\r\n    }\r\n    // set airdropMaxAmount\r\n    function setAirdropMaxAmount(uint256 amount) public onlyOwner {\r\n        airdropMaxAmount = amount;\r\n    }\r\n    // open and close checkRelationshipListSwitch\r\n    function openCheckRelationshipListSwitch() public onlyOwner {\r\n        checkRelationshipListSwitch = true;\r\n    }\r\n    function closeCheckRelationshipListSwitch() public onlyOwner {\r\n        checkRelationshipListSwitch = false;\r\n    }\r\n    // open and close checkDATBalanceOrDATStakeSwitch\r\n    function openCheckDATBalanceOrDATStakeSwitch() public onlyOwner {\r\n        checkDATBalanceOrDATStakeSwitch = true;\r\n    }\r\n    function closeCheckDATBalanceOrDATStakeSwitch() public onlyOwner {\r\n        checkDATBalanceOrDATStakeSwitch = false;\r\n    }\r\n    // open and close checkDATBalanceSwitch\r\n    function openCheckDATBalanceSwitch() public onlyOwner {\r\n        checkDATBalanceSwitch = true;\r\n    }\r\n    function closeCheckDATBalanceSwitch() public onlyOwner {\r\n        checkDATBalanceSwitch = false;\r\n    }\r\n    // open and close checkDATStakeSwitch\r\n    function openCheckDATStakeSwitch() public onlyOwner {\r\n        checkDATStakeSwitch = true;\r\n    }\r\n    function closeCheckDATStakeSwitch() public onlyOwner {\r\n        checkDATStakeSwitch = false;\r\n    }\r\n\r\n    /**\r\n     * @dev get DAT balance amount of account.\r\n     * @param account the address\r\n     * @return uint256\r\n     */\r\n    function getDatBalance(address account) public onlyOwner view returns (uint256) {\r\n        return crowdsaleToken.balanceOf(account);\r\n    }\r\n\r\n    /**\r\n     * @dev get DAT stake amount of account.\r\n     * @param account the address\r\n     * @return uint256\r\n     */\r\n    function getDatStake(address account) public onlyOwner view returns (uint256) {\r\n        return crowdsaleForRetail.joined(account);\r\n    }\r\n\r\n    /**\r\n     * @dev get member list from the relationshipList by owner\r\n     */\r\n    function getMemberListByOwner(address account) public onlyOwner view returns (address[] memory) {\r\n        return _getMemberList(account);\r\n    }\r\n\r\n    /**\r\n     * @dev get member list from the relationshipList by owner\r\n     */\r\n    function getMemberList() public view returns (address[] memory) {\r\n        require(hasRelationshipList(msg.sender), \"Airdrop: The account is not in the relationshipList\");\r\n        return _getMemberList(msg.sender);\r\n    }\r\n\r\n    /**\r\n     * @dev get member list from the relationshipList\r\n     */\r\n    function _getMemberList(address account) internal view returns (address[] memory) {\r\n        Relationship memory info = _relationshipList[account];\r\n        return info.member;\r\n    }\r\n\r\n    /**\r\n     * @dev add account list to the relationshipList by owner\r\n     * @param accountList the address of relationshipList\r\n     */\r\n    function addMutliToRelationshipList(address[] memory accountList) public onlyOwner {\r\n        require(accountList.length > 0, \"Airdrop: The account list is null\");\r\n        for (uint i = 0; i < accountList.length; i++) {\r\n            _addToRelationshipList(accountList[i]);\r\n        }\r\n    }\r\n\r\n    /**\r\n     * @dev add single account to the relationshipList by owner\r\n     * @param account the address of relationshipList\r\n     */\r\n    function addToRelationshipList(address account) public onlyOwner {\r\n        require(!hasRelationshipList(account), \"Airdrop: The account is already on the relationshipList\");\r\n        _addToRelationshipList(account);\r\n    }\r\n\r\n    /**\r\n     * @dev add account to the relationshipList\r\n     * @param account the address of relationshipList\r\n     */\r\n    function _addToRelationshipList(address account) internal {\r\n        Relationship storage info = _relationshipList[account];\r\n        if (info.token != address(0)) {\r\n            info.isRemove = false;\r\n        } else {\r\n            _relationshipList[account] = Relationship(account, false, new address[](0));\r\n        }\r\n    }\r\n\r\n    /**\r\n     * @dev add account list to the airdropList by owner\r\n     * @param list the address of airdropList\r\n     */\r\n    function addMutliToAirdropList(ReportInviteInfo[] memory list) public onlyOwner {\r\n        require(list.length > 0, \"Airdrop: The invite info list is null\");\r\n        for (uint i = 0; i < list.length; i++) {\r\n            ReportInviteInfo memory reportInfo = list[i];\r\n            if (reportInfo.amount >= 0 && !hasRelationshipList(reportInfo.token) && !hasAirdropList(reportInfo.token)) {\r\n                uint256 formatAmount = reportInfo.amount * (10**uint256(18));\r\n                _receiveAirdrop(reportInfo.token, reportInfo.inviterToken, formatAmount, false);\r\n            }\r\n        }\r\n    }\r\n\r\n    /**\r\n     * @dev Check if an account has this relationshipList.\r\n     * @param account the address of relationshipList\r\n     * @return bool\r\n     */\r\n    function hasRelationshipList(address account) public view returns (bool) {\r\n        require(address(account) != address(0), \"Airdrop: The account is the zero address\");\r\n        Relationship memory relationshipListInfo = _relationshipList[account];\r\n        return relationshipListInfo.token != address(0);\r\n    }\r\n\r\n    /**\r\n     * @dev Check if an account has this airdroplist.\r\n     * @param account the address\r\n     * @return bool\r\n     */\r\n    function hasAirdropList(address account) public view returns (bool) {\r\n        require(address(account) != address(0), \"Airdrop: The account is the zero address\");\r\n        InviteInfo memory inviteInfo = airdropList[account];\r\n        return inviteInfo.inviterToken != address(0);\r\n    }\r\n\r\n    /**\r\n     * @dev Check if an account DAT balance.\r\n     * @param account the address\r\n     * @return bool\r\n     */\r\n    function checkDatBalance(address account) public view returns (bool) {\r\n        uint256 accountBalance = crowdsaleToken.balanceOf(account);\r\n        uint256 formatMinDATBalanceAmount = minDATBalanceAmount * (10**uint256(18));\r\n        return accountBalance >= formatMinDATBalanceAmount;\r\n    }\r\n\r\n    /**\r\n     * @dev Check if an account DAT balance.\r\n     * @param account the address\r\n     * @return bool\r\n     */\r\n    function checkDatStake(address account) public view returns (bool) {\r\n        uint256 accountStakeAmount = crowdsaleForRetail.joined(account);\r\n        uint256 formatMinDATStakeAmount = minDATStakeAmount * (10**uint256(18));\r\n        return accountStakeAmount >= formatMinDATStakeAmount;\r\n    }\r\n\r\n    /**\r\n     * @dev Receive airdrop\r\n     * @param inviterAccount the account of receive's inviter\r\n     */\r\n    function receiveAirdrop(address inviterAccount) public {\r\n        require(inviterAccount != address(0), \"Airdrop: The inviter account is the zero address\");\r\n        require(inviterAccount != msg.sender, \"Airdrop: The inviter account cannot be yourself\");\r\n        require(!hasAirdropList(msg.sender), \"Airdrop: The invitee account is already on the airdropList\");\r\n        require(!hasRelationshipList(msg.sender), \"Airdrop: The invitee account is not in the relationshipList\");\r\n\r\n        if (checkRelationshipListSwitch) {\r\n            require(hasRelationshipList(inviterAccount), \"Airdrop: The inviter account is not in the relationshipList\");\r\n        }\r\n        if (checkDATBalanceOrDATStakeSwitch) {\r\n            require(checkDatBalance(inviterAccount) || checkDatStake(inviterAccount), \"Airdrop: Account does not meet the requirements\");\r\n        } else {\r\n            if (checkDATBalanceSwitch) {\r\n                require(checkDatBalance(inviterAccount), \"Airdrop: Account balance does not meet the requirements\");\r\n            }\r\n            if (checkDATStakeSwitch) {\r\n                require(checkDatStake(inviterAccount), \"Airdrop: Stake amount does not meet the requirements\");\r\n            }\r\n        }\r\n\r\n        // random to airdrop amount\r\n        uint256 actualAmount = _getActualAmount();\r\n\r\n        // exec receiveAirdrop\r\n        _receiveAirdrop(msg.sender, inviterAccount, actualAmount, true);\r\n    }\r\n\r\n    /**\r\n     * @dev Receive airdrop\r\n     * @param currentAccount the account of operationer\r\n     * @param inviterAccount the account of receive's inviter\r\n     * @param amount Get actual amount\r\n     * @param isTransfer Whether to transfer\r\n     */\r\n    function _receiveAirdrop(address currentAccount, address inviterAccount, uint256 amount, bool isTransfer) private {\r\n        // add to airdropList\r\n        airdropList[currentAccount] = InviteInfo(inviterAccount, amount);\r\n        \r\n        // add to relationshipList member\r\n        Relationship storage relationshipListInfo = _relationshipList[inviterAccount];\r\n        if (relationshipListInfo.token != address(0)) {\r\n            relationshipListInfo.member.push(currentAccount);\r\n        } else {\r\n            _relationshipList[inviterAccount] = Relationship(inviterAccount, false, new address[](0));\r\n            _relationshipList[inviterAccount].member.push(currentAccount);\r\n        }\r\n        \r\n        if (isTransfer) {\r\n            // transfer token to receive account\r\n            token.safeTransferFrom(tokenWallet, currentAccount, amount);\r\n            \r\n            emit transferToken(tokenWallet, currentAccount, amount);\r\n        }\r\n    }\r\n\r\n    /**\r\n     * @dev Get actual amount\r\n     */\r\n    function _getActualAmount() internal view returns(uint256) {\r\n        // random to airdrop amount\r\n        uint256 randomAmount = _rand(airdropMaxAmount);\r\n        if (randomAmount < 1) {\r\n            randomAmount = 1;\r\n        } else if (randomAmount > airdropMaxAmount) {\r\n            randomAmount = airdropMaxAmount;\r\n        }\r\n        uint256 actualAmount = randomAmount * (10**uint256(18));\r\n        return actualAmount;\r\n    }\r\n\r\n    /**\r\n     * @dev Generate random numbers\r\n     * @param length Random number range\r\n     */\r\n    function _rand(uint256 length) internal view returns(uint256) {\r\n        uint256 random = uint256(keccak256(abi.encodePacked(block.difficulty, block.timestamp)));\r\n        return random % length;\r\n    }\r\n\r\n    function killSelf(address payable recipientToken) public onlyOwner {\r\n        uint256 contractBalance = token.balanceOf(address(this));\r\n        token.safeTransfer(recipientToken, contractBalance);\r\n\r\n        selfdestruct(recipientToken);\r\n    }\r\n}\r\n",
  "sourcePath": "D:/Workspaces/DaoswapDex/daoswapdex-heco-testnet/core-airdrop/contracts/AirdropUnlimited.sol",
  "compiler": {
    "name": "solc",
    "version": "0.8.4+commit.c7e474f2.Emscripten.clang"
  },
  "schemaVersion": "3.4.1",
  "updatedAt": "2021-08-13T06:16:03.356Z",
  "networkType": "ethereum",
  "devdoc": {
    "kind": "dev",
    "methods": {
      "addMutliToAirdropList((address,address,uint256)[])": {
        "details": "add account list to the airdropList by owner",
        "params": {
          "list": "the address of airdropList"
        }
      },
      "addMutliToRelationshipList(address[])": {
        "details": "add account list to the relationshipList by owner",
        "params": {
          "accountList": "the address of relationshipList"
        }
      },
      "addToRelationshipList(address)": {
        "details": "add single account to the relationshipList by owner",
        "params": {
          "account": "the address of relationshipList"
        }
      },
      "checkDatBalance(address)": {
        "details": "Check if an account DAT balance.",
        "params": {
          "account": "the address"
        },
        "returns": {
          "_0": "bool"
        }
      },
      "checkDatStake(address)": {
        "details": "Check if an account DAT balance.",
        "params": {
          "account": "the address"
        },
        "returns": {
          "_0": "bool"
        }
      },
      "getDatBalance(address)": {
        "details": "get DAT balance amount of account.",
        "params": {
          "account": "the address"
        },
        "returns": {
          "_0": "uint256"
        }
      },
      "getDatStake(address)": {
        "details": "get DAT stake amount of account.",
        "params": {
          "account": "the address"
        },
        "returns": {
          "_0": "uint256"
        }
      },
      "getMemberList()": {
        "details": "get member list from the relationshipList by owner"
      },
      "getMemberListByOwner(address)": {
        "details": "get member list from the relationshipList by owner"
      },
      "hasAirdropList(address)": {
        "details": "Check if an account has this airdroplist.",
        "params": {
          "account": "the address"
        },
        "returns": {
          "_0": "bool"
        }
      },
      "hasRelationshipList(address)": {
        "details": "Check if an account has this relationshipList.",
        "params": {
          "account": "the address of relationshipList"
        },
        "returns": {
          "_0": "bool"
        }
      },
      "owner()": {
        "details": "Returns the address of the current owner."
      },
      "receiveAirdrop(address)": {
        "details": "Receive airdrop",
        "params": {
          "inviterAccount": "the account of receive's inviter"
        }
      },
      "renounceOwnership()": {
        "details": "Leaves the contract without owner. It will not be possible to call `onlyOwner` functions anymore. Can only be called by the current owner. NOTE: Renouncing ownership will leave the contract without an owner, thereby removing any functionality that is only available to the owner."
      },
      "transferOwnership(address)": {
        "details": "Transfers ownership of the contract to a new account (`newOwner`). Can only be called by the current owner."
      }
    },
    "version": 1
  },
  "userdoc": {
    "kind": "user",
    "methods": {},
    "version": 1
  }
}