{
  "contractName": "AirdropToRelationship",
  "abi": [
    {
      "inputs": [
        {
          "internalType": "contract IERC20",
          "name": "_token",
          "type": "address"
        },
        {
          "internalType": "address",
          "name": "_tokenWallet",
          "type": "address"
        },
        {
          "internalType": "uint256",
          "name": "_minDATBalanceAmount",
          "type": "uint256"
        },
        {
          "internalType": "uint256",
          "name": "_minDATStakeAmount",
          "type": "uint256"
        },
        {
          "internalType": "uint256",
          "name": "_airdropMinAmount",
          "type": "uint256"
        },
        {
          "internalType": "uint256",
          "name": "_airdropMaxAmount",
          "type": "uint256"
        },
        {
          "internalType": "address",
          "name": "_crowdsaleForRetailAddress",
          "type": "address"
        },
        {
          "internalType": "contract IERC20",
          "name": "_crowdsaleToken",
          "type": "address"
        },
        {
          "internalType": "address",
          "name": "_relationshipAddress",
          "type": "address"
        }
      ],
      "stateMutability": "nonpayable",
      "type": "constructor"
    },
    {
      "anonymous": false,
      "inputs": [
        {
          "indexed": true,
          "internalType": "address",
          "name": "previousOwner",
          "type": "address"
        },
        {
          "indexed": true,
          "internalType": "address",
          "name": "newOwner",
          "type": "address"
        }
      ],
      "name": "OwnershipTransferred",
      "type": "event"
    },
    {
      "anonymous": false,
      "inputs": [
        {
          "indexed": false,
          "internalType": "address",
          "name": "wallet",
          "type": "address"
        },
        {
          "indexed": false,
          "internalType": "address",
          "name": "account",
          "type": "address"
        },
        {
          "indexed": false,
          "internalType": "uint256",
          "name": "amount",
          "type": "uint256"
        }
      ],
      "name": "transferToken",
      "type": "event"
    },
    {
      "inputs": [
        {
          "internalType": "address",
          "name": "",
          "type": "address"
        }
      ],
      "name": "airdropAmount",
      "outputs": [
        {
          "internalType": "uint256",
          "name": "",
          "type": "uint256"
        }
      ],
      "stateMutability": "view",
      "type": "function",
      "constant": true
    },
    {
      "inputs": [],
      "name": "airdropMaxAmount",
      "outputs": [
        {
          "internalType": "uint256",
          "name": "",
          "type": "uint256"
        }
      ],
      "stateMutability": "view",
      "type": "function",
      "constant": true
    },
    {
      "inputs": [],
      "name": "airdropMinAmount",
      "outputs": [
        {
          "internalType": "uint256",
          "name": "",
          "type": "uint256"
        }
      ],
      "stateMutability": "view",
      "type": "function",
      "constant": true
    },
    {
      "inputs": [],
      "name": "checkDATBalanceOrDATStakeSwitch",
      "outputs": [
        {
          "internalType": "bool",
          "name": "",
          "type": "bool"
        }
      ],
      "stateMutability": "view",
      "type": "function",
      "constant": true
    },
    {
      "inputs": [],
      "name": "checkDATBalanceSwitch",
      "outputs": [
        {
          "internalType": "bool",
          "name": "",
          "type": "bool"
        }
      ],
      "stateMutability": "view",
      "type": "function",
      "constant": true
    },
    {
      "inputs": [],
      "name": "checkDATStakeSwitch",
      "outputs": [
        {
          "internalType": "bool",
          "name": "",
          "type": "bool"
        }
      ],
      "stateMutability": "view",
      "type": "function",
      "constant": true
    },
    {
      "inputs": [],
      "name": "checkRelationshipListSwitch",
      "outputs": [
        {
          "internalType": "bool",
          "name": "",
          "type": "bool"
        }
      ],
      "stateMutability": "view",
      "type": "function",
      "constant": true
    },
    {
      "inputs": [],
      "name": "checkTransferSwitch",
      "outputs": [
        {
          "internalType": "bool",
          "name": "",
          "type": "bool"
        }
      ],
      "stateMutability": "view",
      "type": "function",
      "constant": true
    },
    {
      "inputs": [],
      "name": "crowdsaleForRetailAddress",
      "outputs": [
        {
          "internalType": "address",
          "name": "",
          "type": "address"
        }
      ],
      "stateMutability": "view",
      "type": "function",
      "constant": true
    },
    {
      "inputs": [],
      "name": "crowdsaleToken",
      "outputs": [
        {
          "internalType": "contract IERC20",
          "name": "",
          "type": "address"
        }
      ],
      "stateMutability": "view",
      "type": "function",
      "constant": true
    },
    {
      "inputs": [],
      "name": "minDATBalanceAmount",
      "outputs": [
        {
          "internalType": "uint256",
          "name": "",
          "type": "uint256"
        }
      ],
      "stateMutability": "view",
      "type": "function",
      "constant": true
    },
    {
      "inputs": [],
      "name": "minDATStakeAmount",
      "outputs": [
        {
          "internalType": "uint256",
          "name": "",
          "type": "uint256"
        }
      ],
      "stateMutability": "view",
      "type": "function",
      "constant": true
    },
    {
      "inputs": [],
      "name": "owner",
      "outputs": [
        {
          "internalType": "address",
          "name": "",
          "type": "address"
        }
      ],
      "stateMutability": "view",
      "type": "function",
      "constant": true
    },
    {
      "inputs": [],
      "name": "relationshipAddress",
      "outputs": [
        {
          "internalType": "address",
          "name": "",
          "type": "address"
        }
      ],
      "stateMutability": "view",
      "type": "function",
      "constant": true
    },
    {
      "inputs": [],
      "name": "renounceOwnership",
      "outputs": [],
      "stateMutability": "nonpayable",
      "type": "function"
    },
    {
      "inputs": [],
      "name": "token",
      "outputs": [
        {
          "internalType": "contract IERC20",
          "name": "",
          "type": "address"
        }
      ],
      "stateMutability": "view",
      "type": "function",
      "constant": true
    },
    {
      "inputs": [],
      "name": "tokenWallet",
      "outputs": [
        {
          "internalType": "address",
          "name": "",
          "type": "address"
        }
      ],
      "stateMutability": "view",
      "type": "function",
      "constant": true
    },
    {
      "inputs": [
        {
          "internalType": "address",
          "name": "newOwner",
          "type": "address"
        }
      ],
      "name": "transferOwnership",
      "outputs": [],
      "stateMutability": "nonpayable",
      "type": "function"
    },
    {
      "inputs": [
        {
          "internalType": "uint256",
          "name": "amount",
          "type": "uint256"
        }
      ],
      "name": "setMinDATBalanceAmount",
      "outputs": [],
      "stateMutability": "nonpayable",
      "type": "function"
    },
    {
      "inputs": [
        {
          "internalType": "uint256",
          "name": "amount",
          "type": "uint256"
        }
      ],
      "name": "setMinDATStakeAmount",
      "outputs": [],
      "stateMutability": "nonpayable",
      "type": "function"
    },
    {
      "inputs": [
        {
          "internalType": "uint256",
          "name": "amount",
          "type": "uint256"
        }
      ],
      "name": "setAirdropMinAmount",
      "outputs": [],
      "stateMutability": "nonpayable",
      "type": "function"
    },
    {
      "inputs": [
        {
          "internalType": "uint256",
          "name": "amount",
          "type": "uint256"
        }
      ],
      "name": "setAirdropMaxAmount",
      "outputs": [],
      "stateMutability": "nonpayable",
      "type": "function"
    },
    {
      "inputs": [],
      "name": "openCheckRelationshipListSwitch",
      "outputs": [],
      "stateMutability": "nonpayable",
      "type": "function"
    },
    {
      "inputs": [],
      "name": "closeCheckRelationshipListSwitch",
      "outputs": [],
      "stateMutability": "nonpayable",
      "type": "function"
    },
    {
      "inputs": [],
      "name": "openCheckDATBalanceOrDATStakeSwitch",
      "outputs": [],
      "stateMutability": "nonpayable",
      "type": "function"
    },
    {
      "inputs": [],
      "name": "closeCheckDATBalanceOrDATStakeSwitch",
      "outputs": [],
      "stateMutability": "nonpayable",
      "type": "function"
    },
    {
      "inputs": [],
      "name": "openCheckDATBalanceSwitch",
      "outputs": [],
      "stateMutability": "nonpayable",
      "type": "function"
    },
    {
      "inputs": [],
      "name": "closeCheckDATBalanceSwitch",
      "outputs": [],
      "stateMutability": "nonpayable",
      "type": "function"
    },
    {
      "inputs": [],
      "name": "openCheckDATStakeSwitch",
      "outputs": [],
      "stateMutability": "nonpayable",
      "type": "function"
    },
    {
      "inputs": [],
      "name": "closeCheckDATStakeSwitch",
      "outputs": [],
      "stateMutability": "nonpayable",
      "type": "function"
    },
    {
      "inputs": [],
      "name": "openCheckTransferSwitch",
      "outputs": [],
      "stateMutability": "nonpayable",
      "type": "function"
    },
    {
      "inputs": [],
      "name": "closeCheckTransferSwitch",
      "outputs": [],
      "stateMutability": "nonpayable",
      "type": "function"
    },
    {
      "inputs": [
        {
          "internalType": "address",
          "name": "account",
          "type": "address"
        }
      ],
      "name": "getDatBalance",
      "outputs": [
        {
          "internalType": "uint256",
          "name": "",
          "type": "uint256"
        }
      ],
      "stateMutability": "view",
      "type": "function",
      "constant": true
    },
    {
      "inputs": [
        {
          "internalType": "address",
          "name": "account",
          "type": "address"
        }
      ],
      "name": "getDatStake",
      "outputs": [
        {
          "internalType": "uint256",
          "name": "",
          "type": "uint256"
        }
      ],
      "stateMutability": "view",
      "type": "function",
      "constant": true
    },
    {
      "inputs": [
        {
          "internalType": "address",
          "name": "account",
          "type": "address"
        }
      ],
      "name": "getMemberListByOwner",
      "outputs": [
        {
          "internalType": "address[]",
          "name": "",
          "type": "address[]"
        }
      ],
      "stateMutability": "view",
      "type": "function",
      "constant": true
    },
    {
      "inputs": [],
      "name": "getMemberList",
      "outputs": [
        {
          "internalType": "address[]",
          "name": "",
          "type": "address[]"
        }
      ],
      "stateMutability": "view",
      "type": "function",
      "constant": true
    },
    {
      "inputs": [
        {
          "internalType": "address",
          "name": "account",
          "type": "address"
        }
      ],
      "name": "hasRelationshipList",
      "outputs": [
        {
          "internalType": "bool",
          "name": "",
          "type": "bool"
        }
      ],
      "stateMutability": "view",
      "type": "function",
      "constant": true
    },
    {
      "inputs": [
        {
          "internalType": "address",
          "name": "account",
          "type": "address"
        }
      ],
      "name": "hasAirdropList",
      "outputs": [
        {
          "internalType": "bool",
          "name": "",
          "type": "bool"
        }
      ],
      "stateMutability": "view",
      "type": "function",
      "constant": true
    },
    {
      "inputs": [
        {
          "internalType": "address",
          "name": "account",
          "type": "address"
        }
      ],
      "name": "checkDatBalance",
      "outputs": [
        {
          "internalType": "bool",
          "name": "",
          "type": "bool"
        }
      ],
      "stateMutability": "view",
      "type": "function",
      "constant": true
    },
    {
      "inputs": [
        {
          "internalType": "address",
          "name": "account",
          "type": "address"
        }
      ],
      "name": "checkDatStake",
      "outputs": [
        {
          "internalType": "bool",
          "name": "",
          "type": "bool"
        }
      ],
      "stateMutability": "view",
      "type": "function",
      "constant": true
    },
    {
      "inputs": [
        {
          "internalType": "address",
          "name": "inviteeAccount",
          "type": "address"
        },
        {
          "internalType": "address",
          "name": "inviterAccount",
          "type": "address"
        }
      ],
      "name": "addToRelationshipList",
      "outputs": [],
      "stateMutability": "nonpayable",
      "type": "function"
    },
    {
      "inputs": [
        {
          "internalType": "address",
          "name": "inviterAccount",
          "type": "address"
        }
      ],
      "name": "receiveAirdrop",
      "outputs": [],
      "stateMutability": "nonpayable",
      "type": "function"
    },
    {
      "inputs": [
        {
          "internalType": "address payable",
          "name": "recipientToken",
          "type": "address"
        }
      ],
      "name": "killSelf",
      "outputs": [],
      "stateMutability": "nonpayable",
      "type": "function"
    }
  ],
  "bytecode": "0x60806040526000600c60146101000a81548160ff0219169083151502179055506001600c60156101000a81548160ff0219169083151502179055506000600c60166101000a81548160ff0219169083151502179055506000600c60176101000a81548160ff0219169083151502179055506001600c60186101000a81548160ff0219169083151502179055503480156200009857600080fd5b5060405162004351380380620043518339818101604052810190620000be91906200050c565b620000de620000d2620003fb60201b60201c565b6200040360201b60201c565b600073ffffffffffffffffffffffffffffffffffffffff168973ffffffffffffffffffffffffffffffffffffffff16141562000151576040517f08c379a000000000000000000000000000000000000000000000000000000000815260040162000148906200067c565b60405180910390fd5b600073ffffffffffffffffffffffffffffffffffffffff168873ffffffffffffffffffffffffffffffffffffffff161415620001c4576040517f08c379a0000000000000000000000000000000000000000000000000000000008152600401620001bb906200069e565b60405180910390fd5b83851062000209576040517f08c379a000000000000000000000000000000000000000000000000000000000815260040162000200906200065a565b60405180910390fd5b88600260006101000a81548173ffffffffffffffffffffffffffffffffffffffff021916908373ffffffffffffffffffffffffffffffffffffffff16021790555087600360006101000a81548173ffffffffffffffffffffffffffffffffffffffff021916908373ffffffffffffffffffffffffffffffffffffffff1602179055508660048190555085600581905550846006819055508360078190555082600860006101000a81548173ffffffffffffffffffffffffffffffffffffffff021916908373ffffffffffffffffffffffffffffffffffffffff16021790555081600960006101000a81548173ffffffffffffffffffffffffffffffffffffffff021916908373ffffffffffffffffffffffffffffffffffffffff16021790555080600a60006101000a81548173ffffffffffffffffffffffffffffffffffffffff021916908373ffffffffffffffffffffffffffffffffffffffff16021790555082600b60006101000a81548173ffffffffffffffffffffffffffffffffffffffff021916908373ffffffffffffffffffffffffffffffffffffffff16021790555080600c60006101000a81548173ffffffffffffffffffffffffffffffffffffffff021916908373ffffffffffffffffffffffffffffffffffffffff16021790555050505050505050505062000884565b600033905090565b60008060009054906101000a900473ffffffffffffffffffffffffffffffffffffffff169050816000806101000a81548173ffffffffffffffffffffffffffffffffffffffff021916908373ffffffffffffffffffffffffffffffffffffffff1602179055508173ffffffffffffffffffffffffffffffffffffffff168173ffffffffffffffffffffffffffffffffffffffff167f8be0079c531659141344cd1fd0a4f28419497f9722a3daafe3b4186f6b6457e060405160405180910390a35050565b600081519050620004d88162000836565b92915050565b600081519050620004ef8162000850565b92915050565b60008151905062000506816200086a565b92915050565b60008060008060008060008060006101208a8c0312156200052c57600080fd5b60006200053c8c828d01620004de565b99505060206200054f8c828d01620004c7565b9850506040620005628c828d01620004f5565b9750506060620005758c828d01620004f5565b9650506080620005888c828d01620004f5565b95505060a06200059b8c828d01620004f5565b94505060c0620005ae8c828d01620004c7565b93505060e0620005c18c828d01620004de565b925050610100620005d58c828d01620004c7565b9150509295985092959850929598565b6000620005f4605083620006c0565b9150620006018262000723565b606082019050919050565b60006200061b602683620006c0565b9150620006288262000798565b604082019050919050565b600062000642602d83620006c0565b91506200064f82620007e7565b604082019050919050565b600060208201905081810360008301526200067581620005e5565b9050919050565b6000602082019050818103600083015262000697816200060c565b9050919050565b60006020820190508181036000830152620006b98162000633565b9050919050565b600082825260208201905092915050565b6000620006de82620006f9565b9050919050565b6000620006f282620006d1565b9050919050565b600073ffffffffffffffffffffffffffffffffffffffff82169050919050565b6000819050919050565b7f41697264726f703a20546865206d696e696d756d2061697264726f7020616d6f60008201527f756e74206d757374206265206c657373207468616e20746865206d6178696d7560208201527f6d2061697264726f7020616d6f756e7400000000000000000000000000000000604082015250565b7f41697264726f703a2054686520746f6b656e20697320746865207a65726f206160008201527f6464726573730000000000000000000000000000000000000000000000000000602082015250565b7f41697264726f703a2054686520746f6b656e2077616c6c65742069732074686560008201527f207a65726f206164647265737300000000000000000000000000000000000000602082015250565b6200084181620006d1565b81146200084d57600080fd5b50565b6200085b81620006e5565b81146200086757600080fd5b50565b620008758162000719565b81146200088157600080fd5b50565b613abd80620008946000396000f3fe608060405234801561001057600080fd5b50600436106102685760003560e01c80638c23881411610151578063d6e1360e116100c3578063f02e1fcd11610087578063f02e1fcd1461066d578063f1d748fd14610677578063f2fde38b146106a7578063f7734812146106c3578063fa65dfac146106df578063fc0c546a146106fd57610268565b8063d6e1360e146105d9578063e2354b9c146105f7578063e596275014610613578063e9f7df9614610631578063eb8585241461064f57610268565b8063b530dc8c11610115578063b530dc8c14610503578063be5a60ce14610533578063bff99c6c14610551578063ca4cf14f1461056f578063cdb208ca1461059f578063d231c5af146105a957610268565b80638c2388141461045d5780638d59b3a71461047b5780638da5cb5b146104ab5780638f3fd507146104c9578063ac195c68146104e757610268565b806335b0152c116101ea5780636f99f537116101ae5780636f99f537146103c1578063715018a6146103df578063775e884f146103e9578063776637b4146104055780637b231ceb146104355780638bee35dd1461045357610268565b806335b0152c146103435780633a507d7d1461034d57806341cd9cd7146103695780635f5d5f0014610399578063644cfecc146103b757610268565b80631bbff984116102315780631bbff984146102b357806324a49095146102bd5780632ec94efd146102d95780632ef86e291461030957806330aff60d1461032757610268565b8062d652e81461026d5780630b7591cd146102775780630c3b65d31461028157806313777e941461028b57806318f15d6514610295575b600080fd5b61027561071b565b005b61027f6107b4565b005b61028961084d565b005b6102936108e6565b005b61029d61097f565b6040516102aa9190613165565b60405180910390f35b6102bb610985565b005b6102d760048036038101906102d29190612ab8565b610a1e565b005b6102f360048036038101906102ee91906129c0565b610aa4565b6040516103009190613165565b60405180910390f35b610311610bd4565b60405161031e9190613165565b60405180910390f35b610341600480360381019061033c9190612ab8565b610bda565b005b61034b610c60565b005b610367600480360381019061036291906129e9565b610cf9565b005b610383600480360381019061037e91906129c0565b610e8a565b6040516103909190612f4d565b60405180910390f35b6103a1610fad565b6040516103ae9190612f2b565b60405180910390f35b6103bf611064565b005b6103c96110fd565b6040516103d69190612f4d565b60405180910390f35b6103e7611110565b005b61040360048036038101906103fe9190612ab8565b611198565b005b61041f600480360381019061041a91906129c0565b61121e565b60405161042c9190612f4d565b60405180910390f35b61043d6112fa565b60405161044a9190612f4d565b60405180910390f35b61045b61130d565b005b6104656113a6565b6040516104729190613165565b60405180910390f35b610495600480360381019061049091906129c0565b6113ac565b6040516104a29190612f4d565b60405180910390f35b6104b36114cf565b6040516104c09190612e79565b60405180910390f35b6104d16114f8565b6040516104de9190612e79565b60405180910390f35b61050160048036038101906104fc9190612ab8565b61151e565b005b61051d600480360381019061051891906129c0565b6115a4565b60405161052a9190613165565b60405180910390f35b61053b6115bc565b6040516105489190612f4d565b60405180910390f35b6105596115cf565b6040516105669190612e79565b60405180910390f35b610589600480360381019061058491906129c0565b6115f5565b6040516105969190612f2b565b60405180910390f35b6105a761172a565b005b6105c360048036038101906105be91906129c0565b6117c3565b6040516105d09190612f4d565b60405180910390f35b6105e161189f565b6040516105ee9190612f4d565b60405180910390f35b610611600480360381019061060c9190612a12565b6118b2565b005b61061b611b34565b6040516106289190612f4d565b60405180910390f35b610639611b47565b6040516106469190613165565b60405180910390f35b610657611b4d565b6040516106649190612e79565b60405180910390f35b610675611b73565b005b610691600480360381019061068c91906129c0565b611c0c565b60405161069e9190613165565b60405180910390f35b6106c160048036038101906106bc91906129c0565b611d3c565b005b6106dd60048036038101906106d891906129c0565b611e34565b005b6106e7612346565b6040516106f49190612f68565b60405180910390f35b61070561236c565b6040516107129190612f68565b60405180910390f35b610723612392565b73ffffffffffffffffffffffffffffffffffffffff166107416114cf565b73ffffffffffffffffffffffffffffffffffffffff1614610797576040517f08c379a000000000000000000000000000000000000000000000000000000000815260040161078e90613085565b60405180910390fd5b6001600c60166101000a81548160ff021916908315150217905550565b6107bc612392565b73ffffffffffffffffffffffffffffffffffffffff166107da6114cf565b73ffffffffffffffffffffffffffffffffffffffff1614610830576040517f08c379a000000000000000000000000000000000000000000000000000000000815260040161082790613085565b60405180910390fd5b6001600c60156101000a81548160ff021916908315150217905550565b610855612392565b73ffffffffffffffffffffffffffffffffffffffff166108736114cf565b73ffffffffffffffffffffffffffffffffffffffff16146108c9576040517f08c379a00000000000000000000000000000000000000000000000000000000081526004016108c090613085565b60405180910390fd5b6000600c60186101000a81548160ff021916908315150217905550565b6108ee612392565b73ffffffffffffffffffffffffffffffffffffffff1661090c6114cf565b73ffffffffffffffffffffffffffffffffffffffff1614610962576040517f08c379a000000000000000000000000000000000000000000000000000000000815260040161095990613085565b60405180910390fd5b6000600c60156101000a81548160ff021916908315150217905550565b60075481565b61098d612392565b73ffffffffffffffffffffffffffffffffffffffff166109ab6114cf565b73ffffffffffffffffffffffffffffffffffffffff1614610a01576040517f08c379a00000000000000000000000000000000000000000000000000000000081526004016109f890613085565b60405180910390fd5b6001600c60176101000a81548160ff021916908315150217905550565b610a26612392565b73ffffffffffffffffffffffffffffffffffffffff16610a446114cf565b73ffffffffffffffffffffffffffffffffffffffff1614610a9a576040517f08c379a0000000000000000000000000000000000000000000000000000000008152600401610a9190613085565b60405180910390fd5b8060058190555050565b6000610aae612392565b73ffffffffffffffffffffffffffffffffffffffff16610acc6114cf565b73ffffffffffffffffffffffffffffffffffffffff1614610b22576040517f08c379a0000000000000000000000000000000000000000000000000000000008152600401610b1990613085565b60405180910390fd5b600b60009054906101000a900473ffffffffffffffffffffffffffffffffffffffff1673ffffffffffffffffffffffffffffffffffffffff1663f887d019836040518263ffffffff1660e01b8152600401610b7d9190612e79565b60206040518083038186803b158015610b9557600080fd5b505afa158015610ba9573d6000803e3d6000fd5b505050506040513d601f19601f82011682018060405250810190610bcd9190612ae1565b9050919050565b60055481565b610be2612392565b73ffffffffffffffffffffffffffffffffffffffff16610c006114cf565b73ffffffffffffffffffffffffffffffffffffffff1614610c56576040517f08c379a0000000000000000000000000000000000000000000000000000000008152600401610c4d90613085565b60405180910390fd5b8060048190555050565b610c68612392565b73ffffffffffffffffffffffffffffffffffffffff16610c866114cf565b73ffffffffffffffffffffffffffffffffffffffff1614610cdc576040517f08c379a0000000000000000000000000000000000000000000000000000000008152600401610cd390613085565b60405180910390fd5b6001600c60186101000a81548160ff021916908315150217905550565b610d01612392565b73ffffffffffffffffffffffffffffffffffffffff16610d1f6114cf565b73ffffffffffffffffffffffffffffffffffffffff1614610d75576040517f08c379a0000000000000000000000000000000000000000000000000000000008152600401610d6c90613085565b60405180910390fd5b6000600260009054906101000a900473ffffffffffffffffffffffffffffffffffffffff1673ffffffffffffffffffffffffffffffffffffffff166370a08231306040518263ffffffff1660e01b8152600401610dd29190612e79565b60206040518083038186803b158015610dea57600080fd5b505afa158015610dfe573d6000803e3d6000fd5b505050506040513d601f19601f82011682018060405250810190610e229190612ae1565b9050610e718282600260009054906101000a900473ffffffffffffffffffffffffffffffffffffffff1673ffffffffffffffffffffffffffffffffffffffff1661239a9092919063ffffffff16565b8173ffffffffffffffffffffffffffffffffffffffff16ff5b60008073ffffffffffffffffffffffffffffffffffffffff168273ffffffffffffffffffffffffffffffffffffffff161415610efb576040517f08c379a0000000000000000000000000000000000000000000000000000000008152600401610ef290613145565b60405180910390fd5b600c60009054906101000a900473ffffffffffffffffffffffffffffffffffffffff1673ffffffffffffffffffffffffffffffffffffffff1663a7521055836040518263ffffffff1660e01b8152600401610f569190612e79565b60206040518083038186803b158015610f6e57600080fd5b505afa158015610f82573d6000803e3d6000fd5b505050506040513d601f19601f82011682018060405250810190610fa69190612a8f565b9050919050565b6060600c60009054906101000a900473ffffffffffffffffffffffffffffffffffffffff1673ffffffffffffffffffffffffffffffffffffffff16634f190658336040518263ffffffff1660e01b815260040161100a9190612e79565b60006040518083038186803b15801561102257600080fd5b505afa158015611036573d6000803e3d6000fd5b505050506040513d6000823e3d601f19601f8201168201806040525081019061105f9190612a4e565b905090565b61106c612392565b73ffffffffffffffffffffffffffffffffffffffff1661108a6114cf565b73ffffffffffffffffffffffffffffffffffffffff16146110e0576040517f08c379a00000000000000000000000000000000000000000000000000000000081526004016110d790613085565b60405180910390fd5b6000600c60166101000a81548160ff021916908315150217905550565b600c60179054906101000a900460ff1681565b611118612392565b73ffffffffffffffffffffffffffffffffffffffff166111366114cf565b73ffffffffffffffffffffffffffffffffffffffff161461118c576040517f08c379a000000000000000000000000000000000000000000000000000000000815260040161118390613085565b60405180910390fd5b6111966000612420565b565b6111a0612392565b73ffffffffffffffffffffffffffffffffffffffff166111be6114cf565b73ffffffffffffffffffffffffffffffffffffffff1614611214576040517f08c379a000000000000000000000000000000000000000000000000000000000815260040161120b90613085565b60405180910390fd5b8060078190555050565b600080600b60009054906101000a900473ffffffffffffffffffffffffffffffffffffffff1673ffffffffffffffffffffffffffffffffffffffff1663f887d019846040518263ffffffff1660e01b815260040161127c9190612e79565b60206040518083038186803b15801561129457600080fd5b505afa1580156112a8573d6000803e3d6000fd5b505050506040513d601f19601f820116820180604052508101906112cc9190612ae1565b905060006012600a6112de91906132e5565b6005546112eb9190613403565b90508082101592505050919050565b600c60189054906101000a900460ff1681565b611315612392565b73ffffffffffffffffffffffffffffffffffffffff166113336114cf565b73ffffffffffffffffffffffffffffffffffffffff1614611389576040517f08c379a000000000000000000000000000000000000000000000000000000000815260040161138090613085565b60405180910390fd5b6001600c60146101000a81548160ff021916908315150217905550565b60045481565b60008073ffffffffffffffffffffffffffffffffffffffff168273ffffffffffffffffffffffffffffffffffffffff16141561141d576040517f08c379a000000000000000000000000000000000000000000000000000000000815260040161141490613145565b60405180910390fd5b600c60009054906101000a900473ffffffffffffffffffffffffffffffffffffffff1673ffffffffffffffffffffffffffffffffffffffff1663d5b8a12e836040518263ffffffff1660e01b81526004016114789190612e79565b60206040518083038186803b15801561149057600080fd5b505afa1580156114a4573d6000803e3d6000fd5b505050506040513d601f19601f820116820180604052508101906114c89190612a8f565b9050919050565b60008060009054906101000a900473ffffffffffffffffffffffffffffffffffffffff16905090565b600860009054906101000a900473ffffffffffffffffffffffffffffffffffffffff1681565b611526612392565b73ffffffffffffffffffffffffffffffffffffffff166115446114cf565b73ffffffffffffffffffffffffffffffffffffffff161461159a576040517f08c379a000000000000000000000000000000000000000000000000000000000815260040161159190613085565b60405180910390fd5b8060068190555050565b60016020528060005260406000206000915090505481565b600c60169054906101000a900460ff1681565b600360009054906101000a900473ffffffffffffffffffffffffffffffffffffffff1681565b60606115ff612392565b73ffffffffffffffffffffffffffffffffffffffff1661161d6114cf565b73ffffffffffffffffffffffffffffffffffffffff1614611673576040517f08c379a000000000000000000000000000000000000000000000000000000000815260040161166a90613085565b60405180910390fd5b600c60009054906101000a900473ffffffffffffffffffffffffffffffffffffffff1673ffffffffffffffffffffffffffffffffffffffff16634f190658836040518263ffffffff1660e01b81526004016116ce9190612e79565b60006040518083038186803b1580156116e657600080fd5b505afa1580156116fa573d6000803e3d6000fd5b505050506040513d6000823e3d601f19601f820116820180604052508101906117239190612a4e565b9050919050565b611732612392565b73ffffffffffffffffffffffffffffffffffffffff166117506114cf565b73ffffffffffffffffffffffffffffffffffffffff16146117a6576040517f08c379a000000000000000000000000000000000000000000000000000000000815260040161179d90613085565b60405180910390fd5b6000600c60176101000a81548160ff021916908315150217905550565b600080600960009054906101000a900473ffffffffffffffffffffffffffffffffffffffff1673ffffffffffffffffffffffffffffffffffffffff166370a08231846040518263ffffffff1660e01b81526004016118219190612e79565b60206040518083038186803b15801561183957600080fd5b505afa15801561184d573d6000803e3d6000fd5b505050506040513d601f19601f820116820180604052508101906118719190612ae1565b905060006012600a61188391906132e5565b6004546118909190613403565b90508082101592505050919050565b600c60159054906101000a900460ff1681565b6118ba612392565b73ffffffffffffffffffffffffffffffffffffffff166118d86114cf565b73ffffffffffffffffffffffffffffffffffffffff161461192e576040517f08c379a000000000000000000000000000000000000000000000000000000000815260040161192590613085565b60405180910390fd5b600073ffffffffffffffffffffffffffffffffffffffff168273ffffffffffffffffffffffffffffffffffffffff16141561199e576040517f08c379a0000000000000000000000000000000000000000000000000000000008152600401611995906130c5565b60405180910390fd5b8173ffffffffffffffffffffffffffffffffffffffff168173ffffffffffffffffffffffffffffffffffffffff161415611a0d576040517f08c379a0000000000000000000000000000000000000000000000000000000008152600401611a04906130a5565b60405180910390fd5b611a16826113ac565b15611a56576040517f08c379a0000000000000000000000000000000000000000000000000000000008152600401611a4d90613105565b60405180910390fd5b611a5f82610e8a565b15611a9f576040517f08c379a0000000000000000000000000000000000000000000000000000000008152600401611a9690613045565b60405180910390fd5b600c60009054906101000a900473ffffffffffffffffffffffffffffffffffffffff1673ffffffffffffffffffffffffffffffffffffffff1663769751ee8383306040518463ffffffff1660e01b8152600401611afe93929190612e94565b600060405180830381600087803b158015611b1857600080fd5b505af1158015611b2c573d6000803e3d6000fd5b505050505050565b600c60149054906101000a900460ff1681565b60065481565b600a60009054906101000a900473ffffffffffffffffffffffffffffffffffffffff1681565b611b7b612392565b73ffffffffffffffffffffffffffffffffffffffff16611b996114cf565b73ffffffffffffffffffffffffffffffffffffffff1614611bef576040517f08c379a0000000000000000000000000000000000000000000000000000000008152600401611be690613085565b60405180910390fd5b6000600c60146101000a81548160ff021916908315150217905550565b6000611c16612392565b73ffffffffffffffffffffffffffffffffffffffff16611c346114cf565b73ffffffffffffffffffffffffffffffffffffffff1614611c8a576040517f08c379a0000000000000000000000000000000000000000000000000000000008152600401611c8190613085565b60405180910390fd5b600960009054906101000a900473ffffffffffffffffffffffffffffffffffffffff1673ffffffffffffffffffffffffffffffffffffffff166370a08231836040518263ffffffff1660e01b8152600401611ce59190612e79565b60206040518083038186803b158015611cfd57600080fd5b505afa158015611d11573d6000803e3d6000fd5b505050506040513d601f19601f82011682018060405250810190611d359190612ae1565b9050919050565b611d44612392565b73ffffffffffffffffffffffffffffffffffffffff16611d626114cf565b73ffffffffffffffffffffffffffffffffffffffff1614611db8576040517f08c379a0000000000000000000000000000000000000000000000000000000008152600401611daf90613085565b60405180910390fd5b600073ffffffffffffffffffffffffffffffffffffffff168173ffffffffffffffffffffffffffffffffffffffff161415611e28576040517f08c379a0000000000000000000000000000000000000000000000000000000008152600401611e1f90612fe5565b60405180910390fd5b611e3181612420565b50565b6000339050600073ffffffffffffffffffffffffffffffffffffffff168273ffffffffffffffffffffffffffffffffffffffff161415611ea9576040517f08c379a0000000000000000000000000000000000000000000000000000000008152600401611ea0906130c5565b60405180910390fd5b8073ffffffffffffffffffffffffffffffffffffffff168273ffffffffffffffffffffffffffffffffffffffff161415611f18576040517f08c379a0000000000000000000000000000000000000000000000000000000008152600401611f0f906130a5565b60405180910390fd5b611f21816113ac565b15611f61576040517f08c379a0000000000000000000000000000000000000000000000000000000008152600401611f5890613105565b60405180910390fd5b611f6a81610e8a565b15611faa576040517f08c379a0000000000000000000000000000000000000000000000000000000008152600401611fa190613045565b60405180910390fd5b600c60149054906101000a900460ff161561200857611fc882610e8a565b612007576040517f08c379a0000000000000000000000000000000000000000000000000000000008152600401611ffe90613025565b60405180910390fd5b5b600c60159054906101000a900460ff161561207a57612026826117c3565b8061203657506120358261121e565b5b612075576040517f08c379a000000000000000000000000000000000000000000000000000000000815260040161206c90612fc5565b60405180910390fd5b612137565b600c60169054906101000a900460ff16156120d857612098826117c3565b6120d7576040517f08c379a00000000000000000000000000000000000000000000000000000000081526004016120ce90613065565b60405180910390fd5b5b600c60179054906101000a900460ff1615612136576120f68261121e565b612135576040517f08c379a000000000000000000000000000000000000000000000000000000000815260040161212c90612fa5565b60405180910390fd5b5b5b600c60009054906101000a900473ffffffffffffffffffffffffffffffffffffffff1673ffffffffffffffffffffffffffffffffffffffff1663769751ee8284306040518463ffffffff1660e01b815260040161219693929190612e94565b600060405180830381600087803b1580156121b057600080fd5b505af11580156121c4573d6000803e3d6000fd5b5050505060006121d26124e4565b905061222681600160008573ffffffffffffffffffffffffffffffffffffffff1673ffffffffffffffffffffffffffffffffffffffff1681526020019081526020016000205461255b90919063ffffffff16565b600160008473ffffffffffffffffffffffffffffffffffffffff1673ffffffffffffffffffffffffffffffffffffffff168152602001908152602001600020819055506000811115612341576122e3600360009054906101000a900473ffffffffffffffffffffffffffffffffffffffff168383600260009054906101000a900473ffffffffffffffffffffffffffffffffffffffff1673ffffffffffffffffffffffffffffffffffffffff16612571909392919063ffffffff16565b7ff5537ede4763d97b5cf86d9eb6ae77ccd8560b8b2d4bd4503537c6b2996a7a9b600360009054906101000a900473ffffffffffffffffffffffffffffffffffffffff16838360405161233893929190612ecb565b60405180910390a15b505050565b600960009054906101000a900473ffffffffffffffffffffffffffffffffffffffff1681565b600260009054906101000a900473ffffffffffffffffffffffffffffffffffffffff1681565b600033905090565b61241b8363a9059cbb60e01b84846040516024016123b9929190612f02565b604051602081830303815290604052907bffffffffffffffffffffffffffffffffffffffffffffffffffffffff19166020820180517bffffffffffffffffffffffffffffffffffffffffffffffffffffffff83818316178352505050506125fa565b505050565b60008060009054906101000a900473ffffffffffffffffffffffffffffffffffffffff169050816000806101000a81548173ffffffffffffffffffffffffffffffffffffffff021916908373ffffffffffffffffffffffffffffffffffffffff1602179055508173ffffffffffffffffffffffffffffffffffffffff168173ffffffffffffffffffffffffffffffffffffffff167f8be0079c531659141344cd1fd0a4f28419497f9722a3daafe3b4186f6b6457e060405160405180910390a35050565b6000600c60189054906101000a900460ff166125035760009050612558565b60006125106007546126c1565b905060008111612524576006549050612535565b6007548111156125345760075490505b5b60006012600a61254591906132e5565b826125509190613403565b905080925050505b90565b60008183612569919061323c565b905092915050565b6125f4846323b872dd60e01b85858560405160240161259293929190612ecb565b604051602081830303815290604052907bffffffffffffffffffffffffffffffffffffffffffffffffffffffff19166020820180517bffffffffffffffffffffffffffffffffffffffffffffffffffffffff83818316178352505050506125fa565b50505050565b600061265c826040518060400160405280602081526020017f5361666545524332303a206c6f772d6c6576656c2063616c6c206661696c65648152508573ffffffffffffffffffffffffffffffffffffffff166127069092919063ffffffff16565b90506000815111156126bc578080602001905181019061267c9190612a8f565b6126bb576040517f08c379a00000000000000000000000000000000000000000000000000000000081526004016126b290613125565b60405180910390fd5b5b505050565b60008044426040516020016126d7929190612e4d565b6040516020818303038152906040528051906020012060001c905082816126fe9190613549565b915050919050565b6060612715848460008561271e565b90509392505050565b606082471015612763576040517f08c379a000000000000000000000000000000000000000000000000000000000815260040161275a90613005565b60405180910390fd5b61276c85612832565b6127ab576040517f08c379a00000000000000000000000000000000000000000000000000000000081526004016127a2906130e5565b60405180910390fd5b6000808673ffffffffffffffffffffffffffffffffffffffff1685876040516127d49190612e36565b60006040518083038185875af1925050503d8060008114612811576040519150601f19603f3d011682016040523d82523d6000602084013e612816565b606091505b5091509150612826828286612845565b92505050949350505050565b600080823b905060008111915050919050565b60608315612855578290506128a5565b6000835111156128685782518084602001fd5b816040517f08c379a000000000000000000000000000000000000000000000000000000000815260040161289c9190612f83565b60405180910390fd5b9392505050565b60006128bf6128ba846131a5565b613180565b905080838252602082019050828560208602820111156128de57600080fd5b60005b8581101561290e57816128f4888261292d565b8452602084019350602083019250506001810190506128e1565b5050509392505050565b60008135905061292781613a2b565b92915050565b60008151905061293c81613a2b565b92915050565b60008135905061295181613a42565b92915050565b600082601f83011261296857600080fd5b81516129788482602086016128ac565b91505092915050565b60008151905061299081613a59565b92915050565b6000813590506129a581613a70565b92915050565b6000815190506129ba81613a70565b92915050565b6000602082840312156129d257600080fd5b60006129e084828501612918565b91505092915050565b6000602082840312156129fb57600080fd5b6000612a0984828501612942565b91505092915050565b60008060408385031215612a2557600080fd5b6000612a3385828601612918565b9250506020612a4485828601612918565b9150509250929050565b600060208284031215612a6057600080fd5b600082015167ffffffffffffffff811115612a7a57600080fd5b612a8684828501612957565b91505092915050565b600060208284031215612aa157600080fd5b6000612aaf84828501612981565b91505092915050565b600060208284031215612aca57600080fd5b6000612ad884828501612996565b91505092915050565b600060208284031215612af357600080fd5b6000612b01848285016129ab565b91505092915050565b6000612b168383612b22565b60208301905092915050565b612b2b8161345d565b82525050565b612b3a8161345d565b82525050565b6000612b4b826131e1565b612b55818561320f565b9350612b60836131d1565b8060005b83811015612b91578151612b788882612b0a565b9750612b8383613202565b925050600181019050612b64565b5085935050505092915050565b612ba781613481565b82525050565b6000612bb8826131ec565b612bc28185613220565b9350612bd28185602086016134db565b80840191505092915050565b612be7816134b7565b82525050565b6000612bf8826131f7565b612c02818561322b565b9350612c128185602086016134db565b612c1b81613607565b840191505092915050565b6000612c3360348361322b565b9150612c3e82613625565b604082019050919050565b6000612c56602f8361322b565b9150612c6182613674565b604082019050919050565b6000612c7960268361322b565b9150612c84826136c3565b604082019050919050565b6000612c9c60268361322b565b9150612ca782613712565b604082019050919050565b6000612cbf603b8361322b565b9150612cca82613761565b604082019050919050565b6000612ce2603b8361322b565b9150612ced826137b0565b604082019050919050565b6000612d0560378361322b565b9150612d10826137ff565b604082019050919050565b6000612d2860208361322b565b9150612d338261384e565b602082019050919050565b6000612d4b602f8361322b565b9150612d5682613877565b604082019050919050565b6000612d6e60308361322b565b9150612d79826138c6565b604082019050919050565b6000612d91601d8361322b565b9150612d9c82613915565b602082019050919050565b6000612db4603a8361322b565b9150612dbf8261393e565b604082019050919050565b6000612dd7602a8361322b565b9150612de28261398d565b604082019050919050565b6000612dfa60288361322b565b9150612e05826139dc565b604082019050919050565b612e19816134ad565b82525050565b612e30612e2b826134ad565b61353f565b82525050565b6000612e428284612bad565b915081905092915050565b6000612e598285612e1f565b602082019150612e698284612e1f565b6020820191508190509392505050565b6000602082019050612e8e6000830184612b31565b92915050565b6000606082019050612ea96000830186612b31565b612eb66020830185612b31565b612ec36040830184612b31565b949350505050565b6000606082019050612ee06000830186612b31565b612eed6020830185612b31565b612efa6040830184612e10565b949350505050565b6000604082019050612f176000830185612b31565b612f246020830184612e10565b9392505050565b60006020820190508181036000830152612f458184612b40565b905092915050565b6000602082019050612f626000830184612b9e565b92915050565b6000602082019050612f7d6000830184612bde565b92915050565b60006020820190508181036000830152612f9d8184612bed565b905092915050565b60006020820190508181036000830152612fbe81612c26565b9050919050565b60006020820190508181036000830152612fde81612c49565b9050919050565b60006020820190508181036000830152612ffe81612c6c565b9050919050565b6000602082019050818103600083015261301e81612c8f565b9050919050565b6000602082019050818103600083015261303e81612cb2565b9050919050565b6000602082019050818103600083015261305e81612cd5565b9050919050565b6000602082019050818103600083015261307e81612cf8565b9050919050565b6000602082019050818103600083015261309e81612d1b565b9050919050565b600060208201905081810360008301526130be81612d3e565b9050919050565b600060208201905081810360008301526130de81612d61565b9050919050565b600060208201905081810360008301526130fe81612d84565b9050919050565b6000602082019050818103600083015261311e81612da7565b9050919050565b6000602082019050818103600083015261313e81612dca565b9050919050565b6000602082019050818103600083015261315e81612ded565b9050919050565b600060208201905061317a6000830184612e10565b92915050565b600061318a61319b565b9050613196828261350e565b919050565b6000604051905090565b600067ffffffffffffffff8211156131c0576131bf6135d8565b5b602082029050602081019050919050565b6000819050602082019050919050565b600081519050919050565b600081519050919050565b600081519050919050565b6000602082019050919050565b600082825260208201905092915050565b600081905092915050565b600082825260208201905092915050565b6000613247826134ad565b9150613252836134ad565b9250827fffffffffffffffffffffffffffffffffffffffffffffffffffffffffffffffff038211156132875761328661357a565b5b828201905092915050565b6000808291508390505b60018511156132dc578086048111156132b8576132b761357a565b5b60018516156132c75780820291505b80810290506132d585613618565b945061329c565b94509492505050565b60006132f0826134ad565b91506132fb836134ad565b92506133287fffffffffffffffffffffffffffffffffffffffffffffffffffffffffffffffff8484613330565b905092915050565b60008261334057600190506133fc565b8161334e57600090506133fc565b8160018114613364576002811461336e5761339d565b60019150506133fc565b60ff8411156133805761337f61357a565b5b8360020a9150848211156133975761339661357a565b5b506133fc565b5060208310610133831016604e8410600b84101617156133d25782820a9050838111156133cd576133cc61357a565b5b6133fc565b6133df8484846001613292565b925090508184048111156133f6576133f561357a565b5b81810290505b9392505050565b600061340e826134ad565b9150613419836134ad565b9250817fffffffffffffffffffffffffffffffffffffffffffffffffffffffffffffffff04831182151516156134525761345161357a565b5b828202905092915050565b60006134688261348d565b9050919050565b600061347a8261348d565b9050919050565b60008115159050919050565b600073ffffffffffffffffffffffffffffffffffffffff82169050919050565b6000819050919050565b60006134c2826134c9565b9050919050565b60006134d48261348d565b9050919050565b60005b838110156134f95780820151818401526020810190506134de565b83811115613508576000848401525b50505050565b61351782613607565b810181811067ffffffffffffffff82111715613536576135356135d8565b5b80604052505050565b6000819050919050565b6000613554826134ad565b915061355f836134ad565b92508261356f5761356e6135a9565b5b828206905092915050565b7f4e487b7100000000000000000000000000000000000000000000000000000000600052601160045260246000fd5b7f4e487b7100000000000000000000000000000000000000000000000000000000600052601260045260246000fd5b7f4e487b7100000000000000000000000000000000000000000000000000000000600052604160045260246000fd5b6000601f19601f8301169050919050565b60008160011c9050919050565b7f41697264726f703a205374616b6520616d6f756e7420646f6573206e6f74206d60008201527f6565742074686520726571756972656d656e7473000000000000000000000000602082015250565b7f41697264726f703a204163636f756e7420646f6573206e6f74206d656574207460008201527f686520726571756972656d656e74730000000000000000000000000000000000602082015250565b7f4f776e61626c653a206e6577206f776e657220697320746865207a65726f206160008201527f6464726573730000000000000000000000000000000000000000000000000000602082015250565b7f416464726573733a20696e73756666696369656e742062616c616e636520666f60008201527f722063616c6c0000000000000000000000000000000000000000000000000000602082015250565b7f41697264726f703a2054686520696e7669746572206163636f756e742069732060008201527f6e6f7420696e207468652072656c6174696f6e736869704c6973740000000000602082015250565b7f41697264726f703a2054686520696e7669746565206163636f756e742069732060008201527f6e6f7420696e207468652072656c6174696f6e736869704c6973740000000000602082015250565b7f41697264726f703a204163636f756e742062616c616e636520646f6573206e6f60008201527f74206d6565742074686520726571756972656d656e7473000000000000000000602082015250565b7f4f776e61626c653a2063616c6c6572206973206e6f7420746865206f776e6572600082015250565b7f41697264726f703a2054686520696e7669746572206163636f756e742063616e60008201527f6e6f7420626520796f757273656c660000000000000000000000000000000000602082015250565b7f41697264726f703a2054686520696e7669746572206163636f756e742069732060008201527f746865207a65726f206164647265737300000000000000000000000000000000602082015250565b7f416464726573733a2063616c6c20746f206e6f6e2d636f6e7472616374000000600082015250565b7f41697264726f703a2054686520696e7669746565206163636f756e742069732060008201527f616c7265616479206f6e207468652061697264726f704c697374000000000000602082015250565b7f5361666545524332303a204552433230206f7065726174696f6e20646964206e60008201527f6f74207375636365656400000000000000000000000000000000000000000000602082015250565b7f41697264726f703a20546865206163636f756e7420697320746865207a65726f60008201527f2061646472657373000000000000000000000000000000000000000000000000602082015250565b613a348161345d565b8114613a3f57600080fd5b50565b613a4b8161346f565b8114613a5657600080fd5b50565b613a6281613481565b8114613a6d57600080fd5b50565b613a79816134ad565b8114613a8457600080fd5b5056fea2646970667358221220331b3868f30dc778d33e3827a5f035c1ae921b2e1136612c91d09f9bbb70f46864736f6c63430008040033",
  "immutableReferences": {},
  "source": "// SPDX-License-Identifier: MIT\r\npragma solidity ^0.8.0;\r\n\r\nimport \"@openzeppelin/contracts/access/Ownable.sol\";\r\nimport \"@openzeppelin/contracts/utils/math/SafeMath.sol\";\r\nimport \"@openzeppelin/contracts/token/ERC20/utils/SafeERC20.sol\";\r\n\r\ninterface CrowdsaleForRetail {\r\n    function joined(address account) external view returns (uint256);\r\n}\r\n\r\ninterface Relationship {\r\n    function isInviter(address account) external view returns (bool);\r\n    function isInvitee(address account) external view returns (bool);\r\n    function getMemberListByInviter(address account) external view returns (address[] memory);\r\n    function addToInviteeList(address inviteeAccount, address inviterAccount, address sourceAddress) external;\r\n}\r\n\r\ncontract AirdropToRelationship is Ownable {\r\n    using SafeMath for uint256;\r\n    using SafeERC20 for IERC20;\r\n\r\n    event transferToken(address wallet, address account, uint256 amount);\r\n\r\n    // address airdrop amount\r\n    mapping(address => uint256) public airdropAmount;\r\n\r\n    IERC20 public token;\r\n    address public tokenWallet;\r\n    uint256 public minDATBalanceAmount;\r\n    uint256 public minDATStakeAmount;\r\n    uint256 public airdropMinAmount;\r\n    uint256 public airdropMaxAmount;\r\n    address public crowdsaleForRetailAddress;\r\n    IERC20 public crowdsaleToken;\r\n    address public relationshipAddress;\r\n\r\n    CrowdsaleForRetail private _crowdsaleForRetailContract;\r\n    Relationship private _relationshipContract;\r\n\r\n    bool public checkRelationshipListSwitch = false;\r\n    bool public checkDATBalanceOrDATStakeSwitch = true;\r\n    bool public checkDATBalanceSwitch = false;\r\n    bool public checkDATStakeSwitch = false;\r\n    bool public checkTransferSwitch = true;\r\n\r\n    constructor(\r\n        IERC20 _token,\r\n        address _tokenWallet,\r\n        uint256 _minDATBalanceAmount,\r\n        uint256 _minDATStakeAmount,\r\n        uint256 _airdropMinAmount,\r\n        uint256 _airdropMaxAmount,\r\n        address _crowdsaleForRetailAddress,\r\n        IERC20 _crowdsaleToken,\r\n        address _relationshipAddress\r\n    ) Ownable() {\r\n        require(address(_token) != address(0), \"Airdrop: The token is the zero address\");\r\n        require(_tokenWallet != address(0), \"Airdrop: The token wallet is the zero address\");\r\n        require(_airdropMinAmount < _airdropMaxAmount, \"Airdrop: The minimum airdrop amount must be less than the maximum airdrop amount\");\r\n\r\n        token = _token;\r\n        tokenWallet = _tokenWallet;\r\n        minDATBalanceAmount = _minDATBalanceAmount;\r\n        minDATStakeAmount = _minDATStakeAmount;\r\n        airdropMinAmount = _airdropMinAmount;\r\n        airdropMaxAmount = _airdropMaxAmount;\r\n        crowdsaleForRetailAddress = _crowdsaleForRetailAddress;\r\n        crowdsaleToken = _crowdsaleToken;\r\n        relationshipAddress = _relationshipAddress;\r\n\r\n        _crowdsaleForRetailContract = CrowdsaleForRetail(_crowdsaleForRetailAddress);\r\n        _relationshipContract = Relationship(_relationshipAddress);\r\n    }\r\n\r\n    // set minDATBalanceAmount\r\n    function setMinDATBalanceAmount(uint256 amount) public onlyOwner {\r\n        minDATBalanceAmount = amount;\r\n    }\r\n    // set minDATStakeAmount\r\n    function setMinDATStakeAmount(uint256 amount) public onlyOwner {\r\n        minDATStakeAmount = amount;\r\n    }\r\n    // set airdropMinAmount\r\n    function setAirdropMinAmount(uint256 amount) public onlyOwner {\r\n        airdropMinAmount = amount;\r\n    }\r\n    // set airdropMaxAmount\r\n    function setAirdropMaxAmount(uint256 amount) public onlyOwner {\r\n        airdropMaxAmount = amount;\r\n    }\r\n    // open and close checkRelationshipListSwitch\r\n    function openCheckRelationshipListSwitch() public onlyOwner {\r\n        checkRelationshipListSwitch = true;\r\n    }\r\n    function closeCheckRelationshipListSwitch() public onlyOwner {\r\n        checkRelationshipListSwitch = false;\r\n    }\r\n    // open and close checkDATBalanceOrDATStakeSwitch\r\n    function openCheckDATBalanceOrDATStakeSwitch() public onlyOwner {\r\n        checkDATBalanceOrDATStakeSwitch = true;\r\n    }\r\n    function closeCheckDATBalanceOrDATStakeSwitch() public onlyOwner {\r\n        checkDATBalanceOrDATStakeSwitch = false;\r\n    }\r\n    // open and close checkDATBalanceSwitch\r\n    function openCheckDATBalanceSwitch() public onlyOwner {\r\n        checkDATBalanceSwitch = true;\r\n    }\r\n    function closeCheckDATBalanceSwitch() public onlyOwner {\r\n        checkDATBalanceSwitch = false;\r\n    }\r\n    // open and close checkDATStakeSwitch\r\n    function openCheckDATStakeSwitch() public onlyOwner {\r\n        checkDATStakeSwitch = true;\r\n    }\r\n    function closeCheckDATStakeSwitch() public onlyOwner {\r\n        checkDATStakeSwitch = false;\r\n    }\r\n    // open and close checkTransferSwitch\r\n    function openCheckTransferSwitch() public onlyOwner {\r\n        checkTransferSwitch = true;\r\n    }\r\n    function closeCheckTransferSwitch() public onlyOwner {\r\n        checkTransferSwitch = false;\r\n    }\r\n\r\n    /**\r\n     * @dev get DAT balance amount of account.\r\n     * @param account the address\r\n     * @return uint256\r\n     */\r\n    function getDatBalance(address account) public onlyOwner view returns (uint256) {\r\n        return crowdsaleToken.balanceOf(account);\r\n    }\r\n\r\n    /**\r\n     * @dev get DAT stake amount of account.\r\n     * @param account the address\r\n     * @return uint256\r\n     */\r\n    function getDatStake(address account) public onlyOwner view returns (uint256) {\r\n        return _crowdsaleForRetailContract.joined(account);\r\n    }\r\n\r\n    /**\r\n     * @dev get member list from the relationshipList by owner\r\n     */\r\n    function getMemberListByOwner(address account) public onlyOwner view returns (address[] memory) {\r\n        return _relationshipContract.getMemberListByInviter(account);\r\n    }\r\n\r\n    /**\r\n     * @dev get member list from the relationshipList by owner\r\n     */\r\n    function getMemberList() public view returns (address[] memory) {\r\n        return _relationshipContract.getMemberListByInviter(msg.sender);\r\n    }\r\n\r\n    /**\r\n     * @dev Check if an account has this relationshipList.\r\n     * @param account the address of relationshipList\r\n     * @return bool\r\n     */\r\n    function hasRelationshipList(address account) public view returns (bool) {\r\n        require(address(account) != address(0), \"Airdrop: The account is the zero address\");\r\n        return _relationshipContract.isInviter(account);\r\n    }\r\n\r\n    /**\r\n     * @dev Check if an account has this airdroplist.\r\n     * @param account the address\r\n     * @return bool\r\n     */\r\n    function hasAirdropList(address account) public view returns (bool) {\r\n        require(address(account) != address(0), \"Airdrop: The account is the zero address\");\r\n        return _relationshipContract.isInvitee(account);\r\n    }\r\n\r\n    /**\r\n     * @dev Check if an account DAT balance.\r\n     * @param account the address\r\n     * @return bool\r\n     */\r\n    function checkDatBalance(address account) public view returns (bool) {\r\n        uint256 accountBalance = crowdsaleToken.balanceOf(account);\r\n        uint256 formatMinDATBalanceAmount = minDATBalanceAmount * (10**uint256(18));\r\n        return accountBalance >= formatMinDATBalanceAmount;\r\n    }\r\n\r\n    /**\r\n     * @dev Check if an account DAT balance.\r\n     * @param account the address\r\n     * @return bool\r\n     */\r\n    function checkDatStake(address account) public view returns (bool) {\r\n        uint256 accountStakeAmount = _crowdsaleForRetailContract.joined(account);\r\n        uint256 formatMinDATStakeAmount = minDATStakeAmount * (10**uint256(18));\r\n        return accountStakeAmount >= formatMinDATStakeAmount;\r\n    }\r\n\r\n    /**\r\n     * @dev add single account to the relationshipList by owner\r\n     */\r\n    function addToRelationshipList(address inviteeAccount, address inviterAccount) public onlyOwner {\r\n        require(inviteeAccount != address(0), \"Airdrop: The inviter account is the zero address\");\r\n        require(inviterAccount != inviteeAccount, \"Airdrop: The inviter account cannot be yourself\");\r\n        require(!hasAirdropList(inviteeAccount), \"Airdrop: The invitee account is already on the airdropList\");\r\n        require(!hasRelationshipList(inviteeAccount), \"Airdrop: The invitee account is not in the relationshipList\");\r\n        _relationshipContract.addToInviteeList(inviteeAccount, inviterAccount, address(this));\r\n    }\r\n\r\n    /**\r\n     * @dev Receive airdrop\r\n     * @param inviterAccount the account of receive's inviter\r\n     */\r\n    function receiveAirdrop(address inviterAccount) public {\r\n        address currentAccount = msg.sender;\r\n        require(inviterAccount != address(0), \"Airdrop: The inviter account is the zero address\");\r\n        require(inviterAccount != currentAccount, \"Airdrop: The inviter account cannot be yourself\");\r\n        require(!hasAirdropList(currentAccount), \"Airdrop: The invitee account is already on the airdropList\");\r\n        require(!hasRelationshipList(currentAccount), \"Airdrop: The invitee account is not in the relationshipList\");\r\n\r\n        if (checkRelationshipListSwitch) {\r\n            require(hasRelationshipList(inviterAccount), \"Airdrop: The inviter account is not in the relationshipList\");\r\n        }\r\n        if (checkDATBalanceOrDATStakeSwitch) {\r\n            require(checkDatBalance(inviterAccount) || checkDatStake(inviterAccount), \"Airdrop: Account does not meet the requirements\");\r\n        } else {\r\n            if (checkDATBalanceSwitch) {\r\n                require(checkDatBalance(inviterAccount), \"Airdrop: Account balance does not meet the requirements\");\r\n            }\r\n            if (checkDATStakeSwitch) {\r\n                require(checkDatStake(inviterAccount), \"Airdrop: Stake amount does not meet the requirements\");\r\n            }\r\n        }\r\n\r\n        // exec receiveAirdrop\r\n        _relationshipContract.addToInviteeList(currentAccount, inviterAccount, address(this));\r\n\r\n        // random to airdrop amount\r\n        uint256 actualAmount = _getActualAmount();\r\n        airdropAmount[currentAccount] = airdropAmount[currentAccount].add(actualAmount);\r\n        if (actualAmount > 0) {\r\n            // transfer token to receive account\r\n            token.safeTransferFrom(tokenWallet, currentAccount, actualAmount);\r\n            emit transferToken(tokenWallet, currentAccount, actualAmount);\r\n        }\r\n    }\r\n\r\n    /**\r\n     * @dev Get actual amount\r\n     */\r\n    function _getActualAmount() internal view returns(uint256) {\r\n        if (!checkTransferSwitch) {\r\n            return 0;\r\n        }\r\n        // random to airdrop amount\r\n        uint256 randomAmount = _rand(airdropMaxAmount);\r\n        if (randomAmount <= 0) {\r\n            randomAmount = airdropMinAmount;\r\n        } else if (randomAmount > airdropMaxAmount) {\r\n            randomAmount = airdropMaxAmount;\r\n        }\r\n        uint256 actualAmount = randomAmount * (10**uint256(18));\r\n        return actualAmount;\r\n    }\r\n\r\n    /**\r\n     * @dev Generate random numbers\r\n     * @param length Random number range\r\n     */\r\n    function _rand(uint256 length) internal view returns(uint256) {\r\n        uint256 random = uint256(keccak256(abi.encodePacked(block.difficulty, block.timestamp)));\r\n        return random % length;\r\n    }\r\n\r\n    function killSelf(address payable recipientToken) public onlyOwner {\r\n        uint256 contractBalance = token.balanceOf(address(this));\r\n        token.safeTransfer(recipientToken, contractBalance);\r\n\r\n        selfdestruct(recipientToken);\r\n    }\r\n}\r\n",
  "sourcePath": "D:/Workspaces/DaoswapDex/daoswapdex-heco-testnet/core-airdrop/contracts/AirdropToRelationship.sol",
  "compiler": {
    "name": "solc",
    "version": "0.8.4+commit.c7e474f2.Emscripten.clang"
  },
  "schemaVersion": "3.4.1",
  "updatedAt": "2021-08-16T16:32:08.629Z",
  "networkType": "ethereum",
  "devdoc": {
    "kind": "dev",
    "methods": {
      "addToRelationshipList(address,address)": {
        "details": "add single account to the relationshipList by owner"
      },
      "checkDatBalance(address)": {
        "details": "Check if an account DAT balance.",
        "params": {
          "account": "the address"
        },
        "returns": {
          "_0": "bool"
        }
      },
      "checkDatStake(address)": {
        "details": "Check if an account DAT balance.",
        "params": {
          "account": "the address"
        },
        "returns": {
          "_0": "bool"
        }
      },
      "getDatBalance(address)": {
        "details": "get DAT balance amount of account.",
        "params": {
          "account": "the address"
        },
        "returns": {
          "_0": "uint256"
        }
      },
      "getDatStake(address)": {
        "details": "get DAT stake amount of account.",
        "params": {
          "account": "the address"
        },
        "returns": {
          "_0": "uint256"
        }
      },
      "getMemberList()": {
        "details": "get member list from the relationshipList by owner"
      },
      "getMemberListByOwner(address)": {
        "details": "get member list from the relationshipList by owner"
      },
      "hasAirdropList(address)": {
        "details": "Check if an account has this airdroplist.",
        "params": {
          "account": "the address"
        },
        "returns": {
          "_0": "bool"
        }
      },
      "hasRelationshipList(address)": {
        "details": "Check if an account has this relationshipList.",
        "params": {
          "account": "the address of relationshipList"
        },
        "returns": {
          "_0": "bool"
        }
      },
      "owner()": {
        "details": "Returns the address of the current owner."
      },
      "receiveAirdrop(address)": {
        "details": "Receive airdrop",
        "params": {
          "inviterAccount": "the account of receive's inviter"
        }
      },
      "renounceOwnership()": {
        "details": "Leaves the contract without owner. It will not be possible to call `onlyOwner` functions anymore. Can only be called by the current owner. NOTE: Renouncing ownership will leave the contract without an owner, thereby removing any functionality that is only available to the owner."
      },
      "transferOwnership(address)": {
        "details": "Transfers ownership of the contract to a new account (`newOwner`). Can only be called by the current owner."
      }
    },
    "version": 1
  },
  "userdoc": {
    "kind": "user",
    "methods": {},
    "version": 1
  }
}