{
  "contractName": "AirdropForHoldDAO",
  "abi": [
    {
      "inputs": [
        {
          "internalType": "contract IERC20",
          "name": "_token",
          "type": "address"
        },
        {
          "internalType": "address",
          "name": "_tokenWallet",
          "type": "address"
        },
        {
          "internalType": "uint256",
          "name": "_minDAOBalanceAmount",
          "type": "uint256"
        },
        {
          "internalType": "uint256",
          "name": "_minDAOSwappedAmount",
          "type": "uint256"
        },
        {
          "internalType": "uint256",
          "name": "_airdropMinAmount",
          "type": "uint256"
        },
        {
          "internalType": "uint256",
          "name": "_airdropMaxAmount",
          "type": "uint256"
        }
      ],
      "stateMutability": "nonpayable",
      "type": "constructor"
    },
    {
      "anonymous": false,
      "inputs": [
        {
          "indexed": true,
          "internalType": "address",
          "name": "previousOwner",
          "type": "address"
        },
        {
          "indexed": true,
          "internalType": "address",
          "name": "newOwner",
          "type": "address"
        }
      ],
      "name": "OwnershipTransferred",
      "type": "event"
    },
    {
      "anonymous": false,
      "inputs": [
        {
          "indexed": false,
          "internalType": "address",
          "name": "wallet",
          "type": "address"
        },
        {
          "indexed": false,
          "internalType": "address",
          "name": "account",
          "type": "address"
        },
        {
          "indexed": false,
          "internalType": "uint256",
          "name": "amount",
          "type": "uint256"
        }
      ],
      "name": "transferToken",
      "type": "event"
    },
    {
      "inputs": [
        {
          "internalType": "address",
          "name": "",
          "type": "address"
        }
      ],
      "name": "airdropList",
      "outputs": [
        {
          "internalType": "address",
          "name": "token",
          "type": "address"
        },
        {
          "internalType": "uint256",
          "name": "airdropAmount",
          "type": "uint256"
        },
        {
          "internalType": "uint256",
          "name": "swappedAmount",
          "type": "uint256"
        },
        {
          "internalType": "bool",
          "name": "isClaim",
          "type": "bool"
        }
      ],
      "stateMutability": "view",
      "type": "function",
      "constant": true
    },
    {
      "inputs": [],
      "name": "airdropMaxAmount",
      "outputs": [
        {
          "internalType": "uint256",
          "name": "",
          "type": "uint256"
        }
      ],
      "stateMutability": "view",
      "type": "function",
      "constant": true
    },
    {
      "inputs": [],
      "name": "airdropMinAmount",
      "outputs": [
        {
          "internalType": "uint256",
          "name": "",
          "type": "uint256"
        }
      ],
      "stateMutability": "view",
      "type": "function",
      "constant": true
    },
    {
      "inputs": [],
      "name": "checkTransferSwitch",
      "outputs": [
        {
          "internalType": "bool",
          "name": "",
          "type": "bool"
        }
      ],
      "stateMutability": "view",
      "type": "function",
      "constant": true
    },
    {
      "inputs": [],
      "name": "minDAOBalanceAmount",
      "outputs": [
        {
          "internalType": "uint256",
          "name": "",
          "type": "uint256"
        }
      ],
      "stateMutability": "view",
      "type": "function",
      "constant": true
    },
    {
      "inputs": [],
      "name": "minDAOSwappedAmount",
      "outputs": [
        {
          "internalType": "uint256",
          "name": "",
          "type": "uint256"
        }
      ],
      "stateMutability": "view",
      "type": "function",
      "constant": true
    },
    {
      "inputs": [],
      "name": "owner",
      "outputs": [
        {
          "internalType": "address",
          "name": "",
          "type": "address"
        }
      ],
      "stateMutability": "view",
      "type": "function",
      "constant": true
    },
    {
      "inputs": [],
      "name": "renounceOwnership",
      "outputs": [],
      "stateMutability": "nonpayable",
      "type": "function"
    },
    {
      "inputs": [],
      "name": "token",
      "outputs": [
        {
          "internalType": "contract IERC20",
          "name": "",
          "type": "address"
        }
      ],
      "stateMutability": "view",
      "type": "function",
      "constant": true
    },
    {
      "inputs": [],
      "name": "tokenWallet",
      "outputs": [
        {
          "internalType": "address",
          "name": "",
          "type": "address"
        }
      ],
      "stateMutability": "view",
      "type": "function",
      "constant": true
    },
    {
      "inputs": [
        {
          "internalType": "address",
          "name": "newOwner",
          "type": "address"
        }
      ],
      "name": "transferOwnership",
      "outputs": [],
      "stateMutability": "nonpayable",
      "type": "function"
    },
    {
      "inputs": [
        {
          "internalType": "uint256",
          "name": "amount",
          "type": "uint256"
        }
      ],
      "name": "setMinDAOBalanceAmount",
      "outputs": [],
      "stateMutability": "nonpayable",
      "type": "function"
    },
    {
      "inputs": [
        {
          "internalType": "uint256",
          "name": "amount",
          "type": "uint256"
        }
      ],
      "name": "setMinDAOSwappedAmount",
      "outputs": [],
      "stateMutability": "nonpayable",
      "type": "function"
    },
    {
      "inputs": [
        {
          "internalType": "uint256",
          "name": "amount",
          "type": "uint256"
        }
      ],
      "name": "setAirdropMinAmount",
      "outputs": [],
      "stateMutability": "nonpayable",
      "type": "function"
    },
    {
      "inputs": [
        {
          "internalType": "uint256",
          "name": "amount",
          "type": "uint256"
        }
      ],
      "name": "setAirdropMaxAmount",
      "outputs": [],
      "stateMutability": "nonpayable",
      "type": "function"
    },
    {
      "inputs": [],
      "name": "openCheckTransferSwitch",
      "outputs": [],
      "stateMutability": "nonpayable",
      "type": "function"
    },
    {
      "inputs": [],
      "name": "closeCheckTransferSwitch",
      "outputs": [],
      "stateMutability": "nonpayable",
      "type": "function"
    },
    {
      "inputs": [
        {
          "internalType": "address",
          "name": "account",
          "type": "address"
        }
      ],
      "name": "getDAOBalance",
      "outputs": [
        {
          "internalType": "uint256",
          "name": "",
          "type": "uint256"
        }
      ],
      "stateMutability": "view",
      "type": "function",
      "constant": true
    },
    {
      "inputs": [
        {
          "internalType": "address",
          "name": "account",
          "type": "address"
        }
      ],
      "name": "checkDAOBalance",
      "outputs": [
        {
          "internalType": "bool",
          "name": "",
          "type": "bool"
        }
      ],
      "stateMutability": "view",
      "type": "function",
      "constant": true
    },
    {
      "inputs": [
        {
          "internalType": "address",
          "name": "account",
          "type": "address"
        }
      ],
      "name": "checkIsClaim",
      "outputs": [
        {
          "internalType": "bool",
          "name": "",
          "type": "bool"
        }
      ],
      "stateMutability": "view",
      "type": "function",
      "constant": true
    },
    {
      "inputs": [
        {
          "internalType": "uint256",
          "name": "swappedAmount",
          "type": "uint256"
        }
      ],
      "name": "receiveAirdrop",
      "outputs": [],
      "stateMutability": "nonpayable",
      "type": "function"
    },
    {
      "inputs": [
        {
          "internalType": "address payable",
          "name": "recipientToken",
          "type": "address"
        }
      ],
      "name": "killSelf",
      "outputs": [],
      "stateMutability": "nonpayable",
      "type": "function"
    }
  ],
  "bytecode": "0x60806040526001600860006101000a81548160ff0219169083151502179055503480156200002c57600080fd5b5060405162002a0e38038062002a0e833981810160405281019062000052919062000359565b62000072620000666200024860201b60201c565b6200025060201b60201c565b600073ffffffffffffffffffffffffffffffffffffffff168673ffffffffffffffffffffffffffffffffffffffff161415620000e5576040517f08c379a0000000000000000000000000000000000000000000000000000000008152600401620000dc9062000486565b60405180910390fd5b600073ffffffffffffffffffffffffffffffffffffffff168573ffffffffffffffffffffffffffffffffffffffff16141562000158576040517f08c379a00000000000000000000000000000000000000000000000000000000081526004016200014f90620004a8565b60405180910390fd5b808211156200019e576040517f08c379a0000000000000000000000000000000000000000000000000000000008152600401620001959062000464565b60405180910390fd5b85600260006101000a81548173ffffffffffffffffffffffffffffffffffffffff021916908373ffffffffffffffffffffffffffffffffffffffff16021790555084600360006101000a81548173ffffffffffffffffffffffffffffffffffffffff021916908373ffffffffffffffffffffffffffffffffffffffff160217905550836004819055508260058190555081600681905550806007819055505050505050506200068e565b600033905090565b60008060009054906101000a900473ffffffffffffffffffffffffffffffffffffffff169050816000806101000a81548173ffffffffffffffffffffffffffffffffffffffff021916908373ffffffffffffffffffffffffffffffffffffffff1602179055508173ffffffffffffffffffffffffffffffffffffffff168173ffffffffffffffffffffffffffffffffffffffff167f8be0079c531659141344cd1fd0a4f28419497f9722a3daafe3b4186f6b6457e060405160405180910390a35050565b600081519050620003258162000640565b92915050565b6000815190506200033c816200065a565b92915050565b600081519050620003538162000674565b92915050565b60008060008060008060c087890312156200037357600080fd5b60006200038389828a016200032b565b96505060206200039689828a0162000314565b9550506040620003a989828a0162000342565b9450506060620003bc89828a0162000342565b9350506080620003cf89828a0162000342565b92505060a0620003e289828a0162000342565b9150509295509295509295565b6000620003fe605083620004ca565b91506200040b826200052d565b606082019050919050565b600062000425602683620004ca565b91506200043282620005a2565b604082019050919050565b60006200044c602d83620004ca565b91506200045982620005f1565b604082019050919050565b600060208201905081810360008301526200047f81620003ef565b9050919050565b60006020820190508181036000830152620004a18162000416565b9050919050565b60006020820190508181036000830152620004c3816200043d565b9050919050565b600082825260208201905092915050565b6000620004e88262000503565b9050919050565b6000620004fc82620004db565b9050919050565b600073ffffffffffffffffffffffffffffffffffffffff82169050919050565b6000819050919050565b7f41697264726f703a20546865206d696e696d756d2061697264726f7020616d6f60008201527f756e74206d757374206265206c657373207468616e20746865206d6178696d7560208201527f6d2061697264726f7020616d6f756e7400000000000000000000000000000000604082015250565b7f41697264726f703a2054686520746f6b656e20697320746865207a65726f206160008201527f6464726573730000000000000000000000000000000000000000000000000000602082015250565b7f41697264726f703a2054686520746f6b656e2077616c6c65742069732074686560008201527f207a65726f206164647265737300000000000000000000000000000000000000602082015250565b6200064b81620004db565b81146200065757600080fd5b50565b6200066581620004ef565b81146200067157600080fd5b50565b6200067f8162000523565b81146200068b57600080fd5b50565b612370806200069e6000396000f3fe608060405234801561001057600080fd5b50600436106101425760003560e01c8063775e884f116100b8578063ac195c681161007c578063ac195c681461031a578063bff99c6c14610336578063e8916fc314610354578063e9f7df9614610384578063f2fde38b146103a2578063fc0c546a146103be57610142565b8063775e884f1461028a5780637b231ceb146102a65780637cf83819146102c45780638da5cb5b146102e0578063a214cefc146102fe57610142565b806335b0152c1161010a57806335b0152c146101d95780633a507d7d146101e35780635591b7be146101ff57806358cf77fa1461021d578063663de03314610250578063715018a61461028057610142565b806301a9cadd146101475780630c3b65d3146101635780630d1359c81461016d57806318f15d651461018b5780632b746b1f146101a9575b600080fd5b610161600480360381019061015c91906118b0565b6103dc565b005b61016b610462565b005b6101756104fb565b6040516101829190611d32565b60405180910390f35b610193610501565b6040516101a09190611d32565b60405180910390f35b6101c360048036038101906101be9190611835565b610507565b6040516101d09190611bda565b60405180910390f35b6101e16105e3565b005b6101fd60048036038101906101f8919061185e565b61067c565b005b61020761080d565b6040516102149190611d32565b60405180910390f35b61023760048036038101906102329190611835565b610813565b6040516102479493929190611b95565b60405180910390f35b61026a60048036038101906102659190611835565b610870565b6040516102779190611d32565b60405180910390f35b6102886109a0565b005b6102a4600480360381019061029f91906118b0565b610a28565b005b6102ae610aae565b6040516102bb9190611bda565b60405180910390f35b6102de60048036038101906102d991906118b0565b610ac1565b005b6102e8610b47565b6040516102f59190611b1a565b60405180910390f35b610318600480360381019061031391906118b0565b610b70565b005b610334600480360381019061032f91906118b0565b610fd2565b005b61033e611058565b60405161034b9190611b1a565b60405180910390f35b61036e60048036038101906103699190611835565b61107e565b60405161037b9190611bda565b60405180910390f35b61038c6111a3565b6040516103999190611d32565b60405180910390f35b6103bc60048036038101906103b79190611835565b6111a9565b005b6103c66112a1565b6040516103d39190611bf5565b60405180910390f35b6103e46112c7565b73ffffffffffffffffffffffffffffffffffffffff16610402610b47565b73ffffffffffffffffffffffffffffffffffffffff1614610458576040517f08c379a000000000000000000000000000000000000000000000000000000000815260040161044f90611c92565b60405180910390fd5b8060058190555050565b61046a6112c7565b73ffffffffffffffffffffffffffffffffffffffff16610488610b47565b73ffffffffffffffffffffffffffffffffffffffff16146104de576040517f08c379a00000000000000000000000000000000000000000000000000000000081526004016104d590611c92565b60405180910390fd5b6000600860006101000a81548160ff021916908315150217905550565b60055481565b60075481565b600080600260009054906101000a900473ffffffffffffffffffffffffffffffffffffffff1673ffffffffffffffffffffffffffffffffffffffff166370a08231846040518263ffffffff1660e01b81526004016105659190611b1a565b60206040518083038186803b15801561057d57600080fd5b505afa158015610591573d6000803e3d6000fd5b505050506040513d601f19601f820116820180604052508101906105b591906118d9565b905060006012600a6105c79190611dd2565b6004546105d49190611ef0565b90508082101592505050919050565b6105eb6112c7565b73ffffffffffffffffffffffffffffffffffffffff16610609610b47565b73ffffffffffffffffffffffffffffffffffffffff161461065f576040517f08c379a000000000000000000000000000000000000000000000000000000000815260040161065690611c92565b60405180910390fd5b6001600860006101000a81548160ff021916908315150217905550565b6106846112c7565b73ffffffffffffffffffffffffffffffffffffffff166106a2610b47565b73ffffffffffffffffffffffffffffffffffffffff16146106f8576040517f08c379a00000000000000000000000000000000000000000000000000000000081526004016106ef90611c92565b60405180910390fd5b6000600260009054906101000a900473ffffffffffffffffffffffffffffffffffffffff1673ffffffffffffffffffffffffffffffffffffffff166370a08231306040518263ffffffff1660e01b81526004016107559190611b1a565b60206040518083038186803b15801561076d57600080fd5b505afa158015610781573d6000803e3d6000fd5b505050506040513d601f19601f820116820180604052508101906107a591906118d9565b90506107f48282600260009054906101000a900473ffffffffffffffffffffffffffffffffffffffff1673ffffffffffffffffffffffffffffffffffffffff166112cf9092919063ffffffff16565b8173ffffffffffffffffffffffffffffffffffffffff16ff5b60045481565b60016020528060005260406000206000915090508060000160009054906101000a900473ffffffffffffffffffffffffffffffffffffffff16908060010154908060020154908060030160009054906101000a900460ff16905084565b600061087a6112c7565b73ffffffffffffffffffffffffffffffffffffffff16610898610b47565b73ffffffffffffffffffffffffffffffffffffffff16146108ee576040517f08c379a00000000000000000000000000000000000000000000000000000000081526004016108e590611c92565b60405180910390fd5b600260009054906101000a900473ffffffffffffffffffffffffffffffffffffffff1673ffffffffffffffffffffffffffffffffffffffff166370a08231836040518263ffffffff1660e01b81526004016109499190611b1a565b60206040518083038186803b15801561096157600080fd5b505afa158015610975573d6000803e3d6000fd5b505050506040513d601f19601f8201168201806040525081019061099991906118d9565b9050919050565b6109a86112c7565b73ffffffffffffffffffffffffffffffffffffffff166109c6610b47565b73ffffffffffffffffffffffffffffffffffffffff1614610a1c576040517f08c379a0000000000000000000000000000000000000000000000000000000008152600401610a1390611c92565b60405180910390fd5b610a266000611355565b565b610a306112c7565b73ffffffffffffffffffffffffffffffffffffffff16610a4e610b47565b73ffffffffffffffffffffffffffffffffffffffff1614610aa4576040517f08c379a0000000000000000000000000000000000000000000000000000000008152600401610a9b90611c92565b60405180910390fd5b8060078190555050565b600860009054906101000a900460ff1681565b610ac96112c7565b73ffffffffffffffffffffffffffffffffffffffff16610ae7610b47565b73ffffffffffffffffffffffffffffffffffffffff1614610b3d576040517f08c379a0000000000000000000000000000000000000000000000000000000008152600401610b3490611c92565b60405180910390fd5b8060048190555050565b60008060009054906101000a900473ffffffffffffffffffffffffffffffffffffffff16905090565b6000339050600073ffffffffffffffffffffffffffffffffffffffff168173ffffffffffffffffffffffffffffffffffffffff161415610be5576040517f08c379a0000000000000000000000000000000000000000000000000000000008152600401610bdc90611d12565b60405180910390fd5b610bee8161107e565b15610c2e576040517f08c379a0000000000000000000000000000000000000000000000000000000008152600401610c2590611cd2565b60405180910390fd5b610c3781610507565b610c76576040517f08c379a0000000000000000000000000000000000000000000000000000000008152600401610c6d90611c32565b60405180910390fd5b600554821015610cbb576040517f08c379a0000000000000000000000000000000000000000000000000000000008152600401610cb290611c32565b60405180910390fd5b6000610cc5611419565b90506000811115610fcd576000600160008473ffffffffffffffffffffffffffffffffffffffff1673ffffffffffffffffffffffffffffffffffffffff1681526020019081526020016000206040518060800160405290816000820160009054906101000a900473ffffffffffffffffffffffffffffffffffffffff1673ffffffffffffffffffffffffffffffffffffffff1673ffffffffffffffffffffffffffffffffffffffff16815260200160018201548152602001600282015481526020016003820160009054906101000a900460ff1615151515815250509050600073ffffffffffffffffffffffffffffffffffffffff16816000015173ffffffffffffffffffffffffffffffffffffffff1614610e055781816020018181525050838160400181815250506001816060019015159081151581525050610efd565b60405180608001604052808473ffffffffffffffffffffffffffffffffffffffff16815260200183815260200185815260200160011515815250600160008573ffffffffffffffffffffffffffffffffffffffff1673ffffffffffffffffffffffffffffffffffffffff16815260200190815260200160002060008201518160000160006101000a81548173ffffffffffffffffffffffffffffffffffffffff021916908373ffffffffffffffffffffffffffffffffffffffff160217905550602082015181600101556040820151816002015560608201518160030160006101000a81548160ff0219169083151502179055509050505b610f6e600360009054906101000a900473ffffffffffffffffffffffffffffffffffffffff168484600260009054906101000a900473ffffffffffffffffffffffffffffffffffffffff1673ffffffffffffffffffffffffffffffffffffffff16611491909392919063ffffffff16565b7ff5537ede4763d97b5cf86d9eb6ae77ccd8560b8b2d4bd4503537c6b2996a7a9b600360009054906101000a900473ffffffffffffffffffffffffffffffffffffffff168484604051610fc393929190611b35565b60405180910390a1505b505050565b610fda6112c7565b73ffffffffffffffffffffffffffffffffffffffff16610ff8610b47565b73ffffffffffffffffffffffffffffffffffffffff161461104e576040517f08c379a000000000000000000000000000000000000000000000000000000000815260040161104590611c92565b60405180910390fd5b8060068190555050565b600360009054906101000a900473ffffffffffffffffffffffffffffffffffffffff1681565b600080600160008473ffffffffffffffffffffffffffffffffffffffff1673ffffffffffffffffffffffffffffffffffffffff1681526020019081526020016000206040518060800160405290816000820160009054906101000a900473ffffffffffffffffffffffffffffffffffffffff1673ffffffffffffffffffffffffffffffffffffffff1673ffffffffffffffffffffffffffffffffffffffff16815260200160018201548152602001600282015481526020016003820160009054906101000a900460ff1615151515815250509050600073ffffffffffffffffffffffffffffffffffffffff16816000015173ffffffffffffffffffffffffffffffffffffffff16141561119557600091505061119e565b80606001519150505b919050565b60065481565b6111b16112c7565b73ffffffffffffffffffffffffffffffffffffffff166111cf610b47565b73ffffffffffffffffffffffffffffffffffffffff1614611225576040517f08c379a000000000000000000000000000000000000000000000000000000000815260040161121c90611c92565b60405180910390fd5b600073ffffffffffffffffffffffffffffffffffffffff168173ffffffffffffffffffffffffffffffffffffffff161415611295576040517f08c379a000000000000000000000000000000000000000000000000000000000815260040161128c90611c52565b60405180910390fd5b61129e81611355565b50565b600260009054906101000a900473ffffffffffffffffffffffffffffffffffffffff1681565b600033905090565b6113508363a9059cbb60e01b84846040516024016112ee929190611b6c565b604051602081830303815290604052907bffffffffffffffffffffffffffffffffffffffffffffffffffffffff19166020820180517bffffffffffffffffffffffffffffffffffffffffffffffffffffffff838183161783525050505061151a565b505050565b60008060009054906101000a900473ffffffffffffffffffffffffffffffffffffffff169050816000806101000a81548173ffffffffffffffffffffffffffffffffffffffff021916908373ffffffffffffffffffffffffffffffffffffffff1602179055508173ffffffffffffffffffffffffffffffffffffffff168173ffffffffffffffffffffffffffffffffffffffff167f8be0079c531659141344cd1fd0a4f28419497f9722a3daafe3b4186f6b6457e060405160405180910390a35050565b6000600860009054906101000a900460ff16611438576000905061148e565b60006114456007546115e1565b9050600654811161145a57600654905061146b565b60075481111561146a5760075490505b5b60006012600a61147b9190611dd2565b826114869190611ef0565b905080925050505b90565b611514846323b872dd60e01b8585856040516024016114b293929190611b35565b604051602081830303815290604052907bffffffffffffffffffffffffffffffffffffffffffffffffffffffff19166020820180517bffffffffffffffffffffffffffffffffffffffffffffffffffffffff838183161783525050505061151a565b50505050565b600061157c826040518060400160405280602081526020017f5361666545524332303a206c6f772d6c6576656c2063616c6c206661696c65648152508573ffffffffffffffffffffffffffffffffffffffff166116269092919063ffffffff16565b90506000815111156115dc578080602001905181019061159c9190611887565b6115db576040517f08c379a00000000000000000000000000000000000000000000000000000000081526004016115d290611cf2565b60405180910390fd5b5b505050565b60008044426040516020016115f7929190611aee565b6040516020818303038152906040528051906020012060001c9050828161161e9190612005565b915050919050565b6060611635848460008561163e565b90509392505050565b606082471015611683576040517f08c379a000000000000000000000000000000000000000000000000000000000815260040161167a90611c72565b60405180910390fd5b61168c85611752565b6116cb576040517f08c379a00000000000000000000000000000000000000000000000000000000081526004016116c290611cb2565b60405180910390fd5b6000808673ffffffffffffffffffffffffffffffffffffffff1685876040516116f49190611ad7565b60006040518083038185875af1925050503d8060008114611731576040519150601f19603f3d011682016040523d82523d6000602084013e611736565b606091505b5091509150611746828286611765565b92505050949350505050565b600080823b905060008111915050919050565b60608315611775578290506117c5565b6000835111156117885782518084602001fd5b816040517f08c379a00000000000000000000000000000000000000000000000000000000081526004016117bc9190611c10565b60405180910390fd5b9392505050565b6000813590506117db816122de565b92915050565b6000813590506117f0816122f5565b92915050565b6000815190506118058161230c565b92915050565b60008135905061181a81612323565b92915050565b60008151905061182f81612323565b92915050565b60006020828403121561184757600080fd5b6000611855848285016117cc565b91505092915050565b60006020828403121561187057600080fd5b600061187e848285016117e1565b91505092915050565b60006020828403121561189957600080fd5b60006118a7848285016117f6565b91505092915050565b6000602082840312156118c257600080fd5b60006118d08482850161180b565b91505092915050565b6000602082840312156118eb57600080fd5b60006118f984828501611820565b91505092915050565b61190b81611f4a565b82525050565b61191a81611f6e565b82525050565b600061192b82611d4d565b6119358185611d63565b9350611945818560208601611fc8565b80840191505092915050565b61195a81611fa4565b82525050565b600061196b82611d58565b6119758185611d6e565b9350611985818560208601611fc8565b61198e81612094565b840191505092915050565b60006119a6602f83611d6e565b91506119b1826120b2565b604082019050919050565b60006119c9602683611d6e565b91506119d482612101565b604082019050919050565b60006119ec602683611d6e565b91506119f782612150565b604082019050919050565b6000611a0f602083611d6e565b9150611a1a8261219f565b602082019050919050565b6000611a32601d83611d6e565b9150611a3d826121c8565b602082019050919050565b6000611a55603583611d6e565b9150611a60826121f1565b604082019050919050565b6000611a78602a83611d6e565b9150611a8382612240565b604082019050919050565b6000611a9b602883611d6e565b9150611aa68261228f565b604082019050919050565b611aba81611f9a565b82525050565b611ad1611acc82611f9a565b611ffb565b82525050565b6000611ae38284611920565b915081905092915050565b6000611afa8285611ac0565b602082019150611b0a8284611ac0565b6020820191508190509392505050565b6000602082019050611b2f6000830184611902565b92915050565b6000606082019050611b4a6000830186611902565b611b576020830185611902565b611b646040830184611ab1565b949350505050565b6000604082019050611b816000830185611902565b611b8e6020830184611ab1565b9392505050565b6000608082019050611baa6000830187611902565b611bb76020830186611ab1565b611bc46040830185611ab1565b611bd16060830184611911565b95945050505050565b6000602082019050611bef6000830184611911565b92915050565b6000602082019050611c0a6000830184611951565b92915050565b60006020820190508181036000830152611c2a8184611960565b905092915050565b60006020820190508181036000830152611c4b81611999565b9050919050565b60006020820190508181036000830152611c6b816119bc565b9050919050565b60006020820190508181036000830152611c8b816119df565b9050919050565b60006020820190508181036000830152611cab81611a02565b9050919050565b60006020820190508181036000830152611ccb81611a25565b9050919050565b60006020820190508181036000830152611ceb81611a48565b9050919050565b60006020820190508181036000830152611d0b81611a6b565b9050919050565b60006020820190508181036000830152611d2b81611a8e565b9050919050565b6000602082019050611d476000830184611ab1565b92915050565b600081519050919050565b600081519050919050565b600081905092915050565b600082825260208201905092915050565b6000808291508390505b6001851115611dc957808604811115611da557611da4612036565b5b6001851615611db45780820291505b8081029050611dc2856120a5565b9450611d89565b94509492505050565b6000611ddd82611f9a565b9150611de883611f9a565b9250611e157fffffffffffffffffffffffffffffffffffffffffffffffffffffffffffffffff8484611e1d565b905092915050565b600082611e2d5760019050611ee9565b81611e3b5760009050611ee9565b8160018114611e515760028114611e5b57611e8a565b6001915050611ee9565b60ff841115611e6d57611e6c612036565b5b8360020a915084821115611e8457611e83612036565b5b50611ee9565b5060208310610133831016604e8410600b8410161715611ebf5782820a905083811115611eba57611eb9612036565b5b611ee9565b611ecc8484846001611d7f565b92509050818404811115611ee357611ee2612036565b5b81810290505b9392505050565b6000611efb82611f9a565b9150611f0683611f9a565b9250817fffffffffffffffffffffffffffffffffffffffffffffffffffffffffffffffff0483118215151615611f3f57611f3e612036565b5b828202905092915050565b6000611f5582611f7a565b9050919050565b6000611f6782611f7a565b9050919050565b60008115159050919050565b600073ffffffffffffffffffffffffffffffffffffffff82169050919050565b6000819050919050565b6000611faf82611fb6565b9050919050565b6000611fc182611f7a565b9050919050565b60005b83811015611fe6578082015181840152602081019050611fcb565b83811115611ff5576000848401525b50505050565b6000819050919050565b600061201082611f9a565b915061201b83611f9a565b92508261202b5761202a612065565b5b828206905092915050565b7f4e487b7100000000000000000000000000000000000000000000000000000000600052601160045260246000fd5b7f4e487b7100000000000000000000000000000000000000000000000000000000600052601260045260246000fd5b6000601f19601f8301169050919050565b60008160011c9050919050565b7f41697264726f703a204163636f756e7420646f6573206e6f74206d656574207460008201527f686520726571756972656d656e74730000000000000000000000000000000000602082015250565b7f4f776e61626c653a206e6577206f776e657220697320746865207a65726f206160008201527f6464726573730000000000000000000000000000000000000000000000000000602082015250565b7f416464726573733a20696e73756666696369656e742062616c616e636520666f60008201527f722063616c6c0000000000000000000000000000000000000000000000000000602082015250565b7f4f776e61626c653a2063616c6c6572206973206e6f7420746865206f776e6572600082015250565b7f416464726573733a2063616c6c20746f206e6f6e2d636f6e7472616374000000600082015250565b7f41697264726f703a20546865206163636f756e742068617320616c726561647960008201527f207265636569766564207468652061697264726f700000000000000000000000602082015250565b7f5361666545524332303a204552433230206f7065726174696f6e20646964206e60008201527f6f74207375636365656400000000000000000000000000000000000000000000602082015250565b7f41697264726f703a20546865206163636f756e7420697320746865207a65726f60008201527f2061646472657373000000000000000000000000000000000000000000000000602082015250565b6122e781611f4a565b81146122f257600080fd5b50565b6122fe81611f5c565b811461230957600080fd5b50565b61231581611f6e565b811461232057600080fd5b50565b61232c81611f9a565b811461233757600080fd5b5056fea264697066735822122050ecaa9105c75d407a1b384c438b5bf6fc824b1cfb8b77575174ecd14632a67f64736f6c63430008040033",
  "immutableReferences": {},
  "source": "// SPDX-License-Identifier: MIT\r\npragma solidity ^0.8.0;\r\n\r\nimport \"@openzeppelin/contracts/access/Ownable.sol\";\r\nimport \"@openzeppelin/contracts/utils/math/SafeMath.sol\";\r\nimport \"@openzeppelin/contracts/token/ERC20/utils/SafeERC20.sol\";\r\n\r\ncontract AirdropForHoldDAO is Ownable {\r\n    using SafeMath for uint256;\r\n    using SafeERC20 for IERC20;\r\n\r\n    event transferToken(address wallet, address account, uint256 amount);\r\n\r\n    struct AirdropInfo {\r\n        address token;\r\n        uint256 airdropAmount;\r\n        uint256 swappedAmount;\r\n        bool isClaim;\r\n    }\r\n    // address airdrop amount\r\n    mapping(address => AirdropInfo) public airdropList;\r\n\r\n    IERC20 public token;\r\n    address public tokenWallet;\r\n    uint256 public minDAOBalanceAmount;\r\n    uint256 public minDAOSwappedAmount;\r\n    uint256 public airdropMinAmount;\r\n    uint256 public airdropMaxAmount;\r\n\r\n    bool public checkTransferSwitch = true;\r\n\r\n    constructor(\r\n        IERC20 _token,\r\n        address _tokenWallet,\r\n        uint256 _minDAOBalanceAmount,\r\n        uint256 _minDAOSwappedAmount,\r\n        uint256 _airdropMinAmount,\r\n        uint256 _airdropMaxAmount\r\n    ) Ownable() {\r\n        require(address(_token) != address(0), \"Airdrop: The token is the zero address\");\r\n        require(_tokenWallet != address(0), \"Airdrop: The token wallet is the zero address\");\r\n        require(_airdropMinAmount <= _airdropMaxAmount, \"Airdrop: The minimum airdrop amount must be less than the maximum airdrop amount\");\r\n\r\n        token = _token;\r\n        tokenWallet = _tokenWallet;\r\n        minDAOBalanceAmount = _minDAOBalanceAmount;\r\n        minDAOSwappedAmount = _minDAOSwappedAmount;\r\n        airdropMinAmount = _airdropMinAmount;\r\n        airdropMaxAmount = _airdropMaxAmount;\r\n    }\r\n\r\n    // set minDAOBalanceAmount\r\n    function setMinDAOBalanceAmount(uint256 amount) public onlyOwner {\r\n        minDAOBalanceAmount = amount;\r\n    }\r\n    // set minDAOSwappedAmount\r\n    function setMinDAOSwappedAmount(uint256 amount) public onlyOwner {\r\n        minDAOSwappedAmount = amount;\r\n    }\r\n    // set airdropMinAmount\r\n    function setAirdropMinAmount(uint256 amount) public onlyOwner {\r\n        airdropMinAmount = amount;\r\n    }\r\n    // set airdropMaxAmount\r\n    function setAirdropMaxAmount(uint256 amount) public onlyOwner {\r\n        airdropMaxAmount = amount;\r\n    }\r\n    // open and close checkTransferSwitch\r\n    function openCheckTransferSwitch() public onlyOwner {\r\n        checkTransferSwitch = true;\r\n    }\r\n    function closeCheckTransferSwitch() public onlyOwner {\r\n        checkTransferSwitch = false;\r\n    }\r\n\r\n    /**\r\n     * @dev get DAO balance amount of account.\r\n     * @param account the address\r\n     * @return uint256\r\n     */\r\n    function getDAOBalance(address account) public onlyOwner view returns (uint256) {\r\n        return token.balanceOf(account);\r\n    }\r\n\r\n    /**\r\n     * @dev Check if an account DAO balance.\r\n     * @param account the address\r\n     * @return bool\r\n     */\r\n    function checkDAOBalance(address account) public view returns (bool) {\r\n        uint256 accountBalance = token.balanceOf(account);\r\n        uint256 formatMinDAOBalanceAmount = minDAOBalanceAmount * (10**uint256(18));\r\n        return accountBalance >= formatMinDAOBalanceAmount;\r\n    }\r\n\r\n    /**\r\n     * @dev Check is claim.\r\n     * @param account the address\r\n     * @return bool\r\n     */\r\n    function checkIsClaim(address account) public view returns (bool) {\r\n        AirdropInfo memory info = airdropList[account];\r\n        if (info.token == address(0)) {\r\n            return false;\r\n        }\r\n        return info.isClaim;\r\n    }\r\n\r\n    /**\r\n     * @dev Receive airdrop\r\n     */\r\n    function receiveAirdrop(uint256 swappedAmount) public {\r\n        address currentAccount = msg.sender;\r\n        require(currentAccount != address(0), \"Airdrop: The account is the zero address\");\r\n        require(!checkIsClaim(currentAccount), \"Airdrop: The account has already received the airdrop\");\r\n        require(checkDAOBalance(currentAccount), \"Airdrop: Account does not meet the requirements\");\r\n        require(swappedAmount >= minDAOSwappedAmount, \"Airdrop: Account does not meet the requirements\");\r\n\r\n        // actual airdrop amount\r\n        uint256 actualAmount = _getActualAmount();\r\n        if (actualAmount > 0) {\r\n            AirdropInfo memory info = airdropList[currentAccount];\r\n            if (info.token != address(0)) {\r\n                info.airdropAmount = actualAmount;\r\n                info.swappedAmount = swappedAmount;\r\n                info.isClaim = true;\r\n            } else {\r\n                airdropList[currentAccount] = AirdropInfo(currentAccount, actualAmount, swappedAmount, true);\r\n            }\r\n            // transfer token to receive account\r\n            token.safeTransferFrom(tokenWallet, currentAccount, actualAmount);\r\n            emit transferToken(tokenWallet, currentAccount, actualAmount);\r\n        }\r\n    }\r\n\r\n    /**\r\n     * @dev Get actual amount\r\n     */\r\n    function _getActualAmount() internal view returns(uint256) {\r\n        if (!checkTransferSwitch) {\r\n            return 0;\r\n        }\r\n        // random to airdrop amount\r\n        uint256 randomAmount = _rand(airdropMaxAmount);\r\n        if (randomAmount <= airdropMinAmount) {\r\n            randomAmount = airdropMinAmount;\r\n        } else if (randomAmount > airdropMaxAmount) {\r\n            randomAmount = airdropMaxAmount;\r\n        }\r\n        uint256 actualAmount = randomAmount * (10**uint256(18));\r\n        return actualAmount;\r\n    }\r\n\r\n    /**\r\n     * @dev Generate random numbers\r\n     * @param length Random number range\r\n     */\r\n    function _rand(uint256 length) internal view returns(uint256) {\r\n        uint256 random = uint256(keccak256(abi.encodePacked(block.difficulty, block.timestamp)));\r\n        return random % length;\r\n    }\r\n\r\n    function killSelf(address payable recipientToken) public onlyOwner {\r\n        uint256 contractBalance = token.balanceOf(address(this));\r\n        token.safeTransfer(recipientToken, contractBalance);\r\n\r\n        selfdestruct(recipientToken);\r\n    }\r\n}\r\n",
  "sourcePath": "D:/Workspaces/DaoswapDex/daoswapdex-heco-testnet/core-airdrop/contracts/AirdropForHoldDAO.sol",
  "compiler": {
    "name": "solc",
    "version": "0.8.4+commit.c7e474f2.Emscripten.clang"
  },
  "schemaVersion": "3.4.1",
  "updatedAt": "2021-08-29T14:02:40.869Z",
  "networkType": "ethereum",
  "devdoc": {
    "kind": "dev",
    "methods": {
      "checkDAOBalance(address)": {
        "details": "Check if an account DAO balance.",
        "params": {
          "account": "the address"
        },
        "returns": {
          "_0": "bool"
        }
      },
      "checkIsClaim(address)": {
        "details": "Check is claim.",
        "params": {
          "account": "the address"
        },
        "returns": {
          "_0": "bool"
        }
      },
      "getDAOBalance(address)": {
        "details": "get DAO balance amount of account.",
        "params": {
          "account": "the address"
        },
        "returns": {
          "_0": "uint256"
        }
      },
      "owner()": {
        "details": "Returns the address of the current owner."
      },
      "receiveAirdrop(uint256)": {
        "details": "Receive airdrop"
      },
      "renounceOwnership()": {
        "details": "Leaves the contract without owner. It will not be possible to call `onlyOwner` functions anymore. Can only be called by the current owner. NOTE: Renouncing ownership will leave the contract without an owner, thereby removing any functionality that is only available to the owner."
      },
      "transferOwnership(address)": {
        "details": "Transfers ownership of the contract to a new account (`newOwner`). Can only be called by the current owner."
      }
    },
    "version": 1
  },
  "userdoc": {
    "kind": "user",
    "methods": {},
    "version": 1
  }
}