{
  "contractName": "BecomeCGN",
  "abi": [
    {
      "inputs": [
        {
          "internalType": "address",
          "name": "_token",
          "type": "address"
        },
        {
          "internalType": "address",
          "name": "_tokenWallet",
          "type": "address"
        },
        {
          "internalType": "address payable",
          "name": "_wallet",
          "type": "address"
        },
        {
          "internalType": "uint256",
          "name": "_cap",
          "type": "uint256"
        },
        {
          "internalType": "uint256",
          "name": "_minBurnForgingAmount",
          "type": "uint256"
        },
        {
          "internalType": "uint256",
          "name": "_stageCliffUnit",
          "type": "uint256"
        }
      ],
      "stateMutability": "nonpayable",
      "type": "constructor"
    },
    {
      "anonymous": false,
      "inputs": [
        {
          "indexed": true,
          "internalType": "address",
          "name": "previousOwner",
          "type": "address"
        },
        {
          "indexed": true,
          "internalType": "address",
          "name": "newOwner",
          "type": "address"
        }
      ],
      "name": "OwnershipTransferred",
      "type": "event"
    },
    {
      "anonymous": false,
      "inputs": [
        {
          "indexed": true,
          "internalType": "address",
          "name": "burner",
          "type": "address"
        },
        {
          "indexed": false,
          "internalType": "uint256",
          "name": "value",
          "type": "uint256"
        },
        {
          "indexed": false,
          "internalType": "uint256",
          "name": "amount",
          "type": "uint256"
        }
      ],
      "name": "TokensBurn",
      "type": "event"
    },
    {
      "stateMutability": "nonpayable",
      "type": "fallback"
    },
    {
      "inputs": [],
      "name": "burnedTotalAmount",
      "outputs": [
        {
          "internalType": "uint256",
          "name": "",
          "type": "uint256"
        }
      ],
      "stateMutability": "view",
      "type": "function",
      "constant": true
    },
    {
      "inputs": [],
      "name": "cap",
      "outputs": [
        {
          "internalType": "uint256",
          "name": "",
          "type": "uint256"
        }
      ],
      "stateMutability": "view",
      "type": "function",
      "constant": true
    },
    {
      "inputs": [
        {
          "internalType": "uint256",
          "name": "",
          "type": "uint256"
        }
      ],
      "name": "durationRateList",
      "outputs": [
        {
          "internalType": "uint256",
          "name": "duration",
          "type": "uint256"
        },
        {
          "internalType": "uint256",
          "name": "rate",
          "type": "uint256"
        }
      ],
      "stateMutability": "view",
      "type": "function",
      "constant": true
    },
    {
      "inputs": [
        {
          "internalType": "uint256",
          "name": "amount",
          "type": "uint256"
        },
        {
          "internalType": "uint256",
          "name": "duration",
          "type": "uint256"
        }
      ],
      "name": "forgingTokens",
      "outputs": [],
      "stateMutability": "payable",
      "type": "function",
      "payable": true
    },
    {
      "inputs": [],
      "name": "minBurnForgingAmount",
      "outputs": [
        {
          "internalType": "uint256",
          "name": "",
          "type": "uint256"
        }
      ],
      "stateMutability": "view",
      "type": "function",
      "constant": true
    },
    {
      "inputs": [],
      "name": "owner",
      "outputs": [
        {
          "internalType": "address",
          "name": "",
          "type": "address"
        }
      ],
      "stateMutability": "view",
      "type": "function",
      "constant": true
    },
    {
      "inputs": [],
      "name": "rateDenominator",
      "outputs": [
        {
          "internalType": "uint256",
          "name": "",
          "type": "uint256"
        }
      ],
      "stateMutability": "view",
      "type": "function",
      "constant": true
    },
    {
      "inputs": [],
      "name": "renounceOwnership",
      "outputs": [],
      "stateMutability": "nonpayable",
      "type": "function"
    },
    {
      "inputs": [],
      "name": "stageCliffUnit",
      "outputs": [
        {
          "internalType": "uint256",
          "name": "",
          "type": "uint256"
        }
      ],
      "stateMutability": "view",
      "type": "function",
      "constant": true
    },
    {
      "inputs": [],
      "name": "token",
      "outputs": [
        {
          "internalType": "address",
          "name": "",
          "type": "address"
        }
      ],
      "stateMutability": "view",
      "type": "function",
      "constant": true
    },
    {
      "inputs": [
        {
          "internalType": "address",
          "name": "",
          "type": "address"
        }
      ],
      "name": "tokenVestingList",
      "outputs": [
        {
          "internalType": "address",
          "name": "burnerToken",
          "type": "address"
        },
        {
          "internalType": "uint256",
          "name": "burnedAmount",
          "type": "uint256"
        },
        {
          "internalType": "uint256",
          "name": "receiveAmount",
          "type": "uint256"
        }
      ],
      "stateMutability": "view",
      "type": "function",
      "constant": true
    },
    {
      "inputs": [],
      "name": "tokenWallet",
      "outputs": [
        {
          "internalType": "address",
          "name": "",
          "type": "address"
        }
      ],
      "stateMutability": "view",
      "type": "function",
      "constant": true
    },
    {
      "inputs": [
        {
          "internalType": "address",
          "name": "newOwner",
          "type": "address"
        }
      ],
      "name": "transferOwnership",
      "outputs": [],
      "stateMutability": "nonpayable",
      "type": "function"
    },
    {
      "inputs": [],
      "name": "wallet",
      "outputs": [
        {
          "internalType": "address payable",
          "name": "",
          "type": "address"
        }
      ],
      "stateMutability": "view",
      "type": "function",
      "constant": true
    },
    {
      "stateMutability": "payable",
      "type": "receive",
      "payable": true
    },
    {
      "inputs": [
        {
          "internalType": "uint256",
          "name": "amount",
          "type": "uint256"
        }
      ],
      "name": "setCap",
      "outputs": [],
      "stateMutability": "nonpayable",
      "type": "function"
    },
    {
      "inputs": [
        {
          "internalType": "uint256",
          "name": "amount",
          "type": "uint256"
        }
      ],
      "name": "setMinBurnForgingAmount",
      "outputs": [],
      "stateMutability": "nonpayable",
      "type": "function"
    },
    {
      "inputs": [
        {
          "internalType": "uint256",
          "name": "duration",
          "type": "uint256"
        },
        {
          "internalType": "uint256",
          "name": "rate",
          "type": "uint256"
        }
      ],
      "name": "setDurationRate",
      "outputs": [],
      "stateMutability": "nonpayable",
      "type": "function"
    },
    {
      "inputs": [
        {
          "internalType": "uint256",
          "name": "timeUnit",
          "type": "uint256"
        }
      ],
      "name": "setStageCliffUnit",
      "outputs": [],
      "stateMutability": "nonpayable",
      "type": "function"
    },
    {
      "inputs": [],
      "name": "capReached",
      "outputs": [
        {
          "internalType": "bool",
          "name": "",
          "type": "bool"
        }
      ],
      "stateMutability": "view",
      "type": "function",
      "constant": true
    },
    {
      "inputs": [],
      "name": "remainingTokens",
      "outputs": [
        {
          "internalType": "uint256",
          "name": "",
          "type": "uint256"
        }
      ],
      "stateMutability": "view",
      "type": "function",
      "constant": true
    },
    {
      "inputs": [
        {
          "internalType": "address",
          "name": "account",
          "type": "address"
        }
      ],
      "name": "getTokenVestingAddressByAccount",
      "outputs": [
        {
          "internalType": "address[]",
          "name": "",
          "type": "address[]"
        }
      ],
      "stateMutability": "view",
      "type": "function",
      "constant": true
    }
  ],
  "bytecode": "0x60806040523480156200001157600080fd5b5060405162005153380380620051538339818101604052810190620000379190620004b5565b8386620000596200004d620003a460201b60201c565b620003ac60201b60201c565b60018081905550600073ffffffffffffffffffffffffffffffffffffffff168273ffffffffffffffffffffffffffffffffffffffff161415620000d3576040517f08c379a0000000000000000000000000000000000000000000000000000000008152600401620000ca9062000674565b60405180910390fd5b600073ffffffffffffffffffffffffffffffffffffffff168173ffffffffffffffffffffffffffffffffffffffff16141562000146576040517f08c379a00000000000000000000000000000000000000000000000000000000081526004016200013d9062000630565b60405180910390fd5b81600260006101000a81548173ffffffffffffffffffffffffffffffffffffffff021916908373ffffffffffffffffffffffffffffffffffffffff16021790555080600360006101000a81548173ffffffffffffffffffffffffffffffffffffffff021916908373ffffffffffffffffffffffffffffffffffffffff16021790555080600460006101000a81548173ffffffffffffffffffffffffffffffffffffffff021916908373ffffffffffffffffffffffffffffffffffffffff1602179055505050600073ffffffffffffffffffffffffffffffffffffffff168573ffffffffffffffffffffffffffffffffffffffff1614156200027e576040517f08c379a000000000000000000000000000000000000000000000000000000000815260040162000275906200060e565b60405180910390fd5b60008311620002c4576040517f08c379a0000000000000000000000000000000000000000000000000000000008152600401620002bb9062000696565b60405180910390fd5b600082116200030a576040517f08c379a0000000000000000000000000000000000000000000000000000000008152600401620003019062000652565b60405180910390fd5b84600960006101000a81548173ffffffffffffffffffffffffffffffffffffffff021916908373ffffffffffffffffffffffffffffffffffffffff1602179055506012600a6200035b919062000724565b8362000368919062000861565b6006819055506012600a6200037e919062000724565b826200038b919062000861565b6007819055508060088190555050505050505062000b29565b600033905090565b60008060009054906101000a900473ffffffffffffffffffffffffffffffffffffffff169050816000806101000a81548173ffffffffffffffffffffffffffffffffffffffff021916908373ffffffffffffffffffffffffffffffffffffffff1602179055508173ffffffffffffffffffffffffffffffffffffffff168173ffffffffffffffffffffffffffffffffffffffff167f8be0079c531659141344cd1fd0a4f28419497f9722a3daafe3b4186f6b6457e060405160405180910390a35050565b600081519050620004818162000adb565b92915050565b600081519050620004988162000af5565b92915050565b600081519050620004af8162000b0f565b92915050565b60008060008060008060c08789031215620004cf57600080fd5b6000620004df89828a0162000470565b9650506020620004f289828a0162000470565b95505060406200050589828a0162000487565b94505060606200051889828a016200049e565b93505060806200052b89828a016200049e565b92505060a06200053e89828a016200049e565b9150509295509295509295565b60006200055a603683620006b8565b9150620005678262000950565b604082019050919050565b600062000581602683620006b8565b91506200058e826200099f565b604082019050919050565b6000620005a8604283620006b8565b9150620005b582620009ee565b606082019050919050565b6000620005cf602783620006b8565b9150620005dc8262000a63565b604082019050919050565b6000620005f6601b83620006b8565b9150620006038262000ab2565b602082019050919050565b6000602082019050818103600083015262000629816200054b565b9050919050565b600060208201905081810360008301526200064b8162000572565b9050919050565b600060208201905081810360008301526200066d8162000599565b9050919050565b600060208201905081810360008301526200068f81620005c0565b9050919050565b60006020820190508181036000830152620006b181620005e7565b9050919050565b600082825260208201905092915050565b6000808291508390505b60018511156200071b57808604811115620006f357620006f262000914565b5b6001851615620007035780820291505b8081029050620007138562000943565b9450620006d3565b94509492505050565b600062000731826200090a565b91506200073e836200090a565b92506200076d7fffffffffffffffffffffffffffffffffffffffffffffffffffffffffffffffff848462000775565b905092915050565b6000826200078757600190506200085a565b816200079757600090506200085a565b8160018114620007b05760028114620007bb57620007f1565b60019150506200085a565b60ff841115620007d057620007cf62000914565b5b8360020a915084821115620007ea57620007e962000914565b5b506200085a565b5060208310610133831016604e8410600b84101617156200082b5782820a90508381111562000825576200082462000914565b5b6200085a565b6200083a8484846001620006c9565b9250905081840481111562000854576200085362000914565b5b81810290505b9392505050565b60006200086e826200090a565b91506200087b836200090a565b9250817fffffffffffffffffffffffffffffffffffffffffffffffffffffffffffffffff0483118215151615620008b757620008b662000914565b5b828202905092915050565b6000620008cf82620008ea565b9050919050565b6000620008e382620008ea565b9050919050565b600073ffffffffffffffffffffffffffffffffffffffff82169050919050565b6000819050919050565b7f4e487b7100000000000000000000000000000000000000000000000000000000600052601160045260246000fd5b60008160011c9050919050565b7f416c6c6f77616e63654275726e466f7267696e673a20746f6b656e2077616c6c60008201527f657420697320746865207a65726f206164647265737300000000000000000000602082015250565b7f4275726e466f7267696e673a20746f6b656e20697320746865207a65726f206160008201527f6464726573730000000000000000000000000000000000000000000000000000602082015250565b7f4265636f6d6543474e3a20546865206d696e696d756d20636f6d62757374696f60008201527f6e20666f7267696e6720616d6f756e742069732067726561746572207468616e60208201527f2030000000000000000000000000000000000000000000000000000000000000604082015250565b7f4275726e466f7267696e673a2077616c6c657420697320746865207a65726f2060008201527f6164647265737300000000000000000000000000000000000000000000000000602082015250565b7f4361707065644275726e466f7267696e673a2063617020697320300000000000600082015250565b62000ae681620008c2565b811462000af257600080fd5b50565b62000b0081620008d6565b811462000b0c57600080fd5b50565b62000b1a816200090a565b811462000b2657600080fd5b50565b61461a8062000b396000396000f3fe6080604052600436106200014b5760003560e01c8063865192f711620000bb578063bf5839031162000079578063bf5839031462000423578063bff99c6c1462000453578063eac11b2f1462000483578063f263f48f14620004c9578063f2fde38b146200050e578063fc0c546a146200053c576200015d565b8063865192f714620003355780638da5cb5b1462000365578063978cd71e1462000395578063afce1ecb14620003c3578063b9cc737014620003f3576200015d565b806347786d37116200010957806347786d37146200025f5780634f935945146200028d578063521eb27314620002bd57806358e0ae1914620002ed578063715018a6146200031b576200015d565b8063225a5a9f146200016d57806322ac3f5014620001b1578063355274ea14620001e15780633ee7e68d146200021157806343daf83b1462000231576200015d565b366200015d576200015b6200056c565b005b3480156200016a57600080fd5b50005b3480156200017a57600080fd5b5062000199600480360381019062000193919062001c9d565b620005d8565b604051620001a8919062002295565b60405180910390f35b348015620001be57600080fd5b50620001c9620006b0565b604051620001d89190620024d6565b60405180910390f35b348015620001ee57600080fd5b50620001f9620006b6565b604051620002089190620024d6565b60405180910390f35b6200022f600480360381019062000229919062001d4d565b620006bc565b005b3480156200023e57600080fd5b506200025d600480360381019062000257919062001d4d565b62000876565b005b3480156200026c57600080fd5b506200028b600480360381019062000285919062001cf5565b620009b4565b005b3480156200029a57600080fd5b50620002a562000a41565b604051620002b49190620022b9565b60405180910390f35b348015620002ca57600080fd5b50620002d562000a50565b604051620002e4919062002137565b60405180910390f35b348015620002fa57600080fd5b5062000319600480360381019062000313919062001cf5565b62000a76565b005b3480156200032857600080fd5b506200033362000b4b565b005b3480156200034257600080fd5b506200034d62000bdc565b6040516200035c9190620024d6565b60405180910390f35b3480156200037257600080fd5b506200037d62000be2565b6040516200038c91906200211a565b60405180910390f35b348015620003a257600080fd5b50620003c16004803603810190620003bb919062001cf5565b62000c0b565b005b348015620003d057600080fd5b50620003db62000c98565b604051620003ea9190620024d6565b60405180910390f35b3480156200040057600080fd5b506200040b62000c9e565b6040516200041a9190620024d6565b60405180910390f35b3480156200043057600080fd5b506200043b62000ca4565b6040516200044a9190620024d6565b60405180910390f35b3480156200046057600080fd5b506200046b62000e5d565b6040516200047a91906200211a565b60405180910390f35b3480156200049057600080fd5b50620004af6004803603810190620004a9919062001c9d565b62000e83565b604051620004c093929190620021eb565b60405180910390f35b348015620004d657600080fd5b50620004f56004803603810190620004ef919062001cf5565b62000ecd565b60405162000505929190620024f3565b60405180910390f35b3480156200051b57600080fd5b506200053a600480360381019062000534919062001c9d565b62000ef1565b005b3480156200054957600080fd5b506200055462000ff5565b6040516200056391906200211a565b60405180910390f35b600260009054906101000a900473ffffffffffffffffffffffffffffffffffffffff1673ffffffffffffffffffffffffffffffffffffffff166108fc349081150290604051600060405180830381858888f19350505050158015620005d5573d6000803e3d6000fd5b50565b60606000600b60008473ffffffffffffffffffffffffffffffffffffffff1673ffffffffffffffffffffffffffffffffffffffff168152602001908152602001600020905080600301805480602002602001604051908101604052809291908181526020018280548015620006a357602002820191906000526020600020905b8160009054906101000a900473ffffffffffffffffffffffffffffffffffffffff1673ffffffffffffffffffffffffffffffffffffffff168152602001906001019080831162000658575b5050505050915050919050565b60085481565b60065481565b6002600154141562000705576040517f08c379a0000000000000000000000000000000000000000000000000000000008152600401620006fc90620024b4565b60405180910390fd5b60026001819055506000620007196200101b565b905062000727818462001023565b6000620007358484620010d9565b90506200074e846005546200115b90919063ffffffff16565b600581905550600460009054906101000a900473ffffffffffffffffffffffffffffffffffffffff1673ffffffffffffffffffffffffffffffffffffffff166379cc679083866040518363ffffffff1660e01b8152600401620007b3929190620021be565b600060405180830381600087803b158015620007ce57600080fd5b505af1158015620007e3573d6000803e3d6000fd5b50505050620007f58284868462001173565b620007ff6200101b565b73ffffffffffffffffffffffffffffffffffffffff167f5bcd58905b4ec4fa57f77063ba59a9926e746b27990530ef39cc136c675dd730858360405162000848929190620024f3565b60405180910390a26200085d82858362001187565b6200086982856200118c565b5050600180819055505050565b620008806200101b565b73ffffffffffffffffffffffffffffffffffffffff16620008a062000be2565b73ffffffffffffffffffffffffffffffffffffffff1614620008f9576040517f08c379a0000000000000000000000000000000000000000000000000000000008152600401620008f090620023c6565b60405180910390fd5b600182101562000940576040517f08c379a0000000000000000000000000000000000000000000000000000000008152600401620009379062002382565b60405180910390fd5b6000811162000986576040517f08c379a00000000000000000000000000000000000000000000000000000000081526004016200097d906200242c565b60405180910390fd5b6000600a60008481526020019081526020016000209050828160000181905550818160010181905550505050565b620009be6200101b565b73ffffffffffffffffffffffffffffffffffffffff16620009de62000be2565b73ffffffffffffffffffffffffffffffffffffffff161462000a37576040517f08c379a000000000000000000000000000000000000000000000000000000000815260040162000a2e90620023c6565b60405180910390fd5b8060068190555050565b60006006546005541015905090565b600260009054906101000a900473ffffffffffffffffffffffffffffffffffffffff1681565b62000a806200101b565b73ffffffffffffffffffffffffffffffffffffffff1662000aa062000be2565b73ffffffffffffffffffffffffffffffffffffffff161462000af9576040517f08c379a000000000000000000000000000000000000000000000000000000000815260040162000af090620023c6565b60405180910390fd5b60065481111562000b41576040517f08c379a000000000000000000000000000000000000000000000000000000000815260040162000b3890620023e8565b60405180910390fd5b8060078190555050565b62000b556200101b565b73ffffffffffffffffffffffffffffffffffffffff1662000b7562000be2565b73ffffffffffffffffffffffffffffffffffffffff161462000bce576040517f08c379a000000000000000000000000000000000000000000000000000000000815260040162000bc590620023c6565b60405180910390fd5b62000bda600062001190565b565b6103e881565b60008060009054906101000a900473ffffffffffffffffffffffffffffffffffffffff16905090565b62000c156200101b565b73ffffffffffffffffffffffffffffffffffffffff1662000c3562000be2565b73ffffffffffffffffffffffffffffffffffffffff161462000c8e576040517f08c379a000000000000000000000000000000000000000000000000000000000815260040162000c8590620023c6565b60405180910390fd5b8060088190555050565b60075481565b60055481565b600062000e58600360009054906101000a900473ffffffffffffffffffffffffffffffffffffffff1673ffffffffffffffffffffffffffffffffffffffff166370a08231600960009054906101000a900473ffffffffffffffffffffffffffffffffffffffff166040518263ffffffff1660e01b815260040162000d2991906200211a565b60206040518083038186803b15801562000d4257600080fd5b505afa15801562000d57573d6000803e3d6000fd5b505050506040513d601f19601f8201168201806040525081019062000d7d919062001d21565b600360009054906101000a900473ffffffffffffffffffffffffffffffffffffffff1673ffffffffffffffffffffffffffffffffffffffff1663dd62ed3e600960009054906101000a900473ffffffffffffffffffffffffffffffffffffffff16306040518363ffffffff1660e01b815260040162000dfe92919062002154565b60206040518083038186803b15801562000e1757600080fd5b505afa15801562000e2c573d6000803e3d6000fd5b505050506040513d601f19601f8201168201806040525081019062000e52919062001d21565b62001254565b905090565b600960009054906101000a900473ffffffffffffffffffffffffffffffffffffffff1681565b600b6020528060005260406000206000915090508060000160009054906101000a900473ffffffffffffffffffffffffffffffffffffffff16908060010154908060020154905083565b600a6020528060005260406000206000915090508060000154908060010154905082565b62000efb6200101b565b73ffffffffffffffffffffffffffffffffffffffff1662000f1b62000be2565b73ffffffffffffffffffffffffffffffffffffffff161462000f74576040517f08c379a000000000000000000000000000000000000000000000000000000000815260040162000f6b90620023c6565b60405180910390fd5b600073ffffffffffffffffffffffffffffffffffffffff168173ffffffffffffffffffffffffffffffffffffffff16141562000fe7576040517f08c379a000000000000000000000000000000000000000000000000000000000815260040162000fde90620022fa565b60405180910390fd5b62000ff28162001190565b50565b600360009054906101000a900473ffffffffffffffffffffffffffffffffffffffff1681565b600033905090565b6200102f82826200126f565b60065462001049826005546200115b90919063ffffffff16565b11156200108d576040517f08c379a000000000000000000000000000000000000000000000000000000000815260040162001084906200240a565b60405180910390fd5b600754811015620010d5576040517f08c379a0000000000000000000000000000000000000000000000000000000008152600401620010cc9062002470565b60405180910390fd5b5050565b600080600a60008481526020019081526020016000206040518060400160405290816000820154815260200160018201548152505090506000808260000151146200112657816020015190505b620011516103e86200114283886200142990919063ffffffff16565b6200144190919063ffffffff16565b9250505092915050565b600081836200116b91906200258b565b905092915050565b620011818484848462001459565b50505050565b505050565b5050565b60008060009054906101000a900473ffffffffffffffffffffffffffffffffffffffff169050816000806101000a81548173ffffffffffffffffffffffffffffffffffffffff021916908373ffffffffffffffffffffffffffffffffffffffff1602179055508173ffffffffffffffffffffffffffffffffffffffff168173ffffffffffffffffffffffffffffffffffffffff167f8be0079c531659141344cd1fd0a4f28419497f9722a3daafe3b4186f6b6457e060405160405180910390a35050565b600081831062001265578162001267565b825b905092915050565b600073ffffffffffffffffffffffffffffffffffffffff168273ffffffffffffffffffffffffffffffffffffffff161415620012e2576040517f08c379a0000000000000000000000000000000000000000000000000000000008152600401620012d9906200231c565b60405180910390fd5b600081141562001329576040517f08c379a00000000000000000000000000000000000000000000000000000000081526004016200132090620023a4565b60405180910390fd5b6000600460009054906101000a900473ffffffffffffffffffffffffffffffffffffffff1673ffffffffffffffffffffffffffffffffffffffff166370a08231846040518263ffffffff1660e01b81526004016200138891906200211a565b60206040518083038186803b158015620013a157600080fd5b505afa158015620013b6573d6000803e3d6000fd5b505050506040513d601f19601f82011682018060405250810190620013dc919062001d21565b90508082111562001424576040517f08c379a00000000000000000000000000000000000000000000000000000000081526004016200141b906200233e565b60405180910390fd5b505050565b6000818362001439919062002620565b905092915050565b60008183620014519190620025e8565b905092915050565b60008442856008548686604051620014719062001b85565b620014829695949392919062002228565b604051809103906000f0801580156200149f573d6000803e3d6000fd5b5090506000600b60008773ffffffffffffffffffffffffffffffffffffffff1673ffffffffffffffffffffffffffffffffffffffff1681526020019081526020016000209050600073ffffffffffffffffffffffffffffffffffffffff168160000160009054906101000a900473ffffffffffffffffffffffffffffffffffffffff1673ffffffffffffffffffffffffffffffffffffffff1614620015eb57620015578482600101546200115b90919063ffffffff16565b8160010181905550620015788382600201546200115b90919063ffffffff16565b816002018190555080600301829080600181540180825580915050600190039060005260206000200160009091909190916101000a81548173ffffffffffffffffffffffffffffffffffffffff021916908373ffffffffffffffffffffffffffffffffffffffff160217905550620017f3565b60405180608001604052808773ffffffffffffffffffffffffffffffffffffffff168152602001858152602001848152602001600067ffffffffffffffff81111562001660577f4e487b7100000000000000000000000000000000000000000000000000000000600052604160045260246000fd5b6040519080825280602002602001820160405280156200168f5781602001602082028036833780820191505090505b50815250600b60008873ffffffffffffffffffffffffffffffffffffffff1673ffffffffffffffffffffffffffffffffffffffff16815260200190815260200160002060008201518160000160006101000a81548173ffffffffffffffffffffffffffffffffffffffff021916908373ffffffffffffffffffffffffffffffffffffffff160217905550602082015181600101556040820151816002015560608201518160030190805190602001906200174b92919062001b93565b50905050600b60008773ffffffffffffffffffffffffffffffffffffffff1673ffffffffffffffffffffffffffffffffffffffff168152602001908152602001600020600301829080600181540180825580915050600190039060005260206000200160009091909190916101000a81548173ffffffffffffffffffffffffffffffffffffffff021916908373ffffffffffffffffffffffffffffffffffffffff1602179055505b62001866600960009054906101000a900473ffffffffffffffffffffffffffffffffffffffff168385600360009054906101000a900473ffffffffffffffffffffffffffffffffffffffff1673ffffffffffffffffffffffffffffffffffffffff166200186e909392919063ffffffff16565b505050505050565b620018f5846323b872dd60e01b858585604051602401620018929392919062002181565b604051602081830303815290604052907bffffffffffffffffffffffffffffffffffffffffffffffffffffffff19166020820180517bffffffffffffffffffffffffffffffffffffffffffffffffffffffff8381831617835250505050620018fb565b50505050565b60006200195f826040518060400160405280602081526020017f5361666545524332303a206c6f772d6c6576656c2063616c6c206661696c65648152508573ffffffffffffffffffffffffffffffffffffffff16620019ca9092919063ffffffff16565b9050600081511115620019c5578080602001905181019062001982919062001cc9565b620019c4576040517f08c379a0000000000000000000000000000000000000000000000000000000008152600401620019bb9062002492565b60405180910390fd5b5b505050565b6060620019db8484600085620019e4565b90509392505050565b60608247101562001a2c576040517f08c379a000000000000000000000000000000000000000000000000000000000815260040162001a239062002360565b60405180910390fd5b62001a378562001b06565b62001a79576040517f08c379a000000000000000000000000000000000000000000000000000000000815260040162001a70906200244e565b60405180910390fd5b6000808673ffffffffffffffffffffffffffffffffffffffff16858760405162001aa4919062002101565b60006040518083038185875af1925050503d806000811462001ae3576040519150601f19603f3d011682016040523d82523d6000602084013e62001ae8565b606091505b509150915062001afa82828662001b19565b92505050949350505050565b600080823b905060008111915050919050565b6060831562001b2b5782905062001b7e565b60008351111562001b3f5782518084602001fd5b816040517f08c379a000000000000000000000000000000000000000000000000000000000815260040162001b759190620022d6565b60405180910390fd5b9392505050565b611a588062002b8d83390190565b82805482825590600052602060002090810192821562001c0f579160200282015b8281111562001c0e5782518260006101000a81548173ffffffffffffffffffffffffffffffffffffffff021916908373ffffffffffffffffffffffffffffffffffffffff1602179055509160200191906001019062001bb4565b5b50905062001c1e919062001c22565b5090565b5b8082111562001c3d57600081600090555060010162001c23565b5090565b60008135905062001c528162002b3e565b92915050565b60008151905062001c698162002b58565b92915050565b60008135905062001c808162002b72565b92915050565b60008151905062001c978162002b72565b92915050565b60006020828403121562001cb057600080fd5b600062001cc08482850162001c41565b91505092915050565b60006020828403121562001cdc57600080fd5b600062001cec8482850162001c58565b91505092915050565b60006020828403121562001d0857600080fd5b600062001d188482850162001c6f565b91505092915050565b60006020828403121562001d3457600080fd5b600062001d448482850162001c86565b91505092915050565b6000806040838503121562001d6157600080fd5b600062001d718582860162001c6f565b925050602062001d848582860162001c6f565b9150509250929050565b600062001d9c838362001db9565b60208301905092915050565b62001db38162002695565b82525050565b62001dc48162002681565b82525050565b62001dd58162002681565b82525050565b600062001de88262002530565b62001df481856200255e565b935062001e018362002520565b8060005b8381101562001e3857815162001e1c888262001d8e565b975062001e298362002551565b92505060018101905062001e05565b5085935050505092915050565b62001e5081620026a9565b82525050565b600062001e63826200253b565b62001e6f81856200256f565b935062001e81818560208601620026df565b80840191505092915050565b600062001e9a8262002546565b62001ea681856200257a565b935062001eb8818560208601620026df565b62001ec38162002773565b840191505092915050565b600062001edd6026836200257a565b915062001eea8262002784565b604082019050919050565b600062001f046027836200257a565b915062001f1182620027d3565b604082019050919050565b600062001f2b6031836200257a565b915062001f388262002822565b604082019050919050565b600062001f526026836200257a565b915062001f5f8262002871565b604082019050919050565b600062001f796021836200257a565b915062001f8682620028c0565b604082019050919050565b600062001fa0601e836200257a565b915062001fad826200290f565b602082019050919050565b600062001fc76020836200257a565b915062001fd48262002938565b602082019050919050565b600062001fee603f836200257a565b915062001ffb8262002961565b604082019050919050565b600062002015601f836200257a565b91506200202282620029b0565b602082019050919050565b60006200203c6021836200257a565b91506200204982620029d9565b604082019050919050565b600062002063601d836200257a565b9150620020708262002a28565b602082019050919050565b60006200208a6044836200257a565b9150620020978262002a51565b606082019050919050565b6000620020b1602a836200257a565b9150620020be8262002ac6565b604082019050919050565b6000620020d8601f836200257a565b9150620020e58262002b15565b602082019050919050565b620020fb81620026d5565b82525050565b60006200210f828462001e56565b915081905092915050565b600060208201905062002131600083018462001dca565b92915050565b60006020820190506200214e600083018462001da8565b92915050565b60006040820190506200216b600083018562001dca565b6200217a602083018462001dca565b9392505050565b600060608201905062002198600083018662001dca565b620021a7602083018562001dca565b620021b66040830184620020f0565b949350505050565b6000604082019050620021d5600083018562001dca565b620021e46020830184620020f0565b9392505050565b600060608201905062002202600083018662001dca565b620022116020830185620020f0565b620022206040830184620020f0565b949350505050565b600060c0820190506200223f600083018962001dca565b6200224e6020830188620020f0565b6200225d6040830187620020f0565b6200226c6060830186620020f0565b6200227b6080830185620020f0565b6200228a60a0830184620020f0565b979650505050505050565b60006020820190508181036000830152620022b1818462001ddb565b905092915050565b6000602082019050620022d0600083018462001e45565b92915050565b60006020820190508181036000830152620022f2818462001e8d565b905092915050565b60006020820190508181036000830152620023158162001ece565b9050919050565b60006020820190508181036000830152620023378162001ef5565b9050919050565b60006020820190508181036000830152620023598162001f1c565b9050919050565b600060208201905081810360008301526200237b8162001f43565b9050919050565b600060208201905081810360008301526200239d8162001f6a565b9050919050565b60006020820190508181036000830152620023bf8162001f91565b9050919050565b60006020820190508181036000830152620023e18162001fb8565b9050919050565b60006020820190508181036000830152620024038162001fdf565b9050919050565b60006020820190508181036000830152620024258162002006565b9050919050565b6000602082019050818103600083015262002447816200202d565b9050919050565b60006020820190508181036000830152620024698162002054565b9050919050565b600060208201905081810360008301526200248b816200207b565b9050919050565b60006020820190508181036000830152620024ad81620020a2565b9050919050565b60006020820190508181036000830152620024cf81620020c9565b9050919050565b6000602082019050620024ed6000830184620020f0565b92915050565b60006040820190506200250a6000830185620020f0565b620025196020830184620020f0565b9392505050565b6000819050602082019050919050565b600081519050919050565b600081519050919050565b600081519050919050565b6000602082019050919050565b600082825260208201905092915050565b600081905092915050565b600082825260208201905092915050565b60006200259882620026d5565b9150620025a583620026d5565b9250827fffffffffffffffffffffffffffffffffffffffffffffffffffffffffffffffff03821115620025dd57620025dc62002715565b5b828201905092915050565b6000620025f582620026d5565b91506200260283620026d5565b92508262002615576200261462002744565b5b828204905092915050565b60006200262d82620026d5565b91506200263a83620026d5565b9250817fffffffffffffffffffffffffffffffffffffffffffffffffffffffffffffffff048311821515161562002676576200267562002715565b5b828202905092915050565b60006200268e82620026b5565b9050919050565b6000620026a282620026b5565b9050919050565b60008115159050919050565b600073ffffffffffffffffffffffffffffffffffffffff82169050919050565b6000819050919050565b60005b83811015620026ff578082015181840152602081019050620026e2565b838111156200270f576000848401525b50505050565b7f4e487b7100000000000000000000000000000000000000000000000000000000600052601160045260246000fd5b7f4e487b7100000000000000000000000000000000000000000000000000000000600052601260045260246000fd5b6000601f19601f8301169050919050565b7f4f776e61626c653a206e6577206f776e657220697320746865207a65726f206160008201527f6464726573730000000000000000000000000000000000000000000000000000602082015250565b7f4275726e466f7267696e673a206275726e657220697320746865207a65726f2060008201527f6164647265737300000000000000000000000000000000000000000000000000602082015250565b7f4275726e466f7267696e673a20546865206275726e6564416d6f756e7420657860008201527f6365656473207468652062616c616e6365000000000000000000000000000000602082015250565b7f416464726573733a20696e73756666696369656e742062616c616e636520666f60008201527f722063616c6c0000000000000000000000000000000000000000000000000000602082015250565b7f4265636f6d6543474e3a206475726174696f6e2076616c756520696e7661696c60008201527f6400000000000000000000000000000000000000000000000000000000000000602082015250565b7f4275726e466f7267696e673a206275726e6564416d6f756e7420697320300000600082015250565b7f4f776e61626c653a2063616c6c6572206973206e6f7420746865206f776e6572600082015250565b7f4265636f6d6543474e3a20546865206d696e696d756d20666f7267696e67206160008201527f6d6f756e74206d757374206265206c657373207468616e207468652063617000602082015250565b7f4361707065644275726e466f7267696e673a2063617020657863656564656400600082015250565b7f4265636f6d6543474e3a20726174652069732067726561746572207468616e2060008201527f3000000000000000000000000000000000000000000000000000000000000000602082015250565b7f416464726573733a2063616c6c20746f206e6f6e2d636f6e7472616374000000600082015250565b7f4265636f6d6543474e3a20546865206d696e696d756d20666f7267696e67206160008201527f6d6f756e7420646f6573206e6f74206d6565742074686520726571756972656d60208201527f656e747300000000000000000000000000000000000000000000000000000000604082015250565b7f5361666545524332303a204552433230206f7065726174696f6e20646964206e60008201527f6f74207375636365656400000000000000000000000000000000000000000000602082015250565b7f5265656e7472616e637947756172643a207265656e7472616e742063616c6c00600082015250565b62002b498162002681565b811462002b5557600080fd5b50565b62002b6381620026a9565b811462002b6f57600080fd5b50565b62002b7d81620026d5565b811462002b8957600080fd5b5056fe608060405260646005553480156200001657600080fd5b5060405162001a5838038062001a5883398181016040528101906200003c9190620002f5565b6200005c62000050620001e360201b60201c565b620001eb60201b60201c565b600073ffffffffffffffffffffffffffffffffffffffff168673ffffffffffffffffffffffffffffffffffffffff161415620000cf576040517f08c379a0000000000000000000000000000000000000000000000000000000008152600401620000c69062000422565b60405180910390fd5b42620000ea8587620002af60201b620006431790919060201c565b116200012d576040517f08c379a0000000000000000000000000000000000000000000000000000000008152600401620001249062000400565b60405180910390fd5b8284101562000173576040517f08c379a00000000000000000000000000000000000000000000000000000000081526004016200016a9062000444565b60405180910390fd5b85600160006101000a81548173ffffffffffffffffffffffffffffffffffffffff021916908373ffffffffffffffffffffffffffffffffffffffff160217905550846002819055508360038190555082600481905550816006819055508060078190555050505050505062000662565b600033905090565b60008060009054906101000a900473ffffffffffffffffffffffffffffffffffffffff169050816000806101000a81548173ffffffffffffffffffffffffffffffffffffffff021916908373ffffffffffffffffffffffffffffffffffffffff1602179055508173ffffffffffffffffffffffffffffffffffffffff168173ffffffffffffffffffffffffffffffffffffffff167f8be0079c531659141344cd1fd0a4f28419497f9722a3daafe3b4186f6b6457e060405160405180910390a35050565b60008183620002bf919062000477565b905092915050565b600081519050620002d8816200062e565b92915050565b600081519050620002ef8162000648565b92915050565b60008060008060008060c087890312156200030f57600080fd5b60006200031f89828a01620002c7565b96505060206200033289828a01620002de565b95505060406200034589828a01620002de565b94505060606200035889828a01620002de565b93505060806200036b89828a01620002de565b92505060a06200037e89828a01620002de565b9150509295509295509295565b60006200039a603a8362000466565b9150620003a78262000541565b604082019050919050565b6000620003c160338362000466565b9150620003ce8262000590565b604082019050919050565b6000620003e860398362000466565b9150620003f582620005df565b604082019050919050565b600060208201905081810360008301526200041b816200038b565b9050919050565b600060208201905081810360008301526200043d81620003b2565b9050919050565b600060208201905081810360008301526200045f81620003d9565b9050919050565b600082825260208201905092915050565b6000620004848262000508565b9150620004918362000508565b9250827fffffffffffffffffffffffffffffffffffffffffffffffffffffffffffffffff03821115620004c957620004c862000512565b5b828201905092915050565b6000620004e182620004e8565b9050919050565b600073ffffffffffffffffffffffffffffffffffffffff82169050919050565b6000819050919050565b7f4e487b7100000000000000000000000000000000000000000000000000000000600052601160045260246000fd5b7f546f6b656e56657374696e674275726e466f7267696e673a2066696e616c207460008201527f696d65206973206265666f72652063757272656e742074696d65000000000000602082015250565b7f546f6b656e56657374696e674275726e466f7267696e673a206275726e65722060008201527f697320746865207a65726f206164647265737300000000000000000000000000602082015250565b7f546f6b656e56657374696e674275726e466f7267696e673a20506572696f642060008201527f69732067726561746572207468616e20756e69742074696d6500000000000000602082015250565b6200063981620004d4565b81146200064557600080fd5b50565b620006538162000508565b81146200065f57600080fd5b50565b6113e680620006726000396000f3fe608060405234801561001057600080fd5b50600436106100cf5760003560e01c80633a98ef391161008c5780638da5cb5b116100665780638da5cb5b146101de5780639852595c146101fc578063be9a65551461022c578063f2fde38b1461024a576100cf565b80633a98ef391461019857806350e15fdd146101b6578063715018a6146101d4576100cf565b806309883bd5146100d45780630fb5a6b4146100f25780631726cbc814610110578063191655871461014057806322ac3f501461015c57806327810b6e1461017a575b600080fd5b6100dc610266565b6040516100e99190610f79565b60405180910390f35b6100fa61026c565b6040516101079190610f79565b60405180910390f35b61012a60048036038101906101259190610c90565b610272565b6040516101379190610f79565b60405180910390f35b61015a60048036038101906101559190610c90565b6102d5565b005b610164610444565b6040516101719190610f79565b60405180910390f35b61018261044a565b60405161018f9190610e53565b60405180910390f35b6101a0610470565b6040516101ad9190610f79565b60405180910390f35b6101be610476565b6040516101cb9190610f79565b60405180910390f35b6101dc61047c565b005b6101e6610504565b6040516101f39190610e53565b60405180910390f35b61021660048036038101906102119190610c3e565b61052d565b6040516102239190610f79565b60405180910390f35b610234610545565b6040516102419190610f79565b60405180910390f35b610264600480360381019061025f9190610c3e565b61054b565b005b60075481565b60035481565b60006102ce600860008473ffffffffffffffffffffffffffffffffffffffff1673ffffffffffffffffffffffffffffffffffffffff168152602001908152602001600020546102c084610659565b6107ff90919063ffffffff16565b9050919050565b60006102e082610272565b905060008111610325576040517f08c379a000000000000000000000000000000000000000000000000000000000815260040161031c90610ed9565b60405180910390fd5b61037781600860008573ffffffffffffffffffffffffffffffffffffffff1673ffffffffffffffffffffffffffffffffffffffff1681526020019081526020016000205461064390919063ffffffff16565b600860008473ffffffffffffffffffffffffffffffffffffffff1673ffffffffffffffffffffffffffffffffffffffff16815260200190815260200160002081905550610407600160009054906101000a900473ffffffffffffffffffffffffffffffffffffffff16828473ffffffffffffffffffffffffffffffffffffffff166108159092919063ffffffff16565b7fc7798891864187665ac6dd119286e44ec13f014527aeeb2b8eb3fd413df931798282604051610438929190610e6e565b60405180910390a15050565b60045481565b600160009054906101000a900473ffffffffffffffffffffffffffffffffffffffff1681565b60055481565b60065481565b61048461089b565b73ffffffffffffffffffffffffffffffffffffffff166104a2610504565b73ffffffffffffffffffffffffffffffffffffffff16146104f8576040517f08c379a00000000000000000000000000000000000000000000000000000000081526004016104ef90610f19565b60405180910390fd5b61050260006108a3565b565b60008060009054906101000a900473ffffffffffffffffffffffffffffffffffffffff16905090565b60086020528060005260406000206000915090505481565b60025481565b61055361089b565b73ffffffffffffffffffffffffffffffffffffffff16610571610504565b73ffffffffffffffffffffffffffffffffffffffff16146105c7576040517f08c379a00000000000000000000000000000000000000000000000000000000081526004016105be90610f19565b60405180910390fd5b600073ffffffffffffffffffffffffffffffffffffffff168173ffffffffffffffffffffffffffffffffffffffff161415610637576040517f08c379a000000000000000000000000000000000000000000000000000000000815260040161062e90610eb9565b60405180910390fd5b610640816108a3565b50565b600081836106519190610fc6565b905092915050565b6000808273ffffffffffffffffffffffffffffffffffffffff166370a08231306040518263ffffffff1660e01b81526004016106959190610e53565b60206040518083038186803b1580156106ad57600080fd5b505afa1580156106c1573d6000803e3d6000fd5b505050506040513d601f19601f820116820180604052508101906106e59190610cb9565b9050600061073b600860008673ffffffffffffffffffffffffffffffffffffffff1673ffffffffffffffffffffffffffffffffffffffff168152602001908152602001600020548361064390919063ffffffff16565b905061075460035460025461064390919063ffffffff16565b42106107645780925050506107fa565b6000806002549050600061078560045460035461096790919063ffffffff16565b905060005b818110156107f0576107a76004548461064390919063ffffffff16565b9250428311156107b6576107f0565b6107db6107cc838761096790919063ffffffff16565b8561064390919063ffffffff16565b935080806107e89061110e565b91505061078a565b5082955050505050505b919050565b6000818361080d919061104d565b905092915050565b6108968363a9059cbb60e01b8484604051602401610834929190610e6e565b604051602081830303815290604052907bffffffffffffffffffffffffffffffffffffffffffffffffffffffff19166020820180517bffffffffffffffffffffffffffffffffffffffffffffffffffffffff838183161783525050505061097d565b505050565b600033905090565b60008060009054906101000a900473ffffffffffffffffffffffffffffffffffffffff169050816000806101000a81548173ffffffffffffffffffffffffffffffffffffffff021916908373ffffffffffffffffffffffffffffffffffffffff1602179055508173ffffffffffffffffffffffffffffffffffffffff168173ffffffffffffffffffffffffffffffffffffffff167f8be0079c531659141344cd1fd0a4f28419497f9722a3daafe3b4186f6b6457e060405160405180910390a35050565b60008183610975919061101c565b905092915050565b60006109df826040518060400160405280602081526020017f5361666545524332303a206c6f772d6c6576656c2063616c6c206661696c65648152508573ffffffffffffffffffffffffffffffffffffffff16610a449092919063ffffffff16565b9050600081511115610a3f57808060200190518101906109ff9190610c67565b610a3e576040517f08c379a0000000000000000000000000000000000000000000000000000000008152600401610a3590610f59565b60405180910390fd5b5b505050565b6060610a538484600085610a5c565b90509392505050565b606082471015610aa1576040517f08c379a0000000000000000000000000000000000000000000000000000000008152600401610a9890610ef9565b60405180910390fd5b610aaa85610b70565b610ae9576040517f08c379a0000000000000000000000000000000000000000000000000000000008152600401610ae090610f39565b60405180910390fd5b6000808673ffffffffffffffffffffffffffffffffffffffff168587604051610b129190610e3c565b60006040518083038185875af1925050503d8060008114610b4f576040519150601f19603f3d011682016040523d82523d6000602084013e610b54565b606091505b5091509150610b64828286610b83565b92505050949350505050565b600080823b905060008111915050919050565b60608315610b9357829050610be3565b600083511115610ba65782518084602001fd5b816040517f08c379a0000000000000000000000000000000000000000000000000000000008152600401610bda9190610e97565b60405180910390fd5b9392505050565b600081359050610bf981611354565b92915050565b600081519050610c0e8161136b565b92915050565b600081359050610c2381611382565b92915050565b600081519050610c3881611399565b92915050565b600060208284031215610c5057600080fd5b6000610c5e84828501610bea565b91505092915050565b600060208284031215610c7957600080fd5b6000610c8784828501610bff565b91505092915050565b600060208284031215610ca257600080fd5b6000610cb084828501610c14565b91505092915050565b600060208284031215610ccb57600080fd5b6000610cd984828501610c29565b91505092915050565b610ceb81611081565b82525050565b6000610cfc82610f94565b610d068185610faa565b9350610d168185602086016110db565b80840191505092915050565b6000610d2d82610f9f565b610d378185610fb5565b9350610d478185602086016110db565b610d50816111b5565b840191505092915050565b6000610d68602683610fb5565b9150610d73826111c6565b604082019050919050565b6000610d8b602a83610fb5565b9150610d9682611215565b604082019050919050565b6000610dae602683610fb5565b9150610db982611264565b604082019050919050565b6000610dd1602083610fb5565b9150610ddc826112b3565b602082019050919050565b6000610df4601d83610fb5565b9150610dff826112dc565b602082019050919050565b6000610e17602a83610fb5565b9150610e2282611305565b604082019050919050565b610e36816110d1565b82525050565b6000610e488284610cf1565b915081905092915050565b6000602082019050610e686000830184610ce2565b92915050565b6000604082019050610e836000830185610ce2565b610e906020830184610e2d565b9392505050565b60006020820190508181036000830152610eb18184610d22565b905092915050565b60006020820190508181036000830152610ed281610d5b565b9050919050565b60006020820190508181036000830152610ef281610d7e565b9050919050565b60006020820190508181036000830152610f1281610da1565b9050919050565b60006020820190508181036000830152610f3281610dc4565b9050919050565b60006020820190508181036000830152610f5281610de7565b9050919050565b60006020820190508181036000830152610f7281610e0a565b9050919050565b6000602082019050610f8e6000830184610e2d565b92915050565b600081519050919050565b600081519050919050565b600081905092915050565b600082825260208201905092915050565b6000610fd1826110d1565b9150610fdc836110d1565b9250827fffffffffffffffffffffffffffffffffffffffffffffffffffffffffffffffff0382111561101157611010611157565b5b828201905092915050565b6000611027826110d1565b9150611032836110d1565b92508261104257611041611186565b5b828204905092915050565b6000611058826110d1565b9150611063836110d1565b92508282101561107657611075611157565b5b828203905092915050565b600061108c826110b1565b9050919050565b60008115159050919050565b60006110aa82611081565b9050919050565b600073ffffffffffffffffffffffffffffffffffffffff82169050919050565b6000819050919050565b60005b838110156110f95780820151818401526020810190506110de565b83811115611108576000848401525b50505050565b6000611119826110d1565b91507fffffffffffffffffffffffffffffffffffffffffffffffffffffffffffffffff82141561114c5761114b611157565b5b600182019050919050565b7f4e487b7100000000000000000000000000000000000000000000000000000000600052601160045260246000fd5b7f4e487b7100000000000000000000000000000000000000000000000000000000600052601260045260246000fd5b6000601f19601f8301169050919050565b7f4f776e61626c653a206e6577206f776e657220697320746865207a65726f206160008201527f6464726573730000000000000000000000000000000000000000000000000000602082015250565b7f546f6b656e56657374696e674275726e466f7267696e673a206e6f20746f6b6560008201527f6e73206172652064756500000000000000000000000000000000000000000000602082015250565b7f416464726573733a20696e73756666696369656e742062616c616e636520666f60008201527f722063616c6c0000000000000000000000000000000000000000000000000000602082015250565b7f4f776e61626c653a2063616c6c6572206973206e6f7420746865206f776e6572600082015250565b7f416464726573733a2063616c6c20746f206e6f6e2d636f6e7472616374000000600082015250565b7f5361666545524332303a204552433230206f7065726174696f6e20646964206e60008201527f6f74207375636365656400000000000000000000000000000000000000000000602082015250565b61135d81611081565b811461136857600080fd5b50565b61137481611093565b811461137f57600080fd5b50565b61138b8161109f565b811461139657600080fd5b50565b6113a2816110d1565b81146113ad57600080fd5b5056fea2646970667358221220c7ede6498b3f208f691668d3c2743f672346465888a368b945c4565ae3c4f57c64736f6c63430008040033a264697066735822122056dfdbdedd512f06bfcf5e5712569282e6b065d69e9fffdece0395e37c61e34664736f6c63430008040033",
  "immutableReferences": {},
  "source": "// SPDX-License-Identifier: MIT\npragma solidity ^0.8.0;\n\nimport \"@openzeppelin/contracts/access/Ownable.sol\";\nimport \"@openzeppelin/contracts/utils/math/SafeMath.sol\";\nimport \"@openzeppelin/contracts/token/ERC20/IERC20.sol\";\nimport \"@openzeppelin/contracts/utils/math/Math.sol\";\nimport \"@openzeppelin/contracts/token/ERC20/utils/SafeERC20.sol\";\nimport \"./Forging/BurnForging.sol\";\nimport \"./Forging/emission/TokenVestingBurnForging.sol\";\n\ncontract BecomeCGN is Ownable, BurnForging {\n    using SafeMath for uint256;\n    using SafeERC20 for IERC20;\n\n    /**********  *********/\n    // \n    uint256 public constant rateDenominator = 1000;\n    // \n    uint256 public cap;\n    // \n    uint256 public minBurnForgingAmount;\n    // , \n    uint256 public stageCliffUnit;\n    // tokenWallet , \n    address public tokenWallet;\n    // \n    struct DurationRateInfo {\n      uint256 duration;\n      uint256 rate; // rate, per input token to amount of output token\n    }\n    // \n    struct TokenVestingInfo {\n        address burnerToken;\n        uint256 burnedAmount;\n        uint256 receiveAmount;\n        address[] vestingAddress;\n    }\n    // \n    mapping(uint256 => DurationRateInfo) public durationRateList;\n    // \n    mapping(address => TokenVestingInfo) public tokenVestingList;\n\n    /**********  *********/\n    constructor(\n        address _token, // \n        address _tokenWallet, // \n        address payable _wallet, // ETH\n        uint256 _cap, // , ether, wei\n        uint256 _minBurnForgingAmount,\n        uint256 _stageCliffUnit\n    )\n        BurnForging(_wallet, _token) {\n        require(_tokenWallet != address(0), \"AllowanceBurnForging: token wallet is the zero address\");\n        require(_cap > 0, \"CappedBurnForging: cap is 0\");\n        require(_minBurnForgingAmount > 0, \"BecomeCGN: The minimum combustion forging amount is greater than 0\");\n\n        tokenWallet = _tokenWallet;\n        cap = _cap * (10**uint256(18));\n        minBurnForgingAmount = _minBurnForgingAmount * (10**uint256(18));\n        stageCliffUnit = _stageCliffUnit;\n    }\n\n    /**********  *********/\n    // \n    function setCap(uint256 amount) public onlyOwner {\n        cap = amount;\n    }\n    // \n    function setMinBurnForgingAmount(uint256 amount) public onlyOwner {\n        require(amount <= cap, \"BecomeCGN: The minimum forging amount must be less than the cap\");\n        minBurnForgingAmount = amount;\n    }\n    // \n    function setDurationRate(uint256 duration, uint256 rate) public onlyOwner {\n        require(duration >= 1, \"BecomeCGN: duration value invaild\");\n        require(rate > 0, 'BecomeCGN: rate is greater than 0');\n        DurationRateInfo storage info = durationRateList[duration];\n        info.duration = duration;\n        info.rate = rate;\n    }\n    // \n    function setStageCliffUnit(uint256 timeUnit) public onlyOwner {\n        stageCliffUnit = timeUnit;\n    }\n\n    /**********  *********/\n    // \n    // \n    function _preValidateBurn(address burner, uint256 burnedAmount) internal override view {\n        super._preValidateBurn(burner, burnedAmount);\n        require(burnedTotalAmount.add(burnedAmount) <= cap, \"CappedBurnForging: cap exceeded\");\n        require(burnedAmount >= minBurnForgingAmount, 'BecomeCGN: The minimum forging amount does not meet the requirements');\n    }\n\n    // \n    function _getOutTokenAmount(uint256 burnedAmount, uint256 duration) internal override view returns (uint256) {\n        DurationRateInfo memory info = durationRateList[duration];\n        uint256 rate = 0;\n        if (info.duration != 0) {\n            rate = info.rate;\n        }\n        return burnedAmount.mul(rate).div(rateDenominator);\n    }\n\n    /**********  *********/\n    /**\n     * @dev Checks whether the cap has been reached.\n     * @return Whether the cap was reached\n     */\n    function capReached() public view returns (bool) {\n        return burnedTotalAmount >= cap;\n    }\n\n    /**\n     * @dev Checks the amount of tokens left in the allowance.\n     * @return Amount of tokens left in the allowance\n     */\n    function remainingTokens() public view returns (uint256) {\n        return Math.min(IERC20(token).balanceOf(tokenWallet), IERC20(token).allowance(tokenWallet, address(this)));\n    }\n\n    /**\n     * @dev get vestingAddress list from the tokenVestingList\n     */\n    function getTokenVestingAddressByAccount(address account) public view returns (address[] memory) {\n        TokenVestingInfo storage info = tokenVestingList[account];\n        return info.vestingAddress;\n    }\n\n    /**********  *********/\n    // \n    function _deliverTokens(address burner, uint256 duration, uint256 burnedAmount, uint256 receiveAmount) internal override {\n        address vestingToken = address(new TokenVestingBurnForging(\n            burner, // \n            block.timestamp, // \n            duration, // \n            stageCliffUnit, // \n            burnedAmount, // \n            receiveAmount // \n        ));\n        TokenVestingInfo storage info = tokenVestingList[burner];\n        if (info.burnerToken != address(0)) {\n            info.burnedAmount = info.burnedAmount.add(burnedAmount);\n            info.receiveAmount = info.receiveAmount.add(receiveAmount);\n            info.vestingAddress.push(vestingToken);\n        } else {\n            tokenVestingList[burner] = TokenVestingInfo({\n                burnerToken: burner,\n                burnedAmount: burnedAmount,\n                receiveAmount: receiveAmount,\n                vestingAddress: new address[](0)\n            });\n            tokenVestingList[burner].vestingAddress.push(vestingToken);\n        }\n        // \n        IERC20(token).safeTransferFrom(tokenWallet, vestingToken, receiveAmount);\n    }\n}\n",
  "sourcePath": "D:/Workspaces/DaoswapDex/daoswapdex-heco-testnet/core-chn-node/contracts/BecomeCGN.sol",
  "compiler": {
    "name": "solc",
    "version": "0.8.4+commit.c7e474f2.Emscripten.clang"
  },
  "schemaVersion": "3.4.1",
  "updatedAt": "2021-09-09T02:38:41.455Z",
  "networkType": "ethereum",
  "devdoc": {
    "kind": "dev",
    "methods": {
      "capReached()": {
        "details": "Checks whether the cap has been reached.",
        "returns": {
          "_0": "Whether the cap was reached"
        }
      },
      "getTokenVestingAddressByAccount(address)": {
        "details": "get vestingAddress list from the tokenVestingList"
      },
      "owner()": {
        "details": "Returns the address of the current owner."
      },
      "remainingTokens()": {
        "details": "Checks the amount of tokens left in the allowance.",
        "returns": {
          "_0": "Amount of tokens left in the allowance"
        }
      },
      "renounceOwnership()": {
        "details": "Leaves the contract without owner. It will not be possible to call `onlyOwner` functions anymore. Can only be called by the current owner. NOTE: Renouncing ownership will leave the contract without an owner, thereby removing any functionality that is only available to the owner."
      },
      "transferOwnership(address)": {
        "details": "Transfers ownership of the contract to a new account (`newOwner`). Can only be called by the current owner."
      }
    },
    "version": 1
  },
  "userdoc": {
    "events": {
      "TokensBurn(address,uint256,uint256)": {
        "notice": "Event for token burn logging"
      }
    },
    "kind": "user",
    "methods": {},
    "version": 1
  }
}