{
  "contractName": "BecomeCGN",
  "abi": [
    {
      "inputs": [
        {
          "internalType": "address",
          "name": "_token",
          "type": "address"
        },
        {
          "internalType": "address",
          "name": "_tokenWallet",
          "type": "address"
        },
        {
          "internalType": "address payable",
          "name": "_wallet",
          "type": "address"
        },
        {
          "internalType": "uint256",
          "name": "_cap",
          "type": "uint256"
        },
        {
          "internalType": "uint256",
          "name": "_minBurnForgingAmount",
          "type": "uint256"
        },
        {
          "internalType": "uint256",
          "name": "_stageCliffUnit",
          "type": "uint256"
        }
      ],
      "stateMutability": "nonpayable",
      "type": "constructor"
    },
    {
      "anonymous": false,
      "inputs": [
        {
          "indexed": true,
          "internalType": "address",
          "name": "previousOwner",
          "type": "address"
        },
        {
          "indexed": true,
          "internalType": "address",
          "name": "newOwner",
          "type": "address"
        }
      ],
      "name": "OwnershipTransferred",
      "type": "event"
    },
    {
      "anonymous": false,
      "inputs": [
        {
          "indexed": true,
          "internalType": "address",
          "name": "burner",
          "type": "address"
        },
        {
          "indexed": false,
          "internalType": "uint256",
          "name": "value",
          "type": "uint256"
        },
        {
          "indexed": false,
          "internalType": "uint256",
          "name": "amount",
          "type": "uint256"
        }
      ],
      "name": "TokensBurn",
      "type": "event"
    },
    {
      "stateMutability": "nonpayable",
      "type": "fallback"
    },
    {
      "inputs": [],
      "name": "burnedTotalAmount",
      "outputs": [
        {
          "internalType": "uint256",
          "name": "",
          "type": "uint256"
        }
      ],
      "stateMutability": "view",
      "type": "function",
      "constant": true
    },
    {
      "inputs": [],
      "name": "cap",
      "outputs": [
        {
          "internalType": "uint256",
          "name": "",
          "type": "uint256"
        }
      ],
      "stateMutability": "view",
      "type": "function",
      "constant": true
    },
    {
      "inputs": [
        {
          "internalType": "uint256",
          "name": "",
          "type": "uint256"
        }
      ],
      "name": "durationRateList",
      "outputs": [
        {
          "internalType": "uint256",
          "name": "duration",
          "type": "uint256"
        },
        {
          "internalType": "uint256",
          "name": "rate",
          "type": "uint256"
        }
      ],
      "stateMutability": "view",
      "type": "function",
      "constant": true
    },
    {
      "inputs": [
        {
          "internalType": "uint256",
          "name": "amount",
          "type": "uint256"
        },
        {
          "internalType": "uint256",
          "name": "duration",
          "type": "uint256"
        }
      ],
      "name": "forgingTokens",
      "outputs": [],
      "stateMutability": "payable",
      "type": "function",
      "payable": true
    },
    {
      "inputs": [],
      "name": "minBurnForgingAmount",
      "outputs": [
        {
          "internalType": "uint256",
          "name": "",
          "type": "uint256"
        }
      ],
      "stateMutability": "view",
      "type": "function",
      "constant": true
    },
    {
      "inputs": [],
      "name": "owner",
      "outputs": [
        {
          "internalType": "address",
          "name": "",
          "type": "address"
        }
      ],
      "stateMutability": "view",
      "type": "function",
      "constant": true
    },
    {
      "inputs": [],
      "name": "rateDenominator",
      "outputs": [
        {
          "internalType": "uint256",
          "name": "",
          "type": "uint256"
        }
      ],
      "stateMutability": "view",
      "type": "function",
      "constant": true
    },
    {
      "inputs": [],
      "name": "renounceOwnership",
      "outputs": [],
      "stateMutability": "nonpayable",
      "type": "function"
    },
    {
      "inputs": [],
      "name": "stageCliffUnit",
      "outputs": [
        {
          "internalType": "uint256",
          "name": "",
          "type": "uint256"
        }
      ],
      "stateMutability": "view",
      "type": "function",
      "constant": true
    },
    {
      "inputs": [],
      "name": "token",
      "outputs": [
        {
          "internalType": "address",
          "name": "",
          "type": "address"
        }
      ],
      "stateMutability": "view",
      "type": "function",
      "constant": true
    },
    {
      "inputs": [
        {
          "internalType": "address",
          "name": "",
          "type": "address"
        }
      ],
      "name": "tokenVestingList",
      "outputs": [
        {
          "internalType": "address",
          "name": "burnerToken",
          "type": "address"
        },
        {
          "internalType": "uint256",
          "name": "burnedAmount",
          "type": "uint256"
        },
        {
          "internalType": "uint256",
          "name": "receiveAmount",
          "type": "uint256"
        }
      ],
      "stateMutability": "view",
      "type": "function",
      "constant": true
    },
    {
      "inputs": [],
      "name": "tokenWallet",
      "outputs": [
        {
          "internalType": "address",
          "name": "",
          "type": "address"
        }
      ],
      "stateMutability": "view",
      "type": "function",
      "constant": true
    },
    {
      "inputs": [
        {
          "internalType": "address",
          "name": "newOwner",
          "type": "address"
        }
      ],
      "name": "transferOwnership",
      "outputs": [],
      "stateMutability": "nonpayable",
      "type": "function"
    },
    {
      "inputs": [],
      "name": "wallet",
      "outputs": [
        {
          "internalType": "address payable",
          "name": "",
          "type": "address"
        }
      ],
      "stateMutability": "view",
      "type": "function",
      "constant": true
    },
    {
      "stateMutability": "payable",
      "type": "receive",
      "payable": true
    },
    {
      "inputs": [
        {
          "internalType": "uint256",
          "name": "amount",
          "type": "uint256"
        }
      ],
      "name": "setCap",
      "outputs": [],
      "stateMutability": "nonpayable",
      "type": "function"
    },
    {
      "inputs": [
        {
          "internalType": "uint256",
          "name": "amount",
          "type": "uint256"
        }
      ],
      "name": "setMinBurnForgingAmount",
      "outputs": [],
      "stateMutability": "nonpayable",
      "type": "function"
    },
    {
      "inputs": [
        {
          "internalType": "uint256",
          "name": "duration",
          "type": "uint256"
        },
        {
          "internalType": "uint256",
          "name": "rate",
          "type": "uint256"
        }
      ],
      "name": "setDurationRate",
      "outputs": [],
      "stateMutability": "nonpayable",
      "type": "function"
    },
    {
      "inputs": [
        {
          "internalType": "uint256",
          "name": "timeUnit",
          "type": "uint256"
        }
      ],
      "name": "setStageCliffUnit",
      "outputs": [],
      "stateMutability": "nonpayable",
      "type": "function"
    },
    {
      "inputs": [],
      "name": "getBurnerMemberList",
      "outputs": [
        {
          "internalType": "address[]",
          "name": "",
          "type": "address[]"
        }
      ],
      "stateMutability": "view",
      "type": "function",
      "constant": true
    },
    {
      "inputs": [],
      "name": "capReached",
      "outputs": [
        {
          "internalType": "bool",
          "name": "",
          "type": "bool"
        }
      ],
      "stateMutability": "view",
      "type": "function",
      "constant": true
    },
    {
      "inputs": [],
      "name": "remainingTokens",
      "outputs": [
        {
          "internalType": "uint256",
          "name": "",
          "type": "uint256"
        }
      ],
      "stateMutability": "view",
      "type": "function",
      "constant": true
    },
    {
      "inputs": [
        {
          "internalType": "address",
          "name": "account",
          "type": "address"
        }
      ],
      "name": "getTokenVestingAddressByAccount",
      "outputs": [
        {
          "internalType": "address[]",
          "name": "",
          "type": "address[]"
        }
      ],
      "stateMutability": "view",
      "type": "function",
      "constant": true
    }
  ],
  "bytecode": "0x60806040523480156200001157600080fd5b50604051620053ad380380620053ad8339818101604052810190620000379190620004b5565b8386620000596200004d620003a460201b60201c565b620003ac60201b60201c565b60018081905550600073ffffffffffffffffffffffffffffffffffffffff168273ffffffffffffffffffffffffffffffffffffffff161415620000d3576040517f08c379a0000000000000000000000000000000000000000000000000000000008152600401620000ca9062000674565b60405180910390fd5b600073ffffffffffffffffffffffffffffffffffffffff168173ffffffffffffffffffffffffffffffffffffffff16141562000146576040517f08c379a00000000000000000000000000000000000000000000000000000000081526004016200013d9062000630565b60405180910390fd5b81600260006101000a81548173ffffffffffffffffffffffffffffffffffffffff021916908373ffffffffffffffffffffffffffffffffffffffff16021790555080600360006101000a81548173ffffffffffffffffffffffffffffffffffffffff021916908373ffffffffffffffffffffffffffffffffffffffff16021790555080600460006101000a81548173ffffffffffffffffffffffffffffffffffffffff021916908373ffffffffffffffffffffffffffffffffffffffff1602179055505050600073ffffffffffffffffffffffffffffffffffffffff168573ffffffffffffffffffffffffffffffffffffffff1614156200027e576040517f08c379a000000000000000000000000000000000000000000000000000000000815260040162000275906200060e565b60405180910390fd5b60008311620002c4576040517f08c379a0000000000000000000000000000000000000000000000000000000008152600401620002bb9062000696565b60405180910390fd5b600082116200030a576040517f08c379a0000000000000000000000000000000000000000000000000000000008152600401620003019062000652565b60405180910390fd5b84600960006101000a81548173ffffffffffffffffffffffffffffffffffffffff021916908373ffffffffffffffffffffffffffffffffffffffff1602179055506012600a6200035b919062000724565b8362000368919062000861565b6006819055506012600a6200037e919062000724565b826200038b919062000861565b6007819055508060088190555050505050505062000b29565b600033905090565b60008060009054906101000a900473ffffffffffffffffffffffffffffffffffffffff169050816000806101000a81548173ffffffffffffffffffffffffffffffffffffffff021916908373ffffffffffffffffffffffffffffffffffffffff1602179055508173ffffffffffffffffffffffffffffffffffffffff168173ffffffffffffffffffffffffffffffffffffffff167f8be0079c531659141344cd1fd0a4f28419497f9722a3daafe3b4186f6b6457e060405160405180910390a35050565b600081519050620004818162000adb565b92915050565b600081519050620004988162000af5565b92915050565b600081519050620004af8162000b0f565b92915050565b60008060008060008060c08789031215620004cf57600080fd5b6000620004df89828a0162000470565b9650506020620004f289828a0162000470565b95505060406200050589828a0162000487565b94505060606200051889828a016200049e565b93505060806200052b89828a016200049e565b92505060a06200053e89828a016200049e565b9150509295509295509295565b60006200055a603683620006b8565b9150620005678262000950565b604082019050919050565b600062000581602683620006b8565b91506200058e826200099f565b604082019050919050565b6000620005a8604283620006b8565b9150620005b582620009ee565b606082019050919050565b6000620005cf602783620006b8565b9150620005dc8262000a63565b604082019050919050565b6000620005f6601b83620006b8565b9150620006038262000ab2565b602082019050919050565b6000602082019050818103600083015262000629816200054b565b9050919050565b600060208201905081810360008301526200064b8162000572565b9050919050565b600060208201905081810360008301526200066d8162000599565b9050919050565b600060208201905081810360008301526200068f81620005c0565b9050919050565b60006020820190508181036000830152620006b181620005e7565b9050919050565b600082825260208201905092915050565b6000808291508390505b60018511156200071b57808604811115620006f357620006f262000914565b5b6001851615620007035780820291505b8081029050620007138562000943565b9450620006d3565b94509492505050565b600062000731826200090a565b91506200073e836200090a565b92506200076d7fffffffffffffffffffffffffffffffffffffffffffffffffffffffffffffffff848462000775565b905092915050565b6000826200078757600190506200085a565b816200079757600090506200085a565b8160018114620007b05760028114620007bb57620007f1565b60019150506200085a565b60ff841115620007d057620007cf62000914565b5b8360020a915084821115620007ea57620007e962000914565b5b506200085a565b5060208310610133831016604e8410600b84101617156200082b5782820a90508381111562000825576200082462000914565b5b6200085a565b6200083a8484846001620006c9565b9250905081840481111562000854576200085362000914565b5b81810290505b9392505050565b60006200086e826200090a565b91506200087b836200090a565b9250817fffffffffffffffffffffffffffffffffffffffffffffffffffffffffffffffff0483118215151615620008b757620008b662000914565b5b828202905092915050565b6000620008cf82620008ea565b9050919050565b6000620008e382620008ea565b9050919050565b600073ffffffffffffffffffffffffffffffffffffffff82169050919050565b6000819050919050565b7f4e487b7100000000000000000000000000000000000000000000000000000000600052601160045260246000fd5b60008160011c9050919050565b7f416c6c6f77616e63654275726e466f7267696e673a20746f6b656e2077616c6c60008201527f657420697320746865207a65726f206164647265737300000000000000000000602082015250565b7f4275726e466f7267696e673a20746f6b656e20697320746865207a65726f206160008201527f6464726573730000000000000000000000000000000000000000000000000000602082015250565b7f4265636f6d6543474e3a20546865206d696e696d756d20636f6d62757374696f60008201527f6e20666f7267696e6720616d6f756e742069732067726561746572207468616e60208201527f2030000000000000000000000000000000000000000000000000000000000000604082015250565b7f4275726e466f7267696e673a2077616c6c657420697320746865207a65726f2060008201527f6164647265737300000000000000000000000000000000000000000000000000602082015250565b7f4361707065644275726e466f7267696e673a2063617020697320300000000000600082015250565b62000ae681620008c2565b811462000af257600080fd5b50565b62000b0081620008d6565b811462000b0c57600080fd5b50565b62000b1a816200090a565b811462000b2657600080fd5b50565b6148748062000b396000396000f3fe608060405260043610620001575760003560e01c80638da5cb5b11620000bb578063bff99c6c1162000079578063bff99c6c146200045f578063c5ff31b7146200048f578063eac11b2f14620004bf578063f263f48f1462000505578063f2fde38b146200054a578063fc0c546a14620005785762000169565b80638da5cb5b1462000371578063978cd71e14620003a1578063afce1ecb14620003cf578063b9cc737014620003ff578063bf583903146200042f5762000169565b806347786d37116200011557806347786d37146200026b5780634f9359451462000299578063521eb27314620002c957806358e0ae1914620002f9578063715018a61462000327578063865192f714620003415762000169565b8063225a5a9f146200017957806322ac3f5014620001bd578063355274ea14620001ed5780633ee7e68d146200021d57806343daf83b146200023d5762000169565b36620001695762000167620005a8565b005b3480156200017657600080fd5b50005b3480156200018657600080fd5b50620001a560048036038101906200019f919062001e4f565b62000614565b604051620001b4919062002447565b60405180910390f35b348015620001ca57600080fd5b50620001d5620006ec565b604051620001e4919062002688565b60405180910390f35b348015620001fa57600080fd5b5062000205620006f2565b60405162000214919062002688565b60405180910390f35b6200023b600480360381019062000235919062001eff565b620006f8565b005b3480156200024a57600080fd5b5062000269600480360381019062000263919062001eff565b620008b2565b005b3480156200027857600080fd5b5062000297600480360381019062000291919062001ea7565b620009f0565b005b348015620002a657600080fd5b50620002b162000a7d565b604051620002c091906200246b565b60405180910390f35b348015620002d657600080fd5b50620002e162000a8c565b604051620002f09190620022e9565b60405180910390f35b3480156200030657600080fd5b506200032560048036038101906200031f919062001ea7565b62000ab2565b005b3480156200033457600080fd5b506200033f62000b87565b005b3480156200034e57600080fd5b506200035962000c18565b60405162000368919062002688565b60405180910390f35b3480156200037e57600080fd5b506200038962000c1e565b604051620003989190620022cc565b60405180910390f35b348015620003ae57600080fd5b50620003cd6004803603810190620003c7919062001ea7565b62000c47565b005b348015620003dc57600080fd5b50620003e762000cd4565b604051620003f6919062002688565b60405180910390f35b3480156200040c57600080fd5b506200041762000cda565b60405162000426919062002688565b60405180910390f35b3480156200043c57600080fd5b506200044762000ce0565b60405162000456919062002688565b60405180910390f35b3480156200046c57600080fd5b506200047762000e99565b604051620004869190620022cc565b60405180910390f35b3480156200049c57600080fd5b50620004a762000ebf565b604051620004b6919062002447565b60405180910390f35b348015620004cc57600080fd5b50620004eb6004803603810190620004e5919062001e4f565b62000fd2565b604051620004fc939291906200239d565b60405180910390f35b3480156200051257600080fd5b506200053160048036038101906200052b919062001ea7565b6200101c565b60405162000541929190620026a5565b60405180910390f35b3480156200055757600080fd5b5062000576600480360381019062000570919062001e4f565b62001040565b005b3480156200058557600080fd5b506200059062001144565b6040516200059f9190620022cc565b60405180910390f35b600260009054906101000a900473ffffffffffffffffffffffffffffffffffffffff1673ffffffffffffffffffffffffffffffffffffffff166108fc349081150290604051600060405180830381858888f1935050505015801562000611573d6000803e3d6000fd5b50565b60606000600c60008473ffffffffffffffffffffffffffffffffffffffff1673ffffffffffffffffffffffffffffffffffffffff168152602001908152602001600020905080600301805480602002602001604051908101604052809291908181526020018280548015620006df57602002820191906000526020600020905b8160009054906101000a900473ffffffffffffffffffffffffffffffffffffffff1673ffffffffffffffffffffffffffffffffffffffff168152602001906001019080831162000694575b5050505050915050919050565b60085481565b60065481565b6002600154141562000741576040517f08c379a0000000000000000000000000000000000000000000000000000000008152600401620007389062002666565b60405180910390fd5b60026001819055506000620007556200116a565b905062000763818462001172565b600062000771848462001228565b90506200078a84600554620012aa90919063ffffffff16565b600581905550600460009054906101000a900473ffffffffffffffffffffffffffffffffffffffff1673ffffffffffffffffffffffffffffffffffffffff166379cc679083866040518363ffffffff1660e01b8152600401620007ef92919062002370565b600060405180830381600087803b1580156200080a57600080fd5b505af11580156200081f573d6000803e3d6000fd5b505050506200083182848684620012c2565b6200083b6200116a565b73ffffffffffffffffffffffffffffffffffffffff167f5bcd58905b4ec4fa57f77063ba59a9926e746b27990530ef39cc136c675dd730858360405162000884929190620026a5565b60405180910390a262000899828583620012d6565b620008a58285620012db565b5050600180819055505050565b620008bc6200116a565b73ffffffffffffffffffffffffffffffffffffffff16620008dc62000c1e565b73ffffffffffffffffffffffffffffffffffffffff161462000935576040517f08c379a00000000000000000000000000000000000000000000000000000000081526004016200092c9062002578565b60405180910390fd5b60018210156200097c576040517f08c379a0000000000000000000000000000000000000000000000000000000008152600401620009739062002534565b60405180910390fd5b60008111620009c2576040517f08c379a0000000000000000000000000000000000000000000000000000000008152600401620009b990620025de565b60405180910390fd5b6000600b60008481526020019081526020016000209050828160000181905550818160010181905550505050565b620009fa6200116a565b73ffffffffffffffffffffffffffffffffffffffff1662000a1a62000c1e565b73ffffffffffffffffffffffffffffffffffffffff161462000a73576040517f08c379a000000000000000000000000000000000000000000000000000000000815260040162000a6a9062002578565b60405180910390fd5b8060068190555050565b60006006546005541015905090565b600260009054906101000a900473ffffffffffffffffffffffffffffffffffffffff1681565b62000abc6200116a565b73ffffffffffffffffffffffffffffffffffffffff1662000adc62000c1e565b73ffffffffffffffffffffffffffffffffffffffff161462000b35576040517f08c379a000000000000000000000000000000000000000000000000000000000815260040162000b2c9062002578565b60405180910390fd5b60065481111562000b7d576040517f08c379a000000000000000000000000000000000000000000000000000000000815260040162000b74906200259a565b60405180910390fd5b8060078190555050565b62000b916200116a565b73ffffffffffffffffffffffffffffffffffffffff1662000bb162000c1e565b73ffffffffffffffffffffffffffffffffffffffff161462000c0a576040517f08c379a000000000000000000000000000000000000000000000000000000000815260040162000c019062002578565b60405180910390fd5b62000c166000620012df565b565b6103e881565b60008060009054906101000a900473ffffffffffffffffffffffffffffffffffffffff16905090565b62000c516200116a565b73ffffffffffffffffffffffffffffffffffffffff1662000c7162000c1e565b73ffffffffffffffffffffffffffffffffffffffff161462000cca576040517f08c379a000000000000000000000000000000000000000000000000000000000815260040162000cc19062002578565b60405180910390fd5b8060088190555050565b60075481565b60055481565b600062000e94600360009054906101000a900473ffffffffffffffffffffffffffffffffffffffff1673ffffffffffffffffffffffffffffffffffffffff166370a08231600960009054906101000a900473ffffffffffffffffffffffffffffffffffffffff166040518263ffffffff1660e01b815260040162000d659190620022cc565b60206040518083038186803b15801562000d7e57600080fd5b505afa15801562000d93573d6000803e3d6000fd5b505050506040513d601f19601f8201168201806040525081019062000db9919062001ed3565b600360009054906101000a900473ffffffffffffffffffffffffffffffffffffffff1673ffffffffffffffffffffffffffffffffffffffff1663dd62ed3e600960009054906101000a900473ffffffffffffffffffffffffffffffffffffffff16306040518363ffffffff1660e01b815260040162000e3a92919062002306565b60206040518083038186803b15801562000e5357600080fd5b505afa15801562000e68573d6000803e3d6000fd5b505050506040513d601f19601f8201168201806040525081019062000e8e919062001ed3565b620013a3565b905090565b600960009054906101000a900473ffffffffffffffffffffffffffffffffffffffff1681565b606062000ecb6200116a565b73ffffffffffffffffffffffffffffffffffffffff1662000eeb62000c1e565b73ffffffffffffffffffffffffffffffffffffffff161462000f44576040517f08c379a000000000000000000000000000000000000000000000000000000000815260040162000f3b9062002578565b60405180910390fd5b600a80548060200260200160405190810160405280929190818152602001828054801562000fc857602002820191906000526020600020905b8160009054906101000a900473ffffffffffffffffffffffffffffffffffffffff1673ffffffffffffffffffffffffffffffffffffffff168152602001906001019080831162000f7d575b5050505050905090565b600c6020528060005260406000206000915090508060000160009054906101000a900473ffffffffffffffffffffffffffffffffffffffff16908060010154908060020154905083565b600b6020528060005260406000206000915090508060000154908060010154905082565b6200104a6200116a565b73ffffffffffffffffffffffffffffffffffffffff166200106a62000c1e565b73ffffffffffffffffffffffffffffffffffffffff1614620010c3576040517f08c379a0000000000000000000000000000000000000000000000000000000008152600401620010ba9062002578565b60405180910390fd5b600073ffffffffffffffffffffffffffffffffffffffff168173ffffffffffffffffffffffffffffffffffffffff16141562001136576040517f08c379a00000000000000000000000000000000000000000000000000000000081526004016200112d90620024ac565b60405180910390fd5b6200114181620012df565b50565b600360009054906101000a900473ffffffffffffffffffffffffffffffffffffffff1681565b600033905090565b6200117e8282620013be565b6006546200119882600554620012aa90919063ffffffff16565b1115620011dc576040517f08c379a0000000000000000000000000000000000000000000000000000000008152600401620011d390620025bc565b60405180910390fd5b60075481101562001224576040517f08c379a00000000000000000000000000000000000000000000000000000000081526004016200121b9062002622565b60405180910390fd5b5050565b600080600b60008481526020019081526020016000206040518060400160405290816000820154815260200160018201548152505090506000808260000151146200127557816020015190505b620012a06103e86200129183886200157890919063ffffffff16565b6200159090919063ffffffff16565b9250505092915050565b60008183620012ba91906200273d565b905092915050565b620012d084848484620015a8565b50505050565b505050565b5050565b60008060009054906101000a900473ffffffffffffffffffffffffffffffffffffffff169050816000806101000a81548173ffffffffffffffffffffffffffffffffffffffff021916908373ffffffffffffffffffffffffffffffffffffffff1602179055508173ffffffffffffffffffffffffffffffffffffffff168173ffffffffffffffffffffffffffffffffffffffff167f8be0079c531659141344cd1fd0a4f28419497f9722a3daafe3b4186f6b6457e060405160405180910390a35050565b6000818310620013b45781620013b6565b825b905092915050565b600073ffffffffffffffffffffffffffffffffffffffff168273ffffffffffffffffffffffffffffffffffffffff16141562001431576040517f08c379a00000000000000000000000000000000000000000000000000000000081526004016200142890620024ce565b60405180910390fd5b600081141562001478576040517f08c379a00000000000000000000000000000000000000000000000000000000081526004016200146f9062002556565b60405180910390fd5b6000600460009054906101000a900473ffffffffffffffffffffffffffffffffffffffff1673ffffffffffffffffffffffffffffffffffffffff166370a08231846040518263ffffffff1660e01b8152600401620014d79190620022cc565b60206040518083038186803b158015620014f057600080fd5b505afa15801562001505573d6000803e3d6000fd5b505050506040513d601f19601f820116820180604052508101906200152b919062001ed3565b90508082111562001573576040517f08c379a00000000000000000000000000000000000000000000000000000000081526004016200156a90620024f0565b60405180910390fd5b505050565b60008183620015889190620027d2565b905092915050565b60008183620015a091906200279a565b905092915050565b60008442856008548686604051620015c09062001d37565b620015d196959493929190620023da565b604051809103906000f080158015620015ee573d6000803e3d6000fd5b5090506000600c60008773ffffffffffffffffffffffffffffffffffffffff1673ffffffffffffffffffffffffffffffffffffffff1681526020019081526020016000209050600073ffffffffffffffffffffffffffffffffffffffff168160000160009054906101000a900473ffffffffffffffffffffffffffffffffffffffff1673ffffffffffffffffffffffffffffffffffffffff16146200173a57620016a6848260010154620012aa90919063ffffffff16565b8160010181905550620016c7838260020154620012aa90919063ffffffff16565b816002018190555080600301829080600181540180825580915050600190039060005260206000200160009091909190916101000a81548173ffffffffffffffffffffffffffffffffffffffff021916908373ffffffffffffffffffffffffffffffffffffffff160217905550620019a5565b60405180608001604052808773ffffffffffffffffffffffffffffffffffffffff168152602001858152602001848152602001600067ffffffffffffffff811115620017af577f4e487b7100000000000000000000000000000000000000000000000000000000600052604160045260246000fd5b604051908082528060200260200182016040528015620017de5781602001602082028036833780820191505090505b50815250600c60008873ffffffffffffffffffffffffffffffffffffffff1673ffffffffffffffffffffffffffffffffffffffff16815260200190815260200160002060008201518160000160006101000a81548173ffffffffffffffffffffffffffffffffffffffff021916908373ffffffffffffffffffffffffffffffffffffffff160217905550602082015181600101556040820151816002015560608201518160030190805190602001906200189a92919062001d45565b50905050600c60008773ffffffffffffffffffffffffffffffffffffffff1673ffffffffffffffffffffffffffffffffffffffff168152602001908152602001600020600301829080600181540180825580915050600190039060005260206000200160009091909190916101000a81548173ffffffffffffffffffffffffffffffffffffffff021916908373ffffffffffffffffffffffffffffffffffffffff160217905550600a869080600181540180825580915050600190039060005260206000200160009091909190916101000a81548173ffffffffffffffffffffffffffffffffffffffff021916908373ffffffffffffffffffffffffffffffffffffffff1602179055505b62001a18600960009054906101000a900473ffffffffffffffffffffffffffffffffffffffff168385600360009054906101000a900473ffffffffffffffffffffffffffffffffffffffff1673ffffffffffffffffffffffffffffffffffffffff1662001a20909392919063ffffffff16565b505050505050565b62001aa7846323b872dd60e01b85858560405160240162001a449392919062002333565b604051602081830303815290604052907bffffffffffffffffffffffffffffffffffffffffffffffffffffffff19166020820180517bffffffffffffffffffffffffffffffffffffffffffffffffffffffff838183161783525050505062001aad565b50505050565b600062001b11826040518060400160405280602081526020017f5361666545524332303a206c6f772d6c6576656c2063616c6c206661696c65648152508573ffffffffffffffffffffffffffffffffffffffff1662001b7c9092919063ffffffff16565b905060008151111562001b77578080602001905181019062001b34919062001e7b565b62001b76576040517f08c379a000000000000000000000000000000000000000000000000000000000815260040162001b6d9062002644565b60405180910390fd5b5b505050565b606062001b8d848460008562001b96565b90509392505050565b60608247101562001bde576040517f08c379a000000000000000000000000000000000000000000000000000000000815260040162001bd59062002512565b60405180910390fd5b62001be98562001cb8565b62001c2b576040517f08c379a000000000000000000000000000000000000000000000000000000000815260040162001c229062002600565b60405180910390fd5b6000808673ffffffffffffffffffffffffffffffffffffffff16858760405162001c569190620022b3565b60006040518083038185875af1925050503d806000811462001c95576040519150601f19603f3d011682016040523d82523d6000602084013e62001c9a565b606091505b509150915062001cac82828662001ccb565b92505050949350505050565b600080823b905060008111915050919050565b6060831562001cdd5782905062001d30565b60008351111562001cf15782518084602001fd5b816040517f08c379a000000000000000000000000000000000000000000000000000000000815260040162001d27919062002488565b60405180910390fd5b9392505050565b611b008062002d3f83390190565b82805482825590600052602060002090810192821562001dc1579160200282015b8281111562001dc05782518260006101000a81548173ffffffffffffffffffffffffffffffffffffffff021916908373ffffffffffffffffffffffffffffffffffffffff1602179055509160200191906001019062001d66565b5b50905062001dd0919062001dd4565b5090565b5b8082111562001def57600081600090555060010162001dd5565b5090565b60008135905062001e048162002cf0565b92915050565b60008151905062001e1b8162002d0a565b92915050565b60008135905062001e328162002d24565b92915050565b60008151905062001e498162002d24565b92915050565b60006020828403121562001e6257600080fd5b600062001e728482850162001df3565b91505092915050565b60006020828403121562001e8e57600080fd5b600062001e9e8482850162001e0a565b91505092915050565b60006020828403121562001eba57600080fd5b600062001eca8482850162001e21565b91505092915050565b60006020828403121562001ee657600080fd5b600062001ef68482850162001e38565b91505092915050565b6000806040838503121562001f1357600080fd5b600062001f238582860162001e21565b925050602062001f368582860162001e21565b9150509250929050565b600062001f4e838362001f6b565b60208301905092915050565b62001f658162002847565b82525050565b62001f768162002833565b82525050565b62001f878162002833565b82525050565b600062001f9a82620026e2565b62001fa6818562002710565b935062001fb383620026d2565b8060005b8381101562001fea57815162001fce888262001f40565b975062001fdb8362002703565b92505060018101905062001fb7565b5085935050505092915050565b62002002816200285b565b82525050565b60006200201582620026ed565b62002021818562002721565b93506200203381856020860162002891565b80840191505092915050565b60006200204c82620026f8565b6200205881856200272c565b93506200206a81856020860162002891565b620020758162002925565b840191505092915050565b60006200208f6026836200272c565b91506200209c8262002936565b604082019050919050565b6000620020b66027836200272c565b9150620020c38262002985565b604082019050919050565b6000620020dd6031836200272c565b9150620020ea82620029d4565b604082019050919050565b6000620021046026836200272c565b9150620021118262002a23565b604082019050919050565b60006200212b6021836200272c565b9150620021388262002a72565b604082019050919050565b600062002152601e836200272c565b91506200215f8262002ac1565b602082019050919050565b6000620021796020836200272c565b9150620021868262002aea565b602082019050919050565b6000620021a0603f836200272c565b9150620021ad8262002b13565b604082019050919050565b6000620021c7601f836200272c565b9150620021d48262002b62565b602082019050919050565b6000620021ee6021836200272c565b9150620021fb8262002b8b565b604082019050919050565b600062002215601d836200272c565b9150620022228262002bda565b602082019050919050565b60006200223c6044836200272c565b9150620022498262002c03565b606082019050919050565b600062002263602a836200272c565b9150620022708262002c78565b604082019050919050565b60006200228a601f836200272c565b9150620022978262002cc7565b602082019050919050565b620022ad8162002887565b82525050565b6000620022c1828462002008565b915081905092915050565b6000602082019050620022e3600083018462001f7c565b92915050565b600060208201905062002300600083018462001f5a565b92915050565b60006040820190506200231d600083018562001f7c565b6200232c602083018462001f7c565b9392505050565b60006060820190506200234a600083018662001f7c565b62002359602083018562001f7c565b620023686040830184620022a2565b949350505050565b600060408201905062002387600083018562001f7c565b620023966020830184620022a2565b9392505050565b6000606082019050620023b4600083018662001f7c565b620023c36020830185620022a2565b620023d26040830184620022a2565b949350505050565b600060c082019050620023f1600083018962001f7c565b620024006020830188620022a2565b6200240f6040830187620022a2565b6200241e6060830186620022a2565b6200242d6080830185620022a2565b6200243c60a0830184620022a2565b979650505050505050565b6000602082019050818103600083015262002463818462001f8d565b905092915050565b600060208201905062002482600083018462001ff7565b92915050565b60006020820190508181036000830152620024a481846200203f565b905092915050565b60006020820190508181036000830152620024c78162002080565b9050919050565b60006020820190508181036000830152620024e981620020a7565b9050919050565b600060208201905081810360008301526200250b81620020ce565b9050919050565b600060208201905081810360008301526200252d81620020f5565b9050919050565b600060208201905081810360008301526200254f816200211c565b9050919050565b60006020820190508181036000830152620025718162002143565b9050919050565b6000602082019050818103600083015262002593816200216a565b9050919050565b60006020820190508181036000830152620025b58162002191565b9050919050565b60006020820190508181036000830152620025d781620021b8565b9050919050565b60006020820190508181036000830152620025f981620021df565b9050919050565b600060208201905081810360008301526200261b8162002206565b9050919050565b600060208201905081810360008301526200263d816200222d565b9050919050565b600060208201905081810360008301526200265f8162002254565b9050919050565b6000602082019050818103600083015262002681816200227b565b9050919050565b60006020820190506200269f6000830184620022a2565b92915050565b6000604082019050620026bc6000830185620022a2565b620026cb6020830184620022a2565b9392505050565b6000819050602082019050919050565b600081519050919050565b600081519050919050565b600081519050919050565b6000602082019050919050565b600082825260208201905092915050565b600081905092915050565b600082825260208201905092915050565b60006200274a8262002887565b9150620027578362002887565b9250827fffffffffffffffffffffffffffffffffffffffffffffffffffffffffffffffff038211156200278f576200278e620028c7565b5b828201905092915050565b6000620027a78262002887565b9150620027b48362002887565b925082620027c757620027c6620028f6565b5b828204905092915050565b6000620027df8262002887565b9150620027ec8362002887565b9250817fffffffffffffffffffffffffffffffffffffffffffffffffffffffffffffffff0483118215151615620028285762002827620028c7565b5b828202905092915050565b6000620028408262002867565b9050919050565b6000620028548262002867565b9050919050565b60008115159050919050565b600073ffffffffffffffffffffffffffffffffffffffff82169050919050565b6000819050919050565b60005b83811015620028b157808201518184015260208101905062002894565b83811115620028c1576000848401525b50505050565b7f4e487b7100000000000000000000000000000000000000000000000000000000600052601160045260246000fd5b7f4e487b7100000000000000000000000000000000000000000000000000000000600052601260045260246000fd5b6000601f19601f8301169050919050565b7f4f776e61626c653a206e6577206f776e657220697320746865207a65726f206160008201527f6464726573730000000000000000000000000000000000000000000000000000602082015250565b7f4275726e466f7267696e673a206275726e657220697320746865207a65726f2060008201527f6164647265737300000000000000000000000000000000000000000000000000602082015250565b7f4275726e466f7267696e673a20546865206275726e6564416d6f756e7420657860008201527f6365656473207468652062616c616e6365000000000000000000000000000000602082015250565b7f416464726573733a20696e73756666696369656e742062616c616e636520666f60008201527f722063616c6c0000000000000000000000000000000000000000000000000000602082015250565b7f4265636f6d6543474e3a206475726174696f6e2076616c756520696e7661696c60008201527f6400000000000000000000000000000000000000000000000000000000000000602082015250565b7f4275726e466f7267696e673a206275726e6564416d6f756e7420697320300000600082015250565b7f4f776e61626c653a2063616c6c6572206973206e6f7420746865206f776e6572600082015250565b7f4265636f6d6543474e3a20546865206d696e696d756d20666f7267696e67206160008201527f6d6f756e74206d757374206265206c657373207468616e207468652063617000602082015250565b7f4361707065644275726e466f7267696e673a2063617020657863656564656400600082015250565b7f4265636f6d6543474e3a20726174652069732067726561746572207468616e2060008201527f3000000000000000000000000000000000000000000000000000000000000000602082015250565b7f416464726573733a2063616c6c20746f206e6f6e2d636f6e7472616374000000600082015250565b7f4265636f6d6543474e3a20546865206d696e696d756d20666f7267696e67206160008201527f6d6f756e7420646f6573206e6f74206d6565742074686520726571756972656d60208201527f656e747300000000000000000000000000000000000000000000000000000000604082015250565b7f5361666545524332303a204552433230206f7065726174696f6e20646964206e60008201527f6f74207375636365656400000000000000000000000000000000000000000000602082015250565b7f5265656e7472616e637947756172643a207265656e7472616e742063616c6c00600082015250565b62002cfb8162002833565b811462002d0757600080fd5b50565b62002d15816200285b565b811462002d2157600080fd5b50565b62002d2f8162002887565b811462002d3b57600080fd5b5056fe608060405260646005553480156200001657600080fd5b5060405162001b0038038062001b0083398181016040528101906200003c9190620002f5565b6200005c62000050620001e360201b60201c565b620001eb60201b60201c565b600073ffffffffffffffffffffffffffffffffffffffff168673ffffffffffffffffffffffffffffffffffffffff161415620000cf576040517f08c379a0000000000000000000000000000000000000000000000000000000008152600401620000c69062000422565b60405180910390fd5b42620000ea8587620002af60201b620006eb1790919060201c565b116200012d576040517f08c379a0000000000000000000000000000000000000000000000000000000008152600401620001249062000400565b60405180910390fd5b8284101562000173576040517f08c379a00000000000000000000000000000000000000000000000000000000081526004016200016a9062000444565b60405180910390fd5b85600160006101000a81548173ffffffffffffffffffffffffffffffffffffffff021916908373ffffffffffffffffffffffffffffffffffffffff160217905550846002819055508360038190555082600481905550816006819055508060078190555050505050505062000662565b600033905090565b60008060009054906101000a900473ffffffffffffffffffffffffffffffffffffffff169050816000806101000a81548173ffffffffffffffffffffffffffffffffffffffff021916908373ffffffffffffffffffffffffffffffffffffffff1602179055508173ffffffffffffffffffffffffffffffffffffffff168173ffffffffffffffffffffffffffffffffffffffff167f8be0079c531659141344cd1fd0a4f28419497f9722a3daafe3b4186f6b6457e060405160405180910390a35050565b60008183620002bf919062000477565b905092915050565b600081519050620002d8816200062e565b92915050565b600081519050620002ef8162000648565b92915050565b60008060008060008060c087890312156200030f57600080fd5b60006200031f89828a01620002c7565b96505060206200033289828a01620002de565b95505060406200034589828a01620002de565b94505060606200035889828a01620002de565b93505060806200036b89828a01620002de565b92505060a06200037e89828a01620002de565b9150509295509295509295565b60006200039a603a8362000466565b9150620003a78262000541565b604082019050919050565b6000620003c160338362000466565b9150620003ce8262000590565b604082019050919050565b6000620003e860398362000466565b9150620003f582620005df565b604082019050919050565b600060208201905081810360008301526200041b816200038b565b9050919050565b600060208201905081810360008301526200043d81620003b2565b9050919050565b600060208201905081810360008301526200045f81620003d9565b9050919050565b600082825260208201905092915050565b6000620004848262000508565b9150620004918362000508565b9250827fffffffffffffffffffffffffffffffffffffffffffffffffffffffffffffffff03821115620004c957620004c862000512565b5b828201905092915050565b6000620004e182620004e8565b9050919050565b600073ffffffffffffffffffffffffffffffffffffffff82169050919050565b6000819050919050565b7f4e487b7100000000000000000000000000000000000000000000000000000000600052601160045260246000fd5b7f546f6b656e56657374696e674275726e466f7267696e673a2066696e616c207460008201527f696d65206973206265666f72652063757272656e742074696d65000000000000602082015250565b7f546f6b656e56657374696e674275726e466f7267696e673a206275726e65722060008201527f697320746865207a65726f206164647265737300000000000000000000000000602082015250565b7f546f6b656e56657374696e674275726e466f7267696e673a20506572696f642060008201527f69732067726561746572207468616e20756e69742074696d6500000000000000602082015250565b6200063981620004d4565b81146200064557600080fd5b50565b620006538162000508565b81146200065f57600080fd5b50565b61148e80620006726000396000f3fe608060405234801561001057600080fd5b50600436106100ea5760003560e01c806350e15fdd1161008c5780639852595c116100665780639852595c14610217578063be9a655514610247578063ee7bb24a14610265578063f2fde38b14610295576100ea565b806350e15fdd146101d1578063715018a6146101ef5780638da5cb5b146101f9576100ea565b806319165587116100c8578063191655871461015b57806322ac3f501461017757806327810b6e146101955780633a98ef39146101b3576100ea565b806309883bd5146100ef5780630fb5a6b41461010d5780631726cbc81461012b575b600080fd5b6100f76102b1565b6040516101049190611021565b60405180910390f35b6101156102b7565b6040516101229190611021565b60405180910390f35b61014560048036038101906101409190610d38565b6102bd565b6040516101529190611021565b60405180910390f35b61017560048036038101906101709190610d38565b610320565b005b61017f61048f565b60405161018c9190611021565b60405180910390f35b61019d610495565b6040516101aa9190610efb565b60405180910390f35b6101bb6104bb565b6040516101c89190611021565b60405180910390f35b6101d96104c1565b6040516101e69190611021565b60405180910390f35b6101f76104c7565b005b61020161054f565b60405161020e9190610efb565b60405180910390f35b610231600480360381019061022c9190610ce6565b610578565b60405161023e9190611021565b60405180910390f35b61024f610590565b60405161025c9190611021565b60405180910390f35b61027f600480360381019061027a9190610d38565b610596565b60405161028c9190611021565b60405180910390f35b6102af60048036038101906102aa9190610ce6565b6105f3565b005b60075481565b60035481565b6000610319600860008473ffffffffffffffffffffffffffffffffffffffff1673ffffffffffffffffffffffffffffffffffffffff1681526020019081526020016000205461030b84610701565b6108a790919063ffffffff16565b9050919050565b600061032b826102bd565b905060008111610370576040517f08c379a000000000000000000000000000000000000000000000000000000000815260040161036790610f81565b60405180910390fd5b6103c281600860008573ffffffffffffffffffffffffffffffffffffffff1673ffffffffffffffffffffffffffffffffffffffff168152602001908152602001600020546106eb90919063ffffffff16565b600860008473ffffffffffffffffffffffffffffffffffffffff1673ffffffffffffffffffffffffffffffffffffffff16815260200190815260200160002081905550610452600160009054906101000a900473ffffffffffffffffffffffffffffffffffffffff16828473ffffffffffffffffffffffffffffffffffffffff166108bd9092919063ffffffff16565b7fc7798891864187665ac6dd119286e44ec13f014527aeeb2b8eb3fd413df931798282604051610483929190610f16565b60405180910390a15050565b60045481565b600160009054906101000a900473ffffffffffffffffffffffffffffffffffffffff1681565b60055481565b60065481565b6104cf610943565b73ffffffffffffffffffffffffffffffffffffffff166104ed61054f565b73ffffffffffffffffffffffffffffffffffffffff1614610543576040517f08c379a000000000000000000000000000000000000000000000000000000000815260040161053a90610fc1565b60405180910390fd5b61054d600061094b565b565b60008060009054906101000a900473ffffffffffffffffffffffffffffffffffffffff16905090565b60086020528060005260406000206000915090505481565b60025481565b60006105ec600860008473ffffffffffffffffffffffffffffffffffffffff1673ffffffffffffffffffffffffffffffffffffffff168152602001908152602001600020546007546108a790919063ffffffff16565b9050919050565b6105fb610943565b73ffffffffffffffffffffffffffffffffffffffff1661061961054f565b73ffffffffffffffffffffffffffffffffffffffff161461066f576040517f08c379a000000000000000000000000000000000000000000000000000000000815260040161066690610fc1565b60405180910390fd5b600073ffffffffffffffffffffffffffffffffffffffff168173ffffffffffffffffffffffffffffffffffffffff1614156106df576040517f08c379a00000000000000000000000000000000000000000000000000000000081526004016106d690610f61565b60405180910390fd5b6106e88161094b565b50565b600081836106f9919061106e565b905092915050565b6000808273ffffffffffffffffffffffffffffffffffffffff166370a08231306040518263ffffffff1660e01b815260040161073d9190610efb565b60206040518083038186803b15801561075557600080fd5b505afa158015610769573d6000803e3d6000fd5b505050506040513d601f19601f8201168201806040525081019061078d9190610d61565b905060006107e3600860008673ffffffffffffffffffffffffffffffffffffffff1673ffffffffffffffffffffffffffffffffffffffff16815260200190815260200160002054836106eb90919063ffffffff16565b90506107fc6003546002546106eb90919063ffffffff16565b421061080c5780925050506108a2565b6000806002549050600061082d600454600354610a0f90919063ffffffff16565b905060005b818110156108985761084f600454846106eb90919063ffffffff16565b92504283111561085e57610898565b6108836108748387610a0f90919063ffffffff16565b856106eb90919063ffffffff16565b93508080610890906111b6565b915050610832565b5082955050505050505b919050565b600081836108b591906110f5565b905092915050565b61093e8363a9059cbb60e01b84846040516024016108dc929190610f16565b604051602081830303815290604052907bffffffffffffffffffffffffffffffffffffffffffffffffffffffff19166020820180517bffffffffffffffffffffffffffffffffffffffffffffffffffffffff8381831617835250505050610a25565b505050565b600033905090565b60008060009054906101000a900473ffffffffffffffffffffffffffffffffffffffff169050816000806101000a81548173ffffffffffffffffffffffffffffffffffffffff021916908373ffffffffffffffffffffffffffffffffffffffff1602179055508173ffffffffffffffffffffffffffffffffffffffff168173ffffffffffffffffffffffffffffffffffffffff167f8be0079c531659141344cd1fd0a4f28419497f9722a3daafe3b4186f6b6457e060405160405180910390a35050565b60008183610a1d91906110c4565b905092915050565b6000610a87826040518060400160405280602081526020017f5361666545524332303a206c6f772d6c6576656c2063616c6c206661696c65648152508573ffffffffffffffffffffffffffffffffffffffff16610aec9092919063ffffffff16565b9050600081511115610ae75780806020019051810190610aa79190610d0f565b610ae6576040517f08c379a0000000000000000000000000000000000000000000000000000000008152600401610add90611001565b60405180910390fd5b5b505050565b6060610afb8484600085610b04565b90509392505050565b606082471015610b49576040517f08c379a0000000000000000000000000000000000000000000000000000000008152600401610b4090610fa1565b60405180910390fd5b610b5285610c18565b610b91576040517f08c379a0000000000000000000000000000000000000000000000000000000008152600401610b8890610fe1565b60405180910390fd5b6000808673ffffffffffffffffffffffffffffffffffffffff168587604051610bba9190610ee4565b60006040518083038185875af1925050503d8060008114610bf7576040519150601f19603f3d011682016040523d82523d6000602084013e610bfc565b606091505b5091509150610c0c828286610c2b565b92505050949350505050565b600080823b905060008111915050919050565b60608315610c3b57829050610c8b565b600083511115610c4e5782518084602001fd5b816040517f08c379a0000000000000000000000000000000000000000000000000000000008152600401610c829190610f3f565b60405180910390fd5b9392505050565b600081359050610ca1816113fc565b92915050565b600081519050610cb681611413565b92915050565b600081359050610ccb8161142a565b92915050565b600081519050610ce081611441565b92915050565b600060208284031215610cf857600080fd5b6000610d0684828501610c92565b91505092915050565b600060208284031215610d2157600080fd5b6000610d2f84828501610ca7565b91505092915050565b600060208284031215610d4a57600080fd5b6000610d5884828501610cbc565b91505092915050565b600060208284031215610d7357600080fd5b6000610d8184828501610cd1565b91505092915050565b610d9381611129565b82525050565b6000610da48261103c565b610dae8185611052565b9350610dbe818560208601611183565b80840191505092915050565b6000610dd582611047565b610ddf818561105d565b9350610def818560208601611183565b610df88161125d565b840191505092915050565b6000610e1060268361105d565b9150610e1b8261126e565b604082019050919050565b6000610e33602a8361105d565b9150610e3e826112bd565b604082019050919050565b6000610e5660268361105d565b9150610e618261130c565b604082019050919050565b6000610e7960208361105d565b9150610e848261135b565b602082019050919050565b6000610e9c601d8361105d565b9150610ea782611384565b602082019050919050565b6000610ebf602a8361105d565b9150610eca826113ad565b604082019050919050565b610ede81611179565b82525050565b6000610ef08284610d99565b915081905092915050565b6000602082019050610f106000830184610d8a565b92915050565b6000604082019050610f2b6000830185610d8a565b610f386020830184610ed5565b9392505050565b60006020820190508181036000830152610f598184610dca565b905092915050565b60006020820190508181036000830152610f7a81610e03565b9050919050565b60006020820190508181036000830152610f9a81610e26565b9050919050565b60006020820190508181036000830152610fba81610e49565b9050919050565b60006020820190508181036000830152610fda81610e6c565b9050919050565b60006020820190508181036000830152610ffa81610e8f565b9050919050565b6000602082019050818103600083015261101a81610eb2565b9050919050565b60006020820190506110366000830184610ed5565b92915050565b600081519050919050565b600081519050919050565b600081905092915050565b600082825260208201905092915050565b600061107982611179565b915061108483611179565b9250827fffffffffffffffffffffffffffffffffffffffffffffffffffffffffffffffff038211156110b9576110b86111ff565b5b828201905092915050565b60006110cf82611179565b91506110da83611179565b9250826110ea576110e961122e565b5b828204905092915050565b600061110082611179565b915061110b83611179565b92508282101561111e5761111d6111ff565b5b828203905092915050565b600061113482611159565b9050919050565b60008115159050919050565b600061115282611129565b9050919050565b600073ffffffffffffffffffffffffffffffffffffffff82169050919050565b6000819050919050565b60005b838110156111a1578082015181840152602081019050611186565b838111156111b0576000848401525b50505050565b60006111c182611179565b91507fffffffffffffffffffffffffffffffffffffffffffffffffffffffffffffffff8214156111f4576111f36111ff565b5b600182019050919050565b7f4e487b7100000000000000000000000000000000000000000000000000000000600052601160045260246000fd5b7f4e487b7100000000000000000000000000000000000000000000000000000000600052601260045260246000fd5b6000601f19601f8301169050919050565b7f4f776e61626c653a206e6577206f776e657220697320746865207a65726f206160008201527f6464726573730000000000000000000000000000000000000000000000000000602082015250565b7f546f6b656e56657374696e674275726e466f7267696e673a206e6f20746f6b6560008201527f6e73206172652064756500000000000000000000000000000000000000000000602082015250565b7f416464726573733a20696e73756666696369656e742062616c616e636520666f60008201527f722063616c6c0000000000000000000000000000000000000000000000000000602082015250565b7f4f776e61626c653a2063616c6c6572206973206e6f7420746865206f776e6572600082015250565b7f416464726573733a2063616c6c20746f206e6f6e2d636f6e7472616374000000600082015250565b7f5361666545524332303a204552433230206f7065726174696f6e20646964206e60008201527f6f74207375636365656400000000000000000000000000000000000000000000602082015250565b61140581611129565b811461141057600080fd5b50565b61141c8161113b565b811461142757600080fd5b50565b61143381611147565b811461143e57600080fd5b50565b61144a81611179565b811461145557600080fd5b5056fea264697066735822122091c7e4f1d16acac0292081eb867f604160e3bc30da1a1d617b0b7f926f7ee1b864736f6c63430008040033a264697066735822122039c869320c77c433a78227ccc07c887bf0ff127a1f84991ee07bd9c97de2e99164736f6c63430008040033",
  "immutableReferences": {},
  "source": "// SPDX-License-Identifier: MIT\npragma solidity ^0.8.0;\n\nimport \"@openzeppelin/contracts/access/Ownable.sol\";\nimport \"@openzeppelin/contracts/utils/math/SafeMath.sol\";\nimport \"@openzeppelin/contracts/token/ERC20/IERC20.sol\";\nimport \"@openzeppelin/contracts/utils/math/Math.sol\";\nimport \"@openzeppelin/contracts/token/ERC20/utils/SafeERC20.sol\";\nimport \"./Forging/BurnForging.sol\";\nimport \"./Forging/emission/TokenVestingBurnForging.sol\";\n\ncontract BecomeCGN is Ownable, BurnForging {\n    using SafeMath for uint256;\n    using SafeERC20 for IERC20;\n\n    /**********  *********/\n    // \n    uint256 public constant rateDenominator = 1000;\n    // \n    uint256 public cap;\n    // \n    uint256 public minBurnForgingAmount;\n    // , \n    uint256 public stageCliffUnit;\n    // tokenWallet , \n    address public tokenWallet;\n    // \n    address[] private _burnerMemberList;\n    // \n    struct DurationRateInfo {\n      uint256 duration;\n      uint256 rate; // rate, per input token to amount of output token\n    }\n    // \n    struct TokenVestingInfo {\n        address burnerToken;\n        uint256 burnedAmount;\n        uint256 receiveAmount;\n        address[] vestingAddress;\n    }\n    // \n    mapping(uint256 => DurationRateInfo) public durationRateList;\n    // \n    mapping(address => TokenVestingInfo) public tokenVestingList;\n\n    /**********  *********/\n    constructor(\n        address _token, // \n        address _tokenWallet, // \n        address payable _wallet, // ETH\n        uint256 _cap, // , ether, wei\n        uint256 _minBurnForgingAmount,\n        uint256 _stageCliffUnit\n    )\n        BurnForging(_wallet, _token) {\n        require(_tokenWallet != address(0), \"AllowanceBurnForging: token wallet is the zero address\");\n        require(_cap > 0, \"CappedBurnForging: cap is 0\");\n        require(_minBurnForgingAmount > 0, \"BecomeCGN: The minimum combustion forging amount is greater than 0\");\n\n        tokenWallet = _tokenWallet;\n        cap = _cap * (10**uint256(18));\n        minBurnForgingAmount = _minBurnForgingAmount * (10**uint256(18));\n        stageCliffUnit = _stageCliffUnit;\n    }\n\n    /**********  *********/\n    // \n    function setCap(uint256 amount) public onlyOwner {\n        cap = amount;\n    }\n    // \n    function setMinBurnForgingAmount(uint256 amount) public onlyOwner {\n        require(amount <= cap, \"BecomeCGN: The minimum forging amount must be less than the cap\");\n        minBurnForgingAmount = amount;\n    }\n    // \n    function setDurationRate(uint256 duration, uint256 rate) public onlyOwner {\n        require(duration >= 1, \"BecomeCGN: duration value invaild\");\n        require(rate > 0, 'BecomeCGN: rate is greater than 0');\n        DurationRateInfo storage info = durationRateList[duration];\n        info.duration = duration;\n        info.rate = rate;\n    }\n    // \n    function setStageCliffUnit(uint256 timeUnit) public onlyOwner {\n        stageCliffUnit = timeUnit;\n    }\n\n    /**********  *********/\n    // \n    // \n    function _preValidateBurn(address burner, uint256 burnedAmount) internal override view {\n        super._preValidateBurn(burner, burnedAmount);\n        require(burnedTotalAmount.add(burnedAmount) <= cap, \"CappedBurnForging: cap exceeded\");\n        require(burnedAmount >= minBurnForgingAmount, 'BecomeCGN: The minimum forging amount does not meet the requirements');\n    }\n\n    // \n    function _getOutTokenAmount(uint256 burnedAmount, uint256 duration) internal override view returns (uint256) {\n        DurationRateInfo memory info = durationRateList[duration];\n        uint256 rate = 0;\n        if (info.duration != 0) {\n            rate = info.rate;\n        }\n        return burnedAmount.mul(rate).div(rateDenominator);\n    }\n\n    /**********  *********/\n    /**\n     * @dev get _burnerMemberList\n     */\n    function getBurnerMemberList() public onlyOwner view returns (address[] memory) {\n        return _burnerMemberList;\n    }\n    /**\n     * @dev Checks whether the cap has been reached.\n     * @return Whether the cap was reached\n     */\n    function capReached() public view returns (bool) {\n        return burnedTotalAmount >= cap;\n    }\n\n    /**\n     * @dev Checks the amount of tokens left in the allowance.\n     * @return Amount of tokens left in the allowance\n     */\n    function remainingTokens() public view returns (uint256) {\n        return Math.min(IERC20(token).balanceOf(tokenWallet), IERC20(token).allowance(tokenWallet, address(this)));\n    }\n\n    /**\n     * @dev get vestingAddress list from the tokenVestingList\n     */\n    function getTokenVestingAddressByAccount(address account) public view returns (address[] memory) {\n        TokenVestingInfo storage info = tokenVestingList[account];\n        return info.vestingAddress;\n    }\n\n    /**********  *********/\n    // \n    function _deliverTokens(address burner, uint256 duration, uint256 burnedAmount, uint256 receiveAmount) internal override {\n        address vestingToken = address(new TokenVestingBurnForging(\n            burner, // \n            block.timestamp, // \n            duration, // \n            stageCliffUnit, // \n            burnedAmount, // \n            receiveAmount // \n        ));\n        TokenVestingInfo storage info = tokenVestingList[burner];\n        if (info.burnerToken != address(0)) {\n            info.burnedAmount = info.burnedAmount.add(burnedAmount);\n            info.receiveAmount = info.receiveAmount.add(receiveAmount);\n            info.vestingAddress.push(vestingToken);\n        } else {\n            tokenVestingList[burner] = TokenVestingInfo({\n                burnerToken: burner,\n                burnedAmount: burnedAmount,\n                receiveAmount: receiveAmount,\n                vestingAddress: new address[](0)\n            });\n            tokenVestingList[burner].vestingAddress.push(vestingToken);\n            // burner\n            _burnerMemberList.push(burner);\n        }\n        // \n        IERC20(token).safeTransferFrom(tokenWallet, vestingToken, receiveAmount);\n    }\n}\n",
  "sourcePath": "D:\\Workspaces\\DaoswapDex\\daoswapdex-heco-testnet\\core-chn-node\\contracts\\BecomeCGN.sol",
  "compiler": {
    "name": "solc",
    "version": "0.8.4+commit.c7e474f2.Emscripten.clang"
  },
  "schemaVersion": "3.4.3",
  "updatedAt": "2021-09-26T15:20:05.409Z",
  "networkType": "ethereum",
  "devdoc": {
    "kind": "dev",
    "methods": {
      "capReached()": {
        "details": "Checks whether the cap has been reached.",
        "returns": {
          "_0": "Whether the cap was reached"
        }
      },
      "getBurnerMemberList()": {
        "details": "get _burnerMemberList"
      },
      "getTokenVestingAddressByAccount(address)": {
        "details": "get vestingAddress list from the tokenVestingList"
      },
      "owner()": {
        "details": "Returns the address of the current owner."
      },
      "remainingTokens()": {
        "details": "Checks the amount of tokens left in the allowance.",
        "returns": {
          "_0": "Amount of tokens left in the allowance"
        }
      },
      "renounceOwnership()": {
        "details": "Leaves the contract without owner. It will not be possible to call `onlyOwner` functions anymore. Can only be called by the current owner. NOTE: Renouncing ownership will leave the contract without an owner, thereby removing any functionality that is only available to the owner."
      },
      "transferOwnership(address)": {
        "details": "Transfers ownership of the contract to a new account (`newOwner`). Can only be called by the current owner."
      }
    },
    "version": 1
  },
  "userdoc": {
    "events": {
      "TokensBurn(address,uint256,uint256)": {
        "notice": "Event for token burn logging"
      }
    },
    "kind": "user",
    "methods": {},
    "version": 1
  }
}