{
  "contractName": "ComputingPowerMining",
  "abi": [
    {
      "inputs": [
        {
          "internalType": "contract IERC20",
          "name": "_token",
          "type": "address"
        },
        {
          "internalType": "uint256",
          "name": "_totalReleaseAmount",
          "type": "uint256"
        },
        {
          "internalType": "uint256",
          "name": "_totalSwappedAmount",
          "type": "uint256"
        },
        {
          "internalType": "uint256",
          "name": "_startTime",
          "type": "uint256"
        },
        {
          "internalType": "uint256",
          "name": "_endTime",
          "type": "uint256"
        }
      ],
      "stateMutability": "nonpayable",
      "type": "constructor"
    },
    {
      "anonymous": false,
      "inputs": [
        {
          "indexed": true,
          "internalType": "address",
          "name": "previousOwner",
          "type": "address"
        },
        {
          "indexed": true,
          "internalType": "address",
          "name": "newOwner",
          "type": "address"
        }
      ],
      "name": "OwnershipTransferred",
      "type": "event"
    },
    {
      "inputs": [
        {
          "internalType": "address",
          "name": "",
          "type": "address"
        }
      ],
      "name": "accountPowerInfoList",
      "outputs": [
        {
          "internalType": "address",
          "name": "account",
          "type": "address"
        },
        {
          "internalType": "uint256",
          "name": "power",
          "type": "uint256"
        },
        {
          "internalType": "uint256",
          "name": "receiveAmount",
          "type": "uint256"
        },
        {
          "internalType": "uint256",
          "name": "unreleasedAmount",
          "type": "uint256"
        },
        {
          "internalType": "bool",
          "name": "isClaim",
          "type": "bool"
        }
      ],
      "stateMutability": "view",
      "type": "function",
      "constant": true
    },
    {
      "inputs": [],
      "name": "countedPower",
      "outputs": [
        {
          "internalType": "uint256",
          "name": "",
          "type": "uint256"
        }
      ],
      "stateMutability": "view",
      "type": "function",
      "constant": true
    },
    {
      "inputs": [],
      "name": "endTime",
      "outputs": [
        {
          "internalType": "uint256",
          "name": "",
          "type": "uint256"
        }
      ],
      "stateMutability": "view",
      "type": "function",
      "constant": true
    },
    {
      "inputs": [],
      "name": "owner",
      "outputs": [
        {
          "internalType": "address",
          "name": "",
          "type": "address"
        }
      ],
      "stateMutability": "view",
      "type": "function",
      "constant": true
    },
    {
      "inputs": [],
      "name": "renounceOwnership",
      "outputs": [],
      "stateMutability": "nonpayable",
      "type": "function"
    },
    {
      "inputs": [],
      "name": "startTime",
      "outputs": [
        {
          "internalType": "uint256",
          "name": "",
          "type": "uint256"
        }
      ],
      "stateMutability": "view",
      "type": "function",
      "constant": true
    },
    {
      "inputs": [],
      "name": "token",
      "outputs": [
        {
          "internalType": "contract IERC20",
          "name": "",
          "type": "address"
        }
      ],
      "stateMutability": "view",
      "type": "function",
      "constant": true
    },
    {
      "inputs": [],
      "name": "totalReleaseAmount",
      "outputs": [
        {
          "internalType": "uint256",
          "name": "",
          "type": "uint256"
        }
      ],
      "stateMutability": "view",
      "type": "function",
      "constant": true
    },
    {
      "inputs": [],
      "name": "totalSwappedAmount",
      "outputs": [
        {
          "internalType": "uint256",
          "name": "",
          "type": "uint256"
        }
      ],
      "stateMutability": "view",
      "type": "function",
      "constant": true
    },
    {
      "inputs": [
        {
          "internalType": "address",
          "name": "newOwner",
          "type": "address"
        }
      ],
      "name": "transferOwnership",
      "outputs": [],
      "stateMutability": "nonpayable",
      "type": "function"
    },
    {
      "inputs": [
        {
          "internalType": "uint256",
          "name": "amount",
          "type": "uint256"
        }
      ],
      "name": "setTotalReleaseAmount",
      "outputs": [],
      "stateMutability": "nonpayable",
      "type": "function"
    },
    {
      "inputs": [
        {
          "internalType": "uint256",
          "name": "amount",
          "type": "uint256"
        }
      ],
      "name": "setTotalSwappedAmount",
      "outputs": [],
      "stateMutability": "nonpayable",
      "type": "function"
    },
    {
      "inputs": [
        {
          "internalType": "uint256",
          "name": "time",
          "type": "uint256"
        }
      ],
      "name": "setStartTime",
      "outputs": [],
      "stateMutability": "nonpayable",
      "type": "function"
    },
    {
      "inputs": [
        {
          "internalType": "uint256",
          "name": "time",
          "type": "uint256"
        }
      ],
      "name": "setEndTime",
      "outputs": [],
      "stateMutability": "nonpayable",
      "type": "function"
    },
    {
      "inputs": [
        {
          "components": [
            {
              "internalType": "address",
              "name": "account",
              "type": "address"
            },
            {
              "internalType": "uint256",
              "name": "power",
              "type": "uint256"
            },
            {
              "internalType": "uint256",
              "name": "receiveAmount",
              "type": "uint256"
            },
            {
              "internalType": "uint256",
              "name": "unreleasedAmount",
              "type": "uint256"
            },
            {
              "internalType": "bool",
              "name": "isClaim",
              "type": "bool"
            }
          ],
          "internalType": "struct ComputingPowerMining.AccountPowerInfo[]",
          "name": "list",
          "type": "tuple[]"
        }
      ],
      "name": "updateAccountPowerList",
      "outputs": [],
      "stateMutability": "nonpayable",
      "type": "function"
    },
    {
      "inputs": [
        {
          "internalType": "address",
          "name": "account",
          "type": "address"
        }
      ],
      "name": "hasPowerInfo",
      "outputs": [
        {
          "internalType": "bool",
          "name": "",
          "type": "bool"
        }
      ],
      "stateMutability": "view",
      "type": "function",
      "constant": true
    },
    {
      "inputs": [],
      "name": "claim",
      "outputs": [],
      "stateMutability": "nonpayable",
      "type": "function"
    },
    {
      "inputs": [
        {
          "internalType": "address payable",
          "name": "recipientToken",
          "type": "address"
        }
      ],
      "name": "killSelf",
      "outputs": [],
      "stateMutability": "nonpayable",
      "type": "function"
    }
  ],
  "bytecode": "0x60806040523480156200001157600080fd5b50604051620027e3380380620027e38339818101604052810190620000379190620002fd565b620000576200004b6200020360201b60201c565b6200020b60201b60201c565b600073ffffffffffffffffffffffffffffffffffffffff168573ffffffffffffffffffffffffffffffffffffffff161415620000ca576040517f08c379a0000000000000000000000000000000000000000000000000000000008152600401620000c1906200045f565b60405180910390fd5b6000841162000110576040517f08c379a000000000000000000000000000000000000000000000000000000000815260040162000107906200041b565b60405180910390fd5b6000831162000156576040517f08c379a00000000000000000000000000000000000000000000000000000000081526004016200014d906200043d565b60405180910390fd5b8181116200019b576040517f08c379a0000000000000000000000000000000000000000000000000000000008152600401620001929062000481565b60405180910390fd5b84600160006101000a81548173ffffffffffffffffffffffffffffffffffffffff021916908373ffffffffffffffffffffffffffffffffffffffff16021790555083600281905550826003819055508160048190555080600581905550505050505062000676565b600033905090565b60008060009054906101000a900473ffffffffffffffffffffffffffffffffffffffff169050816000806101000a81548173ffffffffffffffffffffffffffffffffffffffff021916908373ffffffffffffffffffffffffffffffffffffffff1602179055508173ffffffffffffffffffffffffffffffffffffffff168173ffffffffffffffffffffffffffffffffffffffff167f8be0079c531659141344cd1fd0a4f28419497f9722a3daafe3b4186f6b6457e060405160405180910390a35050565b600081519050620002e08162000642565b92915050565b600081519050620002f7816200065c565b92915050565b600080600080600060a086880312156200031657600080fd5b60006200032688828901620002cf565b95505060206200033988828901620002e6565b94505060406200034c88828901620002e6565b93505060606200035f88828901620002e6565b92505060806200037288828901620002e6565b9150509295509295909350565b60006200038e602f83620004a3565b91506200039b8262000506565b604082019050919050565b6000620003b5602d83620004a3565b9150620003c28262000555565b604082019050919050565b6000620003dc602f83620004a3565b9150620003e982620005a4565b604082019050919050565b600062000403603e83620004a3565b91506200041082620005f3565b604082019050919050565b6000602082019050818103600083015262000436816200037f565b9050919050565b600060208201905081810360008301526200045881620003a6565b9050919050565b600060208201905081810360008301526200047a81620003cd565b9050919050565b600060208201905081810360008301526200049c81620003f4565b9050919050565b600082825260208201905092915050565b6000620004c182620004dc565b9050919050565b6000620004d582620004b4565b9050919050565b600073ffffffffffffffffffffffffffffffffffffffff82169050919050565b6000819050919050565b7f436f6d707574696e67506f7765724d696e696e673a20746f74616c2072656c6560008201527f61736520616d6f756e7420697320300000000000000000000000000000000000602082015250565b7f436f6d707574696e67506f7765724d696e696e673a20746f74616c207377617060008201527f7320616d6f756e74206973203000000000000000000000000000000000000000602082015250565b7f436f6d707574696e67506f7765724d696e696e673a20746f6b656e206973207460008201527f6865207a65726f20616464726573730000000000000000000000000000000000602082015250565b7f436f6d707574696e67506f7765724d696e696e673a2053746172742074696d6560008201527f2063616e6e6f74206265206c61746572207468616e20656e642074696d650000602082015250565b6200064d81620004c8565b81146200065957600080fd5b50565b6200066781620004fc565b81146200067357600080fd5b50565b61215d80620006866000396000f3fe608060405234801561001057600080fd5b50600436106101165760003560e01c806378e97925116100a2578063c4f7019911610071578063c4f7019914610281578063caeae15d146102b5578063ccb98ffc146102d3578063f2fde38b146102ef578063fc0c546a1461030b57610116565b806378e979251461020d57806380f7a7291461022b5780638da5cb5b1461024757806392b6e7851461026557610116565b80633e0a322d116100e95780633e0a322d1461018f57806347cd7fc4146101ab5780634e71d92d146101c95780636915b1b0146101d3578063715018a61461020357610116565b80630cc3a41f1461011b5780631b45c92d146101395780633197cbb6146101555780633a507d7d14610173575b600080fd5b610123610329565b6040516101309190611ad8565b60405180910390f35b610153600480360381019061014e91906115f9565b61032f565b005b61015d6103b5565b60405161016a9190611ad8565b60405180910390f35b61018d60048036038101906101889190611566565b6103bb565b005b6101a960048036038101906101a491906115f9565b61054c565b005b6101b3610617565b6040516101c09190611ad8565b60405180910390f35b6101d161061d565b005b6101ed60048036038101906101e8919061153d565b610812565b6040516101fa9190611920565b60405180910390f35b61020b61092d565b005b6102156109b5565b6040516102229190611ad8565b60405180910390f35b610245600480360381019061024091906115f9565b6109bb565b005b61024f610a41565b60405161025c9190611889565b60405180910390f35b61027f600480360381019061027a919061158f565b610a6a565b005b61029b6004803603810190610296919061153d565b610d7b565b6040516102ac9594939291906118cd565b60405180910390f35b6102bd610dde565b6040516102ca9190611ad8565b60405180910390f35b6102ed60048036038101906102e891906115f9565b610de4565b005b6103096004803603810190610304919061153d565b610eae565b005b610313610fa6565b604051610320919061193b565b60405180910390f35b60065481565b610337610fcc565b73ffffffffffffffffffffffffffffffffffffffff16610355610a41565b73ffffffffffffffffffffffffffffffffffffffff16146103ab576040517f08c379a00000000000000000000000000000000000000000000000000000000081526004016103a290611a18565b60405180910390fd5b8060028190555050565b60055481565b6103c3610fcc565b73ffffffffffffffffffffffffffffffffffffffff166103e1610a41565b73ffffffffffffffffffffffffffffffffffffffff1614610437576040517f08c379a000000000000000000000000000000000000000000000000000000000815260040161042e90611a18565b60405180910390fd5b6000600160009054906101000a900473ffffffffffffffffffffffffffffffffffffffff1673ffffffffffffffffffffffffffffffffffffffff166370a08231306040518263ffffffff1660e01b81526004016104949190611889565b60206040518083038186803b1580156104ac57600080fd5b505afa1580156104c0573d6000803e3d6000fd5b505050506040513d601f19601f820116820180604052508101906104e49190611622565b90506105338282600160009054906101000a900473ffffffffffffffffffffffffffffffffffffffff1673ffffffffffffffffffffffffffffffffffffffff16610fd49092919063ffffffff16565b8173ffffffffffffffffffffffffffffffffffffffff16ff5b610554610fcc565b73ffffffffffffffffffffffffffffffffffffffff16610572610a41565b73ffffffffffffffffffffffffffffffffffffffff16146105c8576040517f08c379a00000000000000000000000000000000000000000000000000000000081526004016105bf90611a18565b60405180910390fd5b60055481111561060d576040517f08c379a000000000000000000000000000000000000000000000000000000000815260040161060490611a58565b60405180910390fd5b8060048190555050565b60035481565b600554421015610662576040517f08c379a000000000000000000000000000000000000000000000000000000000815260040161065990611998565b60405180910390fd5b60003390506000600760008373ffffffffffffffffffffffffffffffffffffffff1673ffffffffffffffffffffffffffffffffffffffff1681526020019081526020016000209050600073ffffffffffffffffffffffffffffffffffffffff168160000160009054906101000a900473ffffffffffffffffffffffffffffffffffffffff1673ffffffffffffffffffffffffffffffffffffffff16141561073e576040517f08c379a000000000000000000000000000000000000000000000000000000000815260040161073590611a38565b60405180910390fd5b600015158160040160009054906101000a900460ff16151514610796576040517f08c379a000000000000000000000000000000000000000000000000000000000815260040161078d90611a78565b60405180910390fd5b6107e7828260020154600160009054906101000a900473ffffffffffffffffffffffffffffffffffffffff1673ffffffffffffffffffffffffffffffffffffffff16610fd49092919063ffffffff16565b6000816002018190555060018160040160006101000a81548160ff0219169083151502179055505050565b600080600760008473ffffffffffffffffffffffffffffffffffffffff1673ffffffffffffffffffffffffffffffffffffffff1681526020019081526020016000206040518060a00160405290816000820160009054906101000a900473ffffffffffffffffffffffffffffffffffffffff1673ffffffffffffffffffffffffffffffffffffffff1673ffffffffffffffffffffffffffffffffffffffff1681526020016001820154815260200160028201548152602001600382015481526020016004820160009054906101000a900460ff1615151515815250509050600073ffffffffffffffffffffffffffffffffffffffff16816000015173ffffffffffffffffffffffffffffffffffffffff161415915050919050565b610935610fcc565b73ffffffffffffffffffffffffffffffffffffffff16610953610a41565b73ffffffffffffffffffffffffffffffffffffffff16146109a9576040517f08c379a00000000000000000000000000000000000000000000000000000000081526004016109a090611a18565b60405180910390fd5b6109b3600061105a565b565b60045481565b6109c3610fcc565b73ffffffffffffffffffffffffffffffffffffffff166109e1610a41565b73ffffffffffffffffffffffffffffffffffffffff1614610a37576040517f08c379a0000000000000000000000000000000000000000000000000000000008152600401610a2e90611a18565b60405180910390fd5b8060038190555050565b60008060009054906101000a900473ffffffffffffffffffffffffffffffffffffffff16905090565b610a72610fcc565b73ffffffffffffffffffffffffffffffffffffffff16610a90610a41565b73ffffffffffffffffffffffffffffffffffffffff1614610ae6576040517f08c379a0000000000000000000000000000000000000000000000000000000008152600401610add90611a18565b60405180910390fd5b6000815111610b2a576040517f08c379a0000000000000000000000000000000000000000000000000000000008152600401610b21906119f8565b60405180910390fd5b60005b8151811015610d77576000828281518110610b71577f4e487b7100000000000000000000000000000000000000000000000000000000600052603260045260246000fd5b60200260200101519050600081604001511115610d63576000816000015190506000600760008373ffffffffffffffffffffffffffffffffffffffff1673ffffffffffffffffffffffffffffffffffffffff1681526020019081526020016000209050600073ffffffffffffffffffffffffffffffffffffffff168160000160009054906101000a900473ffffffffffffffffffffffffffffffffffffffff1673ffffffffffffffffffffffffffffffffffffffff161415610d60576040518060a001604052808373ffffffffffffffffffffffffffffffffffffffff16815260200184602001518152602001846040015181526020018460600151815260200160001515815250600760008473ffffffffffffffffffffffffffffffffffffffff1673ffffffffffffffffffffffffffffffffffffffff16815260200190815260200160002060008201518160000160006101000a81548173ffffffffffffffffffffffffffffffffffffffff021916908373ffffffffffffffffffffffffffffffffffffffff16021790555060208201518160010155604082015181600201556060820151816003015560808201518160040160006101000a81548160ff021916908315150217905550905050610d59836020015160065461111e90919063ffffffff16565b6006819055505b50505b508080610d6f90611cae565b915050610b2d565b5050565b60076020528060005260406000206000915090508060000160009054906101000a900473ffffffffffffffffffffffffffffffffffffffff16908060010154908060020154908060030154908060040160009054906101000a900460ff16905085565b60025481565b610dec610fcc565b73ffffffffffffffffffffffffffffffffffffffff16610e0a610a41565b73ffffffffffffffffffffffffffffffffffffffff1614610e60576040517f08c379a0000000000000000000000000000000000000000000000000000000008152600401610e5790611a18565b60405180910390fd5b6004548111610ea4576040517f08c379a0000000000000000000000000000000000000000000000000000000008152600401610e9b906119d8565b60405180910390fd5b8060058190555050565b610eb6610fcc565b73ffffffffffffffffffffffffffffffffffffffff16610ed4610a41565b73ffffffffffffffffffffffffffffffffffffffff1614610f2a576040517f08c379a0000000000000000000000000000000000000000000000000000000008152600401610f2190611a18565b60405180910390fd5b600073ffffffffffffffffffffffffffffffffffffffff168173ffffffffffffffffffffffffffffffffffffffff161415610f9a576040517f08c379a0000000000000000000000000000000000000000000000000000000008152600401610f9190611978565b60405180910390fd5b610fa38161105a565b50565b600160009054906101000a900473ffffffffffffffffffffffffffffffffffffffff1681565b600033905090565b6110558363a9059cbb60e01b8484604051602401610ff39291906118a4565b604051602081830303815290604052907bffffffffffffffffffffffffffffffffffffffffffffffffffffffff19166020820180517bffffffffffffffffffffffffffffffffffffffffffffffffffffffff8381831617835250505050611134565b505050565b60008060009054906101000a900473ffffffffffffffffffffffffffffffffffffffff169050816000806101000a81548173ffffffffffffffffffffffffffffffffffffffff021916908373ffffffffffffffffffffffffffffffffffffffff1602179055508173ffffffffffffffffffffffffffffffffffffffff168173ffffffffffffffffffffffffffffffffffffffff167f8be0079c531659141344cd1fd0a4f28419497f9722a3daafe3b4186f6b6457e060405160405180910390a35050565b6000818361112c9190611b76565b905092915050565b6000611196826040518060400160405280602081526020017f5361666545524332303a206c6f772d6c6576656c2063616c6c206661696c65648152508573ffffffffffffffffffffffffffffffffffffffff166111fb9092919063ffffffff16565b90506000815111156111f657808060200190518101906111b691906115d0565b6111f5576040517f08c379a00000000000000000000000000000000000000000000000000000000081526004016111ec90611ab8565b60405180910390fd5b5b505050565b606061120a8484600085611213565b90509392505050565b606082471015611258576040517f08c379a000000000000000000000000000000000000000000000000000000000815260040161124f906119b8565b60405180910390fd5b61126185611327565b6112a0576040517f08c379a000000000000000000000000000000000000000000000000000000000815260040161129790611a98565b60405180910390fd5b6000808673ffffffffffffffffffffffffffffffffffffffff1685876040516112c99190611872565b60006040518083038185875af1925050503d8060008114611306576040519150601f19603f3d011682016040523d82523d6000602084013e61130b565b606091505b509150915061131b82828661133a565b92505050949350505050565b600080823b905060008111915050919050565b6060831561134a5782905061139a565b60008351111561135d5782518084602001fd5b816040517f08c379a00000000000000000000000000000000000000000000000000000000081526004016113919190611956565b60405180910390fd5b9392505050565b60006113b46113af84611b18565b611af3565b905080838252602082019050828560a08602820111156113d357600080fd5b60005b8581101561140357816113e9888261148b565b845260208401935060a083019250506001810190506113d6565b5050509392505050565b60008135905061141c816120cb565b92915050565b600081359050611431816120e2565b92915050565b600082601f83011261144857600080fd5b81356114588482602086016113a1565b91505092915050565b600081359050611470816120f9565b92915050565b600081519050611485816120f9565b92915050565b600060a0828403121561149d57600080fd5b6114a760a0611af3565b905060006114b78482850161140d565b60008301525060206114cb84828501611513565b60208301525060406114df84828501611513565b60408301525060606114f384828501611513565b606083015250608061150784828501611461565b60808301525092915050565b60008135905061152281612110565b92915050565b60008151905061153781612110565b92915050565b60006020828403121561154f57600080fd5b600061155d8482850161140d565b91505092915050565b60006020828403121561157857600080fd5b600061158684828501611422565b91505092915050565b6000602082840312156115a157600080fd5b600082013567ffffffffffffffff8111156115bb57600080fd5b6115c784828501611437565b91505092915050565b6000602082840312156115e257600080fd5b60006115f084828501611476565b91505092915050565b60006020828403121561160b57600080fd5b600061161984828501611513565b91505092915050565b60006020828403121561163457600080fd5b600061164284828501611528565b91505092915050565b61165481611bcc565b82525050565b61166381611bf0565b82525050565b600061167482611b44565b61167e8185611b5a565b935061168e818560208601611c4a565b80840191505092915050565b6116a381611c26565b82525050565b60006116b482611b4f565b6116be8185611b65565b93506116ce818560208601611c4a565b6116d781611d55565b840191505092915050565b60006116ef602683611b65565b91506116fa82611d66565b604082019050919050565b6000611712603083611b65565b915061171d82611db5565b604082019050919050565b6000611735602683611b65565b915061174082611e04565b604082019050919050565b6000611758604483611b65565b915061176382611e53565b606082019050919050565b600061177b602883611b65565b915061178682611ec8565b604082019050919050565b600061179e602083611b65565b91506117a982611f17565b602082019050919050565b60006117c1602583611b65565b91506117cc82611f40565b604082019050919050565b60006117e4604283611b65565b91506117ef82611f8f565b606082019050919050565b6000611807603483611b65565b915061181282612004565b604082019050919050565b600061182a601d83611b65565b915061183582612053565b602082019050919050565b600061184d602a83611b65565b91506118588261207c565b604082019050919050565b61186c81611c1c565b82525050565b600061187e8284611669565b915081905092915050565b600060208201905061189e600083018461164b565b92915050565b60006040820190506118b9600083018561164b565b6118c66020830184611863565b9392505050565b600060a0820190506118e2600083018861164b565b6118ef6020830187611863565b6118fc6040830186611863565b6119096060830185611863565b611916608083018461165a565b9695505050505050565b6000602082019050611935600083018461165a565b92915050565b6000602082019050611950600083018461169a565b92915050565b6000602082019050818103600083015261197081846116a9565b905092915050565b60006020820190508181036000830152611991816116e2565b9050919050565b600060208201905081810360008301526119b181611705565b9050919050565b600060208201905081810360008301526119d181611728565b9050919050565b600060208201905081810360008301526119f18161174b565b9050919050565b60006020820190508181036000830152611a118161176e565b9050919050565b60006020820190508181036000830152611a3181611791565b9050919050565b60006020820190508181036000830152611a51816117b4565b9050919050565b60006020820190508181036000830152611a71816117d7565b9050919050565b60006020820190508181036000830152611a91816117fa565b9050919050565b60006020820190508181036000830152611ab18161181d565b9050919050565b60006020820190508181036000830152611ad181611840565b9050919050565b6000602082019050611aed6000830184611863565b92915050565b6000611afd611b0e565b9050611b098282611c7d565b919050565b6000604051905090565b600067ffffffffffffffff821115611b3357611b32611d26565b5b602082029050602081019050919050565b600081519050919050565b600081519050919050565b600081905092915050565b600082825260208201905092915050565b6000611b8182611c1c565b9150611b8c83611c1c565b9250827fffffffffffffffffffffffffffffffffffffffffffffffffffffffffffffffff03821115611bc157611bc0611cf7565b5b828201905092915050565b6000611bd782611bfc565b9050919050565b6000611be982611bfc565b9050919050565b60008115159050919050565b600073ffffffffffffffffffffffffffffffffffffffff82169050919050565b6000819050919050565b6000611c3182611c38565b9050919050565b6000611c4382611bfc565b9050919050565b60005b83811015611c68578082015181840152602081019050611c4d565b83811115611c77576000848401525b50505050565b611c8682611d55565b810181811067ffffffffffffffff82111715611ca557611ca4611d26565b5b80604052505050565b6000611cb982611c1c565b91507fffffffffffffffffffffffffffffffffffffffffffffffffffffffffffffffff821415611cec57611ceb611cf7565b5b600182019050919050565b7f4e487b7100000000000000000000000000000000000000000000000000000000600052601160045260246000fd5b7f4e487b7100000000000000000000000000000000000000000000000000000000600052604160045260246000fd5b6000601f19601f8301169050919050565b7f4f776e61626c653a206e6577206f776e657220697320746865207a65726f206160008201527f6464726573730000000000000000000000000000000000000000000000000000602082015250565b7f436f6d707574696e67506f7765724d696e696e673a2049742773206e6f74207460008201527f696d6520746f20636c61696d2079657400000000000000000000000000000000602082015250565b7f416464726573733a20696e73756666696369656e742062616c616e636520666f60008201527f722063616c6c0000000000000000000000000000000000000000000000000000602082015250565b7f436f6d707574696e67506f7765724d696e696e673a2054686520656e6420746960008201527f6d65206d757374206265206c61746572207468616e207468652073746172742060208201527f74696d6500000000000000000000000000000000000000000000000000000000604082015250565b7f436f6d707574696e67506f7765724d696e696e673a206c69737420617272617960008201527f206973206e756c6c000000000000000000000000000000000000000000000000602082015250565b7f4f776e61626c653a2063616c6c6572206973206e6f7420746865206f776e6572600082015250565b7f436f6d707574696e67506f7765724d696e696e673a206e6f206163636f756e7460008201527f20696e666f000000000000000000000000000000000000000000000000000000602082015250565b7f436f6d707574696e67506f7765724d696e696e673a207468652073746172742060008201527f74696d652063616e6e6f74206265206c61746572207468616e20656e6420746960208201527f6d65000000000000000000000000000000000000000000000000000000000000604082015250565b7f436f6d707574696e67506f7765724d696e696e673a20746865206163636f756e60008201527f7420697320616c726561647920636c61696d6564000000000000000000000000602082015250565b7f416464726573733a2063616c6c20746f206e6f6e2d636f6e7472616374000000600082015250565b7f5361666545524332303a204552433230206f7065726174696f6e20646964206e60008201527f6f74207375636365656400000000000000000000000000000000000000000000602082015250565b6120d481611bcc565b81146120df57600080fd5b50565b6120eb81611bde565b81146120f657600080fd5b50565b61210281611bf0565b811461210d57600080fd5b50565b61211981611c1c565b811461212457600080fd5b5056fea26469706673582212208b8421ef81f1e9e88597ca1a4c2c007d90189283c51ac492005480978f5f741d64736f6c63430008040033",
  "immutableReferences": {},
  "source": "// SPDX-License-Identifier: MIT\npragma solidity ^0.8.0;\n\nimport \"@openzeppelin/contracts/access/Ownable.sol\";\nimport \"@openzeppelin/contracts/utils/math/SafeMath.sol\";\nimport \"@openzeppelin/contracts/token/ERC20/IERC20.sol\";\nimport \"@openzeppelin/contracts/utils/math/Math.sol\";\nimport \"@openzeppelin/contracts/token/ERC20/utils/SafeERC20.sol\";\n\ncontract ComputingPowerMining is Ownable {\n    using SafeMath for uint256;\n    using SafeERC20 for IERC20;\n\n    /**********  *********/\n    // \n    IERC20 public token;\n    // \n    uint256 public totalReleaseAmount;\n    // , USDT, TODO:\n    uint256 public totalSwappedAmount;\n    // \n    uint256 public startTime;\n    // \n    uint256 public endTime;\n    // \n    uint256 public countedPower;\n\n    // \n    struct AccountPowerInfo {\n        // \n        address account;\n        // , USDT\n        uint256 power;\n        // DAO\n        uint256 receiveAmount;\n        // DAO\n        uint256 unreleasedAmount;\n        // \n        bool isClaim;\n    }\n    // \n    mapping(address => AccountPowerInfo) public accountPowerInfoList;\n\n    /**********  *********/\n    constructor(\n        IERC20 _token, // \n        uint256 _totalReleaseAmount, // \n        uint256 _totalSwappedAmount, // , USDT\n        uint256 _startTime, // \n        uint256 _endTime // \n    ) {\n        require(address(_token) != address(0), \"ComputingPowerMining: token is the zero address\");\n        require(_totalReleaseAmount > 0, \"ComputingPowerMining: total release amount is 0\");\n        require(_totalSwappedAmount > 0, \"ComputingPowerMining: total swaps amount is 0\");\n        require(_endTime > _startTime, \"ComputingPowerMining: Start time cannot be later than end time\");\n\n        token = _token;\n        totalReleaseAmount = _totalReleaseAmount;\n        totalSwappedAmount = _totalSwappedAmount;\n        startTime = _startTime;\n        endTime = _endTime;\n    }\n\n    /**********  *********/\n    // \n    function setTotalReleaseAmount(uint256 amount) public onlyOwner {\n        totalReleaseAmount = amount;\n    }\n    // \n    function setTotalSwappedAmount(uint256 amount) public onlyOwner {\n        totalSwappedAmount = amount;\n    }\n    // \n    function setStartTime(uint256 time) public onlyOwner {\n        require(time <= endTime, \"ComputingPowerMining: the start time cannot be later than end time\");\n        startTime = time;\n    }\n    // \n    function setEndTime(uint256 time) public onlyOwner {\n        require(time > startTime, \"ComputingPowerMining: The end time must be later than the start time\");\n        endTime = time;\n    }\n\n    // \n    function updateAccountPowerList(AccountPowerInfo[] memory list) public onlyOwner {\n        require(list.length > 0, \"ComputingPowerMining: list array is null\");\n        for (uint i = 0; i < list.length; i++) {\n            AccountPowerInfo memory record = list[i];\n            if (record.receiveAmount > 0) {\n                address receiveAccount = record.account;\n                AccountPowerInfo storage info = accountPowerInfoList[receiveAccount];\n                if (info.account == address(0)) {\n                    accountPowerInfoList[receiveAccount] = AccountPowerInfo({\n                        account: receiveAccount,\n                        power: record.power,\n                        receiveAmount: record.receiveAmount,\n                        unreleasedAmount: record.unreleasedAmount,\n                        isClaim: false\n                    });\n                    countedPower = countedPower.add(record.power);\n                }\n            }\n        }\n    }\n\n    /**********  *********/\n    /**\n     * @dev Check if an account has this accountPowerInfoList.\n     * @param account the address\n     * @return bool\n     */\n    function hasPowerInfo(address account) public view returns (bool) {\n        AccountPowerInfo memory info = accountPowerInfoList[account];\n        return info.account != address(0);\n    }\n\n    /**********  *********/\n    /**\n     * @dev common claim function\n     */\n    function claim() public {\n        require(block.timestamp >= endTime, \"ComputingPowerMining: It's not time to claim yet\");\n        address account = msg.sender;\n        AccountPowerInfo storage info = accountPowerInfoList[account];\n        require(info.account != address(0), 'ComputingPowerMining: no account info');\n        require(info.isClaim == false, 'ComputingPowerMining: the account is already claimed');\n\n        token.safeTransfer(account, info.receiveAmount);\n        info.receiveAmount = 0;\n        info.isClaim = true;\n    }\n\n    \n    /**********  *********/\n    function killSelf(address payable recipientToken) public onlyOwner {\n        uint256 contractBalance = token.balanceOf(address(this));\n        token.safeTransfer(recipientToken, contractBalance);\n\n        selfdestruct(recipientToken);\n    }\n}\n",
  "sourcePath": "D:\\Workspaces\\DaoswapDex\\daoswapdex-heco-testnet\\core-chn-node\\contracts\\ComputingPowerMining.sol",
  "compiler": {
    "name": "solc",
    "version": "0.8.4+commit.c7e474f2.Emscripten.clang"
  },
  "schemaVersion": "3.4.3",
  "updatedAt": "2021-10-02T15:01:34.794Z",
  "networkType": "ethereum",
  "devdoc": {
    "kind": "dev",
    "methods": {
      "claim()": {
        "details": "common claim function"
      },
      "hasPowerInfo(address)": {
        "details": "Check if an account has this accountPowerInfoList.",
        "params": {
          "account": "the address"
        },
        "returns": {
          "_0": "bool"
        }
      },
      "owner()": {
        "details": "Returns the address of the current owner."
      },
      "renounceOwnership()": {
        "details": "Leaves the contract without owner. It will not be possible to call `onlyOwner` functions anymore. Can only be called by the current owner. NOTE: Renouncing ownership will leave the contract without an owner, thereby removing any functionality that is only available to the owner."
      },
      "transferOwnership(address)": {
        "details": "Transfers ownership of the contract to a new account (`newOwner`). Can only be called by the current owner."
      }
    },
    "version": 1
  },
  "userdoc": {
    "kind": "user",
    "methods": {},
    "version": 1
  }
}