{
  "contractName": "ComputingPowerMiningForLiquidity",
  "abi": [
    {
      "inputs": [
        {
          "internalType": "contract IERC20",
          "name": "_token",
          "type": "address"
        },
        {
          "internalType": "address",
          "name": "_tokenWallet",
          "type": "address"
        },
        {
          "internalType": "uint256",
          "name": "_totalReleaseAmount",
          "type": "uint256"
        },
        {
          "internalType": "uint256",
          "name": "_startTime",
          "type": "uint256"
        },
        {
          "internalType": "uint256",
          "name": "_endTime",
          "type": "uint256"
        }
      ],
      "stateMutability": "nonpayable",
      "type": "constructor"
    },
    {
      "anonymous": false,
      "inputs": [
        {
          "indexed": true,
          "internalType": "address",
          "name": "previousOwner",
          "type": "address"
        },
        {
          "indexed": true,
          "internalType": "address",
          "name": "newOwner",
          "type": "address"
        }
      ],
      "name": "OwnershipTransferred",
      "type": "event"
    },
    {
      "anonymous": false,
      "inputs": [
        {
          "indexed": false,
          "internalType": "address",
          "name": "wallet",
          "type": "address"
        },
        {
          "indexed": false,
          "internalType": "address",
          "name": "account",
          "type": "address"
        },
        {
          "indexed": false,
          "internalType": "uint256",
          "name": "amount",
          "type": "uint256"
        }
      ],
      "name": "transferToken",
      "type": "event"
    },
    {
      "inputs": [
        {
          "internalType": "address",
          "name": "",
          "type": "address"
        }
      ],
      "name": "accountPowerInfoList",
      "outputs": [
        {
          "internalType": "address",
          "name": "account",
          "type": "address"
        },
        {
          "internalType": "uint256",
          "name": "power",
          "type": "uint256"
        },
        {
          "internalType": "uint256",
          "name": "receiveAmount",
          "type": "uint256"
        },
        {
          "internalType": "uint256",
          "name": "nodeType",
          "type": "uint256"
        },
        {
          "internalType": "uint256",
          "name": "liquidity",
          "type": "uint256"
        },
        {
          "internalType": "bool",
          "name": "isClaim",
          "type": "bool"
        }
      ],
      "stateMutability": "view",
      "type": "function",
      "constant": true
    },
    {
      "inputs": [],
      "name": "countedPower",
      "outputs": [
        {
          "internalType": "uint256",
          "name": "",
          "type": "uint256"
        }
      ],
      "stateMutability": "view",
      "type": "function",
      "constant": true
    },
    {
      "inputs": [],
      "name": "endTime",
      "outputs": [
        {
          "internalType": "uint256",
          "name": "",
          "type": "uint256"
        }
      ],
      "stateMutability": "view",
      "type": "function",
      "constant": true
    },
    {
      "inputs": [],
      "name": "owner",
      "outputs": [
        {
          "internalType": "address",
          "name": "",
          "type": "address"
        }
      ],
      "stateMutability": "view",
      "type": "function",
      "constant": true
    },
    {
      "inputs": [],
      "name": "renounceOwnership",
      "outputs": [],
      "stateMutability": "nonpayable",
      "type": "function"
    },
    {
      "inputs": [],
      "name": "startTime",
      "outputs": [
        {
          "internalType": "uint256",
          "name": "",
          "type": "uint256"
        }
      ],
      "stateMutability": "view",
      "type": "function",
      "constant": true
    },
    {
      "inputs": [],
      "name": "token",
      "outputs": [
        {
          "internalType": "contract IERC20",
          "name": "",
          "type": "address"
        }
      ],
      "stateMutability": "view",
      "type": "function",
      "constant": true
    },
    {
      "inputs": [],
      "name": "tokenWallet",
      "outputs": [
        {
          "internalType": "address",
          "name": "",
          "type": "address"
        }
      ],
      "stateMutability": "view",
      "type": "function",
      "constant": true
    },
    {
      "inputs": [],
      "name": "totalReleaseAmount",
      "outputs": [
        {
          "internalType": "uint256",
          "name": "",
          "type": "uint256"
        }
      ],
      "stateMutability": "view",
      "type": "function",
      "constant": true
    },
    {
      "inputs": [
        {
          "internalType": "address",
          "name": "newOwner",
          "type": "address"
        }
      ],
      "name": "transferOwnership",
      "outputs": [],
      "stateMutability": "nonpayable",
      "type": "function"
    },
    {
      "inputs": [
        {
          "internalType": "uint256",
          "name": "amount",
          "type": "uint256"
        }
      ],
      "name": "setTotalReleaseAmount",
      "outputs": [],
      "stateMutability": "nonpayable",
      "type": "function"
    },
    {
      "inputs": [
        {
          "internalType": "uint256",
          "name": "time",
          "type": "uint256"
        }
      ],
      "name": "setStartTime",
      "outputs": [],
      "stateMutability": "nonpayable",
      "type": "function"
    },
    {
      "inputs": [
        {
          "internalType": "uint256",
          "name": "time",
          "type": "uint256"
        }
      ],
      "name": "setEndTime",
      "outputs": [],
      "stateMutability": "nonpayable",
      "type": "function"
    },
    {
      "inputs": [
        {
          "components": [
            {
              "internalType": "address",
              "name": "account",
              "type": "address"
            },
            {
              "internalType": "uint256",
              "name": "power",
              "type": "uint256"
            },
            {
              "internalType": "uint256",
              "name": "receiveAmount",
              "type": "uint256"
            },
            {
              "internalType": "uint256",
              "name": "nodeType",
              "type": "uint256"
            },
            {
              "internalType": "uint256",
              "name": "liquidity",
              "type": "uint256"
            }
          ],
          "internalType": "struct ComputingPowerMiningForLiquidity.PowerInfoListItem[]",
          "name": "list",
          "type": "tuple[]"
        }
      ],
      "name": "updateAccountPowerList",
      "outputs": [],
      "stateMutability": "nonpayable",
      "type": "function"
    },
    {
      "inputs": [
        {
          "internalType": "address",
          "name": "account",
          "type": "address"
        }
      ],
      "name": "hasPowerInfo",
      "outputs": [
        {
          "internalType": "bool",
          "name": "",
          "type": "bool"
        }
      ],
      "stateMutability": "view",
      "type": "function",
      "constant": true
    },
    {
      "inputs": [],
      "name": "claim",
      "outputs": [],
      "stateMutability": "nonpayable",
      "type": "function"
    },
    {
      "inputs": [
        {
          "internalType": "address payable",
          "name": "recipientToken",
          "type": "address"
        }
      ],
      "name": "killSelf",
      "outputs": [],
      "stateMutability": "nonpayable",
      "type": "function"
    }
  ],
  "bytecode": "0x60806040523480156200001157600080fd5b50604051620029473803806200294783398181016040528101906200003791906200037b565b620000576200004b6200026a60201b60201c565b6200027260201b60201c565b600073ffffffffffffffffffffffffffffffffffffffff168573ffffffffffffffffffffffffffffffffffffffff161415620000ca576040517f08c379a0000000000000000000000000000000000000000000000000000000008152600401620000c190620004bb565b60405180910390fd5b600073ffffffffffffffffffffffffffffffffffffffff168473ffffffffffffffffffffffffffffffffffffffff1614156200013d576040517f08c379a00000000000000000000000000000000000000000000000000000000081526004016200013490620004ff565b60405180910390fd5b6000831162000183576040517f08c379a00000000000000000000000000000000000000000000000000000000081526004016200017a9062000499565b60405180910390fd5b818111620001c8576040517f08c379a0000000000000000000000000000000000000000000000000000000008152600401620001bf90620004dd565b60405180910390fd5b84600160006101000a81548173ffffffffffffffffffffffffffffffffffffffff021916908373ffffffffffffffffffffffffffffffffffffffff16021790555083600260006101000a81548173ffffffffffffffffffffffffffffffffffffffff021916908373ffffffffffffffffffffffffffffffffffffffff16021790555082600381905550816004819055508060058190555050505050506200070e565b600033905090565b60008060009054906101000a900473ffffffffffffffffffffffffffffffffffffffff169050816000806101000a81548173ffffffffffffffffffffffffffffffffffffffff021916908373ffffffffffffffffffffffffffffffffffffffff1602179055508173ffffffffffffffffffffffffffffffffffffffff168173ffffffffffffffffffffffffffffffffffffffff167f8be0079c531659141344cd1fd0a4f28419497f9722a3daafe3b4186f6b6457e060405160405180910390a35050565b6000815190506200034781620006c0565b92915050565b6000815190506200035e81620006da565b92915050565b6000815190506200037581620006f4565b92915050565b600080600080600060a086880312156200039457600080fd5b6000620003a4888289016200034d565b9550506020620003b78882890162000336565b9450506040620003ca8882890162000364565b9350506060620003dd8882890162000364565b9250506080620003f08882890162000364565b9150509295509295909350565b60006200040c602f8362000521565b9150620004198262000584565b604082019050919050565b600062000433602f8362000521565b91506200044082620005d3565b604082019050919050565b60006200045a603e8362000521565b9150620004678262000622565b604082019050919050565b600062000481603a8362000521565b91506200048e8262000671565b604082019050919050565b60006020820190508181036000830152620004b481620003fd565b9050919050565b60006020820190508181036000830152620004d68162000424565b9050919050565b60006020820190508181036000830152620004f8816200044b565b9050919050565b600060208201905081810360008301526200051a8162000472565b9050919050565b600082825260208201905092915050565b60006200053f826200055a565b9050919050565b6000620005538262000532565b9050919050565b600073ffffffffffffffffffffffffffffffffffffffff82169050919050565b6000819050919050565b7f436f6d707574696e67506f7765724d696e696e673a20746f74616c2072656c6560008201527f61736520616d6f756e7420697320300000000000000000000000000000000000602082015250565b7f436f6d707574696e67506f7765724d696e696e673a20746f6b656e206973207460008201527f6865207a65726f20616464726573730000000000000000000000000000000000602082015250565b7f436f6d707574696e67506f7765724d696e696e673a2053746172742074696d6560008201527f2063616e6e6f74206265206c61746572207468616e20656e642074696d650000602082015250565b7f436f6d707574696e67506f7765724d696e696e673a2054686520746f6b656e2060008201527f77616c6c657420697320746865207a65726f2061646472657373000000000000602082015250565b620006cb8162000532565b8114620006d757600080fd5b50565b620006e58162000546565b8114620006f157600080fd5b50565b620006ff816200057a565b81146200070b57600080fd5b50565b612229806200071e6000396000f3fe608060405234801561001057600080fd5b506004361061010b5760003560e01c806378e97925116100a2578063c4f7019911610071578063c4f701991461025a578063caeae15d1461028f578063ccb98ffc146102ad578063f2fde38b146102c9578063fc0c546a146102e55761010b565b806378e97925146101e45780638da5cb5b146102025780639a645db714610220578063bff99c6c1461023c5761010b565b80633e0a322d116100de5780633e0a322d146101845780634e71d92d146101a05780636915b1b0146101aa578063715018a6146101da5761010b565b80630cc3a41f146101105780631b45c92d1461012e5780633197cbb61461014a5780633a507d7d14610168575b600080fd5b610118610303565b6040516101259190611ba4565b60405180910390f35b61014860048036038101906101439190611680565b610309565b005b61015261038f565b60405161015f9190611ba4565b60405180910390f35b610182600480360381019061017d91906115ed565b610395565b005b61019e60048036038101906101999190611680565b610526565b005b6101a86105f1565b005b6101c460048036038101906101bf91906115c4565b610861565b6040516101d191906119ec565b60405180910390f35b6101e2610986565b005b6101ec610a0e565b6040516101f99190611ba4565b60405180910390f35b61020a610a14565b6040516102179190611910565b60405180910390f35b61023a60048036038101906102359190611616565b610a3d565b005b610244610d62565b6040516102519190611910565b60405180910390f35b610274600480360381019061026f91906115c4565b610d88565b6040516102869695949392919061198b565b60405180910390f35b610297610df1565b6040516102a49190611ba4565b60405180910390f35b6102c760048036038101906102c29190611680565b610df7565b005b6102e360048036038101906102de91906115c4565b610ec1565b005b6102ed610fb9565b6040516102fa9190611a07565b60405180910390f35b60065481565b610311610fdf565b73ffffffffffffffffffffffffffffffffffffffff1661032f610a14565b73ffffffffffffffffffffffffffffffffffffffff1614610385576040517f08c379a000000000000000000000000000000000000000000000000000000000815260040161037c90611ae4565b60405180910390fd5b8060038190555050565b60055481565b61039d610fdf565b73ffffffffffffffffffffffffffffffffffffffff166103bb610a14565b73ffffffffffffffffffffffffffffffffffffffff1614610411576040517f08c379a000000000000000000000000000000000000000000000000000000000815260040161040890611ae4565b60405180910390fd5b6000600160009054906101000a900473ffffffffffffffffffffffffffffffffffffffff1673ffffffffffffffffffffffffffffffffffffffff166370a08231306040518263ffffffff1660e01b815260040161046e9190611910565b60206040518083038186803b15801561048657600080fd5b505afa15801561049a573d6000803e3d6000fd5b505050506040513d601f19601f820116820180604052508101906104be91906116a9565b905061050d8282600160009054906101000a900473ffffffffffffffffffffffffffffffffffffffff1673ffffffffffffffffffffffffffffffffffffffff16610fe79092919063ffffffff16565b8173ffffffffffffffffffffffffffffffffffffffff16ff5b61052e610fdf565b73ffffffffffffffffffffffffffffffffffffffff1661054c610a14565b73ffffffffffffffffffffffffffffffffffffffff16146105a2576040517f08c379a000000000000000000000000000000000000000000000000000000000815260040161059990611ae4565b60405180910390fd5b6005548111156105e7576040517f08c379a00000000000000000000000000000000000000000000000000000000081526004016105de90611b24565b60405180910390fd5b8060048190555050565b600554421015610636576040517f08c379a000000000000000000000000000000000000000000000000000000000815260040161062d90611a64565b60405180910390fd5b60003390506000600760008373ffffffffffffffffffffffffffffffffffffffff1673ffffffffffffffffffffffffffffffffffffffff1681526020019081526020016000209050600073ffffffffffffffffffffffffffffffffffffffff168160000160009054906101000a900473ffffffffffffffffffffffffffffffffffffffff1673ffffffffffffffffffffffffffffffffffffffff161415610712576040517f08c379a000000000000000000000000000000000000000000000000000000000815260040161070990611b04565b60405180910390fd5b600015158160050160009054906101000a900460ff1615151461076a576040517f08c379a000000000000000000000000000000000000000000000000000000000815260040161076190611b44565b60405180910390fd5b60018160050160006101000a81548160ff0219169083151502179055506107fc600260009054906101000a900473ffffffffffffffffffffffffffffffffffffffff16838360020154600160009054906101000a900473ffffffffffffffffffffffffffffffffffffffff1673ffffffffffffffffffffffffffffffffffffffff1661106d909392919063ffffffff16565b7ff5537ede4763d97b5cf86d9eb6ae77ccd8560b8b2d4bd4503537c6b2996a7a9b600260009054906101000a900473ffffffffffffffffffffffffffffffffffffffff168383600201546040516108559392919061192b565b60405180910390a15050565b600080600760008473ffffffffffffffffffffffffffffffffffffffff1673ffffffffffffffffffffffffffffffffffffffff1681526020019081526020016000206040518060c00160405290816000820160009054906101000a900473ffffffffffffffffffffffffffffffffffffffff1673ffffffffffffffffffffffffffffffffffffffff1673ffffffffffffffffffffffffffffffffffffffff168152602001600182015481526020016002820154815260200160038201548152602001600482015481526020016005820160009054906101000a900460ff1615151515815250509050600073ffffffffffffffffffffffffffffffffffffffff16816000015173ffffffffffffffffffffffffffffffffffffffff161415915050919050565b61098e610fdf565b73ffffffffffffffffffffffffffffffffffffffff166109ac610a14565b73ffffffffffffffffffffffffffffffffffffffff1614610a02576040517f08c379a00000000000000000000000000000000000000000000000000000000081526004016109f990611ae4565b60405180910390fd5b610a0c60006110f6565b565b60045481565b60008060009054906101000a900473ffffffffffffffffffffffffffffffffffffffff16905090565b610a45610fdf565b73ffffffffffffffffffffffffffffffffffffffff16610a63610a14565b73ffffffffffffffffffffffffffffffffffffffff1614610ab9576040517f08c379a0000000000000000000000000000000000000000000000000000000008152600401610ab090611ae4565b60405180910390fd5b6000815111610afd576040517f08c379a0000000000000000000000000000000000000000000000000000000008152600401610af490611ac4565b60405180910390fd5b60005b8151811015610d5e576000828281518110610b44577f4e487b7100000000000000000000000000000000000000000000000000000000600052603260045260246000fd5b60200260200101519050600081604001511115610d4a576000816000015190506000600760008373ffffffffffffffffffffffffffffffffffffffff1673ffffffffffffffffffffffffffffffffffffffff1681526020019081526020016000209050600073ffffffffffffffffffffffffffffffffffffffff168160000160009054906101000a900473ffffffffffffffffffffffffffffffffffffffff1673ffffffffffffffffffffffffffffffffffffffff161415610d47576040518060c001604052808373ffffffffffffffffffffffffffffffffffffffff1681526020018460200151815260200184604001518152602001846060015181526020018460800151815260200160001515815250600760008473ffffffffffffffffffffffffffffffffffffffff1673ffffffffffffffffffffffffffffffffffffffff16815260200190815260200160002060008201518160000160006101000a81548173ffffffffffffffffffffffffffffffffffffffff021916908373ffffffffffffffffffffffffffffffffffffffff1602179055506020820151816001015560408201518160020155606082015181600301556080820151816004015560a08201518160050160006101000a81548160ff021916908315150217905550905050610d4083602001516006546111ba90919063ffffffff16565b6006819055505b50505b508080610d5690611d7a565b915050610b00565b5050565b600260009054906101000a900473ffffffffffffffffffffffffffffffffffffffff1681565b60076020528060005260406000206000915090508060000160009054906101000a900473ffffffffffffffffffffffffffffffffffffffff16908060010154908060020154908060030154908060040154908060050160009054906101000a900460ff16905086565b60035481565b610dff610fdf565b73ffffffffffffffffffffffffffffffffffffffff16610e1d610a14565b73ffffffffffffffffffffffffffffffffffffffff1614610e73576040517f08c379a0000000000000000000000000000000000000000000000000000000008152600401610e6a90611ae4565b60405180910390fd5b6004548111610eb7576040517f08c379a0000000000000000000000000000000000000000000000000000000008152600401610eae90611aa4565b60405180910390fd5b8060058190555050565b610ec9610fdf565b73ffffffffffffffffffffffffffffffffffffffff16610ee7610a14565b73ffffffffffffffffffffffffffffffffffffffff1614610f3d576040517f08c379a0000000000000000000000000000000000000000000000000000000008152600401610f3490611ae4565b60405180910390fd5b600073ffffffffffffffffffffffffffffffffffffffff168173ffffffffffffffffffffffffffffffffffffffff161415610fad576040517f08c379a0000000000000000000000000000000000000000000000000000000008152600401610fa490611a44565b60405180910390fd5b610fb6816110f6565b50565b600160009054906101000a900473ffffffffffffffffffffffffffffffffffffffff1681565b600033905090565b6110688363a9059cbb60e01b8484604051602401611006929190611962565b604051602081830303815290604052907bffffffffffffffffffffffffffffffffffffffffffffffffffffffff19166020820180517bffffffffffffffffffffffffffffffffffffffffffffffffffffffff83818316178352505050506111d0565b505050565b6110f0846323b872dd60e01b85858560405160240161108e9392919061192b565b604051602081830303815290604052907bffffffffffffffffffffffffffffffffffffffffffffffffffffffff19166020820180517bffffffffffffffffffffffffffffffffffffffffffffffffffffffff83818316178352505050506111d0565b50505050565b60008060009054906101000a900473ffffffffffffffffffffffffffffffffffffffff169050816000806101000a81548173ffffffffffffffffffffffffffffffffffffffff021916908373ffffffffffffffffffffffffffffffffffffffff1602179055508173ffffffffffffffffffffffffffffffffffffffff168173ffffffffffffffffffffffffffffffffffffffff167f8be0079c531659141344cd1fd0a4f28419497f9722a3daafe3b4186f6b6457e060405160405180910390a35050565b600081836111c89190611c42565b905092915050565b6000611232826040518060400160405280602081526020017f5361666545524332303a206c6f772d6c6576656c2063616c6c206661696c65648152508573ffffffffffffffffffffffffffffffffffffffff166112979092919063ffffffff16565b905060008151111561129257808060200190518101906112529190611657565b611291576040517f08c379a000000000000000000000000000000000000000000000000000000000815260040161128890611b84565b60405180910390fd5b5b505050565b60606112a684846000856112af565b90509392505050565b6060824710156112f4576040517f08c379a00000000000000000000000000000000000000000000000000000000081526004016112eb90611a84565b60405180910390fd5b6112fd856113c3565b61133c576040517f08c379a000000000000000000000000000000000000000000000000000000000815260040161133390611b64565b60405180910390fd5b6000808673ffffffffffffffffffffffffffffffffffffffff16858760405161136591906118f9565b60006040518083038185875af1925050503d80600081146113a2576040519150601f19603f3d011682016040523d82523d6000602084013e6113a7565b606091505b50915091506113b78282866113d6565b92505050949350505050565b600080823b905060008111915050919050565b606083156113e657829050611436565b6000835111156113f95782518084602001fd5b816040517f08c379a000000000000000000000000000000000000000000000000000000000815260040161142d9190611a22565b60405180910390fd5b9392505050565b600061145061144b84611be4565b611bbf565b905080838252602082019050828560a086028201111561146f57600080fd5b60005b8581101561149f57816114858882611512565b845260208401935060a08301925050600181019050611472565b5050509392505050565b6000813590506114b881612197565b92915050565b6000813590506114cd816121ae565b92915050565b600082601f8301126114e457600080fd5b81356114f484826020860161143d565b91505092915050565b60008151905061150c816121c5565b92915050565b600060a0828403121561152457600080fd5b61152e60a0611bbf565b9050600061153e848285016114a9565b60008301525060206115528482850161159a565b60208301525060406115668482850161159a565b604083015250606061157a8482850161159a565b606083015250608061158e8482850161159a565b60808301525092915050565b6000813590506115a9816121dc565b92915050565b6000815190506115be816121dc565b92915050565b6000602082840312156115d657600080fd5b60006115e4848285016114a9565b91505092915050565b6000602082840312156115ff57600080fd5b600061160d848285016114be565b91505092915050565b60006020828403121561162857600080fd5b600082013567ffffffffffffffff81111561164257600080fd5b61164e848285016114d3565b91505092915050565b60006020828403121561166957600080fd5b6000611677848285016114fd565b91505092915050565b60006020828403121561169257600080fd5b60006116a08482850161159a565b91505092915050565b6000602082840312156116bb57600080fd5b60006116c9848285016115af565b91505092915050565b6116db81611c98565b82525050565b6116ea81611cbc565b82525050565b60006116fb82611c10565b6117058185611c26565b9350611715818560208601611d16565b80840191505092915050565b61172a81611cf2565b82525050565b600061173b82611c1b565b6117458185611c31565b9350611755818560208601611d16565b61175e81611e21565b840191505092915050565b6000611776602683611c31565b915061178182611e32565b604082019050919050565b6000611799603083611c31565b91506117a482611e81565b604082019050919050565b60006117bc602683611c31565b91506117c782611ed0565b604082019050919050565b60006117df604483611c31565b91506117ea82611f1f565b606082019050919050565b6000611802602883611c31565b915061180d82611f94565b604082019050919050565b6000611825602083611c31565b915061183082611fe3565b602082019050919050565b6000611848602583611c31565b91506118538261200c565b604082019050919050565b600061186b604283611c31565b91506118768261205b565b606082019050919050565b600061188e603483611c31565b9150611899826120d0565b604082019050919050565b60006118b1601d83611c31565b91506118bc8261211f565b602082019050919050565b60006118d4602a83611c31565b91506118df82612148565b604082019050919050565b6118f381611ce8565b82525050565b600061190582846116f0565b915081905092915050565b600060208201905061192560008301846116d2565b92915050565b600060608201905061194060008301866116d2565b61194d60208301856116d2565b61195a60408301846118ea565b949350505050565b600060408201905061197760008301856116d2565b61198460208301846118ea565b9392505050565b600060c0820190506119a060008301896116d2565b6119ad60208301886118ea565b6119ba60408301876118ea565b6119c760608301866118ea565b6119d460808301856118ea565b6119e160a08301846116e1565b979650505050505050565b6000602082019050611a0160008301846116e1565b92915050565b6000602082019050611a1c6000830184611721565b92915050565b60006020820190508181036000830152611a3c8184611730565b905092915050565b60006020820190508181036000830152611a5d81611769565b9050919050565b60006020820190508181036000830152611a7d8161178c565b9050919050565b60006020820190508181036000830152611a9d816117af565b9050919050565b60006020820190508181036000830152611abd816117d2565b9050919050565b60006020820190508181036000830152611add816117f5565b9050919050565b60006020820190508181036000830152611afd81611818565b9050919050565b60006020820190508181036000830152611b1d8161183b565b9050919050565b60006020820190508181036000830152611b3d8161185e565b9050919050565b60006020820190508181036000830152611b5d81611881565b9050919050565b60006020820190508181036000830152611b7d816118a4565b9050919050565b60006020820190508181036000830152611b9d816118c7565b9050919050565b6000602082019050611bb960008301846118ea565b92915050565b6000611bc9611bda565b9050611bd58282611d49565b919050565b6000604051905090565b600067ffffffffffffffff821115611bff57611bfe611df2565b5b602082029050602081019050919050565b600081519050919050565b600081519050919050565b600081905092915050565b600082825260208201905092915050565b6000611c4d82611ce8565b9150611c5883611ce8565b9250827fffffffffffffffffffffffffffffffffffffffffffffffffffffffffffffffff03821115611c8d57611c8c611dc3565b5b828201905092915050565b6000611ca382611cc8565b9050919050565b6000611cb582611cc8565b9050919050565b60008115159050919050565b600073ffffffffffffffffffffffffffffffffffffffff82169050919050565b6000819050919050565b6000611cfd82611d04565b9050919050565b6000611d0f82611cc8565b9050919050565b60005b83811015611d34578082015181840152602081019050611d19565b83811115611d43576000848401525b50505050565b611d5282611e21565b810181811067ffffffffffffffff82111715611d7157611d70611df2565b5b80604052505050565b6000611d8582611ce8565b91507fffffffffffffffffffffffffffffffffffffffffffffffffffffffffffffffff821415611db857611db7611dc3565b5b600182019050919050565b7f4e487b7100000000000000000000000000000000000000000000000000000000600052601160045260246000fd5b7f4e487b7100000000000000000000000000000000000000000000000000000000600052604160045260246000fd5b6000601f19601f8301169050919050565b7f4f776e61626c653a206e6577206f776e657220697320746865207a65726f206160008201527f6464726573730000000000000000000000000000000000000000000000000000602082015250565b7f436f6d707574696e67506f7765724d696e696e673a2049742773206e6f74207460008201527f696d6520746f20636c61696d2079657400000000000000000000000000000000602082015250565b7f416464726573733a20696e73756666696369656e742062616c616e636520666f60008201527f722063616c6c0000000000000000000000000000000000000000000000000000602082015250565b7f436f6d707574696e67506f7765724d696e696e673a2054686520656e6420746960008201527f6d65206d757374206265206c61746572207468616e207468652073746172742060208201527f74696d6500000000000000000000000000000000000000000000000000000000604082015250565b7f436f6d707574696e67506f7765724d696e696e673a206c69737420617272617960008201527f206973206e756c6c000000000000000000000000000000000000000000000000602082015250565b7f4f776e61626c653a2063616c6c6572206973206e6f7420746865206f776e6572600082015250565b7f436f6d707574696e67506f7765724d696e696e673a206e6f206163636f756e7460008201527f20696e666f000000000000000000000000000000000000000000000000000000602082015250565b7f436f6d707574696e67506f7765724d696e696e673a207468652073746172742060008201527f74696d652063616e6e6f74206265206c61746572207468616e20656e6420746960208201527f6d65000000000000000000000000000000000000000000000000000000000000604082015250565b7f436f6d707574696e67506f7765724d696e696e673a20746865206163636f756e60008201527f7420697320616c726561647920636c61696d6564000000000000000000000000602082015250565b7f416464726573733a2063616c6c20746f206e6f6e2d636f6e7472616374000000600082015250565b7f5361666545524332303a204552433230206f7065726174696f6e20646964206e60008201527f6f74207375636365656400000000000000000000000000000000000000000000602082015250565b6121a081611c98565b81146121ab57600080fd5b50565b6121b781611caa565b81146121c257600080fd5b50565b6121ce81611cbc565b81146121d957600080fd5b50565b6121e581611ce8565b81146121f057600080fd5b5056fea264697066735822122052a65bcffb150a5d88953311f8de269f65cef12d8279dc63d3fe1d85c55d94e764736f6c63430008040033",
  "immutableReferences": {},
  "source": "// SPDX-License-Identifier: MIT\npragma solidity ^0.8.0;\n\nimport \"@openzeppelin/contracts/access/Ownable.sol\";\nimport \"@openzeppelin/contracts/utils/math/SafeMath.sol\";\nimport \"@openzeppelin/contracts/token/ERC20/IERC20.sol\";\nimport \"@openzeppelin/contracts/utils/math/Math.sol\";\nimport \"@openzeppelin/contracts/token/ERC20/utils/SafeERC20.sol\";\n\ncontract ComputingPowerMiningForLiquidity is Ownable {\n    using SafeMath for uint256;\n    using SafeERC20 for IERC20;\n\n    event transferToken(address wallet, address account, uint256 amount);\n\n    /********** Variable definition area *********/\n    // Token address\n    IERC20 public token;\n    // Wallet address for sending tokens\n    address public tokenWallet;\n    // Cycle total volume\n    uint256 public totalReleaseAmount;\n    // Cycle start time\n    uint256 public startTime;\n    // Cycle end time\n    uint256 public endTime;\n    // Calculated computing power\n    uint256 public countedPower;\n\n    // Upload report information\n    struct PowerInfoListItem {\n        address account;\n        uint256 power;\n        uint256 receiveAmount;\n        uint256 nodeType;\n        uint256 liquidity;\n    }\n\n    // Account computing power information\n    struct AccountPowerInfo {\n        address account;\n        uint256 power;\n        uint256 receiveAmount;\n        uint256 nodeType;\n        uint256 liquidity;\n        bool isClaim;\n    }\n    // Record mapping\n    mapping(address => AccountPowerInfo) public accountPowerInfoList;\n\n    /********** Initialize the contract *********/\n    constructor(\n        IERC20 _token,\n        address _tokenWallet,\n        uint256 _totalReleaseAmount,\n        uint256 _startTime,\n        uint256 _endTime\n    ) {\n        require(address(_token) != address(0), \"ComputingPowerMining: token is the zero address\");\n        require(_tokenWallet != address(0), \"ComputingPowerMining: The token wallet is the zero address\");\n        require(_totalReleaseAmount > 0, \"ComputingPowerMining: total release amount is 0\");\n        require(_endTime > _startTime, \"ComputingPowerMining: Start time cannot be later than end time\");\n\n        token = _token;\n        tokenWallet = _tokenWallet;\n        totalReleaseAmount = _totalReleaseAmount;\n        startTime = _startTime;\n        endTime = _endTime;\n    }\n\n    /********** Background function *********/\n    function setTotalReleaseAmount(uint256 amount) public onlyOwner {\n        totalReleaseAmount = amount;\n    }\n    function setStartTime(uint256 time) public onlyOwner {\n        require(time <= endTime, \"ComputingPowerMining: the start time cannot be later than end time\");\n        startTime = time;\n    }\n    function setEndTime(uint256 time) public onlyOwner {\n        require(time > startTime, \"ComputingPowerMining: The end time must be later than the start time\");\n        endTime = time;\n    }\n\n    // Submit report\n    function updateAccountPowerList(PowerInfoListItem[] memory list) public onlyOwner {\n        require(list.length > 0, \"ComputingPowerMining: list array is null\");\n        for (uint i = 0; i < list.length; i++) {\n            PowerInfoListItem memory record = list[i];\n            if (record.receiveAmount > 0) {\n                address receiveAccount = record.account;\n                AccountPowerInfo storage info = accountPowerInfoList[receiveAccount];\n                if (info.account == address(0)) {\n                    accountPowerInfoList[receiveAccount] = AccountPowerInfo({\n                        account: receiveAccount,\n                        power: record.power,\n                        receiveAmount: record.receiveAmount,\n                        nodeType: record.nodeType,\n                        liquidity: record.liquidity,\n                        isClaim: false\n                    });\n                    countedPower = countedPower.add(record.power);\n                }\n            }\n        }\n    }\n\n    /********** Data validation *********/\n    /**\n     * @dev Check if an account has this accountPowerInfoList.\n     * @param account the address\n     * @return bool\n     */\n    function hasPowerInfo(address account) public view returns (bool) {\n        AccountPowerInfo memory info = accountPowerInfoList[account];\n        return info.account != address(0);\n    }\n\n    /********** User function *********/\n    /**\n     * @dev common claim function\n     */\n    function claim() public {\n        require(block.timestamp >= endTime, \"ComputingPowerMining: It's not time to claim yet\");\n        address account = msg.sender;\n        AccountPowerInfo storage info = accountPowerInfoList[account];\n        require(info.account != address(0), 'ComputingPowerMining: no account info');\n        require(info.isClaim == false, 'ComputingPowerMining: the account is already claimed');\n\n        info.isClaim = true;\n        // transfer token to receive account\n        token.safeTransferFrom(tokenWallet, account, info.receiveAmount);\n        emit transferToken(tokenWallet, account, info.receiveAmount);\n    }\n\n    /********** Destroy the contract *********/\n    function killSelf(address payable recipientToken) public onlyOwner {\n        uint256 contractBalance = token.balanceOf(address(this));\n        token.safeTransfer(recipientToken, contractBalance);\n\n        selfdestruct(recipientToken);\n    }\n}\n",
  "sourcePath": "D:\\Workspaces\\DaoswapDex\\daoswapdex-heco-testnet\\core-chn-node\\contracts\\ComputingPowerMiningForLiquidity.sol",
  "compiler": {
    "name": "solc",
    "version": "0.8.4+commit.c7e474f2.Emscripten.clang"
  },
  "schemaVersion": "3.4.3",
  "updatedAt": "2021-10-15T17:28:34.831Z",
  "networkType": "ethereum",
  "devdoc": {
    "kind": "dev",
    "methods": {
      "claim()": {
        "details": "common claim function"
      },
      "hasPowerInfo(address)": {
        "details": "Check if an account has this accountPowerInfoList.",
        "params": {
          "account": "the address"
        },
        "returns": {
          "_0": "bool"
        }
      },
      "owner()": {
        "details": "Returns the address of the current owner."
      },
      "renounceOwnership()": {
        "details": "Leaves the contract without owner. It will not be possible to call `onlyOwner` functions anymore. Can only be called by the current owner. NOTE: Renouncing ownership will leave the contract without an owner, thereby removing any functionality that is only available to the owner."
      },
      "transferOwnership(address)": {
        "details": "Transfers ownership of the contract to a new account (`newOwner`). Can only be called by the current owner."
      }
    },
    "version": 1
  },
  "userdoc": {
    "kind": "user",
    "methods": {},
    "version": 1
  }
}