{
  "contractName": "ComputingPowerMiningForLiquidity",
  "abi": [
    {
      "inputs": [
        {
          "internalType": "contract IERC20",
          "name": "_token",
          "type": "address"
        },
        {
          "internalType": "address",
          "name": "_tokenWallet",
          "type": "address"
        },
        {
          "internalType": "uint256",
          "name": "_totalReleaseAmount",
          "type": "uint256"
        },
        {
          "internalType": "uint256",
          "name": "_startTime",
          "type": "uint256"
        },
        {
          "internalType": "uint256",
          "name": "_endTime",
          "type": "uint256"
        }
      ],
      "stateMutability": "nonpayable",
      "type": "constructor"
    },
    {
      "anonymous": false,
      "inputs": [
        {
          "indexed": true,
          "internalType": "address",
          "name": "previousOwner",
          "type": "address"
        },
        {
          "indexed": true,
          "internalType": "address",
          "name": "newOwner",
          "type": "address"
        }
      ],
      "name": "OwnershipTransferred",
      "type": "event"
    },
    {
      "anonymous": false,
      "inputs": [
        {
          "indexed": false,
          "internalType": "address",
          "name": "wallet",
          "type": "address"
        },
        {
          "indexed": false,
          "internalType": "address",
          "name": "account",
          "type": "address"
        },
        {
          "indexed": false,
          "internalType": "uint256",
          "name": "amount",
          "type": "uint256"
        }
      ],
      "name": "transferToken",
      "type": "event"
    },
    {
      "inputs": [
        {
          "internalType": "address",
          "name": "",
          "type": "address"
        }
      ],
      "name": "accountPowerInfoList",
      "outputs": [
        {
          "internalType": "address",
          "name": "account",
          "type": "address"
        },
        {
          "internalType": "uint256",
          "name": "power",
          "type": "uint256"
        },
        {
          "internalType": "uint256",
          "name": "powerValue",
          "type": "uint256"
        },
        {
          "internalType": "uint256",
          "name": "receiveAmount",
          "type": "uint256"
        },
        {
          "internalType": "uint256",
          "name": "nodeType",
          "type": "uint256"
        },
        {
          "internalType": "uint256",
          "name": "liquidity",
          "type": "uint256"
        },
        {
          "internalType": "bool",
          "name": "isClaim",
          "type": "bool"
        }
      ],
      "stateMutability": "view",
      "type": "function",
      "constant": true
    },
    {
      "inputs": [],
      "name": "countedPower",
      "outputs": [
        {
          "internalType": "uint256",
          "name": "",
          "type": "uint256"
        }
      ],
      "stateMutability": "view",
      "type": "function",
      "constant": true
    },
    {
      "inputs": [],
      "name": "countedPowerValue",
      "outputs": [
        {
          "internalType": "uint256",
          "name": "",
          "type": "uint256"
        }
      ],
      "stateMutability": "view",
      "type": "function",
      "constant": true
    },
    {
      "inputs": [],
      "name": "endTime",
      "outputs": [
        {
          "internalType": "uint256",
          "name": "",
          "type": "uint256"
        }
      ],
      "stateMutability": "view",
      "type": "function",
      "constant": true
    },
    {
      "inputs": [],
      "name": "owner",
      "outputs": [
        {
          "internalType": "address",
          "name": "",
          "type": "address"
        }
      ],
      "stateMutability": "view",
      "type": "function",
      "constant": true
    },
    {
      "inputs": [],
      "name": "renounceOwnership",
      "outputs": [],
      "stateMutability": "nonpayable",
      "type": "function"
    },
    {
      "inputs": [],
      "name": "startTime",
      "outputs": [
        {
          "internalType": "uint256",
          "name": "",
          "type": "uint256"
        }
      ],
      "stateMutability": "view",
      "type": "function",
      "constant": true
    },
    {
      "inputs": [],
      "name": "token",
      "outputs": [
        {
          "internalType": "contract IERC20",
          "name": "",
          "type": "address"
        }
      ],
      "stateMutability": "view",
      "type": "function",
      "constant": true
    },
    {
      "inputs": [],
      "name": "tokenWallet",
      "outputs": [
        {
          "internalType": "address",
          "name": "",
          "type": "address"
        }
      ],
      "stateMutability": "view",
      "type": "function",
      "constant": true
    },
    {
      "inputs": [],
      "name": "totalReleaseAmount",
      "outputs": [
        {
          "internalType": "uint256",
          "name": "",
          "type": "uint256"
        }
      ],
      "stateMutability": "view",
      "type": "function",
      "constant": true
    },
    {
      "inputs": [
        {
          "internalType": "address",
          "name": "newOwner",
          "type": "address"
        }
      ],
      "name": "transferOwnership",
      "outputs": [],
      "stateMutability": "nonpayable",
      "type": "function"
    },
    {
      "inputs": [
        {
          "internalType": "uint256",
          "name": "amount",
          "type": "uint256"
        }
      ],
      "name": "setTotalReleaseAmount",
      "outputs": [],
      "stateMutability": "nonpayable",
      "type": "function"
    },
    {
      "inputs": [
        {
          "internalType": "uint256",
          "name": "time",
          "type": "uint256"
        }
      ],
      "name": "setStartTime",
      "outputs": [],
      "stateMutability": "nonpayable",
      "type": "function"
    },
    {
      "inputs": [
        {
          "internalType": "uint256",
          "name": "time",
          "type": "uint256"
        }
      ],
      "name": "setEndTime",
      "outputs": [],
      "stateMutability": "nonpayable",
      "type": "function"
    },
    {
      "inputs": [
        {
          "components": [
            {
              "internalType": "address",
              "name": "account",
              "type": "address"
            },
            {
              "internalType": "uint256",
              "name": "power",
              "type": "uint256"
            },
            {
              "internalType": "uint256",
              "name": "powerValue",
              "type": "uint256"
            },
            {
              "internalType": "uint256",
              "name": "receiveAmount",
              "type": "uint256"
            },
            {
              "internalType": "uint256",
              "name": "nodeType",
              "type": "uint256"
            },
            {
              "internalType": "uint256",
              "name": "liquidity",
              "type": "uint256"
            }
          ],
          "internalType": "struct ComputingPowerMiningForLiquidity.PowerInfoListItem[]",
          "name": "list",
          "type": "tuple[]"
        }
      ],
      "name": "updateAccountPowerList",
      "outputs": [],
      "stateMutability": "nonpayable",
      "type": "function"
    },
    {
      "inputs": [
        {
          "internalType": "address",
          "name": "account",
          "type": "address"
        }
      ],
      "name": "hasPowerInfo",
      "outputs": [
        {
          "internalType": "bool",
          "name": "",
          "type": "bool"
        }
      ],
      "stateMutability": "view",
      "type": "function",
      "constant": true
    },
    {
      "inputs": [],
      "name": "claim",
      "outputs": [],
      "stateMutability": "nonpayable",
      "type": "function"
    },
    {
      "inputs": [
        {
          "internalType": "address payable",
          "name": "recipientToken",
          "type": "address"
        }
      ],
      "name": "killSelf",
      "outputs": [],
      "stateMutability": "nonpayable",
      "type": "function"
    }
  ],
  "bytecode": "0x60806040523480156200001157600080fd5b50604051620029dc380380620029dc83398181016040528101906200003791906200037b565b620000576200004b6200026a60201b60201c565b6200027260201b60201c565b600073ffffffffffffffffffffffffffffffffffffffff168573ffffffffffffffffffffffffffffffffffffffff161415620000ca576040517f08c379a0000000000000000000000000000000000000000000000000000000008152600401620000c190620004bb565b60405180910390fd5b600073ffffffffffffffffffffffffffffffffffffffff168473ffffffffffffffffffffffffffffffffffffffff1614156200013d576040517f08c379a00000000000000000000000000000000000000000000000000000000081526004016200013490620004ff565b60405180910390fd5b6000831162000183576040517f08c379a00000000000000000000000000000000000000000000000000000000081526004016200017a9062000499565b60405180910390fd5b818111620001c8576040517f08c379a0000000000000000000000000000000000000000000000000000000008152600401620001bf90620004dd565b60405180910390fd5b84600160006101000a81548173ffffffffffffffffffffffffffffffffffffffff021916908373ffffffffffffffffffffffffffffffffffffffff16021790555083600260006101000a81548173ffffffffffffffffffffffffffffffffffffffff021916908373ffffffffffffffffffffffffffffffffffffffff16021790555082600381905550816004819055508060058190555050505050506200070e565b600033905090565b60008060009054906101000a900473ffffffffffffffffffffffffffffffffffffffff169050816000806101000a81548173ffffffffffffffffffffffffffffffffffffffff021916908373ffffffffffffffffffffffffffffffffffffffff1602179055508173ffffffffffffffffffffffffffffffffffffffff168173ffffffffffffffffffffffffffffffffffffffff167f8be0079c531659141344cd1fd0a4f28419497f9722a3daafe3b4186f6b6457e060405160405180910390a35050565b6000815190506200034781620006c0565b92915050565b6000815190506200035e81620006da565b92915050565b6000815190506200037581620006f4565b92915050565b600080600080600060a086880312156200039457600080fd5b6000620003a4888289016200034d565b9550506020620003b78882890162000336565b9450506040620003ca8882890162000364565b9350506060620003dd8882890162000364565b9250506080620003f08882890162000364565b9150509295509295909350565b60006200040c602f8362000521565b9150620004198262000584565b604082019050919050565b600062000433602f8362000521565b91506200044082620005d3565b604082019050919050565b60006200045a603e8362000521565b9150620004678262000622565b604082019050919050565b600062000481603a8362000521565b91506200048e8262000671565b604082019050919050565b60006020820190508181036000830152620004b481620003fd565b9050919050565b60006020820190508181036000830152620004d68162000424565b9050919050565b60006020820190508181036000830152620004f8816200044b565b9050919050565b600060208201905081810360008301526200051a8162000472565b9050919050565b600082825260208201905092915050565b60006200053f826200055a565b9050919050565b6000620005538262000532565b9050919050565b600073ffffffffffffffffffffffffffffffffffffffff82169050919050565b6000819050919050565b7f436f6d707574696e67506f7765724d696e696e673a20746f74616c2072656c6560008201527f61736520616d6f756e7420697320300000000000000000000000000000000000602082015250565b7f436f6d707574696e67506f7765724d696e696e673a20746f6b656e206973207460008201527f6865207a65726f20616464726573730000000000000000000000000000000000602082015250565b7f436f6d707574696e67506f7765724d696e696e673a2053746172742074696d6560008201527f2063616e6e6f74206265206c61746572207468616e20656e642074696d650000602082015250565b7f436f6d707574696e67506f7765724d696e696e673a2054686520746f6b656e2060008201527f77616c6c657420697320746865207a65726f2061646472657373000000000000602082015250565b620006cb8162000532565b8114620006d757600080fd5b50565b620006e58162000546565b8114620006f157600080fd5b50565b620006ff816200057a565b81146200070b57600080fd5b50565b6122be806200071e6000396000f3fe608060405234801561001057600080fd5b50600436106101165760003560e01c8063883c699a116100a2578063caeae15d11610071578063caeae15d1461029d578063ccb98ffc146102bb578063d9c2f2ee146102d7578063f2fde38b146102f3578063fc0c546a1461030f57610116565b8063883c699a1461020d5780638da5cb5b1461022b578063bff99c6c14610249578063c4f701991461026757610116565b80633e0a322d116100e95780633e0a322d1461018f5780634e71d92d146101ab5780636915b1b0146101b5578063715018a6146101e557806378e97925146101ef57610116565b80630cc3a41f1461011b5780631b45c92d146101395780633197cbb6146101555780633a507d7d14610173575b600080fd5b61012361032d565b6040516101309190611c39565b60405180910390f35b610153600480360381019061014e9190611707565b610333565b005b61015d6103b9565b60405161016a9190611c39565b60405180910390f35b61018d60048036038101906101889190611674565b6103bf565b005b6101a960048036038101906101a49190611707565b610550565b005b6101b361061b565b005b6101cf60048036038101906101ca919061164b565b61088b565b6040516101dc9190611a81565b60405180910390f35b6101ed6109ba565b005b6101f7610a42565b6040516102049190611c39565b60405180910390f35b610215610a48565b6040516102229190611c39565b60405180910390f35b610233610a4e565b6040516102409190611997565b60405180910390f35b610251610a77565b60405161025e9190611997565b60405180910390f35b610281600480360381019061027c919061164b565b610a9d565b6040516102949796959493929190611a12565b60405180910390f35b6102a5610b0c565b6040516102b29190611c39565b60405180910390f35b6102d560048036038101906102d09190611707565b610b12565b005b6102f160048036038101906102ec919061169d565b610bdc565b005b61030d6004803603810190610308919061164b565b610f34565b005b61031761102c565b6040516103249190611a9c565b60405180910390f35b60065481565b61033b611052565b73ffffffffffffffffffffffffffffffffffffffff16610359610a4e565b73ffffffffffffffffffffffffffffffffffffffff16146103af576040517f08c379a00000000000000000000000000000000000000000000000000000000081526004016103a690611b79565b60405180910390fd5b8060038190555050565b60055481565b6103c7611052565b73ffffffffffffffffffffffffffffffffffffffff166103e5610a4e565b73ffffffffffffffffffffffffffffffffffffffff161461043b576040517f08c379a000000000000000000000000000000000000000000000000000000000815260040161043290611b79565b60405180910390fd5b6000600160009054906101000a900473ffffffffffffffffffffffffffffffffffffffff1673ffffffffffffffffffffffffffffffffffffffff166370a08231306040518263ffffffff1660e01b81526004016104989190611997565b60206040518083038186803b1580156104b057600080fd5b505afa1580156104c4573d6000803e3d6000fd5b505050506040513d601f19601f820116820180604052508101906104e89190611730565b90506105378282600160009054906101000a900473ffffffffffffffffffffffffffffffffffffffff1673ffffffffffffffffffffffffffffffffffffffff1661105a9092919063ffffffff16565b8173ffffffffffffffffffffffffffffffffffffffff16ff5b610558611052565b73ffffffffffffffffffffffffffffffffffffffff16610576610a4e565b73ffffffffffffffffffffffffffffffffffffffff16146105cc576040517f08c379a00000000000000000000000000000000000000000000000000000000081526004016105c390611b79565b60405180910390fd5b600554811115610611576040517f08c379a000000000000000000000000000000000000000000000000000000000815260040161060890611bb9565b60405180910390fd5b8060048190555050565b600554421015610660576040517f08c379a000000000000000000000000000000000000000000000000000000000815260040161065790611af9565b60405180910390fd5b60003390506000600860008373ffffffffffffffffffffffffffffffffffffffff1673ffffffffffffffffffffffffffffffffffffffff1681526020019081526020016000209050600073ffffffffffffffffffffffffffffffffffffffff168160000160009054906101000a900473ffffffffffffffffffffffffffffffffffffffff1673ffffffffffffffffffffffffffffffffffffffff16141561073c576040517f08c379a000000000000000000000000000000000000000000000000000000000815260040161073390611b99565b60405180910390fd5b600015158160060160009054906101000a900460ff16151514610794576040517f08c379a000000000000000000000000000000000000000000000000000000000815260040161078b90611bd9565b60405180910390fd5b60018160060160006101000a81548160ff021916908315150217905550610826600260009054906101000a900473ffffffffffffffffffffffffffffffffffffffff16838360030154600160009054906101000a900473ffffffffffffffffffffffffffffffffffffffff1673ffffffffffffffffffffffffffffffffffffffff166110e0909392919063ffffffff16565b7ff5537ede4763d97b5cf86d9eb6ae77ccd8560b8b2d4bd4503537c6b2996a7a9b600260009054906101000a900473ffffffffffffffffffffffffffffffffffffffff1683836003015460405161087f939291906119b2565b60405180910390a15050565b600080600860008473ffffffffffffffffffffffffffffffffffffffff1673ffffffffffffffffffffffffffffffffffffffff1681526020019081526020016000206040518060e00160405290816000820160009054906101000a900473ffffffffffffffffffffffffffffffffffffffff1673ffffffffffffffffffffffffffffffffffffffff1673ffffffffffffffffffffffffffffffffffffffff16815260200160018201548152602001600282015481526020016003820154815260200160048201548152602001600582015481526020016006820160009054906101000a900460ff1615151515815250509050600073ffffffffffffffffffffffffffffffffffffffff16816000015173ffffffffffffffffffffffffffffffffffffffff161415915050919050565b6109c2611052565b73ffffffffffffffffffffffffffffffffffffffff166109e0610a4e565b73ffffffffffffffffffffffffffffffffffffffff1614610a36576040517f08c379a0000000000000000000000000000000000000000000000000000000008152600401610a2d90611b79565b60405180910390fd5b610a406000611169565b565b60045481565b60075481565b60008060009054906101000a900473ffffffffffffffffffffffffffffffffffffffff16905090565b600260009054906101000a900473ffffffffffffffffffffffffffffffffffffffff1681565b60086020528060005260406000206000915090508060000160009054906101000a900473ffffffffffffffffffffffffffffffffffffffff16908060010154908060020154908060030154908060040154908060050154908060060160009054906101000a900460ff16905087565b60035481565b610b1a611052565b73ffffffffffffffffffffffffffffffffffffffff16610b38610a4e565b73ffffffffffffffffffffffffffffffffffffffff1614610b8e576040517f08c379a0000000000000000000000000000000000000000000000000000000008152600401610b8590611b79565b60405180910390fd5b6004548111610bd2576040517f08c379a0000000000000000000000000000000000000000000000000000000008152600401610bc990611b39565b60405180910390fd5b8060058190555050565b610be4611052565b73ffffffffffffffffffffffffffffffffffffffff16610c02610a4e565b73ffffffffffffffffffffffffffffffffffffffff1614610c58576040517f08c379a0000000000000000000000000000000000000000000000000000000008152600401610c4f90611b79565b60405180910390fd5b6000815111610c9c576040517f08c379a0000000000000000000000000000000000000000000000000000000008152600401610c9390611b59565b60405180910390fd5b60005b8151811015610f30576000828281518110610ce3577f4e487b7100000000000000000000000000000000000000000000000000000000600052603260045260246000fd5b60200260200101519050600081606001511115610f1c576000816000015190506000600860008373ffffffffffffffffffffffffffffffffffffffff1673ffffffffffffffffffffffffffffffffffffffff1681526020019081526020016000209050600073ffffffffffffffffffffffffffffffffffffffff168160000160009054906101000a900473ffffffffffffffffffffffffffffffffffffffff1673ffffffffffffffffffffffffffffffffffffffff161415610f19576040518060e001604052808373ffffffffffffffffffffffffffffffffffffffff168152602001846020015181526020018460400151815260200184606001518152602001846080015181526020018460a00151815260200160001515815250600860008473ffffffffffffffffffffffffffffffffffffffff1673ffffffffffffffffffffffffffffffffffffffff16815260200190815260200160002060008201518160000160006101000a81548173ffffffffffffffffffffffffffffffffffffffff021916908373ffffffffffffffffffffffffffffffffffffffff1602179055506020820151816001015560408201518160020155606082015181600301556080820151816004015560a0820151816005015560c08201518160060160006101000a81548160ff021916908315150217905550905050610ef3836020015160065461122d90919063ffffffff16565b600681905550610f12836040015160075461122d90919063ffffffff16565b6007819055505b50505b508080610f2890611e0f565b915050610c9f565b5050565b610f3c611052565b73ffffffffffffffffffffffffffffffffffffffff16610f5a610a4e565b73ffffffffffffffffffffffffffffffffffffffff1614610fb0576040517f08c379a0000000000000000000000000000000000000000000000000000000008152600401610fa790611b79565b60405180910390fd5b600073ffffffffffffffffffffffffffffffffffffffff168173ffffffffffffffffffffffffffffffffffffffff161415611020576040517f08c379a000000000000000000000000000000000000000000000000000000000815260040161101790611ad9565b60405180910390fd5b61102981611169565b50565b600160009054906101000a900473ffffffffffffffffffffffffffffffffffffffff1681565b600033905090565b6110db8363a9059cbb60e01b84846040516024016110799291906119e9565b604051602081830303815290604052907bffffffffffffffffffffffffffffffffffffffffffffffffffffffff19166020820180517bffffffffffffffffffffffffffffffffffffffffffffffffffffffff8381831617835250505050611243565b505050565b611163846323b872dd60e01b858585604051602401611101939291906119b2565b604051602081830303815290604052907bffffffffffffffffffffffffffffffffffffffffffffffffffffffff19166020820180517bffffffffffffffffffffffffffffffffffffffffffffffffffffffff8381831617835250505050611243565b50505050565b60008060009054906101000a900473ffffffffffffffffffffffffffffffffffffffff169050816000806101000a81548173ffffffffffffffffffffffffffffffffffffffff021916908373ffffffffffffffffffffffffffffffffffffffff1602179055508173ffffffffffffffffffffffffffffffffffffffff168173ffffffffffffffffffffffffffffffffffffffff167f8be0079c531659141344cd1fd0a4f28419497f9722a3daafe3b4186f6b6457e060405160405180910390a35050565b6000818361123b9190611cd7565b905092915050565b60006112a5826040518060400160405280602081526020017f5361666545524332303a206c6f772d6c6576656c2063616c6c206661696c65648152508573ffffffffffffffffffffffffffffffffffffffff1661130a9092919063ffffffff16565b905060008151111561130557808060200190518101906112c591906116de565b611304576040517f08c379a00000000000000000000000000000000000000000000000000000000081526004016112fb90611c19565b60405180910390fd5b5b505050565b60606113198484600085611322565b90509392505050565b606082471015611367576040517f08c379a000000000000000000000000000000000000000000000000000000000815260040161135e90611b19565b60405180910390fd5b61137085611436565b6113af576040517f08c379a00000000000000000000000000000000000000000000000000000000081526004016113a690611bf9565b60405180910390fd5b6000808673ffffffffffffffffffffffffffffffffffffffff1685876040516113d89190611980565b60006040518083038185875af1925050503d8060008114611415576040519150601f19603f3d011682016040523d82523d6000602084013e61141a565b606091505b509150915061142a828286611449565b92505050949350505050565b600080823b905060008111915050919050565b60608315611459578290506114a9565b60008351111561146c5782518084602001fd5b816040517f08c379a00000000000000000000000000000000000000000000000000000000081526004016114a09190611ab7565b60405180910390fd5b9392505050565b60006114c36114be84611c79565b611c54565b905080838252602082019050828560c08602820111156114e257600080fd5b60005b8581101561151257816114f88882611585565b845260208401935060c083019250506001810190506114e5565b5050509392505050565b60008135905061152b8161222c565b92915050565b60008135905061154081612243565b92915050565b600082601f83011261155757600080fd5b81356115678482602086016114b0565b91505092915050565b60008151905061157f8161225a565b92915050565b600060c0828403121561159757600080fd5b6115a160c0611c54565b905060006115b18482850161151c565b60008301525060206115c584828501611621565b60208301525060406115d984828501611621565b60408301525060606115ed84828501611621565b606083015250608061160184828501611621565b60808301525060a061161584828501611621565b60a08301525092915050565b60008135905061163081612271565b92915050565b60008151905061164581612271565b92915050565b60006020828403121561165d57600080fd5b600061166b8482850161151c565b91505092915050565b60006020828403121561168657600080fd5b600061169484828501611531565b91505092915050565b6000602082840312156116af57600080fd5b600082013567ffffffffffffffff8111156116c957600080fd5b6116d584828501611546565b91505092915050565b6000602082840312156116f057600080fd5b60006116fe84828501611570565b91505092915050565b60006020828403121561171957600080fd5b600061172784828501611621565b91505092915050565b60006020828403121561174257600080fd5b600061175084828501611636565b91505092915050565b61176281611d2d565b82525050565b61177181611d51565b82525050565b600061178282611ca5565b61178c8185611cbb565b935061179c818560208601611dab565b80840191505092915050565b6117b181611d87565b82525050565b60006117c282611cb0565b6117cc8185611cc6565b93506117dc818560208601611dab565b6117e581611eb6565b840191505092915050565b60006117fd602683611cc6565b915061180882611ec7565b604082019050919050565b6000611820603083611cc6565b915061182b82611f16565b604082019050919050565b6000611843602683611cc6565b915061184e82611f65565b604082019050919050565b6000611866604483611cc6565b915061187182611fb4565b606082019050919050565b6000611889602883611cc6565b915061189482612029565b604082019050919050565b60006118ac602083611cc6565b91506118b782612078565b602082019050919050565b60006118cf602583611cc6565b91506118da826120a1565b604082019050919050565b60006118f2604283611cc6565b91506118fd826120f0565b606082019050919050565b6000611915603483611cc6565b915061192082612165565b604082019050919050565b6000611938601d83611cc6565b9150611943826121b4565b602082019050919050565b600061195b602a83611cc6565b9150611966826121dd565b604082019050919050565b61197a81611d7d565b82525050565b600061198c8284611777565b915081905092915050565b60006020820190506119ac6000830184611759565b92915050565b60006060820190506119c76000830186611759565b6119d46020830185611759565b6119e16040830184611971565b949350505050565b60006040820190506119fe6000830185611759565b611a0b6020830184611971565b9392505050565b600060e082019050611a27600083018a611759565b611a346020830189611971565b611a416040830188611971565b611a4e6060830187611971565b611a5b6080830186611971565b611a6860a0830185611971565b611a7560c0830184611768565b98975050505050505050565b6000602082019050611a966000830184611768565b92915050565b6000602082019050611ab160008301846117a8565b92915050565b60006020820190508181036000830152611ad181846117b7565b905092915050565b60006020820190508181036000830152611af2816117f0565b9050919050565b60006020820190508181036000830152611b1281611813565b9050919050565b60006020820190508181036000830152611b3281611836565b9050919050565b60006020820190508181036000830152611b5281611859565b9050919050565b60006020820190508181036000830152611b728161187c565b9050919050565b60006020820190508181036000830152611b928161189f565b9050919050565b60006020820190508181036000830152611bb2816118c2565b9050919050565b60006020820190508181036000830152611bd2816118e5565b9050919050565b60006020820190508181036000830152611bf281611908565b9050919050565b60006020820190508181036000830152611c128161192b565b9050919050565b60006020820190508181036000830152611c328161194e565b9050919050565b6000602082019050611c4e6000830184611971565b92915050565b6000611c5e611c6f565b9050611c6a8282611dde565b919050565b6000604051905090565b600067ffffffffffffffff821115611c9457611c93611e87565b5b602082029050602081019050919050565b600081519050919050565b600081519050919050565b600081905092915050565b600082825260208201905092915050565b6000611ce282611d7d565b9150611ced83611d7d565b9250827fffffffffffffffffffffffffffffffffffffffffffffffffffffffffffffffff03821115611d2257611d21611e58565b5b828201905092915050565b6000611d3882611d5d565b9050919050565b6000611d4a82611d5d565b9050919050565b60008115159050919050565b600073ffffffffffffffffffffffffffffffffffffffff82169050919050565b6000819050919050565b6000611d9282611d99565b9050919050565b6000611da482611d5d565b9050919050565b60005b83811015611dc9578082015181840152602081019050611dae565b83811115611dd8576000848401525b50505050565b611de782611eb6565b810181811067ffffffffffffffff82111715611e0657611e05611e87565b5b80604052505050565b6000611e1a82611d7d565b91507fffffffffffffffffffffffffffffffffffffffffffffffffffffffffffffffff821415611e4d57611e4c611e58565b5b600182019050919050565b7f4e487b7100000000000000000000000000000000000000000000000000000000600052601160045260246000fd5b7f4e487b7100000000000000000000000000000000000000000000000000000000600052604160045260246000fd5b6000601f19601f8301169050919050565b7f4f776e61626c653a206e6577206f776e657220697320746865207a65726f206160008201527f6464726573730000000000000000000000000000000000000000000000000000602082015250565b7f436f6d707574696e67506f7765724d696e696e673a2049742773206e6f74207460008201527f696d6520746f20636c61696d2079657400000000000000000000000000000000602082015250565b7f416464726573733a20696e73756666696369656e742062616c616e636520666f60008201527f722063616c6c0000000000000000000000000000000000000000000000000000602082015250565b7f436f6d707574696e67506f7765724d696e696e673a2054686520656e6420746960008201527f6d65206d757374206265206c61746572207468616e207468652073746172742060208201527f74696d6500000000000000000000000000000000000000000000000000000000604082015250565b7f436f6d707574696e67506f7765724d696e696e673a206c69737420617272617960008201527f206973206e756c6c000000000000000000000000000000000000000000000000602082015250565b7f4f776e61626c653a2063616c6c6572206973206e6f7420746865206f776e6572600082015250565b7f436f6d707574696e67506f7765724d696e696e673a206e6f206163636f756e7460008201527f20696e666f000000000000000000000000000000000000000000000000000000602082015250565b7f436f6d707574696e67506f7765724d696e696e673a207468652073746172742060008201527f74696d652063616e6e6f74206265206c61746572207468616e20656e6420746960208201527f6d65000000000000000000000000000000000000000000000000000000000000604082015250565b7f436f6d707574696e67506f7765724d696e696e673a20746865206163636f756e60008201527f7420697320616c726561647920636c61696d6564000000000000000000000000602082015250565b7f416464726573733a2063616c6c20746f206e6f6e2d636f6e7472616374000000600082015250565b7f5361666545524332303a204552433230206f7065726174696f6e20646964206e60008201527f6f74207375636365656400000000000000000000000000000000000000000000602082015250565b61223581611d2d565b811461224057600080fd5b50565b61224c81611d3f565b811461225757600080fd5b50565b61226381611d51565b811461226e57600080fd5b50565b61227a81611d7d565b811461228557600080fd5b5056fea264697066735822122083a92785a7652f5d220f4d4ed50af87c5c6bc8f31d2bca9b2cfdec3de4b373b164736f6c63430008040033",
  "immutableReferences": {},
  "source": "// SPDX-License-Identifier: MIT\npragma solidity ^0.8.0;\n\nimport \"@openzeppelin/contracts/access/Ownable.sol\";\nimport \"@openzeppelin/contracts/utils/math/SafeMath.sol\";\nimport \"@openzeppelin/contracts/token/ERC20/IERC20.sol\";\nimport \"@openzeppelin/contracts/utils/math/Math.sol\";\nimport \"@openzeppelin/contracts/token/ERC20/utils/SafeERC20.sol\";\n\ncontract ComputingPowerMiningForLiquidity is Ownable {\n    using SafeMath for uint256;\n    using SafeERC20 for IERC20;\n\n    event transferToken(address wallet, address account, uint256 amount);\n\n    /********** Variable definition area *********/\n    // Token address\n    IERC20 public token;\n    // Wallet address for sending tokens\n    address public tokenWallet;\n    // Cycle total volume\n    uint256 public totalReleaseAmount;\n    // Cycle start time\n    uint256 public startTime;\n    // Cycle end time\n    uint256 public endTime;\n    // Calculated computing power\n    uint256 public countedPower;\n    // Calculated computing power value\n    uint256 public countedPowerValue;\n\n    // Upload report information\n    struct PowerInfoListItem {\n        address account;\n        uint256 power;\n        uint256 powerValue;\n        uint256 receiveAmount;\n        uint256 nodeType;\n        uint256 liquidity;\n    }\n\n    // Account computing power information\n    struct AccountPowerInfo {\n        address account;\n        uint256 power;\n        uint256 powerValue;\n        uint256 receiveAmount;\n        uint256 nodeType;\n        uint256 liquidity;\n        bool isClaim;\n    }\n    // Record mapping\n    mapping(address => AccountPowerInfo) public accountPowerInfoList;\n\n    /********** Initialize the contract *********/\n    constructor(\n        IERC20 _token,\n        address _tokenWallet,\n        uint256 _totalReleaseAmount,\n        uint256 _startTime,\n        uint256 _endTime\n    ) {\n        require(address(_token) != address(0), \"ComputingPowerMining: token is the zero address\");\n        require(_tokenWallet != address(0), \"ComputingPowerMining: The token wallet is the zero address\");\n        require(_totalReleaseAmount > 0, \"ComputingPowerMining: total release amount is 0\");\n        require(_endTime > _startTime, \"ComputingPowerMining: Start time cannot be later than end time\");\n\n        token = _token;\n        tokenWallet = _tokenWallet;\n        totalReleaseAmount = _totalReleaseAmount;\n        startTime = _startTime;\n        endTime = _endTime;\n    }\n\n    /********** Background function *********/\n    function setTotalReleaseAmount(uint256 amount) public onlyOwner {\n        totalReleaseAmount = amount;\n    }\n    function setStartTime(uint256 time) public onlyOwner {\n        require(time <= endTime, \"ComputingPowerMining: the start time cannot be later than end time\");\n        startTime = time;\n    }\n    function setEndTime(uint256 time) public onlyOwner {\n        require(time > startTime, \"ComputingPowerMining: The end time must be later than the start time\");\n        endTime = time;\n    }\n\n    // Submit report\n    function updateAccountPowerList(PowerInfoListItem[] memory list) public onlyOwner {\n        require(list.length > 0, \"ComputingPowerMining: list array is null\");\n        for (uint i = 0; i < list.length; i++) {\n            PowerInfoListItem memory record = list[i];\n            if (record.receiveAmount > 0) {\n                address receiveAccount = record.account;\n                AccountPowerInfo storage info = accountPowerInfoList[receiveAccount];\n                if (info.account == address(0)) {\n                    accountPowerInfoList[receiveAccount] = AccountPowerInfo({\n                        account: receiveAccount,\n                        power: record.power,\n                        powerValue: record.powerValue,\n                        receiveAmount: record.receiveAmount,\n                        nodeType: record.nodeType,\n                        liquidity: record.liquidity,\n                        isClaim: false\n                    });\n                    countedPower = countedPower.add(record.power);\n                    countedPowerValue = countedPowerValue.add(record.powerValue);\n                }\n            }\n        }\n    }\n\n    /********** Data validation *********/\n    /**\n     * @dev Check if an account has this accountPowerInfoList.\n     * @param account the address\n     * @return bool\n     */\n    function hasPowerInfo(address account) public view returns (bool) {\n        AccountPowerInfo memory info = accountPowerInfoList[account];\n        return info.account != address(0);\n    }\n\n    /********** User function *********/\n    /**\n     * @dev common claim function\n     */\n    function claim() public {\n        require(block.timestamp >= endTime, \"ComputingPowerMining: It's not time to claim yet\");\n        address account = msg.sender;\n        AccountPowerInfo storage info = accountPowerInfoList[account];\n        require(info.account != address(0), 'ComputingPowerMining: no account info');\n        require(info.isClaim == false, 'ComputingPowerMining: the account is already claimed');\n\n        info.isClaim = true;\n        // transfer token to receive account\n        token.safeTransferFrom(tokenWallet, account, info.receiveAmount);\n        emit transferToken(tokenWallet, account, info.receiveAmount);\n    }\n\n    /********** Destroy the contract *********/\n    function killSelf(address payable recipientToken) public onlyOwner {\n        uint256 contractBalance = token.balanceOf(address(this));\n        token.safeTransfer(recipientToken, contractBalance);\n\n        selfdestruct(recipientToken);\n    }\n}\n",
  "sourcePath": "D:\\Workspaces\\DaoswapDex\\daoswapdex-heco-testnet\\core-chn-node\\contracts\\ComputingPowerMiningForLiquidity.sol",
  "compiler": {
    "name": "solc",
    "version": "0.8.4+commit.c7e474f2.Emscripten.clang"
  },
  "schemaVersion": "3.4.3",
  "updatedAt": "2021-11-04T07:32:03.596Z",
  "networkType": "ethereum",
  "devdoc": {
    "kind": "dev",
    "methods": {
      "claim()": {
        "details": "common claim function"
      },
      "hasPowerInfo(address)": {
        "details": "Check if an account has this accountPowerInfoList.",
        "params": {
          "account": "the address"
        },
        "returns": {
          "_0": "bool"
        }
      },
      "owner()": {
        "details": "Returns the address of the current owner."
      },
      "renounceOwnership()": {
        "details": "Leaves the contract without owner. It will not be possible to call `onlyOwner` functions anymore. Can only be called by the current owner. NOTE: Renouncing ownership will leave the contract without an owner, thereby removing any functionality that is only available to the owner."
      },
      "transferOwnership(address)": {
        "details": "Transfers ownership of the contract to a new account (`newOwner`). Can only be called by the current owner."
      }
    },
    "version": 1
  },
  "userdoc": {
    "kind": "user",
    "methods": {},
    "version": 1
  }
}