{
  "contractName": "CrowdsaleForRetailUnlimited",
  "abi": [
    {
      "inputs": [
        {
          "internalType": "contract IERC20",
          "name": "_purchaseToken",
          "type": "address"
        },
        {
          "internalType": "uint256",
          "name": "_rate",
          "type": "uint256"
        },
        {
          "internalType": "address payable",
          "name": "_wallet",
          "type": "address"
        },
        {
          "internalType": "contract IERC20",
          "name": "_token",
          "type": "address"
        },
        {
          "internalType": "address",
          "name": "_tokenWallet",
          "type": "address"
        }
      ],
      "stateMutability": "nonpayable",
      "type": "constructor"
    },
    {
      "anonymous": false,
      "inputs": [
        {
          "indexed": true,
          "internalType": "address",
          "name": "previousOwner",
          "type": "address"
        },
        {
          "indexed": true,
          "internalType": "address",
          "name": "newOwner",
          "type": "address"
        }
      ],
      "name": "OwnershipTransferred",
      "type": "event"
    },
    {
      "anonymous": false,
      "inputs": [
        {
          "indexed": true,
          "internalType": "address",
          "name": "purchaser",
          "type": "address"
        },
        {
          "indexed": true,
          "internalType": "address",
          "name": "beneficiary",
          "type": "address"
        },
        {
          "indexed": false,
          "internalType": "uint256",
          "name": "value",
          "type": "uint256"
        },
        {
          "indexed": false,
          "internalType": "uint256",
          "name": "amount",
          "type": "uint256"
        }
      ],
      "name": "TokensPurchased",
      "type": "event"
    },
    {
      "stateMutability": "nonpayable",
      "type": "fallback"
    },
    {
      "inputs": [
        {
          "internalType": "uint256",
          "name": "weiAmount",
          "type": "uint256"
        }
      ],
      "name": "buyTokens",
      "outputs": [],
      "stateMutability": "payable",
      "type": "function",
      "payable": true
    },
    {
      "inputs": [],
      "name": "owner",
      "outputs": [
        {
          "internalType": "address",
          "name": "",
          "type": "address"
        }
      ],
      "stateMutability": "view",
      "type": "function",
      "constant": true
    },
    {
      "inputs": [],
      "name": "purchaseToken",
      "outputs": [
        {
          "internalType": "contract IERC20",
          "name": "",
          "type": "address"
        }
      ],
      "stateMutability": "view",
      "type": "function",
      "constant": true
    },
    {
      "inputs": [],
      "name": "rate",
      "outputs": [
        {
          "internalType": "uint256",
          "name": "",
          "type": "uint256"
        }
      ],
      "stateMutability": "view",
      "type": "function",
      "constant": true
    },
    {
      "inputs": [],
      "name": "renounceOwnership",
      "outputs": [],
      "stateMutability": "nonpayable",
      "type": "function"
    },
    {
      "inputs": [],
      "name": "token",
      "outputs": [
        {
          "internalType": "contract IERC20",
          "name": "",
          "type": "address"
        }
      ],
      "stateMutability": "view",
      "type": "function",
      "constant": true
    },
    {
      "inputs": [
        {
          "internalType": "address",
          "name": "",
          "type": "address"
        }
      ],
      "name": "tokenVestingList",
      "outputs": [
        {
          "internalType": "address",
          "name": "beneficiaryToken",
          "type": "address"
        },
        {
          "internalType": "uint256",
          "name": "tokenTotalAmount",
          "type": "uint256"
        }
      ],
      "stateMutability": "view",
      "type": "function",
      "constant": true
    },
    {
      "inputs": [],
      "name": "tokenWallet",
      "outputs": [
        {
          "internalType": "address",
          "name": "",
          "type": "address"
        }
      ],
      "stateMutability": "view",
      "type": "function",
      "constant": true
    },
    {
      "inputs": [
        {
          "internalType": "address",
          "name": "newOwner",
          "type": "address"
        }
      ],
      "name": "transferOwnership",
      "outputs": [],
      "stateMutability": "nonpayable",
      "type": "function"
    },
    {
      "inputs": [],
      "name": "wallet",
      "outputs": [
        {
          "internalType": "address payable",
          "name": "",
          "type": "address"
        }
      ],
      "stateMutability": "view",
      "type": "function",
      "constant": true
    },
    {
      "inputs": [],
      "name": "weiRaised",
      "outputs": [
        {
          "internalType": "uint256",
          "name": "",
          "type": "uint256"
        }
      ],
      "stateMutability": "view",
      "type": "function",
      "constant": true
    },
    {
      "stateMutability": "payable",
      "type": "receive",
      "payable": true
    },
    {
      "inputs": [],
      "name": "getMemberList",
      "outputs": [
        {
          "internalType": "address[]",
          "name": "",
          "type": "address[]"
        }
      ],
      "stateMutability": "view",
      "type": "function",
      "constant": true
    },
    {
      "inputs": [],
      "name": "remainingTokens",
      "outputs": [
        {
          "internalType": "uint256",
          "name": "",
          "type": "uint256"
        }
      ],
      "stateMutability": "view",
      "type": "function",
      "constant": true
    },
    {
      "inputs": [
        {
          "internalType": "address",
          "name": "account",
          "type": "address"
        }
      ],
      "name": "getTokenVestingAddressByAccount",
      "outputs": [
        {
          "internalType": "address[]",
          "name": "",
          "type": "address[]"
        }
      ],
      "stateMutability": "view",
      "type": "function",
      "constant": true
    }
  ],
  "bytecode": "0x60806040523480156200001157600080fd5b50604051620046db380380620046db833981810160405281019062000037919062000441565b8383836200005a6200004e6200031960201b60201c565b6200032160201b60201c565b6001808190555060008311620000a7576040517f08c379a00000000000000000000000000000000000000000000000000000000081526004016200009e906200055f565b60405180910390fd5b600073ffffffffffffffffffffffffffffffffffffffff168273ffffffffffffffffffffffffffffffffffffffff1614156200011a576040517f08c379a0000000000000000000000000000000000000000000000000000000008152600401620001119062000581565b60405180910390fd5b600073ffffffffffffffffffffffffffffffffffffffff168173ffffffffffffffffffffffffffffffffffffffff1614156200018d576040517f08c379a00000000000000000000000000000000000000000000000000000000081526004016200018490620005a3565b60405180910390fd5b8260028190555081600360006101000a81548173ffffffffffffffffffffffffffffffffffffffff021916908373ffffffffffffffffffffffffffffffffffffffff16021790555080600460006101000a81548173ffffffffffffffffffffffffffffffffffffffff021916908373ffffffffffffffffffffffffffffffffffffffff160217905550505050600073ffffffffffffffffffffffffffffffffffffffff168573ffffffffffffffffffffffffffffffffffffffff1614156200028c576040517f08c379a00000000000000000000000000000000000000000000000000000000081526004016200028390620005c5565b60405180910390fd5b84600660006101000a81548173ffffffffffffffffffffffffffffffffffffffff021916908373ffffffffffffffffffffffffffffffffffffffff16021790555080600760006101000a81548173ffffffffffffffffffffffffffffffffffffffff021916908373ffffffffffffffffffffffffffffffffffffffff1602179055505050505050620007dc565b600033905090565b60008060009054906101000a900473ffffffffffffffffffffffffffffffffffffffff169050816000806101000a81548173ffffffffffffffffffffffffffffffffffffffff021916908373ffffffffffffffffffffffffffffffffffffffff1602179055508173ffffffffffffffffffffffffffffffffffffffff168173ffffffffffffffffffffffffffffffffffffffff167f8be0079c531659141344cd1fd0a4f28419497f9722a3daafe3b4186f6b6457e060405160405180910390a35050565b600081519050620003f68162000774565b92915050565b6000815190506200040d816200078e565b92915050565b6000815190506200042481620007a8565b92915050565b6000815190506200043b81620007c2565b92915050565b600080600080600060a086880312156200045a57600080fd5b60006200046a8882890162000413565b95505060206200047d888289016200042a565b94505060406200049088828901620003fc565b9350506060620004a38882890162000413565b9250506080620004b688828901620003e5565b9150509295509295909350565b6000620004d2601d83620005e7565b9150620004df826200065e565b602082019050919050565b6000620004f9602e83620005e7565b9150620005068262000687565b604082019050919050565b600062000520602d83620005e7565b91506200052d82620006d6565b604082019050919050565b600062000547603f83620005e7565b9150620005548262000725565b604082019050919050565b600060208201905081810360008301526200057a81620004c3565b9050919050565b600060208201905081810360008301526200059c81620004ea565b9050919050565b60006020820190508181036000830152620005be8162000511565b9050919050565b60006020820190508181036000830152620005e08162000538565b9050919050565b600082825260208201905092915050565b6000620006058262000634565b9050919050565b6000620006198262000634565b9050919050565b60006200062d82620005f8565b9050919050565b600073ffffffffffffffffffffffffffffffffffffffff82169050919050565b6000819050919050565b7f43726f776473616c65556e6c696d697465643a20726174652069732030000000600082015250565b7f43726f776473616c65556e6c696d697465643a2077616c6c657420697320746860008201527f65207a65726f2061646472657373000000000000000000000000000000000000602082015250565b7f43726f776473616c65556e6c696d697465643a20746f6b656e2069732074686560008201527f207a65726f206164647265737300000000000000000000000000000000000000602082015250565b7f43726f776473616c65466f7252657461696c556e6c696d697465643a2070757260008201527f636861736520746f6b656e20697320746865207a65726f206164647265737300602082015250565b6200077f81620005f8565b81146200078b57600080fd5b50565b62000799816200060c565b8114620007a557600080fd5b50565b620007b38162000620565b8114620007bf57600080fd5b50565b620007cd8162000654565b8114620007d957600080fd5b50565b613eef80620007ec6000396000f3fe608060405260043610620000f75760003560e01c80638da5cb5b116200008b578063bff99c6c1162000061578063bff99c6c14620002e7578063eac11b2f1462000317578063f2fde38b146200035c578063fc0c546a146200038a5762000109565b80638da5cb5b1462000257578063a95c4d621462000287578063bf58390314620002b75762000109565b80634042b66f11620000cd5780634042b66f14620001ad578063521eb27314620001dd5780635f5d5f00146200020d578063715018a6146200023d5762000109565b8063225a5a9f14620001195780632c4e722e146200015d5780633610724e146200018d5762000109565b36620001095762000107620003ba565b005b3480156200011657600080fd5b50005b3480156200012657600080fd5b506200014560048036038101906200013f9190620016b5565b62000426565b60405162000154919062001b15565b60405180910390f35b3480156200016a57600080fd5b5062000175620004fe565b60405162000184919062001c8a565b60405180910390f35b620001ab6004803603810190620001a591906200170d565b62000504565b005b348015620001ba57600080fd5b50620001c56200063d565b604051620001d4919062001c8a565b60405180910390f35b348015620001ea57600080fd5b50620001f562000643565b60405162000204919062001a24565b60405180910390f35b3480156200021a57600080fd5b506200022562000669565b60405162000234919062001b15565b60405180910390f35b3480156200024a57600080fd5b50620002556200077c565b005b3480156200026457600080fd5b506200026f6200080d565b6040516200027e919062001a07565b60405180910390f35b3480156200029457600080fd5b506200029f62000836565b604051620002ae919062001b39565b60405180910390f35b348015620002c457600080fd5b50620002cf6200085c565b604051620002de919062001c8a565b60405180910390f35b348015620002f457600080fd5b50620002ff62000a15565b6040516200030e919062001a07565b60405180910390f35b3480156200032457600080fd5b506200034360048036038101906200033d9190620016b5565b62000a3b565b6040516200035392919062001aab565b60405180910390f35b3480156200036957600080fd5b50620003886004803603810190620003829190620016b5565b62000a7f565b005b3480156200039757600080fd5b50620003a262000b83565b604051620003b1919062001b39565b60405180910390f35b600360009054906101000a900473ffffffffffffffffffffffffffffffffffffffff1673ffffffffffffffffffffffffffffffffffffffff166108fc349081150290604051600060405180830381858888f1935050505015801562000423573d6000803e3d6000fd5b50565b60606000600960008473ffffffffffffffffffffffffffffffffffffffff1673ffffffffffffffffffffffffffffffffffffffff168152602001908152602001600020905080600201805480602002602001604051908101604052809291908181526020018280548015620004f157602002820191906000526020600020905b8160009054906101000a900473ffffffffffffffffffffffffffffffffffffffff1673ffffffffffffffffffffffffffffffffffffffff1681526020019060010190808311620004a6575b5050505050915050919050565b60025481565b600260015414156200054d576040517f08c379a0000000000000000000000000000000000000000000000000000000008152600401620005449062001c46565b60405180910390fd5b600260018190555060006200056162000ba9565b90506200056f818362000bb1565b60006200057c8362000bc1565b9050620005958360055462000be190919063ffffffff16565b600581905550620005a7828262000bf9565b8173ffffffffffffffffffffffffffffffffffffffff16620005c862000ba9565b73ffffffffffffffffffffffffffffffffffffffff167f6faf93231a456e552dbc9961f58d9713ee4f2e69d15f1975b050ef0911053a7b85846040516200061192919062001ca7565b60405180910390a362000625828462000c09565b62000631828462000c8c565b50506001808190555050565b60055481565b600360009054906101000a900473ffffffffffffffffffffffffffffffffffffffff1681565b60606200067562000ba9565b73ffffffffffffffffffffffffffffffffffffffff16620006956200080d565b73ffffffffffffffffffffffffffffffffffffffff1614620006ee576040517f08c379a0000000000000000000000000000000000000000000000000000000008152600401620006e59062001bbe565b60405180910390fd5b60088054806020026020016040519081016040528092919081815260200182805480156200077257602002820191906000526020600020905b8160009054906101000a900473ffffffffffffffffffffffffffffffffffffffff1673ffffffffffffffffffffffffffffffffffffffff168152602001906001019080831162000727575b5050505050905090565b6200078662000ba9565b73ffffffffffffffffffffffffffffffffffffffff16620007a66200080d565b73ffffffffffffffffffffffffffffffffffffffff1614620007ff576040517f08c379a0000000000000000000000000000000000000000000000000000000008152600401620007f69062001bbe565b60405180910390fd5b6200080b600062000c90565b565b60008060009054906101000a900473ffffffffffffffffffffffffffffffffffffffff16905090565b600660009054906101000a900473ffffffffffffffffffffffffffffffffffffffff1681565b600062000a10600460009054906101000a900473ffffffffffffffffffffffffffffffffffffffff1673ffffffffffffffffffffffffffffffffffffffff166370a08231600760009054906101000a900473ffffffffffffffffffffffffffffffffffffffff166040518263ffffffff1660e01b8152600401620008e1919062001a07565b60206040518083038186803b158015620008fa57600080fd5b505afa1580156200090f573d6000803e3d6000fd5b505050506040513d601f19601f8201168201806040525081019062000935919062001739565b600460009054906101000a900473ffffffffffffffffffffffffffffffffffffffff1673ffffffffffffffffffffffffffffffffffffffff1663dd62ed3e600760009054906101000a900473ffffffffffffffffffffffffffffffffffffffff16306040518363ffffffff1660e01b8152600401620009b692919062001a41565b60206040518083038186803b158015620009cf57600080fd5b505afa158015620009e4573d6000803e3d6000fd5b505050506040513d601f19601f8201168201806040525081019062000a0a919062001739565b62000d54565b905090565b600760009054906101000a900473ffffffffffffffffffffffffffffffffffffffff1681565b60096020528060005260406000206000915090508060000160009054906101000a900473ffffffffffffffffffffffffffffffffffffffff16908060010154905082565b62000a8962000ba9565b73ffffffffffffffffffffffffffffffffffffffff1662000aa96200080d565b73ffffffffffffffffffffffffffffffffffffffff161462000b02576040517f08c379a000000000000000000000000000000000000000000000000000000000815260040162000af99062001bbe565b60405180910390fd5b600073ffffffffffffffffffffffffffffffffffffffff168173ffffffffffffffffffffffffffffffffffffffff16141562000b75576040517f08c379a000000000000000000000000000000000000000000000000000000000815260040162000b6c9062001b7a565b60405180910390fd5b62000b808162000c90565b50565b600460009054906101000a900473ffffffffffffffffffffffffffffffffffffffff1681565b600033905090565b62000bbd828262000d6f565b5050565b600062000bda6002548362000e2d90919063ffffffff16565b9050919050565b6000818362000bf1919062001d3f565b905092915050565b62000c05828262000e45565b5050565b62000c15828262001282565b62000c8882600360009054906101000a900473ffffffffffffffffffffffffffffffffffffffff1683600660009054906101000a900473ffffffffffffffffffffffffffffffffffffffff1673ffffffffffffffffffffffffffffffffffffffff1662001286909392919063ffffffff16565b5050565b5050565b60008060009054906101000a900473ffffffffffffffffffffffffffffffffffffffff169050816000806101000a81548173ffffffffffffffffffffffffffffffffffffffff021916908373ffffffffffffffffffffffffffffffffffffffff1602179055508173ffffffffffffffffffffffffffffffffffffffff168173ffffffffffffffffffffffffffffffffffffffff167f8be0079c531659141344cd1fd0a4f28419497f9722a3daafe3b4186f6b6457e060405160405180910390a35050565b600081831062000d65578162000d67565b825b905092915050565b600073ffffffffffffffffffffffffffffffffffffffff168273ffffffffffffffffffffffffffffffffffffffff16141562000de2576040517f08c379a000000000000000000000000000000000000000000000000000000000815260040162000dd99062001c68565b60405180910390fd5b600081141562000e29576040517f08c379a000000000000000000000000000000000000000000000000000000000815260040162000e209062001c24565b60405180910390fd5b5050565b6000818362000e3d919062001d9c565b905092915050565b600082428360405162000e58906200159d565b62000e669392919062001ad8565b604051809103906000f08015801562000e83573d6000803e3d6000fd5b5090506000600960008573ffffffffffffffffffffffffffffffffffffffff1673ffffffffffffffffffffffffffffffffffffffff1681526020019081526020016000209050600073ffffffffffffffffffffffffffffffffffffffff168160000160009054906101000a900473ffffffffffffffffffffffffffffffffffffffff1673ffffffffffffffffffffffffffffffffffffffff161462000fae5762000f3b83826001015462000be190919063ffffffff16565b816001018190555080600201829080600181540180825580915050600190039060005260206000200160009091909190916101000a81548173ffffffffffffffffffffffffffffffffffffffff021916908373ffffffffffffffffffffffffffffffffffffffff16021790555062001209565b60405180606001604052808573ffffffffffffffffffffffffffffffffffffffff168152602001848152602001600067ffffffffffffffff8111156200101d577f4e487b7100000000000000000000000000000000000000000000000000000000600052604160045260246000fd5b6040519080825280602002602001820160405280156200104c5781602001602082028036833780820191505090505b50815250600960008673ffffffffffffffffffffffffffffffffffffffff1673ffffffffffffffffffffffffffffffffffffffff16815260200190815260200160002060008201518160000160006101000a81548173ffffffffffffffffffffffffffffffffffffffff021916908373ffffffffffffffffffffffffffffffffffffffff160217905550602082015181600101556040820151816002019080519060200190620010fe929190620015ab565b50905050600960008573ffffffffffffffffffffffffffffffffffffffff1673ffffffffffffffffffffffffffffffffffffffff168152602001908152602001600020600201829080600181540180825580915050600190039060005260206000200160009091909190916101000a81548173ffffffffffffffffffffffffffffffffffffffff021916908373ffffffffffffffffffffffffffffffffffffffff1602179055506008849080600181540180825580915050600190039060005260206000200160009091909190916101000a81548173ffffffffffffffffffffffffffffffffffffffff021916908373ffffffffffffffffffffffffffffffffffffffff1602179055505b6200127c600760009054906101000a900473ffffffffffffffffffffffffffffffffffffffff168385600460009054906101000a900473ffffffffffffffffffffffffffffffffffffffff1673ffffffffffffffffffffffffffffffffffffffff1662001286909392919063ffffffff16565b50505050565b5050565b6200130d846323b872dd60e01b858585604051602401620012aa9392919062001a6e565b604051602081830303815290604052907bffffffffffffffffffffffffffffffffffffffffffffffffffffffff19166020820180517bffffffffffffffffffffffffffffffffffffffffffffffffffffffff838183161783525050505062001313565b50505050565b600062001377826040518060400160405280602081526020017f5361666545524332303a206c6f772d6c6576656c2063616c6c206661696c65648152508573ffffffffffffffffffffffffffffffffffffffff16620013e29092919063ffffffff16565b9050600081511115620013dd57808060200190518101906200139a9190620016e1565b620013dc576040517f08c379a0000000000000000000000000000000000000000000000000000000008152600401620013d39062001c02565b60405180910390fd5b5b505050565b6060620013f38484600085620013fc565b90509392505050565b60608247101562001444576040517f08c379a00000000000000000000000000000000000000000000000000000000081526004016200143b9062001b9c565b60405180910390fd5b6200144f856200151e565b62001491576040517f08c379a0000000000000000000000000000000000000000000000000000000008152600401620014889062001be0565b60405180910390fd5b6000808673ffffffffffffffffffffffffffffffffffffffff168587604051620014bc9190620019ee565b60006040518083038185875af1925050503d8060008114620014fb576040519150601f19603f3d011682016040523d82523d6000602084013e62001500565b606091505b50915091506200151282828662001531565b92505050949350505050565b600080823b905060008111915050919050565b60608315620015435782905062001596565b600083511115620015575782518084602001fd5b816040517f08c379a00000000000000000000000000000000000000000000000000000000081526004016200158d919062001b56565b60405180910390fd5b9392505050565b611d6c806200214e83390190565b82805482825590600052602060002090810192821562001627579160200282015b82811115620016265782518260006101000a81548173ffffffffffffffffffffffffffffffffffffffff021916908373ffffffffffffffffffffffffffffffffffffffff16021790555091602001919060010190620015cc565b5b5090506200163691906200163a565b5090565b5b80821115620016555760008160009055506001016200163b565b5090565b6000813590506200166a81620020ff565b92915050565b600081519050620016818162002119565b92915050565b600081359050620016988162002133565b92915050565b600081519050620016af8162002133565b92915050565b600060208284031215620016c857600080fd5b6000620016d88482850162001659565b91505092915050565b600060208284031215620016f457600080fd5b6000620017048482850162001670565b91505092915050565b6000602082840312156200172057600080fd5b6000620017308482850162001687565b91505092915050565b6000602082840312156200174c57600080fd5b60006200175c848285016200169e565b91505092915050565b600062001773838362001790565b60208301905092915050565b6200178a8162001e11565b82525050565b6200179b8162001dfd565b82525050565b620017ac8162001dfd565b82525050565b6000620017bf8262001ce4565b620017cb818562001d12565b9350620017d88362001cd4565b8060005b838110156200180f578151620017f3888262001765565b9750620018008362001d05565b925050600181019050620017dc565b5085935050505092915050565b6000620018298262001cef565b62001835818562001d23565b93506200184781856020860162001e83565b80840191505092915050565b6200185e8162001e5b565b82525050565b6000620018718262001cfa565b6200187d818562001d2e565b93506200188f81856020860162001e83565b6200189a8162001ee8565b840191505092915050565b6000620018b460268362001d2e565b9150620018c18262001ef9565b604082019050919050565b6000620018db60268362001d2e565b9150620018e88262001f48565b604082019050919050565b60006200190260208362001d2e565b91506200190f8262001f97565b602082019050919050565b600062001929601d8362001d2e565b9150620019368262001fc0565b602082019050919050565b600062001950602a8362001d2e565b91506200195d8262001fe9565b604082019050919050565b60006200197760228362001d2e565b9150620019848262002038565b604082019050919050565b60006200199e601f8362001d2e565b9150620019ab8262002087565b602082019050919050565b6000620019c560338362001d2e565b9150620019d282620020b0565b604082019050919050565b620019e88162001e51565b82525050565b6000620019fc82846200181c565b915081905092915050565b600060208201905062001a1e6000830184620017a1565b92915050565b600060208201905062001a3b60008301846200177f565b92915050565b600060408201905062001a586000830185620017a1565b62001a676020830184620017a1565b9392505050565b600060608201905062001a856000830186620017a1565b62001a946020830185620017a1565b62001aa36040830184620019dd565b949350505050565b600060408201905062001ac26000830185620017a1565b62001ad16020830184620019dd565b9392505050565b600060608201905062001aef6000830186620017a1565b62001afe6020830185620019dd565b62001b0d6040830184620019dd565b949350505050565b6000602082019050818103600083015262001b318184620017b2565b905092915050565b600060208201905062001b50600083018462001853565b92915050565b6000602082019050818103600083015262001b72818462001864565b905092915050565b6000602082019050818103600083015262001b9581620018a5565b9050919050565b6000602082019050818103600083015262001bb781620018cc565b9050919050565b6000602082019050818103600083015262001bd981620018f3565b9050919050565b6000602082019050818103600083015262001bfb816200191a565b9050919050565b6000602082019050818103600083015262001c1d8162001941565b9050919050565b6000602082019050818103600083015262001c3f8162001968565b9050919050565b6000602082019050818103600083015262001c61816200198f565b9050919050565b6000602082019050818103600083015262001c8381620019b6565b9050919050565b600060208201905062001ca16000830184620019dd565b92915050565b600060408201905062001cbe6000830185620019dd565b62001ccd6020830184620019dd565b9392505050565b6000819050602082019050919050565b600081519050919050565b600081519050919050565b600081519050919050565b6000602082019050919050565b600082825260208201905092915050565b600081905092915050565b600082825260208201905092915050565b600062001d4c8262001e51565b915062001d598362001e51565b9250827fffffffffffffffffffffffffffffffffffffffffffffffffffffffffffffffff0382111562001d915762001d9062001eb9565b5b828201905092915050565b600062001da98262001e51565b915062001db68362001e51565b9250817fffffffffffffffffffffffffffffffffffffffffffffffffffffffffffffffff048311821515161562001df25762001df162001eb9565b5b828202905092915050565b600062001e0a8262001e31565b9050919050565b600062001e1e8262001e31565b9050919050565b60008115159050919050565b600073ffffffffffffffffffffffffffffffffffffffff82169050919050565b6000819050919050565b600062001e688262001e6f565b9050919050565b600062001e7c8262001e31565b9050919050565b60005b8381101562001ea357808201518184015260208101905062001e86565b8381111562001eb3576000848401525b50505050565b7f4e487b7100000000000000000000000000000000000000000000000000000000600052601160045260246000fd5b6000601f19601f8301169050919050565b7f4f776e61626c653a206e6577206f776e657220697320746865207a65726f206160008201527f6464726573730000000000000000000000000000000000000000000000000000602082015250565b7f416464726573733a20696e73756666696369656e742062616c616e636520666f60008201527f722063616c6c0000000000000000000000000000000000000000000000000000602082015250565b7f4f776e61626c653a2063616c6c6572206973206e6f7420746865206f776e6572600082015250565b7f416464726573733a2063616c6c20746f206e6f6e2d636f6e7472616374000000600082015250565b7f5361666545524332303a204552433230206f7065726174696f6e20646964206e60008201527f6f74207375636365656400000000000000000000000000000000000000000000602082015250565b7f43726f776473616c65556e6c696d697465643a20776569416d6f756e7420697360008201527f2030000000000000000000000000000000000000000000000000000000000000602082015250565b7f5265656e7472616e637947756172643a207265656e7472616e742063616c6c00600082015250565b7f43726f776473616c65556e6c696d697465643a2062656e65666963696172792060008201527f697320746865207a65726f206164647265737300000000000000000000000000602082015250565b6200210a8162001dfd565b81146200211657600080fd5b50565b620021248162001e25565b81146200213057600080fd5b50565b6200213e8162001e51565b81146200214a57600080fd5b5056fe6080604052604051806040016040528061025861ffff1681526020016104b061ffff16815250600790600262000037929190620003f6565b50604051806040016040528061012c61ffff16815260200161012c61ffff1681525060089060026200006b929190620003f6565b506040518060400160405280602860ff168152602001603c60ff1681525060099060026200009b9291906200044e565b50348015620000a957600080fd5b5060405162001d6c38038062001d6c8339818101604052810190620000cf9190620004f2565b620000ef620000e36200031260201b60201c565b6200031a60201b60201c565b600073ffffffffffffffffffffffffffffffffffffffff168373ffffffffffffffffffffffffffffffffffffffff16141562000162576040517f08c379a00000000000000000000000000000000000000000000000000000000081526004016200015990620005b8565b60405180910390fd5b82600160006101000a81548173ffffffffffffffffffffffffffffffffffffffff021916908373ffffffffffffffffffffffffffffffffffffffff160217905550816002819055508060058190555060005b600780549050811015620002a657620002236007828154811062000201577f4e487b7100000000000000000000000000000000000000000000000000000000600052603260045260246000fd5b9060005260206000200154600354620003de60201b620006061790919060201c565b6003819055506200028a6009828154811062000268577f4e487b7100000000000000000000000000000000000000000000000000000000600052603260045260246000fd5b9060005260206000200154600454620003de60201b620006061790919060201c565b60048190555080806200029d9062000686565b915050620001b4565b5042620002c6600354600254620003de60201b620006061790919060201c565b1162000309576040517f08c379a0000000000000000000000000000000000000000000000000000000008152600401620003009062000596565b60405180910390fd5b505050620007d5565b600033905090565b60008060009054906101000a900473ffffffffffffffffffffffffffffffffffffffff169050816000806101000a81548173ffffffffffffffffffffffffffffffffffffffff021916908373ffffffffffffffffffffffffffffffffffffffff1602179055508173ffffffffffffffffffffffffffffffffffffffff168173ffffffffffffffffffffffffffffffffffffffff167f8be0079c531659141344cd1fd0a4f28419497f9722a3daafe3b4186f6b6457e060405160405180910390a35050565b60008183620003ee9190620005eb565b905092915050565b8280548282559060005260206000209081019282156200043b579160200282015b828111156200043a578251829061ffff1690559160200191906001019062000417565b5b5090506200044a9190620004a5565b5090565b82805482825590600052602060002090810192821562000492579160200282015b8281111562000491578251829060ff169055916020019190600101906200046f565b5b509050620004a19190620004a5565b5090565b5b80821115620004c0576000816000905550600101620004a6565b5090565b600081519050620004d581620007a1565b92915050565b600081519050620004ec81620007bb565b92915050565b6000806000606084860312156200050857600080fd5b60006200051886828701620004c4565b93505060206200052b86828701620004db565b92505060406200053e86828701620004db565b9150509250925092565b600062000557603e83620005da565b9150620005648262000703565b604082019050919050565b60006200057e603c83620005da565b91506200058b8262000752565b604082019050919050565b60006020820190508181036000830152620005b18162000548565b9050919050565b60006020820190508181036000830152620005d3816200056f565b9050919050565b600082825260208201905092915050565b6000620005f8826200067c565b915062000605836200067c565b9250827fffffffffffffffffffffffffffffffffffffffffffffffffffffffffffffffff038211156200063d576200063c620006d4565b5b828201905092915050565b600062000655826200065c565b9050919050565b600073ffffffffffffffffffffffffffffffffffffffff82169050919050565b6000819050919050565b600062000693826200067c565b91507fffffffffffffffffffffffffffffffffffffffffffffffffffffffffffffffff821415620006c957620006c8620006d4565b5b600182019050919050565b7f4e487b7100000000000000000000000000000000000000000000000000000000600052601160045260246000fd5b7f546f6b656e56657374696e6752657461696c556e6c696d697465643a2066696e60008201527f616c2074696d65206973206265666f72652063757272656e742074696d650000602082015250565b7f546f6b656e56657374696e6752657461696c556e6c696d697465643a2062656e60008201527f656669636961727920697320746865207a65726f206164647265737300000000602082015250565b620007ac8162000648565b8114620007b857600080fd5b50565b620007c6816200067c565b8114620007d257600080fd5b50565b61158780620007e56000396000f3fe608060405234801561001057600080fd5b50600436106100a95760003560e01c8063715018a611610071578063715018a6146101545780638da5cb5b1461015e5780639852595c1461017c578063be9a6555146101ac578063eec7faa1146101ca578063f2fde38b146101e8576100a9565b80630fb5a6b4146100ae5780631726cbc8146100cc57806319165587146100fc57806338af3eed146101185780633a98ef3914610136575b600080fd5b6100b6610204565b6040516100c391906110c0565b60405180910390f35b6100e660048036038101906100e19190610dd7565b61020a565b6040516100f391906110c0565b60405180910390f35b61011660048036038101906101119190610dd7565b61026d565b005b6101206103dc565b60405161012d9190610f9a565b60405180910390f35b61013e610402565b60405161014b91906110c0565b60405180910390f35b61015c610408565b005b610166610490565b6040516101739190610f9a565b60405180910390f35b61019660048036038101906101919190610d85565b6104b9565b6040516101a391906110c0565b60405180910390f35b6101b4610502565b6040516101c191906110c0565b60405180910390f35b6101d2610508565b6040516101df91906110c0565b60405180910390f35b61020260048036038101906101fd9190610d85565b61050e565b005b60035481565b6000610266600660008473ffffffffffffffffffffffffffffffffffffffff1673ffffffffffffffffffffffffffffffffffffffff168152602001908152602001600020546102588461061c565b61093090919063ffffffff16565b9050919050565b60006102788261020a565b9050600081116102bd576040517f08c379a00000000000000000000000000000000000000000000000000000000081526004016102b490611020565b60405180910390fd5b61030f81600660008573ffffffffffffffffffffffffffffffffffffffff1673ffffffffffffffffffffffffffffffffffffffff1681526020019081526020016000205461060690919063ffffffff16565b600660008473ffffffffffffffffffffffffffffffffffffffff1673ffffffffffffffffffffffffffffffffffffffff1681526020019081526020016000208190555061039f600160009054906101000a900473ffffffffffffffffffffffffffffffffffffffff16828473ffffffffffffffffffffffffffffffffffffffff166109469092919063ffffffff16565b7fc7798891864187665ac6dd119286e44ec13f014527aeeb2b8eb3fd413df9317982826040516103d0929190610fb5565b60405180910390a15050565b600160009054906101000a900473ffffffffffffffffffffffffffffffffffffffff1681565b60045481565b6104106109cc565b73ffffffffffffffffffffffffffffffffffffffff1661042e610490565b73ffffffffffffffffffffffffffffffffffffffff1614610484576040517f08c379a000000000000000000000000000000000000000000000000000000000815260040161047b90611060565b60405180910390fd5b61048e60006109d4565b565b60008060009054906101000a900473ffffffffffffffffffffffffffffffffffffffff16905090565b6000600660008373ffffffffffffffffffffffffffffffffffffffff1673ffffffffffffffffffffffffffffffffffffffff168152602001908152602001600020549050919050565b60025481565b60055481565b6105166109cc565b73ffffffffffffffffffffffffffffffffffffffff16610534610490565b73ffffffffffffffffffffffffffffffffffffffff161461058a576040517f08c379a000000000000000000000000000000000000000000000000000000000815260040161058190611060565b60405180910390fd5b600073ffffffffffffffffffffffffffffffffffffffff168173ffffffffffffffffffffffffffffffffffffffff1614156105fa576040517f08c379a00000000000000000000000000000000000000000000000000000000081526004016105f190611000565b60405180910390fd5b610603816109d4565b50565b60008183610614919061110d565b905092915050565b6000808273ffffffffffffffffffffffffffffffffffffffff166370a08231306040518263ffffffff1660e01b81526004016106589190610f9a565b60206040518083038186803b15801561067057600080fd5b505afa158015610684573d6000803e3d6000fd5b505050506040513d601f19601f820116820180604052508101906106a89190610e00565b905060006106fe600660008673ffffffffffffffffffffffffffffffffffffffff1673ffffffffffffffffffffffffffffffffffffffff168152602001908152602001600020548361060690919063ffffffff16565b905061071760035460025461060690919063ffffffff16565b421061072757809250505061092b565b6000806000600254905060005b6007805490508110156109215760006107de60088381548110610780577f4e487b7100000000000000000000000000000000000000000000000000000000600052603260045260246000fd5b9060005260206000200154600784815481106107c5577f4e487b7100000000000000000000000000000000000000000000000000000000600052603260045260246000fd5b9060005260206000200154610a9890919063ffffffff16565b905060006108398260098581548110610820577f4e487b7100000000000000000000000000000000000000000000000000000000600052603260045260246000fd5b9060005260206000200154610a9890919063ffffffff16565b905060005b828110156108fe5761089d60088581548110610883577f4e487b7100000000000000000000000000000000000000000000000000000000600052603260045260246000fd5b90600052602060002001548661060690919063ffffffff16565b9450428511156108b057600196506108fe565b6108e96108da6004546108cc858c610aae90919063ffffffff16565b610a9890919063ffffffff16565b8761060690919063ffffffff16565b955080806108f6906112af565b91505061083e565b50851561090c575050610921565b50508080610919906112af565b915050610734565b5081955050505050505b919050565b6000818361093e91906111ee565b905092915050565b6109c78363a9059cbb60e01b8484604051602401610965929190610fb5565b604051602081830303815290604052907bffffffffffffffffffffffffffffffffffffffffffffffffffffffff19166020820180517bffffffffffffffffffffffffffffffffffffffffffffffffffffffff8381831617835250505050610ac4565b505050565b600033905090565b60008060009054906101000a900473ffffffffffffffffffffffffffffffffffffffff169050816000806101000a81548173ffffffffffffffffffffffffffffffffffffffff021916908373ffffffffffffffffffffffffffffffffffffffff1602179055508173ffffffffffffffffffffffffffffffffffffffff168173ffffffffffffffffffffffffffffffffffffffff167f8be0079c531659141344cd1fd0a4f28419497f9722a3daafe3b4186f6b6457e060405160405180910390a35050565b60008183610aa69190611163565b905092915050565b60008183610abc9190611194565b905092915050565b6000610b26826040518060400160405280602081526020017f5361666545524332303a206c6f772d6c6576656c2063616c6c206661696c65648152508573ffffffffffffffffffffffffffffffffffffffff16610b8b9092919063ffffffff16565b9050600081511115610b865780806020019051810190610b469190610dae565b610b85576040517f08c379a0000000000000000000000000000000000000000000000000000000008152600401610b7c906110a0565b60405180910390fd5b5b505050565b6060610b9a8484600085610ba3565b90509392505050565b606082471015610be8576040517f08c379a0000000000000000000000000000000000000000000000000000000008152600401610bdf90611040565b60405180910390fd5b610bf185610cb7565b610c30576040517f08c379a0000000000000000000000000000000000000000000000000000000008152600401610c2790611080565b60405180910390fd5b6000808673ffffffffffffffffffffffffffffffffffffffff168587604051610c599190610f83565b60006040518083038185875af1925050503d8060008114610c96576040519150601f19603f3d011682016040523d82523d6000602084013e610c9b565b606091505b5091509150610cab828286610cca565b92505050949350505050565b600080823b905060008111915050919050565b60608315610cda57829050610d2a565b600083511115610ced5782518084602001fd5b816040517f08c379a0000000000000000000000000000000000000000000000000000000008152600401610d219190610fde565b60405180910390fd5b9392505050565b600081359050610d40816114f5565b92915050565b600081519050610d558161150c565b92915050565b600081359050610d6a81611523565b92915050565b600081519050610d7f8161153a565b92915050565b600060208284031215610d9757600080fd5b6000610da584828501610d31565b91505092915050565b600060208284031215610dc057600080fd5b6000610dce84828501610d46565b91505092915050565b600060208284031215610de957600080fd5b6000610df784828501610d5b565b91505092915050565b600060208284031215610e1257600080fd5b6000610e2084828501610d70565b91505092915050565b610e3281611222565b82525050565b6000610e43826110db565b610e4d81856110f1565b9350610e5d81856020860161127c565b80840191505092915050565b6000610e74826110e6565b610e7e81856110fc565b9350610e8e81856020860161127c565b610e9781611356565b840191505092915050565b6000610eaf6026836110fc565b9150610eba82611367565b604082019050919050565b6000610ed2602e836110fc565b9150610edd826113b6565b604082019050919050565b6000610ef56026836110fc565b9150610f0082611405565b604082019050919050565b6000610f186020836110fc565b9150610f2382611454565b602082019050919050565b6000610f3b601d836110fc565b9150610f468261147d565b602082019050919050565b6000610f5e602a836110fc565b9150610f69826114a6565b604082019050919050565b610f7d81611272565b82525050565b6000610f8f8284610e38565b915081905092915050565b6000602082019050610faf6000830184610e29565b92915050565b6000604082019050610fca6000830185610e29565b610fd76020830184610f74565b9392505050565b60006020820190508181036000830152610ff88184610e69565b905092915050565b6000602082019050818103600083015261101981610ea2565b9050919050565b6000602082019050818103600083015261103981610ec5565b9050919050565b6000602082019050818103600083015261105981610ee8565b9050919050565b6000602082019050818103600083015261107981610f0b565b9050919050565b6000602082019050818103600083015261109981610f2e565b9050919050565b600060208201905081810360008301526110b981610f51565b9050919050565b60006020820190506110d56000830184610f74565b92915050565b600081519050919050565b600081519050919050565b600081905092915050565b600082825260208201905092915050565b600061111882611272565b915061112383611272565b9250827fffffffffffffffffffffffffffffffffffffffffffffffffffffffffffffffff03821115611158576111576112f8565b5b828201905092915050565b600061116e82611272565b915061117983611272565b92508261118957611188611327565b5b828204905092915050565b600061119f82611272565b91506111aa83611272565b9250817fffffffffffffffffffffffffffffffffffffffffffffffffffffffffffffffff04831182151516156111e3576111e26112f8565b5b828202905092915050565b60006111f982611272565b915061120483611272565b925082821015611217576112166112f8565b5b828203905092915050565b600061122d82611252565b9050919050565b60008115159050919050565b600061124b82611222565b9050919050565b600073ffffffffffffffffffffffffffffffffffffffff82169050919050565b6000819050919050565b60005b8381101561129a57808201518184015260208101905061127f565b838111156112a9576000848401525b50505050565b60006112ba82611272565b91507fffffffffffffffffffffffffffffffffffffffffffffffffffffffffffffffff8214156112ed576112ec6112f8565b5b600182019050919050565b7f4e487b7100000000000000000000000000000000000000000000000000000000600052601160045260246000fd5b7f4e487b7100000000000000000000000000000000000000000000000000000000600052601260045260246000fd5b6000601f19601f8301169050919050565b7f4f776e61626c653a206e6577206f776e657220697320746865207a65726f206160008201527f6464726573730000000000000000000000000000000000000000000000000000602082015250565b7f546f6b656e56657374696e6752657461696c556e6c696d697465643a206e6f2060008201527f746f6b656e732061726520647565000000000000000000000000000000000000602082015250565b7f416464726573733a20696e73756666696369656e742062616c616e636520666f60008201527f722063616c6c0000000000000000000000000000000000000000000000000000602082015250565b7f4f776e61626c653a2063616c6c6572206973206e6f7420746865206f776e6572600082015250565b7f416464726573733a2063616c6c20746f206e6f6e2d636f6e7472616374000000600082015250565b7f5361666545524332303a204552433230206f7065726174696f6e20646964206e60008201527f6f74207375636365656400000000000000000000000000000000000000000000602082015250565b6114fe81611222565b811461150957600080fd5b50565b61151581611234565b811461152057600080fd5b50565b61152c81611240565b811461153757600080fd5b50565b61154381611272565b811461154e57600080fd5b5056fea2646970667358221220d3b5e6651516bd2ac7527d12977fce0f5fa46876dda9222af577a41b2ece142364736f6c63430008040033a2646970667358221220c48f87278c3956dc863c628d1033734d8ca8fabbf7a75d9924e685990be6210864736f6c63430008040033",
  "immutableReferences": {},
  "source": "// SPDX-License-Identifier: MIT\r\npragma solidity ^0.8.0;\r\n\r\nimport \"@openzeppelin/contracts/access/Ownable.sol\";\r\nimport \"@openzeppelin/contracts/utils/math/Math.sol\";\r\nimport \"@openzeppelin/contracts/utils/math/SafeMath.sol\";\r\nimport \"@openzeppelin/contracts/token/ERC20/IERC20.sol\";\r\nimport \"@openzeppelin/contracts/token/ERC20/utils/SafeERC20.sol\";\r\nimport \"./Crowdsale/CrowdsaleUnlimited.sol\";\r\nimport \"./Crowdsale/emission/TokenVestingRetailUnlimited.sol\";\r\n\r\ncontract CrowdsaleForRetailUnlimited is Ownable, CrowdsaleUnlimited {\r\n    using SafeMath for uint256;\r\n    using SafeERC20 for IERC20;\r\n\r\n    // \r\n    IERC20 public purchaseToken;\r\n    // tokenWallet , \r\n    address public tokenWallet;\r\n    // \r\n    address[] private _memberList;\r\n\r\n    // \r\n    struct TokenVestingInfo {\r\n        address beneficiaryToken;\r\n        uint256 tokenTotalAmount;\r\n        address[] vestingAddress;\r\n    }\r\n\r\n    // Token\r\n    mapping(address => TokenVestingInfo) public tokenVestingList;\r\n\r\n    constructor(\r\n        IERC20 _purchaseToken,   // \r\n        uint256 _rate,           // \r\n        address payable _wallet, // ETH\r\n        IERC20 _token,           // \r\n        address _tokenWallet     // \r\n    ) CrowdsaleUnlimited(_rate, _wallet, _token) {\r\n        require(address(_purchaseToken) != address(0), \"CrowdsaleForRetailUnlimited: purchase token is the zero address\");\r\n\r\n        purchaseToken = _purchaseToken;\r\n        tokenWallet = _tokenWallet;\r\n    }\r\n\r\n    /**\r\n     * @dev get _memberList\r\n     */\r\n    function getMemberList() public onlyOwner view returns (address[] memory) {\r\n        return _memberList;\r\n    }\r\n\r\n    /**\r\n     * @dev Checks the amount of tokens left in the allowance.\r\n     * @return Amount of tokens left in the allowance\r\n     */\r\n    function remainingTokens() public view returns (uint256) {\r\n        return Math.min(token.balanceOf(tokenWallet), token.allowance(tokenWallet, address(this)));\r\n    }\r\n\r\n    /**\r\n     * @dev get vestingAddress list from the tokenVestingList\r\n     */\r\n    function getTokenVestingAddressByAccount(address account) public view returns (address[] memory) {\r\n        TokenVestingInfo storage info = tokenVestingList[account];\r\n        return info.vestingAddress;\r\n    }\r\n\r\n    // \r\n    // \r\n    function _preValidatePurchase(address beneficiary, uint256 weiAmount) internal override view {\r\n        super._preValidatePurchase(beneficiary, weiAmount);\r\n    }\r\n\r\n    // \r\n    function _updatePurchasingState(address beneficiary, uint256 weiAmount) internal override {\r\n        super._updatePurchasingState(beneficiary, weiAmount);\r\n        // DAT\r\n        purchaseToken.safeTransferFrom(beneficiary, wallet, weiAmount);\r\n    }\r\n\r\n    // \r\n    function _deliverTokens(address beneficiary, uint256 tokenAmount) internal override {\r\n        address vestingToken = address(new TokenVestingRetailUnlimited(\r\n            beneficiary, // \r\n            block.timestamp, // \r\n            tokenAmount // \r\n        ));\r\n        TokenVestingInfo storage info = tokenVestingList[beneficiary];\r\n        if (info.beneficiaryToken != address(0)) {\r\n            info.tokenTotalAmount = info.tokenTotalAmount.add(tokenAmount);\r\n            info.vestingAddress.push(vestingToken);\r\n        } else {\r\n            tokenVestingList[beneficiary] = TokenVestingInfo({\r\n                beneficiaryToken: beneficiary,\r\n                tokenTotalAmount: tokenAmount,\r\n                vestingAddress: new address[](0)\r\n            });\r\n            tokenVestingList[beneficiary].vestingAddress.push(vestingToken);\r\n            // beneficiary\r\n            _memberList.push(beneficiary);\r\n        }\r\n        // \r\n        token.safeTransferFrom(tokenWallet, vestingToken, tokenAmount);\r\n    }\r\n}\r\n",
  "sourcePath": "D:\\Workspaces\\DaoswapDex\\daoswapdex-heco-testnet\\core-crowdsale2\\contracts\\CrowdsaleForRetailUnlimited.sol",
  "compiler": {
    "name": "solc",
    "version": "0.8.4+commit.c7e474f2.Emscripten.clang"
  },
  "schemaVersion": "3.4.3",
  "updatedAt": "2021-11-22T00:56:28.434Z",
  "networkType": "ethereum",
  "devdoc": {
    "kind": "dev",
    "methods": {
      "getMemberList()": {
        "details": "get _memberList"
      },
      "getTokenVestingAddressByAccount(address)": {
        "details": "get vestingAddress list from the tokenVestingList"
      },
      "owner()": {
        "details": "Returns the address of the current owner."
      },
      "remainingTokens()": {
        "details": "Checks the amount of tokens left in the allowance.",
        "returns": {
          "_0": "Amount of tokens left in the allowance"
        }
      },
      "renounceOwnership()": {
        "details": "Leaves the contract without owner. It will not be possible to call `onlyOwner` functions anymore. Can only be called by the current owner. NOTE: Renouncing ownership will leave the contract without an owner, thereby removing any functionality that is only available to the owner."
      },
      "transferOwnership(address)": {
        "details": "Transfers ownership of the contract to a new account (`newOwner`). Can only be called by the current owner."
      }
    },
    "version": 1
  },
  "userdoc": {
    "events": {
      "TokensPurchased(address,address,uint256,uint256)": {
        "notice": "Event for token purchase logging"
      }
    },
    "kind": "user",
    "methods": {},
    "version": 1
  }
}