{
  "contractName": "StakingLimit",
  "abi": [
    {
      "inputs": [
        {
          "internalType": "address",
          "name": "_stakingToken",
          "type": "address"
        },
        {
          "internalType": "address",
          "name": "_tokenWallet",
          "type": "address"
        },
        {
          "internalType": "address payable",
          "name": "_wallet",
          "type": "address"
        },
        {
          "internalType": "uint256",
          "name": "_duration",
          "type": "uint256"
        },
        {
          "internalType": "uint256",
          "name": "_stageCliffUnit",
          "type": "uint256"
        },
        {
          "internalType": "uint256",
          "name": "_maxStakingAmount",
          "type": "uint256"
        },
        {
          "internalType": "uint256",
          "name": "_minStakingAmount",
          "type": "uint256"
        }
      ],
      "stateMutability": "nonpayable",
      "type": "constructor"
    },
    {
      "anonymous": false,
      "inputs": [
        {
          "indexed": true,
          "internalType": "address",
          "name": "previousOwner",
          "type": "address"
        },
        {
          "indexed": true,
          "internalType": "address",
          "name": "newOwner",
          "type": "address"
        }
      ],
      "name": "OwnershipTransferred",
      "type": "event"
    },
    {
      "anonymous": false,
      "inputs": [
        {
          "indexed": true,
          "internalType": "address",
          "name": "staker",
          "type": "address"
        },
        {
          "indexed": false,
          "internalType": "uint256",
          "name": "value",
          "type": "uint256"
        },
        {
          "indexed": false,
          "internalType": "address",
          "name": "vestingToken",
          "type": "address"
        }
      ],
      "name": "TokensStake",
      "type": "event"
    },
    {
      "stateMutability": "nonpayable",
      "type": "fallback"
    },
    {
      "inputs": [],
      "name": "duration",
      "outputs": [
        {
          "internalType": "uint256",
          "name": "",
          "type": "uint256"
        }
      ],
      "stateMutability": "view",
      "type": "function",
      "constant": true
    },
    {
      "inputs": [],
      "name": "maxStakingAmount",
      "outputs": [
        {
          "internalType": "uint256",
          "name": "",
          "type": "uint256"
        }
      ],
      "stateMutability": "view",
      "type": "function",
      "constant": true
    },
    {
      "inputs": [],
      "name": "minStakingAmount",
      "outputs": [
        {
          "internalType": "uint256",
          "name": "",
          "type": "uint256"
        }
      ],
      "stateMutability": "view",
      "type": "function",
      "constant": true
    },
    {
      "inputs": [],
      "name": "owner",
      "outputs": [
        {
          "internalType": "address",
          "name": "",
          "type": "address"
        }
      ],
      "stateMutability": "view",
      "type": "function",
      "constant": true
    },
    {
      "inputs": [],
      "name": "rateDenominator",
      "outputs": [
        {
          "internalType": "uint256",
          "name": "",
          "type": "uint256"
        }
      ],
      "stateMutability": "view",
      "type": "function",
      "constant": true
    },
    {
      "inputs": [],
      "name": "renounceOwnership",
      "outputs": [],
      "stateMutability": "nonpayable",
      "type": "function"
    },
    {
      "inputs": [
        {
          "internalType": "address",
          "name": "",
          "type": "address"
        }
      ],
      "name": "rewardsRateInfoList",
      "outputs": [
        {
          "internalType": "address",
          "name": "rewardsToken",
          "type": "address"
        },
        {
          "internalType": "uint256",
          "name": "rewardsRate",
          "type": "uint256"
        }
      ],
      "stateMutability": "view",
      "type": "function",
      "constant": true
    },
    {
      "inputs": [
        {
          "internalType": "uint256",
          "name": "",
          "type": "uint256"
        }
      ],
      "name": "rewardsTokenList",
      "outputs": [
        {
          "internalType": "address",
          "name": "",
          "type": "address"
        }
      ],
      "stateMutability": "view",
      "type": "function",
      "constant": true
    },
    {
      "inputs": [],
      "name": "stageCliffUnit",
      "outputs": [
        {
          "internalType": "uint256",
          "name": "",
          "type": "uint256"
        }
      ],
      "stateMutability": "view",
      "type": "function",
      "constant": true
    },
    {
      "inputs": [],
      "name": "stakingToken",
      "outputs": [
        {
          "internalType": "address",
          "name": "",
          "type": "address"
        }
      ],
      "stateMutability": "view",
      "type": "function",
      "constant": true
    },
    {
      "inputs": [
        {
          "internalType": "uint256",
          "name": "amount",
          "type": "uint256"
        }
      ],
      "name": "stakingTokens",
      "outputs": [],
      "stateMutability": "payable",
      "type": "function",
      "payable": true
    },
    {
      "inputs": [
        {
          "internalType": "address",
          "name": "",
          "type": "address"
        }
      ],
      "name": "tokenVestingList",
      "outputs": [
        {
          "internalType": "address",
          "name": "stakingToken",
          "type": "address"
        },
        {
          "internalType": "address",
          "name": "stakerToken",
          "type": "address"
        },
        {
          "internalType": "uint256",
          "name": "stakedAmount",
          "type": "uint256"
        }
      ],
      "stateMutability": "view",
      "type": "function",
      "constant": true
    },
    {
      "inputs": [],
      "name": "tokenWallet",
      "outputs": [
        {
          "internalType": "address",
          "name": "",
          "type": "address"
        }
      ],
      "stateMutability": "view",
      "type": "function",
      "constant": true
    },
    {
      "inputs": [
        {
          "internalType": "address",
          "name": "newOwner",
          "type": "address"
        }
      ],
      "name": "transferOwnership",
      "outputs": [],
      "stateMutability": "nonpayable",
      "type": "function"
    },
    {
      "inputs": [],
      "name": "wallet",
      "outputs": [
        {
          "internalType": "address payable",
          "name": "",
          "type": "address"
        }
      ],
      "stateMutability": "view",
      "type": "function",
      "constant": true
    },
    {
      "stateMutability": "payable",
      "type": "receive",
      "payable": true
    },
    {
      "inputs": [
        {
          "internalType": "uint256",
          "name": "_duration",
          "type": "uint256"
        }
      ],
      "name": "setDuration",
      "outputs": [],
      "stateMutability": "nonpayable",
      "type": "function"
    },
    {
      "inputs": [
        {
          "internalType": "uint256",
          "name": "timeUnit",
          "type": "uint256"
        }
      ],
      "name": "setStageCliffUnit",
      "outputs": [],
      "stateMutability": "nonpayable",
      "type": "function"
    },
    {
      "inputs": [
        {
          "internalType": "uint256",
          "name": "amount",
          "type": "uint256"
        }
      ],
      "name": "setMaxStakingAmount",
      "outputs": [],
      "stateMutability": "nonpayable",
      "type": "function"
    },
    {
      "inputs": [
        {
          "internalType": "uint256",
          "name": "amount",
          "type": "uint256"
        }
      ],
      "name": "setMinStakingAmount",
      "outputs": [],
      "stateMutability": "nonpayable",
      "type": "function"
    },
    {
      "inputs": [
        {
          "internalType": "address",
          "name": "token",
          "type": "address"
        },
        {
          "internalType": "uint256",
          "name": "rate",
          "type": "uint256"
        }
      ],
      "name": "setRewardsRate",
      "outputs": [],
      "stateMutability": "nonpayable",
      "type": "function"
    },
    {
      "inputs": [],
      "name": "getStakerMemberList",
      "outputs": [
        {
          "internalType": "address[]",
          "name": "",
          "type": "address[]"
        }
      ],
      "stateMutability": "view",
      "type": "function",
      "constant": true
    },
    {
      "inputs": [],
      "name": "getRewardsTokenList",
      "outputs": [
        {
          "internalType": "address[]",
          "name": "",
          "type": "address[]"
        }
      ],
      "stateMutability": "view",
      "type": "function",
      "constant": true
    },
    {
      "inputs": [
        {
          "internalType": "address",
          "name": "account",
          "type": "address"
        }
      ],
      "name": "getTokenVestingAddressByAccount",
      "outputs": [
        {
          "internalType": "address[]",
          "name": "",
          "type": "address[]"
        }
      ],
      "stateMutability": "view",
      "type": "function",
      "constant": true
    }
  ],
  "bytecode": "0x60806040523480156200001157600080fd5b5060405162005b4438038062005b448339818101604052810190620000379190620004d6565b848785856200005b6200004f620003c560201b60201c565b620003cd60201b60201c565b60018081905550600073ffffffffffffffffffffffffffffffffffffffff168473ffffffffffffffffffffffffffffffffffffffff161415620000d5576040517f08c379a0000000000000000000000000000000000000000000000000000000008152600401620000cc90620006fa565b60405180910390fd5b600073ffffffffffffffffffffffffffffffffffffffff168373ffffffffffffffffffffffffffffffffffffffff16141562000148576040517f08c379a00000000000000000000000000000000000000000000000000000000081526004016200013f9062000760565b60405180910390fd5b60008210156200018f576040517f08c379a00000000000000000000000000000000000000000000000000000000081526004016200018690620006b6565b60405180910390fd5b6000811015620001d6576040517f08c379a0000000000000000000000000000000000000000000000000000000008152600401620001cd90620006d8565b60405180910390fd5b83600460006101000a81548173ffffffffffffffffffffffffffffffffffffffff021916908373ffffffffffffffffffffffffffffffffffffffff16021790555082600560006101000a81548173ffffffffffffffffffffffffffffffffffffffff021916908373ffffffffffffffffffffffffffffffffffffffff160217905550816002819055508060038190555050505050600073ffffffffffffffffffffffffffffffffffffffff168673ffffffffffffffffffffffffffffffffffffffff161415620002dd576040517f08c379a0000000000000000000000000000000000000000000000000000000008152600401620002d4906200073e565b60405180910390fd5b6000811162000323576040517f08c379a00000000000000000000000000000000000000000000000000000000081526004016200031a9062000694565b60405180910390fd5b8082101562000369576040517f08c379a000000000000000000000000000000000000000000000000000000000815260040162000360906200071c565b60405180910390fd5b85600a60006101000a81548173ffffffffffffffffffffffffffffffffffffffff021916908373ffffffffffffffffffffffffffffffffffffffff16021790555081600881905550806009819055505050505050505062000a82565b600033905090565b60008060009054906101000a900473ffffffffffffffffffffffffffffffffffffffff169050816000806101000a81548173ffffffffffffffffffffffffffffffffffffffff021916908373ffffffffffffffffffffffffffffffffffffffff1602179055508173ffffffffffffffffffffffffffffffffffffffff168173ffffffffffffffffffffffffffffffffffffffff167f8be0079c531659141344cd1fd0a4f28419497f9722a3daafe3b4186f6b6457e060405160405180910390a35050565b600081519050620004a28162000a34565b92915050565b600081519050620004b98162000a4e565b92915050565b600081519050620004d08162000a68565b92915050565b600080600080600080600060e0888a031215620004f257600080fd5b6000620005028a828b0162000491565b9750506020620005158a828b0162000491565b9650506040620005288a828b01620004a8565b95505060606200053b8a828b01620004bf565b94505060806200054e8a828b01620004bf565b93505060a0620005618a828b01620004bf565b92505060c0620005748a828b01620004bf565b91505092959891949750929550565b600062000592603a8362000782565b91506200059f82620007e5565b604082019050919050565b6000620005b960288362000782565b9150620005c68262000834565b604082019050919050565b6000620005e0602e8362000782565b9150620005ed8262000883565b604082019050919050565b60006200060760288362000782565b91506200061482620008d2565b604082019050919050565b60006200062e60538362000782565b91506200063b8262000921565b606082019050919050565b600062000655602e8362000782565b9150620006628262000996565b604082019050919050565b60006200067c602e8362000782565b91506200068982620009e5565b604082019050919050565b60006020820190508181036000830152620006af8162000583565b9050919050565b60006020820190508181036000830152620006d181620005aa565b9050919050565b60006020820190508181036000830152620006f381620005d1565b9050919050565b600060208201905081810360008301526200071581620005f8565b9050919050565b6000602082019050818103600083015262000737816200061f565b9050919050565b60006020820190508181036000830152620007598162000646565b9050919050565b600060208201905081810360008301526200077b816200066d565b9050919050565b600082825260208201905092915050565b6000620007a082620007bb565b9050919050565b6000620007b482620007bb565b9050919050565b600073ffffffffffffffffffffffffffffffffffffffff82169050919050565b6000819050919050565b7f5374616b696e674c696d69743a20546865206d696e696d756d207374616b696e60008201527f6720616d6f756e742069732067726561746572207468616e2030000000000000602082015250565b7f5374616b696e67546f6b656e3a206475726174696f6e2069732067726561746560008201527f72207468616e2030000000000000000000000000000000000000000000000000602082015250565b7f5374616b696e67546f6b656e3a207374616765436c696666556e69742069732060008201527f67726561746572207468616e2030000000000000000000000000000000000000602082015250565b7f5374616b696e67546f6b656e3a2077616c6c657420697320746865207a65726f60008201527f2061646472657373000000000000000000000000000000000000000000000000602082015250565b7f5374616b696e674c696d69743a20546865206d6178696d756d207374616b696e60008201527f6720616d6f756e742069732067726561746572207468616e20746865206d696e60208201527f696d756d207374616b696e6720616d6f756e7400000000000000000000000000604082015250565b7f5374616b696e674c696d69743a20746f6b656e2077616c6c657420697320746860008201527f65207a65726f2061646472657373000000000000000000000000000000000000602082015250565b7f5374616b696e67546f6b656e3a207374616b696e67546f6b656e20697320746860008201527f65207a65726f2061646472657373000000000000000000000000000000000000602082015250565b62000a3f8162000793565b811462000a4b57600080fd5b50565b62000a5981620007a7565b811462000a6557600080fd5b50565b62000a7381620007db565b811462000a7f57600080fd5b50565b6150b28062000a926000396000f3fe608060405260043610620001635760003560e01c8063715018a611620000c7578063bbc0c9671162000079578063bbc0c96714620004af578063bff99c6c14620004df578063e6007872146200050f578063eac11b2f1462000554578063f2fde38b146200059a578063f6be71d114620005c85762000175565b8063715018a614620003a757806372f702f314620003c1578063865192f714620003f15780638da5cb5b1462000421578063978cd71e14620004515780639e6b9e98146200047f5762000175565b806325c065b1116200012157806325c065b1146200029b5780632da7058b14620002cb578063344e5e3414620002f95780634d5d08061462000319578063521eb2731462000349578063612d669e14620003795762000175565b80630fb5a6b414620001855780631f78fb3914620001b5578063225a5a9f14620001f957806322ac3f50146200023d57806322b10554146200026d5762000175565b36620001755762000173620005f6565b005b3480156200018257600080fd5b50005b3480156200019257600080fd5b506200019d62000662565b604051620001ac919062002ce7565b60405180910390f35b348015620001c257600080fd5b50620001e16004803603810190620001db9190620024bb565b62000668565b604051620001f091906200292a565b60405180910390f35b3480156200020657600080fd5b506200022560048036038101906200021f919062002422565b620006a8565b60405162000234919062002a3b565b60405180910390f35b3480156200024a57600080fd5b506200025562000780565b60405162000264919062002ce7565b60405180910390f35b3480156200027a57600080fd5b50620002996004803603810190620002939190620024bb565b62000786565b005b348015620002a857600080fd5b50620002b36200085b565b604051620002c2919062002ce7565b60405180910390f35b348015620002d857600080fd5b50620002f76004803603810190620002f191906200244e565b62000861565b005b620003176004803603810190620003119190620024bb565b62000b70565b005b3480156200032657600080fd5b506200033162000c0a565b60405162000340919062002ce7565b60405180910390f35b3480156200035657600080fd5b506200036162000c10565b60405162000370919062002947565b60405180910390f35b3480156200038657600080fd5b50620003a560048036038101906200039f9190620024bb565b62000c36565b005b348015620003b457600080fd5b50620003bf62000d51565b005b348015620003ce57600080fd5b50620003d962000de2565b604051620003e891906200292a565b60405180910390f35b348015620003fe57600080fd5b506200040962000e08565b60405162000418919062002ce7565b60405180910390f35b3480156200042e57600080fd5b506200043962000e0d565b6040516200044891906200292a565b60405180910390f35b3480156200045e57600080fd5b506200047d6004803603810190620004779190620024bb565b62000e36565b005b3480156200048c57600080fd5b506200049762000f0a565b604051620004a6919062002a3b565b60405180910390f35b348015620004bc57600080fd5b50620004c762000f9a565b604051620004d6919062002a3b565b60405180910390f35b348015620004ec57600080fd5b50620004f7620010ad565b6040516200050691906200292a565b60405180910390f35b3480156200051c57600080fd5b506200053b600480360381019062000535919062002422565b620010d3565b6040516200054b92919062002a0e565b60405180910390f35b3480156200056157600080fd5b506200058060048036038101906200057a919062002422565b62001117565b604051620005919392919062002964565b60405180910390f35b348015620005a757600080fd5b50620005c66004803603810190620005c0919062002422565b62001181565b005b348015620005d557600080fd5b50620005f46004803603810190620005ee9190620024bb565b62001285565b005b600460009054906101000a900473ffffffffffffffffffffffffffffffffffffffff1673ffffffffffffffffffffffffffffffffffffffff166108fc349081150290604051600060405180830381858888f193505050501580156200065f573d6000803e3d6000fd5b50565b60025481565b600b81815481106200067957600080fd5b906000526020600020016000915054906101000a900473ffffffffffffffffffffffffffffffffffffffff1681565b60606000600760008473ffffffffffffffffffffffffffffffffffffffff1673ffffffffffffffffffffffffffffffffffffffff1681526020019081526020016000209050806003018054806020026020016040519081016040528092919081815260200182805480156200077357602002820191906000526020600020905b8160009054906101000a900473ffffffffffffffffffffffffffffffffffffffff1673ffffffffffffffffffffffffffffffffffffffff168152602001906001019080831162000728575b5050505050915050919050565b60035481565b6200079062001359565b73ffffffffffffffffffffffffffffffffffffffff16620007b062000e0d565b73ffffffffffffffffffffffffffffffffffffffff161462000809576040517f08c379a0000000000000000000000000000000000000000000000000000000008152600401620008009062002b71565b60405180910390fd5b60095481101562000851576040517f08c379a0000000000000000000000000000000000000000000000000000000008152600401620008489062002c1b565b60405180910390fd5b8060088190555050565b60095481565b6200086b62001359565b73ffffffffffffffffffffffffffffffffffffffff166200088b62000e0d565b73ffffffffffffffffffffffffffffffffffffffff1614620008e4576040517f08c379a0000000000000000000000000000000000000000000000000000000008152600401620008db9062002b71565b60405180910390fd5b600073ffffffffffffffffffffffffffffffffffffffff168273ffffffffffffffffffffffffffffffffffffffff16141562000957576040517f08c379a00000000000000000000000000000000000000000000000000000000081526004016200094e9062002bd7565b60405180910390fd5b60008110156200099e576040517f08c379a0000000000000000000000000000000000000000000000000000000008152600401620009959062002b93565b60405180910390fd5b6000600c60008473ffffffffffffffffffffffffffffffffffffffff1673ffffffffffffffffffffffffffffffffffffffff1681526020019081526020016000209050600073ffffffffffffffffffffffffffffffffffffffff168160000160009054906101000a900473ffffffffffffffffffffffffffffffffffffffff1673ffffffffffffffffffffffffffffffffffffffff161462000a495781816001018190555062000b6b565b60405180604001604052808473ffffffffffffffffffffffffffffffffffffffff16815260200183815250600c60008573ffffffffffffffffffffffffffffffffffffffff1673ffffffffffffffffffffffffffffffffffffffff16815260200190815260200160002060008201518160000160006101000a81548173ffffffffffffffffffffffffffffffffffffffff021916908373ffffffffffffffffffffffffffffffffffffffff16021790555060208201518160010155905050600b839080600181540180825580915050600190039060005260206000200160009091909190916101000a81548173ffffffffffffffffffffffffffffffffffffffff021916908373ffffffffffffffffffffffffffffffffffffffff1602179055505b505050565b6002600154141562000bb9576040517f08c379a000000000000000000000000000000000000000000000000000000000815260040162000bb09062002c5f565b60405180910390fd5b6002600181905550600062000bcd62001359565b905062000bdb818362001361565b62000be78183620015ae565b62000bf3818362001ad8565b62000bff818362001adc565b506001808190555050565b60085481565b600460009054906101000a900473ffffffffffffffffffffffffffffffffffffffff1681565b62000c4062001359565b73ffffffffffffffffffffffffffffffffffffffff1662000c6062000e0d565b73ffffffffffffffffffffffffffffffffffffffff161462000cb9576040517f08c379a000000000000000000000000000000000000000000000000000000000815260040162000cb09062002b71565b60405180910390fd5b6000811162000cff576040517f08c379a000000000000000000000000000000000000000000000000000000000815260040162000cf69062002ae9565b60405180910390fd5b60085481111562000d47576040517f08c379a000000000000000000000000000000000000000000000000000000000815260040162000d3e9062002c81565b60405180910390fd5b8060098190555050565b62000d5b62001359565b73ffffffffffffffffffffffffffffffffffffffff1662000d7b62000e0d565b73ffffffffffffffffffffffffffffffffffffffff161462000dd4576040517f08c379a000000000000000000000000000000000000000000000000000000000815260040162000dcb9062002b71565b60405180910390fd5b62000de0600062001ae0565b565b600560009054906101000a900473ffffffffffffffffffffffffffffffffffffffff1681565b606481565b60008060009054906101000a900473ffffffffffffffffffffffffffffffffffffffff16905090565b62000e4062001359565b73ffffffffffffffffffffffffffffffffffffffff1662000e6062000e0d565b73ffffffffffffffffffffffffffffffffffffffff161462000eb9576040517f08c379a000000000000000000000000000000000000000000000000000000000815260040162000eb09062002b71565b60405180910390fd5b600081101562000f00576040517f08c379a000000000000000000000000000000000000000000000000000000000815260040162000ef79062002bb5565b60405180910390fd5b8060038190555050565b6060600b80548060200260200160405190810160405280929190818152602001828054801562000f9057602002820191906000526020600020905b8160009054906101000a900473ffffffffffffffffffffffffffffffffffffffff1673ffffffffffffffffffffffffffffffffffffffff168152602001906001019080831162000f45575b5050505050905090565b606062000fa662001359565b73ffffffffffffffffffffffffffffffffffffffff1662000fc662000e0d565b73ffffffffffffffffffffffffffffffffffffffff16146200101f576040517f08c379a0000000000000000000000000000000000000000000000000000000008152600401620010169062002b71565b60405180910390fd5b6006805480602002602001604051908101604052809291908181526020018280548015620010a357602002820191906000526020600020905b8160009054906101000a900473ffffffffffffffffffffffffffffffffffffffff1673ffffffffffffffffffffffffffffffffffffffff168152602001906001019080831162001058575b5050505050905090565b600a60009054906101000a900473ffffffffffffffffffffffffffffffffffffffff1681565b600c6020528060005260406000206000915090508060000160009054906101000a900473ffffffffffffffffffffffffffffffffffffffff16908060010154905082565b60076020528060005260406000206000915090508060000160009054906101000a900473ffffffffffffffffffffffffffffffffffffffff16908060010160009054906101000a900473ffffffffffffffffffffffffffffffffffffffff16908060020154905083565b6200118b62001359565b73ffffffffffffffffffffffffffffffffffffffff16620011ab62000e0d565b73ffffffffffffffffffffffffffffffffffffffff161462001204576040517f08c379a0000000000000000000000000000000000000000000000000000000008152600401620011fb9062002b71565b60405180910390fd5b600073ffffffffffffffffffffffffffffffffffffffff168173ffffffffffffffffffffffffffffffffffffffff16141562001277576040517f08c379a00000000000000000000000000000000000000000000000000000000081526004016200126e9062002aa5565b60405180910390fd5b620012828162001ae0565b50565b6200128f62001359565b73ffffffffffffffffffffffffffffffffffffffff16620012af62000e0d565b73ffffffffffffffffffffffffffffffffffffffff161462001308576040517f08c379a0000000000000000000000000000000000000000000000000000000008152600401620012ff9062002b71565b60405180910390fd5b60008110156200134f576040517f08c379a0000000000000000000000000000000000000000000000000000000008152600401620013469062002a83565b60405180910390fd5b8060028190555050565b600033905090565b6200136d828262001ba4565b6000600760008473ffffffffffffffffffffffffffffffffffffffff1673ffffffffffffffffffffffffffffffffffffffff1681526020019081526020016000206040518060800160405290816000820160009054906101000a900473ffffffffffffffffffffffffffffffffffffffff1673ffffffffffffffffffffffffffffffffffffffff1673ffffffffffffffffffffffffffffffffffffffff1681526020016001820160009054906101000a900473ffffffffffffffffffffffffffffffffffffffff1673ffffffffffffffffffffffffffffffffffffffff1673ffffffffffffffffffffffffffffffffffffffff1681526020016002820154815260200160038201805480602002602001604051908101604052809291908181526020018280548015620014f657602002820191906000526020600020905b8160009054906101000a900473ffffffffffffffffffffffffffffffffffffffff1673ffffffffffffffffffffffffffffffffffffffff1681526020019060010190808311620014ab575b50505050508152505090506008546200151d83836040015162001d5d90919063ffffffff16565b111562001561576040517f08c379a0000000000000000000000000000000000000000000000000000000008152600401620015589062002b0b565b60405180910390fd5b600954821015620015a9576040517f08c379a0000000000000000000000000000000000000000000000000000000008152600401620015a09062002ac7565b60405180910390fd5b505050565b6000600560009054906101000a900473ffffffffffffffffffffffffffffffffffffffff16834260025460035486604051620015ea906200230a565b620015fb96959493929190620029a1565b604051809103906000f08015801562001618573d6000803e3d6000fd5b5090506000600760008573ffffffffffffffffffffffffffffffffffffffff1673ffffffffffffffffffffffffffffffffffffffff1681526020019081526020016000209050600073ffffffffffffffffffffffffffffffffffffffff168160010160009054906101000a900473ffffffffffffffffffffffffffffffffffffffff1673ffffffffffffffffffffffffffffffffffffffff16146200174357620016d083826002015462001d5d90919063ffffffff16565b816002018190555080600301829080600181540180825580915050600190039060005260206000200160009091909190916101000a81548173ffffffffffffffffffffffffffffffffffffffff021916908373ffffffffffffffffffffffffffffffffffffffff16021790555062001a23565b6040518060800160405280600560009054906101000a900473ffffffffffffffffffffffffffffffffffffffff1673ffffffffffffffffffffffffffffffffffffffff1681526020018573ffffffffffffffffffffffffffffffffffffffff168152602001848152602001600067ffffffffffffffff811115620017f0577f4e487b7100000000000000000000000000000000000000000000000000000000600052604160045260246000fd5b6040519080825280602002602001820160405280156200181f5781602001602082028036833780820191505090505b50815250600760008673ffffffffffffffffffffffffffffffffffffffff1673ffffffffffffffffffffffffffffffffffffffff16815260200190815260200160002060008201518160000160006101000a81548173ffffffffffffffffffffffffffffffffffffffff021916908373ffffffffffffffffffffffffffffffffffffffff16021790555060208201518160010160006101000a81548173ffffffffffffffffffffffffffffffffffffffff021916908373ffffffffffffffffffffffffffffffffffffffff1602179055506040820151816002015560608201518160030190805190602001906200191892919062002318565b50905050600760008573ffffffffffffffffffffffffffffffffffffffff1673ffffffffffffffffffffffffffffffffffffffff168152602001908152602001600020600301829080600181540180825580915050600190039060005260206000200160009091909190916101000a81548173ffffffffffffffffffffffffffffffffffffffff021916908373ffffffffffffffffffffffffffffffffffffffff1602179055506006849080600181540180825580915050600190039060005260206000200160009091909190916101000a81548173ffffffffffffffffffffffffffffffffffffffff021916908373ffffffffffffffffffffffffffffffffffffffff1602179055505b62001a74848385600560009054906101000a900473ffffffffffffffffffffffffffffffffffffffff1673ffffffffffffffffffffffffffffffffffffffff1662001d75909392919063ffffffff16565b8373ffffffffffffffffffffffffffffffffffffffff167f5aa982582ddcda688337e649ad820fb4b97913b8970365b591ad0d898c0e9dce848460405162001abe92919062002d04565b60405180910390a262001ad2828462001e02565b50505050565b5050565b5050565b60008060009054906101000a900473ffffffffffffffffffffffffffffffffffffffff169050816000806101000a81548173ffffffffffffffffffffffffffffffffffffffff021916908373ffffffffffffffffffffffffffffffffffffffff1602179055508173ffffffffffffffffffffffffffffffffffffffff168173ffffffffffffffffffffffffffffffffffffffff167f8be0079c531659141344cd1fd0a4f28419497f9722a3daafe3b4186f6b6457e060405160405180910390a35050565b600073ffffffffffffffffffffffffffffffffffffffff168273ffffffffffffffffffffffffffffffffffffffff16141562001c17576040517f08c379a000000000000000000000000000000000000000000000000000000000815260040162001c0e9062002ca3565b60405180910390fd5b6000811162001c5d576040517f08c379a000000000000000000000000000000000000000000000000000000000815260040162001c549062002cc5565b60405180910390fd5b6000600560009054906101000a900473ffffffffffffffffffffffffffffffffffffffff1673ffffffffffffffffffffffffffffffffffffffff166370a08231846040518263ffffffff1660e01b815260040162001cbc91906200292a565b60206040518083038186803b15801562001cd557600080fd5b505afa15801562001cea573d6000803e3d6000fd5b505050506040513d601f19601f8201168201806040525081019062001d109190620024e7565b90508082111562001d58576040517f08c379a000000000000000000000000000000000000000000000000000000000815260040162001d4f9062002b4f565b60405180910390fd5b505050565b6000818362001d6d919062002d9c565b905092915050565b62001dfc846323b872dd60e01b85858560405160240162001d999392919062002964565b604051602081830303815290604052907bffffffffffffffffffffffffffffffffffffffffffffffffffffffff19166020820180517bffffffffffffffffffffffffffffffffffffffffffffffffffffffff838183161783525050505062001f6a565b50505050565b6000600b80549050111562001f665760005b600b8054905081101562001f6457600062001e95600b838154811062001e63577f4e487b7100000000000000000000000000000000000000000000000000000000600052603260045260246000fd5b9060005260206000200160009054906101000a900473ffffffffffffffffffffffffffffffffffffffff168462002039565b905062001f4d600a60009054906101000a900473ffffffffffffffffffffffffffffffffffffffff168583600b868154811062001efb577f4e487b7100000000000000000000000000000000000000000000000000000000600052603260045260246000fd5b9060005260206000200160009054906101000a900473ffffffffffffffffffffffffffffffffffffffff1673ffffffffffffffffffffffffffffffffffffffff1662001d75909392919063ffffffff16565b50808062001f5b9062002f26565b91505062001e14565b505b5050565b600062001fce826040518060400160405280602081526020017f5361666545524332303a206c6f772d6c6576656c2063616c6c206661696c65648152508573ffffffffffffffffffffffffffffffffffffffff166200211f9092919063ffffffff16565b905060008151111562002034578080602001905181019062001ff191906200248f565b62002033576040517f08c379a00000000000000000000000000000000000000000000000000000000081526004016200202a9062002c3d565b60405180910390fd5b5b505050565b600080600c60008573ffffffffffffffffffffffffffffffffffffffff1673ffffffffffffffffffffffffffffffffffffffff1681526020019081526020016000206040518060400160405290816000820160009054906101000a900473ffffffffffffffffffffffffffffffffffffffff1673ffffffffffffffffffffffffffffffffffffffff1673ffffffffffffffffffffffffffffffffffffffff1681526020016001820154815250509050620021166064620021078360200151866200213990919063ffffffff16565b6200215190919063ffffffff16565b91505092915050565b606062002130848460008562002169565b90509392505050565b6000818362002149919062002e31565b905092915050565b6000818362002161919062002df9565b905092915050565b606082471015620021b1576040517f08c379a0000000000000000000000000000000000000000000000000000000008152600401620021a89062002b2d565b60405180910390fd5b620021bc856200228b565b620021fe576040517f08c379a0000000000000000000000000000000000000000000000000000000008152600401620021f59062002bf9565b60405180910390fd5b6000808673ffffffffffffffffffffffffffffffffffffffff16858760405162002229919062002911565b60006040518083038185875af1925050503d806000811462002268576040519150601f19603f3d011682016040523d82523d6000602084013e6200226d565b606091505b50915091506200227f8282866200229e565b92505050949350505050565b600080823b905060008111915050919050565b60608315620022b05782905062002303565b600083511115620022c45782518084602001fd5b816040517f08c379a0000000000000000000000000000000000000000000000000000000008152600401620022fa919062002a5f565b60405180910390fd5b9392505050565b611ae3806200359a83390190565b82805482825590600052602060002090810192821562002394579160200282015b82811115620023935782518260006101000a81548173ffffffffffffffffffffffffffffffffffffffff021916908373ffffffffffffffffffffffffffffffffffffffff1602179055509160200191906001019062002339565b5b509050620023a39190620023a7565b5090565b5b80821115620023c2576000816000905550600101620023a8565b5090565b600081359050620023d7816200354b565b92915050565b600081519050620023ee8162003565565b92915050565b60008135905062002405816200357f565b92915050565b6000815190506200241c816200357f565b92915050565b6000602082840312156200243557600080fd5b60006200244584828501620023c6565b91505092915050565b600080604083850312156200246257600080fd5b60006200247285828601620023c6565b92505060206200248585828601620023f4565b9150509250929050565b600060208284031215620024a257600080fd5b6000620024b284828501620023dd565b91505092915050565b600060208284031215620024ce57600080fd5b6000620024de84828501620023f4565b91505092915050565b600060208284031215620024fa57600080fd5b60006200250a848285016200240b565b91505092915050565b60006200252183836200253e565b60208301905092915050565b620025388162002ea6565b82525050565b620025498162002e92565b82525050565b6200255a8162002e92565b82525050565b60006200256d8262002d41565b62002579818562002d6f565b9350620025868362002d31565b8060005b83811015620025bd578151620025a1888262002513565b9750620025ae8362002d62565b9250506001810190506200258a565b5085935050505092915050565b6000620025d78262002d4c565b620025e3818562002d80565b9350620025f581856020860162002ef0565b80840191505092915050565b60006200260e8262002d57565b6200261a818562002d8b565b93506200262c81856020860162002ef0565b620026378162002fd2565b840191505092915050565b60006200265160288362002d8b565b91506200265e8262002fe3565b604082019050919050565b60006200267860268362002d8b565b9150620026858262003032565b604082019050919050565b60006200269f60478362002d8b565b9150620026ac8262003081565b606082019050919050565b6000620026c6603a8362002d8b565b9150620026d382620030f6565b604082019050919050565b6000620026ed60278362002d8b565b9150620026fa8262003145565b604082019050919050565b60006200271460268362002d8b565b9150620027218262003194565b604082019050919050565b60006200273b60328362002d8b565b91506200274882620031e3565b604082019050919050565b60006200276260208362002d8b565b91506200276f8262003232565b602082019050919050565b600062002789602d8362002d8b565b915062002796826200325b565b604082019050919050565b6000620027b0602e8362002d8b565b9150620027bd82620032aa565b604082019050919050565b6000620027d760278362002d8b565b9150620027e482620032f9565b604082019050919050565b6000620027fe601d8362002d8b565b91506200280b8262003348565b602082019050919050565b60006200282560538362002d8b565b9150620028328262003371565b606082019050919050565b60006200284c602a8362002d8b565b91506200285982620033e6565b604082019050919050565b600062002873601f8362002d8b565b9150620028808262003435565b602082019050919050565b60006200289a604f8362002d8b565b9150620028a7826200345e565b606082019050919050565b6000620028c160288362002d8b565b9150620028ce82620034d3565b604082019050919050565b6000620028e8601f8362002d8b565b9150620028f58262003522565b602082019050919050565b6200290b8162002ee6565b82525050565b60006200291f8284620025ca565b915081905092915050565b60006020820190506200294160008301846200254f565b92915050565b60006020820190506200295e60008301846200252d565b92915050565b60006060820190506200297b60008301866200254f565b6200298a60208301856200254f565b62002999604083018462002900565b949350505050565b600060c082019050620029b860008301896200254f565b620029c760208301886200254f565b620029d6604083018762002900565b620029e5606083018662002900565b620029f4608083018562002900565b62002a0360a083018462002900565b979650505050505050565b600060408201905062002a2560008301856200254f565b62002a34602083018462002900565b9392505050565b6000602082019050818103600083015262002a57818462002560565b905092915050565b6000602082019050818103600083015262002a7b818462002601565b905092915050565b6000602082019050818103600083015262002a9e8162002642565b9050919050565b6000602082019050818103600083015262002ac08162002669565b9050919050565b6000602082019050818103600083015262002ae28162002690565b9050919050565b6000602082019050818103600083015262002b0481620026b7565b9050919050565b6000602082019050818103600083015262002b2681620026de565b9050919050565b6000602082019050818103600083015262002b488162002705565b9050919050565b6000602082019050818103600083015262002b6a816200272c565b9050919050565b6000602082019050818103600083015262002b8c8162002753565b9050919050565b6000602082019050818103600083015262002bae816200277a565b9050919050565b6000602082019050818103600083015262002bd081620027a1565b9050919050565b6000602082019050818103600083015262002bf281620027c8565b9050919050565b6000602082019050818103600083015262002c1481620027ef565b9050919050565b6000602082019050818103600083015262002c368162002816565b9050919050565b6000602082019050818103600083015262002c58816200283d565b9050919050565b6000602082019050818103600083015262002c7a8162002864565b9050919050565b6000602082019050818103600083015262002c9c816200288b565b9050919050565b6000602082019050818103600083015262002cbe81620028b2565b9050919050565b6000602082019050818103600083015262002ce081620028d9565b9050919050565b600060208201905062002cfe600083018462002900565b92915050565b600060408201905062002d1b600083018562002900565b62002d2a60208301846200254f565b9392505050565b6000819050602082019050919050565b600081519050919050565b600081519050919050565b600081519050919050565b6000602082019050919050565b600082825260208201905092915050565b600081905092915050565b600082825260208201905092915050565b600062002da98262002ee6565b915062002db68362002ee6565b9250827fffffffffffffffffffffffffffffffffffffffffffffffffffffffffffffffff0382111562002dee5762002ded62002f74565b5b828201905092915050565b600062002e068262002ee6565b915062002e138362002ee6565b92508262002e265762002e2562002fa3565b5b828204905092915050565b600062002e3e8262002ee6565b915062002e4b8362002ee6565b9250817fffffffffffffffffffffffffffffffffffffffffffffffffffffffffffffffff048311821515161562002e875762002e8662002f74565b5b828202905092915050565b600062002e9f8262002ec6565b9050919050565b600062002eb38262002ec6565b9050919050565b60008115159050919050565b600073ffffffffffffffffffffffffffffffffffffffff82169050919050565b6000819050919050565b60005b8381101562002f1057808201518184015260208101905062002ef3565b8381111562002f20576000848401525b50505050565b600062002f338262002ee6565b91507fffffffffffffffffffffffffffffffffffffffffffffffffffffffffffffffff82141562002f695762002f6862002f74565b5b600182019050919050565b7f4e487b7100000000000000000000000000000000000000000000000000000000600052601160045260246000fd5b7f4e487b7100000000000000000000000000000000000000000000000000000000600052601260045260246000fd5b6000601f19601f8301169050919050565b7f5374616b696e674c696d69743a206475726174696f6e2069732067726561746560008201527f72207468616e2030000000000000000000000000000000000000000000000000602082015250565b7f4f776e61626c653a206e6577206f776e657220697320746865207a65726f206160008201527f6464726573730000000000000000000000000000000000000000000000000000602082015250565b7f5374616b696e674c696d69743a20546865206d696e696d756d207374616b696e60008201527f6720616d6f756e7420646f6573206e6f74206d6565742074686520726571756960208201527f72656d656e747300000000000000000000000000000000000000000000000000604082015250565b7f5374616b696e674c696d69743a20546865206d696e696d756d207374616b696e60008201527f6720616d6f756e742069732067726561746572207468616e2030000000000000602082015250565b7f5374616b696e674c696d69743a206d61785374616b696e67416d6f756e74206560008201527f7863656564656400000000000000000000000000000000000000000000000000602082015250565b7f416464726573733a20696e73756666696369656e742062616c616e636520666f60008201527f722063616c6c0000000000000000000000000000000000000000000000000000602082015250565b7f5374616b696e67546f6b656e3a20546865207374616b6564416d6f756e74206560008201527f786365656473207468652062616c616e63650000000000000000000000000000602082015250565b7f4f776e61626c653a2063616c6c6572206973206e6f7420746865206f776e6572600082015250565b7f5374616b696e674c696d69743a2072617465206973206772656174657220746860008201527f616e206f7220657175616c203000000000000000000000000000000000000000602082015250565b7f5374616b696e674c696d69743a207374616765436c696666556e69742069732060008201527f67726561746572207468616e2030000000000000000000000000000000000000602082015250565b7f5374616b696e674c696d69743a20746f6b656e20697320746865207a65726f2060008201527f6164647265737300000000000000000000000000000000000000000000000000602082015250565b7f416464726573733a2063616c6c20746f206e6f6e2d636f6e7472616374000000600082015250565b7f5374616b696e674c696d69743a20546865206d6178696d756d207374616b696e60008201527f6720616d6f756e742069732067726561746572207468616e20746865206d696e60208201527f696d756d207374616b696e6720616d6f756e7400000000000000000000000000604082015250565b7f5361666545524332303a204552433230206f7065726174696f6e20646964206e60008201527f6f74207375636365656400000000000000000000000000000000000000000000602082015250565b7f5265656e7472616e637947756172643a207265656e7472616e742063616c6c00600082015250565b7f5374616b696e674c696d69743a20546865206d696e696d756d207374616b696e60008201527f6720616d6f756e74206d757374206265206c657373207468616e20746865206d60208201527f61785374616b696e67416d6f756e740000000000000000000000000000000000604082015250565b7f5374616b696e67546f6b656e3a207374616b657220697320746865207a65726f60008201527f2061646472657373000000000000000000000000000000000000000000000000602082015250565b7f5374616b696e67546f6b656e3a207374616b6564416d6f756e74206973203000600082015250565b620035568162002e92565b81146200356257600080fd5b50565b620035708162002eba565b81146200357c57600080fd5b50565b6200358a8162002ee6565b81146200359657600080fd5b5056fe608060405260646006553480156200001657600080fd5b5060405162001ae338038062001ae383398181016040528101906200003c91906200032f565b6200005c620000506200021d60201b60201c565b6200022560201b60201c565b600073ffffffffffffffffffffffffffffffffffffffff168573ffffffffffffffffffffffffffffffffffffffff161415620000cf576040517f08c379a0000000000000000000000000000000000000000000000000000000008152600401620000c6906200045c565b60405180910390fd5b42620000ea8486620002e960201b620006631790919060201c565b116200012d576040517f08c379a000000000000000000000000000000000000000000000000000000000815260040162000124906200043a565b60405180910390fd5b8183101562000173576040517f08c379a00000000000000000000000000000000000000000000000000000000081526004016200016a906200047e565b60405180910390fd5b85600160006101000a81548173ffffffffffffffffffffffffffffffffffffffff021916908373ffffffffffffffffffffffffffffffffffffffff16021790555084600260006101000a81548173ffffffffffffffffffffffffffffffffffffffff021916908373ffffffffffffffffffffffffffffffffffffffff160217905550836003819055508260048190555081600581905550806007819055505050505050506200069c565b600033905090565b60008060009054906101000a900473ffffffffffffffffffffffffffffffffffffffff169050816000806101000a81548173ffffffffffffffffffffffffffffffffffffffff021916908373ffffffffffffffffffffffffffffffffffffffff1602179055508173ffffffffffffffffffffffffffffffffffffffff168173ffffffffffffffffffffffffffffffffffffffff167f8be0079c531659141344cd1fd0a4f28419497f9722a3daafe3b4186f6b6457e060405160405180910390a35050565b60008183620002f99190620004b1565b905092915050565b600081519050620003128162000668565b92915050565b600081519050620003298162000682565b92915050565b60008060008060008060c087890312156200034957600080fd5b60006200035989828a0162000301565b96505060206200036c89828a0162000301565b95505060406200037f89828a0162000318565b94505060606200039289828a0162000318565b9350506080620003a589828a0162000318565b92505060a0620003b889828a0162000318565b9150509295509295509295565b6000620003d4602f83620004a0565b9150620003e1826200057b565b604082019050919050565b6000620003fb602883620004a0565b91506200040882620005ca565b604082019050919050565b600062000422602e83620004a0565b91506200042f8262000619565b604082019050919050565b600060208201905081810360008301526200045581620003c5565b9050919050565b600060208201905081810360008301526200047781620003ec565b9050919050565b60006020820190508181036000830152620004998162000413565b9050919050565b600082825260208201905092915050565b6000620004be8262000542565b9150620004cb8362000542565b9250827fffffffffffffffffffffffffffffffffffffffffffffffffffffffffffffffff038211156200050357620005026200054c565b5b828201905092915050565b60006200051b8262000522565b9050919050565b600073ffffffffffffffffffffffffffffffffffffffff82169050919050565b6000819050919050565b7f4e487b7100000000000000000000000000000000000000000000000000000000600052601160045260246000fd5b7f546f6b656e56657374696e673a2066696e616c2074696d65206973206265666f60008201527f72652063757272656e742074696d650000000000000000000000000000000000602082015250565b7f546f6b656e56657374696e673a207374616b657220697320746865207a65726f60008201527f2061646472657373000000000000000000000000000000000000000000000000602082015250565b7f546f6b656e56657374696e673a20506572696f6420697320677265617465722060008201527f7468616e20756e69742074696d65000000000000000000000000000000000000602082015250565b62000673816200050e565b81146200067f57600080fd5b50565b6200068d8162000542565b81146200069957600080fd5b50565b61143780620006ac6000396000f3fe608060405234801561001057600080fd5b50600436106100cf5760003560e01c80635ebaf1db1161008c5780638da5cb5b116100665780638da5cb5b146101de5780639852595c146101fc578063be9a65551461022c578063f2fde38b1461024a576100cf565b80635ebaf1db14610198578063715018a6146101b657806372f702f3146101c0576100cf565b80630fb5a6b4146100d45780631726cbc8146100f2578063191655871461012257806322ac3f501461013e578063373d61321461015c5780633a98ef391461017a575b600080fd5b6100dc610266565b6040516100e99190610ff0565b60405180910390f35b61010c60048036038101906101079190610d07565b61026c565b6040516101199190610ff0565b60405180910390f35b61013c60048036038101906101379190610d07565b6102cf565b005b61014661043e565b6040516101539190610ff0565b60405180910390f35b610164610444565b6040516101719190610ff0565b60405180910390f35b61018261044a565b60405161018f9190610ff0565b60405180910390f35b6101a0610450565b6040516101ad9190610eca565b60405180910390f35b6101be610476565b005b6101c86104fe565b6040516101d59190610eca565b60405180910390f35b6101e6610524565b6040516101f39190610eca565b60405180910390f35b61021660048036038101906102119190610cb5565b61054d565b6040516102239190610ff0565b60405180910390f35b610234610565565b6040516102419190610ff0565b60405180910390f35b610264600480360381019061025f9190610cb5565b61056b565b005b60045481565b60006102c8600860008473ffffffffffffffffffffffffffffffffffffffff1673ffffffffffffffffffffffffffffffffffffffff168152602001908152602001600020546102ba84610679565b61087690919063ffffffff16565b9050919050565b60006102da8261026c565b90506000811161031f576040517f08c379a000000000000000000000000000000000000000000000000000000000815260040161031690610f50565b60405180910390fd5b61037181600860008573ffffffffffffffffffffffffffffffffffffffff1673ffffffffffffffffffffffffffffffffffffffff1681526020019081526020016000205461066390919063ffffffff16565b600860008473ffffffffffffffffffffffffffffffffffffffff1673ffffffffffffffffffffffffffffffffffffffff16815260200190815260200160002081905550610401600260009054906101000a900473ffffffffffffffffffffffffffffffffffffffff16828473ffffffffffffffffffffffffffffffffffffffff1661088c9092919063ffffffff16565b7fc7798891864187665ac6dd119286e44ec13f014527aeeb2b8eb3fd413df931798282604051610432929190610ee5565b60405180910390a15050565b60055481565b60075481565b60065481565b600260009054906101000a900473ffffffffffffffffffffffffffffffffffffffff1681565b61047e610912565b73ffffffffffffffffffffffffffffffffffffffff1661049c610524565b73ffffffffffffffffffffffffffffffffffffffff16146104f2576040517f08c379a00000000000000000000000000000000000000000000000000000000081526004016104e990610f90565b60405180910390fd5b6104fc600061091a565b565b600160009054906101000a900473ffffffffffffffffffffffffffffffffffffffff1681565b60008060009054906101000a900473ffffffffffffffffffffffffffffffffffffffff16905090565b60086020528060005260406000206000915090505481565b60035481565b610573610912565b73ffffffffffffffffffffffffffffffffffffffff16610591610524565b73ffffffffffffffffffffffffffffffffffffffff16146105e7576040517f08c379a00000000000000000000000000000000000000000000000000000000081526004016105de90610f90565b60405180910390fd5b600073ffffffffffffffffffffffffffffffffffffffff168173ffffffffffffffffffffffffffffffffffffffff161415610657576040517f08c379a000000000000000000000000000000000000000000000000000000000815260040161064e90610f30565b60405180910390fd5b6106608161091a565b50565b60008183610671919061103d565b905092915050565b6000808273ffffffffffffffffffffffffffffffffffffffff166370a08231306040518263ffffffff1660e01b81526004016106b59190610eca565b60206040518083038186803b1580156106cd57600080fd5b505afa1580156106e1573d6000803e3d6000fd5b505050506040513d601f19601f820116820180604052508101906107059190610d30565b9050600061075b600860008673ffffffffffffffffffffffffffffffffffffffff1673ffffffffffffffffffffffffffffffffffffffff168152602001908152602001600020548361066390919063ffffffff16565b905061077460045460035461066390919063ffffffff16565b4210610784578092505050610871565b6000600160009054906101000a900473ffffffffffffffffffffffffffffffffffffffff1673ffffffffffffffffffffffffffffffffffffffff168573ffffffffffffffffffffffffffffffffffffffff161461086a576000600354905060006107fb6005546004546109de90919063ffffffff16565b905060005b818110156108665761081d6005548461066390919063ffffffff16565b92504283111561082c57610866565b61085161084283876109de90919063ffffffff16565b8561066390919063ffffffff16565b9350808061085e90611185565b915050610800565b5050505b8093505050505b919050565b6000818361088491906110c4565b905092915050565b61090d8363a9059cbb60e01b84846040516024016108ab929190610ee5565b604051602081830303815290604052907bffffffffffffffffffffffffffffffffffffffffffffffffffffffff19166020820180517bffffffffffffffffffffffffffffffffffffffffffffffffffffffff83818316178352505050506109f4565b505050565b600033905090565b60008060009054906101000a900473ffffffffffffffffffffffffffffffffffffffff169050816000806101000a81548173ffffffffffffffffffffffffffffffffffffffff021916908373ffffffffffffffffffffffffffffffffffffffff1602179055508173ffffffffffffffffffffffffffffffffffffffff168173ffffffffffffffffffffffffffffffffffffffff167f8be0079c531659141344cd1fd0a4f28419497f9722a3daafe3b4186f6b6457e060405160405180910390a35050565b600081836109ec9190611093565b905092915050565b6000610a56826040518060400160405280602081526020017f5361666545524332303a206c6f772d6c6576656c2063616c6c206661696c65648152508573ffffffffffffffffffffffffffffffffffffffff16610abb9092919063ffffffff16565b9050600081511115610ab65780806020019051810190610a769190610cde565b610ab5576040517f08c379a0000000000000000000000000000000000000000000000000000000008152600401610aac90610fd0565b60405180910390fd5b5b505050565b6060610aca8484600085610ad3565b90509392505050565b606082471015610b18576040517f08c379a0000000000000000000000000000000000000000000000000000000008152600401610b0f90610f70565b60405180910390fd5b610b2185610be7565b610b60576040517f08c379a0000000000000000000000000000000000000000000000000000000008152600401610b5790610fb0565b60405180910390fd5b6000808673ffffffffffffffffffffffffffffffffffffffff168587604051610b899190610eb3565b60006040518083038185875af1925050503d8060008114610bc6576040519150601f19603f3d011682016040523d82523d6000602084013e610bcb565b606091505b5091509150610bdb828286610bfa565b92505050949350505050565b600080823b905060008111915050919050565b60608315610c0a57829050610c5a565b600083511115610c1d5782518084602001fd5b816040517f08c379a0000000000000000000000000000000000000000000000000000000008152600401610c519190610f0e565b60405180910390fd5b9392505050565b600081359050610c70816113a5565b92915050565b600081519050610c85816113bc565b92915050565b600081359050610c9a816113d3565b92915050565b600081519050610caf816113ea565b92915050565b600060208284031215610cc757600080fd5b6000610cd584828501610c61565b91505092915050565b600060208284031215610cf057600080fd5b6000610cfe84828501610c76565b91505092915050565b600060208284031215610d1957600080fd5b6000610d2784828501610c8b565b91505092915050565b600060208284031215610d4257600080fd5b6000610d5084828501610ca0565b91505092915050565b610d62816110f8565b82525050565b6000610d738261100b565b610d7d8185611021565b9350610d8d818560208601611152565b80840191505092915050565b6000610da482611016565b610dae818561102c565b9350610dbe818560208601611152565b610dc78161122c565b840191505092915050565b6000610ddf60268361102c565b9150610dea8261123d565b604082019050919050565b6000610e02601f8361102c565b9150610e0d8261128c565b602082019050919050565b6000610e2560268361102c565b9150610e30826112b5565b604082019050919050565b6000610e4860208361102c565b9150610e5382611304565b602082019050919050565b6000610e6b601d8361102c565b9150610e768261132d565b602082019050919050565b6000610e8e602a8361102c565b9150610e9982611356565b604082019050919050565b610ead81611148565b82525050565b6000610ebf8284610d68565b915081905092915050565b6000602082019050610edf6000830184610d59565b92915050565b6000604082019050610efa6000830185610d59565b610f076020830184610ea4565b9392505050565b60006020820190508181036000830152610f288184610d99565b905092915050565b60006020820190508181036000830152610f4981610dd2565b9050919050565b60006020820190508181036000830152610f6981610df5565b9050919050565b60006020820190508181036000830152610f8981610e18565b9050919050565b60006020820190508181036000830152610fa981610e3b565b9050919050565b60006020820190508181036000830152610fc981610e5e565b9050919050565b60006020820190508181036000830152610fe981610e81565b9050919050565b60006020820190506110056000830184610ea4565b92915050565b600081519050919050565b600081519050919050565b600081905092915050565b600082825260208201905092915050565b600061104882611148565b915061105383611148565b9250827fffffffffffffffffffffffffffffffffffffffffffffffffffffffffffffffff03821115611088576110876111ce565b5b828201905092915050565b600061109e82611148565b91506110a983611148565b9250826110b9576110b86111fd565b5b828204905092915050565b60006110cf82611148565b91506110da83611148565b9250828210156110ed576110ec6111ce565b5b828203905092915050565b600061110382611128565b9050919050565b60008115159050919050565b6000611121826110f8565b9050919050565b600073ffffffffffffffffffffffffffffffffffffffff82169050919050565b6000819050919050565b60005b83811015611170578082015181840152602081019050611155565b8381111561117f576000848401525b50505050565b600061119082611148565b91507fffffffffffffffffffffffffffffffffffffffffffffffffffffffffffffffff8214156111c3576111c26111ce565b5b600182019050919050565b7f4e487b7100000000000000000000000000000000000000000000000000000000600052601160045260246000fd5b7f4e487b7100000000000000000000000000000000000000000000000000000000600052601260045260246000fd5b6000601f19601f8301169050919050565b7f4f776e61626c653a206e6577206f776e657220697320746865207a65726f206160008201527f6464726573730000000000000000000000000000000000000000000000000000602082015250565b7f546f6b656e56657374696e673a206e6f20746f6b656e73206172652064756500600082015250565b7f416464726573733a20696e73756666696369656e742062616c616e636520666f60008201527f722063616c6c0000000000000000000000000000000000000000000000000000602082015250565b7f4f776e61626c653a2063616c6c6572206973206e6f7420746865206f776e6572600082015250565b7f416464726573733a2063616c6c20746f206e6f6e2d636f6e7472616374000000600082015250565b7f5361666545524332303a204552433230206f7065726174696f6e20646964206e60008201527f6f74207375636365656400000000000000000000000000000000000000000000602082015250565b6113ae816110f8565b81146113b957600080fd5b50565b6113c58161110a565b81146113d057600080fd5b50565b6113dc81611116565b81146113e757600080fd5b50565b6113f381611148565b81146113fe57600080fd5b5056fea2646970667358221220a78a07d52310102441d133ac7dc420098052a9918bcc8263ae89d9f1bf12184964736f6c63430008040033a26469706673582212206419f7362d3707c5c29c6ca5ef9a969fdeb6b6aa2da80c976ca17c5947521d7164736f6c63430008040033",
  "immutableReferences": {},
  "source": "// SPDX-License-Identifier: MIT\npragma solidity ^0.8.0;\n\nimport \"@openzeppelin/contracts/access/Ownable.sol\";\nimport \"@openzeppelin/contracts/utils/math/SafeMath.sol\";\nimport \"@openzeppelin/contracts/token/ERC20/IERC20.sol\";\nimport \"@openzeppelin/contracts/utils/math/Math.sol\";\nimport \"@openzeppelin/contracts/token/ERC20/utils/SafeERC20.sol\";\nimport \"./Staking/StakingToken.sol\";\n\ncontract StakingLimit is Ownable, StakingToken {\n    using SafeMath for uint256;\n    using SafeERC20 for IERC20;\n\n    // Rate Denominator\n    uint256 public constant rateDenominator = 100;\n    // Max Stake Amount\n    uint256 public maxStakingAmount;\n    // Min Stake Amount\n    uint256 public minStakingAmount;\n    // Token Wallet, token out address\n    address public tokenWallet;\n    // rewards rate list\n    address[] public rewardsTokenList;\n    // rewards rate info struct\n    struct RewardsRateInfo {\n        address rewardsToken;\n        uint256 rewardsRate;\n    }\n    // Token rewards rate List\n    mapping(address => RewardsRateInfo) public rewardsRateInfoList;\n\n    /********** constructor contract *********/\n    constructor(\n        address _stakingToken, // staking token address\n        address _tokenWallet, // token out address wallet\n        address payable _wallet, // receive token address wallet\n        uint256 _duration, // duration\n        uint256 _stageCliffUnit,\n        uint256 _maxStakingAmount,\n        uint256 _minStakingAmount\n    )\n        StakingToken(_wallet, _stakingToken, _duration, _stageCliffUnit) {\n        require(_tokenWallet != address(0), \"StakingLimit: token wallet is the zero address\");\n        require(_minStakingAmount > 0, \"StakingLimit: The minimum staking amount is greater than 0\");\n        require(_maxStakingAmount >= _minStakingAmount, \"StakingLimit: The maximum staking amount is greater than the minimum staking amount\");\n\n        tokenWallet = _tokenWallet;\n        maxStakingAmount = _maxStakingAmount;\n        minStakingAmount = _minStakingAmount;\n    }\n\n    /********** Owner Functions *********/\n    // set duration\n    function setDuration(uint256 _duration) public onlyOwner {\n        require(_duration >= 0, 'StakingLimit: duration is greater than 0');\n        duration = _duration;\n    }\n    // set Interval Duration\n    function setStageCliffUnit(uint256 timeUnit) public onlyOwner {\n        require(timeUnit >= 0, 'StakingLimit: stageCliffUnit is greater than 0');\n        stageCliffUnit = timeUnit;\n    }\n    // set max staking amount\n    function setMaxStakingAmount(uint256 amount) public onlyOwner {\n        require(amount >= minStakingAmount, \"StakingLimit: The maximum staking amount is greater than the minimum staking amount\");\n        maxStakingAmount = amount;\n    }\n    // set min staking amount\n    function setMinStakingAmount(uint256 amount) public onlyOwner {\n        require(amount > 0, \"StakingLimit: The minimum staking amount is greater than 0\");\n        require(amount <= maxStakingAmount, \"StakingLimit: The minimum staking amount must be less than the maxStakingAmount\");\n        minStakingAmount = amount;\n    }\n    // set rewards rate\n    function setRewardsRate(address token, uint256 rate) public onlyOwner {\n        require(token != address(0), \"StakingLimit: token is the zero address\");\n        require(rate >= 0, 'StakingLimit: rate is greater than or equal 0');\n        RewardsRateInfo storage info = rewardsRateInfoList[token];\n        if (info.rewardsToken != address(0)) {\n            info.rewardsRate = rate;\n        } else {\n            rewardsRateInfoList[token] = RewardsRateInfo({\n                rewardsToken: token,\n                rewardsRate: rate\n            });\n            rewardsTokenList.push(token);\n        }\n    }\n\n    /********** Validate Amount *********/\n    // validate staked amount\n    function _preValidateStake(address staker, uint256 stakedAmount) internal override view {\n        super._preValidateStake(staker, stakedAmount);\n        TokenVestingInfo memory info = tokenVestingList[staker];\n        require(info.stakedAmount.add(stakedAmount) <= maxStakingAmount, \"StakingLimit: maxStakingAmount exceeded\");\n        require(stakedAmount >= minStakingAmount, 'StakingLimit: The minimum staking amount does not meet the requirements');\n    }\n\n    // calc rate receive amount\n    function _getOutTokenAmount(address rewardsToken, uint256 stakedAmount) internal view returns (uint256) {\n        RewardsRateInfo memory info = rewardsRateInfoList[rewardsToken];\n        return stakedAmount.mul(info.rewardsRate).div(rateDenominator);\n    }\n\n    /********** User Functions *********/\n    // exec\n    function _deliverTokens(address vestingToken, uint256 stakedAmount) internal override {\n        if (rewardsTokenList.length > 0) {\n            for (uint256 i = 0; i < rewardsTokenList.length; i++) {\n                uint256 receivedAmount = _getOutTokenAmount(rewardsTokenList[i], stakedAmount);\n                // rewards token transfer to vesting contract\n                IERC20(rewardsTokenList[i]).safeTransferFrom(tokenWallet, vestingToken, receivedAmount);\n            }\n        }\n    }\n\n    /********** Query Functions *********/\n    /**\n     * @dev get _stakerMemberList\n     */\n    function getStakerMemberList() public onlyOwner view returns (address[] memory) {\n        return _stakerMemberList;\n    }\n\n    /**\n     * @dev get rewardsTokenList\n     */\n    function getRewardsTokenList() public view returns (address[] memory) {\n        return rewardsTokenList;\n    }\n\n    /**\n     * @dev get vestingAddress list from the tokenVestingList\n     */\n    function getTokenVestingAddressByAccount(address account) public view returns (address[] memory) {\n        TokenVestingInfo storage info = tokenVestingList[account];\n        return info.vestingAddress;\n    }\n}\n",
  "sourcePath": "/Users/blues/Workspaces/DaoswapDex/daoswapdex-heco-testnet/core-staking/contracts/StakingLimit.sol",
  "compiler": {
    "name": "solc",
    "version": "0.8.4+commit.c7e474f2.Emscripten.clang"
  },
  "schemaVersion": "3.4.3",
  "updatedAt": "2021-12-20T06:06:47.498Z",
  "networkType": "ethereum",
  "devdoc": {
    "kind": "dev",
    "methods": {
      "getRewardsTokenList()": {
        "details": "get rewardsTokenList"
      },
      "getStakerMemberList()": {
        "details": "get _stakerMemberList"
      },
      "getTokenVestingAddressByAccount(address)": {
        "details": "get vestingAddress list from the tokenVestingList"
      },
      "owner()": {
        "details": "Returns the address of the current owner."
      },
      "renounceOwnership()": {
        "details": "Leaves the contract without owner. It will not be possible to call `onlyOwner` functions anymore. Can only be called by the current owner. NOTE: Renouncing ownership will leave the contract without an owner, thereby removing any functionality that is only available to the owner."
      },
      "transferOwnership(address)": {
        "details": "Transfers ownership of the contract to a new account (`newOwner`). Can only be called by the current owner."
      }
    },
    "version": 1
  },
  "userdoc": {
    "events": {
      "TokensStake(address,uint256,address)": {
        "notice": "Event for token stake logging"
      }
    },
    "kind": "user",
    "methods": {},
    "version": 1
  }
}