{
  "contractName": "TokenVestingBurnForging",
  "abi": [
    {
      "inputs": [
        {
          "internalType": "address",
          "name": "_burner",
          "type": "address"
        },
        {
          "internalType": "uint256",
          "name": "_start",
          "type": "uint256"
        },
        {
          "internalType": "uint256",
          "name": "_duration",
          "type": "uint256"
        },
        {
          "internalType": "uint256",
          "name": "_stageCliffUnit",
          "type": "uint256"
        },
        {
          "internalType": "uint256",
          "name": "_burnedAmount",
          "type": "uint256"
        },
        {
          "internalType": "uint256",
          "name": "_receiveAmount",
          "type": "uint256"
        }
      ],
      "stateMutability": "nonpayable",
      "type": "constructor"
    },
    {
      "anonymous": false,
      "inputs": [
        {
          "indexed": true,
          "internalType": "address",
          "name": "previousOwner",
          "type": "address"
        },
        {
          "indexed": true,
          "internalType": "address",
          "name": "newOwner",
          "type": "address"
        }
      ],
      "name": "OwnershipTransferred",
      "type": "event"
    },
    {
      "anonymous": false,
      "inputs": [
        {
          "indexed": false,
          "internalType": "address",
          "name": "token",
          "type": "address"
        },
        {
          "indexed": false,
          "internalType": "uint256",
          "name": "amount",
          "type": "uint256"
        }
      ],
      "name": "TokensReleased",
      "type": "event"
    },
    {
      "inputs": [],
      "name": "burnedAmount",
      "outputs": [
        {
          "internalType": "uint256",
          "name": "",
          "type": "uint256"
        }
      ],
      "stateMutability": "view",
      "type": "function"
    },
    {
      "inputs": [],
      "name": "burner",
      "outputs": [
        {
          "internalType": "address",
          "name": "",
          "type": "address"
        }
      ],
      "stateMutability": "view",
      "type": "function"
    },
    {
      "inputs": [],
      "name": "duration",
      "outputs": [
        {
          "internalType": "uint256",
          "name": "",
          "type": "uint256"
        }
      ],
      "stateMutability": "view",
      "type": "function"
    },
    {
      "inputs": [],
      "name": "owner",
      "outputs": [
        {
          "internalType": "address",
          "name": "",
          "type": "address"
        }
      ],
      "stateMutability": "view",
      "type": "function"
    },
    {
      "inputs": [],
      "name": "receiveAmount",
      "outputs": [
        {
          "internalType": "uint256",
          "name": "",
          "type": "uint256"
        }
      ],
      "stateMutability": "view",
      "type": "function"
    },
    {
      "inputs": [
        {
          "internalType": "address",
          "name": "",
          "type": "address"
        }
      ],
      "name": "released",
      "outputs": [
        {
          "internalType": "uint256",
          "name": "",
          "type": "uint256"
        }
      ],
      "stateMutability": "view",
      "type": "function"
    },
    {
      "inputs": [],
      "name": "renounceOwnership",
      "outputs": [],
      "stateMutability": "nonpayable",
      "type": "function"
    },
    {
      "inputs": [],
      "name": "stageCliffUnit",
      "outputs": [
        {
          "internalType": "uint256",
          "name": "",
          "type": "uint256"
        }
      ],
      "stateMutability": "view",
      "type": "function"
    },
    {
      "inputs": [],
      "name": "start",
      "outputs": [
        {
          "internalType": "uint256",
          "name": "",
          "type": "uint256"
        }
      ],
      "stateMutability": "view",
      "type": "function"
    },
    {
      "inputs": [],
      "name": "totalShares",
      "outputs": [
        {
          "internalType": "uint256",
          "name": "",
          "type": "uint256"
        }
      ],
      "stateMutability": "view",
      "type": "function"
    },
    {
      "inputs": [
        {
          "internalType": "address",
          "name": "newOwner",
          "type": "address"
        }
      ],
      "name": "transferOwnership",
      "outputs": [],
      "stateMutability": "nonpayable",
      "type": "function"
    },
    {
      "inputs": [
        {
          "internalType": "contract IERC20",
          "name": "token",
          "type": "address"
        }
      ],
      "name": "release",
      "outputs": [],
      "stateMutability": "nonpayable",
      "type": "function"
    },
    {
      "inputs": [
        {
          "internalType": "contract IERC20",
          "name": "token",
          "type": "address"
        }
      ],
      "name": "toBeReleasableAmount",
      "outputs": [
        {
          "internalType": "uint256",
          "name": "",
          "type": "uint256"
        }
      ],
      "stateMutability": "view",
      "type": "function"
    },
    {
      "inputs": [
        {
          "internalType": "contract IERC20",
          "name": "token",
          "type": "address"
        }
      ],
      "name": "releasableAmount",
      "outputs": [
        {
          "internalType": "uint256",
          "name": "",
          "type": "uint256"
        }
      ],
      "stateMutability": "view",
      "type": "function"
    }
  ],
  "bytecode": "0x608060405260646005553480156200001657600080fd5b5060405162001b0038038062001b0083398181016040528101906200003c9190620002f5565b6200005c62000050620001e360201b60201c565b620001eb60201b60201c565b600073ffffffffffffffffffffffffffffffffffffffff168673ffffffffffffffffffffffffffffffffffffffff161415620000cf576040517f08c379a0000000000000000000000000000000000000000000000000000000008152600401620000c69062000422565b60405180910390fd5b42620000ea8587620002af60201b620006eb1790919060201c565b116200012d576040517f08c379a0000000000000000000000000000000000000000000000000000000008152600401620001249062000400565b60405180910390fd5b8284101562000173576040517f08c379a00000000000000000000000000000000000000000000000000000000081526004016200016a9062000444565b60405180910390fd5b85600160006101000a81548173ffffffffffffffffffffffffffffffffffffffff021916908373ffffffffffffffffffffffffffffffffffffffff160217905550846002819055508360038190555082600481905550816006819055508060078190555050505050505062000662565b600033905090565b60008060009054906101000a900473ffffffffffffffffffffffffffffffffffffffff169050816000806101000a81548173ffffffffffffffffffffffffffffffffffffffff021916908373ffffffffffffffffffffffffffffffffffffffff1602179055508173ffffffffffffffffffffffffffffffffffffffff168173ffffffffffffffffffffffffffffffffffffffff167f8be0079c531659141344cd1fd0a4f28419497f9722a3daafe3b4186f6b6457e060405160405180910390a35050565b60008183620002bf919062000477565b905092915050565b600081519050620002d8816200062e565b92915050565b600081519050620002ef8162000648565b92915050565b60008060008060008060c087890312156200030f57600080fd5b60006200031f89828a01620002c7565b96505060206200033289828a01620002de565b95505060406200034589828a01620002de565b94505060606200035889828a01620002de565b93505060806200036b89828a01620002de565b92505060a06200037e89828a01620002de565b9150509295509295509295565b60006200039a603a8362000466565b9150620003a78262000541565b604082019050919050565b6000620003c160338362000466565b9150620003ce8262000590565b604082019050919050565b6000620003e860398362000466565b9150620003f582620005df565b604082019050919050565b600060208201905081810360008301526200041b816200038b565b9050919050565b600060208201905081810360008301526200043d81620003b2565b9050919050565b600060208201905081810360008301526200045f81620003d9565b9050919050565b600082825260208201905092915050565b6000620004848262000508565b9150620004918362000508565b9250827fffffffffffffffffffffffffffffffffffffffffffffffffffffffffffffffff03821115620004c957620004c862000512565b5b828201905092915050565b6000620004e182620004e8565b9050919050565b600073ffffffffffffffffffffffffffffffffffffffff82169050919050565b6000819050919050565b7f4e487b7100000000000000000000000000000000000000000000000000000000600052601160045260246000fd5b7f546f6b656e56657374696e674275726e466f7267696e673a2066696e616c207460008201527f696d65206973206265666f72652063757272656e742074696d65000000000000602082015250565b7f546f6b656e56657374696e674275726e466f7267696e673a206275726e65722060008201527f697320746865207a65726f206164647265737300000000000000000000000000602082015250565b7f546f6b656e56657374696e674275726e466f7267696e673a20506572696f642060008201527f69732067726561746572207468616e20756e69742074696d6500000000000000602082015250565b6200063981620004d4565b81146200064557600080fd5b50565b620006538162000508565b81146200065f57600080fd5b50565b61148e80620006726000396000f3fe608060405234801561001057600080fd5b50600436106100ea5760003560e01c806350e15fdd1161008c5780639852595c116100665780639852595c14610217578063be9a655514610247578063ee7bb24a14610265578063f2fde38b14610295576100ea565b806350e15fdd146101d1578063715018a6146101ef5780638da5cb5b146101f9576100ea565b806319165587116100c8578063191655871461015b57806322ac3f501461017757806327810b6e146101955780633a98ef39146101b3576100ea565b806309883bd5146100ef5780630fb5a6b41461010d5780631726cbc81461012b575b600080fd5b6100f76102b1565b6040516101049190611021565b60405180910390f35b6101156102b7565b6040516101229190611021565b60405180910390f35b61014560048036038101906101409190610d38565b6102bd565b6040516101529190611021565b60405180910390f35b61017560048036038101906101709190610d38565b610320565b005b61017f61048f565b60405161018c9190611021565b60405180910390f35b61019d610495565b6040516101aa9190610efb565b60405180910390f35b6101bb6104bb565b6040516101c89190611021565b60405180910390f35b6101d96104c1565b6040516101e69190611021565b60405180910390f35b6101f76104c7565b005b61020161054f565b60405161020e9190610efb565b60405180910390f35b610231600480360381019061022c9190610ce6565b610578565b60405161023e9190611021565b60405180910390f35b61024f610590565b60405161025c9190611021565b60405180910390f35b61027f600480360381019061027a9190610d38565b610596565b60405161028c9190611021565b60405180910390f35b6102af60048036038101906102aa9190610ce6565b6105f3565b005b60075481565b60035481565b6000610319600860008473ffffffffffffffffffffffffffffffffffffffff1673ffffffffffffffffffffffffffffffffffffffff1681526020019081526020016000205461030b84610701565b6108a790919063ffffffff16565b9050919050565b600061032b826102bd565b905060008111610370576040517f08c379a000000000000000000000000000000000000000000000000000000000815260040161036790610f81565b60405180910390fd5b6103c281600860008573ffffffffffffffffffffffffffffffffffffffff1673ffffffffffffffffffffffffffffffffffffffff168152602001908152602001600020546106eb90919063ffffffff16565b600860008473ffffffffffffffffffffffffffffffffffffffff1673ffffffffffffffffffffffffffffffffffffffff16815260200190815260200160002081905550610452600160009054906101000a900473ffffffffffffffffffffffffffffffffffffffff16828473ffffffffffffffffffffffffffffffffffffffff166108bd9092919063ffffffff16565b7fc7798891864187665ac6dd119286e44ec13f014527aeeb2b8eb3fd413df931798282604051610483929190610f16565b60405180910390a15050565b60045481565b600160009054906101000a900473ffffffffffffffffffffffffffffffffffffffff1681565b60055481565b60065481565b6104cf610943565b73ffffffffffffffffffffffffffffffffffffffff166104ed61054f565b73ffffffffffffffffffffffffffffffffffffffff1614610543576040517f08c379a000000000000000000000000000000000000000000000000000000000815260040161053a90610fc1565b60405180910390fd5b61054d600061094b565b565b60008060009054906101000a900473ffffffffffffffffffffffffffffffffffffffff16905090565b60086020528060005260406000206000915090505481565b60025481565b60006105ec600860008473ffffffffffffffffffffffffffffffffffffffff1673ffffffffffffffffffffffffffffffffffffffff168152602001908152602001600020546007546108a790919063ffffffff16565b9050919050565b6105fb610943565b73ffffffffffffffffffffffffffffffffffffffff1661061961054f565b73ffffffffffffffffffffffffffffffffffffffff161461066f576040517f08c379a000000000000000000000000000000000000000000000000000000000815260040161066690610fc1565b60405180910390fd5b600073ffffffffffffffffffffffffffffffffffffffff168173ffffffffffffffffffffffffffffffffffffffff1614156106df576040517f08c379a00000000000000000000000000000000000000000000000000000000081526004016106d690610f61565b60405180910390fd5b6106e88161094b565b50565b600081836106f9919061106e565b905092915050565b6000808273ffffffffffffffffffffffffffffffffffffffff166370a08231306040518263ffffffff1660e01b815260040161073d9190610efb565b60206040518083038186803b15801561075557600080fd5b505afa158015610769573d6000803e3d6000fd5b505050506040513d601f19601f8201168201806040525081019061078d9190610d61565b905060006107e3600860008673ffffffffffffffffffffffffffffffffffffffff1673ffffffffffffffffffffffffffffffffffffffff16815260200190815260200160002054836106eb90919063ffffffff16565b90506107fc6003546002546106eb90919063ffffffff16565b421061080c5780925050506108a2565b6000806002549050600061082d600454600354610a0f90919063ffffffff16565b905060005b818110156108985761084f600454846106eb90919063ffffffff16565b92504283111561085e57610898565b6108836108748387610a0f90919063ffffffff16565b856106eb90919063ffffffff16565b93508080610890906111b6565b915050610832565b5082955050505050505b919050565b600081836108b591906110f5565b905092915050565b61093e8363a9059cbb60e01b84846040516024016108dc929190610f16565b604051602081830303815290604052907bffffffffffffffffffffffffffffffffffffffffffffffffffffffff19166020820180517bffffffffffffffffffffffffffffffffffffffffffffffffffffffff8381831617835250505050610a25565b505050565b600033905090565b60008060009054906101000a900473ffffffffffffffffffffffffffffffffffffffff169050816000806101000a81548173ffffffffffffffffffffffffffffffffffffffff021916908373ffffffffffffffffffffffffffffffffffffffff1602179055508173ffffffffffffffffffffffffffffffffffffffff168173ffffffffffffffffffffffffffffffffffffffff167f8be0079c531659141344cd1fd0a4f28419497f9722a3daafe3b4186f6b6457e060405160405180910390a35050565b60008183610a1d91906110c4565b905092915050565b6000610a87826040518060400160405280602081526020017f5361666545524332303a206c6f772d6c6576656c2063616c6c206661696c65648152508573ffffffffffffffffffffffffffffffffffffffff16610aec9092919063ffffffff16565b9050600081511115610ae75780806020019051810190610aa79190610d0f565b610ae6576040517f08c379a0000000000000000000000000000000000000000000000000000000008152600401610add90611001565b60405180910390fd5b5b505050565b6060610afb8484600085610b04565b90509392505050565b606082471015610b49576040517f08c379a0000000000000000000000000000000000000000000000000000000008152600401610b4090610fa1565b60405180910390fd5b610b5285610c18565b610b91576040517f08c379a0000000000000000000000000000000000000000000000000000000008152600401610b8890610fe1565b60405180910390fd5b6000808673ffffffffffffffffffffffffffffffffffffffff168587604051610bba9190610ee4565b60006040518083038185875af1925050503d8060008114610bf7576040519150601f19603f3d011682016040523d82523d6000602084013e610bfc565b606091505b5091509150610c0c828286610c2b565b92505050949350505050565b600080823b905060008111915050919050565b60608315610c3b57829050610c8b565b600083511115610c4e5782518084602001fd5b816040517f08c379a0000000000000000000000000000000000000000000000000000000008152600401610c829190610f3f565b60405180910390fd5b9392505050565b600081359050610ca1816113fc565b92915050565b600081519050610cb681611413565b92915050565b600081359050610ccb8161142a565b92915050565b600081519050610ce081611441565b92915050565b600060208284031215610cf857600080fd5b6000610d0684828501610c92565b91505092915050565b600060208284031215610d2157600080fd5b6000610d2f84828501610ca7565b91505092915050565b600060208284031215610d4a57600080fd5b6000610d5884828501610cbc565b91505092915050565b600060208284031215610d7357600080fd5b6000610d8184828501610cd1565b91505092915050565b610d9381611129565b82525050565b6000610da48261103c565b610dae8185611052565b9350610dbe818560208601611183565b80840191505092915050565b6000610dd582611047565b610ddf818561105d565b9350610def818560208601611183565b610df88161125d565b840191505092915050565b6000610e1060268361105d565b9150610e1b8261126e565b604082019050919050565b6000610e33602a8361105d565b9150610e3e826112bd565b604082019050919050565b6000610e5660268361105d565b9150610e618261130c565b604082019050919050565b6000610e7960208361105d565b9150610e848261135b565b602082019050919050565b6000610e9c601d8361105d565b9150610ea782611384565b602082019050919050565b6000610ebf602a8361105d565b9150610eca826113ad565b604082019050919050565b610ede81611179565b82525050565b6000610ef08284610d99565b915081905092915050565b6000602082019050610f106000830184610d8a565b92915050565b6000604082019050610f2b6000830185610d8a565b610f386020830184610ed5565b9392505050565b60006020820190508181036000830152610f598184610dca565b905092915050565b60006020820190508181036000830152610f7a81610e03565b9050919050565b60006020820190508181036000830152610f9a81610e26565b9050919050565b60006020820190508181036000830152610fba81610e49565b9050919050565b60006020820190508181036000830152610fda81610e6c565b9050919050565b60006020820190508181036000830152610ffa81610e8f565b9050919050565b6000602082019050818103600083015261101a81610eb2565b9050919050565b60006020820190506110366000830184610ed5565b92915050565b600081519050919050565b600081519050919050565b600081905092915050565b600082825260208201905092915050565b600061107982611179565b915061108483611179565b9250827fffffffffffffffffffffffffffffffffffffffffffffffffffffffffffffffff038211156110b9576110b86111ff565b5b828201905092915050565b60006110cf82611179565b91506110da83611179565b9250826110ea576110e961122e565b5b828204905092915050565b600061110082611179565b915061110b83611179565b92508282101561111e5761111d6111ff565b5b828203905092915050565b600061113482611159565b9050919050565b60008115159050919050565b600061115282611129565b9050919050565b600073ffffffffffffffffffffffffffffffffffffffff82169050919050565b6000819050919050565b60005b838110156111a1578082015181840152602081019050611186565b838111156111b0576000848401525b50505050565b60006111c182611179565b91507fffffffffffffffffffffffffffffffffffffffffffffffffffffffffffffffff8214156111f4576111f36111ff565b5b600182019050919050565b7f4e487b7100000000000000000000000000000000000000000000000000000000600052601160045260246000fd5b7f4e487b7100000000000000000000000000000000000000000000000000000000600052601260045260246000fd5b6000601f19601f8301169050919050565b7f4f776e61626c653a206e6577206f776e657220697320746865207a65726f206160008201527f6464726573730000000000000000000000000000000000000000000000000000602082015250565b7f546f6b656e56657374696e674275726e466f7267696e673a206e6f20746f6b6560008201527f6e73206172652064756500000000000000000000000000000000000000000000602082015250565b7f416464726573733a20696e73756666696369656e742062616c616e636520666f60008201527f722063616c6c0000000000000000000000000000000000000000000000000000602082015250565b7f4f776e61626c653a2063616c6c6572206973206e6f7420746865206f776e6572600082015250565b7f416464726573733a2063616c6c20746f206e6f6e2d636f6e7472616374000000600082015250565b7f5361666545524332303a204552433230206f7065726174696f6e20646964206e60008201527f6f74207375636365656400000000000000000000000000000000000000000000602082015250565b61140581611129565b811461141057600080fd5b50565b61141c8161113b565b811461142757600080fd5b50565b61143381611147565b811461143e57600080fd5b50565b61144a81611179565b811461145557600080fd5b5056fea264697066735822122091c7e4f1d16acac0292081eb867f604160e3bc30da1a1d617b0b7f926f7ee1b864736f6c63430008040033",
  "immutableReferences": {},
  "source": "// SPDX-License-Identifier: MIT\r\npragma solidity ^0.8.0;\r\n\r\nimport \"@openzeppelin/contracts/access/Ownable.sol\";\r\nimport \"@openzeppelin/contracts/utils/math/SafeMath.sol\";\r\nimport \"@openzeppelin/contracts/token/ERC20/utils/SafeERC20.sol\";\r\n\r\ncontract TokenVestingBurnForging is Ownable {\r\n    using SafeMath for uint256;\r\n    using SafeERC20 for IERC20;\r\n\r\n    event TokensReleased(address token, uint256 amount);\r\n\r\n    // \r\n    address public burner;\r\n    // UNIX timeUTCuint block.timestamp \r\n    // \r\n    uint256 public start;\r\n    // 4\r\n    uint256 public duration;\r\n    // \r\n    uint256 public stageCliffUnit;\r\n    // \r\n    uint256 public totalShares = 100;\r\n    // \r\n    uint256 public burnedAmount;\r\n    // \r\n    uint256 public receiveAmount;\r\n\r\n    // \r\n    mapping (address => uint256) public released;\r\n\r\n    constructor (address _burner, uint256 _start, uint256 _duration, uint256 _stageCliffUnit, uint256 _burnedAmount, uint256 _receiveAmount) {\r\n        require(_burner != address(0), \"TokenVestingBurnForging: burner is the zero address\");\r\n        require(_start.add(_duration) > block.timestamp, \"TokenVestingBurnForging: final time is before current time\");\r\n        require(_duration >= _stageCliffUnit, \"TokenVestingBurnForging: Period is greater than unit time\");\r\n\r\n        burner = _burner;\r\n        start = _start;\r\n        duration = _duration;\r\n        stageCliffUnit = _stageCliffUnit;\r\n        burnedAmount = _burnedAmount;\r\n        receiveAmount = _receiveAmount;\r\n    }\r\n\r\n    // \r\n    function release(IERC20 token) public {\r\n        uint256 unreleased = releasableAmount(token);\r\n        require(unreleased > 0, \"TokenVestingBurnForging: no tokens are due\");\r\n        released[address(token)] = released[address(token)].add(unreleased);\r\n        token.safeTransfer(burner, unreleased);\r\n        emit TokensReleased(address(token), unreleased);\r\n    }\r\n\r\n    // \r\n    function toBeReleasableAmount(IERC20 token) public view returns (uint256) {\r\n        return receiveAmount.sub(released[address(token)]);\r\n    }\r\n\r\n    // \r\n    function releasableAmount(IERC20 token) public view returns (uint256) {\r\n        return _vestedAmount(token).sub(released[address(token)]);\r\n    }\r\n\r\n    // \r\n    function _vestedAmount(IERC20 token) private view returns (uint256) {\r\n        uint256 currentBalance = token.balanceOf(address(this));\r\n        uint256 totalBalance = currentBalance.add(released[address(token)]);\r\n\r\n        // \r\n        if (block.timestamp >= start.add(duration)) {\r\n            return totalBalance;\r\n        } else {\r\n            // \r\n            uint256 vestedAmount = 0;\r\n            // \r\n            uint256 cumulativeTime = start;\r\n            // \r\n            uint256 vestCount = duration.div(stageCliffUnit);\r\n            for (uint256 i = 0; i < vestCount; i++) {\r\n                cumulativeTime = cumulativeTime.add(stageCliffUnit);\r\n                if (cumulativeTime > block.timestamp) {\r\n                    break;\r\n                }\r\n                vestedAmount = vestedAmount.add(totalBalance.div(vestCount));\r\n            }\r\n            return vestedAmount;\r\n        }\r\n    }\r\n}\r\n",
  "sourcePath": "D:\\Workspaces\\DaoswapDex\\daoswapdex-heco-testnet\\core-chn-node\\contracts\\Forging\\emission\\TokenVestingBurnForging.sol",
  "compiler": {
    "name": "solc",
    "version": "0.8.4+commit.c7e474f2.Emscripten.clang"
  },
  "schemaVersion": "3.4.3",
  "updatedAt": "2021-09-26T15:19:05.286Z",
  "devdoc": {
    "kind": "dev",
    "methods": {
      "owner()": {
        "details": "Returns the address of the current owner."
      },
      "renounceOwnership()": {
        "details": "Leaves the contract without owner. It will not be possible to call `onlyOwner` functions anymore. Can only be called by the current owner. NOTE: Renouncing ownership will leave the contract without an owner, thereby removing any functionality that is only available to the owner."
      },
      "transferOwnership(address)": {
        "details": "Transfers ownership of the contract to a new account (`newOwner`). Can only be called by the current owner."
      }
    },
    "version": 1
  },
  "userdoc": {
    "kind": "user",
    "methods": {},
    "version": 1
  }
}