{
  "contractName": "TokenVestingRetail",
  "abi": [
    {
      "inputs": [
        {
          "internalType": "address",
          "name": "beneficiary",
          "type": "address"
        },
        {
          "internalType": "uint256",
          "name": "start",
          "type": "uint256"
        }
      ],
      "payable": false,
      "stateMutability": "nonpayable",
      "type": "constructor"
    },
    {
      "anonymous": false,
      "inputs": [
        {
          "indexed": true,
          "internalType": "address",
          "name": "previousOwner",
          "type": "address"
        },
        {
          "indexed": true,
          "internalType": "address",
          "name": "newOwner",
          "type": "address"
        }
      ],
      "name": "OwnershipTransferred",
      "type": "event"
    },
    {
      "anonymous": false,
      "inputs": [
        {
          "indexed": false,
          "internalType": "address",
          "name": "token",
          "type": "address"
        },
        {
          "indexed": false,
          "internalType": "uint256",
          "name": "amount",
          "type": "uint256"
        }
      ],
      "name": "TokensReleased",
      "type": "event"
    },
    {
      "constant": true,
      "inputs": [],
      "name": "isOwner",
      "outputs": [
        {
          "internalType": "bool",
          "name": "",
          "type": "bool"
        }
      ],
      "payable": false,
      "stateMutability": "view",
      "type": "function"
    },
    {
      "constant": true,
      "inputs": [],
      "name": "owner",
      "outputs": [
        {
          "internalType": "address",
          "name": "",
          "type": "address"
        }
      ],
      "payable": false,
      "stateMutability": "view",
      "type": "function"
    },
    {
      "constant": false,
      "inputs": [],
      "name": "renounceOwnership",
      "outputs": [],
      "payable": false,
      "stateMutability": "nonpayable",
      "type": "function"
    },
    {
      "constant": false,
      "inputs": [
        {
          "internalType": "address",
          "name": "newOwner",
          "type": "address"
        }
      ],
      "name": "transferOwnership",
      "outputs": [],
      "payable": false,
      "stateMutability": "nonpayable",
      "type": "function"
    },
    {
      "constant": true,
      "inputs": [],
      "name": "beneficiary",
      "outputs": [
        {
          "internalType": "address",
          "name": "",
          "type": "address"
        }
      ],
      "payable": false,
      "stateMutability": "view",
      "type": "function"
    },
    {
      "constant": true,
      "inputs": [],
      "name": "start",
      "outputs": [
        {
          "internalType": "uint256",
          "name": "",
          "type": "uint256"
        }
      ],
      "payable": false,
      "stateMutability": "view",
      "type": "function"
    },
    {
      "constant": true,
      "inputs": [],
      "name": "duration",
      "outputs": [
        {
          "internalType": "uint256",
          "name": "",
          "type": "uint256"
        }
      ],
      "payable": false,
      "stateMutability": "view",
      "type": "function"
    },
    {
      "constant": true,
      "inputs": [
        {
          "internalType": "address",
          "name": "token",
          "type": "address"
        }
      ],
      "name": "released",
      "outputs": [
        {
          "internalType": "uint256",
          "name": "",
          "type": "uint256"
        }
      ],
      "payable": false,
      "stateMutability": "view",
      "type": "function"
    },
    {
      "constant": false,
      "inputs": [
        {
          "internalType": "contract IERC20",
          "name": "token",
          "type": "address"
        }
      ],
      "name": "release",
      "outputs": [],
      "payable": false,
      "stateMutability": "nonpayable",
      "type": "function"
    },
    {
      "constant": true,
      "inputs": [
        {
          "internalType": "contract IERC20",
          "name": "token",
          "type": "address"
        }
      ],
      "name": "releasableAmount",
      "outputs": [
        {
          "internalType": "uint256",
          "name": "",
          "type": "uint256"
        }
      ],
      "payable": false,
      "stateMutability": "view",
      "type": "function"
    }
  ],
  "bytecode": "0x6080604052604051806040016040528061025861ffff1681526020016104b061ffff168152506006906002620000379291906200040f565b50604051806040016040528061012c61ffff16815260200161012c61ffff1681525060079060026200006b9291906200040f565b506040518060400160405280602860ff168152602001603c60ff1681525060089060026200009b92919062000467565b50348015620000a957600080fd5b50604051620018523803806200185283398181016040526040811015620000cf57600080fd5b8101908080519060200190929190805190602001909291905050506000620000fc6200037e60201b60201c565b9050806000806101000a81548173ffffffffffffffffffffffffffffffffffffffff021916908373ffffffffffffffffffffffffffffffffffffffff1602179055508073ffffffffffffffffffffffffffffffffffffffff16600073ffffffffffffffffffffffffffffffffffffffff167f8be0079c531659141344cd1fd0a4f28419497f9722a3daafe3b4186f6b6457e060405160405180910390a350600073ffffffffffffffffffffffffffffffffffffffff168273ffffffffffffffffffffffffffffffffffffffff16141562000222576040517f08c379a0000000000000000000000000000000000000000000000000000000008152600401808060200182810382526033815260200180620017ea6033913960400191505060405180910390fd5b81600160006101000a81548173ffffffffffffffffffffffffffffffffffffffff021916908373ffffffffffffffffffffffffffffffffffffffff1602179055508060028190555060008090505b6006805490508110156200030057620002b2600682815481106200029057fe5b90600052602060002001546003546200038660201b62000a981790919060201c565b600381905550620002ec60088281548110620002ca57fe5b90600052602060002001546004546200038660201b62000a981790919060201c565b600481905550808060010191505062000270565b50426200031e600354836200038660201b62000a981790919060201c565b1162000376576040517f08c379a00000000000000000000000000000000000000000000000000000000081526004018080602001828103825260358152602001806200181d6035913960400191505060405180910390fd5b5050620004e6565b600033905090565b60008082840190508381101562000405576040517f08c379a000000000000000000000000000000000000000000000000000000000815260040180806020018281038252601b8152602001807f536166654d6174683a206164646974696f6e206f766572666c6f77000000000081525060200191505060405180910390fd5b8091505092915050565b82805482825590600052602060002090810192821562000454579160200282015b8281111562000453578251829061ffff1690559160200191906001019062000430565b5b509050620004639190620004be565b5090565b828054828255906000526020600020908101928215620004ab579160200282015b82811115620004aa578251829060ff1690559160200191906001019062000488565b5b509050620004ba9190620004be565b5090565b620004e391905b80821115620004df576000816000905550600101620004c5565b5090565b90565b6112f480620004f66000396000f3fe608060405234801561001057600080fd5b506004361061009e5760003560e01c80638da5cb5b116100665780638da5cb5b146101b15780638f32d59b146101fb5780639852595c1461021d578063be9a655514610275578063f2fde38b146102935761009e565b80630fb5a6b4146100a35780631726cbc8146100c1578063191655871461011957806338af3eed1461015d578063715018a6146101a7575b600080fd5b6100ab6102d7565b6040518082815260200191505060405180910390f35b610103600480360360208110156100d757600080fd5b81019080803573ffffffffffffffffffffffffffffffffffffffff1690602001909291905050506102e1565b6040518082815260200191505060405180910390f35b61015b6004803603602081101561012f57600080fd5b81019080803573ffffffffffffffffffffffffffffffffffffffff169060200190929190505050610344565b005b6101656104fb565b604051808273ffffffffffffffffffffffffffffffffffffffff1673ffffffffffffffffffffffffffffffffffffffff16815260200191505060405180910390f35b6101af610525565b005b6101b961065e565b604051808273ffffffffffffffffffffffffffffffffffffffff1673ffffffffffffffffffffffffffffffffffffffff16815260200191505060405180910390f35b610203610687565b604051808215151515815260200191505060405180910390f35b61025f6004803603602081101561023357600080fd5b81019080803573ffffffffffffffffffffffffffffffffffffffff1690602001909291905050506106e5565b6040518082815260200191505060405180910390f35b61027d61072e565b6040518082815260200191505060405180910390f35b6102d5600480360360208110156102a957600080fd5b81019080803573ffffffffffffffffffffffffffffffffffffffff169060200190929190505050610738565b005b6000600354905090565b600061033d600560008473ffffffffffffffffffffffffffffffffffffffff1673ffffffffffffffffffffffffffffffffffffffff1681526020019081526020016000205461032f846107be565b610a4e90919063ffffffff16565b9050919050565b600061034f826102e1565b9050600081116103aa576040517f08c379a000000000000000000000000000000000000000000000000000000000815260040180806020018281038252602581526020018061122a6025913960400191505060405180910390fd5b6103fc81600560008573ffffffffffffffffffffffffffffffffffffffff1673ffffffffffffffffffffffffffffffffffffffff16815260200190815260200160002054610a9890919063ffffffff16565b600560008473ffffffffffffffffffffffffffffffffffffffff1673ffffffffffffffffffffffffffffffffffffffff1681526020019081526020016000208190555061048c600160009054906101000a900473ffffffffffffffffffffffffffffffffffffffff16828473ffffffffffffffffffffffffffffffffffffffff16610b209092919063ffffffff16565b7fc7798891864187665ac6dd119286e44ec13f014527aeeb2b8eb3fd413df931798282604051808373ffffffffffffffffffffffffffffffffffffffff1673ffffffffffffffffffffffffffffffffffffffff1681526020018281526020019250505060405180910390a15050565b6000600160009054906101000a900473ffffffffffffffffffffffffffffffffffffffff16905090565b61052d610687565b61059f576040517f08c379a00000000000000000000000000000000000000000000000000000000081526004018080602001828103825260208152602001807f4f776e61626c653a2063616c6c6572206973206e6f7420746865206f776e657281525060200191505060405180910390fd5b600073ffffffffffffffffffffffffffffffffffffffff166000809054906101000a900473ffffffffffffffffffffffffffffffffffffffff1673ffffffffffffffffffffffffffffffffffffffff167f8be0079c531659141344cd1fd0a4f28419497f9722a3daafe3b4186f6b6457e060405160405180910390a360008060006101000a81548173ffffffffffffffffffffffffffffffffffffffff021916908373ffffffffffffffffffffffffffffffffffffffff160217905550565b60008060009054906101000a900473ffffffffffffffffffffffffffffffffffffffff16905090565b60008060009054906101000a900473ffffffffffffffffffffffffffffffffffffffff1673ffffffffffffffffffffffffffffffffffffffff166106c9610bf1565b73ffffffffffffffffffffffffffffffffffffffff1614905090565b6000600560008373ffffffffffffffffffffffffffffffffffffffff1673ffffffffffffffffffffffffffffffffffffffff168152602001908152602001600020549050919050565b6000600254905090565b610740610687565b6107b2576040517f08c379a00000000000000000000000000000000000000000000000000000000081526004018080602001828103825260208152602001807f4f776e61626c653a2063616c6c6572206973206e6f7420746865206f776e657281525060200191505060405180910390fd5b6107bb81610bf9565b50565b6000808273ffffffffffffffffffffffffffffffffffffffff166370a08231306040518263ffffffff1660e01b8152600401808273ffffffffffffffffffffffffffffffffffffffff1673ffffffffffffffffffffffffffffffffffffffff16815260200191505060206040518083038186803b15801561083e57600080fd5b505afa158015610852573d6000803e3d6000fd5b505050506040513d602081101561086857600080fd5b8101908080519060200190929190505050905060006108cf600560008673ffffffffffffffffffffffffffffffffffffffff1673ffffffffffffffffffffffffffffffffffffffff1681526020019081526020016000205483610a9890919063ffffffff16565b90506108e8600354600254610a9890919063ffffffff16565b42106108f8578092505050610a49565b600080905060008090506000600254905060008090505b600680549050811015610a3f57600061095f6007838154811061092e57fe5b90600052602060002001546006848154811061094657fe5b9060005260206000200154610d3d90919063ffffffff16565b9050600061098d826008858154811061097457fe5b9060005260206000200154610d3d90919063ffffffff16565b905060008090505b82811015610a22576109c7600785815481106109ad57fe5b906000526020600020015486610a9890919063ffffffff16565b9450428511156109da5760019650610a22565b610a13610a046004546109f6858c610d8790919063ffffffff16565b610d3d90919063ffffffff16565b87610a9890919063ffffffff16565b95508080600101915050610995565b508515610a30575050610a3f565b5050808060010191505061090f565b5081955050505050505b919050565b6000610a9083836040518060400160405280601e81526020017f536166654d6174683a207375627472616374696f6e206f766572666c6f770000815250610e0d565b905092915050565b600080828401905083811015610b16576040517f08c379a000000000000000000000000000000000000000000000000000000000815260040180806020018281038252601b8152602001807f536166654d6174683a206164646974696f6e206f766572666c6f77000000000081525060200191505060405180910390fd5b8091505092915050565b610bec838473ffffffffffffffffffffffffffffffffffffffff1663a9059cbb905060e01b8484604051602401808373ffffffffffffffffffffffffffffffffffffffff1673ffffffffffffffffffffffffffffffffffffffff16815260200182815260200192505050604051602081830303815290604052907bffffffffffffffffffffffffffffffffffffffffffffffffffffffff19166020820180517bffffffffffffffffffffffffffffffffffffffffffffffffffffffff8381831617835250505050610ecd565b505050565b600033905090565b600073ffffffffffffffffffffffffffffffffffffffff168173ffffffffffffffffffffffffffffffffffffffff161415610c7f576040517f08c379a000000000000000000000000000000000000000000000000000000000815260040180806020018281038252602681526020018061124f6026913960400191505060405180910390fd5b8073ffffffffffffffffffffffffffffffffffffffff166000809054906101000a900473ffffffffffffffffffffffffffffffffffffffff1673ffffffffffffffffffffffffffffffffffffffff167f8be0079c531659141344cd1fd0a4f28419497f9722a3daafe3b4186f6b6457e060405160405180910390a3806000806101000a81548173ffffffffffffffffffffffffffffffffffffffff021916908373ffffffffffffffffffffffffffffffffffffffff16021790555050565b6000610d7f83836040518060400160405280601a81526020017f536166654d6174683a206469766973696f6e206279207a65726f000000000000815250611118565b905092915050565b600080831415610d9a5760009050610e07565b6000828402905082848281610dab57fe5b0414610e02576040517f08c379a00000000000000000000000000000000000000000000000000000000081526004018080602001828103825260218152602001806112756021913960400191505060405180910390fd5b809150505b92915050565b6000838311158290610eba576040517f08c379a00000000000000000000000000000000000000000000000000000000081526004018080602001828103825283818151815260200191508051906020019080838360005b83811015610e7f578082015181840152602081019050610e64565b50505050905090810190601f168015610eac5780820380516001836020036101000a031916815260200191505b509250505060405180910390fd5b5060008385039050809150509392505050565b610eec8273ffffffffffffffffffffffffffffffffffffffff166111de565b610f5e576040517f08c379a000000000000000000000000000000000000000000000000000000000815260040180806020018281038252601f8152602001807f5361666545524332303a2063616c6c20746f206e6f6e2d636f6e74726163740081525060200191505060405180910390fd5b600060608373ffffffffffffffffffffffffffffffffffffffff16836040518082805190602001908083835b60208310610fad5780518252602082019150602081019050602083039250610f8a565b6001836020036101000a0380198251168184511680821785525050505050509050019150506000604051808303816000865af19150503d806000811461100f576040519150601f19603f3d011682016040523d82523d6000602084013e611014565b606091505b50915091508161108c576040517f08c379a00000000000000000000000000000000000000000000000000000000081526004018080602001828103825260208152602001807f5361666545524332303a206c6f772d6c6576656c2063616c6c206661696c656481525060200191505060405180910390fd5b600081511115611112578080602001905160208110156110ab57600080fd5b8101908080519060200190929190505050611111576040517f08c379a000000000000000000000000000000000000000000000000000000000815260040180806020018281038252602a815260200180611296602a913960400191505060405180910390fd5b5b50505050565b600080831182906111c4576040517f08c379a00000000000000000000000000000000000000000000000000000000081526004018080602001828103825283818151815260200191508051906020019080838360005b8381101561118957808201518184015260208101905061116e565b50505050905090810190601f1680156111b65780820380516001836020036101000a031916815260200191505b509250505060405180910390fd5b5060008385816111d057fe5b049050809150509392505050565b60008060007fc5d2460186f7233c927e7db2dcc703c0e500b653ca82273b7bfad8045d85a47060001b9050833f915080821415801561122057506000801b8214155b9250505091905056fe546f6b656e56657374696e6752657461696c3a206e6f20746f6b656e7320617265206475654f776e61626c653a206e6577206f776e657220697320746865207a65726f2061646472657373536166654d6174683a206d756c7469706c69636174696f6e206f766572666c6f775361666545524332303a204552433230206f7065726174696f6e20646964206e6f742073756363656564a265627a7a723158201bf7f0fad0e08f81a1f4c32aad2045c15208f13e9c84cf5c58ffa4fbfcaaf9ad64736f6c63430005100032546f6b656e56657374696e6752657461696c3a2062656e656669636961727920697320746865207a65726f2061646472657373546f6b656e56657374696e6752657461696c3a2066696e616c2074696d65206973206265666f72652063757272656e742074696d65",
  "source": "pragma solidity ^0.5.0;\r\n\r\nimport \"@openzeppelin/contracts/token/ERC20/SafeERC20.sol\";\r\nimport \"@openzeppelin/contracts/ownership/Ownable.sol\";\r\nimport \"@openzeppelin/contracts/math/SafeMath.sol\";\r\n\r\ncontract TokenVestingRetail is Ownable {\r\n    using SafeMath for uint256;\r\n    using SafeERC20 for IERC20;\r\n\r\n    event TokensReleased(address token, uint256 amount);\r\n\r\n    // 受益人地址\r\n    address private _beneficiary;\r\n\r\n    // UNIX time，UTC时间戳，单位秒，类型uint，与 block.timestamp 一致\r\n    // 合约开始时间，即锁定开始时间\r\n    uint256 private _start;\r\n    // 锁定周期，例如：4年\r\n    uint256 private _duration;\r\n    // 总释放比例\r\n    uint256 private _totalShares;\r\n\r\n    // 记录每个币种的已释放量\r\n    mapping (address => uint256) private _released;\r\n\r\n    // 释放规则参数\r\n    // 每阶段释放时间\r\n    uint256[] private _stageTime = [10 minutes, 20 minutes];\r\n    // 每阶段截断时间单位\r\n    uint256[] private _stageCliffUnit = [5 minutes, 5 minutes];\r\n    // 每阶段释放比例\r\n    uint256[] private _stageRate = [40, 60];\r\n\r\n    constructor (address beneficiary, uint256 start) public {\r\n        require(beneficiary != address(0), \"TokenVestingRetail: beneficiary is the zero address\");\r\n\r\n        _beneficiary = beneficiary;\r\n        _start = start;\r\n\r\n        for (uint256 i = 0; i < _stageTime.length; i++) {\r\n            _duration = _duration.add(_stageTime[i]);\r\n            _totalShares = _totalShares.add(_stageRate[i]);\r\n        }\r\n\r\n        // solhint-disable-next-line max-line-length\r\n        require(start.add(_duration) > block.timestamp, \"TokenVestingRetail: final time is before current time\");\r\n    }\r\n\r\n    /**\r\n     * @return the beneficiary of the tokens.\r\n     */\r\n    function beneficiary() public view returns (address) {\r\n        return _beneficiary;\r\n    }\r\n\r\n    /**\r\n     * @return the start time of the token vesting.\r\n     */\r\n    function start() public view returns (uint256) {\r\n        return _start;\r\n    }\r\n\r\n    /**\r\n     * @return the duration of the token vesting.\r\n     */\r\n    function duration() public view returns (uint256) {\r\n        return _duration;\r\n    }\r\n\r\n    /**\r\n     * @return the amount of the token released.\r\n     */\r\n    function released(address token) public view returns (uint256) {\r\n        return _released[token];\r\n    }\r\n\r\n    // 提取代币\r\n    function release(IERC20 token) public {\r\n        uint256 unreleased = releasableAmount(token);\r\n\r\n        require(unreleased > 0, \"TokenVestingRetail: no tokens are due\");\r\n\r\n        _released[address(token)] = _released[address(token)].add(unreleased);\r\n\r\n        token.safeTransfer(_beneficiary, unreleased);\r\n\r\n        emit TokensReleased(address(token), unreleased);\r\n    }\r\n\r\n    // 计算可提取代币数量\r\n    function releasableAmount(IERC20 token) public view returns (uint256) {\r\n        return _vestedAmount(token).sub(_released[address(token)]);\r\n    }\r\n\r\n    // 计算已释放代币数量\r\n    function _vestedAmount(IERC20 token) private view returns (uint256) {\r\n        uint256 currentBalance = token.balanceOf(address(this));\r\n        uint256 totalBalance = currentBalance.add(_released[address(token)]);\r\n\r\n        // 按条件计算已释放代币数量\r\n        if (block.timestamp >= _start.add(_duration)) {\r\n            return totalBalance;\r\n        } else {\r\n            // 确认是否跳出循环\r\n            bool isJumpFor = false;\r\n            // 记录已释放代币数量\r\n            uint256 vestedAmount = 0;\r\n            // 累计释放时间\r\n            uint256 cumulativeTime = _start;\r\n            for (uint256 i = 0; i < _stageTime.length; i++) {\r\n                // 计算每阶段释放次数\r\n                uint256 vestCount = _stageTime[i].div(_stageCliffUnit[i]);\r\n                // 计算每阶段每次的释放比例\r\n                uint256 vestRate = _stageRate[i].div(vestCount);\r\n                for (uint256 j = 0; j < vestCount; j++) {\r\n                    cumulativeTime = cumulativeTime.add(_stageCliffUnit[i]);\r\n                    if (cumulativeTime > block.timestamp) {\r\n                        isJumpFor = true;\r\n                        break;\r\n                    }\r\n                    vestedAmount = vestedAmount.add(totalBalance.mul(vestRate).div(_totalShares));\r\n                }\r\n                if (isJumpFor) {\r\n                    break;\r\n                }\r\n            }\r\n            return vestedAmount;\r\n        }\r\n    }\r\n}\r\n",
  "sourcePath": "D:/Workspaces/DaoswapDex/daoswapdex-heco-testnet/core-crowdsale/contracts/Crowdsale/CrowdsaleByERC20/emission/TokenVestingRetail.sol",
  "compiler": {
    "name": "solc",
    "version": "0.5.16+commit.9c3226ce.Emscripten.clang"
  },
  "schemaVersion": "3.4.1",
  "updatedAt": "2021-08-22T05:53:18.222Z",
  "devdoc": {
    "methods": {
      "beneficiary()": {
        "return": "the beneficiary of the tokens."
      },
      "duration()": {
        "return": "the duration of the token vesting."
      },
      "isOwner()": {
        "details": "Returns true if the caller is the current owner."
      },
      "owner()": {
        "details": "Returns the address of the current owner."
      },
      "released(address)": {
        "return": "the amount of the token released."
      },
      "renounceOwnership()": {
        "details": "Leaves the contract without owner. It will not be possible to call `onlyOwner` functions anymore. Can only be called by the current owner.     * NOTE: Renouncing ownership will leave the contract without an owner, thereby removing any functionality that is only available to the owner."
      },
      "start()": {
        "return": "the start time of the token vesting."
      },
      "transferOwnership(address)": {
        "details": "Transfers ownership of the contract to a new account (`newOwner`). Can only be called by the current owner."
      }
    }
  },
  "userdoc": {
    "methods": {}
  }
}