{
  "contractName": "TokenVestingBurnForging",
  "abi": [
    {
      "inputs": [
        {
          "internalType": "address",
          "name": "_burner",
          "type": "address"
        },
        {
          "internalType": "uint256",
          "name": "_start",
          "type": "uint256"
        },
        {
          "internalType": "uint256",
          "name": "_duration",
          "type": "uint256"
        },
        {
          "internalType": "uint256",
          "name": "_stageCliffUnit",
          "type": "uint256"
        },
        {
          "internalType": "uint256",
          "name": "_burnedAmount",
          "type": "uint256"
        },
        {
          "internalType": "uint256",
          "name": "_receiveAmount",
          "type": "uint256"
        }
      ],
      "stateMutability": "nonpayable",
      "type": "constructor"
    },
    {
      "anonymous": false,
      "inputs": [
        {
          "indexed": true,
          "internalType": "address",
          "name": "previousOwner",
          "type": "address"
        },
        {
          "indexed": true,
          "internalType": "address",
          "name": "newOwner",
          "type": "address"
        }
      ],
      "name": "OwnershipTransferred",
      "type": "event"
    },
    {
      "anonymous": false,
      "inputs": [
        {
          "indexed": false,
          "internalType": "address",
          "name": "token",
          "type": "address"
        },
        {
          "indexed": false,
          "internalType": "uint256",
          "name": "amount",
          "type": "uint256"
        }
      ],
      "name": "TokensReleased",
      "type": "event"
    },
    {
      "inputs": [],
      "name": "burnedAmount",
      "outputs": [
        {
          "internalType": "uint256",
          "name": "",
          "type": "uint256"
        }
      ],
      "stateMutability": "view",
      "type": "function"
    },
    {
      "inputs": [],
      "name": "burner",
      "outputs": [
        {
          "internalType": "address",
          "name": "",
          "type": "address"
        }
      ],
      "stateMutability": "view",
      "type": "function"
    },
    {
      "inputs": [],
      "name": "duration",
      "outputs": [
        {
          "internalType": "uint256",
          "name": "",
          "type": "uint256"
        }
      ],
      "stateMutability": "view",
      "type": "function"
    },
    {
      "inputs": [],
      "name": "owner",
      "outputs": [
        {
          "internalType": "address",
          "name": "",
          "type": "address"
        }
      ],
      "stateMutability": "view",
      "type": "function"
    },
    {
      "inputs": [],
      "name": "receiveAmount",
      "outputs": [
        {
          "internalType": "uint256",
          "name": "",
          "type": "uint256"
        }
      ],
      "stateMutability": "view",
      "type": "function"
    },
    {
      "inputs": [
        {
          "internalType": "address",
          "name": "",
          "type": "address"
        }
      ],
      "name": "released",
      "outputs": [
        {
          "internalType": "uint256",
          "name": "",
          "type": "uint256"
        }
      ],
      "stateMutability": "view",
      "type": "function"
    },
    {
      "inputs": [],
      "name": "renounceOwnership",
      "outputs": [],
      "stateMutability": "nonpayable",
      "type": "function"
    },
    {
      "inputs": [],
      "name": "stageCliffUnit",
      "outputs": [
        {
          "internalType": "uint256",
          "name": "",
          "type": "uint256"
        }
      ],
      "stateMutability": "view",
      "type": "function"
    },
    {
      "inputs": [],
      "name": "start",
      "outputs": [
        {
          "internalType": "uint256",
          "name": "",
          "type": "uint256"
        }
      ],
      "stateMutability": "view",
      "type": "function"
    },
    {
      "inputs": [],
      "name": "totalShares",
      "outputs": [
        {
          "internalType": "uint256",
          "name": "",
          "type": "uint256"
        }
      ],
      "stateMutability": "view",
      "type": "function"
    },
    {
      "inputs": [
        {
          "internalType": "address",
          "name": "newOwner",
          "type": "address"
        }
      ],
      "name": "transferOwnership",
      "outputs": [],
      "stateMutability": "nonpayable",
      "type": "function"
    },
    {
      "inputs": [
        {
          "internalType": "contract IERC20",
          "name": "token",
          "type": "address"
        }
      ],
      "name": "release",
      "outputs": [],
      "stateMutability": "nonpayable",
      "type": "function"
    },
    {
      "inputs": [
        {
          "internalType": "contract IERC20",
          "name": "token",
          "type": "address"
        }
      ],
      "name": "releasableAmount",
      "outputs": [
        {
          "internalType": "uint256",
          "name": "",
          "type": "uint256"
        }
      ],
      "stateMutability": "view",
      "type": "function"
    }
  ],
  "bytecode": "0x608060405260646005553480156200001657600080fd5b5060405162001a5838038062001a5883398181016040528101906200003c9190620002f5565b6200005c62000050620001e360201b60201c565b620001eb60201b60201c565b600073ffffffffffffffffffffffffffffffffffffffff168673ffffffffffffffffffffffffffffffffffffffff161415620000cf576040517f08c379a0000000000000000000000000000000000000000000000000000000008152600401620000c69062000422565b60405180910390fd5b42620000ea8587620002af60201b620006431790919060201c565b116200012d576040517f08c379a0000000000000000000000000000000000000000000000000000000008152600401620001249062000400565b60405180910390fd5b8284101562000173576040517f08c379a00000000000000000000000000000000000000000000000000000000081526004016200016a9062000444565b60405180910390fd5b85600160006101000a81548173ffffffffffffffffffffffffffffffffffffffff021916908373ffffffffffffffffffffffffffffffffffffffff160217905550846002819055508360038190555082600481905550816006819055508060078190555050505050505062000662565b600033905090565b60008060009054906101000a900473ffffffffffffffffffffffffffffffffffffffff169050816000806101000a81548173ffffffffffffffffffffffffffffffffffffffff021916908373ffffffffffffffffffffffffffffffffffffffff1602179055508173ffffffffffffffffffffffffffffffffffffffff168173ffffffffffffffffffffffffffffffffffffffff167f8be0079c531659141344cd1fd0a4f28419497f9722a3daafe3b4186f6b6457e060405160405180910390a35050565b60008183620002bf919062000477565b905092915050565b600081519050620002d8816200062e565b92915050565b600081519050620002ef8162000648565b92915050565b60008060008060008060c087890312156200030f57600080fd5b60006200031f89828a01620002c7565b96505060206200033289828a01620002de565b95505060406200034589828a01620002de565b94505060606200035889828a01620002de565b93505060806200036b89828a01620002de565b92505060a06200037e89828a01620002de565b9150509295509295509295565b60006200039a603a8362000466565b9150620003a78262000541565b604082019050919050565b6000620003c160338362000466565b9150620003ce8262000590565b604082019050919050565b6000620003e860398362000466565b9150620003f582620005df565b604082019050919050565b600060208201905081810360008301526200041b816200038b565b9050919050565b600060208201905081810360008301526200043d81620003b2565b9050919050565b600060208201905081810360008301526200045f81620003d9565b9050919050565b600082825260208201905092915050565b6000620004848262000508565b9150620004918362000508565b9250827fffffffffffffffffffffffffffffffffffffffffffffffffffffffffffffffff03821115620004c957620004c862000512565b5b828201905092915050565b6000620004e182620004e8565b9050919050565b600073ffffffffffffffffffffffffffffffffffffffff82169050919050565b6000819050919050565b7f4e487b7100000000000000000000000000000000000000000000000000000000600052601160045260246000fd5b7f546f6b656e56657374696e674275726e466f7267696e673a2066696e616c207460008201527f696d65206973206265666f72652063757272656e742074696d65000000000000602082015250565b7f546f6b656e56657374696e674275726e466f7267696e673a206275726e65722060008201527f697320746865207a65726f206164647265737300000000000000000000000000602082015250565b7f546f6b656e56657374696e674275726e466f7267696e673a20506572696f642060008201527f69732067726561746572207468616e20756e69742074696d6500000000000000602082015250565b6200063981620004d4565b81146200064557600080fd5b50565b620006538162000508565b81146200065f57600080fd5b50565b6113e680620006726000396000f3fe608060405234801561001057600080fd5b50600436106100cf5760003560e01c80633a98ef391161008c5780638da5cb5b116100665780638da5cb5b146101de5780639852595c146101fc578063be9a65551461022c578063f2fde38b1461024a576100cf565b80633a98ef391461019857806350e15fdd146101b6578063715018a6146101d4576100cf565b806309883bd5146100d45780630fb5a6b4146100f25780631726cbc814610110578063191655871461014057806322ac3f501461015c57806327810b6e1461017a575b600080fd5b6100dc610266565b6040516100e99190610f79565b60405180910390f35b6100fa61026c565b6040516101079190610f79565b60405180910390f35b61012a60048036038101906101259190610c90565b610272565b6040516101379190610f79565b60405180910390f35b61015a60048036038101906101559190610c90565b6102d5565b005b610164610444565b6040516101719190610f79565b60405180910390f35b61018261044a565b60405161018f9190610e53565b60405180910390f35b6101a0610470565b6040516101ad9190610f79565b60405180910390f35b6101be610476565b6040516101cb9190610f79565b60405180910390f35b6101dc61047c565b005b6101e6610504565b6040516101f39190610e53565b60405180910390f35b61021660048036038101906102119190610c3e565b61052d565b6040516102239190610f79565b60405180910390f35b610234610545565b6040516102419190610f79565b60405180910390f35b610264600480360381019061025f9190610c3e565b61054b565b005b60075481565b60035481565b60006102ce600860008473ffffffffffffffffffffffffffffffffffffffff1673ffffffffffffffffffffffffffffffffffffffff168152602001908152602001600020546102c084610659565b6107ff90919063ffffffff16565b9050919050565b60006102e082610272565b905060008111610325576040517f08c379a000000000000000000000000000000000000000000000000000000000815260040161031c90610ed9565b60405180910390fd5b61037781600860008573ffffffffffffffffffffffffffffffffffffffff1673ffffffffffffffffffffffffffffffffffffffff1681526020019081526020016000205461064390919063ffffffff16565b600860008473ffffffffffffffffffffffffffffffffffffffff1673ffffffffffffffffffffffffffffffffffffffff16815260200190815260200160002081905550610407600160009054906101000a900473ffffffffffffffffffffffffffffffffffffffff16828473ffffffffffffffffffffffffffffffffffffffff166108159092919063ffffffff16565b7fc7798891864187665ac6dd119286e44ec13f014527aeeb2b8eb3fd413df931798282604051610438929190610e6e565b60405180910390a15050565b60045481565b600160009054906101000a900473ffffffffffffffffffffffffffffffffffffffff1681565b60055481565b60065481565b61048461089b565b73ffffffffffffffffffffffffffffffffffffffff166104a2610504565b73ffffffffffffffffffffffffffffffffffffffff16146104f8576040517f08c379a00000000000000000000000000000000000000000000000000000000081526004016104ef90610f19565b60405180910390fd5b61050260006108a3565b565b60008060009054906101000a900473ffffffffffffffffffffffffffffffffffffffff16905090565b60086020528060005260406000206000915090505481565b60025481565b61055361089b565b73ffffffffffffffffffffffffffffffffffffffff16610571610504565b73ffffffffffffffffffffffffffffffffffffffff16146105c7576040517f08c379a00000000000000000000000000000000000000000000000000000000081526004016105be90610f19565b60405180910390fd5b600073ffffffffffffffffffffffffffffffffffffffff168173ffffffffffffffffffffffffffffffffffffffff161415610637576040517f08c379a000000000000000000000000000000000000000000000000000000000815260040161062e90610eb9565b60405180910390fd5b610640816108a3565b50565b600081836106519190610fc6565b905092915050565b6000808273ffffffffffffffffffffffffffffffffffffffff166370a08231306040518263ffffffff1660e01b81526004016106959190610e53565b60206040518083038186803b1580156106ad57600080fd5b505afa1580156106c1573d6000803e3d6000fd5b505050506040513d601f19601f820116820180604052508101906106e59190610cb9565b9050600061073b600860008673ffffffffffffffffffffffffffffffffffffffff1673ffffffffffffffffffffffffffffffffffffffff168152602001908152602001600020548361064390919063ffffffff16565b905061075460035460025461064390919063ffffffff16565b42106107645780925050506107fa565b6000806002549050600061078560045460035461096790919063ffffffff16565b905060005b818110156107f0576107a76004548461064390919063ffffffff16565b9250428311156107b6576107f0565b6107db6107cc838761096790919063ffffffff16565b8561064390919063ffffffff16565b935080806107e89061110e565b91505061078a565b5082955050505050505b919050565b6000818361080d919061104d565b905092915050565b6108968363a9059cbb60e01b8484604051602401610834929190610e6e565b604051602081830303815290604052907bffffffffffffffffffffffffffffffffffffffffffffffffffffffff19166020820180517bffffffffffffffffffffffffffffffffffffffffffffffffffffffff838183161783525050505061097d565b505050565b600033905090565b60008060009054906101000a900473ffffffffffffffffffffffffffffffffffffffff169050816000806101000a81548173ffffffffffffffffffffffffffffffffffffffff021916908373ffffffffffffffffffffffffffffffffffffffff1602179055508173ffffffffffffffffffffffffffffffffffffffff168173ffffffffffffffffffffffffffffffffffffffff167f8be0079c531659141344cd1fd0a4f28419497f9722a3daafe3b4186f6b6457e060405160405180910390a35050565b60008183610975919061101c565b905092915050565b60006109df826040518060400160405280602081526020017f5361666545524332303a206c6f772d6c6576656c2063616c6c206661696c65648152508573ffffffffffffffffffffffffffffffffffffffff16610a449092919063ffffffff16565b9050600081511115610a3f57808060200190518101906109ff9190610c67565b610a3e576040517f08c379a0000000000000000000000000000000000000000000000000000000008152600401610a3590610f59565b60405180910390fd5b5b505050565b6060610a538484600085610a5c565b90509392505050565b606082471015610aa1576040517f08c379a0000000000000000000000000000000000000000000000000000000008152600401610a9890610ef9565b60405180910390fd5b610aaa85610b70565b610ae9576040517f08c379a0000000000000000000000000000000000000000000000000000000008152600401610ae090610f39565b60405180910390fd5b6000808673ffffffffffffffffffffffffffffffffffffffff168587604051610b129190610e3c565b60006040518083038185875af1925050503d8060008114610b4f576040519150601f19603f3d011682016040523d82523d6000602084013e610b54565b606091505b5091509150610b64828286610b83565b92505050949350505050565b600080823b905060008111915050919050565b60608315610b9357829050610be3565b600083511115610ba65782518084602001fd5b816040517f08c379a0000000000000000000000000000000000000000000000000000000008152600401610bda9190610e97565b60405180910390fd5b9392505050565b600081359050610bf981611354565b92915050565b600081519050610c0e8161136b565b92915050565b600081359050610c2381611382565b92915050565b600081519050610c3881611399565b92915050565b600060208284031215610c5057600080fd5b6000610c5e84828501610bea565b91505092915050565b600060208284031215610c7957600080fd5b6000610c8784828501610bff565b91505092915050565b600060208284031215610ca257600080fd5b6000610cb084828501610c14565b91505092915050565b600060208284031215610ccb57600080fd5b6000610cd984828501610c29565b91505092915050565b610ceb81611081565b82525050565b6000610cfc82610f94565b610d068185610faa565b9350610d168185602086016110db565b80840191505092915050565b6000610d2d82610f9f565b610d378185610fb5565b9350610d478185602086016110db565b610d50816111b5565b840191505092915050565b6000610d68602683610fb5565b9150610d73826111c6565b604082019050919050565b6000610d8b602a83610fb5565b9150610d9682611215565b604082019050919050565b6000610dae602683610fb5565b9150610db982611264565b604082019050919050565b6000610dd1602083610fb5565b9150610ddc826112b3565b602082019050919050565b6000610df4601d83610fb5565b9150610dff826112dc565b602082019050919050565b6000610e17602a83610fb5565b9150610e2282611305565b604082019050919050565b610e36816110d1565b82525050565b6000610e488284610cf1565b915081905092915050565b6000602082019050610e686000830184610ce2565b92915050565b6000604082019050610e836000830185610ce2565b610e906020830184610e2d565b9392505050565b60006020820190508181036000830152610eb18184610d22565b905092915050565b60006020820190508181036000830152610ed281610d5b565b9050919050565b60006020820190508181036000830152610ef281610d7e565b9050919050565b60006020820190508181036000830152610f1281610da1565b9050919050565b60006020820190508181036000830152610f3281610dc4565b9050919050565b60006020820190508181036000830152610f5281610de7565b9050919050565b60006020820190508181036000830152610f7281610e0a565b9050919050565b6000602082019050610f8e6000830184610e2d565b92915050565b600081519050919050565b600081519050919050565b600081905092915050565b600082825260208201905092915050565b6000610fd1826110d1565b9150610fdc836110d1565b9250827fffffffffffffffffffffffffffffffffffffffffffffffffffffffffffffffff0382111561101157611010611157565b5b828201905092915050565b6000611027826110d1565b9150611032836110d1565b92508261104257611041611186565b5b828204905092915050565b6000611058826110d1565b9150611063836110d1565b92508282101561107657611075611157565b5b828203905092915050565b600061108c826110b1565b9050919050565b60008115159050919050565b60006110aa82611081565b9050919050565b600073ffffffffffffffffffffffffffffffffffffffff82169050919050565b6000819050919050565b60005b838110156110f95780820151818401526020810190506110de565b83811115611108576000848401525b50505050565b6000611119826110d1565b91507fffffffffffffffffffffffffffffffffffffffffffffffffffffffffffffffff82141561114c5761114b611157565b5b600182019050919050565b7f4e487b7100000000000000000000000000000000000000000000000000000000600052601160045260246000fd5b7f4e487b7100000000000000000000000000000000000000000000000000000000600052601260045260246000fd5b6000601f19601f8301169050919050565b7f4f776e61626c653a206e6577206f776e657220697320746865207a65726f206160008201527f6464726573730000000000000000000000000000000000000000000000000000602082015250565b7f546f6b656e56657374696e674275726e466f7267696e673a206e6f20746f6b6560008201527f6e73206172652064756500000000000000000000000000000000000000000000602082015250565b7f416464726573733a20696e73756666696369656e742062616c616e636520666f60008201527f722063616c6c0000000000000000000000000000000000000000000000000000602082015250565b7f4f776e61626c653a2063616c6c6572206973206e6f7420746865206f776e6572600082015250565b7f416464726573733a2063616c6c20746f206e6f6e2d636f6e7472616374000000600082015250565b7f5361666545524332303a204552433230206f7065726174696f6e20646964206e60008201527f6f74207375636365656400000000000000000000000000000000000000000000602082015250565b61135d81611081565b811461136857600080fd5b50565b61137481611093565b811461137f57600080fd5b50565b61138b8161109f565b811461139657600080fd5b50565b6113a2816110d1565b81146113ad57600080fd5b5056fea26469706673582212209ef5e86b6c2e24957c4d2160693b1681bd5ff1230c91b169e811cbe9e480df7664736f6c63430008040033",
  "immutableReferences": {},
  "source": "// SPDX-License-Identifier: MIT\r\npragma solidity ^0.8.0;\r\n\r\nimport \"@openzeppelin/contracts/access/Ownable.sol\";\r\nimport \"@openzeppelin/contracts/utils/math/SafeMath.sol\";\r\nimport \"@openzeppelin/contracts/token/ERC20/utils/SafeERC20.sol\";\r\n\r\ncontract TokenVestingBurnForging is Ownable {\r\n    using SafeMath for uint256;\r\n    using SafeERC20 for IERC20;\r\n\r\n    event TokensReleased(address token, uint256 amount);\r\n\r\n    // \r\n    address public burner;\r\n    // UNIX timeUTCuint block.timestamp \r\n    // \r\n    uint256 public start;\r\n    // 4\r\n    uint256 public duration;\r\n    // \r\n    uint256 public stageCliffUnit;\r\n    // \r\n    uint256 public totalShares = 100;\r\n    // \r\n    uint256 public burnedAmount;\r\n    // \r\n    uint256 public receiveAmount;\r\n\r\n    // \r\n    mapping (address => uint256) public released;\r\n\r\n    constructor (address _burner, uint256 _start, uint256 _duration, uint256 _stageCliffUnit, uint256 _burnedAmount, uint256 _receiveAmount) {\r\n        require(_burner != address(0), \"TokenVestingBurnForging: burner is the zero address\");\r\n        require(_start.add(_duration) > block.timestamp, \"TokenVestingBurnForging: final time is before current time\");\r\n        require(_duration >= _stageCliffUnit, \"TokenVestingBurnForging: Period is greater than unit time\");\r\n\r\n        burner = _burner;\r\n        start = _start;\r\n        duration = _duration;\r\n        stageCliffUnit = _stageCliffUnit;\r\n        burnedAmount = _burnedAmount;\r\n        receiveAmount = _receiveAmount;\r\n    }\r\n\r\n    // \r\n    function release(IERC20 token) public {\r\n        uint256 unreleased = releasableAmount(token);\r\n        require(unreleased > 0, \"TokenVestingBurnForging: no tokens are due\");\r\n        released[address(token)] = released[address(token)].add(unreleased);\r\n        token.safeTransfer(burner, unreleased);\r\n        emit TokensReleased(address(token), unreleased);\r\n    }\r\n\r\n    // \r\n    function releasableAmount(IERC20 token) public view returns (uint256) {\r\n        return _vestedAmount(token).sub(released[address(token)]);\r\n    }\r\n\r\n    // \r\n    function _vestedAmount(IERC20 token) private view returns (uint256) {\r\n        uint256 currentBalance = token.balanceOf(address(this));\r\n        uint256 totalBalance = currentBalance.add(released[address(token)]);\r\n\r\n        // \r\n        if (block.timestamp >= start.add(duration)) {\r\n            return totalBalance;\r\n        } else {\r\n            // \r\n            uint256 vestedAmount = 0;\r\n            // \r\n            uint256 cumulativeTime = start;\r\n            // \r\n            uint256 vestCount = duration.div(stageCliffUnit);\r\n            for (uint256 i = 0; i < vestCount; i++) {\r\n                cumulativeTime = cumulativeTime.add(stageCliffUnit);\r\n                if (cumulativeTime > block.timestamp) {\r\n                    break;\r\n                }\r\n                vestedAmount = vestedAmount.add(totalBalance.div(vestCount));\r\n            }\r\n            return vestedAmount;\r\n        }\r\n    }\r\n}\r\n",
  "sourcePath": "D:\\Workspaces\\DaoswapDex\\daoswapdex-heco-testnet\\core-chn-node\\contracts\\Forging\\emission\\TokenVestingBurnForging.sol",
  "compiler": {
    "name": "solc",
    "version": "0.8.4+commit.c7e474f2.Emscripten.clang"
  },
  "schemaVersion": "3.4.1",
  "updatedAt": "2021-09-09T02:38:33.650Z",
  "devdoc": {
    "kind": "dev",
    "methods": {
      "owner()": {
        "details": "Returns the address of the current owner."
      },
      "renounceOwnership()": {
        "details": "Leaves the contract without owner. It will not be possible to call `onlyOwner` functions anymore. Can only be called by the current owner. NOTE: Renouncing ownership will leave the contract without an owner, thereby removing any functionality that is only available to the owner."
      },
      "transferOwnership(address)": {
        "details": "Transfers ownership of the contract to a new account (`newOwner`). Can only be called by the current owner."
      }
    },
    "version": 1
  },
  "userdoc": {
    "kind": "user",
    "methods": {},
    "version": 1
  }
}