{
  "contractName": "TokenVestingRetailUnlimited",
  "abi": [
    {
      "inputs": [
        {
          "internalType": "address",
          "name": "_beneficiary",
          "type": "address"
        },
        {
          "internalType": "uint256",
          "name": "_start",
          "type": "uint256"
        },
        {
          "internalType": "uint256",
          "name": "_tokenAmount",
          "type": "uint256"
        }
      ],
      "stateMutability": "nonpayable",
      "type": "constructor"
    },
    {
      "anonymous": false,
      "inputs": [
        {
          "indexed": true,
          "internalType": "address",
          "name": "previousOwner",
          "type": "address"
        },
        {
          "indexed": true,
          "internalType": "address",
          "name": "newOwner",
          "type": "address"
        }
      ],
      "name": "OwnershipTransferred",
      "type": "event"
    },
    {
      "anonymous": false,
      "inputs": [
        {
          "indexed": false,
          "internalType": "address",
          "name": "token",
          "type": "address"
        },
        {
          "indexed": false,
          "internalType": "uint256",
          "name": "amount",
          "type": "uint256"
        }
      ],
      "name": "TokensReleased",
      "type": "event"
    },
    {
      "inputs": [],
      "name": "beneficiary",
      "outputs": [
        {
          "internalType": "address",
          "name": "",
          "type": "address"
        }
      ],
      "stateMutability": "view",
      "type": "function"
    },
    {
      "inputs": [],
      "name": "duration",
      "outputs": [
        {
          "internalType": "uint256",
          "name": "",
          "type": "uint256"
        }
      ],
      "stateMutability": "view",
      "type": "function"
    },
    {
      "inputs": [],
      "name": "owner",
      "outputs": [
        {
          "internalType": "address",
          "name": "",
          "type": "address"
        }
      ],
      "stateMutability": "view",
      "type": "function"
    },
    {
      "inputs": [],
      "name": "renounceOwnership",
      "outputs": [],
      "stateMutability": "nonpayable",
      "type": "function"
    },
    {
      "inputs": [],
      "name": "start",
      "outputs": [
        {
          "internalType": "uint256",
          "name": "",
          "type": "uint256"
        }
      ],
      "stateMutability": "view",
      "type": "function"
    },
    {
      "inputs": [],
      "name": "tokenAmount",
      "outputs": [
        {
          "internalType": "uint256",
          "name": "",
          "type": "uint256"
        }
      ],
      "stateMutability": "view",
      "type": "function"
    },
    {
      "inputs": [],
      "name": "totalShares",
      "outputs": [
        {
          "internalType": "uint256",
          "name": "",
          "type": "uint256"
        }
      ],
      "stateMutability": "view",
      "type": "function"
    },
    {
      "inputs": [
        {
          "internalType": "address",
          "name": "newOwner",
          "type": "address"
        }
      ],
      "name": "transferOwnership",
      "outputs": [],
      "stateMutability": "nonpayable",
      "type": "function"
    },
    {
      "inputs": [
        {
          "internalType": "address",
          "name": "token",
          "type": "address"
        }
      ],
      "name": "released",
      "outputs": [
        {
          "internalType": "uint256",
          "name": "",
          "type": "uint256"
        }
      ],
      "stateMutability": "view",
      "type": "function"
    },
    {
      "inputs": [
        {
          "internalType": "contract IERC20",
          "name": "token",
          "type": "address"
        }
      ],
      "name": "release",
      "outputs": [],
      "stateMutability": "nonpayable",
      "type": "function"
    },
    {
      "inputs": [
        {
          "internalType": "contract IERC20",
          "name": "token",
          "type": "address"
        }
      ],
      "name": "releasableAmount",
      "outputs": [
        {
          "internalType": "uint256",
          "name": "",
          "type": "uint256"
        }
      ],
      "stateMutability": "view",
      "type": "function"
    }
  ],
  "bytecode": "0x6080604052604051806040016040528061025861ffff1681526020016104b061ffff16815250600790600262000037929190620003f6565b50604051806040016040528061012c61ffff16815260200161012c61ffff1681525060089060026200006b929190620003f6565b506040518060400160405280602860ff168152602001603c60ff1681525060099060026200009b9291906200044e565b50348015620000a957600080fd5b5060405162001d6c38038062001d6c8339818101604052810190620000cf9190620004f2565b620000ef620000e36200031260201b60201c565b6200031a60201b60201c565b600073ffffffffffffffffffffffffffffffffffffffff168373ffffffffffffffffffffffffffffffffffffffff16141562000162576040517f08c379a00000000000000000000000000000000000000000000000000000000081526004016200015990620005b8565b60405180910390fd5b82600160006101000a81548173ffffffffffffffffffffffffffffffffffffffff021916908373ffffffffffffffffffffffffffffffffffffffff160217905550816002819055508060058190555060005b600780549050811015620002a657620002236007828154811062000201577f4e487b7100000000000000000000000000000000000000000000000000000000600052603260045260246000fd5b9060005260206000200154600354620003de60201b620006061790919060201c565b6003819055506200028a6009828154811062000268577f4e487b7100000000000000000000000000000000000000000000000000000000600052603260045260246000fd5b9060005260206000200154600454620003de60201b620006061790919060201c565b60048190555080806200029d9062000686565b915050620001b4565b5042620002c6600354600254620003de60201b620006061790919060201c565b1162000309576040517f08c379a0000000000000000000000000000000000000000000000000000000008152600401620003009062000596565b60405180910390fd5b505050620007d5565b600033905090565b60008060009054906101000a900473ffffffffffffffffffffffffffffffffffffffff169050816000806101000a81548173ffffffffffffffffffffffffffffffffffffffff021916908373ffffffffffffffffffffffffffffffffffffffff1602179055508173ffffffffffffffffffffffffffffffffffffffff168173ffffffffffffffffffffffffffffffffffffffff167f8be0079c531659141344cd1fd0a4f28419497f9722a3daafe3b4186f6b6457e060405160405180910390a35050565b60008183620003ee9190620005eb565b905092915050565b8280548282559060005260206000209081019282156200043b579160200282015b828111156200043a578251829061ffff1690559160200191906001019062000417565b5b5090506200044a9190620004a5565b5090565b82805482825590600052602060002090810192821562000492579160200282015b8281111562000491578251829060ff169055916020019190600101906200046f565b5b509050620004a19190620004a5565b5090565b5b80821115620004c0576000816000905550600101620004a6565b5090565b600081519050620004d581620007a1565b92915050565b600081519050620004ec81620007bb565b92915050565b6000806000606084860312156200050857600080fd5b60006200051886828701620004c4565b93505060206200052b86828701620004db565b92505060406200053e86828701620004db565b9150509250925092565b600062000557603e83620005da565b9150620005648262000703565b604082019050919050565b60006200057e603c83620005da565b91506200058b8262000752565b604082019050919050565b60006020820190508181036000830152620005b18162000548565b9050919050565b60006020820190508181036000830152620005d3816200056f565b9050919050565b600082825260208201905092915050565b6000620005f8826200067c565b915062000605836200067c565b9250827fffffffffffffffffffffffffffffffffffffffffffffffffffffffffffffffff038211156200063d576200063c620006d4565b5b828201905092915050565b600062000655826200065c565b9050919050565b600073ffffffffffffffffffffffffffffffffffffffff82169050919050565b6000819050919050565b600062000693826200067c565b91507fffffffffffffffffffffffffffffffffffffffffffffffffffffffffffffffff821415620006c957620006c8620006d4565b5b600182019050919050565b7f4e487b7100000000000000000000000000000000000000000000000000000000600052601160045260246000fd5b7f546f6b656e56657374696e6752657461696c556e6c696d697465643a2066696e60008201527f616c2074696d65206973206265666f72652063757272656e742074696d650000602082015250565b7f546f6b656e56657374696e6752657461696c556e6c696d697465643a2062656e60008201527f656669636961727920697320746865207a65726f206164647265737300000000602082015250565b620007ac8162000648565b8114620007b857600080fd5b50565b620007c6816200067c565b8114620007d257600080fd5b50565b61158780620007e56000396000f3fe608060405234801561001057600080fd5b50600436106100a95760003560e01c8063715018a611610071578063715018a6146101545780638da5cb5b1461015e5780639852595c1461017c578063be9a6555146101ac578063eec7faa1146101ca578063f2fde38b146101e8576100a9565b80630fb5a6b4146100ae5780631726cbc8146100cc57806319165587146100fc57806338af3eed146101185780633a98ef3914610136575b600080fd5b6100b6610204565b6040516100c391906110c0565b60405180910390f35b6100e660048036038101906100e19190610dd7565b61020a565b6040516100f391906110c0565b60405180910390f35b61011660048036038101906101119190610dd7565b61026d565b005b6101206103dc565b60405161012d9190610f9a565b60405180910390f35b61013e610402565b60405161014b91906110c0565b60405180910390f35b61015c610408565b005b610166610490565b6040516101739190610f9a565b60405180910390f35b61019660048036038101906101919190610d85565b6104b9565b6040516101a391906110c0565b60405180910390f35b6101b4610502565b6040516101c191906110c0565b60405180910390f35b6101d2610508565b6040516101df91906110c0565b60405180910390f35b61020260048036038101906101fd9190610d85565b61050e565b005b60035481565b6000610266600660008473ffffffffffffffffffffffffffffffffffffffff1673ffffffffffffffffffffffffffffffffffffffff168152602001908152602001600020546102588461061c565b61093090919063ffffffff16565b9050919050565b60006102788261020a565b9050600081116102bd576040517f08c379a00000000000000000000000000000000000000000000000000000000081526004016102b490611020565b60405180910390fd5b61030f81600660008573ffffffffffffffffffffffffffffffffffffffff1673ffffffffffffffffffffffffffffffffffffffff1681526020019081526020016000205461060690919063ffffffff16565b600660008473ffffffffffffffffffffffffffffffffffffffff1673ffffffffffffffffffffffffffffffffffffffff1681526020019081526020016000208190555061039f600160009054906101000a900473ffffffffffffffffffffffffffffffffffffffff16828473ffffffffffffffffffffffffffffffffffffffff166109469092919063ffffffff16565b7fc7798891864187665ac6dd119286e44ec13f014527aeeb2b8eb3fd413df9317982826040516103d0929190610fb5565b60405180910390a15050565b600160009054906101000a900473ffffffffffffffffffffffffffffffffffffffff1681565b60045481565b6104106109cc565b73ffffffffffffffffffffffffffffffffffffffff1661042e610490565b73ffffffffffffffffffffffffffffffffffffffff1614610484576040517f08c379a000000000000000000000000000000000000000000000000000000000815260040161047b90611060565b60405180910390fd5b61048e60006109d4565b565b60008060009054906101000a900473ffffffffffffffffffffffffffffffffffffffff16905090565b6000600660008373ffffffffffffffffffffffffffffffffffffffff1673ffffffffffffffffffffffffffffffffffffffff168152602001908152602001600020549050919050565b60025481565b60055481565b6105166109cc565b73ffffffffffffffffffffffffffffffffffffffff16610534610490565b73ffffffffffffffffffffffffffffffffffffffff161461058a576040517f08c379a000000000000000000000000000000000000000000000000000000000815260040161058190611060565b60405180910390fd5b600073ffffffffffffffffffffffffffffffffffffffff168173ffffffffffffffffffffffffffffffffffffffff1614156105fa576040517f08c379a00000000000000000000000000000000000000000000000000000000081526004016105f190611000565b60405180910390fd5b610603816109d4565b50565b60008183610614919061110d565b905092915050565b6000808273ffffffffffffffffffffffffffffffffffffffff166370a08231306040518263ffffffff1660e01b81526004016106589190610f9a565b60206040518083038186803b15801561067057600080fd5b505afa158015610684573d6000803e3d6000fd5b505050506040513d601f19601f820116820180604052508101906106a89190610e00565b905060006106fe600660008673ffffffffffffffffffffffffffffffffffffffff1673ffffffffffffffffffffffffffffffffffffffff168152602001908152602001600020548361060690919063ffffffff16565b905061071760035460025461060690919063ffffffff16565b421061072757809250505061092b565b6000806000600254905060005b6007805490508110156109215760006107de60088381548110610780577f4e487b7100000000000000000000000000000000000000000000000000000000600052603260045260246000fd5b9060005260206000200154600784815481106107c5577f4e487b7100000000000000000000000000000000000000000000000000000000600052603260045260246000fd5b9060005260206000200154610a9890919063ffffffff16565b905060006108398260098581548110610820577f4e487b7100000000000000000000000000000000000000000000000000000000600052603260045260246000fd5b9060005260206000200154610a9890919063ffffffff16565b905060005b828110156108fe5761089d60088581548110610883577f4e487b7100000000000000000000000000000000000000000000000000000000600052603260045260246000fd5b90600052602060002001548661060690919063ffffffff16565b9450428511156108b057600196506108fe565b6108e96108da6004546108cc858c610aae90919063ffffffff16565b610a9890919063ffffffff16565b8761060690919063ffffffff16565b955080806108f6906112af565b91505061083e565b50851561090c575050610921565b50508080610919906112af565b915050610734565b5081955050505050505b919050565b6000818361093e91906111ee565b905092915050565b6109c78363a9059cbb60e01b8484604051602401610965929190610fb5565b604051602081830303815290604052907bffffffffffffffffffffffffffffffffffffffffffffffffffffffff19166020820180517bffffffffffffffffffffffffffffffffffffffffffffffffffffffff8381831617835250505050610ac4565b505050565b600033905090565b60008060009054906101000a900473ffffffffffffffffffffffffffffffffffffffff169050816000806101000a81548173ffffffffffffffffffffffffffffffffffffffff021916908373ffffffffffffffffffffffffffffffffffffffff1602179055508173ffffffffffffffffffffffffffffffffffffffff168173ffffffffffffffffffffffffffffffffffffffff167f8be0079c531659141344cd1fd0a4f28419497f9722a3daafe3b4186f6b6457e060405160405180910390a35050565b60008183610aa69190611163565b905092915050565b60008183610abc9190611194565b905092915050565b6000610b26826040518060400160405280602081526020017f5361666545524332303a206c6f772d6c6576656c2063616c6c206661696c65648152508573ffffffffffffffffffffffffffffffffffffffff16610b8b9092919063ffffffff16565b9050600081511115610b865780806020019051810190610b469190610dae565b610b85576040517f08c379a0000000000000000000000000000000000000000000000000000000008152600401610b7c906110a0565b60405180910390fd5b5b505050565b6060610b9a8484600085610ba3565b90509392505050565b606082471015610be8576040517f08c379a0000000000000000000000000000000000000000000000000000000008152600401610bdf90611040565b60405180910390fd5b610bf185610cb7565b610c30576040517f08c379a0000000000000000000000000000000000000000000000000000000008152600401610c2790611080565b60405180910390fd5b6000808673ffffffffffffffffffffffffffffffffffffffff168587604051610c599190610f83565b60006040518083038185875af1925050503d8060008114610c96576040519150601f19603f3d011682016040523d82523d6000602084013e610c9b565b606091505b5091509150610cab828286610cca565b92505050949350505050565b600080823b905060008111915050919050565b60608315610cda57829050610d2a565b600083511115610ced5782518084602001fd5b816040517f08c379a0000000000000000000000000000000000000000000000000000000008152600401610d219190610fde565b60405180910390fd5b9392505050565b600081359050610d40816114f5565b92915050565b600081519050610d558161150c565b92915050565b600081359050610d6a81611523565b92915050565b600081519050610d7f8161153a565b92915050565b600060208284031215610d9757600080fd5b6000610da584828501610d31565b91505092915050565b600060208284031215610dc057600080fd5b6000610dce84828501610d46565b91505092915050565b600060208284031215610de957600080fd5b6000610df784828501610d5b565b91505092915050565b600060208284031215610e1257600080fd5b6000610e2084828501610d70565b91505092915050565b610e3281611222565b82525050565b6000610e43826110db565b610e4d81856110f1565b9350610e5d81856020860161127c565b80840191505092915050565b6000610e74826110e6565b610e7e81856110fc565b9350610e8e81856020860161127c565b610e9781611356565b840191505092915050565b6000610eaf6026836110fc565b9150610eba82611367565b604082019050919050565b6000610ed2602e836110fc565b9150610edd826113b6565b604082019050919050565b6000610ef56026836110fc565b9150610f0082611405565b604082019050919050565b6000610f186020836110fc565b9150610f2382611454565b602082019050919050565b6000610f3b601d836110fc565b9150610f468261147d565b602082019050919050565b6000610f5e602a836110fc565b9150610f69826114a6565b604082019050919050565b610f7d81611272565b82525050565b6000610f8f8284610e38565b915081905092915050565b6000602082019050610faf6000830184610e29565b92915050565b6000604082019050610fca6000830185610e29565b610fd76020830184610f74565b9392505050565b60006020820190508181036000830152610ff88184610e69565b905092915050565b6000602082019050818103600083015261101981610ea2565b9050919050565b6000602082019050818103600083015261103981610ec5565b9050919050565b6000602082019050818103600083015261105981610ee8565b9050919050565b6000602082019050818103600083015261107981610f0b565b9050919050565b6000602082019050818103600083015261109981610f2e565b9050919050565b600060208201905081810360008301526110b981610f51565b9050919050565b60006020820190506110d56000830184610f74565b92915050565b600081519050919050565b600081519050919050565b600081905092915050565b600082825260208201905092915050565b600061111882611272565b915061112383611272565b9250827fffffffffffffffffffffffffffffffffffffffffffffffffffffffffffffffff03821115611158576111576112f8565b5b828201905092915050565b600061116e82611272565b915061117983611272565b92508261118957611188611327565b5b828204905092915050565b600061119f82611272565b91506111aa83611272565b9250817fffffffffffffffffffffffffffffffffffffffffffffffffffffffffffffffff04831182151516156111e3576111e26112f8565b5b828202905092915050565b60006111f982611272565b915061120483611272565b925082821015611217576112166112f8565b5b828203905092915050565b600061122d82611252565b9050919050565b60008115159050919050565b600061124b82611222565b9050919050565b600073ffffffffffffffffffffffffffffffffffffffff82169050919050565b6000819050919050565b60005b8381101561129a57808201518184015260208101905061127f565b838111156112a9576000848401525b50505050565b60006112ba82611272565b91507fffffffffffffffffffffffffffffffffffffffffffffffffffffffffffffffff8214156112ed576112ec6112f8565b5b600182019050919050565b7f4e487b7100000000000000000000000000000000000000000000000000000000600052601160045260246000fd5b7f4e487b7100000000000000000000000000000000000000000000000000000000600052601260045260246000fd5b6000601f19601f8301169050919050565b7f4f776e61626c653a206e6577206f776e657220697320746865207a65726f206160008201527f6464726573730000000000000000000000000000000000000000000000000000602082015250565b7f546f6b656e56657374696e6752657461696c556e6c696d697465643a206e6f2060008201527f746f6b656e732061726520647565000000000000000000000000000000000000602082015250565b7f416464726573733a20696e73756666696369656e742062616c616e636520666f60008201527f722063616c6c0000000000000000000000000000000000000000000000000000602082015250565b7f4f776e61626c653a2063616c6c6572206973206e6f7420746865206f776e6572600082015250565b7f416464726573733a2063616c6c20746f206e6f6e2d636f6e7472616374000000600082015250565b7f5361666545524332303a204552433230206f7065726174696f6e20646964206e60008201527f6f74207375636365656400000000000000000000000000000000000000000000602082015250565b6114fe81611222565b811461150957600080fd5b50565b61151581611234565b811461152057600080fd5b50565b61152c81611240565b811461153757600080fd5b50565b61154381611272565b811461154e57600080fd5b5056fea2646970667358221220d3b5e6651516bd2ac7527d12977fce0f5fa46876dda9222af577a41b2ece142364736f6c63430008040033",
  "immutableReferences": {},
  "source": "// SPDX-License-Identifier: MIT\r\npragma solidity ^0.8.0;\r\n\r\nimport \"@openzeppelin/contracts/access/Ownable.sol\";\r\nimport \"@openzeppelin/contracts/utils/math/SafeMath.sol\";\r\nimport \"@openzeppelin/contracts/token/ERC20/utils/SafeERC20.sol\";\r\n\r\ncontract TokenVestingRetailUnlimited is Ownable {\r\n    using SafeMath for uint256;\r\n    using SafeERC20 for IERC20;\r\n\r\n    event TokensReleased(address token, uint256 amount);\r\n\r\n    // \r\n    address public beneficiary;\r\n\r\n    // UNIX timeUTCuint block.timestamp \r\n    // \r\n    uint256 public start;\r\n    // 4\r\n    uint256 public duration;\r\n    // \r\n    uint256 public totalShares;\r\n    // \r\n    uint256 public tokenAmount;\r\n\r\n    // \r\n    mapping (address => uint256) private _released;\r\n\r\n    // \r\n    // \r\n    uint256[] private _stageTime = [10 minutes, 20 minutes];\r\n    // \r\n    uint256[] private _stageCliffUnit = [5 minutes, 5 minutes];\r\n    // \r\n    uint256[] private _stageRate = [40, 60];\r\n\r\n    constructor (address _beneficiary, uint256 _start, uint256 _tokenAmount) {\r\n        require(_beneficiary != address(0), \"TokenVestingRetailUnlimited: beneficiary is the zero address\");\r\n\r\n        beneficiary = _beneficiary;\r\n        start = _start;\r\n        tokenAmount = _tokenAmount;\r\n\r\n        for (uint256 i = 0; i < _stageTime.length; i++) {\r\n            duration = duration.add(_stageTime[i]);\r\n            totalShares = totalShares.add(_stageRate[i]);\r\n        }\r\n\r\n        // solhint-disable-next-line max-line-length\r\n        require(start.add(duration) > block.timestamp, \"TokenVestingRetailUnlimited: final time is before current time\");\r\n    }\r\n\r\n    /**\r\n     * @return the amount of the token released.\r\n     */\r\n    function released(address token) public view returns (uint256) {\r\n        return _released[token];\r\n    }\r\n\r\n    // \r\n    function release(IERC20 token) public {\r\n        uint256 unreleased = releasableAmount(token);\r\n\r\n        require(unreleased > 0, \"TokenVestingRetailUnlimited: no tokens are due\");\r\n\r\n        _released[address(token)] = _released[address(token)].add(unreleased);\r\n\r\n        token.safeTransfer(beneficiary, unreleased);\r\n\r\n        emit TokensReleased(address(token), unreleased);\r\n    }\r\n\r\n    // \r\n    function releasableAmount(IERC20 token) public view returns (uint256) {\r\n        return _vestedAmount(token).sub(_released[address(token)]);\r\n    }\r\n\r\n    // \r\n    function _vestedAmount(IERC20 token) private view returns (uint256) {\r\n        uint256 currentBalance = token.balanceOf(address(this));\r\n        uint256 totalBalance = currentBalance.add(_released[address(token)]);\r\n\r\n        // \r\n        if (block.timestamp >= start.add(duration)) {\r\n            return totalBalance;\r\n        } else {\r\n            // \r\n            bool isJumpFor = false;\r\n            // \r\n            uint256 vestedAmount = 0;\r\n            // \r\n            uint256 cumulativeTime = start;\r\n            for (uint256 i = 0; i < _stageTime.length; i++) {\r\n                // \r\n                uint256 vestCount = _stageTime[i].div(_stageCliffUnit[i]);\r\n                // \r\n                uint256 vestRate = _stageRate[i].div(vestCount);\r\n                for (uint256 j = 0; j < vestCount; j++) {\r\n                    cumulativeTime = cumulativeTime.add(_stageCliffUnit[i]);\r\n                    if (cumulativeTime > block.timestamp) {\r\n                        isJumpFor = true;\r\n                        break;\r\n                    }\r\n                    vestedAmount = vestedAmount.add(totalBalance.mul(vestRate).div(totalShares));\r\n                }\r\n                if (isJumpFor) {\r\n                    break;\r\n                }\r\n            }\r\n            return vestedAmount;\r\n        }\r\n    }\r\n}\r\n",
  "sourcePath": "D:\\Workspaces\\DaoswapDex\\daoswapdex-heco-testnet\\core-crowdsale2\\contracts\\Crowdsale\\emission\\TokenVestingRetailUnlimited.sol",
  "compiler": {
    "name": "solc",
    "version": "0.8.4+commit.c7e474f2.Emscripten.clang"
  },
  "schemaVersion": "3.4.3",
  "updatedAt": "2021-11-21T13:14:48.564Z",
  "devdoc": {
    "kind": "dev",
    "methods": {
      "owner()": {
        "details": "Returns the address of the current owner."
      },
      "released(address)": {
        "returns": {
          "_0": "the amount of the token released."
        }
      },
      "renounceOwnership()": {
        "details": "Leaves the contract without owner. It will not be possible to call `onlyOwner` functions anymore. Can only be called by the current owner. NOTE: Renouncing ownership will leave the contract without an owner, thereby removing any functionality that is only available to the owner."
      },
      "transferOwnership(address)": {
        "details": "Transfers ownership of the contract to a new account (`newOwner`). Can only be called by the current owner."
      }
    },
    "version": 1
  },
  "userdoc": {
    "kind": "user",
    "methods": {},
    "version": 1
  }
}